{"contracts/Publius.sol":{"Publius":{"abi":[{"anonymous":false,"inputs":[{"indexed":true,"internalType":"address","name":"owner","type":"address"},{"indexed":true,"internalType":"address","name":"approved","type":"address"},{"indexed":true,"internalType":"uint256","name":"tokenId","type":"uint256"}],"name":"Approval","type":"event"},{"anonymous":false,"inputs":[{"indexed":true,"internalType":"address","name":"owner","type":"address"},{"indexed":true,"internalType":"address","name":"operator","type":"address"},{"indexed":false,"internalType":"bool","name":"approved","type":"bool"}],"name":"ApprovalForAll","type":"event"},{"anonymous":false,"inputs":[{"indexed":false,"internalType":"uint8","name":"version","type":"uint8"}],"name":"Initialized","type":"event"},{"anonymous":false,"inputs":[{"indexed":true,"internalType":"address","name":"previousOwner","type":"address"},{"indexed":true,"internalType":"address","name":"newOwner","type":"address"}],"name":"OwnershipTransferred","type":"event"},{"anonymous":false,"inputs":[{"indexed":true,"internalType":"address","name":"from","type":"address"},{"indexed":true,"internalType":"address","name":"to","type":"address"},{"indexed":true,"internalType":"uint256","name":"tokenId","type":"uint256"}],"name":"Transfer","type":"event"},{"inputs":[{"internalType":"string","name":"_chapterName","type":"string"},{"internalType":"string","name":"_chapterImage","type":"string"},{"internalType":"uint256","name":"_chapterId","type":"uint256"},{"internalType":"string[]","name":"_pageNames","type":"string[]"},{"internalType":"string[]","name":"_pageContent","type":"string[]"}],"name":"addChapter","outputs":[],"stateMutability":"nonpayable","type":"function"},{"inputs":[{"internalType":"uint256","name":"_chapter","type":"uint256"},{"internalType":"string","name":"_pageName","type":"string"},{"internalType":"string","name":"_pageContent","type":"string"}],"name":"addPage","outputs":[],"stateMutability":"nonpayable","type":"function"},{"inputs":[{"internalType":"string","name":"_sectionName","type":"string"},{"internalType":"uint256","name":"_sectionId","type":"uint256"},{"internalType":"string","name":"_sectionImage","type":"string"},{"internalType":"bytes","name":"_chapterInfo","type":"bytes"}],"name":"addSection","outputs":[],"stateMutability":"nonpayable","type":"function"},{"inputs":[{"internalType":"address","name":"to","type":"address"},{"internalType":"uint256","name":"tokenId","type":"uint256"}],"name":"approve","outputs":[],"stateMutability":"nonpayable","type":"function"},{"inputs":[{"internalType":"address","name":"owner","type":"address"}],"name":"balanceOf","outputs":[{"internalType":"uint256","name":"","type":"uint256"}],"stateMutability":"view","type":"function"},{"inputs":[{"internalType":"uint256","name":"","type":"uint256"}],"name":"chapters","outputs":[{"internalType":"string","name":"chapterName","type":"string"},{"internalType":"uint256","name":"chapterId","type":"uint256"},{"internalType":"string","name":"chapterImage","type":"string"},{"internalType":"uint256","name":"pageCount","type":"uint256"}],"stateMutability":"view","type":"function"},{"inputs":[{"internalType":"uint256","name":"tokenId","type":"uint256"}],"name":"getApproved","outputs":[{"internalType":"address","name":"","type":"address"}],"stateMutability":"view","type":"function"},{"inputs":[{"internalType":"address","name":"_publicationAuthor","type":"address"},{"internalType":"string","name":"_publicationName","type":"string"},{"internalType":"string","name":"_publicationCoverImage","type":"string"}],"name":"initialize","outputs":[],"stateMutability":"nonpayable","type":"function"},{"inputs":[{"internalType":"address","name":"owner","type":"address"},{"internalType":"address","name":"operator","type":"address"}],"name":"isApprovedForAll","outputs":[{"internalType":"bool","name":"","type":"bool"}],"stateMutability":"view","type":"function"},{"inputs":[{"internalType":"address","name":"","type":"address"},{"internalType":"uint256","name":"","type":"uint256"}],"name":"minterOwnedTokens","outputs":[{"internalType":"uint256","name":"","type":"uint256"}],"stateMutability":"view","type":"function"},{"inputs":[],"name":"name","outputs":[{"internalType":"string","name":"","type":"string"}],"stateMutability":"view","type":"function"},{"inputs":[],"name":"owner","outputs":[{"internalType":"address","name":"","type":"address"}],"stateMutability":"view","type":"function"},{"inputs":[{"internalType":"uint256","name":"tokenId","type":"uint256"}],"name":"ownerOf","outputs":[{"internalType":"address","name":"","type":"address"}],"stateMutability":"view","type":"function"},{"inputs":[],"name":"publicationAuthor","outputs":[{"internalType":"address","name":"","type":"address"}],"stateMutability":"view","type":"function"},{"inputs":[],"name":"publicationCoverImage","outputs":[{"internalType":"string","name":"","type":"string"}],"stateMutability":"view","type":"function"},{"inputs":[],"name":"publicationName","outputs":[{"internalType":"string","name":"","type":"string"}],"stateMutability":"view","type":"function"},{"inputs":[],"name":"renounceOwnership","outputs":[],"stateMutability":"nonpayable","type":"function"},{"inputs":[{"internalType":"address","name":"from","type":"address"},{"internalType":"address","name":"to","type":"address"},{"internalType":"uint256","name":"tokenId","type":"uint256"}],"name":"safeTransferFrom","outputs":[],"stateMutability":"nonpayable","type":"function"},{"inputs":[{"internalType":"address","name":"from","type":"address"},{"internalType":"address","name":"to","type":"address"},{"internalType":"uint256","name":"tokenId","type":"uint256"},{"internalType":"bytes","name":"data","type":"bytes"}],"name":"safeTransferFrom","outputs":[],"stateMutability":"nonpayable","type":"function"},{"inputs":[{"internalType":"uint256","name":"","type":"uint256"}],"name":"sections","outputs":[{"internalType":"string","name":"sectionName","type":"string"},{"internalType":"uint256","name":"sectionId","type":"uint256"},{"internalType":"string","name":"sectionImage","type":"string"}],"stateMutability":"view","type":"function"},{"inputs":[{"internalType":"address","name":"operator","type":"address"},{"internalType":"bool","name":"approved","type":"bool"}],"name":"setApprovalForAll","outputs":[],"stateMutability":"nonpayable","type":"function"},{"inputs":[{"internalType":"bytes4","name":"interfaceId","type":"bytes4"}],"name":"supportsInterface","outputs":[{"internalType":"bool","name":"","type":"bool"}],"stateMutability":"view","type":"function"},{"inputs":[],"name":"symbol","outputs":[{"internalType":"string","name":"","type":"string"}],"stateMutability":"view","type":"function"},{"inputs":[{"internalType":"uint256","name":"","type":"uint256"}],"name":"tokenIdToMinter","outputs":[{"internalType":"address","name":"","type":"address"}],"stateMutability":"view","type":"function"},{"inputs":[{"internalType":"uint256","name":"tokenId","type":"uint256"}],"name":"tokenURI","outputs":[{"internalType":"string","name":"","type":"string"}],"stateMutability":"view","type":"function"},{"inputs":[{"internalType":"address","name":"from","type":"address"},{"internalType":"address","name":"to","type":"address"},{"internalType":"uint256","name":"tokenId","type":"uint256"}],"name":"transferFrom","outputs":[],"stateMutability":"nonpayable","type":"function"},{"inputs":[{"internalType":"address","name":"newOwner","type":"address"}],"name":"transferOwnership","outputs":[],"stateMutability":"nonpayable","type":"function"}],"evm":{"bytecode":{"linkReferences":{},"object":"608060405234801561001057600080fd5b50612bd7806100206000396000f3fe608060405234801561001057600080fd5b50600436106101a95760003560e01c8063715018a6116100f9578063b88d4fde11610097578063db010ae411610071578063db010ae414610399578063e985e9c5146103ac578063f2fde38b146103bf578063f40adb12146103d257600080fd5b8063b88d4fde1461036b578063c87b56dd1461037e578063ccfea8f01461039157600080fd5b806390657147116100d3578063906571471461032a57806395d89b411461033d578063a22cb46514610345578063a240d4aa1461035857600080fd5b8063715018a61461030957806386b4e2a0146103115780638da5cb5b1461031957600080fd5b806323b872dd11610166578063527c416511610140578063527c4165146102af5780635b92cc8a146102c25780636352211e146102d557806370a08231146102e857600080fd5b806323b872dd14610267578063356034401461027a57806342842e0e1461029c57600080fd5b806301ffc9a7146101ae57806306fdde03146101d6578063081812fc146101eb578063095ea7b3146102165780630f1f08501461022b5780632218f1191461023e575b600080fd5b6101c16101bc366004611c9d565b6103f5565b60405190151581526020015b60405180910390f35b6101de610447565b6040516101cd9190611d11565b6101fe6101f9366004611d24565b6104d9565b6040516001600160a01b0390911681526020016101cd565b610229610224366004611d59565b610500565b005b610229610239366004611dcb565b61061a565b6101fe61024c366004611d24565b60c9602052600090815260409020546001600160a01b031681565b610229610275366004611e44565b61073b565b61028d610288366004611d24565b61076c565b6040516101cd93929190611e80565b6102296102aa366004611e44565b61089e565b60ce546101fe906001600160a01b031681565b6102296102d0366004612024565b6108b9565b6101fe6102e3366004611d24565b610a21565b6102fb6102f63660046120da565b610a81565b6040519081526020016101cd565b610229610b07565b6101de610b1b565b6097546001600160a01b03166101fe565b6102296103383660046120f5565b610ba9565b6101de610dda565b610229610353366004612132565b610de9565b61022961036636600461216e565b610df8565b610229610379366004612211565b610f1d565b6101de61038c366004611d24565b610f55565b6101de6112e6565b6102fb6103a7366004611d59565b6112f3565b6101c16103ba36600461228c565b611324565b6102296103cd3660046120da565b611352565b6103e56103e0366004611d24565b6113cb565b6040516101cd94939291906122bf565b60006001600160e01b031982166380ac58cd60e01b148061042657506001600160e01b03198216635b5e139f60e01b145b8061044157506301ffc9a760e01b6001600160e01b03198316145b92915050565b606060658054610456906122fc565b80601f0160208091040260200160405190810160405280929190818152602001828054610482906122fc565b80156104cf5780601f106104a4576101008083540402835291602001916104cf565b820191906000526020600020905b8154815290600101906020018083116104b257829003601f168201915b5050505050905090565b60006104e482611503565b506000908152606960205260409020546001600160a01b031690565b600061050b82610a21565b9050806001600160a01b0316836001600160a01b03160361057d5760405162461bcd60e51b815260206004820152602160248201527f4552433732313a20617070726f76616c20746f2063757272656e74206f776e656044820152603960f91b60648201526084015b60405180910390fd5b336001600160a01b038216148061059957506105998133611324565b61060b5760405162461bcd60e51b815260206004820152603d60248201527f4552433732313a20617070726f76652063616c6c6572206973206e6f7420746f60448201527f6b656e206f776e6572206f7220617070726f76656420666f7220616c6c0000006064820152608401610574565b6106158383611562565b505050565b6106226115d0565b600085815260cc602090815260409182902082516080601f880184900490930281018301909352606083018681529092918291908890889081908501838280828437600092019190915250505090825250600483015460209091019061068990600161234c565b815260200184848080601f016020809104026020016040519081016040528093929190818152602001838380828437600092018290525093909452505060048401546003850192506106dc90600161234c565b81526020810191909152604001600020815181906106fa90826123a5565b50602082015160018201556040820151600282019061071990826123a5565b50505060048101805490600061072e83612464565b9190505550505050505050565b610745338261162a565b6107615760405162461bcd60e51b81526004016105749061247d565b610615838383611689565b60cb60205260009081526040902080548190610787906122fc565b80601f01602080910402602001604051908101604052809291908181526020018280546107b3906122fc565b80156108005780601f106107d557610100808354040283529160200191610800565b820191906000526020600020905b8154815290600101906020018083116107e357829003601f168201915b50505050509080600101549080600201805461081b906122fc565b80601f0160208091040260200160405190810160405280929190818152602001828054610847906122fc565b80156108945780601f1061086957610100808354040283529160200191610894565b820191906000526020600020905b81548152906001019060200180831161087757829003601f168201915b5050505050905083565b61061583838360405180602001604052806000815250610f1d565b6108c16115d0565b600083815260cc60205260408120905b83518110156109b05760405180606001604052808583815181106108f7576108f76124ca565b60200260200101518152602001826001610911919061234c565b8152602001848381518110610928576109286124ca565b6020026020010151815250826003016000836001610946919061234c565b815260208101919091526040016000208151819061096490826123a5565b50602082015160018201556040820151600282019061098390826123a5565b50505060048201805490600061099883612464565b919050555080806109a890612464565b9150506108d1565b50806109bc87826123a5565b50600181018490556040516109d5908690602001611d11565b60405160208183030381529060405280519060200120600003610a075760405180602001604052806000815250610a09565b845b6002820190610a1890826123a5565b50505050505050565b6000818152606760205260408120546001600160a01b0316806104415760405162461bcd60e51b8152602060048201526018602482015277115490cdcc8c4e881a5b9d985b1a59081d1bdad95b88125160421b6044820152606401610574565b60006001600160a01b038216610aeb5760405162461bcd60e51b815260206004820152602960248201527f4552433732313a2061646472657373207a65726f206973206e6f7420612076616044820152683634b21037bbb732b960b91b6064820152608401610574565b506001600160a01b031660009081526068602052604090205490565b610b0f6115d0565b610b1960006117ed565b565b60cd8054610b28906122fc565b80601f0160208091040260200160405190810160405280929190818152602001828054610b54906122fc565b8015610ba15780601f10610b7657610100808354040283529160200191610ba1565b820191906000526020600020905b815481529060010190602001808311610b8457829003601f168201915b505050505081565b600054610100900460ff1615808015610bc95750600054600160ff909116105b80610be35750303b158015610be3575060005460ff166001145b610c465760405162461bcd60e51b815260206004820152602e60248201527f496e697469616c697a61626c653a20636f6e747261637420697320616c72656160448201526d191e481a5b9a5d1a585b1a5e995960921b6064820152608401610574565b6000805460ff191660011790558015610c69576000805461ff0019166101001790555b60ce54604080516001600160a01b0390921660208301520160405160208183030381529060405280519060200120600003610ce65760405162461bcd60e51b815260206004820181905260248201527f43616e6e6f7420496e697469616c697a65206d6f7265207468616e206f6e63656044820152606401610574565b610d4485858080601f016020809104026020016040519081016040528093929190818152602001838380828437600092019190915250506040805180820190915260078152665055424c49555360c81b6020820152915061183f9050565b610d4c611870565b610d5586611352565b60cd610d628587836124e0565b5060ce80546001600160a01b0319166001600160a01b03881617905560cf610d8b8385836124e0565b508015610dd2576000805461ff0019169055604051600181527f7f26b83ff96e1f2b6a682f133852f6798a09c465da95921460cefb38474024989060200160405180910390a15b505050505050565b606060668054610456906122fc565b610df433838361189f565b5050565b610e006115d0565b600080808080610e12868801886125fb565b60008f815260cb6020526040902094995092975090955093509150610e388c8e836124e0565b5060008a815260cb60205260409020600181018b9055600201610e5c898b836124e0565b5060008a815260cb602090815260409091208451610e8292600390920191860190611c27565b5060005b8551811015610ef957610ee7868281518110610ea457610ea46124ca565b6020026020010151868381518110610ebe57610ebe6124ca565b6020026020010151868481518110610ed857610ed86124ca565b602002602001015186866108b9565b80610ef181612464565b915050610e86565b5060d08054906000610f0a83612464565b9190505550505050505050505050505050565b610f27338361162a565b610f435760405162461bcd60e51b81526004016105749061247d565b610f4f8484848461196d565b50505050565b6000818152606760205260409020546060906001600160a01b0316610fd45760405162461bcd60e51b815260206004820152602f60248201527f4552433732314d657461646174613a2055524920717565727920666f72206e6f60448201526e3732bc34b9ba32b73a103a37b5b2b760891b6064820152608401610574565b60408051808201909152600f81526e7b202253656374696f6e73223a205b60881b602082015260005b60d05481101561129157600081815260cb602052604081206001810154909190611026906119a0565b60405161103d919084906002820190602001612703565b60408051601f198184030181526020830190915260008083529092505b60038401548110156111f957600060cc6000866003018481548110611081576110816124ca565b906000526020600020015481526020019081526020016000209050826110aa82600101546119a0565b6040516110c2929190849060028201906020016127ce565b60408051601f198184030181526020830190915260008083529094505b826004015481101561118257600081815260038401602052604090206001810154839061110b906119a0565b604051611123929190849060028201906020016128ab565b6040516020818303038152906040529250600184600401546111459190612950565b82101561116f578260405160200161115d9190612963565b60405160208183030381529060405292505b508061117a81612464565b9150506110df565b508381604051602001611196929190612988565b60408051601f1981840301815291905260038701549094506111ba90600190612950565b8310156111e457836040516020016111d29190612963565b60405160208183030381529060405293505b505080806111f190612464565b91505061105a565b50818160405160200161120d929190612988565b604051602081830303815290604052915084826040516020016112319291906129c3565b6040516020818303038152906040529450600160d0546112519190612950565b84101561127b57846040516020016112699190612963565b60405160208183030381529060405294505b505050808061128990612464565b915050610ffd565b50806040516020016112a391906129f2565b60408051808303601f19018152602080840183526000845291519093506112ce9183918591016129c3565b60405160208183030381529060405292505050919050565b60cf8054610b28906122fc565b60ca602052816000526040600020818154811061130f57600080fd5b90600052602060002001600091509150505481565b6001600160a01b039182166000908152606a6020908152604080832093909416825291909152205460ff1690565b61135a6115d0565b6001600160a01b0381166113bf5760405162461bcd60e51b815260206004820152602660248201527f4f776e61626c653a206e6577206f776e657220697320746865207a65726f206160448201526564647265737360d01b6064820152608401610574565b6113c8816117ed565b50565b60cc602052600090815260409020805481906113e6906122fc565b80601f0160208091040260200160405190810160405280929190818152602001828054611412906122fc565b801561145f5780601f106114345761010080835404028352916020019161145f565b820191906000526020600020905b81548152906001019060200180831161144257829003601f168201915b50505050509080600101549080600201805461147a906122fc565b80601f01602080910402602001604051908101604052809291908181526020018280546114a6906122fc565b80156114f35780601f106114c8576101008083540402835291602001916114f3565b820191906000526020600020905b8154815290600101906020018083116114d657829003601f168201915b5050505050908060040154905084565b6000818152606760205260409020546001600160a01b03166113c85760405162461bcd60e51b8152602060048201526018602482015277115490cdcc8c4e881a5b9d985b1a59081d1bdad95b88125160421b6044820152606401610574565b600081815260696020526040902080546001600160a01b0319166001600160a01b038416908117909155819061159782610a21565b6001600160a01b03167f8c5be1e5ebec7d5bd14f71427d1e84f3dd0314c0f7b2291e5b200ac8c7c3b92560405160405180910390a45050565b6097546001600160a01b03163314610b195760405162461bcd60e51b815260206004820181905260248201527f4f776e61626c653a2063616c6c6572206973206e6f7420746865206f776e65726044820152606401610574565b60008061163683610a21565b9050806001600160a01b0316846001600160a01b0316148061165d575061165d8185611324565b806116815750836001600160a01b0316611676846104d9565b6001600160a01b0316145b949350505050565b826001600160a01b031661169c82610a21565b6001600160a01b0316146116c25760405162461bcd60e51b815260040161057490612a18565b6001600160a01b0382166117245760405162461bcd60e51b8152602060048201526024808201527f4552433732313a207472616e7366657220746f20746865207a65726f206164646044820152637265737360e01b6064820152608401610574565b826001600160a01b031661173782610a21565b6001600160a01b03161461175d5760405162461bcd60e51b815260040161057490612a18565b600081815260696020908152604080832080546001600160a01b03199081169091556001600160a01b0387811680865260688552838620805460001901905590871680865283862080546001019055868652606790945282852080549092168417909155905184937fddf252ad1be2c89b69c2b068fc378daa952ba7f163c4a11628f55a4df523b3ef91a4505050565b609780546001600160a01b038381166001600160a01b0319831681179093556040519116919082907f8be0079c531659141344cd1fd0a4f28419497f9722a3daafe3b4186f6b6457e090600090a35050565b600054610100900460ff166118665760405162461bcd60e51b815260040161057490612a5d565b610df48282611ab6565b600054610100900460ff166118975760405162461bcd60e51b815260040161057490612a5d565b610b19611af6565b816001600160a01b0316836001600160a01b0316036119005760405162461bcd60e51b815260206004820152601960248201527f4552433732313a20617070726f766520746f2063616c6c6572000000000000006044820152606401610574565b6001600160a01b038381166000818152606a6020908152604080832094871680845294825291829020805460ff191686151590811790915591519182527f17307eab39ab6107e8899845ad3d59bd9653f200f220920489ca2b5937696c31910160405180910390a3505050565b611978848484611689565b61198484848484611b26565b610f4f5760405162461bcd60e51b815260040161057490612aa8565b6060816000036119c75750506040805180820190915260018152600360fc1b602082015290565b8160005b81156119f157806119db81612464565b91506119ea9050600a83612b10565b91506119cb565b6000816001600160401b03811115611a0b57611a0b611eb5565b6040519080825280601f01601f191660200182016040528015611a35576020820181803683370190505b509050815b8515611aad57611a4b600182612950565b90506000611a5a600a88612b24565b611a65906030612b38565b905060008160f81b905080848481518110611a8257611a826124ca565b60200101906001600160f81b031916908160001a905350611aa4600a89612b10565b97505050611a3a565b50949350505050565b600054610100900460ff16611add5760405162461bcd60e51b815260040161057490612a5d565b6065611ae983826123a5565b50606661061582826123a5565b600054610100900460ff16611b1d5760405162461bcd60e51b815260040161057490612a5d565b610b19336117ed565b60006001600160a01b0384163b15611c1c57604051630a85bd0160e11b81526001600160a01b0385169063150b7a0290611b6a903390899088908890600401612b51565b6020604051808303816000875af1925050508015611ba5575060408051601f3d908101601f19168201909252611ba291810190612b84565b60015b611c02573d808015611bd3576040519150601f19603f3d011682016040523d82523d6000602084013e611bd8565b606091505b508051600003611bfa5760405162461bcd60e51b815260040161057490612aa8565b805181602001fd5b6001600160e01b031916630a85bd0160e11b149050611681565b506001949350505050565b828054828255906000526020600020908101928215611c62579160200282015b82811115611c62578251825591602001919060010190611c47565b50611c6e929150611c72565b5090565b5b80821115611c6e5760008155600101611c73565b6001600160e01b0319811681146113c857600080fd5b600060208284031215611caf57600080fd5b8135611cba81611c87565b9392505050565b60005b83811015611cdc578181015183820152602001611cc4565b50506000910152565b60008151808452611cfd816020860160208601611cc1565b601f01601f19169290920160200192915050565b602081526000611cba6020830184611ce5565b600060208284031215611d3657600080fd5b5035919050565b80356001600160a01b0381168114611d5457600080fd5b919050565b60008060408385031215611d6c57600080fd5b611d7583611d3d565b946020939093013593505050565b60008083601f840112611d9557600080fd5b5081356001600160401b03811115611dac57600080fd5b602083019150836020828501011115611dc457600080fd5b9250929050565b600080600080600060608688031215611de357600080fd5b8535945060208601356001600160401b0380821115611e0157600080fd5b611e0d89838a01611d83565b90965094506040880135915080821115611e2657600080fd5b50611e3388828901611d83565b969995985093965092949392505050565b600080600060608486031215611e5957600080fd5b611e6284611d3d565b9250611e7060208501611d3d565b9150604084013590509250925092565b606081526000611e936060830186611ce5565b8460208401528281036040840152611eab8185611ce5565b9695505050505050565b634e487b7160e01b600052604160045260246000fd5b604051601f8201601f191681016001600160401b0381118282101715611ef357611ef3611eb5565b604052919050565b60006001600160401b03831115611f1457611f14611eb5565b611f27601f8401601f1916602001611ecb565b9050828152838383011115611f3b57600080fd5b828260208301376000602084830101529392505050565b600082601f830112611f6357600080fd5b611cba83833560208501611efb565b60006001600160401b03821115611f8b57611f8b611eb5565b5060051b60200190565b600082601f830112611fa657600080fd5b81356020611fbb611fb683611f72565b611ecb565b82815260059290921b84018101918181019086841115611fda57600080fd5b8286015b848110156120195780356001600160401b03811115611ffd5760008081fd5b61200b8986838b0101611f52565b845250918301918301611fde565b509695505050505050565b600080600080600060a0868803121561203c57600080fd5b85356001600160401b038082111561205357600080fd5b61205f89838a01611f52565b9650602088013591508082111561207557600080fd5b61208189838a01611f52565b955060408801359450606088013591508082111561209e57600080fd5b6120aa89838a01611f95565b935060808801359150808211156120c057600080fd5b506120cd88828901611f95565b9150509295509295909350565b6000602082840312156120ec57600080fd5b611cba82611d3d565b60008060008060006060868803121561210d57600080fd5b61211686611d3d565b945060208601356001600160401b0380821115611e0157600080fd5b6000806040838503121561214557600080fd5b61214e83611d3d565b91506020830135801515811461216357600080fd5b809150509250929050565b60008060008060008060006080888a03121561218957600080fd5b87356001600160401b03808211156121a057600080fd5b6121ac8b838c01611d83565b909950975060208a0135965060408a01359150808211156121cc57600080fd5b6121d88b838c01611d83565b909650945060608a01359150808211156121f157600080fd5b506121fe8a828b01611d83565b989b979a50959850939692959293505050565b6000806000806080858703121561222757600080fd5b61223085611d3d565b935061223e60208601611d3d565b92506040850135915060608501356001600160401b0381111561226057600080fd5b8501601f8101871361227157600080fd5b61228087823560208401611efb565b91505092959194509250565b6000806040838503121561229f57600080fd5b6122a883611d3d565b91506122b660208401611d3d565b90509250929050565b6080815260006122d26080830187611ce5565b85602084015282810360408401526122ea8186611ce5565b91505082606083015295945050505050565b600181811c9082168061231057607f821691505b60208210810361233057634e487b7160e01b600052602260045260246000fd5b50919050565b634e487b7160e01b600052601160045260246000fd5b8082018082111561044157610441612336565b601f82111561061557600081815260208120601f850160051c810160208610156123865750805b601f850160051c820191505b81811015610dd257828155600101612392565b81516001600160401b038111156123be576123be611eb5565b6123d2816123cc84546122fc565b8461235f565b602080601f83116001811461240757600084156123ef5750858301515b600019600386901b1c1916600185901b178555610dd2565b600085815260208120601f198616915b8281101561243657888601518255948401946001909101908401612417565b50858210156124545787850151600019600388901b60f8161c191681555b5050505050600190811b01905550565b60006001820161247657612476612336565b5060010190565b6020808252602d908201527f4552433732313a2063616c6c6572206973206e6f7420746f6b656e206f776e6560408201526c1c881bdc88185c1c1c9bdd9959609a1b606082015260800190565b634e487b7160e01b600052603260045260246000fd5b6001600160401b038311156124f7576124f7611eb5565b61250b8361250583546122fc565b8361235f565b6000601f84116001811461253f57600085156125275750838201355b600019600387901b1c1916600186901b178355612599565b600083815260209020601f19861690835b828110156125705786850135825560209485019460019092019101612550565b508682101561258d5760001960f88860031b161c19848701351681555b505060018560011b0183555b5050505050565b600082601f8301126125b157600080fd5b813560206125c1611fb683611f72565b82815260059290921b840181019181810190868411156125e057600080fd5b8286015b8481101561201957803583529183019183016125e4565b600080600080600060a0868803121561261357600080fd5b85356001600160401b038082111561262a57600080fd5b61263689838a01611f95565b9650602088013591508082111561264c57600080fd5b61265889838a01611f95565b9550604088013591508082111561266e57600080fd5b61267a89838a016125a0565b9450606088013591508082111561209e57600080fd5b6000815461269d816122fc565b600182811680156126b557600181146126ca576126f9565b60ff19841687528215158302870194506126f9565b8560005260208060002060005b858110156126f05781548a8201529084019082016126d7565b50505082870194505b5050505092915050565b6f3d901139b2b1ba34b7b724b2111d101160811b8152835160009061272f816010850160208901611cc1565b721116101139b2b1ba34b7b72730b6b2911d101160691b60109184019182015261275c6023820186612690565b7f222c202273656374696f6e4465736372697074696f6e223a20220000000000008152731116101139b2b1ba34b7b724b6b0b3b2911d101160611b601a82015290506127ab602e820185612690565b6f222c20226368617074657273223a205b60801b81526010019695505050505050565b600085516127e0818460208a01611cc1565b6f3d901131b430b83a32b924b2111d101160811b908301908152855161280d816010840160208a01611cc1565b721116101131b430b83a32b92730b6b2911d101160691b6010929091019182015261283b6023820186612690565b7f222c2022636861707465724465736372697074696f6e223a20220000000000008152731116101131b430b83a32b924b6b0b3b2911d101160611b601a820152905061288a602e820185612690565b6c222c20227061676573223a205b60981b8152600d01979650505050505050565b600085516128bd818460208a01611cc1565b6c3d90113830b3b2a4b2111d101160991b90830190815285516128e781600d840160208a01611cc1565b6f111610113830b3b2a730b6b2911d101160811b600d9290910191820152612912601d820186612690565b72111610113830b3b2a1b7b73a32b73a111d101160691b8152905061293a6013820185612690565b61227d60f01b8152600201979650505050505050565b8181038181111561044157610441612336565b60008251612975818460208701611cc1565b600b60fa1b920191825250600101919050565b6000835161299a818460208801611cc1565b8351908301906129ae818360208801611cc1565b605d60f81b9101908152600101949350505050565b600083516129d5818460208801611cc1565b8351908301906129e9818360208801611cc1565b01949350505050565b60008251612a04818460208701611cc1565b615d7d60f01b920191825250600201919050565b60208082526025908201527f4552433732313a207472616e736665722066726f6d20696e636f72726563742060408201526437bbb732b960d91b606082015260800190565b6020808252602b908201527f496e697469616c697a61626c653a20636f6e7472616374206973206e6f74206960408201526a6e697469616c697a696e6760a81b606082015260800190565b60208082526032908201527f4552433732313a207472616e7366657220746f206e6f6e20455243373231526560408201527131b2b4bb32b91034b6b83632b6b2b73a32b960711b606082015260800190565b634e487b7160e01b600052601260045260246000fd5b600082612b1f57612b1f612afa565b500490565b600082612b3357612b33612afa565b500690565b60ff818116838216019081111561044157610441612336565b6001600160a01b0385811682528416602082015260408101839052608060608201819052600090611eab90830184611ce5565b600060208284031215612b9657600080fd5b8151611cba81611c8756fea264697066735822122086c64dc0af8188c8945390f50b65bc799ef0988fa04cc157acdc77a35fa6e32b64736f6c63430008120033","opcodes":"PUSH1 0x80 PUSH1 0x40 MSTORE CALLVALUE DUP1 ISZERO PUSH2 0x10 JUMPI PUSH1 0x0 DUP1 REVERT JUMPDEST POP PUSH2 0x2BD7 DUP1 PUSH2 0x20 PUSH1 0x0 CODECOPY PUSH1 0x0 RETURN INVALID PUSH1 0x80 PUSH1 0x40 MSTORE CALLVALUE DUP1 ISZERO PUSH2 0x10 JUMPI PUSH1 0x0 DUP1 REVERT JUMPDEST POP PUSH1 0x4 CALLDATASIZE LT PUSH2 0x1A9 JUMPI PUSH1 0x0 CALLDATALOAD PUSH1 0xE0 SHR DUP1 PUSH4 0x715018A6 GT PUSH2 0xF9 JUMPI DUP1 PUSH4 0xB88D4FDE GT PUSH2 0x97 JUMPI DUP1 PUSH4 0xDB010AE4 GT PUSH2 0x71 JUMPI DUP1 PUSH4 0xDB010AE4 EQ PUSH2 0x399 JUMPI DUP1 PUSH4 0xE985E9C5 EQ PUSH2 0x3AC JUMPI DUP1 PUSH4 0xF2FDE38B EQ PUSH2 0x3BF JUMPI DUP1 PUSH4 0xF40ADB12 EQ PUSH2 0x3D2 JUMPI PUSH1 0x0 DUP1 REVERT JUMPDEST DUP1 PUSH4 0xB88D4FDE EQ PUSH2 0x36B JUMPI DUP1 PUSH4 0xC87B56DD EQ PUSH2 0x37E JUMPI DUP1 PUSH4 0xCCFEA8F0 EQ PUSH2 0x391 JUMPI PUSH1 0x0 DUP1 REVERT JUMPDEST DUP1 PUSH4 0x90657147 GT PUSH2 0xD3 JUMPI DUP1 PUSH4 0x90657147 EQ PUSH2 0x32A JUMPI DUP1 PUSH4 0x95D89B41 EQ PUSH2 0x33D JUMPI DUP1 PUSH4 0xA22CB465 EQ PUSH2 0x345 JUMPI DUP1 PUSH4 0xA240D4AA EQ PUSH2 0x358 JUMPI PUSH1 0x0 DUP1 REVERT JUMPDEST DUP1 PUSH4 0x715018A6 EQ PUSH2 0x309 JUMPI DUP1 PUSH4 0x86B4E2A0 EQ PUSH2 0x311 JUMPI DUP1 PUSH4 0x8DA5CB5B EQ PUSH2 0x319 JUMPI PUSH1 0x0 DUP1 REVERT JUMPDEST DUP1 PUSH4 0x23B872DD GT PUSH2 0x166 JUMPI DUP1 PUSH4 0x527C4165 GT PUSH2 0x140 JUMPI DUP1 PUSH4 0x527C4165 EQ PUSH2 0x2AF JUMPI DUP1 PUSH4 0x5B92CC8A EQ PUSH2 0x2C2 JUMPI DUP1 PUSH4 0x6352211E EQ PUSH2 0x2D5 JUMPI DUP1 PUSH4 0x70A08231 EQ PUSH2 0x2E8 JUMPI PUSH1 0x0 DUP1 REVERT JUMPDEST DUP1 PUSH4 0x23B872DD EQ PUSH2 0x267 JUMPI DUP1 PUSH4 0x35603440 EQ PUSH2 0x27A JUMPI DUP1 PUSH4 0x42842E0E EQ PUSH2 0x29C JUMPI PUSH1 0x0 DUP1 REVERT JUMPDEST DUP1 PUSH4 0x1FFC9A7 EQ PUSH2 0x1AE JUMPI DUP1 PUSH4 0x6FDDE03 EQ PUSH2 0x1D6 JUMPI DUP1 PUSH4 0x81812FC EQ PUSH2 0x1EB JUMPI DUP1 PUSH4 0x95EA7B3 EQ PUSH2 0x216 JUMPI DUP1 PUSH4 0xF1F0850 EQ PUSH2 0x22B JUMPI DUP1 PUSH4 0x2218F119 EQ PUSH2 0x23E JUMPI JUMPDEST PUSH1 0x0 DUP1 REVERT JUMPDEST PUSH2 0x1C1 PUSH2 0x1BC CALLDATASIZE PUSH1 0x4 PUSH2 0x1C9D JUMP JUMPDEST PUSH2 0x3F5 JUMP JUMPDEST PUSH1 0x40 MLOAD SWAP1 ISZERO ISZERO DUP2 MSTORE PUSH1 0x20 ADD JUMPDEST PUSH1 0x40 MLOAD DUP1 SWAP2 SUB SWAP1 RETURN JUMPDEST PUSH2 0x1DE PUSH2 0x447 JUMP JUMPDEST PUSH1 0x40 MLOAD PUSH2 0x1CD SWAP2 SWAP1 PUSH2 0x1D11 JUMP JUMPDEST PUSH2 0x1FE PUSH2 0x1F9 CALLDATASIZE PUSH1 0x4 PUSH2 0x1D24 JUMP JUMPDEST PUSH2 0x4D9 JUMP JUMPDEST PUSH1 0x40 MLOAD PUSH1 0x1 PUSH1 0x1 PUSH1 0xA0 SHL SUB SWAP1 SWAP2 AND DUP2 MSTORE PUSH1 0x20 ADD PUSH2 0x1CD JUMP JUMPDEST PUSH2 0x229 PUSH2 0x224 CALLDATASIZE PUSH1 0x4 PUSH2 0x1D59 JUMP JUMPDEST PUSH2 0x500 JUMP JUMPDEST STOP JUMPDEST PUSH2 0x229 PUSH2 0x239 CALLDATASIZE PUSH1 0x4 PUSH2 0x1DCB JUMP JUMPDEST PUSH2 0x61A JUMP JUMPDEST PUSH2 0x1FE PUSH2 0x24C CALLDATASIZE PUSH1 0x4 PUSH2 0x1D24 JUMP JUMPDEST PUSH1 0xC9 PUSH1 0x20 MSTORE PUSH1 0x0 SWAP1 DUP2 MSTORE PUSH1 0x40 SWAP1 KECCAK256 SLOAD PUSH1 0x1 PUSH1 0x1 PUSH1 0xA0 SHL SUB AND DUP2 JUMP JUMPDEST PUSH2 0x229 PUSH2 0x275 CALLDATASIZE PUSH1 0x4 PUSH2 0x1E44 JUMP JUMPDEST PUSH2 0x73B JUMP JUMPDEST PUSH2 0x28D PUSH2 0x288 CALLDATASIZE PUSH1 0x4 PUSH2 0x1D24 JUMP JUMPDEST PUSH2 0x76C JUMP JUMPDEST PUSH1 0x40 MLOAD PUSH2 0x1CD SWAP4 SWAP3 SWAP2 SWAP1 PUSH2 0x1E80 JUMP JUMPDEST PUSH2 0x229 PUSH2 0x2AA CALLDATASIZE PUSH1 0x4 PUSH2 0x1E44 JUMP JUMPDEST PUSH2 0x89E JUMP JUMPDEST PUSH1 0xCE SLOAD PUSH2 0x1FE SWAP1 PUSH1 0x1 PUSH1 0x1 PUSH1 0xA0 SHL SUB AND DUP2 JUMP JUMPDEST PUSH2 0x229 PUSH2 0x2D0 CALLDATASIZE PUSH1 0x4 PUSH2 0x2024 JUMP JUMPDEST PUSH2 0x8B9 JUMP JUMPDEST PUSH2 0x1FE PUSH2 0x2E3 CALLDATASIZE PUSH1 0x4 PUSH2 0x1D24 JUMP JUMPDEST PUSH2 0xA21 JUMP JUMPDEST PUSH2 0x2FB PUSH2 0x2F6 CALLDATASIZE PUSH1 0x4 PUSH2 0x20DA JUMP JUMPDEST PUSH2 0xA81 JUMP JUMPDEST PUSH1 0x40 MLOAD SWAP1 DUP2 MSTORE PUSH1 0x20 ADD PUSH2 0x1CD JUMP JUMPDEST PUSH2 0x229 PUSH2 0xB07 JUMP JUMPDEST PUSH2 0x1DE PUSH2 0xB1B JUMP JUMPDEST PUSH1 0x97 SLOAD PUSH1 0x1 PUSH1 0x1 PUSH1 0xA0 SHL SUB AND PUSH2 0x1FE JUMP JUMPDEST PUSH2 0x229 PUSH2 0x338 CALLDATASIZE PUSH1 0x4 PUSH2 0x20F5 JUMP JUMPDEST PUSH2 0xBA9 JUMP JUMPDEST PUSH2 0x1DE PUSH2 0xDDA JUMP JUMPDEST PUSH2 0x229 PUSH2 0x353 CALLDATASIZE PUSH1 0x4 PUSH2 0x2132 JUMP JUMPDEST PUSH2 0xDE9 JUMP JUMPDEST PUSH2 0x229 PUSH2 0x366 CALLDATASIZE PUSH1 0x4 PUSH2 0x216E JUMP JUMPDEST PUSH2 0xDF8 JUMP JUMPDEST PUSH2 0x229 PUSH2 0x379 CALLDATASIZE PUSH1 0x4 PUSH2 0x2211 JUMP JUMPDEST PUSH2 0xF1D JUMP JUMPDEST PUSH2 0x1DE PUSH2 0x38C CALLDATASIZE PUSH1 0x4 PUSH2 0x1D24 JUMP JUMPDEST PUSH2 0xF55 JUMP JUMPDEST PUSH2 0x1DE PUSH2 0x12E6 JUMP JUMPDEST PUSH2 0x2FB PUSH2 0x3A7 CALLDATASIZE PUSH1 0x4 PUSH2 0x1D59 JUMP JUMPDEST PUSH2 0x12F3 JUMP JUMPDEST PUSH2 0x1C1 PUSH2 0x3BA CALLDATASIZE PUSH1 0x4 PUSH2 0x228C JUMP JUMPDEST PUSH2 0x1324 JUMP JUMPDEST PUSH2 0x229 PUSH2 0x3CD CALLDATASIZE PUSH1 0x4 PUSH2 0x20DA JUMP JUMPDEST PUSH2 0x1352 JUMP JUMPDEST PUSH2 0x3E5 PUSH2 0x3E0 CALLDATASIZE PUSH1 0x4 PUSH2 0x1D24 JUMP JUMPDEST PUSH2 0x13CB JUMP JUMPDEST PUSH1 0x40 MLOAD PUSH2 0x1CD SWAP5 SWAP4 SWAP3 SWAP2 SWAP1 PUSH2 0x22BF JUMP JUMPDEST PUSH1 0x0 PUSH1 0x1 PUSH1 0x1 PUSH1 0xE0 SHL SUB NOT DUP3 AND PUSH4 0x80AC58CD PUSH1 0xE0 SHL EQ DUP1 PUSH2 0x426 JUMPI POP PUSH1 0x1 PUSH1 0x1 PUSH1 0xE0 SHL SUB NOT DUP3 AND PUSH4 0x5B5E139F PUSH1 0xE0 SHL EQ JUMPDEST DUP1 PUSH2 0x441 JUMPI POP PUSH4 0x1FFC9A7 PUSH1 0xE0 SHL PUSH1 0x1 PUSH1 0x1 PUSH1 0xE0 SHL SUB NOT DUP4 AND EQ JUMPDEST SWAP3 SWAP2 POP POP JUMP JUMPDEST PUSH1 0x60 PUSH1 0x65 DUP1 SLOAD PUSH2 0x456 SWAP1 PUSH2 0x22FC JUMP JUMPDEST DUP1 PUSH1 0x1F ADD PUSH1 0x20 DUP1 SWAP2 DIV MUL PUSH1 0x20 ADD PUSH1 0x40 MLOAD SWAP1 DUP2 ADD PUSH1 0x40 MSTORE DUP1 SWAP3 SWAP2 SWAP1 DUP2 DUP2 MSTORE PUSH1 0x20 ADD DUP3 DUP1 SLOAD PUSH2 0x482 SWAP1 PUSH2 0x22FC JUMP JUMPDEST DUP1 ISZERO PUSH2 0x4CF JUMPI DUP1 PUSH1 0x1F LT PUSH2 0x4A4 JUMPI PUSH2 0x100 DUP1 DUP4 SLOAD DIV MUL DUP4 MSTORE SWAP2 PUSH1 0x20 ADD SWAP2 PUSH2 0x4CF JUMP JUMPDEST DUP3 ADD SWAP2 SWAP1 PUSH1 0x0 MSTORE PUSH1 0x20 PUSH1 0x0 KECCAK256 SWAP1 JUMPDEST DUP2 SLOAD DUP2 MSTORE SWAP1 PUSH1 0x1 ADD SWAP1 PUSH1 0x20 ADD DUP1 DUP4 GT PUSH2 0x4B2 JUMPI DUP3 SWAP1 SUB PUSH1 0x1F AND DUP3 ADD SWAP2 JUMPDEST POP POP POP POP POP SWAP1 POP SWAP1 JUMP JUMPDEST PUSH1 0x0 PUSH2 0x4E4 DUP3 PUSH2 0x1503 JUMP JUMPDEST POP PUSH1 0x0 SWAP1 DUP2 MSTORE PUSH1 0x69 PUSH1 0x20 MSTORE PUSH1 0x40 SWAP1 KECCAK256 SLOAD PUSH1 0x1 PUSH1 0x1 PUSH1 0xA0 SHL SUB AND SWAP1 JUMP JUMPDEST PUSH1 0x0 PUSH2 0x50B DUP3 PUSH2 0xA21 JUMP JUMPDEST SWAP1 POP DUP1 PUSH1 0x1 PUSH1 0x1 PUSH1 0xA0 SHL SUB AND DUP4 PUSH1 0x1 PUSH1 0x1 PUSH1 0xA0 SHL SUB AND SUB PUSH2 0x57D JUMPI PUSH1 0x40 MLOAD PUSH3 0x461BCD PUSH1 0xE5 SHL DUP2 MSTORE PUSH1 0x20 PUSH1 0x4 DUP3 ADD MSTORE PUSH1 0x21 PUSH1 0x24 DUP3 ADD MSTORE PUSH32 0x4552433732313A20617070726F76616C20746F2063757272656E74206F776E65 PUSH1 0x44 DUP3 ADD MSTORE PUSH1 0x39 PUSH1 0xF9 SHL PUSH1 0x64 DUP3 ADD MSTORE PUSH1 0x84 ADD JUMPDEST PUSH1 0x40 MLOAD DUP1 SWAP2 SUB SWAP1 REVERT JUMPDEST CALLER PUSH1 0x1 PUSH1 0x1 PUSH1 0xA0 SHL SUB DUP3 AND EQ DUP1 PUSH2 0x599 JUMPI POP PUSH2 0x599 DUP2 CALLER PUSH2 0x1324 JUMP JUMPDEST PUSH2 0x60B JUMPI PUSH1 0x40 MLOAD PUSH3 0x461BCD PUSH1 0xE5 SHL DUP2 MSTORE PUSH1 0x20 PUSH1 0x4 DUP3 ADD MSTORE PUSH1 0x3D PUSH1 0x24 DUP3 ADD MSTORE PUSH32 0x4552433732313A20617070726F76652063616C6C6572206973206E6F7420746F PUSH1 0x44 DUP3 ADD MSTORE PUSH32 0x6B656E206F776E6572206F7220617070726F76656420666F7220616C6C000000 PUSH1 0x64 DUP3 ADD MSTORE PUSH1 0x84 ADD PUSH2 0x574 JUMP JUMPDEST PUSH2 0x615 DUP4 DUP4 PUSH2 0x1562 JUMP JUMPDEST POP POP POP JUMP JUMPDEST PUSH2 0x622 PUSH2 0x15D0 JUMP JUMPDEST PUSH1 0x0 DUP6 DUP2 MSTORE PUSH1 0xCC PUSH1 0x20 SWAP1 DUP2 MSTORE PUSH1 0x40 SWAP2 DUP3 SWAP1 KECCAK256 DUP3 MLOAD PUSH1 0x80 PUSH1 0x1F DUP9 ADD DUP5 SWAP1 DIV SWAP1 SWAP4 MUL DUP2 ADD DUP4 ADD SWAP1 SWAP4 MSTORE PUSH1 0x60 DUP4 ADD DUP7 DUP2 MSTORE SWAP1 SWAP3 SWAP2 DUP3 SWAP2 SWAP1 DUP9 SWAP1 DUP9 SWAP1 DUP2 SWAP1 DUP6 ADD DUP4 DUP3 DUP1 DUP3 DUP5 CALLDATACOPY PUSH1 0x0 SWAP3 ADD SWAP2 SWAP1 SWAP2 MSTORE POP POP POP SWAP1 DUP3 MSTORE POP PUSH1 0x4 DUP4 ADD SLOAD PUSH1 0x20 SWAP1 SWAP2 ADD SWAP1 PUSH2 0x689 SWAP1 PUSH1 0x1 PUSH2 0x234C JUMP JUMPDEST DUP2 MSTORE PUSH1 0x20 ADD DUP5 DUP5 DUP1 DUP1 PUSH1 0x1F ADD PUSH1 0x20 DUP1 SWAP2 DIV MUL PUSH1 0x20 ADD PUSH1 0x40 MLOAD SWAP1 DUP2 ADD PUSH1 0x40 MSTORE DUP1 SWAP4 SWAP3 SWAP2 SWAP1 DUP2 DUP2 MSTORE PUSH1 0x20 ADD DUP4 DUP4 DUP1 DUP3 DUP5 CALLDATACOPY PUSH1 0x0 SWAP3 ADD DUP3 SWAP1 MSTORE POP SWAP4 SWAP1 SWAP5 MSTORE POP POP PUSH1 0x4 DUP5 ADD SLOAD PUSH1 0x3 DUP6 ADD SWAP3 POP PUSH2 0x6DC SWAP1 PUSH1 0x1 PUSH2 0x234C JUMP JUMPDEST DUP2 MSTORE PUSH1 0x20 DUP2 ADD SWAP2 SWAP1 SWAP2 MSTORE PUSH1 0x40 ADD PUSH1 0x0 KECCAK256 DUP2 MLOAD DUP2 SWAP1 PUSH2 0x6FA SWAP1 DUP3 PUSH2 0x23A5 JUMP JUMPDEST POP PUSH1 0x20 DUP3 ADD MLOAD PUSH1 0x1 DUP3 ADD SSTORE PUSH1 0x40 DUP3 ADD MLOAD PUSH1 0x2 DUP3 ADD SWAP1 PUSH2 0x719 SWAP1 DUP3 PUSH2 0x23A5 JUMP JUMPDEST POP POP POP PUSH1 0x4 DUP2 ADD DUP1 SLOAD SWAP1 PUSH1 0x0 PUSH2 0x72E DUP4 PUSH2 0x2464 JUMP JUMPDEST SWAP2 SWAP1 POP SSTORE POP POP POP POP POP POP POP JUMP JUMPDEST PUSH2 0x745 CALLER DUP3 PUSH2 0x162A JUMP JUMPDEST PUSH2 0x761 JUMPI PUSH1 0x40 MLOAD PUSH3 0x461BCD PUSH1 0xE5 SHL DUP2 MSTORE PUSH1 0x4 ADD PUSH2 0x574 SWAP1 PUSH2 0x247D JUMP JUMPDEST PUSH2 0x615 DUP4 DUP4 DUP4 PUSH2 0x1689 JUMP JUMPDEST PUSH1 0xCB PUSH1 0x20 MSTORE PUSH1 0x0 SWAP1 DUP2 MSTORE PUSH1 0x40 SWAP1 KECCAK256 DUP1 SLOAD DUP2 SWAP1 PUSH2 0x787 SWAP1 PUSH2 0x22FC JUMP JUMPDEST DUP1 PUSH1 0x1F ADD PUSH1 0x20 DUP1 SWAP2 DIV MUL PUSH1 0x20 ADD PUSH1 0x40 MLOAD SWAP1 DUP2 ADD PUSH1 0x40 MSTORE DUP1 SWAP3 SWAP2 SWAP1 DUP2 DUP2 MSTORE PUSH1 0x20 ADD DUP3 DUP1 SLOAD PUSH2 0x7B3 SWAP1 PUSH2 0x22FC JUMP JUMPDEST DUP1 ISZERO PUSH2 0x800 JUMPI DUP1 PUSH1 0x1F LT PUSH2 0x7D5 JUMPI PUSH2 0x100 DUP1 DUP4 SLOAD DIV MUL DUP4 MSTORE SWAP2 PUSH1 0x20 ADD SWAP2 PUSH2 0x800 JUMP JUMPDEST DUP3 ADD SWAP2 SWAP1 PUSH1 0x0 MSTORE PUSH1 0x20 PUSH1 0x0 KECCAK256 SWAP1 JUMPDEST DUP2 SLOAD DUP2 MSTORE SWAP1 PUSH1 0x1 ADD SWAP1 PUSH1 0x20 ADD DUP1 DUP4 GT PUSH2 0x7E3 JUMPI DUP3 SWAP1 SUB PUSH1 0x1F AND DUP3 ADD SWAP2 JUMPDEST POP POP POP POP POP SWAP1 DUP1 PUSH1 0x1 ADD SLOAD SWAP1 DUP1 PUSH1 0x2 ADD DUP1 SLOAD PUSH2 0x81B SWAP1 PUSH2 0x22FC JUMP JUMPDEST DUP1 PUSH1 0x1F ADD PUSH1 0x20 DUP1 SWAP2 DIV MUL PUSH1 0x20 ADD PUSH1 0x40 MLOAD SWAP1 DUP2 ADD PUSH1 0x40 MSTORE DUP1 SWAP3 SWAP2 SWAP1 DUP2 DUP2 MSTORE PUSH1 0x20 ADD DUP3 DUP1 SLOAD PUSH2 0x847 SWAP1 PUSH2 0x22FC JUMP JUMPDEST DUP1 ISZERO PUSH2 0x894 JUMPI DUP1 PUSH1 0x1F LT PUSH2 0x869 JUMPI PUSH2 0x100 DUP1 DUP4 SLOAD DIV MUL DUP4 MSTORE SWAP2 PUSH1 0x20 ADD SWAP2 PUSH2 0x894 JUMP JUMPDEST DUP3 ADD SWAP2 SWAP1 PUSH1 0x0 MSTORE PUSH1 0x20 PUSH1 0x0 KECCAK256 SWAP1 JUMPDEST DUP2 SLOAD DUP2 MSTORE SWAP1 PUSH1 0x1 ADD SWAP1 PUSH1 0x20 ADD DUP1 DUP4 GT PUSH2 0x877 JUMPI DUP3 SWAP1 SUB PUSH1 0x1F AND DUP3 ADD SWAP2 JUMPDEST POP POP POP POP POP SWAP1 POP DUP4 JUMP JUMPDEST PUSH2 0x615 DUP4 DUP4 DUP4 PUSH1 0x40 MLOAD DUP1 PUSH1 0x20 ADD PUSH1 0x40 MSTORE DUP1 PUSH1 0x0 DUP2 MSTORE POP PUSH2 0xF1D JUMP JUMPDEST PUSH2 0x8C1 PUSH2 0x15D0 JUMP JUMPDEST PUSH1 0x0 DUP4 DUP2 MSTORE PUSH1 0xCC PUSH1 0x20 MSTORE PUSH1 0x40 DUP2 KECCAK256 SWAP1 JUMPDEST DUP4 MLOAD DUP2 LT ISZERO PUSH2 0x9B0 JUMPI PUSH1 0x40 MLOAD DUP1 PUSH1 0x60 ADD PUSH1 0x40 MSTORE DUP1 DUP6 DUP4 DUP2 MLOAD DUP2 LT PUSH2 0x8F7 JUMPI PUSH2 0x8F7 PUSH2 0x24CA JUMP JUMPDEST PUSH1 0x20 MUL PUSH1 0x20 ADD ADD MLOAD DUP2 MSTORE PUSH1 0x20 ADD DUP3 PUSH1 0x1 PUSH2 0x911 SWAP2 SWAP1 PUSH2 0x234C JUMP JUMPDEST DUP2 MSTORE PUSH1 0x20 ADD DUP5 DUP4 DUP2 MLOAD DUP2 LT PUSH2 0x928 JUMPI PUSH2 0x928 PUSH2 0x24CA JUMP JUMPDEST PUSH1 0x20 MUL PUSH1 0x20 ADD ADD MLOAD DUP2 MSTORE POP DUP3 PUSH1 0x3 ADD PUSH1 0x0 DUP4 PUSH1 0x1 PUSH2 0x946 SWAP2 SWAP1 PUSH2 0x234C JUMP JUMPDEST DUP2 MSTORE PUSH1 0x20 DUP2 ADD SWAP2 SWAP1 SWAP2 MSTORE PUSH1 0x40 ADD PUSH1 0x0 KECCAK256 DUP2 MLOAD DUP2 SWAP1 PUSH2 0x964 SWAP1 DUP3 PUSH2 0x23A5 JUMP JUMPDEST POP PUSH1 0x20 DUP3 ADD MLOAD PUSH1 0x1 DUP3 ADD SSTORE PUSH1 0x40 DUP3 ADD MLOAD PUSH1 0x2 DUP3 ADD SWAP1 PUSH2 0x983 SWAP1 DUP3 PUSH2 0x23A5 JUMP JUMPDEST POP POP POP PUSH1 0x4 DUP3 ADD DUP1 SLOAD SWAP1 PUSH1 0x0 PUSH2 0x998 DUP4 PUSH2 0x2464 JUMP JUMPDEST SWAP2 SWAP1 POP SSTORE POP DUP1 DUP1 PUSH2 0x9A8 SWAP1 PUSH2 0x2464 JUMP JUMPDEST SWAP2 POP POP PUSH2 0x8D1 JUMP JUMPDEST POP DUP1 PUSH2 0x9BC DUP8 DUP3 PUSH2 0x23A5 JUMP JUMPDEST POP PUSH1 0x1 DUP2 ADD DUP5 SWAP1 SSTORE PUSH1 0x40 MLOAD PUSH2 0x9D5 SWAP1 DUP7 SWAP1 PUSH1 0x20 ADD PUSH2 0x1D11 JUMP JUMPDEST PUSH1 0x40 MLOAD PUSH1 0x20 DUP2 DUP4 SUB SUB DUP2 MSTORE SWAP1 PUSH1 0x40 MSTORE DUP1 MLOAD SWAP1 PUSH1 0x20 ADD KECCAK256 PUSH1 0x0 SUB PUSH2 0xA07 JUMPI PUSH1 0x40 MLOAD DUP1 PUSH1 0x20 ADD PUSH1 0x40 MSTORE DUP1 PUSH1 0x0 DUP2 MSTORE POP PUSH2 0xA09 JUMP JUMPDEST DUP5 JUMPDEST PUSH1 0x2 DUP3 ADD SWAP1 PUSH2 0xA18 SWAP1 DUP3 PUSH2 0x23A5 JUMP JUMPDEST POP POP POP POP POP POP POP JUMP JUMPDEST PUSH1 0x0 DUP2 DUP2 MSTORE PUSH1 0x67 PUSH1 0x20 MSTORE PUSH1 0x40 DUP2 KECCAK256 SLOAD PUSH1 0x1 PUSH1 0x1 PUSH1 0xA0 SHL SUB AND DUP1 PUSH2 0x441 JUMPI PUSH1 0x40 MLOAD PUSH3 0x461BCD PUSH1 0xE5 SHL DUP2 MSTORE PUSH1 0x20 PUSH1 0x4 DUP3 ADD MSTORE PUSH1 0x18 PUSH1 0x24 DUP3 ADD MSTORE PUSH24 0x115490CDCC8C4E881A5B9D985B1A59081D1BDAD95B881251 PUSH1 0x42 SHL PUSH1 0x44 DUP3 ADD MSTORE PUSH1 0x64 ADD PUSH2 0x574 JUMP JUMPDEST PUSH1 0x0 PUSH1 0x1 PUSH1 0x1 PUSH1 0xA0 SHL SUB DUP3 AND PUSH2 0xAEB JUMPI PUSH1 0x40 MLOAD PUSH3 0x461BCD PUSH1 0xE5 SHL DUP2 MSTORE PUSH1 0x20 PUSH1 0x4 DUP3 ADD MSTORE PUSH1 0x29 PUSH1 0x24 DUP3 ADD MSTORE PUSH32 0x4552433732313A2061646472657373207A65726F206973206E6F742061207661 PUSH1 0x44 DUP3 ADD MSTORE PUSH9 0x3634B21037BBB732B9 PUSH1 0xB9 SHL PUSH1 0x64 DUP3 ADD MSTORE PUSH1 0x84 ADD PUSH2 0x574 JUMP JUMPDEST POP PUSH1 0x1 PUSH1 0x1 PUSH1 0xA0 SHL SUB AND PUSH1 0x0 SWAP1 DUP2 MSTORE PUSH1 0x68 PUSH1 0x20 MSTORE PUSH1 0x40 SWAP1 KECCAK256 SLOAD SWAP1 JUMP JUMPDEST PUSH2 0xB0F PUSH2 0x15D0 JUMP JUMPDEST PUSH2 0xB19 PUSH1 0x0 PUSH2 0x17ED JUMP JUMPDEST JUMP JUMPDEST PUSH1 0xCD DUP1 SLOAD PUSH2 0xB28 SWAP1 PUSH2 0x22FC JUMP JUMPDEST DUP1 PUSH1 0x1F ADD PUSH1 0x20 DUP1 SWAP2 DIV MUL PUSH1 0x20 ADD PUSH1 0x40 MLOAD SWAP1 DUP2 ADD PUSH1 0x40 MSTORE DUP1 SWAP3 SWAP2 SWAP1 DUP2 DUP2 MSTORE PUSH1 0x20 ADD DUP3 DUP1 SLOAD PUSH2 0xB54 SWAP1 PUSH2 0x22FC JUMP JUMPDEST DUP1 ISZERO PUSH2 0xBA1 JUMPI DUP1 PUSH1 0x1F LT PUSH2 0xB76 JUMPI PUSH2 0x100 DUP1 DUP4 SLOAD DIV MUL DUP4 MSTORE SWAP2 PUSH1 0x20 ADD SWAP2 PUSH2 0xBA1 JUMP JUMPDEST DUP3 ADD SWAP2 SWAP1 PUSH1 0x0 MSTORE PUSH1 0x20 PUSH1 0x0 KECCAK256 SWAP1 JUMPDEST DUP2 SLOAD DUP2 MSTORE SWAP1 PUSH1 0x1 ADD SWAP1 PUSH1 0x20 ADD DUP1 DUP4 GT PUSH2 0xB84 JUMPI DUP3 SWAP1 SUB PUSH1 0x1F AND DUP3 ADD SWAP2 JUMPDEST POP POP POP POP POP DUP2 JUMP JUMPDEST PUSH1 0x0 SLOAD PUSH2 0x100 SWAP1 DIV PUSH1 0xFF AND ISZERO DUP1 DUP1 ISZERO PUSH2 0xBC9 JUMPI POP PUSH1 0x0 SLOAD PUSH1 0x1 PUSH1 0xFF SWAP1 SWAP2 AND LT JUMPDEST DUP1 PUSH2 0xBE3 JUMPI POP ADDRESS EXTCODESIZE ISZERO DUP1 ISZERO PUSH2 0xBE3 JUMPI POP PUSH1 0x0 SLOAD PUSH1 0xFF AND PUSH1 0x1 EQ JUMPDEST PUSH2 0xC46 JUMPI PUSH1 0x40 MLOAD PUSH3 0x461BCD PUSH1 0xE5 SHL DUP2 MSTORE PUSH1 0x20 PUSH1 0x4 DUP3 ADD MSTORE PUSH1 0x2E PUSH1 0x24 DUP3 ADD MSTORE PUSH32 0x496E697469616C697A61626C653A20636F6E747261637420697320616C726561 PUSH1 0x44 DUP3 ADD MSTORE PUSH14 0x191E481A5B9A5D1A585B1A5E9959 PUSH1 0x92 SHL PUSH1 0x64 DUP3 ADD MSTORE PUSH1 0x84 ADD PUSH2 0x574 JUMP JUMPDEST PUSH1 0x0 DUP1 SLOAD PUSH1 0xFF NOT AND PUSH1 0x1 OR SWAP1 SSTORE DUP1 ISZERO PUSH2 0xC69 JUMPI PUSH1 0x0 DUP1 SLOAD PUSH2 0xFF00 NOT AND PUSH2 0x100 OR SWAP1 SSTORE JUMPDEST PUSH1 0xCE SLOAD PUSH1 0x40 DUP1 MLOAD PUSH1 0x1 PUSH1 0x1 PUSH1 0xA0 SHL SUB SWAP1 SWAP3 AND PUSH1 0x20 DUP4 ADD MSTORE ADD PUSH1 0x40 MLOAD PUSH1 0x20 DUP2 DUP4 SUB SUB DUP2 MSTORE SWAP1 PUSH1 0x40 MSTORE DUP1 MLOAD SWAP1 PUSH1 0x20 ADD KECCAK256 PUSH1 0x0 SUB PUSH2 0xCE6 JUMPI PUSH1 0x40 MLOAD PUSH3 0x461BCD PUSH1 0xE5 SHL DUP2 MSTORE PUSH1 0x20 PUSH1 0x4 DUP3 ADD DUP2 SWAP1 MSTORE PUSH1 0x24 DUP3 ADD MSTORE PUSH32 0x43616E6E6F7420496E697469616C697A65206D6F7265207468616E206F6E6365 PUSH1 0x44 DUP3 ADD MSTORE PUSH1 0x64 ADD PUSH2 0x574 JUMP JUMPDEST PUSH2 0xD44 DUP6 DUP6 DUP1 DUP1 PUSH1 0x1F ADD PUSH1 0x20 DUP1 SWAP2 DIV MUL PUSH1 0x20 ADD PUSH1 0x40 MLOAD SWAP1 DUP2 ADD PUSH1 0x40 MSTORE DUP1 SWAP4 SWAP3 SWAP2 SWAP1 DUP2 DUP2 MSTORE PUSH1 0x20 ADD DUP4 DUP4 DUP1 DUP3 DUP5 CALLDATACOPY PUSH1 0x0 SWAP3 ADD SWAP2 SWAP1 SWAP2 MSTORE POP POP PUSH1 0x40 DUP1 MLOAD DUP1 DUP3 ADD SWAP1 SWAP2 MSTORE PUSH1 0x7 DUP2 MSTORE PUSH7 0x5055424C495553 PUSH1 0xC8 SHL PUSH1 0x20 DUP3 ADD MSTORE SWAP2 POP PUSH2 0x183F SWAP1 POP JUMP JUMPDEST PUSH2 0xD4C PUSH2 0x1870 JUMP JUMPDEST PUSH2 0xD55 DUP7 PUSH2 0x1352 JUMP JUMPDEST PUSH1 0xCD PUSH2 0xD62 DUP6 DUP8 DUP4 PUSH2 0x24E0 JUMP JUMPDEST POP PUSH1 0xCE DUP1 SLOAD PUSH1 0x1 PUSH1 0x1 PUSH1 0xA0 SHL SUB NOT AND PUSH1 0x1 PUSH1 0x1 PUSH1 0xA0 SHL SUB DUP9 AND OR SWAP1 SSTORE PUSH1 0xCF PUSH2 0xD8B DUP4 DUP6 DUP4 PUSH2 0x24E0 JUMP JUMPDEST POP DUP1 ISZERO PUSH2 0xDD2 JUMPI PUSH1 0x0 DUP1 SLOAD PUSH2 0xFF00 NOT AND SWAP1 SSTORE PUSH1 0x40 MLOAD PUSH1 0x1 DUP2 MSTORE PUSH32 0x7F26B83FF96E1F2B6A682F133852F6798A09C465DA95921460CEFB3847402498 SWAP1 PUSH1 0x20 ADD PUSH1 0x40 MLOAD DUP1 SWAP2 SUB SWAP1 LOG1 JUMPDEST POP POP POP POP POP POP JUMP JUMPDEST PUSH1 0x60 PUSH1 0x66 DUP1 SLOAD PUSH2 0x456 SWAP1 PUSH2 0x22FC JUMP JUMPDEST PUSH2 0xDF4 CALLER DUP4 DUP4 PUSH2 0x189F JUMP JUMPDEST POP POP JUMP JUMPDEST PUSH2 0xE00 PUSH2 0x15D0 JUMP JUMPDEST PUSH1 0x0 DUP1 DUP1 DUP1 DUP1 PUSH2 0xE12 DUP7 DUP9 ADD DUP9 PUSH2 0x25FB JUMP JUMPDEST PUSH1 0x0 DUP16 DUP2 MSTORE PUSH1 0xCB PUSH1 0x20 MSTORE PUSH1 0x40 SWAP1 KECCAK256 SWAP5 SWAP10 POP SWAP3 SWAP8 POP SWAP1 SWAP6 POP SWAP4 POP SWAP2 POP PUSH2 0xE38 DUP13 DUP15 DUP4 PUSH2 0x24E0 JUMP JUMPDEST POP PUSH1 0x0 DUP11 DUP2 MSTORE PUSH1 0xCB PUSH1 0x20 MSTORE PUSH1 0x40 SWAP1 KECCAK256 PUSH1 0x1 DUP2 ADD DUP12 SWAP1 SSTORE PUSH1 0x2 ADD PUSH2 0xE5C DUP10 DUP12 DUP4 PUSH2 0x24E0 JUMP JUMPDEST POP PUSH1 0x0 DUP11 DUP2 MSTORE PUSH1 0xCB PUSH1 0x20 SWAP1 DUP2 MSTORE PUSH1 0x40 SWAP1 SWAP2 KECCAK256 DUP5 MLOAD PUSH2 0xE82 SWAP3 PUSH1 0x3 SWAP1 SWAP3 ADD SWAP2 DUP7 ADD SWAP1 PUSH2 0x1C27 JUMP JUMPDEST POP PUSH1 0x0 JUMPDEST DUP6 MLOAD DUP2 LT ISZERO PUSH2 0xEF9 JUMPI PUSH2 0xEE7 DUP7 DUP3 DUP2 MLOAD DUP2 LT PUSH2 0xEA4 JUMPI PUSH2 0xEA4 PUSH2 0x24CA JUMP JUMPDEST PUSH1 0x20 MUL PUSH1 0x20 ADD ADD MLOAD DUP7 DUP4 DUP2 MLOAD DUP2 LT PUSH2 0xEBE JUMPI PUSH2 0xEBE PUSH2 0x24CA JUMP JUMPDEST PUSH1 0x20 MUL PUSH1 0x20 ADD ADD MLOAD DUP7 DUP5 DUP2 MLOAD DUP2 LT PUSH2 0xED8 JUMPI PUSH2 0xED8 PUSH2 0x24CA JUMP JUMPDEST PUSH1 0x20 MUL PUSH1 0x20 ADD ADD MLOAD DUP7 DUP7 PUSH2 0x8B9 JUMP JUMPDEST DUP1 PUSH2 0xEF1 DUP2 PUSH2 0x2464 JUMP JUMPDEST SWAP2 POP POP PUSH2 0xE86 JUMP JUMPDEST POP PUSH1 0xD0 DUP1 SLOAD SWAP1 PUSH1 0x0 PUSH2 0xF0A DUP4 PUSH2 0x2464 JUMP JUMPDEST SWAP2 SWAP1 POP SSTORE POP POP POP POP POP POP POP POP POP POP POP POP POP JUMP JUMPDEST PUSH2 0xF27 CALLER DUP4 PUSH2 0x162A JUMP JUMPDEST PUSH2 0xF43 JUMPI PUSH1 0x40 MLOAD PUSH3 0x461BCD PUSH1 0xE5 SHL DUP2 MSTORE PUSH1 0x4 ADD PUSH2 0x574 SWAP1 PUSH2 0x247D JUMP JUMPDEST PUSH2 0xF4F DUP5 DUP5 DUP5 DUP5 PUSH2 0x196D JUMP JUMPDEST POP POP POP POP JUMP JUMPDEST PUSH1 0x0 DUP2 DUP2 MSTORE PUSH1 0x67 PUSH1 0x20 MSTORE PUSH1 0x40 SWAP1 KECCAK256 SLOAD PUSH1 0x60 SWAP1 PUSH1 0x1 PUSH1 0x1 PUSH1 0xA0 SHL SUB AND PUSH2 0xFD4 JUMPI PUSH1 0x40 MLOAD PUSH3 0x461BCD PUSH1 0xE5 SHL DUP2 MSTORE PUSH1 0x20 PUSH1 0x4 DUP3 ADD MSTORE PUSH1 0x2F PUSH1 0x24 DUP3 ADD MSTORE PUSH32 0x4552433732314D657461646174613A2055524920717565727920666F72206E6F PUSH1 0x44 DUP3 ADD MSTORE PUSH15 0x3732BC34B9BA32B73A103A37B5B2B7 PUSH1 0x89 SHL PUSH1 0x64 DUP3 ADD MSTORE PUSH1 0x84 ADD PUSH2 0x574 JUMP JUMPDEST PUSH1 0x40 DUP1 MLOAD DUP1 DUP3 ADD SWAP1 SWAP2 MSTORE PUSH1 0xF DUP2 MSTORE PUSH15 0x7B202253656374696F6E73223A205B PUSH1 0x88 SHL PUSH1 0x20 DUP3 ADD MSTORE PUSH1 0x0 JUMPDEST PUSH1 0xD0 SLOAD DUP2 LT ISZERO PUSH2 0x1291 JUMPI PUSH1 0x0 DUP2 DUP2 MSTORE PUSH1 0xCB PUSH1 0x20 MSTORE PUSH1 0x40 DUP2 KECCAK256 PUSH1 0x1 DUP2 ADD SLOAD SWAP1 SWAP2 SWAP1 PUSH2 0x1026 SWAP1 PUSH2 0x19A0 JUMP JUMPDEST PUSH1 0x40 MLOAD PUSH2 0x103D SWAP2 SWAP1 DUP5 SWAP1 PUSH1 0x2 DUP3 ADD SWAP1 PUSH1 0x20 ADD PUSH2 0x2703 JUMP JUMPDEST PUSH1 0x40 DUP1 MLOAD PUSH1 0x1F NOT DUP2 DUP5 SUB ADD DUP2 MSTORE PUSH1 0x20 DUP4 ADD SWAP1 SWAP2 MSTORE PUSH1 0x0 DUP1 DUP4 MSTORE SWAP1 SWAP3 POP JUMPDEST PUSH1 0x3 DUP5 ADD SLOAD DUP2 LT ISZERO PUSH2 0x11F9 JUMPI PUSH1 0x0 PUSH1 0xCC PUSH1 0x0 DUP7 PUSH1 0x3 ADD DUP5 DUP2 SLOAD DUP2 LT PUSH2 0x1081 JUMPI PUSH2 0x1081 PUSH2 0x24CA JUMP JUMPDEST SWAP1 PUSH1 0x0 MSTORE PUSH1 0x20 PUSH1 0x0 KECCAK256 ADD SLOAD DUP2 MSTORE PUSH1 0x20 ADD SWAP1 DUP2 MSTORE PUSH1 0x20 ADD PUSH1 0x0 KECCAK256 SWAP1 POP DUP3 PUSH2 0x10AA DUP3 PUSH1 0x1 ADD SLOAD PUSH2 0x19A0 JUMP JUMPDEST PUSH1 0x40 MLOAD PUSH2 0x10C2 SWAP3 SWAP2 SWAP1 DUP5 SWAP1 PUSH1 0x2 DUP3 ADD SWAP1 PUSH1 0x20 ADD PUSH2 0x27CE JUMP JUMPDEST PUSH1 0x40 DUP1 MLOAD PUSH1 0x1F NOT DUP2 DUP5 SUB ADD DUP2 MSTORE PUSH1 0x20 DUP4 ADD SWAP1 SWAP2 MSTORE PUSH1 0x0 DUP1 DUP4 MSTORE SWAP1 SWAP5 POP JUMPDEST DUP3 PUSH1 0x4 ADD SLOAD DUP2 LT ISZERO PUSH2 0x1182 JUMPI PUSH1 0x0 DUP2 DUP2 MSTORE PUSH1 0x3 DUP5 ADD PUSH1 0x20 MSTORE PUSH1 0x40 SWAP1 KECCAK256 PUSH1 0x1 DUP2 ADD SLOAD DUP4 SWAP1 PUSH2 0x110B SWAP1 PUSH2 0x19A0 JUMP JUMPDEST PUSH1 0x40 MLOAD PUSH2 0x1123 SWAP3 SWAP2 SWAP1 DUP5 SWAP1 PUSH1 0x2 DUP3 ADD SWAP1 PUSH1 0x20 ADD PUSH2 0x28AB JUMP JUMPDEST PUSH1 0x40 MLOAD PUSH1 0x20 DUP2 DUP4 SUB SUB DUP2 MSTORE SWAP1 PUSH1 0x40 MSTORE SWAP3 POP PUSH1 0x1 DUP5 PUSH1 0x4 ADD SLOAD PUSH2 0x1145 SWAP2 SWAP1 PUSH2 0x2950 JUMP JUMPDEST DUP3 LT ISZERO PUSH2 0x116F JUMPI DUP3 PUSH1 0x40 MLOAD PUSH1 0x20 ADD PUSH2 0x115D SWAP2 SWAP1 PUSH2 0x2963 JUMP JUMPDEST PUSH1 0x40 MLOAD PUSH1 0x20 DUP2 DUP4 SUB SUB DUP2 MSTORE SWAP1 PUSH1 0x40 MSTORE SWAP3 POP JUMPDEST POP DUP1 PUSH2 0x117A DUP2 PUSH2 0x2464 JUMP JUMPDEST SWAP2 POP POP PUSH2 0x10DF JUMP JUMPDEST POP DUP4 DUP2 PUSH1 0x40 MLOAD PUSH1 0x20 ADD PUSH2 0x1196 SWAP3 SWAP2 SWAP1 PUSH2 0x2988 JUMP JUMPDEST PUSH1 0x40 DUP1 MLOAD PUSH1 0x1F NOT DUP2 DUP5 SUB ADD DUP2 MSTORE SWAP2 SWAP1 MSTORE PUSH1 0x3 DUP8 ADD SLOAD SWAP1 SWAP5 POP PUSH2 0x11BA SWAP1 PUSH1 0x1 SWAP1 PUSH2 0x2950 JUMP JUMPDEST DUP4 LT ISZERO PUSH2 0x11E4 JUMPI DUP4 PUSH1 0x40 MLOAD PUSH1 0x20 ADD PUSH2 0x11D2 SWAP2 SWAP1 PUSH2 0x2963 JUMP JUMPDEST PUSH1 0x40 MLOAD PUSH1 0x20 DUP2 DUP4 SUB SUB DUP2 MSTORE SWAP1 PUSH1 0x40 MSTORE SWAP4 POP JUMPDEST POP POP DUP1 DUP1 PUSH2 0x11F1 SWAP1 PUSH2 0x2464 JUMP JUMPDEST SWAP2 POP POP PUSH2 0x105A JUMP JUMPDEST POP DUP2 DUP2 PUSH1 0x40 MLOAD PUSH1 0x20 ADD PUSH2 0x120D SWAP3 SWAP2 SWAP1 PUSH2 0x2988 JUMP JUMPDEST PUSH1 0x40 MLOAD PUSH1 0x20 DUP2 DUP4 SUB SUB DUP2 MSTORE SWAP1 PUSH1 0x40 MSTORE SWAP2 POP DUP5 DUP3 PUSH1 0x40 MLOAD PUSH1 0x20 ADD PUSH2 0x1231 SWAP3 SWAP2 SWAP1 PUSH2 0x29C3 JUMP JUMPDEST PUSH1 0x40 MLOAD PUSH1 0x20 DUP2 DUP4 SUB SUB DUP2 MSTORE SWAP1 PUSH1 0x40 MSTORE SWAP5 POP PUSH1 0x1 PUSH1 0xD0 SLOAD PUSH2 0x1251 SWAP2 SWAP1 PUSH2 0x2950 JUMP JUMPDEST DUP5 LT ISZERO PUSH2 0x127B JUMPI DUP5 PUSH1 0x40 MLOAD PUSH1 0x20 ADD PUSH2 0x1269 SWAP2 SWAP1 PUSH2 0x2963 JUMP JUMPDEST PUSH1 0x40 MLOAD PUSH1 0x20 DUP2 DUP4 SUB SUB DUP2 MSTORE SWAP1 PUSH1 0x40 MSTORE SWAP5 POP JUMPDEST POP POP POP DUP1 DUP1 PUSH2 0x1289 SWAP1 PUSH2 0x2464 JUMP JUMPDEST SWAP2 POP POP PUSH2 0xFFD JUMP JUMPDEST POP DUP1 PUSH1 0x40 MLOAD PUSH1 0x20 ADD PUSH2 0x12A3 SWAP2 SWAP1 PUSH2 0x29F2 JUMP JUMPDEST PUSH1 0x40 DUP1 MLOAD DUP1 DUP4 SUB PUSH1 0x1F NOT ADD DUP2 MSTORE PUSH1 0x20 DUP1 DUP5 ADD DUP4 MSTORE PUSH1 0x0 DUP5 MSTORE SWAP2 MLOAD SWAP1 SWAP4 POP PUSH2 0x12CE SWAP2 DUP4 SWAP2 DUP6 SWAP2 ADD PUSH2 0x29C3 JUMP JUMPDEST PUSH1 0x40 MLOAD PUSH1 0x20 DUP2 DUP4 SUB SUB DUP2 MSTORE SWAP1 PUSH1 0x40 MSTORE SWAP3 POP POP POP SWAP2 SWAP1 POP JUMP JUMPDEST PUSH1 0xCF DUP1 SLOAD PUSH2 0xB28 SWAP1 PUSH2 0x22FC JUMP JUMPDEST PUSH1 0xCA PUSH1 0x20 MSTORE DUP2 PUSH1 0x0 MSTORE PUSH1 0x40 PUSH1 0x0 KECCAK256 DUP2 DUP2 SLOAD DUP2 LT PUSH2 0x130F JUMPI PUSH1 0x0 DUP1 REVERT JUMPDEST SWAP1 PUSH1 0x0 MSTORE PUSH1 0x20 PUSH1 0x0 KECCAK256 ADD PUSH1 0x0 SWAP2 POP SWAP2 POP POP SLOAD DUP2 JUMP JUMPDEST PUSH1 0x1 PUSH1 0x1 PUSH1 0xA0 SHL SUB SWAP2 DUP3 AND PUSH1 0x0 SWAP1 DUP2 MSTORE PUSH1 0x6A PUSH1 0x20 SWAP1 DUP2 MSTORE PUSH1 0x40 DUP1 DUP4 KECCAK256 SWAP4 SWAP1 SWAP5 AND DUP3 MSTORE SWAP2 SWAP1 SWAP2 MSTORE KECCAK256 SLOAD PUSH1 0xFF AND SWAP1 JUMP JUMPDEST PUSH2 0x135A PUSH2 0x15D0 JUMP JUMPDEST PUSH1 0x1 PUSH1 0x1 PUSH1 0xA0 SHL SUB DUP2 AND PUSH2 0x13BF JUMPI PUSH1 0x40 MLOAD PUSH3 0x461BCD PUSH1 0xE5 SHL DUP2 MSTORE PUSH1 0x20 PUSH1 0x4 DUP3 ADD MSTORE PUSH1 0x26 PUSH1 0x24 DUP3 ADD MSTORE PUSH32 0x4F776E61626C653A206E6577206F776E657220697320746865207A65726F2061 PUSH1 0x44 DUP3 ADD MSTORE PUSH6 0x646472657373 PUSH1 0xD0 SHL PUSH1 0x64 DUP3 ADD MSTORE PUSH1 0x84 ADD PUSH2 0x574 JUMP JUMPDEST PUSH2 0x13C8 DUP2 PUSH2 0x17ED JUMP JUMPDEST POP JUMP JUMPDEST PUSH1 0xCC PUSH1 0x20 MSTORE PUSH1 0x0 SWAP1 DUP2 MSTORE PUSH1 0x40 SWAP1 KECCAK256 DUP1 SLOAD DUP2 SWAP1 PUSH2 0x13E6 SWAP1 PUSH2 0x22FC JUMP JUMPDEST DUP1 PUSH1 0x1F ADD PUSH1 0x20 DUP1 SWAP2 DIV MUL PUSH1 0x20 ADD PUSH1 0x40 MLOAD SWAP1 DUP2 ADD PUSH1 0x40 MSTORE DUP1 SWAP3 SWAP2 SWAP1 DUP2 DUP2 MSTORE PUSH1 0x20 ADD DUP3 DUP1 SLOAD PUSH2 0x1412 SWAP1 PUSH2 0x22FC JUMP JUMPDEST DUP1 ISZERO PUSH2 0x145F JUMPI DUP1 PUSH1 0x1F LT PUSH2 0x1434 JUMPI PUSH2 0x100 DUP1 DUP4 SLOAD DIV MUL DUP4 MSTORE SWAP2 PUSH1 0x20 ADD SWAP2 PUSH2 0x145F JUMP JUMPDEST DUP3 ADD SWAP2 SWAP1 PUSH1 0x0 MSTORE PUSH1 0x20 PUSH1 0x0 KECCAK256 SWAP1 JUMPDEST DUP2 SLOAD DUP2 MSTORE SWAP1 PUSH1 0x1 ADD SWAP1 PUSH1 0x20 ADD DUP1 DUP4 GT PUSH2 0x1442 JUMPI DUP3 SWAP1 SUB PUSH1 0x1F AND DUP3 ADD SWAP2 JUMPDEST POP POP POP POP POP SWAP1 DUP1 PUSH1 0x1 ADD SLOAD SWAP1 DUP1 PUSH1 0x2 ADD DUP1 SLOAD PUSH2 0x147A SWAP1 PUSH2 0x22FC JUMP JUMPDEST DUP1 PUSH1 0x1F ADD PUSH1 0x20 DUP1 SWAP2 DIV MUL PUSH1 0x20 ADD PUSH1 0x40 MLOAD SWAP1 DUP2 ADD PUSH1 0x40 MSTORE DUP1 SWAP3 SWAP2 SWAP1 DUP2 DUP2 MSTORE PUSH1 0x20 ADD DUP3 DUP1 SLOAD PUSH2 0x14A6 SWAP1 PUSH2 0x22FC JUMP JUMPDEST DUP1 ISZERO PUSH2 0x14F3 JUMPI DUP1 PUSH1 0x1F LT PUSH2 0x14C8 JUMPI PUSH2 0x100 DUP1 DUP4 SLOAD DIV MUL DUP4 MSTORE SWAP2 PUSH1 0x20 ADD SWAP2 PUSH2 0x14F3 JUMP JUMPDEST DUP3 ADD SWAP2 SWAP1 PUSH1 0x0 MSTORE PUSH1 0x20 PUSH1 0x0 KECCAK256 SWAP1 JUMPDEST DUP2 SLOAD DUP2 MSTORE SWAP1 PUSH1 0x1 ADD SWAP1 PUSH1 0x20 ADD DUP1 DUP4 GT PUSH2 0x14D6 JUMPI DUP3 SWAP1 SUB PUSH1 0x1F AND DUP3 ADD SWAP2 JUMPDEST POP POP POP POP POP SWAP1 DUP1 PUSH1 0x4 ADD SLOAD SWAP1 POP DUP5 JUMP JUMPDEST PUSH1 0x0 DUP2 DUP2 MSTORE PUSH1 0x67 PUSH1 0x20 MSTORE PUSH1 0x40 SWAP1 KECCAK256 SLOAD PUSH1 0x1 PUSH1 0x1 PUSH1 0xA0 SHL SUB AND PUSH2 0x13C8 JUMPI PUSH1 0x40 MLOAD PUSH3 0x461BCD PUSH1 0xE5 SHL DUP2 MSTORE PUSH1 0x20 PUSH1 0x4 DUP3 ADD MSTORE PUSH1 0x18 PUSH1 0x24 DUP3 ADD MSTORE PUSH24 0x115490CDCC8C4E881A5B9D985B1A59081D1BDAD95B881251 PUSH1 0x42 SHL PUSH1 0x44 DUP3 ADD MSTORE PUSH1 0x64 ADD PUSH2 0x574 JUMP JUMPDEST PUSH1 0x0 DUP2 DUP2 MSTORE PUSH1 0x69 PUSH1 0x20 MSTORE PUSH1 0x40 SWAP1 KECCAK256 DUP1 SLOAD PUSH1 0x1 PUSH1 0x1 PUSH1 0xA0 SHL SUB NOT AND PUSH1 0x1 PUSH1 0x1 PUSH1 0xA0 SHL SUB DUP5 AND SWAP1 DUP2 OR SWAP1 SWAP2 SSTORE DUP2 SWAP1 PUSH2 0x1597 DUP3 PUSH2 0xA21 JUMP JUMPDEST PUSH1 0x1 PUSH1 0x1 PUSH1 0xA0 SHL SUB AND PUSH32 0x8C5BE1E5EBEC7D5BD14F71427D1E84F3DD0314C0F7B2291E5B200AC8C7C3B925 PUSH1 0x40 MLOAD PUSH1 0x40 MLOAD DUP1 SWAP2 SUB SWAP1 LOG4 POP POP JUMP JUMPDEST PUSH1 0x97 SLOAD PUSH1 0x1 PUSH1 0x1 PUSH1 0xA0 SHL SUB AND CALLER EQ PUSH2 0xB19 JUMPI PUSH1 0x40 MLOAD PUSH3 0x461BCD PUSH1 0xE5 SHL DUP2 MSTORE PUSH1 0x20 PUSH1 0x4 DUP3 ADD DUP2 SWAP1 MSTORE PUSH1 0x24 DUP3 ADD MSTORE PUSH32 0x4F776E61626C653A2063616C6C6572206973206E6F7420746865206F776E6572 PUSH1 0x44 DUP3 ADD MSTORE PUSH1 0x64 ADD PUSH2 0x574 JUMP JUMPDEST PUSH1 0x0 DUP1 PUSH2 0x1636 DUP4 PUSH2 0xA21 JUMP JUMPDEST SWAP1 POP DUP1 PUSH1 0x1 PUSH1 0x1 PUSH1 0xA0 SHL SUB AND DUP5 PUSH1 0x1 PUSH1 0x1 PUSH1 0xA0 SHL SUB AND EQ DUP1 PUSH2 0x165D JUMPI POP PUSH2 0x165D DUP2 DUP6 PUSH2 0x1324 JUMP JUMPDEST DUP1 PUSH2 0x1681 JUMPI POP DUP4 PUSH1 0x1 PUSH1 0x1 PUSH1 0xA0 SHL SUB AND PUSH2 0x1676 DUP5 PUSH2 0x4D9 JUMP JUMPDEST PUSH1 0x1 PUSH1 0x1 PUSH1 0xA0 SHL SUB AND EQ JUMPDEST SWAP5 SWAP4 POP POP POP POP JUMP JUMPDEST DUP3 PUSH1 0x1 PUSH1 0x1 PUSH1 0xA0 SHL SUB AND PUSH2 0x169C DUP3 PUSH2 0xA21 JUMP JUMPDEST PUSH1 0x1 PUSH1 0x1 PUSH1 0xA0 SHL SUB AND EQ PUSH2 0x16C2 JUMPI PUSH1 0x40 MLOAD PUSH3 0x461BCD PUSH1 0xE5 SHL DUP2 MSTORE PUSH1 0x4 ADD PUSH2 0x574 SWAP1 PUSH2 0x2A18 JUMP JUMPDEST PUSH1 0x1 PUSH1 0x1 PUSH1 0xA0 SHL SUB DUP3 AND PUSH2 0x1724 JUMPI PUSH1 0x40 MLOAD PUSH3 0x461BCD PUSH1 0xE5 SHL DUP2 MSTORE PUSH1 0x20 PUSH1 0x4 DUP3 ADD MSTORE PUSH1 0x24 DUP1 DUP3 ADD MSTORE PUSH32 0x4552433732313A207472616E7366657220746F20746865207A65726F20616464 PUSH1 0x44 DUP3 ADD MSTORE PUSH4 0x72657373 PUSH1 0xE0 SHL PUSH1 0x64 DUP3 ADD MSTORE PUSH1 0x84 ADD PUSH2 0x574 JUMP JUMPDEST DUP3 PUSH1 0x1 PUSH1 0x1 PUSH1 0xA0 SHL SUB AND PUSH2 0x1737 DUP3 PUSH2 0xA21 JUMP JUMPDEST PUSH1 0x1 PUSH1 0x1 PUSH1 0xA0 SHL SUB AND EQ PUSH2 0x175D JUMPI PUSH1 0x40 MLOAD PUSH3 0x461BCD PUSH1 0xE5 SHL DUP2 MSTORE PUSH1 0x4 ADD PUSH2 0x574 SWAP1 PUSH2 0x2A18 JUMP JUMPDEST PUSH1 0x0 DUP2 DUP2 MSTORE PUSH1 0x69 PUSH1 0x20 SWAP1 DUP2 MSTORE PUSH1 0x40 DUP1 DUP4 KECCAK256 DUP1 SLOAD PUSH1 0x1 PUSH1 0x1 PUSH1 0xA0 SHL SUB NOT SWAP1 DUP2 AND SWAP1 SWAP2 SSTORE PUSH1 0x1 PUSH1 0x1 PUSH1 0xA0 SHL SUB DUP8 DUP2 AND DUP1 DUP7 MSTORE PUSH1 0x68 DUP6 MSTORE DUP4 DUP7 KECCAK256 DUP1 SLOAD PUSH1 0x0 NOT ADD SWAP1 SSTORE SWAP1 DUP8 AND DUP1 DUP7 MSTORE DUP4 DUP7 KECCAK256 DUP1 SLOAD PUSH1 0x1 ADD SWAP1 SSTORE DUP7 DUP7 MSTORE PUSH1 0x67 SWAP1 SWAP5 MSTORE DUP3 DUP6 KECCAK256 DUP1 SLOAD SWAP1 SWAP3 AND DUP5 OR SWAP1 SWAP2 SSTORE SWAP1 MLOAD DUP5 SWAP4 PUSH32 0xDDF252AD1BE2C89B69C2B068FC378DAA952BA7F163C4A11628F55A4DF523B3EF SWAP2 LOG4 POP POP POP JUMP JUMPDEST PUSH1 0x97 DUP1 SLOAD PUSH1 0x1 PUSH1 0x1 PUSH1 0xA0 SHL SUB DUP4 DUP2 AND PUSH1 0x1 PUSH1 0x1 PUSH1 0xA0 SHL SUB NOT DUP4 AND DUP2 OR SWAP1 SWAP4 SSTORE PUSH1 0x40 MLOAD SWAP2 AND SWAP2 SWAP1 DUP3 SWAP1 PUSH32 0x8BE0079C531659141344CD1FD0A4F28419497F9722A3DAAFE3B4186F6B6457E0 SWAP1 PUSH1 0x0 SWAP1 LOG3 POP POP JUMP JUMPDEST PUSH1 0x0 SLOAD PUSH2 0x100 SWAP1 DIV PUSH1 0xFF AND PUSH2 0x1866 JUMPI PUSH1 0x40 MLOAD PUSH3 0x461BCD PUSH1 0xE5 SHL DUP2 MSTORE PUSH1 0x4 ADD PUSH2 0x574 SWAP1 PUSH2 0x2A5D JUMP JUMPDEST PUSH2 0xDF4 DUP3 DUP3 PUSH2 0x1AB6 JUMP JUMPDEST PUSH1 0x0 SLOAD PUSH2 0x100 SWAP1 DIV PUSH1 0xFF AND PUSH2 0x1897 JUMPI PUSH1 0x40 MLOAD PUSH3 0x461BCD PUSH1 0xE5 SHL DUP2 MSTORE PUSH1 0x4 ADD PUSH2 0x574 SWAP1 PUSH2 0x2A5D JUMP JUMPDEST PUSH2 0xB19 PUSH2 0x1AF6 JUMP JUMPDEST DUP2 PUSH1 0x1 PUSH1 0x1 PUSH1 0xA0 SHL SUB AND DUP4 PUSH1 0x1 PUSH1 0x1 PUSH1 0xA0 SHL SUB AND SUB PUSH2 0x1900 JUMPI PUSH1 0x40 MLOAD PUSH3 0x461BCD PUSH1 0xE5 SHL DUP2 MSTORE PUSH1 0x20 PUSH1 0x4 DUP3 ADD MSTORE PUSH1 0x19 PUSH1 0x24 DUP3 ADD MSTORE PUSH32 0x4552433732313A20617070726F766520746F2063616C6C657200000000000000 PUSH1 0x44 DUP3 ADD MSTORE PUSH1 0x64 ADD PUSH2 0x574 JUMP JUMPDEST PUSH1 0x1 PUSH1 0x1 PUSH1 0xA0 SHL SUB DUP4 DUP2 AND PUSH1 0x0 DUP2 DUP2 MSTORE PUSH1 0x6A PUSH1 0x20 SWAP1 DUP2 MSTORE PUSH1 0x40 DUP1 DUP4 KECCAK256 SWAP5 DUP8 AND DUP1 DUP5 MSTORE SWAP5 DUP3 MSTORE SWAP2 DUP3 SWAP1 KECCAK256 DUP1 SLOAD PUSH1 0xFF NOT AND DUP7 ISZERO ISZERO SWAP1 DUP2 OR SWAP1 SWAP2 SSTORE SWAP2 MLOAD SWAP2 DUP3 MSTORE PUSH32 0x17307EAB39AB6107E8899845AD3D59BD9653F200F220920489CA2B5937696C31 SWAP2 ADD PUSH1 0x40 MLOAD DUP1 SWAP2 SUB SWAP1 LOG3 POP POP POP JUMP JUMPDEST PUSH2 0x1978 DUP5 DUP5 DUP5 PUSH2 0x1689 JUMP JUMPDEST PUSH2 0x1984 DUP5 DUP5 DUP5 DUP5 PUSH2 0x1B26 JUMP JUMPDEST PUSH2 0xF4F JUMPI PUSH1 0x40 MLOAD PUSH3 0x461BCD PUSH1 0xE5 SHL DUP2 MSTORE PUSH1 0x4 ADD PUSH2 0x574 SWAP1 PUSH2 0x2AA8 JUMP JUMPDEST PUSH1 0x60 DUP2 PUSH1 0x0 SUB PUSH2 0x19C7 JUMPI POP POP PUSH1 0x40 DUP1 MLOAD DUP1 DUP3 ADD SWAP1 SWAP2 MSTORE PUSH1 0x1 DUP2 MSTORE PUSH1 0x3 PUSH1 0xFC SHL PUSH1 0x20 DUP3 ADD MSTORE SWAP1 JUMP JUMPDEST DUP2 PUSH1 0x0 JUMPDEST DUP2 ISZERO PUSH2 0x19F1 JUMPI DUP1 PUSH2 0x19DB DUP2 PUSH2 0x2464 JUMP JUMPDEST SWAP2 POP PUSH2 0x19EA SWAP1 POP PUSH1 0xA DUP4 PUSH2 0x2B10 JUMP JUMPDEST SWAP2 POP PUSH2 0x19CB JUMP JUMPDEST PUSH1 0x0 DUP2 PUSH1 0x1 PUSH1 0x1 PUSH1 0x40 SHL SUB DUP2 GT ISZERO PUSH2 0x1A0B JUMPI PUSH2 0x1A0B PUSH2 0x1EB5 JUMP JUMPDEST PUSH1 0x40 MLOAD SWAP1 DUP1 DUP3 MSTORE DUP1 PUSH1 0x1F ADD PUSH1 0x1F NOT AND PUSH1 0x20 ADD DUP3 ADD PUSH1 0x40 MSTORE DUP1 ISZERO PUSH2 0x1A35 JUMPI PUSH1 0x20 DUP3 ADD DUP2 DUP1 CALLDATASIZE DUP4 CALLDATACOPY ADD SWAP1 POP JUMPDEST POP SWAP1 POP DUP2 JUMPDEST DUP6 ISZERO PUSH2 0x1AAD JUMPI PUSH2 0x1A4B PUSH1 0x1 DUP3 PUSH2 0x2950 JUMP JUMPDEST SWAP1 POP PUSH1 0x0 PUSH2 0x1A5A PUSH1 0xA DUP9 PUSH2 0x2B24 JUMP JUMPDEST PUSH2 0x1A65 SWAP1 PUSH1 0x30 PUSH2 0x2B38 JUMP JUMPDEST SWAP1 POP PUSH1 0x0 DUP2 PUSH1 0xF8 SHL SWAP1 POP DUP1 DUP5 DUP5 DUP2 MLOAD DUP2 LT PUSH2 0x1A82 JUMPI PUSH2 0x1A82 PUSH2 0x24CA JUMP JUMPDEST PUSH1 0x20 ADD ADD SWAP1 PUSH1 0x1 PUSH1 0x1 PUSH1 0xF8 SHL SUB NOT AND SWAP1 DUP2 PUSH1 0x0 BYTE SWAP1 MSTORE8 POP PUSH2 0x1AA4 PUSH1 0xA DUP10 PUSH2 0x2B10 JUMP JUMPDEST SWAP8 POP POP POP PUSH2 0x1A3A JUMP JUMPDEST POP SWAP5 SWAP4 POP POP POP POP JUMP JUMPDEST PUSH1 0x0 SLOAD PUSH2 0x100 SWAP1 DIV PUSH1 0xFF AND PUSH2 0x1ADD JUMPI PUSH1 0x40 MLOAD PUSH3 0x461BCD PUSH1 0xE5 SHL DUP2 MSTORE PUSH1 0x4 ADD PUSH2 0x574 SWAP1 PUSH2 0x2A5D JUMP JUMPDEST PUSH1 0x65 PUSH2 0x1AE9 DUP4 DUP3 PUSH2 0x23A5 JUMP JUMPDEST POP PUSH1 0x66 PUSH2 0x615 DUP3 DUP3 PUSH2 0x23A5 JUMP JUMPDEST PUSH1 0x0 SLOAD PUSH2 0x100 SWAP1 DIV PUSH1 0xFF AND PUSH2 0x1B1D JUMPI PUSH1 0x40 MLOAD PUSH3 0x461BCD PUSH1 0xE5 SHL DUP2 MSTORE PUSH1 0x4 ADD PUSH2 0x574 SWAP1 PUSH2 0x2A5D JUMP JUMPDEST PUSH2 0xB19 CALLER PUSH2 0x17ED JUMP JUMPDEST PUSH1 0x0 PUSH1 0x1 PUSH1 0x1 PUSH1 0xA0 SHL SUB DUP5 AND EXTCODESIZE ISZERO PUSH2 0x1C1C JUMPI PUSH1 0x40 MLOAD PUSH4 0xA85BD01 PUSH1 0xE1 SHL DUP2 MSTORE PUSH1 0x1 PUSH1 0x1 PUSH1 0xA0 SHL SUB DUP6 AND SWAP1 PUSH4 0x150B7A02 SWAP1 PUSH2 0x1B6A SWAP1 CALLER SWAP1 DUP10 SWAP1 DUP9 SWAP1 DUP9 SWAP1 PUSH1 0x4 ADD PUSH2 0x2B51 JUMP JUMPDEST PUSH1 0x20 PUSH1 0x40 MLOAD DUP1 DUP4 SUB DUP2 PUSH1 0x0 DUP8 GAS CALL SWAP3 POP POP POP DUP1 ISZERO PUSH2 0x1BA5 JUMPI POP PUSH1 0x40 DUP1 MLOAD PUSH1 0x1F RETURNDATASIZE SWAP1 DUP2 ADD PUSH1 0x1F NOT AND DUP3 ADD SWAP1 SWAP3 MSTORE PUSH2 0x1BA2 SWAP2 DUP2 ADD SWAP1 PUSH2 0x2B84 JUMP JUMPDEST PUSH1 0x1 JUMPDEST PUSH2 0x1C02 JUMPI RETURNDATASIZE DUP1 DUP1 ISZERO PUSH2 0x1BD3 JUMPI PUSH1 0x40 MLOAD SWAP2 POP PUSH1 0x1F NOT PUSH1 0x3F RETURNDATASIZE ADD AND DUP3 ADD PUSH1 0x40 MSTORE RETURNDATASIZE DUP3 MSTORE RETURNDATASIZE PUSH1 0x0 PUSH1 0x20 DUP5 ADD RETURNDATACOPY PUSH2 0x1BD8 JUMP JUMPDEST PUSH1 0x60 SWAP2 POP JUMPDEST POP DUP1 MLOAD PUSH1 0x0 SUB PUSH2 0x1BFA JUMPI PUSH1 0x40 MLOAD PUSH3 0x461BCD PUSH1 0xE5 SHL DUP2 MSTORE PUSH1 0x4 ADD PUSH2 0x574 SWAP1 PUSH2 0x2AA8 JUMP JUMPDEST DUP1 MLOAD DUP2 PUSH1 0x20 ADD REVERT JUMPDEST PUSH1 0x1 PUSH1 0x1 PUSH1 0xE0 SHL SUB NOT AND PUSH4 0xA85BD01 PUSH1 0xE1 SHL EQ SWAP1 POP PUSH2 0x1681 JUMP JUMPDEST POP PUSH1 0x1 SWAP5 SWAP4 POP POP POP POP JUMP JUMPDEST DUP3 DUP1 SLOAD DUP3 DUP3 SSTORE SWAP1 PUSH1 0x0 MSTORE PUSH1 0x20 PUSH1 0x0 KECCAK256 SWAP1 DUP2 ADD SWAP3 DUP3 ISZERO PUSH2 0x1C62 JUMPI SWAP2 PUSH1 0x20 MUL DUP3 ADD JUMPDEST DUP3 DUP2 GT ISZERO PUSH2 0x1C62 JUMPI DUP3 MLOAD DUP3 SSTORE SWAP2 PUSH1 0x20 ADD SWAP2 SWAP1 PUSH1 0x1 ADD SWAP1 PUSH2 0x1C47 JUMP JUMPDEST POP PUSH2 0x1C6E SWAP3 SWAP2 POP PUSH2 0x1C72 JUMP JUMPDEST POP SWAP1 JUMP JUMPDEST JUMPDEST DUP1 DUP3 GT ISZERO PUSH2 0x1C6E JUMPI PUSH1 0x0 DUP2 SSTORE PUSH1 0x1 ADD PUSH2 0x1C73 JUMP JUMPDEST PUSH1 0x1 PUSH1 0x1 PUSH1 0xE0 SHL SUB NOT DUP2 AND DUP2 EQ PUSH2 0x13C8 JUMPI PUSH1 0x0 DUP1 REVERT JUMPDEST PUSH1 0x0 PUSH1 0x20 DUP3 DUP5 SUB SLT ISZERO PUSH2 0x1CAF JUMPI PUSH1 0x0 DUP1 REVERT JUMPDEST DUP2 CALLDATALOAD PUSH2 0x1CBA DUP2 PUSH2 0x1C87 JUMP JUMPDEST SWAP4 SWAP3 POP POP POP JUMP JUMPDEST PUSH1 0x0 JUMPDEST DUP4 DUP2 LT ISZERO PUSH2 0x1CDC JUMPI DUP2 DUP2 ADD MLOAD DUP4 DUP3 ADD MSTORE PUSH1 0x20 ADD PUSH2 0x1CC4 JUMP JUMPDEST POP POP PUSH1 0x0 SWAP2 ADD MSTORE JUMP JUMPDEST PUSH1 0x0 DUP2 MLOAD DUP1 DUP5 MSTORE PUSH2 0x1CFD DUP2 PUSH1 0x20 DUP7 ADD PUSH1 0x20 DUP7 ADD PUSH2 0x1CC1 JUMP JUMPDEST PUSH1 0x1F ADD PUSH1 0x1F NOT AND SWAP3 SWAP1 SWAP3 ADD PUSH1 0x20 ADD SWAP3 SWAP2 POP POP JUMP JUMPDEST PUSH1 0x20 DUP2 MSTORE PUSH1 0x0 PUSH2 0x1CBA PUSH1 0x20 DUP4 ADD DUP5 PUSH2 0x1CE5 JUMP JUMPDEST PUSH1 0x0 PUSH1 0x20 DUP3 DUP5 SUB SLT ISZERO PUSH2 0x1D36 JUMPI PUSH1 0x0 DUP1 REVERT JUMPDEST POP CALLDATALOAD SWAP2 SWAP1 POP JUMP JUMPDEST DUP1 CALLDATALOAD PUSH1 0x1 PUSH1 0x1 PUSH1 0xA0 SHL SUB DUP2 AND DUP2 EQ PUSH2 0x1D54 JUMPI PUSH1 0x0 DUP1 REVERT JUMPDEST SWAP2 SWAP1 POP JUMP JUMPDEST PUSH1 0x0 DUP1 PUSH1 0x40 DUP4 DUP6 SUB SLT ISZERO PUSH2 0x1D6C JUMPI PUSH1 0x0 DUP1 REVERT JUMPDEST PUSH2 0x1D75 DUP4 PUSH2 0x1D3D JUMP JUMPDEST SWAP5 PUSH1 0x20 SWAP4 SWAP1 SWAP4 ADD CALLDATALOAD SWAP4 POP POP POP JUMP JUMPDEST PUSH1 0x0 DUP1 DUP4 PUSH1 0x1F DUP5 ADD SLT PUSH2 0x1D95 JUMPI PUSH1 0x0 DUP1 REVERT JUMPDEST POP DUP2 CALLDATALOAD PUSH1 0x1 PUSH1 0x1 PUSH1 0x40 SHL SUB DUP2 GT ISZERO PUSH2 0x1DAC JUMPI PUSH1 0x0 DUP1 REVERT JUMPDEST PUSH1 0x20 DUP4 ADD SWAP2 POP DUP4 PUSH1 0x20 DUP3 DUP6 ADD ADD GT ISZERO PUSH2 0x1DC4 JUMPI PUSH1 0x0 DUP1 REVERT JUMPDEST SWAP3 POP SWAP3 SWAP1 POP JUMP JUMPDEST PUSH1 0x0 DUP1 PUSH1 0x0 DUP1 PUSH1 0x0 PUSH1 0x60 DUP7 DUP9 SUB SLT ISZERO PUSH2 0x1DE3 JUMPI PUSH1 0x0 DUP1 REVERT JUMPDEST DUP6 CALLDATALOAD SWAP5 POP PUSH1 0x20 DUP7 ADD CALLDATALOAD PUSH1 0x1 PUSH1 0x1 PUSH1 0x40 SHL SUB DUP1 DUP3 GT ISZERO PUSH2 0x1E01 JUMPI PUSH1 0x0 DUP1 REVERT JUMPDEST PUSH2 0x1E0D DUP10 DUP4 DUP11 ADD PUSH2 0x1D83 JUMP JUMPDEST SWAP1 SWAP7 POP SWAP5 POP PUSH1 0x40 DUP9 ADD CALLDATALOAD SWAP2 POP DUP1 DUP3 GT ISZERO PUSH2 0x1E26 JUMPI PUSH1 0x0 DUP1 REVERT JUMPDEST POP PUSH2 0x1E33 DUP9 DUP3 DUP10 ADD PUSH2 0x1D83 JUMP JUMPDEST SWAP7 SWAP10 SWAP6 SWAP9 POP SWAP4 SWAP7 POP SWAP3 SWAP5 SWAP4 SWAP3 POP POP POP JUMP JUMPDEST PUSH1 0x0 DUP1 PUSH1 0x0 PUSH1 0x60 DUP5 DUP7 SUB SLT ISZERO PUSH2 0x1E59 JUMPI PUSH1 0x0 DUP1 REVERT JUMPDEST PUSH2 0x1E62 DUP5 PUSH2 0x1D3D JUMP JUMPDEST SWAP3 POP PUSH2 0x1E70 PUSH1 0x20 DUP6 ADD PUSH2 0x1D3D JUMP JUMPDEST SWAP2 POP PUSH1 0x40 DUP5 ADD CALLDATALOAD SWAP1 POP SWAP3 POP SWAP3 POP SWAP3 JUMP JUMPDEST PUSH1 0x60 DUP2 MSTORE PUSH1 0x0 PUSH2 0x1E93 PUSH1 0x60 DUP4 ADD DUP7 PUSH2 0x1CE5 JUMP JUMPDEST DUP5 PUSH1 0x20 DUP5 ADD MSTORE DUP3 DUP2 SUB PUSH1 0x40 DUP5 ADD MSTORE PUSH2 0x1EAB DUP2 DUP6 PUSH2 0x1CE5 JUMP JUMPDEST SWAP7 SWAP6 POP POP POP POP POP POP JUMP JUMPDEST PUSH4 0x4E487B71 PUSH1 0xE0 SHL PUSH1 0x0 MSTORE PUSH1 0x41 PUSH1 0x4 MSTORE PUSH1 0x24 PUSH1 0x0 REVERT JUMPDEST PUSH1 0x40 MLOAD PUSH1 0x1F DUP3 ADD PUSH1 0x1F NOT AND DUP2 ADD PUSH1 0x1 PUSH1 0x1 PUSH1 0x40 SHL SUB DUP2 GT DUP3 DUP3 LT OR ISZERO PUSH2 0x1EF3 JUMPI PUSH2 0x1EF3 PUSH2 0x1EB5 JUMP JUMPDEST PUSH1 0x40 MSTORE SWAP2 SWAP1 POP JUMP JUMPDEST PUSH1 0x0 PUSH1 0x1 PUSH1 0x1 PUSH1 0x40 SHL SUB DUP4 GT ISZERO PUSH2 0x1F14 JUMPI PUSH2 0x1F14 PUSH2 0x1EB5 JUMP JUMPDEST PUSH2 0x1F27 PUSH1 0x1F DUP5 ADD PUSH1 0x1F NOT AND PUSH1 0x20 ADD PUSH2 0x1ECB JUMP JUMPDEST SWAP1 POP DUP3 DUP2 MSTORE DUP4 DUP4 DUP4 ADD GT ISZERO PUSH2 0x1F3B JUMPI PUSH1 0x0 DUP1 REVERT JUMPDEST DUP3 DUP3 PUSH1 0x20 DUP4 ADD CALLDATACOPY PUSH1 0x0 PUSH1 0x20 DUP5 DUP4 ADD ADD MSTORE SWAP4 SWAP3 POP POP POP JUMP JUMPDEST PUSH1 0x0 DUP3 PUSH1 0x1F DUP4 ADD SLT PUSH2 0x1F63 JUMPI PUSH1 0x0 DUP1 REVERT JUMPDEST PUSH2 0x1CBA DUP4 DUP4 CALLDATALOAD PUSH1 0x20 DUP6 ADD PUSH2 0x1EFB JUMP JUMPDEST PUSH1 0x0 PUSH1 0x1 PUSH1 0x1 PUSH1 0x40 SHL SUB DUP3 GT ISZERO PUSH2 0x1F8B JUMPI PUSH2 0x1F8B PUSH2 0x1EB5 JUMP JUMPDEST POP PUSH1 0x5 SHL PUSH1 0x20 ADD SWAP1 JUMP JUMPDEST PUSH1 0x0 DUP3 PUSH1 0x1F DUP4 ADD SLT PUSH2 0x1FA6 JUMPI PUSH1 0x0 DUP1 REVERT JUMPDEST DUP2 CALLDATALOAD PUSH1 0x20 PUSH2 0x1FBB PUSH2 0x1FB6 DUP4 PUSH2 0x1F72 JUMP JUMPDEST PUSH2 0x1ECB JUMP JUMPDEST DUP3 DUP2 MSTORE PUSH1 0x5 SWAP3 SWAP1 SWAP3 SHL DUP5 ADD DUP2 ADD SWAP2 DUP2 DUP2 ADD SWAP1 DUP7 DUP5 GT ISZERO PUSH2 0x1FDA JUMPI PUSH1 0x0 DUP1 REVERT JUMPDEST DUP3 DUP7 ADD JUMPDEST DUP5 DUP2 LT ISZERO PUSH2 0x2019 JUMPI DUP1 CALLDATALOAD PUSH1 0x1 PUSH1 0x1 PUSH1 0x40 SHL SUB DUP2 GT ISZERO PUSH2 0x1FFD JUMPI PUSH1 0x0 DUP1 DUP2 REVERT JUMPDEST PUSH2 0x200B DUP10 DUP7 DUP4 DUP12 ADD ADD PUSH2 0x1F52 JUMP JUMPDEST DUP5 MSTORE POP SWAP2 DUP4 ADD SWAP2 DUP4 ADD PUSH2 0x1FDE JUMP JUMPDEST POP SWAP7 SWAP6 POP POP POP POP POP POP JUMP JUMPDEST PUSH1 0x0 DUP1 PUSH1 0x0 DUP1 PUSH1 0x0 PUSH1 0xA0 DUP7 DUP9 SUB SLT ISZERO PUSH2 0x203C JUMPI PUSH1 0x0 DUP1 REVERT JUMPDEST DUP6 CALLDATALOAD PUSH1 0x1 PUSH1 0x1 PUSH1 0x40 SHL SUB DUP1 DUP3 GT ISZERO PUSH2 0x2053 JUMPI PUSH1 0x0 DUP1 REVERT JUMPDEST PUSH2 0x205F DUP10 DUP4 DUP11 ADD PUSH2 0x1F52 JUMP JUMPDEST SWAP7 POP PUSH1 0x20 DUP9 ADD CALLDATALOAD SWAP2 POP DUP1 DUP3 GT ISZERO PUSH2 0x2075 JUMPI PUSH1 0x0 DUP1 REVERT JUMPDEST PUSH2 0x2081 DUP10 DUP4 DUP11 ADD PUSH2 0x1F52 JUMP JUMPDEST SWAP6 POP PUSH1 0x40 DUP9 ADD CALLDATALOAD SWAP5 POP PUSH1 0x60 DUP9 ADD CALLDATALOAD SWAP2 POP DUP1 DUP3 GT ISZERO PUSH2 0x209E JUMPI PUSH1 0x0 DUP1 REVERT JUMPDEST PUSH2 0x20AA DUP10 DUP4 DUP11 ADD PUSH2 0x1F95 JUMP JUMPDEST SWAP4 POP PUSH1 0x80 DUP9 ADD CALLDATALOAD SWAP2 POP DUP1 DUP3 GT ISZERO PUSH2 0x20C0 JUMPI PUSH1 0x0 DUP1 REVERT JUMPDEST POP PUSH2 0x20CD DUP9 DUP3 DUP10 ADD PUSH2 0x1F95 JUMP JUMPDEST SWAP2 POP POP SWAP3 SWAP6 POP SWAP3 SWAP6 SWAP1 SWAP4 POP JUMP JUMPDEST PUSH1 0x0 PUSH1 0x20 DUP3 DUP5 SUB SLT ISZERO PUSH2 0x20EC JUMPI PUSH1 0x0 DUP1 REVERT JUMPDEST PUSH2 0x1CBA DUP3 PUSH2 0x1D3D JUMP JUMPDEST PUSH1 0x0 DUP1 PUSH1 0x0 DUP1 PUSH1 0x0 PUSH1 0x60 DUP7 DUP9 SUB SLT ISZERO PUSH2 0x210D JUMPI PUSH1 0x0 DUP1 REVERT JUMPDEST PUSH2 0x2116 DUP7 PUSH2 0x1D3D JUMP JUMPDEST SWAP5 POP PUSH1 0x20 DUP7 ADD CALLDATALOAD PUSH1 0x1 PUSH1 0x1 PUSH1 0x40 SHL SUB DUP1 DUP3 GT ISZERO PUSH2 0x1E01 JUMPI PUSH1 0x0 DUP1 REVERT JUMPDEST PUSH1 0x0 DUP1 PUSH1 0x40 DUP4 DUP6 SUB SLT ISZERO PUSH2 0x2145 JUMPI PUSH1 0x0 DUP1 REVERT JUMPDEST PUSH2 0x214E DUP4 PUSH2 0x1D3D JUMP JUMPDEST SWAP2 POP PUSH1 0x20 DUP4 ADD CALLDATALOAD DUP1 ISZERO ISZERO DUP2 EQ PUSH2 0x2163 JUMPI PUSH1 0x0 DUP1 REVERT JUMPDEST DUP1 SWAP2 POP POP SWAP3 POP SWAP3 SWAP1 POP JUMP JUMPDEST PUSH1 0x0 DUP1 PUSH1 0x0 DUP1 PUSH1 0x0 DUP1 PUSH1 0x0 PUSH1 0x80 DUP9 DUP11 SUB SLT ISZERO PUSH2 0x2189 JUMPI PUSH1 0x0 DUP1 REVERT JUMPDEST DUP8 CALLDATALOAD PUSH1 0x1 PUSH1 0x1 PUSH1 0x40 SHL SUB DUP1 DUP3 GT ISZERO PUSH2 0x21A0 JUMPI PUSH1 0x0 DUP1 REVERT JUMPDEST PUSH2 0x21AC DUP12 DUP4 DUP13 ADD PUSH2 0x1D83 JUMP JUMPDEST SWAP1 SWAP10 POP SWAP8 POP PUSH1 0x20 DUP11 ADD CALLDATALOAD SWAP7 POP PUSH1 0x40 DUP11 ADD CALLDATALOAD SWAP2 POP DUP1 DUP3 GT ISZERO PUSH2 0x21CC JUMPI PUSH1 0x0 DUP1 REVERT JUMPDEST PUSH2 0x21D8 DUP12 DUP4 DUP13 ADD PUSH2 0x1D83 JUMP JUMPDEST SWAP1 SWAP7 POP SWAP5 POP PUSH1 0x60 DUP11 ADD CALLDATALOAD SWAP2 POP DUP1 DUP3 GT ISZERO PUSH2 0x21F1 JUMPI PUSH1 0x0 DUP1 REVERT JUMPDEST POP PUSH2 0x21FE DUP11 DUP3 DUP12 ADD PUSH2 0x1D83 JUMP JUMPDEST SWAP9 SWAP12 SWAP8 SWAP11 POP SWAP6 SWAP9 POP SWAP4 SWAP7 SWAP3 SWAP6 SWAP3 SWAP4 POP POP POP JUMP JUMPDEST PUSH1 0x0 DUP1 PUSH1 0x0 DUP1 PUSH1 0x80 DUP6 DUP8 SUB SLT ISZERO PUSH2 0x2227 JUMPI PUSH1 0x0 DUP1 REVERT JUMPDEST PUSH2 0x2230 DUP6 PUSH2 0x1D3D JUMP JUMPDEST SWAP4 POP PUSH2 0x223E PUSH1 0x20 DUP7 ADD PUSH2 0x1D3D JUMP JUMPDEST SWAP3 POP PUSH1 0x40 DUP6 ADD CALLDATALOAD SWAP2 POP PUSH1 0x60 DUP6 ADD CALLDATALOAD PUSH1 0x1 PUSH1 0x1 PUSH1 0x40 SHL SUB DUP2 GT ISZERO PUSH2 0x2260 JUMPI PUSH1 0x0 DUP1 REVERT JUMPDEST DUP6 ADD PUSH1 0x1F DUP2 ADD DUP8 SGT PUSH2 0x2271 JUMPI PUSH1 0x0 DUP1 REVERT JUMPDEST PUSH2 0x2280 DUP8 DUP3 CALLDATALOAD PUSH1 0x20 DUP5 ADD PUSH2 0x1EFB JUMP JUMPDEST SWAP2 POP POP SWAP3 SWAP6 SWAP2 SWAP5 POP SWAP3 POP JUMP JUMPDEST PUSH1 0x0 DUP1 PUSH1 0x40 DUP4 DUP6 SUB SLT ISZERO PUSH2 0x229F JUMPI PUSH1 0x0 DUP1 REVERT JUMPDEST PUSH2 0x22A8 DUP4 PUSH2 0x1D3D JUMP JUMPDEST SWAP2 POP PUSH2 0x22B6 PUSH1 0x20 DUP5 ADD PUSH2 0x1D3D JUMP JUMPDEST SWAP1 POP SWAP3 POP SWAP3 SWAP1 POP JUMP JUMPDEST PUSH1 0x80 DUP2 MSTORE PUSH1 0x0 PUSH2 0x22D2 PUSH1 0x80 DUP4 ADD DUP8 PUSH2 0x1CE5 JUMP JUMPDEST DUP6 PUSH1 0x20 DUP5 ADD MSTORE DUP3 DUP2 SUB PUSH1 0x40 DUP5 ADD MSTORE PUSH2 0x22EA DUP2 DUP7 PUSH2 0x1CE5 JUMP JUMPDEST SWAP2 POP POP DUP3 PUSH1 0x60 DUP4 ADD MSTORE SWAP6 SWAP5 POP POP POP POP POP JUMP JUMPDEST PUSH1 0x1 DUP2 DUP2 SHR SWAP1 DUP3 AND DUP1 PUSH2 0x2310 JUMPI PUSH1 0x7F DUP3 AND SWAP2 POP JUMPDEST PUSH1 0x20 DUP3 LT DUP2 SUB PUSH2 0x2330 JUMPI PUSH4 0x4E487B71 PUSH1 0xE0 SHL PUSH1 0x0 MSTORE PUSH1 0x22 PUSH1 0x4 MSTORE PUSH1 0x24 PUSH1 0x0 REVERT JUMPDEST POP SWAP2 SWAP1 POP JUMP JUMPDEST PUSH4 0x4E487B71 PUSH1 0xE0 SHL PUSH1 0x0 MSTORE PUSH1 0x11 PUSH1 0x4 MSTORE PUSH1 0x24 PUSH1 0x0 REVERT JUMPDEST DUP1 DUP3 ADD DUP1 DUP3 GT ISZERO PUSH2 0x441 JUMPI PUSH2 0x441 PUSH2 0x2336 JUMP JUMPDEST PUSH1 0x1F DUP3 GT ISZERO PUSH2 0x615 JUMPI PUSH1 0x0 DUP2 DUP2 MSTORE PUSH1 0x20 DUP2 KECCAK256 PUSH1 0x1F DUP6 ADD PUSH1 0x5 SHR DUP2 ADD PUSH1 0x20 DUP7 LT ISZERO PUSH2 0x2386 JUMPI POP DUP1 JUMPDEST PUSH1 0x1F DUP6 ADD PUSH1 0x5 SHR DUP3 ADD SWAP2 POP JUMPDEST DUP2 DUP2 LT ISZERO PUSH2 0xDD2 JUMPI DUP3 DUP2 SSTORE PUSH1 0x1 ADD PUSH2 0x2392 JUMP JUMPDEST DUP2 MLOAD PUSH1 0x1 PUSH1 0x1 PUSH1 0x40 SHL SUB DUP2 GT ISZERO PUSH2 0x23BE JUMPI PUSH2 0x23BE PUSH2 0x1EB5 JUMP JUMPDEST PUSH2 0x23D2 DUP2 PUSH2 0x23CC DUP5 SLOAD PUSH2 0x22FC JUMP JUMPDEST DUP5 PUSH2 0x235F JUMP JUMPDEST PUSH1 0x20 DUP1 PUSH1 0x1F DUP4 GT PUSH1 0x1 DUP2 EQ PUSH2 0x2407 JUMPI PUSH1 0x0 DUP5 ISZERO PUSH2 0x23EF JUMPI POP DUP6 DUP4 ADD MLOAD JUMPDEST PUSH1 0x0 NOT PUSH1 0x3 DUP7 SWAP1 SHL SHR NOT AND PUSH1 0x1 DUP6 SWAP1 SHL OR DUP6 SSTORE PUSH2 0xDD2 JUMP JUMPDEST PUSH1 0x0 DUP6 DUP2 MSTORE PUSH1 0x20 DUP2 KECCAK256 PUSH1 0x1F NOT DUP7 AND SWAP2 JUMPDEST DUP3 DUP2 LT ISZERO PUSH2 0x2436 JUMPI DUP9 DUP7 ADD MLOAD DUP3 SSTORE SWAP5 DUP5 ADD SWAP5 PUSH1 0x1 SWAP1 SWAP2 ADD SWAP1 DUP5 ADD PUSH2 0x2417 JUMP JUMPDEST POP DUP6 DUP3 LT ISZERO PUSH2 0x2454 JUMPI DUP8 DUP6 ADD MLOAD PUSH1 0x0 NOT PUSH1 0x3 DUP9 SWAP1 SHL PUSH1 0xF8 AND SHR NOT AND DUP2 SSTORE JUMPDEST POP POP POP POP POP PUSH1 0x1 SWAP1 DUP2 SHL ADD SWAP1 SSTORE POP JUMP JUMPDEST PUSH1 0x0 PUSH1 0x1 DUP3 ADD PUSH2 0x2476 JUMPI PUSH2 0x2476 PUSH2 0x2336 JUMP JUMPDEST POP PUSH1 0x1 ADD SWAP1 JUMP JUMPDEST PUSH1 0x20 DUP1 DUP3 MSTORE PUSH1 0x2D SWAP1 DUP3 ADD MSTORE PUSH32 0x4552433732313A2063616C6C6572206973206E6F7420746F6B656E206F776E65 PUSH1 0x40 DUP3 ADD MSTORE PUSH13 0x1C881BDC88185C1C1C9BDD9959 PUSH1 0x9A SHL PUSH1 0x60 DUP3 ADD MSTORE PUSH1 0x80 ADD SWAP1 JUMP JUMPDEST PUSH4 0x4E487B71 PUSH1 0xE0 SHL PUSH1 0x0 MSTORE PUSH1 0x32 PUSH1 0x4 MSTORE PUSH1 0x24 PUSH1 0x0 REVERT JUMPDEST PUSH1 0x1 PUSH1 0x1 PUSH1 0x40 SHL SUB DUP4 GT ISZERO PUSH2 0x24F7 JUMPI PUSH2 0x24F7 PUSH2 0x1EB5 JUMP JUMPDEST PUSH2 0x250B DUP4 PUSH2 0x2505 DUP4 SLOAD PUSH2 0x22FC JUMP JUMPDEST DUP4 PUSH2 0x235F JUMP JUMPDEST PUSH1 0x0 PUSH1 0x1F DUP5 GT PUSH1 0x1 DUP2 EQ PUSH2 0x253F JUMPI PUSH1 0x0 DUP6 ISZERO PUSH2 0x2527 JUMPI POP DUP4 DUP3 ADD CALLDATALOAD JUMPDEST PUSH1 0x0 NOT PUSH1 0x3 DUP8 SWAP1 SHL SHR NOT AND PUSH1 0x1 DUP7 SWAP1 SHL OR DUP4 SSTORE PUSH2 0x2599 JUMP JUMPDEST PUSH1 0x0 DUP4 DUP2 MSTORE PUSH1 0x20 SWAP1 KECCAK256 PUSH1 0x1F NOT DUP7 AND SWAP1 DUP4 JUMPDEST DUP3 DUP2 LT ISZERO PUSH2 0x2570 JUMPI DUP7 DUP6 ADD CALLDATALOAD DUP3 SSTORE PUSH1 0x20 SWAP5 DUP6 ADD SWAP5 PUSH1 0x1 SWAP1 SWAP3 ADD SWAP2 ADD PUSH2 0x2550 JUMP JUMPDEST POP DUP7 DUP3 LT ISZERO PUSH2 0x258D JUMPI PUSH1 0x0 NOT PUSH1 0xF8 DUP9 PUSH1 0x3 SHL AND SHR NOT DUP5 DUP8 ADD CALLDATALOAD AND DUP2 SSTORE JUMPDEST POP POP PUSH1 0x1 DUP6 PUSH1 0x1 SHL ADD DUP4 SSTORE JUMPDEST POP POP POP POP POP JUMP JUMPDEST PUSH1 0x0 DUP3 PUSH1 0x1F DUP4 ADD SLT PUSH2 0x25B1 JUMPI PUSH1 0x0 DUP1 REVERT JUMPDEST DUP2 CALLDATALOAD PUSH1 0x20 PUSH2 0x25C1 PUSH2 0x1FB6 DUP4 PUSH2 0x1F72 JUMP JUMPDEST DUP3 DUP2 MSTORE PUSH1 0x5 SWAP3 SWAP1 SWAP3 SHL DUP5 ADD DUP2 ADD SWAP2 DUP2 DUP2 ADD SWAP1 DUP7 DUP5 GT ISZERO PUSH2 0x25E0 JUMPI PUSH1 0x0 DUP1 REVERT JUMPDEST DUP3 DUP7 ADD JUMPDEST DUP5 DUP2 LT ISZERO PUSH2 0x2019 JUMPI DUP1 CALLDATALOAD DUP4 MSTORE SWAP2 DUP4 ADD SWAP2 DUP4 ADD PUSH2 0x25E4 JUMP JUMPDEST PUSH1 0x0 DUP1 PUSH1 0x0 DUP1 PUSH1 0x0 PUSH1 0xA0 DUP7 DUP9 SUB SLT ISZERO PUSH2 0x2613 JUMPI PUSH1 0x0 DUP1 REVERT JUMPDEST DUP6 CALLDATALOAD PUSH1 0x1 PUSH1 0x1 PUSH1 0x40 SHL SUB DUP1 DUP3 GT ISZERO PUSH2 0x262A JUMPI PUSH1 0x0 DUP1 REVERT JUMPDEST PUSH2 0x2636 DUP10 DUP4 DUP11 ADD PUSH2 0x1F95 JUMP JUMPDEST SWAP7 POP PUSH1 0x20 DUP9 ADD CALLDATALOAD SWAP2 POP DUP1 DUP3 GT ISZERO PUSH2 0x264C JUMPI PUSH1 0x0 DUP1 REVERT JUMPDEST PUSH2 0x2658 DUP10 DUP4 DUP11 ADD PUSH2 0x1F95 JUMP JUMPDEST SWAP6 POP PUSH1 0x40 DUP9 ADD CALLDATALOAD SWAP2 POP DUP1 DUP3 GT ISZERO PUSH2 0x266E JUMPI PUSH1 0x0 DUP1 REVERT JUMPDEST PUSH2 0x267A DUP10 DUP4 DUP11 ADD PUSH2 0x25A0 JUMP JUMPDEST SWAP5 POP PUSH1 0x60 DUP9 ADD CALLDATALOAD SWAP2 POP DUP1 DUP3 GT ISZERO PUSH2 0x209E JUMPI PUSH1 0x0 DUP1 REVERT JUMPDEST PUSH1 0x0 DUP2 SLOAD PUSH2 0x269D DUP2 PUSH2 0x22FC JUMP JUMPDEST PUSH1 0x1 DUP3 DUP2 AND DUP1 ISZERO PUSH2 0x26B5 JUMPI PUSH1 0x1 DUP2 EQ PUSH2 0x26CA JUMPI PUSH2 0x26F9 JUMP JUMPDEST PUSH1 0xFF NOT DUP5 AND DUP8 MSTORE DUP3 ISZERO ISZERO DUP4 MUL DUP8 ADD SWAP5 POP PUSH2 0x26F9 JUMP JUMPDEST DUP6 PUSH1 0x0 MSTORE PUSH1 0x20 DUP1 PUSH1 0x0 KECCAK256 PUSH1 0x0 JUMPDEST DUP6 DUP2 LT ISZERO PUSH2 0x26F0 JUMPI DUP2 SLOAD DUP11 DUP3 ADD MSTORE SWAP1 DUP5 ADD SWAP1 DUP3 ADD PUSH2 0x26D7 JUMP JUMPDEST POP POP POP DUP3 DUP8 ADD SWAP5 POP JUMPDEST POP POP POP POP SWAP3 SWAP2 POP POP JUMP JUMPDEST PUSH16 0x3D901139B2B1BA34B7B724B2111D1011 PUSH1 0x81 SHL DUP2 MSTORE DUP4 MLOAD PUSH1 0x0 SWAP1 PUSH2 0x272F DUP2 PUSH1 0x10 DUP6 ADD PUSH1 0x20 DUP10 ADD PUSH2 0x1CC1 JUMP JUMPDEST PUSH19 0x1116101139B2B1BA34B7B72730B6B2911D1011 PUSH1 0x69 SHL PUSH1 0x10 SWAP2 DUP5 ADD SWAP2 DUP3 ADD MSTORE PUSH2 0x275C PUSH1 0x23 DUP3 ADD DUP7 PUSH2 0x2690 JUMP JUMPDEST PUSH32 0x222C202273656374696F6E4465736372697074696F6E223A2022000000000000 DUP2 MSTORE PUSH20 0x1116101139B2B1BA34B7B724B6B0B3B2911D1011 PUSH1 0x61 SHL PUSH1 0x1A DUP3 ADD MSTORE SWAP1 POP PUSH2 0x27AB PUSH1 0x2E DUP3 ADD DUP6 PUSH2 0x2690 JUMP JUMPDEST PUSH16 0x222C20226368617074657273223A205B PUSH1 0x80 SHL DUP2 MSTORE PUSH1 0x10 ADD SWAP7 SWAP6 POP POP POP POP POP POP JUMP JUMPDEST PUSH1 0x0 DUP6 MLOAD PUSH2 0x27E0 DUP2 DUP5 PUSH1 0x20 DUP11 ADD PUSH2 0x1CC1 JUMP JUMPDEST PUSH16 0x3D901131B430B83A32B924B2111D1011 PUSH1 0x81 SHL SWAP1 DUP4 ADD SWAP1 DUP2 MSTORE DUP6 MLOAD PUSH2 0x280D DUP2 PUSH1 0x10 DUP5 ADD PUSH1 0x20 DUP11 ADD PUSH2 0x1CC1 JUMP JUMPDEST PUSH19 0x1116101131B430B83A32B92730B6B2911D1011 PUSH1 0x69 SHL PUSH1 0x10 SWAP3 SWAP1 SWAP2 ADD SWAP2 DUP3 ADD MSTORE PUSH2 0x283B PUSH1 0x23 DUP3 ADD DUP7 PUSH2 0x2690 JUMP JUMPDEST PUSH32 0x222C2022636861707465724465736372697074696F6E223A2022000000000000 DUP2 MSTORE PUSH20 0x1116101131B430B83A32B924B6B0B3B2911D1011 PUSH1 0x61 SHL PUSH1 0x1A DUP3 ADD MSTORE SWAP1 POP PUSH2 0x288A PUSH1 0x2E DUP3 ADD DUP6 PUSH2 0x2690 JUMP JUMPDEST PUSH13 0x222C20227061676573223A205B PUSH1 0x98 SHL DUP2 MSTORE PUSH1 0xD ADD SWAP8 SWAP7 POP POP POP POP POP POP POP JUMP JUMPDEST PUSH1 0x0 DUP6 MLOAD PUSH2 0x28BD DUP2 DUP5 PUSH1 0x20 DUP11 ADD PUSH2 0x1CC1 JUMP JUMPDEST PUSH13 0x3D90113830B3B2A4B2111D1011 PUSH1 0x99 SHL SWAP1 DUP4 ADD SWAP1 DUP2 MSTORE DUP6 MLOAD PUSH2 0x28E7 DUP2 PUSH1 0xD DUP5 ADD PUSH1 0x20 DUP11 ADD PUSH2 0x1CC1 JUMP JUMPDEST PUSH16 0x111610113830B3B2A730B6B2911D1011 PUSH1 0x81 SHL PUSH1 0xD SWAP3 SWAP1 SWAP2 ADD SWAP2 DUP3 ADD MSTORE PUSH2 0x2912 PUSH1 0x1D DUP3 ADD DUP7 PUSH2 0x2690 JUMP JUMPDEST PUSH19 0x111610113830B3B2A1B7B73A32B73A111D1011 PUSH1 0x69 SHL DUP2 MSTORE SWAP1 POP PUSH2 0x293A PUSH1 0x13 DUP3 ADD DUP6 PUSH2 0x2690 JUMP JUMPDEST PUSH2 0x227D PUSH1 0xF0 SHL DUP2 MSTORE PUSH1 0x2 ADD SWAP8 SWAP7 POP POP POP POP POP POP POP JUMP JUMPDEST DUP2 DUP2 SUB DUP2 DUP2 GT ISZERO PUSH2 0x441 JUMPI PUSH2 0x441 PUSH2 0x2336 JUMP JUMPDEST PUSH1 0x0 DUP3 MLOAD PUSH2 0x2975 DUP2 DUP5 PUSH1 0x20 DUP8 ADD PUSH2 0x1CC1 JUMP JUMPDEST PUSH1 0xB PUSH1 0xFA SHL SWAP3 ADD SWAP2 DUP3 MSTORE POP PUSH1 0x1 ADD SWAP2 SWAP1 POP JUMP JUMPDEST PUSH1 0x0 DUP4 MLOAD PUSH2 0x299A DUP2 DUP5 PUSH1 0x20 DUP9 ADD PUSH2 0x1CC1 JUMP JUMPDEST DUP4 MLOAD SWAP1 DUP4 ADD SWAP1 PUSH2 0x29AE DUP2 DUP4 PUSH1 0x20 DUP9 ADD PUSH2 0x1CC1 JUMP JUMPDEST PUSH1 0x5D PUSH1 0xF8 SHL SWAP2 ADD SWAP1 DUP2 MSTORE PUSH1 0x1 ADD SWAP5 SWAP4 POP POP POP POP JUMP JUMPDEST PUSH1 0x0 DUP4 MLOAD PUSH2 0x29D5 DUP2 DUP5 PUSH1 0x20 DUP9 ADD PUSH2 0x1CC1 JUMP JUMPDEST DUP4 MLOAD SWAP1 DUP4 ADD SWAP1 PUSH2 0x29E9 DUP2 DUP4 PUSH1 0x20 DUP9 ADD PUSH2 0x1CC1 JUMP JUMPDEST ADD SWAP5 SWAP4 POP POP POP POP JUMP JUMPDEST PUSH1 0x0 DUP3 MLOAD PUSH2 0x2A04 DUP2 DUP5 PUSH1 0x20 DUP8 ADD PUSH2 0x1CC1 JUMP JUMPDEST PUSH2 0x5D7D PUSH1 0xF0 SHL SWAP3 ADD SWAP2 DUP3 MSTORE POP PUSH1 0x2 ADD SWAP2 SWAP1 POP JUMP JUMPDEST PUSH1 0x20 DUP1 DUP3 MSTORE PUSH1 0x25 SWAP1 DUP3 ADD MSTORE PUSH32 0x4552433732313A207472616E736665722066726F6D20696E636F727265637420 PUSH1 0x40 DUP3 ADD MSTORE PUSH5 0x37BBB732B9 PUSH1 0xD9 SHL PUSH1 0x60 DUP3 ADD MSTORE PUSH1 0x80 ADD SWAP1 JUMP JUMPDEST PUSH1 0x20 DUP1 DUP3 MSTORE PUSH1 0x2B SWAP1 DUP3 ADD MSTORE PUSH32 0x496E697469616C697A61626C653A20636F6E7472616374206973206E6F742069 PUSH1 0x40 DUP3 ADD MSTORE PUSH11 0x6E697469616C697A696E67 PUSH1 0xA8 SHL PUSH1 0x60 DUP3 ADD MSTORE PUSH1 0x80 ADD SWAP1 JUMP JUMPDEST PUSH1 0x20 DUP1 DUP3 MSTORE PUSH1 0x32 SWAP1 DUP3 ADD MSTORE PUSH32 0x4552433732313A207472616E7366657220746F206E6F6E204552433732315265 PUSH1 0x40 DUP3 ADD MSTORE PUSH18 0x31B2B4BB32B91034B6B83632B6B2B73A32B9 PUSH1 0x71 SHL PUSH1 0x60 DUP3 ADD MSTORE PUSH1 0x80 ADD SWAP1 JUMP JUMPDEST PUSH4 0x4E487B71 PUSH1 0xE0 SHL PUSH1 0x0 MSTORE PUSH1 0x12 PUSH1 0x4 MSTORE PUSH1 0x24 PUSH1 0x0 REVERT JUMPDEST PUSH1 0x0 DUP3 PUSH2 0x2B1F JUMPI PUSH2 0x2B1F PUSH2 0x2AFA JUMP JUMPDEST POP DIV SWAP1 JUMP JUMPDEST PUSH1 0x0 DUP3 PUSH2 0x2B33 JUMPI PUSH2 0x2B33 PUSH2 0x2AFA JUMP JUMPDEST POP MOD SWAP1 JUMP JUMPDEST PUSH1 0xFF DUP2 DUP2 AND DUP4 DUP3 AND ADD SWAP1 DUP2 GT ISZERO PUSH2 0x441 JUMPI PUSH2 0x441 PUSH2 0x2336 JUMP JUMPDEST PUSH1 0x1 PUSH1 0x1 PUSH1 0xA0 SHL SUB DUP6 DUP2 AND DUP3 MSTORE DUP5 AND PUSH1 0x20 DUP3 ADD MSTORE PUSH1 0x40 DUP2 ADD DUP4 SWAP1 MSTORE PUSH1 0x80 PUSH1 0x60 DUP3 ADD DUP2 SWAP1 MSTORE PUSH1 0x0 SWAP1 PUSH2 0x1EAB SWAP1 DUP4 ADD DUP5 PUSH2 0x1CE5 JUMP JUMPDEST PUSH1 0x0 PUSH1 0x20 DUP3 DUP5 SUB SLT ISZERO PUSH2 0x2B96 JUMPI PUSH1 0x0 DUP1 REVERT JUMPDEST DUP2 MLOAD PUSH2 0x1CBA DUP2 PUSH2 0x1C87 JUMP INVALID LOG2 PUSH5 0x6970667358 0x22 SLT KECCAK256 DUP7 0xC6 0x4D 0xC0 0xAF DUP2 DUP9 0xC8 SWAP5 MSTORE8 SWAP1 CREATE2 SIGNEXTEND PUSH6 0xBC799EF0988F LOG0 0x4C 0xC1 JUMPI 0xAC 0xDC PUSH24 0xA35FA6E32B64736F6C634300081200330000000000000000 "},"methodIdentifiers":{"addChapter(string,string,uint256,string[],string[])":"5b92cc8a","addPage(uint256,string,string)":"0f1f0850","addSection(string,uint256,string,bytes)":"a240d4aa","approve(address,uint256)":"095ea7b3","balanceOf(address)":"70a08231","chapters(uint256)":"f40adb12","getApproved(uint256)":"081812fc","initialize(address,string,string)":"90657147","isApprovedForAll(address,address)":"e985e9c5","minterOwnedTokens(address,uint256)":"db010ae4","name()":"06fdde03","owner()":"8da5cb5b","ownerOf(uint256)":"6352211e","publicationAuthor()":"527c4165","publicationCoverImage()":"ccfea8f0","publicationName()":"86b4e2a0","renounceOwnership()":"715018a6","safeTransferFrom(address,address,uint256)":"42842e0e","safeTransferFrom(address,address,uint256,bytes)":"b88d4fde","sections(uint256)":"35603440","setApprovalForAll(address,bool)":"a22cb465","supportsInterface(bytes4)":"01ffc9a7","symbol()":"95d89b41","tokenIdToMinter(uint256)":"2218f119","tokenURI(uint256)":"c87b56dd","transferFrom(address,address,uint256)":"23b872dd","transferOwnership(address)":"f2fde38b"}}}}}