{"contracts/Publius.sol":{"Publius":{"abi":[{"anonymous":false,"inputs":[{"indexed":true,"internalType":"address","name":"owner","type":"address"},{"indexed":true,"internalType":"address","name":"approved","type":"address"},{"indexed":true,"internalType":"uint256","name":"tokenId","type":"uint256"}],"name":"Approval","type":"event"},{"anonymous":false,"inputs":[{"indexed":true,"internalType":"address","name":"owner","type":"address"},{"indexed":true,"internalType":"address","name":"operator","type":"address"},{"indexed":false,"internalType":"bool","name":"approved","type":"bool"}],"name":"ApprovalForAll","type":"event"},{"anonymous":false,"inputs":[{"indexed":false,"internalType":"uint8","name":"version","type":"uint8"}],"name":"Initialized","type":"event"},{"anonymous":false,"inputs":[{"indexed":true,"internalType":"address","name":"previousOwner","type":"address"},{"indexed":true,"internalType":"address","name":"newOwner","type":"address"}],"name":"OwnershipTransferred","type":"event"},{"anonymous":false,"inputs":[{"indexed":true,"internalType":"address","name":"from","type":"address"},{"indexed":true,"internalType":"address","name":"to","type":"address"},{"indexed":true,"internalType":"uint256","name":"tokenId","type":"uint256"}],"name":"Transfer","type":"event"},{"inputs":[{"internalType":"string","name":"_chapterName","type":"string"},{"internalType":"string","name":"_chapterImage","type":"string"},{"internalType":"uint256","name":"_chapterId","type":"uint256"},{"internalType":"string[]","name":"_pageNames","type":"string[]"},{"internalType":"string[]","name":"_pageContent","type":"string[]"}],"name":"addChapter","outputs":[],"stateMutability":"nonpayable","type":"function"},{"inputs":[{"internalType":"uint256","name":"_chapter","type":"uint256"},{"internalType":"string","name":"_pageName","type":"string"},{"internalType":"string","name":"_pageContent","type":"string"}],"name":"addPage","outputs":[],"stateMutability":"nonpayable","type":"function"},{"inputs":[{"internalType":"string","name":"_sectionName","type":"string"},{"internalType":"uint256","name":"_sectionId","type":"uint256"},{"internalType":"string","name":"_sectionImage","type":"string"},{"internalType":"bytes","name":"_chapterInfo","type":"bytes"}],"name":"addSection","outputs":[],"stateMutability":"nonpayable","type":"function"},{"inputs":[{"internalType":"address","name":"to","type":"address"},{"internalType":"uint256","name":"tokenId","type":"uint256"}],"name":"approve","outputs":[],"stateMutability":"nonpayable","type":"function"},{"inputs":[{"internalType":"address","name":"owner","type":"address"}],"name":"balanceOf","outputs":[{"internalType":"uint256","name":"","type":"uint256"}],"stateMutability":"view","type":"function"},{"inputs":[{"internalType":"uint256","name":"","type":"uint256"}],"name":"chapters","outputs":[{"internalType":"string","name":"chapterName","type":"string"},{"internalType":"uint256","name":"chapterId","type":"uint256"},{"internalType":"string","name":"chapterImage","type":"string"},{"internalType":"uint256","name":"pageCount","type":"uint256"}],"stateMutability":"view","type":"function"},{"inputs":[{"internalType":"uint256","name":"tokenId","type":"uint256"}],"name":"getApproved","outputs":[{"internalType":"address","name":"","type":"address"}],"stateMutability":"view","type":"function"},{"inputs":[{"internalType":"address","name":"_publicationAuthor","type":"address"},{"internalType":"string","name":"_publicationName","type":"string"},{"internalType":"string","name":"_publicationCoverImage","type":"string"}],"name":"initialize","outputs":[],"stateMutability":"nonpayable","type":"function"},{"inputs":[{"internalType":"address","name":"owner","type":"address"},{"internalType":"address","name":"operator","type":"address"}],"name":"isApprovedForAll","outputs":[{"internalType":"bool","name":"","type":"bool"}],"stateMutability":"view","type":"function"},{"inputs":[{"internalType":"uint256","name":"_amount","type":"uint256"}],"name":"mint","outputs":[],"stateMutability":"payable","type":"function"},{"inputs":[{"internalType":"address","name":"","type":"address"},{"internalType":"uint256","name":"","type":"uint256"}],"name":"minterOwnedTokens","outputs":[{"internalType":"uint256","name":"","type":"uint256"}],"stateMutability":"view","type":"function"},{"inputs":[],"name":"name","outputs":[{"internalType":"string","name":"","type":"string"}],"stateMutability":"view","type":"function"},{"inputs":[],"name":"owner","outputs":[{"internalType":"address","name":"","type":"address"}],"stateMutability":"view","type":"function"},{"inputs":[{"internalType":"uint256","name":"tokenId","type":"uint256"}],"name":"ownerOf","outputs":[{"internalType":"address","name":"","type":"address"}],"stateMutability":"view","type":"function"},{"inputs":[],"name":"publicationAuthor","outputs":[{"internalType":"address","name":"","type":"address"}],"stateMutability":"view","type":"function"},{"inputs":[],"name":"publicationCoverImage","outputs":[{"internalType":"string","name":"","type":"string"}],"stateMutability":"view","type":"function"},{"inputs":[],"name":"publicationName","outputs":[{"internalType":"string","name":"","type":"string"}],"stateMutability":"view","type":"function"},{"inputs":[],"name":"renounceOwnership","outputs":[],"stateMutability":"nonpayable","type":"function"},{"inputs":[{"internalType":"address","name":"from","type":"address"},{"internalType":"address","name":"to","type":"address"},{"internalType":"uint256","name":"tokenId","type":"uint256"}],"name":"safeTransferFrom","outputs":[],"stateMutability":"nonpayable","type":"function"},{"inputs":[{"internalType":"address","name":"from","type":"address"},{"internalType":"address","name":"to","type":"address"},{"internalType":"uint256","name":"tokenId","type":"uint256"},{"internalType":"bytes","name":"data","type":"bytes"}],"name":"safeTransferFrom","outputs":[],"stateMutability":"nonpayable","type":"function"},{"inputs":[{"internalType":"uint256","name":"","type":"uint256"}],"name":"sections","outputs":[{"internalType":"string","name":"sectionName","type":"string"},{"internalType":"uint256","name":"sectionId","type":"uint256"},{"internalType":"string","name":"sectionImage","type":"string"}],"stateMutability":"view","type":"function"},{"inputs":[{"internalType":"address","name":"operator","type":"address"},{"internalType":"bool","name":"approved","type":"bool"}],"name":"setApprovalForAll","outputs":[],"stateMutability":"nonpayable","type":"function"},{"inputs":[{"internalType":"bytes4","name":"interfaceId","type":"bytes4"}],"name":"supportsInterface","outputs":[{"internalType":"bool","name":"","type":"bool"}],"stateMutability":"view","type":"function"},{"inputs":[],"name":"symbol","outputs":[{"internalType":"string","name":"","type":"string"}],"stateMutability":"view","type":"function"},{"inputs":[{"internalType":"uint256","name":"index","type":"uint256"}],"name":"tokenByIndex","outputs":[{"internalType":"uint256","name":"","type":"uint256"}],"stateMutability":"view","type":"function"},{"inputs":[{"internalType":"uint256","name":"","type":"uint256"}],"name":"tokenIdToMinter","outputs":[{"internalType":"address","name":"","type":"address"}],"stateMutability":"view","type":"function"},{"inputs":[{"internalType":"address","name":"owner","type":"address"},{"internalType":"uint256","name":"index","type":"uint256"}],"name":"tokenOfOwnerByIndex","outputs":[{"internalType":"uint256","name":"","type":"uint256"}],"stateMutability":"view","type":"function"},{"inputs":[{"internalType":"uint256","name":"tokenId","type":"uint256"}],"name":"tokenURI","outputs":[{"internalType":"string","name":"","type":"string"}],"stateMutability":"view","type":"function"},{"inputs":[],"name":"totalSupply","outputs":[{"internalType":"uint256","name":"","type":"uint256"}],"stateMutability":"view","type":"function"},{"inputs":[{"internalType":"address","name":"from","type":"address"},{"internalType":"address","name":"to","type":"address"},{"internalType":"uint256","name":"tokenId","type":"uint256"}],"name":"transferFrom","outputs":[],"stateMutability":"nonpayable","type":"function"},{"inputs":[{"internalType":"address","name":"newOwner","type":"address"}],"name":"transferOwnership","outputs":[],"stateMutability":"nonpayable","type":"function"}],"evm":{"bytecode":{"linkReferences":{},"object":"608060405234801561001057600080fd5b50613458806100206000396000f3fe6080604052600436106101d85760003560e01c806370a0823111610102578063a240d4aa11610095578063db010ae411610064578063db010ae414610558578063e985e9c514610578578063f2fde38b146105c1578063f40adb12146105e157600080fd5b8063a240d4aa146104e3578063b88d4fde14610503578063c87b56dd14610523578063ccfea8f01461054357600080fd5b806390657147116100d1578063906571471461047b57806395d89b411461049b578063a0712d68146104b0578063a22cb465146104c357600080fd5b806370a0823114610413578063715018a61461043357806386b4e2a0146104485780638da5cb5b1461045d57600080fd5b806323b872dd1161017a5780634f6ccce7116101495780634f6ccce714610392578063527c4165146103b25780635b92cc8a146103d35780636352211e146103f357600080fd5b806323b872dd146103035780632f745c5914610323578063356034401461034357806342842e0e1461037257600080fd5b8063095ea7b3116101b6578063095ea7b31461026c5780630f1f08501461028e57806318160ddd146102ae5780632218f119146102cd57600080fd5b806301ffc9a7146101dd57806306fdde0314610212578063081812fc14610234575b600080fd5b3480156101e957600080fd5b506101fd6101f836600461253e565b610611565b60405190151581526020015b60405180910390f35b34801561021e57600080fd5b5061022761063c565b60405161020991906125b2565b34801561024057600080fd5b5061025461024f3660046125c5565b6106ce565b6040516001600160a01b039091168152602001610209565b34801561027857600080fd5b5061028c6102873660046125fa565b6106f5565b005b34801561029a57600080fd5b5061028c6102a936600461266c565b61080f565b3480156102ba57600080fd5b506099545b604051908152602001610209565b3480156102d957600080fd5b506102546102e83660046125c5565b60fb602052600090815260409020546001600160a01b031681565b34801561030f57600080fd5b5061028c61031e3660046126e5565b610930565b34801561032f57600080fd5b506102bf61033e3660046125fa565b610961565b34801561034f57600080fd5b5061036361035e3660046125c5565b6109f7565b60405161020993929190612721565b34801561037e57600080fd5b5061028c61038d3660046126e5565b610b29565b34801561039e57600080fd5b506102bf6103ad3660046125c5565b610b44565b3480156103be57600080fd5b5061010054610254906001600160a01b031681565b3480156103df57600080fd5b5061028c6103ee3660046128c5565b610bd7565b3480156103ff57600080fd5b5061025461040e3660046125c5565b610d3f565b34801561041f57600080fd5b506102bf61042e36600461297b565b610d9f565b34801561043f57600080fd5b5061028c610e25565b34801561045457600080fd5b50610227610e39565b34801561046957600080fd5b5060c9546001600160a01b0316610254565b34801561048757600080fd5b5061028c610496366004612996565b610ec7565b3480156104a757600080fd5b506102276110fb565b61028c6104be3660046125c5565b61110a565b3480156104cf57600080fd5b5061028c6104de3660046129d3565b6111de565b3480156104ef57600080fd5b5061028c6104fe366004612a0f565b6111e9565b34801561050f57600080fd5b5061028c61051e366004612ab2565b61130f565b34801561052f57600080fd5b5061022761053e3660046125c5565b611347565b34801561054f57600080fd5b506102276116da565b34801561056457600080fd5b506102bf6105733660046125fa565b6116e8565b34801561058457600080fd5b506101fd610593366004612b2d565b6001600160a01b039182166000908152606a6020908152604080832093909416825291909152205460ff1690565b3480156105cd57600080fd5b5061028c6105dc36600461297b565b611719565b3480156105ed57600080fd5b506106016105fc3660046125c5565b611792565b6040516102099493929190612b60565b60006001600160e01b0319821663780e9d6360e01b14806106365750610636826118ca565b92915050565b60606065805461064b90612b9d565b80601f016020809104026020016040519081016040528092919081815260200182805461067790612b9d565b80156106c45780601f10610699576101008083540402835291602001916106c4565b820191906000526020600020905b8154815290600101906020018083116106a757829003601f168201915b5050505050905090565b60006106d98261191a565b506000908152606960205260409020546001600160a01b031690565b600061070082610d3f565b9050806001600160a01b0316836001600160a01b0316036107725760405162461bcd60e51b815260206004820152602160248201527f4552433732313a20617070726f76616c20746f2063757272656e74206f776e656044820152603960f91b60648201526084015b60405180910390fd5b336001600160a01b038216148061078e575061078e8133610593565b6108005760405162461bcd60e51b815260206004820152603d60248201527f4552433732313a20617070726f76652063616c6c6572206973206e6f7420746f60448201527f6b656e206f776e6572206f7220617070726f76656420666f7220616c6c0000006064820152608401610769565b61080a8383611979565b505050565b6108176119e7565b600085815260fe602090815260409182902082516080601f880184900490930281018301909352606083018681529092918291908890889081908501838280828437600092019190915250505090825250600483015460209091019061087e906001612bed565b815260200184848080601f016020809104026020016040519081016040528093929190818152602001838380828437600092018290525093909452505060048401546003850192506108d1906001612bed565b81526020810191909152604001600020815181906108ef9082612c46565b50602082015160018201556040820151600282019061090e9082612c46565b50505060048101805490600061092383612d05565b9190505550505050505050565b61093a3382611a41565b6109565760405162461bcd60e51b815260040161076990612d1e565b61080a838383611ac0565b600061096c83610d9f565b82106109ce5760405162461bcd60e51b815260206004820152602b60248201527f455243373231456e756d657261626c653a206f776e657220696e646578206f7560448201526a74206f6620626f756e647360a81b6064820152608401610769565b506001600160a01b03919091166000908152609760209081526040808320938352929052205490565b60fd60205260009081526040902080548190610a1290612b9d565b80601f0160208091040260200160405190810160405280929190818152602001828054610a3e90612b9d565b8015610a8b5780601f10610a6057610100808354040283529160200191610a8b565b820191906000526020600020905b815481529060010190602001808311610a6e57829003601f168201915b505050505090806001015490806002018054610aa690612b9d565b80601f0160208091040260200160405190810160405280929190818152602001828054610ad290612b9d565b8015610b1f5780601f10610af457610100808354040283529160200191610b1f565b820191906000526020600020905b815481529060010190602001808311610b0257829003601f168201915b5050505050905083565b61080a8383836040518060200160405280600081525061130f565b6000610b4f60995490565b8210610bb25760405162461bcd60e51b815260206004820152602c60248201527f455243373231456e756d657261626c653a20676c6f62616c20696e646578206f60448201526b7574206f6620626f756e647360a01b6064820152608401610769565b60998281548110610bc557610bc5612d6b565b90600052602060002001549050919050565b610bdf6119e7565b600083815260fe60205260408120905b8351811015610cce576040518060600160405280858381518110610c1557610c15612d6b565b60200260200101518152602001826001610c2f9190612bed565b8152602001848381518110610c4657610c46612d6b565b6020026020010151815250826003016000836001610c649190612bed565b8152602081019190915260400160002081518190610c829082612c46565b506020820151600182015560408201516002820190610ca19082612c46565b505050600482018054906000610cb683612d05565b91905055508080610cc690612d05565b915050610bef565b5080610cda8782612c46565b5060018101849055604051610cf39086906020016125b2565b60405160208183030381529060405280519060200120600003610d255760405180602001604052806000815250610d27565b845b6002820190610d369082612c46565b50505050505050565b6000818152606760205260408120546001600160a01b0316806106365760405162461bcd60e51b8152602060048201526018602482015277115490cdcc8c4e881a5b9d985b1a59081d1bdad95b88125160421b6044820152606401610769565b60006001600160a01b038216610e095760405162461bcd60e51b815260206004820152602960248201527f4552433732313a2061646472657373207a65726f206973206e6f7420612076616044820152683634b21037bbb732b960b91b6064820152608401610769565b506001600160a01b031660009081526068602052604090205490565b610e2d6119e7565b610e376000611c31565b565b60ff8054610e4690612b9d565b80601f0160208091040260200160405190810160405280929190818152602001828054610e7290612b9d565b8015610ebf5780601f10610e9457610100808354040283529160200191610ebf565b820191906000526020600020905b815481529060010190602001808311610ea257829003601f168201915b505050505081565b600054610100900460ff1615808015610ee75750600054600160ff909116105b80610f015750303b158015610f01575060005460ff166001145b610f645760405162461bcd60e51b815260206004820152602e60248201527f496e697469616c697a61626c653a20636f6e747261637420697320616c72656160448201526d191e481a5b9a5d1a585b1a5e995960921b6064820152608401610769565b6000805460ff191660011790558015610f87576000805461ff0019166101001790555b61010054604080516001600160a01b03909216602083015201604051602081830303815290604052805190602001206000036110055760405162461bcd60e51b815260206004820181905260248201527f43616e6e6f7420496e697469616c697a65206d6f7265207468616e206f6e63656044820152606401610769565b61106385858080601f016020809104026020016040519081016040528093929190818152602001838380828437600092019190915250506040805180820190915260078152665055424c49555360c81b60208201529150611c839050565b61106b611cb4565b61107486611719565b60ff611081858783612d81565b5061010080546001600160a01b0319166001600160a01b0388161790556101016110ac838583612d81565b5080156110f3576000805461ff0019169055604051600181527f7f26b83ff96e1f2b6a682f133852f6798a09c465da95921460cefb38474024989060200160405180910390a15b505050505050565b60606066805461064b90612b9d565b61111b81662386f26fc10000612e40565b3410156111605760405162461bcd60e51b8152602060048201526013602482015272139bdd08195b9bdd59da08115512081cd95b9d606a1b6044820152606401610769565b60005b818110156111da57600061117660995490565b611181906001612bed565b905061118d3382611ce3565b600081815260fb6020908152604080832080546001600160a01b03191633908117909155835260fc82528220805460018101825590835291200155806111d281612d05565b915050611163565b5050565b6111da338383611e7c565b6111f16119e7565b60008080808061120386880188612eb2565b60008f815260fd60205260409020949950929750909550935091506112298c8e83612d81565b5060008a815260fd60205260409020600181018b905560020161124d898b83612d81565b5060008a815260fd602090815260409091208451611273926003909201918601906124c8565b5060005b85518110156112ea576112d886828151811061129557611295612d6b565b60200260200101518683815181106112af576112af612d6b565b60200260200101518684815181106112c9576112c9612d6b565b60200260200101518686610bd7565b806112e281612d05565b915050611277565b5061010280549060006112fc83612d05565b9190505550505050505050505050505050565b6113193383611a41565b6113355760405162461bcd60e51b815260040161076990612d1e565b61134184848484611f4a565b50505050565b6000818152606760205260409020546060906001600160a01b03166113c65760405162461bcd60e51b815260206004820152602f60248201527f4552433732314d657461646174613a2055524920717565727920666f72206e6f60448201526e3732bc34b9ba32b73a103a37b5b2b760891b6064820152608401610769565b60408051808201909152600f81526e7b202253656374696f6e73223a205b60881b602082015260005b6101025481101561168557600081815260fd60205260408120600181015490919061141990611f7d565b604051611430919084906002820190602001612fba565b60408051601f198184030181526020830190915260008083529092505b60038401548110156115ec57600060fe600086600301848154811061147457611474612d6b565b9060005260206000200154815260200190815260200160002090508261149d8260010154611f7d565b6040516114b59291908490600282019060200161305f565b60408051601f198184030181526020830190915260008083529094505b82600401548110156115755760008181526003840160205260409020600181015483906114fe90611f7d565b60405161151692919084906002820190602001613116565b60405160208183030381529060405292506001846004015461153891906131bb565b821015611562578260405160200161155091906131ce565b60405160208183030381529060405292505b508061156d81612d05565b9150506114d2565b5083816040516020016115899291906131f3565b60408051601f1981840301815291905260038701549094506115ad906001906131bb565b8310156115d757836040516020016115c591906131ce565b60405160208183030381529060405293505b505080806115e490612d05565b91505061144d565b5081816040516020016116009291906131f3565b6040516020818303038152906040529150848260405160200161162492919061322e565b604051602081830303815290604052945060016101025461164591906131bb565b84101561166f578460405160200161165d91906131ce565b60405160208183030381529060405294505b505050808061167d90612d05565b9150506113ef565b5080604051602001611697919061325d565b60408051808303601f19018152602080840183526000845291519093506116c291839185910161322e565b60405160208183030381529060405292505050919050565b6101018054610e4690612b9d565b60fc602052816000526040600020818154811061170457600080fd5b90600052602060002001600091509150505481565b6117216119e7565b6001600160a01b0381166117865760405162461bcd60e51b815260206004820152602660248201527f4f776e61626c653a206e6577206f776e657220697320746865207a65726f206160448201526564647265737360d01b6064820152608401610769565b61178f81611c31565b50565b60fe602052600090815260409020805481906117ad90612b9d565b80601f01602080910402602001604051908101604052809291908181526020018280546117d990612b9d565b80156118265780601f106117fb57610100808354040283529160200191611826565b820191906000526020600020905b81548152906001019060200180831161180957829003601f168201915b50505050509080600101549080600201805461184190612b9d565b80601f016020809104026020016040519081016040528092919081815260200182805461186d90612b9d565b80156118ba5780601f1061188f576101008083540402835291602001916118ba565b820191906000526020600020905b81548152906001019060200180831161189d57829003601f168201915b5050505050908060040154905084565b60006001600160e01b031982166380ac58cd60e01b14806118fb57506001600160e01b03198216635b5e139f60e01b145b8061063657506301ffc9a760e01b6001600160e01b0319831614610636565b6000818152606760205260409020546001600160a01b031661178f5760405162461bcd60e51b8152602060048201526018602482015277115490cdcc8c4e881a5b9d985b1a59081d1bdad95b88125160421b6044820152606401610769565b600081815260696020526040902080546001600160a01b0319166001600160a01b03841690811790915581906119ae82610d3f565b6001600160a01b03167f8c5be1e5ebec7d5bd14f71427d1e84f3dd0314c0f7b2291e5b200ac8c7c3b92560405160405180910390a45050565b60c9546001600160a01b03163314610e375760405162461bcd60e51b815260206004820181905260248201527f4f776e61626c653a2063616c6c6572206973206e6f7420746865206f776e65726044820152606401610769565b600080611a4d83610d3f565b9050806001600160a01b0316846001600160a01b03161480611a9457506001600160a01b038082166000908152606a602090815260408083209388168352929052205460ff165b80611ab85750836001600160a01b0316611aad846106ce565b6001600160a01b0316145b949350505050565b826001600160a01b0316611ad382610d3f565b6001600160a01b031614611af95760405162461bcd60e51b815260040161076990613283565b6001600160a01b038216611b5b5760405162461bcd60e51b8152602060048201526024808201527f4552433732313a207472616e7366657220746f20746865207a65726f206164646044820152637265737360e01b6064820152608401610769565b611b688383836001612093565b826001600160a01b0316611b7b82610d3f565b6001600160a01b031614611ba15760405162461bcd60e51b815260040161076990613283565b600081815260696020908152604080832080546001600160a01b03199081169091556001600160a01b0387811680865260688552838620805460001901905590871680865283862080546001019055868652606790945282852080549092168417909155905184937fddf252ad1be2c89b69c2b068fc378daa952ba7f163c4a11628f55a4df523b3ef91a4505050565b60c980546001600160a01b038381166001600160a01b0319831681179093556040519116919082907f8be0079c531659141344cd1fd0a4f28419497f9722a3daafe3b4186f6b6457e090600090a35050565b600054610100900460ff16611caa5760405162461bcd60e51b8152600401610769906132c8565b6111da82826121c7565b600054610100900460ff16611cdb5760405162461bcd60e51b8152600401610769906132c8565b610e37612207565b6001600160a01b038216611d395760405162461bcd60e51b815260206004820181905260248201527f4552433732313a206d696e7420746f20746865207a65726f20616464726573736044820152606401610769565b6000818152606760205260409020546001600160a01b031615611d9e5760405162461bcd60e51b815260206004820152601c60248201527f4552433732313a20746f6b656e20616c7265616479206d696e746564000000006044820152606401610769565b611dac600083836001612093565b6000818152606760205260409020546001600160a01b031615611e115760405162461bcd60e51b815260206004820152601c60248201527f4552433732313a20746f6b656e20616c7265616479206d696e746564000000006044820152606401610769565b6001600160a01b038216600081815260686020908152604080832080546001019055848352606790915280822080546001600160a01b0319168417905551839291907fddf252ad1be2c89b69c2b068fc378daa952ba7f163c4a11628f55a4df523b3ef908290a45050565b816001600160a01b0316836001600160a01b031603611edd5760405162461bcd60e51b815260206004820152601960248201527f4552433732313a20617070726f766520746f2063616c6c6572000000000000006044820152606401610769565b6001600160a01b038381166000818152606a6020908152604080832094871680845294825291829020805460ff191686151590811790915591519182527f17307eab39ab6107e8899845ad3d59bd9653f200f220920489ca2b5937696c31910160405180910390a3505050565b611f55848484611ac0565b611f6184848484612237565b6113415760405162461bcd60e51b815260040161076990613313565b606081600003611fa45750506040805180820190915260018152600360fc1b602082015290565b8160005b8115611fce5780611fb881612d05565b9150611fc79050600a8361337b565b9150611fa8565b6000816001600160401b03811115611fe857611fe8612756565b6040519080825280601f01601f191660200182016040528015612012576020820181803683370190505b509050815b851561208a576120286001826131bb565b90506000612037600a8861338f565b6120429060306133a3565b905060008160f81b90508084848151811061205f5761205f612d6b565b60200101906001600160f81b031916908160001a905350612081600a8961337b565b97505050612017565b50949350505050565b60018111156121025760405162461bcd60e51b815260206004820152603560248201527f455243373231456e756d657261626c653a20636f6e7365637574697665207472604482015274185b9cd9995c9cc81b9bdd081cdd5c1c1bdc9d1959605a1b6064820152608401610769565b816001600160a01b03851661215e5761215981609980546000838152609a60205260408120829055600182018355919091527f72a152ddfb8e864297c917af52ea6c1c68aead0fee1a62673fcc7e0c94979d000155565b612181565b836001600160a01b0316856001600160a01b031614612181576121818582612338565b6001600160a01b03841661219d57612198816123d5565b6121c0565b846001600160a01b0316846001600160a01b0316146121c0576121c08482612484565b5050505050565b600054610100900460ff166121ee5760405162461bcd60e51b8152600401610769906132c8565b60656121fa8382612c46565b50606661080a8282612c46565b600054610100900460ff1661222e5760405162461bcd60e51b8152600401610769906132c8565b610e3733611c31565b60006001600160a01b0384163b1561232d57604051630a85bd0160e11b81526001600160a01b0385169063150b7a029061227b9033908990889088906004016133bc565b6020604051808303816000875af19250505080156122b6575060408051601f3d908101601f191682019092526122b3918101906133ef565b60015b612313573d8080156122e4576040519150601f19603f3d011682016040523d82523d6000602084013e6122e9565b606091505b50805160000361230b5760405162461bcd60e51b815260040161076990613313565b805181602001fd5b6001600160e01b031916630a85bd0160e11b149050611ab8565b506001949350505050565b6000600161234584610d9f565b61234f91906131bb565b6000838152609860205260409020549091508082146123a2576001600160a01b03841660009081526097602090815260408083208584528252808320548484528184208190558352609890915290208190555b5060009182526098602090815260408084208490556001600160a01b039094168352609781528383209183525290812055565b6099546000906123e7906001906131bb565b6000838152609a60205260408120546099805493945090928490811061240f5761240f612d6b565b90600052602060002001549050806099838154811061243057612430612d6b565b6000918252602080832090910192909255828152609a909152604080822084905585825281205560998054806124685761246861340c565b6001900381819060005260206000200160009055905550505050565b600061248f83610d9f565b6001600160a01b039093166000908152609760209081526040808320868452825280832085905593825260989052919091209190915550565b828054828255906000526020600020908101928215612503579160200282015b828111156125035782518255916020019190600101906124e8565b5061250f929150612513565b5090565b5b8082111561250f5760008155600101612514565b6001600160e01b03198116811461178f57600080fd5b60006020828403121561255057600080fd5b813561255b81612528565b9392505050565b60005b8381101561257d578181015183820152602001612565565b50506000910152565b6000815180845261259e816020860160208601612562565b601f01601f19169290920160200192915050565b60208152600061255b6020830184612586565b6000602082840312156125d757600080fd5b5035919050565b80356001600160a01b03811681146125f557600080fd5b919050565b6000806040838503121561260d57600080fd5b612616836125de565b946020939093013593505050565b60008083601f84011261263657600080fd5b5081356001600160401b0381111561264d57600080fd5b60208301915083602082850101111561266557600080fd5b9250929050565b60008060008060006060868803121561268457600080fd5b8535945060208601356001600160401b03808211156126a257600080fd5b6126ae89838a01612624565b909650945060408801359150808211156126c757600080fd5b506126d488828901612624565b969995985093965092949392505050565b6000806000606084860312156126fa57600080fd5b612703846125de565b9250612711602085016125de565b9150604084013590509250925092565b6060815260006127346060830186612586565b846020840152828103604084015261274c8185612586565b9695505050505050565b634e487b7160e01b600052604160045260246000fd5b604051601f8201601f191681016001600160401b038111828210171561279457612794612756565b604052919050565b60006001600160401b038311156127b5576127b5612756565b6127c8601f8401601f191660200161276c565b90508281528383830111156127dc57600080fd5b828260208301376000602084830101529392505050565b600082601f83011261280457600080fd5b61255b8383356020850161279c565b60006001600160401b0382111561282c5761282c612756565b5060051b60200190565b600082601f83011261284757600080fd5b8135602061285c61285783612813565b61276c565b82815260059290921b8401810191818101908684111561287b57600080fd5b8286015b848110156128ba5780356001600160401b0381111561289e5760008081fd5b6128ac8986838b01016127f3565b84525091830191830161287f565b509695505050505050565b600080600080600060a086880312156128dd57600080fd5b85356001600160401b03808211156128f457600080fd5b61290089838a016127f3565b9650602088013591508082111561291657600080fd5b61292289838a016127f3565b955060408801359450606088013591508082111561293f57600080fd5b61294b89838a01612836565b9350608088013591508082111561296157600080fd5b5061296e88828901612836565b9150509295509295909350565b60006020828403121561298d57600080fd5b61255b826125de565b6000806000806000606086880312156129ae57600080fd5b6129b7866125de565b945060208601356001600160401b03808211156126a257600080fd5b600080604083850312156129e657600080fd5b6129ef836125de565b915060208301358015158114612a0457600080fd5b809150509250929050565b60008060008060008060006080888a031215612a2a57600080fd5b87356001600160401b0380821115612a4157600080fd5b612a4d8b838c01612624565b909950975060208a0135965060408a0135915080821115612a6d57600080fd5b612a798b838c01612624565b909650945060608a0135915080821115612a9257600080fd5b50612a9f8a828b01612624565b989b979a50959850939692959293505050565b60008060008060808587031215612ac857600080fd5b612ad1856125de565b9350612adf602086016125de565b92506040850135915060608501356001600160401b03811115612b0157600080fd5b8501601f81018713612b1257600080fd5b612b218782356020840161279c565b91505092959194509250565b60008060408385031215612b4057600080fd5b612b49836125de565b9150612b57602084016125de565b90509250929050565b608081526000612b736080830187612586565b8560208401528281036040840152612b8b8186612586565b91505082606083015295945050505050565b600181811c90821680612bb157607f821691505b602082108103612bd157634e487b7160e01b600052602260045260246000fd5b50919050565b634e487b7160e01b600052601160045260246000fd5b8082018082111561063657610636612bd7565b601f82111561080a57600081815260208120601f850160051c81016020861015612c275750805b601f850160051c820191505b818110156110f357828155600101612c33565b81516001600160401b03811115612c5f57612c5f612756565b612c7381612c6d8454612b9d565b84612c00565b602080601f831160018114612ca85760008415612c905750858301515b600019600386901b1c1916600185901b1785556110f3565b600085815260208120601f198616915b82811015612cd757888601518255948401946001909101908401612cb8565b5085821015612cf55787850151600019600388901b60f8161c191681555b5050505050600190811b01905550565b600060018201612d1757612d17612bd7565b5060010190565b6020808252602d908201527f4552433732313a2063616c6c6572206973206e6f7420746f6b656e206f776e6560408201526c1c881bdc88185c1c1c9bdd9959609a1b606082015260800190565b634e487b7160e01b600052603260045260246000fd5b6001600160401b03831115612d9857612d98612756565b612dac83612da68354612b9d565b83612c00565b6000601f841160018114612de05760008515612dc85750838201355b600019600387901b1c1916600186901b1783556121c0565b600083815260209020601f19861690835b82811015612e115786850135825560209485019460019092019101612df1565b5086821015612e2e5760001960f88860031b161c19848701351681555b505060018560011b0183555050505050565b808202811582820484141761063657610636612bd7565b600082601f830112612e6857600080fd5b81356020612e7861285783612813565b82815260059290921b84018101918181019086841115612e9757600080fd5b8286015b848110156128ba5780358352918301918301612e9b565b600080600080600060a08688031215612eca57600080fd5b85356001600160401b0380821115612ee157600080fd5b612eed89838a01612836565b96506020880135915080821115612f0357600080fd5b612f0f89838a01612836565b95506040880135915080821115612f2557600080fd5b612f3189838a01612e57565b9450606088013591508082111561293f57600080fd5b60008154612f5481612b9d565b60018281168015612f6c5760018114612f8157612fb0565b60ff1984168752821515830287019450612fb0565b8560005260208060002060005b85811015612fa75781548a820152908401908201612f8e565b50505082870194505b5050505092915050565b6f3d901139b2b1ba34b7b724b2111d101160811b81528351600090612fe6816010850160208901612562565b721116101139b2b1ba34b7b72730b6b2911d101160691b6010918401918201526130136023820186612f47565b731116101139b2b1ba34b7b724b6b0b3b2911d101160611b8152905061303c6014820185612f47565b6f222c20226368617074657273223a205b60801b81526010019695505050505050565b60008551613071818460208a01612562565b6f3d901131b430b83a32b924b2111d101160811b908301908152855161309e816010840160208a01612562565b721116101131b430b83a32b92730b6b2911d101160691b601092909101918201526130cc6023820186612f47565b731116101131b430b83a32b924b6b0b3b2911d101160611b815290506130f56014820185612f47565b6c222c20227061676573223a205b60981b8152600d01979650505050505050565b60008551613128818460208a01612562565b6c3d90113830b3b2a4b2111d101160991b908301908152855161315281600d840160208a01612562565b6f111610113830b3b2a730b6b2911d101160811b600d929091019182015261317d601d820186612f47565b72111610113830b3b2a1b7b73a32b73a111d101160691b815290506131a56013820185612f47565b61227d60f01b8152600201979650505050505050565b8181038181111561063657610636612bd7565b600082516131e0818460208701612562565b600b60fa1b920191825250600101919050565b60008351613205818460208801612562565b835190830190613219818360208801612562565b605d60f81b9101908152600101949350505050565b60008351613240818460208801612562565b835190830190613254818360208801612562565b01949350505050565b6000825161326f818460208701612562565b615d7d60f01b920191825250600201919050565b60208082526025908201527f4552433732313a207472616e736665722066726f6d20696e636f72726563742060408201526437bbb732b960d91b606082015260800190565b6020808252602b908201527f496e697469616c697a61626c653a20636f6e7472616374206973206e6f74206960408201526a6e697469616c697a696e6760a81b606082015260800190565b60208082526032908201527f4552433732313a207472616e7366657220746f206e6f6e20455243373231526560408201527131b2b4bb32b91034b6b83632b6b2b73a32b960711b606082015260800190565b634e487b7160e01b600052601260045260246000fd5b60008261338a5761338a613365565b500490565b60008261339e5761339e613365565b500690565b60ff818116838216019081111561063657610636612bd7565b6001600160a01b038581168252841660208201526040810183905260806060820181905260009061274c90830184612586565b60006020828403121561340157600080fd5b815161255b81612528565b634e487b7160e01b600052603160045260246000fdfea26469706673582212207aa3119948350f8392a40be5499b9e00c0f793008667eefac3d9880c88f1724764736f6c63430008120033","opcodes":"PUSH1 0x80 PUSH1 0x40 MSTORE CALLVALUE DUP1 ISZERO PUSH2 0x10 JUMPI PUSH1 0x0 DUP1 REVERT JUMPDEST POP PUSH2 0x3458 DUP1 PUSH2 0x20 PUSH1 0x0 CODECOPY PUSH1 0x0 RETURN INVALID PUSH1 0x80 PUSH1 0x40 MSTORE PUSH1 0x4 CALLDATASIZE LT PUSH2 0x1D8 JUMPI PUSH1 0x0 CALLDATALOAD PUSH1 0xE0 SHR DUP1 PUSH4 0x70A08231 GT PUSH2 0x102 JUMPI DUP1 PUSH4 0xA240D4AA GT PUSH2 0x95 JUMPI DUP1 PUSH4 0xDB010AE4 GT PUSH2 0x64 JUMPI DUP1 PUSH4 0xDB010AE4 EQ PUSH2 0x558 JUMPI DUP1 PUSH4 0xE985E9C5 EQ PUSH2 0x578 JUMPI DUP1 PUSH4 0xF2FDE38B EQ PUSH2 0x5C1 JUMPI DUP1 PUSH4 0xF40ADB12 EQ PUSH2 0x5E1 JUMPI PUSH1 0x0 DUP1 REVERT JUMPDEST DUP1 PUSH4 0xA240D4AA EQ PUSH2 0x4E3 JUMPI DUP1 PUSH4 0xB88D4FDE EQ PUSH2 0x503 JUMPI DUP1 PUSH4 0xC87B56DD EQ PUSH2 0x523 JUMPI DUP1 PUSH4 0xCCFEA8F0 EQ PUSH2 0x543 JUMPI PUSH1 0x0 DUP1 REVERT JUMPDEST DUP1 PUSH4 0x90657147 GT PUSH2 0xD1 JUMPI DUP1 PUSH4 0x90657147 EQ PUSH2 0x47B JUMPI DUP1 PUSH4 0x95D89B41 EQ PUSH2 0x49B JUMPI DUP1 PUSH4 0xA0712D68 EQ PUSH2 0x4B0 JUMPI DUP1 PUSH4 0xA22CB465 EQ PUSH2 0x4C3 JUMPI PUSH1 0x0 DUP1 REVERT JUMPDEST DUP1 PUSH4 0x70A08231 EQ PUSH2 0x413 JUMPI DUP1 PUSH4 0x715018A6 EQ PUSH2 0x433 JUMPI DUP1 PUSH4 0x86B4E2A0 EQ PUSH2 0x448 JUMPI DUP1 PUSH4 0x8DA5CB5B EQ PUSH2 0x45D JUMPI PUSH1 0x0 DUP1 REVERT JUMPDEST DUP1 PUSH4 0x23B872DD GT PUSH2 0x17A JUMPI DUP1 PUSH4 0x4F6CCCE7 GT PUSH2 0x149 JUMPI DUP1 PUSH4 0x4F6CCCE7 EQ PUSH2 0x392 JUMPI DUP1 PUSH4 0x527C4165 EQ PUSH2 0x3B2 JUMPI DUP1 PUSH4 0x5B92CC8A EQ PUSH2 0x3D3 JUMPI DUP1 PUSH4 0x6352211E EQ PUSH2 0x3F3 JUMPI PUSH1 0x0 DUP1 REVERT JUMPDEST DUP1 PUSH4 0x23B872DD EQ PUSH2 0x303 JUMPI DUP1 PUSH4 0x2F745C59 EQ PUSH2 0x323 JUMPI DUP1 PUSH4 0x35603440 EQ PUSH2 0x343 JUMPI DUP1 PUSH4 0x42842E0E EQ PUSH2 0x372 JUMPI PUSH1 0x0 DUP1 REVERT JUMPDEST DUP1 PUSH4 0x95EA7B3 GT PUSH2 0x1B6 JUMPI DUP1 PUSH4 0x95EA7B3 EQ PUSH2 0x26C JUMPI DUP1 PUSH4 0xF1F0850 EQ PUSH2 0x28E JUMPI DUP1 PUSH4 0x18160DDD EQ PUSH2 0x2AE JUMPI DUP1 PUSH4 0x2218F119 EQ PUSH2 0x2CD JUMPI PUSH1 0x0 DUP1 REVERT JUMPDEST DUP1 PUSH4 0x1FFC9A7 EQ PUSH2 0x1DD JUMPI DUP1 PUSH4 0x6FDDE03 EQ PUSH2 0x212 JUMPI DUP1 PUSH4 0x81812FC EQ PUSH2 0x234 JUMPI JUMPDEST PUSH1 0x0 DUP1 REVERT JUMPDEST CALLVALUE DUP1 ISZERO PUSH2 0x1E9 JUMPI PUSH1 0x0 DUP1 REVERT JUMPDEST POP PUSH2 0x1FD PUSH2 0x1F8 CALLDATASIZE PUSH1 0x4 PUSH2 0x253E JUMP JUMPDEST PUSH2 0x611 JUMP JUMPDEST PUSH1 0x40 MLOAD SWAP1 ISZERO ISZERO DUP2 MSTORE PUSH1 0x20 ADD JUMPDEST PUSH1 0x40 MLOAD DUP1 SWAP2 SUB SWAP1 RETURN JUMPDEST CALLVALUE DUP1 ISZERO PUSH2 0x21E JUMPI PUSH1 0x0 DUP1 REVERT JUMPDEST POP PUSH2 0x227 PUSH2 0x63C JUMP JUMPDEST PUSH1 0x40 MLOAD PUSH2 0x209 SWAP2 SWAP1 PUSH2 0x25B2 JUMP JUMPDEST CALLVALUE DUP1 ISZERO PUSH2 0x240 JUMPI PUSH1 0x0 DUP1 REVERT JUMPDEST POP PUSH2 0x254 PUSH2 0x24F CALLDATASIZE PUSH1 0x4 PUSH2 0x25C5 JUMP JUMPDEST PUSH2 0x6CE JUMP JUMPDEST PUSH1 0x40 MLOAD PUSH1 0x1 PUSH1 0x1 PUSH1 0xA0 SHL SUB SWAP1 SWAP2 AND DUP2 MSTORE PUSH1 0x20 ADD PUSH2 0x209 JUMP JUMPDEST CALLVALUE DUP1 ISZERO PUSH2 0x278 JUMPI PUSH1 0x0 DUP1 REVERT JUMPDEST POP PUSH2 0x28C PUSH2 0x287 CALLDATASIZE PUSH1 0x4 PUSH2 0x25FA JUMP JUMPDEST PUSH2 0x6F5 JUMP JUMPDEST STOP JUMPDEST CALLVALUE DUP1 ISZERO PUSH2 0x29A JUMPI PUSH1 0x0 DUP1 REVERT JUMPDEST POP PUSH2 0x28C PUSH2 0x2A9 CALLDATASIZE PUSH1 0x4 PUSH2 0x266C JUMP JUMPDEST PUSH2 0x80F JUMP JUMPDEST CALLVALUE DUP1 ISZERO PUSH2 0x2BA JUMPI PUSH1 0x0 DUP1 REVERT JUMPDEST POP PUSH1 0x99 SLOAD JUMPDEST PUSH1 0x40 MLOAD SWAP1 DUP2 MSTORE PUSH1 0x20 ADD PUSH2 0x209 JUMP JUMPDEST CALLVALUE DUP1 ISZERO PUSH2 0x2D9 JUMPI PUSH1 0x0 DUP1 REVERT JUMPDEST POP PUSH2 0x254 PUSH2 0x2E8 CALLDATASIZE PUSH1 0x4 PUSH2 0x25C5 JUMP JUMPDEST PUSH1 0xFB PUSH1 0x20 MSTORE PUSH1 0x0 SWAP1 DUP2 MSTORE PUSH1 0x40 SWAP1 KECCAK256 SLOAD PUSH1 0x1 PUSH1 0x1 PUSH1 0xA0 SHL SUB AND DUP2 JUMP JUMPDEST CALLVALUE DUP1 ISZERO PUSH2 0x30F JUMPI PUSH1 0x0 DUP1 REVERT JUMPDEST POP PUSH2 0x28C PUSH2 0x31E CALLDATASIZE PUSH1 0x4 PUSH2 0x26E5 JUMP JUMPDEST PUSH2 0x930 JUMP JUMPDEST CALLVALUE DUP1 ISZERO PUSH2 0x32F JUMPI PUSH1 0x0 DUP1 REVERT JUMPDEST POP PUSH2 0x2BF PUSH2 0x33E CALLDATASIZE PUSH1 0x4 PUSH2 0x25FA JUMP JUMPDEST PUSH2 0x961 JUMP JUMPDEST CALLVALUE DUP1 ISZERO PUSH2 0x34F JUMPI PUSH1 0x0 DUP1 REVERT JUMPDEST POP PUSH2 0x363 PUSH2 0x35E CALLDATASIZE PUSH1 0x4 PUSH2 0x25C5 JUMP JUMPDEST PUSH2 0x9F7 JUMP JUMPDEST PUSH1 0x40 MLOAD PUSH2 0x209 SWAP4 SWAP3 SWAP2 SWAP1 PUSH2 0x2721 JUMP JUMPDEST CALLVALUE DUP1 ISZERO PUSH2 0x37E JUMPI PUSH1 0x0 DUP1 REVERT JUMPDEST POP PUSH2 0x28C PUSH2 0x38D CALLDATASIZE PUSH1 0x4 PUSH2 0x26E5 JUMP JUMPDEST PUSH2 0xB29 JUMP JUMPDEST CALLVALUE DUP1 ISZERO PUSH2 0x39E JUMPI PUSH1 0x0 DUP1 REVERT JUMPDEST POP PUSH2 0x2BF PUSH2 0x3AD CALLDATASIZE PUSH1 0x4 PUSH2 0x25C5 JUMP JUMPDEST PUSH2 0xB44 JUMP JUMPDEST CALLVALUE DUP1 ISZERO PUSH2 0x3BE JUMPI PUSH1 0x0 DUP1 REVERT JUMPDEST POP PUSH2 0x100 SLOAD PUSH2 0x254 SWAP1 PUSH1 0x1 PUSH1 0x1 PUSH1 0xA0 SHL SUB AND DUP2 JUMP JUMPDEST CALLVALUE DUP1 ISZERO PUSH2 0x3DF JUMPI PUSH1 0x0 DUP1 REVERT JUMPDEST POP PUSH2 0x28C PUSH2 0x3EE CALLDATASIZE PUSH1 0x4 PUSH2 0x28C5 JUMP JUMPDEST PUSH2 0xBD7 JUMP JUMPDEST CALLVALUE DUP1 ISZERO PUSH2 0x3FF JUMPI PUSH1 0x0 DUP1 REVERT JUMPDEST POP PUSH2 0x254 PUSH2 0x40E CALLDATASIZE PUSH1 0x4 PUSH2 0x25C5 JUMP JUMPDEST PUSH2 0xD3F JUMP JUMPDEST CALLVALUE DUP1 ISZERO PUSH2 0x41F JUMPI PUSH1 0x0 DUP1 REVERT JUMPDEST POP PUSH2 0x2BF PUSH2 0x42E CALLDATASIZE PUSH1 0x4 PUSH2 0x297B JUMP JUMPDEST PUSH2 0xD9F JUMP JUMPDEST CALLVALUE DUP1 ISZERO PUSH2 0x43F JUMPI PUSH1 0x0 DUP1 REVERT JUMPDEST POP PUSH2 0x28C PUSH2 0xE25 JUMP JUMPDEST CALLVALUE DUP1 ISZERO PUSH2 0x454 JUMPI PUSH1 0x0 DUP1 REVERT JUMPDEST POP PUSH2 0x227 PUSH2 0xE39 JUMP JUMPDEST CALLVALUE DUP1 ISZERO PUSH2 0x469 JUMPI PUSH1 0x0 DUP1 REVERT JUMPDEST POP PUSH1 0xC9 SLOAD PUSH1 0x1 PUSH1 0x1 PUSH1 0xA0 SHL SUB AND PUSH2 0x254 JUMP JUMPDEST CALLVALUE DUP1 ISZERO PUSH2 0x487 JUMPI PUSH1 0x0 DUP1 REVERT JUMPDEST POP PUSH2 0x28C PUSH2 0x496 CALLDATASIZE PUSH1 0x4 PUSH2 0x2996 JUMP JUMPDEST PUSH2 0xEC7 JUMP JUMPDEST CALLVALUE DUP1 ISZERO PUSH2 0x4A7 JUMPI PUSH1 0x0 DUP1 REVERT JUMPDEST POP PUSH2 0x227 PUSH2 0x10FB JUMP JUMPDEST PUSH2 0x28C PUSH2 0x4BE CALLDATASIZE PUSH1 0x4 PUSH2 0x25C5 JUMP JUMPDEST PUSH2 0x110A JUMP JUMPDEST CALLVALUE DUP1 ISZERO PUSH2 0x4CF JUMPI PUSH1 0x0 DUP1 REVERT JUMPDEST POP PUSH2 0x28C PUSH2 0x4DE CALLDATASIZE PUSH1 0x4 PUSH2 0x29D3 JUMP JUMPDEST PUSH2 0x11DE JUMP JUMPDEST CALLVALUE DUP1 ISZERO PUSH2 0x4EF JUMPI PUSH1 0x0 DUP1 REVERT JUMPDEST POP PUSH2 0x28C PUSH2 0x4FE CALLDATASIZE PUSH1 0x4 PUSH2 0x2A0F JUMP JUMPDEST PUSH2 0x11E9 JUMP JUMPDEST CALLVALUE DUP1 ISZERO PUSH2 0x50F JUMPI PUSH1 0x0 DUP1 REVERT JUMPDEST POP PUSH2 0x28C PUSH2 0x51E CALLDATASIZE PUSH1 0x4 PUSH2 0x2AB2 JUMP JUMPDEST PUSH2 0x130F JUMP JUMPDEST CALLVALUE DUP1 ISZERO PUSH2 0x52F JUMPI PUSH1 0x0 DUP1 REVERT JUMPDEST POP PUSH2 0x227 PUSH2 0x53E CALLDATASIZE PUSH1 0x4 PUSH2 0x25C5 JUMP JUMPDEST PUSH2 0x1347 JUMP JUMPDEST CALLVALUE DUP1 ISZERO PUSH2 0x54F JUMPI PUSH1 0x0 DUP1 REVERT JUMPDEST POP PUSH2 0x227 PUSH2 0x16DA JUMP JUMPDEST CALLVALUE DUP1 ISZERO PUSH2 0x564 JUMPI PUSH1 0x0 DUP1 REVERT JUMPDEST POP PUSH2 0x2BF PUSH2 0x573 CALLDATASIZE PUSH1 0x4 PUSH2 0x25FA JUMP JUMPDEST PUSH2 0x16E8 JUMP JUMPDEST CALLVALUE DUP1 ISZERO PUSH2 0x584 JUMPI PUSH1 0x0 DUP1 REVERT JUMPDEST POP PUSH2 0x1FD PUSH2 0x593 CALLDATASIZE PUSH1 0x4 PUSH2 0x2B2D JUMP JUMPDEST PUSH1 0x1 PUSH1 0x1 PUSH1 0xA0 SHL SUB SWAP2 DUP3 AND PUSH1 0x0 SWAP1 DUP2 MSTORE PUSH1 0x6A PUSH1 0x20 SWAP1 DUP2 MSTORE PUSH1 0x40 DUP1 DUP4 KECCAK256 SWAP4 SWAP1 SWAP5 AND DUP3 MSTORE SWAP2 SWAP1 SWAP2 MSTORE KECCAK256 SLOAD PUSH1 0xFF AND SWAP1 JUMP JUMPDEST CALLVALUE DUP1 ISZERO PUSH2 0x5CD JUMPI PUSH1 0x0 DUP1 REVERT JUMPDEST POP PUSH2 0x28C PUSH2 0x5DC CALLDATASIZE PUSH1 0x4 PUSH2 0x297B JUMP JUMPDEST PUSH2 0x1719 JUMP JUMPDEST CALLVALUE DUP1 ISZERO PUSH2 0x5ED JUMPI PUSH1 0x0 DUP1 REVERT JUMPDEST POP PUSH2 0x601 PUSH2 0x5FC CALLDATASIZE PUSH1 0x4 PUSH2 0x25C5 JUMP JUMPDEST PUSH2 0x1792 JUMP JUMPDEST PUSH1 0x40 MLOAD PUSH2 0x209 SWAP5 SWAP4 SWAP3 SWAP2 SWAP1 PUSH2 0x2B60 JUMP JUMPDEST PUSH1 0x0 PUSH1 0x1 PUSH1 0x1 PUSH1 0xE0 SHL SUB NOT DUP3 AND PUSH4 0x780E9D63 PUSH1 0xE0 SHL EQ DUP1 PUSH2 0x636 JUMPI POP PUSH2 0x636 DUP3 PUSH2 0x18CA JUMP JUMPDEST SWAP3 SWAP2 POP POP JUMP JUMPDEST PUSH1 0x60 PUSH1 0x65 DUP1 SLOAD PUSH2 0x64B SWAP1 PUSH2 0x2B9D JUMP JUMPDEST DUP1 PUSH1 0x1F ADD PUSH1 0x20 DUP1 SWAP2 DIV MUL PUSH1 0x20 ADD PUSH1 0x40 MLOAD SWAP1 DUP2 ADD PUSH1 0x40 MSTORE DUP1 SWAP3 SWAP2 SWAP1 DUP2 DUP2 MSTORE PUSH1 0x20 ADD DUP3 DUP1 SLOAD PUSH2 0x677 SWAP1 PUSH2 0x2B9D JUMP JUMPDEST DUP1 ISZERO PUSH2 0x6C4 JUMPI DUP1 PUSH1 0x1F LT PUSH2 0x699 JUMPI PUSH2 0x100 DUP1 DUP4 SLOAD DIV MUL DUP4 MSTORE SWAP2 PUSH1 0x20 ADD SWAP2 PUSH2 0x6C4 JUMP JUMPDEST DUP3 ADD SWAP2 SWAP1 PUSH1 0x0 MSTORE PUSH1 0x20 PUSH1 0x0 KECCAK256 SWAP1 JUMPDEST DUP2 SLOAD DUP2 MSTORE SWAP1 PUSH1 0x1 ADD SWAP1 PUSH1 0x20 ADD DUP1 DUP4 GT PUSH2 0x6A7 JUMPI DUP3 SWAP1 SUB PUSH1 0x1F AND DUP3 ADD SWAP2 JUMPDEST POP POP POP POP POP SWAP1 POP SWAP1 JUMP JUMPDEST PUSH1 0x0 PUSH2 0x6D9 DUP3 PUSH2 0x191A JUMP JUMPDEST POP PUSH1 0x0 SWAP1 DUP2 MSTORE PUSH1 0x69 PUSH1 0x20 MSTORE PUSH1 0x40 SWAP1 KECCAK256 SLOAD PUSH1 0x1 PUSH1 0x1 PUSH1 0xA0 SHL SUB AND SWAP1 JUMP JUMPDEST PUSH1 0x0 PUSH2 0x700 DUP3 PUSH2 0xD3F JUMP JUMPDEST SWAP1 POP DUP1 PUSH1 0x1 PUSH1 0x1 PUSH1 0xA0 SHL SUB AND DUP4 PUSH1 0x1 PUSH1 0x1 PUSH1 0xA0 SHL SUB AND SUB PUSH2 0x772 JUMPI PUSH1 0x40 MLOAD PUSH3 0x461BCD PUSH1 0xE5 SHL DUP2 MSTORE PUSH1 0x20 PUSH1 0x4 DUP3 ADD MSTORE PUSH1 0x21 PUSH1 0x24 DUP3 ADD MSTORE PUSH32 0x4552433732313A20617070726F76616C20746F2063757272656E74206F776E65 PUSH1 0x44 DUP3 ADD MSTORE PUSH1 0x39 PUSH1 0xF9 SHL PUSH1 0x64 DUP3 ADD MSTORE PUSH1 0x84 ADD JUMPDEST PUSH1 0x40 MLOAD DUP1 SWAP2 SUB SWAP1 REVERT JUMPDEST CALLER PUSH1 0x1 PUSH1 0x1 PUSH1 0xA0 SHL SUB DUP3 AND EQ DUP1 PUSH2 0x78E JUMPI POP PUSH2 0x78E DUP2 CALLER PUSH2 0x593 JUMP JUMPDEST PUSH2 0x800 JUMPI PUSH1 0x40 MLOAD PUSH3 0x461BCD PUSH1 0xE5 SHL DUP2 MSTORE PUSH1 0x20 PUSH1 0x4 DUP3 ADD MSTORE PUSH1 0x3D PUSH1 0x24 DUP3 ADD MSTORE PUSH32 0x4552433732313A20617070726F76652063616C6C6572206973206E6F7420746F PUSH1 0x44 DUP3 ADD MSTORE PUSH32 0x6B656E206F776E6572206F7220617070726F76656420666F7220616C6C000000 PUSH1 0x64 DUP3 ADD MSTORE PUSH1 0x84 ADD PUSH2 0x769 JUMP JUMPDEST PUSH2 0x80A DUP4 DUP4 PUSH2 0x1979 JUMP JUMPDEST POP POP POP JUMP JUMPDEST PUSH2 0x817 PUSH2 0x19E7 JUMP JUMPDEST PUSH1 0x0 DUP6 DUP2 MSTORE PUSH1 0xFE PUSH1 0x20 SWAP1 DUP2 MSTORE PUSH1 0x40 SWAP2 DUP3 SWAP1 KECCAK256 DUP3 MLOAD PUSH1 0x80 PUSH1 0x1F DUP9 ADD DUP5 SWAP1 DIV SWAP1 SWAP4 MUL DUP2 ADD DUP4 ADD SWAP1 SWAP4 MSTORE PUSH1 0x60 DUP4 ADD DUP7 DUP2 MSTORE SWAP1 SWAP3 SWAP2 DUP3 SWAP2 SWAP1 DUP9 SWAP1 DUP9 SWAP1 DUP2 SWAP1 DUP6 ADD DUP4 DUP3 DUP1 DUP3 DUP5 CALLDATACOPY PUSH1 0x0 SWAP3 ADD SWAP2 SWAP1 SWAP2 MSTORE POP POP POP SWAP1 DUP3 MSTORE POP PUSH1 0x4 DUP4 ADD SLOAD PUSH1 0x20 SWAP1 SWAP2 ADD SWAP1 PUSH2 0x87E SWAP1 PUSH1 0x1 PUSH2 0x2BED JUMP JUMPDEST DUP2 MSTORE PUSH1 0x20 ADD DUP5 DUP5 DUP1 DUP1 PUSH1 0x1F ADD PUSH1 0x20 DUP1 SWAP2 DIV MUL PUSH1 0x20 ADD PUSH1 0x40 MLOAD SWAP1 DUP2 ADD PUSH1 0x40 MSTORE DUP1 SWAP4 SWAP3 SWAP2 SWAP1 DUP2 DUP2 MSTORE PUSH1 0x20 ADD DUP4 DUP4 DUP1 DUP3 DUP5 CALLDATACOPY PUSH1 0x0 SWAP3 ADD DUP3 SWAP1 MSTORE POP SWAP4 SWAP1 SWAP5 MSTORE POP POP PUSH1 0x4 DUP5 ADD SLOAD PUSH1 0x3 DUP6 ADD SWAP3 POP PUSH2 0x8D1 SWAP1 PUSH1 0x1 PUSH2 0x2BED JUMP JUMPDEST DUP2 MSTORE PUSH1 0x20 DUP2 ADD SWAP2 SWAP1 SWAP2 MSTORE PUSH1 0x40 ADD PUSH1 0x0 KECCAK256 DUP2 MLOAD DUP2 SWAP1 PUSH2 0x8EF SWAP1 DUP3 PUSH2 0x2C46 JUMP JUMPDEST POP PUSH1 0x20 DUP3 ADD MLOAD PUSH1 0x1 DUP3 ADD SSTORE PUSH1 0x40 DUP3 ADD MLOAD PUSH1 0x2 DUP3 ADD SWAP1 PUSH2 0x90E SWAP1 DUP3 PUSH2 0x2C46 JUMP JUMPDEST POP POP POP PUSH1 0x4 DUP2 ADD DUP1 SLOAD SWAP1 PUSH1 0x0 PUSH2 0x923 DUP4 PUSH2 0x2D05 JUMP JUMPDEST SWAP2 SWAP1 POP SSTORE POP POP POP POP POP POP POP JUMP JUMPDEST PUSH2 0x93A CALLER DUP3 PUSH2 0x1A41 JUMP JUMPDEST PUSH2 0x956 JUMPI PUSH1 0x40 MLOAD PUSH3 0x461BCD PUSH1 0xE5 SHL DUP2 MSTORE PUSH1 0x4 ADD PUSH2 0x769 SWAP1 PUSH2 0x2D1E JUMP JUMPDEST PUSH2 0x80A DUP4 DUP4 DUP4 PUSH2 0x1AC0 JUMP JUMPDEST PUSH1 0x0 PUSH2 0x96C DUP4 PUSH2 0xD9F JUMP JUMPDEST DUP3 LT PUSH2 0x9CE JUMPI PUSH1 0x40 MLOAD PUSH3 0x461BCD PUSH1 0xE5 SHL DUP2 MSTORE PUSH1 0x20 PUSH1 0x4 DUP3 ADD MSTORE PUSH1 0x2B PUSH1 0x24 DUP3 ADD MSTORE PUSH32 0x455243373231456E756D657261626C653A206F776E657220696E646578206F75 PUSH1 0x44 DUP3 ADD MSTORE PUSH11 0x74206F6620626F756E6473 PUSH1 0xA8 SHL PUSH1 0x64 DUP3 ADD MSTORE PUSH1 0x84 ADD PUSH2 0x769 JUMP JUMPDEST POP PUSH1 0x1 PUSH1 0x1 PUSH1 0xA0 SHL SUB SWAP2 SWAP1 SWAP2 AND PUSH1 0x0 SWAP1 DUP2 MSTORE PUSH1 0x97 PUSH1 0x20 SWAP1 DUP2 MSTORE PUSH1 0x40 DUP1 DUP4 KECCAK256 SWAP4 DUP4 MSTORE SWAP3 SWAP1 MSTORE KECCAK256 SLOAD SWAP1 JUMP JUMPDEST PUSH1 0xFD PUSH1 0x20 MSTORE PUSH1 0x0 SWAP1 DUP2 MSTORE PUSH1 0x40 SWAP1 KECCAK256 DUP1 SLOAD DUP2 SWAP1 PUSH2 0xA12 SWAP1 PUSH2 0x2B9D JUMP JUMPDEST DUP1 PUSH1 0x1F ADD PUSH1 0x20 DUP1 SWAP2 DIV MUL PUSH1 0x20 ADD PUSH1 0x40 MLOAD SWAP1 DUP2 ADD PUSH1 0x40 MSTORE DUP1 SWAP3 SWAP2 SWAP1 DUP2 DUP2 MSTORE PUSH1 0x20 ADD DUP3 DUP1 SLOAD PUSH2 0xA3E SWAP1 PUSH2 0x2B9D JUMP JUMPDEST DUP1 ISZERO PUSH2 0xA8B JUMPI DUP1 PUSH1 0x1F LT PUSH2 0xA60 JUMPI PUSH2 0x100 DUP1 DUP4 SLOAD DIV MUL DUP4 MSTORE SWAP2 PUSH1 0x20 ADD SWAP2 PUSH2 0xA8B JUMP JUMPDEST DUP3 ADD SWAP2 SWAP1 PUSH1 0x0 MSTORE PUSH1 0x20 PUSH1 0x0 KECCAK256 SWAP1 JUMPDEST DUP2 SLOAD DUP2 MSTORE SWAP1 PUSH1 0x1 ADD SWAP1 PUSH1 0x20 ADD DUP1 DUP4 GT PUSH2 0xA6E JUMPI DUP3 SWAP1 SUB PUSH1 0x1F AND DUP3 ADD SWAP2 JUMPDEST POP POP POP POP POP SWAP1 DUP1 PUSH1 0x1 ADD SLOAD SWAP1 DUP1 PUSH1 0x2 ADD DUP1 SLOAD PUSH2 0xAA6 SWAP1 PUSH2 0x2B9D JUMP JUMPDEST DUP1 PUSH1 0x1F ADD PUSH1 0x20 DUP1 SWAP2 DIV MUL PUSH1 0x20 ADD PUSH1 0x40 MLOAD SWAP1 DUP2 ADD PUSH1 0x40 MSTORE DUP1 SWAP3 SWAP2 SWAP1 DUP2 DUP2 MSTORE PUSH1 0x20 ADD DUP3 DUP1 SLOAD PUSH2 0xAD2 SWAP1 PUSH2 0x2B9D JUMP JUMPDEST DUP1 ISZERO PUSH2 0xB1F JUMPI DUP1 PUSH1 0x1F LT PUSH2 0xAF4 JUMPI PUSH2 0x100 DUP1 DUP4 SLOAD DIV MUL DUP4 MSTORE SWAP2 PUSH1 0x20 ADD SWAP2 PUSH2 0xB1F JUMP JUMPDEST DUP3 ADD SWAP2 SWAP1 PUSH1 0x0 MSTORE PUSH1 0x20 PUSH1 0x0 KECCAK256 SWAP1 JUMPDEST DUP2 SLOAD DUP2 MSTORE SWAP1 PUSH1 0x1 ADD SWAP1 PUSH1 0x20 ADD DUP1 DUP4 GT PUSH2 0xB02 JUMPI DUP3 SWAP1 SUB PUSH1 0x1F AND DUP3 ADD SWAP2 JUMPDEST POP POP POP POP POP SWAP1 POP DUP4 JUMP JUMPDEST PUSH2 0x80A DUP4 DUP4 DUP4 PUSH1 0x40 MLOAD DUP1 PUSH1 0x20 ADD PUSH1 0x40 MSTORE DUP1 PUSH1 0x0 DUP2 MSTORE POP PUSH2 0x130F JUMP JUMPDEST PUSH1 0x0 PUSH2 0xB4F PUSH1 0x99 SLOAD SWAP1 JUMP JUMPDEST DUP3 LT PUSH2 0xBB2 JUMPI PUSH1 0x40 MLOAD PUSH3 0x461BCD PUSH1 0xE5 SHL DUP2 MSTORE PUSH1 0x20 PUSH1 0x4 DUP3 ADD MSTORE PUSH1 0x2C PUSH1 0x24 DUP3 ADD MSTORE PUSH32 0x455243373231456E756D657261626C653A20676C6F62616C20696E646578206F PUSH1 0x44 DUP3 ADD MSTORE PUSH12 0x7574206F6620626F756E6473 PUSH1 0xA0 SHL PUSH1 0x64 DUP3 ADD MSTORE PUSH1 0x84 ADD PUSH2 0x769 JUMP JUMPDEST PUSH1 0x99 DUP3 DUP2 SLOAD DUP2 LT PUSH2 0xBC5 JUMPI PUSH2 0xBC5 PUSH2 0x2D6B JUMP JUMPDEST SWAP1 PUSH1 0x0 MSTORE PUSH1 0x20 PUSH1 0x0 KECCAK256 ADD SLOAD SWAP1 POP SWAP2 SWAP1 POP JUMP JUMPDEST PUSH2 0xBDF PUSH2 0x19E7 JUMP JUMPDEST PUSH1 0x0 DUP4 DUP2 MSTORE PUSH1 0xFE PUSH1 0x20 MSTORE PUSH1 0x40 DUP2 KECCAK256 SWAP1 JUMPDEST DUP4 MLOAD DUP2 LT ISZERO PUSH2 0xCCE JUMPI PUSH1 0x40 MLOAD DUP1 PUSH1 0x60 ADD PUSH1 0x40 MSTORE DUP1 DUP6 DUP4 DUP2 MLOAD DUP2 LT PUSH2 0xC15 JUMPI PUSH2 0xC15 PUSH2 0x2D6B JUMP JUMPDEST PUSH1 0x20 MUL PUSH1 0x20 ADD ADD MLOAD DUP2 MSTORE PUSH1 0x20 ADD DUP3 PUSH1 0x1 PUSH2 0xC2F SWAP2 SWAP1 PUSH2 0x2BED JUMP JUMPDEST DUP2 MSTORE PUSH1 0x20 ADD DUP5 DUP4 DUP2 MLOAD DUP2 LT PUSH2 0xC46 JUMPI PUSH2 0xC46 PUSH2 0x2D6B JUMP JUMPDEST PUSH1 0x20 MUL PUSH1 0x20 ADD ADD MLOAD DUP2 MSTORE POP DUP3 PUSH1 0x3 ADD PUSH1 0x0 DUP4 PUSH1 0x1 PUSH2 0xC64 SWAP2 SWAP1 PUSH2 0x2BED JUMP JUMPDEST DUP2 MSTORE PUSH1 0x20 DUP2 ADD SWAP2 SWAP1 SWAP2 MSTORE PUSH1 0x40 ADD PUSH1 0x0 KECCAK256 DUP2 MLOAD DUP2 SWAP1 PUSH2 0xC82 SWAP1 DUP3 PUSH2 0x2C46 JUMP JUMPDEST POP PUSH1 0x20 DUP3 ADD MLOAD PUSH1 0x1 DUP3 ADD SSTORE PUSH1 0x40 DUP3 ADD MLOAD PUSH1 0x2 DUP3 ADD SWAP1 PUSH2 0xCA1 SWAP1 DUP3 PUSH2 0x2C46 JUMP JUMPDEST POP POP POP PUSH1 0x4 DUP3 ADD DUP1 SLOAD SWAP1 PUSH1 0x0 PUSH2 0xCB6 DUP4 PUSH2 0x2D05 JUMP JUMPDEST SWAP2 SWAP1 POP SSTORE POP DUP1 DUP1 PUSH2 0xCC6 SWAP1 PUSH2 0x2D05 JUMP JUMPDEST SWAP2 POP POP PUSH2 0xBEF JUMP JUMPDEST POP DUP1 PUSH2 0xCDA DUP8 DUP3 PUSH2 0x2C46 JUMP JUMPDEST POP PUSH1 0x1 DUP2 ADD DUP5 SWAP1 SSTORE PUSH1 0x40 MLOAD PUSH2 0xCF3 SWAP1 DUP7 SWAP1 PUSH1 0x20 ADD PUSH2 0x25B2 JUMP JUMPDEST PUSH1 0x40 MLOAD PUSH1 0x20 DUP2 DUP4 SUB SUB DUP2 MSTORE SWAP1 PUSH1 0x40 MSTORE DUP1 MLOAD SWAP1 PUSH1 0x20 ADD KECCAK256 PUSH1 0x0 SUB PUSH2 0xD25 JUMPI PUSH1 0x40 MLOAD DUP1 PUSH1 0x20 ADD PUSH1 0x40 MSTORE DUP1 PUSH1 0x0 DUP2 MSTORE POP PUSH2 0xD27 JUMP JUMPDEST DUP5 JUMPDEST PUSH1 0x2 DUP3 ADD SWAP1 PUSH2 0xD36 SWAP1 DUP3 PUSH2 0x2C46 JUMP JUMPDEST POP POP POP POP POP POP POP JUMP JUMPDEST PUSH1 0x0 DUP2 DUP2 MSTORE PUSH1 0x67 PUSH1 0x20 MSTORE PUSH1 0x40 DUP2 KECCAK256 SLOAD PUSH1 0x1 PUSH1 0x1 PUSH1 0xA0 SHL SUB AND DUP1 PUSH2 0x636 JUMPI PUSH1 0x40 MLOAD PUSH3 0x461BCD PUSH1 0xE5 SHL DUP2 MSTORE PUSH1 0x20 PUSH1 0x4 DUP3 ADD MSTORE PUSH1 0x18 PUSH1 0x24 DUP3 ADD MSTORE PUSH24 0x115490CDCC8C4E881A5B9D985B1A59081D1BDAD95B881251 PUSH1 0x42 SHL PUSH1 0x44 DUP3 ADD MSTORE PUSH1 0x64 ADD PUSH2 0x769 JUMP JUMPDEST PUSH1 0x0 PUSH1 0x1 PUSH1 0x1 PUSH1 0xA0 SHL SUB DUP3 AND PUSH2 0xE09 JUMPI PUSH1 0x40 MLOAD PUSH3 0x461BCD PUSH1 0xE5 SHL DUP2 MSTORE PUSH1 0x20 PUSH1 0x4 DUP3 ADD MSTORE PUSH1 0x29 PUSH1 0x24 DUP3 ADD MSTORE PUSH32 0x4552433732313A2061646472657373207A65726F206973206E6F742061207661 PUSH1 0x44 DUP3 ADD MSTORE PUSH9 0x3634B21037BBB732B9 PUSH1 0xB9 SHL PUSH1 0x64 DUP3 ADD MSTORE PUSH1 0x84 ADD PUSH2 0x769 JUMP JUMPDEST POP PUSH1 0x1 PUSH1 0x1 PUSH1 0xA0 SHL SUB AND PUSH1 0x0 SWAP1 DUP2 MSTORE PUSH1 0x68 PUSH1 0x20 MSTORE PUSH1 0x40 SWAP1 KECCAK256 SLOAD SWAP1 JUMP JUMPDEST PUSH2 0xE2D PUSH2 0x19E7 JUMP JUMPDEST PUSH2 0xE37 PUSH1 0x0 PUSH2 0x1C31 JUMP JUMPDEST JUMP JUMPDEST PUSH1 0xFF DUP1 SLOAD PUSH2 0xE46 SWAP1 PUSH2 0x2B9D JUMP JUMPDEST DUP1 PUSH1 0x1F ADD PUSH1 0x20 DUP1 SWAP2 DIV MUL PUSH1 0x20 ADD PUSH1 0x40 MLOAD SWAP1 DUP2 ADD PUSH1 0x40 MSTORE DUP1 SWAP3 SWAP2 SWAP1 DUP2 DUP2 MSTORE PUSH1 0x20 ADD DUP3 DUP1 SLOAD PUSH2 0xE72 SWAP1 PUSH2 0x2B9D JUMP JUMPDEST DUP1 ISZERO PUSH2 0xEBF JUMPI DUP1 PUSH1 0x1F LT PUSH2 0xE94 JUMPI PUSH2 0x100 DUP1 DUP4 SLOAD DIV MUL DUP4 MSTORE SWAP2 PUSH1 0x20 ADD SWAP2 PUSH2 0xEBF JUMP JUMPDEST DUP3 ADD SWAP2 SWAP1 PUSH1 0x0 MSTORE PUSH1 0x20 PUSH1 0x0 KECCAK256 SWAP1 JUMPDEST DUP2 SLOAD DUP2 MSTORE SWAP1 PUSH1 0x1 ADD SWAP1 PUSH1 0x20 ADD DUP1 DUP4 GT PUSH2 0xEA2 JUMPI DUP3 SWAP1 SUB PUSH1 0x1F AND DUP3 ADD SWAP2 JUMPDEST POP POP POP POP POP DUP2 JUMP JUMPDEST PUSH1 0x0 SLOAD PUSH2 0x100 SWAP1 DIV PUSH1 0xFF AND ISZERO DUP1 DUP1 ISZERO PUSH2 0xEE7 JUMPI POP PUSH1 0x0 SLOAD PUSH1 0x1 PUSH1 0xFF SWAP1 SWAP2 AND LT JUMPDEST DUP1 PUSH2 0xF01 JUMPI POP ADDRESS EXTCODESIZE ISZERO DUP1 ISZERO PUSH2 0xF01 JUMPI POP PUSH1 0x0 SLOAD PUSH1 0xFF AND PUSH1 0x1 EQ JUMPDEST PUSH2 0xF64 JUMPI PUSH1 0x40 MLOAD PUSH3 0x461BCD PUSH1 0xE5 SHL DUP2 MSTORE PUSH1 0x20 PUSH1 0x4 DUP3 ADD MSTORE PUSH1 0x2E PUSH1 0x24 DUP3 ADD MSTORE PUSH32 0x496E697469616C697A61626C653A20636F6E747261637420697320616C726561 PUSH1 0x44 DUP3 ADD MSTORE PUSH14 0x191E481A5B9A5D1A585B1A5E9959 PUSH1 0x92 SHL PUSH1 0x64 DUP3 ADD MSTORE PUSH1 0x84 ADD PUSH2 0x769 JUMP JUMPDEST PUSH1 0x0 DUP1 SLOAD PUSH1 0xFF NOT AND PUSH1 0x1 OR SWAP1 SSTORE DUP1 ISZERO PUSH2 0xF87 JUMPI PUSH1 0x0 DUP1 SLOAD PUSH2 0xFF00 NOT AND PUSH2 0x100 OR SWAP1 SSTORE JUMPDEST PUSH2 0x100 SLOAD PUSH1 0x40 DUP1 MLOAD PUSH1 0x1 PUSH1 0x1 PUSH1 0xA0 SHL SUB SWAP1 SWAP3 AND PUSH1 0x20 DUP4 ADD MSTORE ADD PUSH1 0x40 MLOAD PUSH1 0x20 DUP2 DUP4 SUB SUB DUP2 MSTORE SWAP1 PUSH1 0x40 MSTORE DUP1 MLOAD SWAP1 PUSH1 0x20 ADD KECCAK256 PUSH1 0x0 SUB PUSH2 0x1005 JUMPI PUSH1 0x40 MLOAD PUSH3 0x461BCD PUSH1 0xE5 SHL DUP2 MSTORE PUSH1 0x20 PUSH1 0x4 DUP3 ADD DUP2 SWAP1 MSTORE PUSH1 0x24 DUP3 ADD MSTORE PUSH32 0x43616E6E6F7420496E697469616C697A65206D6F7265207468616E206F6E6365 PUSH1 0x44 DUP3 ADD MSTORE PUSH1 0x64 ADD PUSH2 0x769 JUMP JUMPDEST PUSH2 0x1063 DUP6 DUP6 DUP1 DUP1 PUSH1 0x1F ADD PUSH1 0x20 DUP1 SWAP2 DIV MUL PUSH1 0x20 ADD PUSH1 0x40 MLOAD SWAP1 DUP2 ADD PUSH1 0x40 MSTORE DUP1 SWAP4 SWAP3 SWAP2 SWAP1 DUP2 DUP2 MSTORE PUSH1 0x20 ADD DUP4 DUP4 DUP1 DUP3 DUP5 CALLDATACOPY PUSH1 0x0 SWAP3 ADD SWAP2 SWAP1 SWAP2 MSTORE POP POP PUSH1 0x40 DUP1 MLOAD DUP1 DUP3 ADD SWAP1 SWAP2 MSTORE PUSH1 0x7 DUP2 MSTORE PUSH7 0x5055424C495553 PUSH1 0xC8 SHL PUSH1 0x20 DUP3 ADD MSTORE SWAP2 POP PUSH2 0x1C83 SWAP1 POP JUMP JUMPDEST PUSH2 0x106B PUSH2 0x1CB4 JUMP JUMPDEST PUSH2 0x1074 DUP7 PUSH2 0x1719 JUMP JUMPDEST PUSH1 0xFF PUSH2 0x1081 DUP6 DUP8 DUP4 PUSH2 0x2D81 JUMP JUMPDEST POP PUSH2 0x100 DUP1 SLOAD PUSH1 0x1 PUSH1 0x1 PUSH1 0xA0 SHL SUB NOT AND PUSH1 0x1 PUSH1 0x1 PUSH1 0xA0 SHL SUB DUP9 AND OR SWAP1 SSTORE PUSH2 0x101 PUSH2 0x10AC DUP4 DUP6 DUP4 PUSH2 0x2D81 JUMP JUMPDEST POP DUP1 ISZERO PUSH2 0x10F3 JUMPI PUSH1 0x0 DUP1 SLOAD PUSH2 0xFF00 NOT AND SWAP1 SSTORE PUSH1 0x40 MLOAD PUSH1 0x1 DUP2 MSTORE PUSH32 0x7F26B83FF96E1F2B6A682F133852F6798A09C465DA95921460CEFB3847402498 SWAP1 PUSH1 0x20 ADD PUSH1 0x40 MLOAD DUP1 SWAP2 SUB SWAP1 LOG1 JUMPDEST POP POP POP POP POP POP JUMP JUMPDEST PUSH1 0x60 PUSH1 0x66 DUP1 SLOAD PUSH2 0x64B SWAP1 PUSH2 0x2B9D JUMP JUMPDEST PUSH2 0x111B DUP2 PUSH7 0x2386F26FC10000 PUSH2 0x2E40 JUMP JUMPDEST CALLVALUE LT ISZERO PUSH2 0x1160 JUMPI PUSH1 0x40 MLOAD PUSH3 0x461BCD PUSH1 0xE5 SHL DUP2 MSTORE PUSH1 0x20 PUSH1 0x4 DUP3 ADD MSTORE PUSH1 0x13 PUSH1 0x24 DUP3 ADD MSTORE PUSH19 0x139BDD08195B9BDD59DA08115512081CD95B9D PUSH1 0x6A SHL PUSH1 0x44 DUP3 ADD MSTORE PUSH1 0x64 ADD PUSH2 0x769 JUMP JUMPDEST PUSH1 0x0 JUMPDEST DUP2 DUP2 LT ISZERO PUSH2 0x11DA JUMPI PUSH1 0x0 PUSH2 0x1176 PUSH1 0x99 SLOAD SWAP1 JUMP JUMPDEST PUSH2 0x1181 SWAP1 PUSH1 0x1 PUSH2 0x2BED JUMP JUMPDEST SWAP1 POP PUSH2 0x118D CALLER DUP3 PUSH2 0x1CE3 JUMP JUMPDEST PUSH1 0x0 DUP2 DUP2 MSTORE PUSH1 0xFB PUSH1 0x20 SWAP1 DUP2 MSTORE PUSH1 0x40 DUP1 DUP4 KECCAK256 DUP1 SLOAD PUSH1 0x1 PUSH1 0x1 PUSH1 0xA0 SHL SUB NOT AND CALLER SWAP1 DUP2 OR SWAP1 SWAP2 SSTORE DUP4 MSTORE PUSH1 0xFC DUP3 MSTORE DUP3 KECCAK256 DUP1 SLOAD PUSH1 0x1 DUP2 ADD DUP3 SSTORE SWAP1 DUP4 MSTORE SWAP2 KECCAK256 ADD SSTORE DUP1 PUSH2 0x11D2 DUP2 PUSH2 0x2D05 JUMP JUMPDEST SWAP2 POP POP PUSH2 0x1163 JUMP JUMPDEST POP POP JUMP JUMPDEST PUSH2 0x11DA CALLER DUP4 DUP4 PUSH2 0x1E7C JUMP JUMPDEST PUSH2 0x11F1 PUSH2 0x19E7 JUMP JUMPDEST PUSH1 0x0 DUP1 DUP1 DUP1 DUP1 PUSH2 0x1203 DUP7 DUP9 ADD DUP9 PUSH2 0x2EB2 JUMP JUMPDEST PUSH1 0x0 DUP16 DUP2 MSTORE PUSH1 0xFD PUSH1 0x20 MSTORE PUSH1 0x40 SWAP1 KECCAK256 SWAP5 SWAP10 POP SWAP3 SWAP8 POP SWAP1 SWAP6 POP SWAP4 POP SWAP2 POP PUSH2 0x1229 DUP13 DUP15 DUP4 PUSH2 0x2D81 JUMP JUMPDEST POP PUSH1 0x0 DUP11 DUP2 MSTORE PUSH1 0xFD PUSH1 0x20 MSTORE PUSH1 0x40 SWAP1 KECCAK256 PUSH1 0x1 DUP2 ADD DUP12 SWAP1 SSTORE PUSH1 0x2 ADD PUSH2 0x124D DUP10 DUP12 DUP4 PUSH2 0x2D81 JUMP JUMPDEST POP PUSH1 0x0 DUP11 DUP2 MSTORE PUSH1 0xFD PUSH1 0x20 SWAP1 DUP2 MSTORE PUSH1 0x40 SWAP1 SWAP2 KECCAK256 DUP5 MLOAD PUSH2 0x1273 SWAP3 PUSH1 0x3 SWAP1 SWAP3 ADD SWAP2 DUP7 ADD SWAP1 PUSH2 0x24C8 JUMP JUMPDEST POP PUSH1 0x0 JUMPDEST DUP6 MLOAD DUP2 LT ISZERO PUSH2 0x12EA JUMPI PUSH2 0x12D8 DUP7 DUP3 DUP2 MLOAD DUP2 LT PUSH2 0x1295 JUMPI PUSH2 0x1295 PUSH2 0x2D6B JUMP JUMPDEST PUSH1 0x20 MUL PUSH1 0x20 ADD ADD MLOAD DUP7 DUP4 DUP2 MLOAD DUP2 LT PUSH2 0x12AF JUMPI PUSH2 0x12AF PUSH2 0x2D6B JUMP JUMPDEST PUSH1 0x20 MUL PUSH1 0x20 ADD ADD MLOAD DUP7 DUP5 DUP2 MLOAD DUP2 LT PUSH2 0x12C9 JUMPI PUSH2 0x12C9 PUSH2 0x2D6B JUMP JUMPDEST PUSH1 0x20 MUL PUSH1 0x20 ADD ADD MLOAD DUP7 DUP7 PUSH2 0xBD7 JUMP JUMPDEST DUP1 PUSH2 0x12E2 DUP2 PUSH2 0x2D05 JUMP JUMPDEST SWAP2 POP POP PUSH2 0x1277 JUMP JUMPDEST POP PUSH2 0x102 DUP1 SLOAD SWAP1 PUSH1 0x0 PUSH2 0x12FC DUP4 PUSH2 0x2D05 JUMP JUMPDEST SWAP2 SWAP1 POP SSTORE POP POP POP POP POP POP POP POP POP POP POP POP POP JUMP JUMPDEST PUSH2 0x1319 CALLER DUP4 PUSH2 0x1A41 JUMP JUMPDEST PUSH2 0x1335 JUMPI PUSH1 0x40 MLOAD PUSH3 0x461BCD PUSH1 0xE5 SHL DUP2 MSTORE PUSH1 0x4 ADD PUSH2 0x769 SWAP1 PUSH2 0x2D1E JUMP JUMPDEST PUSH2 0x1341 DUP5 DUP5 DUP5 DUP5 PUSH2 0x1F4A JUMP JUMPDEST POP POP POP POP JUMP JUMPDEST PUSH1 0x0 DUP2 DUP2 MSTORE PUSH1 0x67 PUSH1 0x20 MSTORE PUSH1 0x40 SWAP1 KECCAK256 SLOAD PUSH1 0x60 SWAP1 PUSH1 0x1 PUSH1 0x1 PUSH1 0xA0 SHL SUB AND PUSH2 0x13C6 JUMPI PUSH1 0x40 MLOAD PUSH3 0x461BCD PUSH1 0xE5 SHL DUP2 MSTORE PUSH1 0x20 PUSH1 0x4 DUP3 ADD MSTORE PUSH1 0x2F PUSH1 0x24 DUP3 ADD MSTORE PUSH32 0x4552433732314D657461646174613A2055524920717565727920666F72206E6F PUSH1 0x44 DUP3 ADD MSTORE PUSH15 0x3732BC34B9BA32B73A103A37B5B2B7 PUSH1 0x89 SHL PUSH1 0x64 DUP3 ADD MSTORE PUSH1 0x84 ADD PUSH2 0x769 JUMP JUMPDEST PUSH1 0x40 DUP1 MLOAD DUP1 DUP3 ADD SWAP1 SWAP2 MSTORE PUSH1 0xF DUP2 MSTORE PUSH15 0x7B202253656374696F6E73223A205B PUSH1 0x88 SHL PUSH1 0x20 DUP3 ADD MSTORE PUSH1 0x0 JUMPDEST PUSH2 0x102 SLOAD DUP2 LT ISZERO PUSH2 0x1685 JUMPI PUSH1 0x0 DUP2 DUP2 MSTORE PUSH1 0xFD PUSH1 0x20 MSTORE PUSH1 0x40 DUP2 KECCAK256 PUSH1 0x1 DUP2 ADD SLOAD SWAP1 SWAP2 SWAP1 PUSH2 0x1419 SWAP1 PUSH2 0x1F7D JUMP JUMPDEST PUSH1 0x40 MLOAD PUSH2 0x1430 SWAP2 SWAP1 DUP5 SWAP1 PUSH1 0x2 DUP3 ADD SWAP1 PUSH1 0x20 ADD PUSH2 0x2FBA JUMP JUMPDEST PUSH1 0x40 DUP1 MLOAD PUSH1 0x1F NOT DUP2 DUP5 SUB ADD DUP2 MSTORE PUSH1 0x20 DUP4 ADD SWAP1 SWAP2 MSTORE PUSH1 0x0 DUP1 DUP4 MSTORE SWAP1 SWAP3 POP JUMPDEST PUSH1 0x3 DUP5 ADD SLOAD DUP2 LT ISZERO PUSH2 0x15EC JUMPI PUSH1 0x0 PUSH1 0xFE PUSH1 0x0 DUP7 PUSH1 0x3 ADD DUP5 DUP2 SLOAD DUP2 LT PUSH2 0x1474 JUMPI PUSH2 0x1474 PUSH2 0x2D6B JUMP JUMPDEST SWAP1 PUSH1 0x0 MSTORE PUSH1 0x20 PUSH1 0x0 KECCAK256 ADD SLOAD DUP2 MSTORE PUSH1 0x20 ADD SWAP1 DUP2 MSTORE PUSH1 0x20 ADD PUSH1 0x0 KECCAK256 SWAP1 POP DUP3 PUSH2 0x149D DUP3 PUSH1 0x1 ADD SLOAD PUSH2 0x1F7D JUMP JUMPDEST PUSH1 0x40 MLOAD PUSH2 0x14B5 SWAP3 SWAP2 SWAP1 DUP5 SWAP1 PUSH1 0x2 DUP3 ADD SWAP1 PUSH1 0x20 ADD PUSH2 0x305F JUMP JUMPDEST PUSH1 0x40 DUP1 MLOAD PUSH1 0x1F NOT DUP2 DUP5 SUB ADD DUP2 MSTORE PUSH1 0x20 DUP4 ADD SWAP1 SWAP2 MSTORE PUSH1 0x0 DUP1 DUP4 MSTORE SWAP1 SWAP5 POP JUMPDEST DUP3 PUSH1 0x4 ADD SLOAD DUP2 LT ISZERO PUSH2 0x1575 JUMPI PUSH1 0x0 DUP2 DUP2 MSTORE PUSH1 0x3 DUP5 ADD PUSH1 0x20 MSTORE PUSH1 0x40 SWAP1 KECCAK256 PUSH1 0x1 DUP2 ADD SLOAD DUP4 SWAP1 PUSH2 0x14FE SWAP1 PUSH2 0x1F7D JUMP JUMPDEST PUSH1 0x40 MLOAD PUSH2 0x1516 SWAP3 SWAP2 SWAP1 DUP5 SWAP1 PUSH1 0x2 DUP3 ADD SWAP1 PUSH1 0x20 ADD PUSH2 0x3116 JUMP JUMPDEST PUSH1 0x40 MLOAD PUSH1 0x20 DUP2 DUP4 SUB SUB DUP2 MSTORE SWAP1 PUSH1 0x40 MSTORE SWAP3 POP PUSH1 0x1 DUP5 PUSH1 0x4 ADD SLOAD PUSH2 0x1538 SWAP2 SWAP1 PUSH2 0x31BB JUMP JUMPDEST DUP3 LT ISZERO PUSH2 0x1562 JUMPI DUP3 PUSH1 0x40 MLOAD PUSH1 0x20 ADD PUSH2 0x1550 SWAP2 SWAP1 PUSH2 0x31CE JUMP JUMPDEST PUSH1 0x40 MLOAD PUSH1 0x20 DUP2 DUP4 SUB SUB DUP2 MSTORE SWAP1 PUSH1 0x40 MSTORE SWAP3 POP JUMPDEST POP DUP1 PUSH2 0x156D DUP2 PUSH2 0x2D05 JUMP JUMPDEST SWAP2 POP POP PUSH2 0x14D2 JUMP JUMPDEST POP DUP4 DUP2 PUSH1 0x40 MLOAD PUSH1 0x20 ADD PUSH2 0x1589 SWAP3 SWAP2 SWAP1 PUSH2 0x31F3 JUMP JUMPDEST PUSH1 0x40 DUP1 MLOAD PUSH1 0x1F NOT DUP2 DUP5 SUB ADD DUP2 MSTORE SWAP2 SWAP1 MSTORE PUSH1 0x3 DUP8 ADD SLOAD SWAP1 SWAP5 POP PUSH2 0x15AD SWAP1 PUSH1 0x1 SWAP1 PUSH2 0x31BB JUMP JUMPDEST DUP4 LT ISZERO PUSH2 0x15D7 JUMPI DUP4 PUSH1 0x40 MLOAD PUSH1 0x20 ADD PUSH2 0x15C5 SWAP2 SWAP1 PUSH2 0x31CE JUMP JUMPDEST PUSH1 0x40 MLOAD PUSH1 0x20 DUP2 DUP4 SUB SUB DUP2 MSTORE SWAP1 PUSH1 0x40 MSTORE SWAP4 POP JUMPDEST POP POP DUP1 DUP1 PUSH2 0x15E4 SWAP1 PUSH2 0x2D05 JUMP JUMPDEST SWAP2 POP POP PUSH2 0x144D JUMP JUMPDEST POP DUP2 DUP2 PUSH1 0x40 MLOAD PUSH1 0x20 ADD PUSH2 0x1600 SWAP3 SWAP2 SWAP1 PUSH2 0x31F3 JUMP JUMPDEST PUSH1 0x40 MLOAD PUSH1 0x20 DUP2 DUP4 SUB SUB DUP2 MSTORE SWAP1 PUSH1 0x40 MSTORE SWAP2 POP DUP5 DUP3 PUSH1 0x40 MLOAD PUSH1 0x20 ADD PUSH2 0x1624 SWAP3 SWAP2 SWAP1 PUSH2 0x322E JUMP JUMPDEST PUSH1 0x40 MLOAD PUSH1 0x20 DUP2 DUP4 SUB SUB DUP2 MSTORE SWAP1 PUSH1 0x40 MSTORE SWAP5 POP PUSH1 0x1 PUSH2 0x102 SLOAD PUSH2 0x1645 SWAP2 SWAP1 PUSH2 0x31BB JUMP JUMPDEST DUP5 LT ISZERO PUSH2 0x166F JUMPI DUP5 PUSH1 0x40 MLOAD PUSH1 0x20 ADD PUSH2 0x165D SWAP2 SWAP1 PUSH2 0x31CE JUMP JUMPDEST PUSH1 0x40 MLOAD PUSH1 0x20 DUP2 DUP4 SUB SUB DUP2 MSTORE SWAP1 PUSH1 0x40 MSTORE SWAP5 POP JUMPDEST POP POP POP DUP1 DUP1 PUSH2 0x167D SWAP1 PUSH2 0x2D05 JUMP JUMPDEST SWAP2 POP POP PUSH2 0x13EF JUMP JUMPDEST POP DUP1 PUSH1 0x40 MLOAD PUSH1 0x20 ADD PUSH2 0x1697 SWAP2 SWAP1 PUSH2 0x325D JUMP JUMPDEST PUSH1 0x40 DUP1 MLOAD DUP1 DUP4 SUB PUSH1 0x1F NOT ADD DUP2 MSTORE PUSH1 0x20 DUP1 DUP5 ADD DUP4 MSTORE PUSH1 0x0 DUP5 MSTORE SWAP2 MLOAD SWAP1 SWAP4 POP PUSH2 0x16C2 SWAP2 DUP4 SWAP2 DUP6 SWAP2 ADD PUSH2 0x322E JUMP JUMPDEST PUSH1 0x40 MLOAD PUSH1 0x20 DUP2 DUP4 SUB SUB DUP2 MSTORE SWAP1 PUSH1 0x40 MSTORE SWAP3 POP POP POP SWAP2 SWAP1 POP JUMP JUMPDEST PUSH2 0x101 DUP1 SLOAD PUSH2 0xE46 SWAP1 PUSH2 0x2B9D JUMP JUMPDEST PUSH1 0xFC PUSH1 0x20 MSTORE DUP2 PUSH1 0x0 MSTORE PUSH1 0x40 PUSH1 0x0 KECCAK256 DUP2 DUP2 SLOAD DUP2 LT PUSH2 0x1704 JUMPI PUSH1 0x0 DUP1 REVERT JUMPDEST SWAP1 PUSH1 0x0 MSTORE PUSH1 0x20 PUSH1 0x0 KECCAK256 ADD PUSH1 0x0 SWAP2 POP SWAP2 POP POP SLOAD DUP2 JUMP JUMPDEST PUSH2 0x1721 PUSH2 0x19E7 JUMP JUMPDEST PUSH1 0x1 PUSH1 0x1 PUSH1 0xA0 SHL SUB DUP2 AND PUSH2 0x1786 JUMPI PUSH1 0x40 MLOAD PUSH3 0x461BCD PUSH1 0xE5 SHL DUP2 MSTORE PUSH1 0x20 PUSH1 0x4 DUP3 ADD MSTORE PUSH1 0x26 PUSH1 0x24 DUP3 ADD MSTORE PUSH32 0x4F776E61626C653A206E6577206F776E657220697320746865207A65726F2061 PUSH1 0x44 DUP3 ADD MSTORE PUSH6 0x646472657373 PUSH1 0xD0 SHL PUSH1 0x64 DUP3 ADD MSTORE PUSH1 0x84 ADD PUSH2 0x769 JUMP JUMPDEST PUSH2 0x178F DUP2 PUSH2 0x1C31 JUMP JUMPDEST POP JUMP JUMPDEST PUSH1 0xFE PUSH1 0x20 MSTORE PUSH1 0x0 SWAP1 DUP2 MSTORE PUSH1 0x40 SWAP1 KECCAK256 DUP1 SLOAD DUP2 SWAP1 PUSH2 0x17AD SWAP1 PUSH2 0x2B9D JUMP JUMPDEST DUP1 PUSH1 0x1F ADD PUSH1 0x20 DUP1 SWAP2 DIV MUL PUSH1 0x20 ADD PUSH1 0x40 MLOAD SWAP1 DUP2 ADD PUSH1 0x40 MSTORE DUP1 SWAP3 SWAP2 SWAP1 DUP2 DUP2 MSTORE PUSH1 0x20 ADD DUP3 DUP1 SLOAD PUSH2 0x17D9 SWAP1 PUSH2 0x2B9D JUMP JUMPDEST DUP1 ISZERO PUSH2 0x1826 JUMPI DUP1 PUSH1 0x1F LT PUSH2 0x17FB JUMPI PUSH2 0x100 DUP1 DUP4 SLOAD DIV MUL DUP4 MSTORE SWAP2 PUSH1 0x20 ADD SWAP2 PUSH2 0x1826 JUMP JUMPDEST DUP3 ADD SWAP2 SWAP1 PUSH1 0x0 MSTORE PUSH1 0x20 PUSH1 0x0 KECCAK256 SWAP1 JUMPDEST DUP2 SLOAD DUP2 MSTORE SWAP1 PUSH1 0x1 ADD SWAP1 PUSH1 0x20 ADD DUP1 DUP4 GT PUSH2 0x1809 JUMPI DUP3 SWAP1 SUB PUSH1 0x1F AND DUP3 ADD SWAP2 JUMPDEST POP POP POP POP POP SWAP1 DUP1 PUSH1 0x1 ADD SLOAD SWAP1 DUP1 PUSH1 0x2 ADD DUP1 SLOAD PUSH2 0x1841 SWAP1 PUSH2 0x2B9D JUMP JUMPDEST DUP1 PUSH1 0x1F ADD PUSH1 0x20 DUP1 SWAP2 DIV MUL PUSH1 0x20 ADD PUSH1 0x40 MLOAD SWAP1 DUP2 ADD PUSH1 0x40 MSTORE DUP1 SWAP3 SWAP2 SWAP1 DUP2 DUP2 MSTORE PUSH1 0x20 ADD DUP3 DUP1 SLOAD PUSH2 0x186D SWAP1 PUSH2 0x2B9D JUMP JUMPDEST DUP1 ISZERO PUSH2 0x18BA JUMPI DUP1 PUSH1 0x1F LT PUSH2 0x188F JUMPI PUSH2 0x100 DUP1 DUP4 SLOAD DIV MUL DUP4 MSTORE SWAP2 PUSH1 0x20 ADD SWAP2 PUSH2 0x18BA JUMP JUMPDEST DUP3 ADD SWAP2 SWAP1 PUSH1 0x0 MSTORE PUSH1 0x20 PUSH1 0x0 KECCAK256 SWAP1 JUMPDEST DUP2 SLOAD DUP2 MSTORE SWAP1 PUSH1 0x1 ADD SWAP1 PUSH1 0x20 ADD DUP1 DUP4 GT PUSH2 0x189D JUMPI DUP3 SWAP1 SUB PUSH1 0x1F AND DUP3 ADD SWAP2 JUMPDEST POP POP POP POP POP SWAP1 DUP1 PUSH1 0x4 ADD SLOAD SWAP1 POP DUP5 JUMP JUMPDEST PUSH1 0x0 PUSH1 0x1 PUSH1 0x1 PUSH1 0xE0 SHL SUB NOT DUP3 AND PUSH4 0x80AC58CD PUSH1 0xE0 SHL EQ DUP1 PUSH2 0x18FB JUMPI POP PUSH1 0x1 PUSH1 0x1 PUSH1 0xE0 SHL SUB NOT DUP3 AND PUSH4 0x5B5E139F PUSH1 0xE0 SHL EQ JUMPDEST DUP1 PUSH2 0x636 JUMPI POP PUSH4 0x1FFC9A7 PUSH1 0xE0 SHL PUSH1 0x1 PUSH1 0x1 PUSH1 0xE0 SHL SUB NOT DUP4 AND EQ PUSH2 0x636 JUMP JUMPDEST PUSH1 0x0 DUP2 DUP2 MSTORE PUSH1 0x67 PUSH1 0x20 MSTORE PUSH1 0x40 SWAP1 KECCAK256 SLOAD PUSH1 0x1 PUSH1 0x1 PUSH1 0xA0 SHL SUB AND PUSH2 0x178F JUMPI PUSH1 0x40 MLOAD PUSH3 0x461BCD PUSH1 0xE5 SHL DUP2 MSTORE PUSH1 0x20 PUSH1 0x4 DUP3 ADD MSTORE PUSH1 0x18 PUSH1 0x24 DUP3 ADD MSTORE PUSH24 0x115490CDCC8C4E881A5B9D985B1A59081D1BDAD95B881251 PUSH1 0x42 SHL PUSH1 0x44 DUP3 ADD MSTORE PUSH1 0x64 ADD PUSH2 0x769 JUMP JUMPDEST PUSH1 0x0 DUP2 DUP2 MSTORE PUSH1 0x69 PUSH1 0x20 MSTORE PUSH1 0x40 SWAP1 KECCAK256 DUP1 SLOAD PUSH1 0x1 PUSH1 0x1 PUSH1 0xA0 SHL SUB NOT AND PUSH1 0x1 PUSH1 0x1 PUSH1 0xA0 SHL SUB DUP5 AND SWAP1 DUP2 OR SWAP1 SWAP2 SSTORE DUP2 SWAP1 PUSH2 0x19AE DUP3 PUSH2 0xD3F JUMP JUMPDEST PUSH1 0x1 PUSH1 0x1 PUSH1 0xA0 SHL SUB AND PUSH32 0x8C5BE1E5EBEC7D5BD14F71427D1E84F3DD0314C0F7B2291E5B200AC8C7C3B925 PUSH1 0x40 MLOAD PUSH1 0x40 MLOAD DUP1 SWAP2 SUB SWAP1 LOG4 POP POP JUMP JUMPDEST PUSH1 0xC9 SLOAD PUSH1 0x1 PUSH1 0x1 PUSH1 0xA0 SHL SUB AND CALLER EQ PUSH2 0xE37 JUMPI PUSH1 0x40 MLOAD PUSH3 0x461BCD PUSH1 0xE5 SHL DUP2 MSTORE PUSH1 0x20 PUSH1 0x4 DUP3 ADD DUP2 SWAP1 MSTORE PUSH1 0x24 DUP3 ADD MSTORE PUSH32 0x4F776E61626C653A2063616C6C6572206973206E6F7420746865206F776E6572 PUSH1 0x44 DUP3 ADD MSTORE PUSH1 0x64 ADD PUSH2 0x769 JUMP JUMPDEST PUSH1 0x0 DUP1 PUSH2 0x1A4D DUP4 PUSH2 0xD3F JUMP JUMPDEST SWAP1 POP DUP1 PUSH1 0x1 PUSH1 0x1 PUSH1 0xA0 SHL SUB AND DUP5 PUSH1 0x1 PUSH1 0x1 PUSH1 0xA0 SHL SUB AND EQ DUP1 PUSH2 0x1A94 JUMPI POP PUSH1 0x1 PUSH1 0x1 PUSH1 0xA0 SHL SUB DUP1 DUP3 AND PUSH1 0x0 SWAP1 DUP2 MSTORE PUSH1 0x6A PUSH1 0x20 SWAP1 DUP2 MSTORE PUSH1 0x40 DUP1 DUP4 KECCAK256 SWAP4 DUP9 AND DUP4 MSTORE SWAP3 SWAP1 MSTORE KECCAK256 SLOAD PUSH1 0xFF AND JUMPDEST DUP1 PUSH2 0x1AB8 JUMPI POP DUP4 PUSH1 0x1 PUSH1 0x1 PUSH1 0xA0 SHL SUB AND PUSH2 0x1AAD DUP5 PUSH2 0x6CE JUMP JUMPDEST PUSH1 0x1 PUSH1 0x1 PUSH1 0xA0 SHL SUB AND EQ JUMPDEST SWAP5 SWAP4 POP POP POP POP JUMP JUMPDEST DUP3 PUSH1 0x1 PUSH1 0x1 PUSH1 0xA0 SHL SUB AND PUSH2 0x1AD3 DUP3 PUSH2 0xD3F JUMP JUMPDEST PUSH1 0x1 PUSH1 0x1 PUSH1 0xA0 SHL SUB AND EQ PUSH2 0x1AF9 JUMPI PUSH1 0x40 MLOAD PUSH3 0x461BCD PUSH1 0xE5 SHL DUP2 MSTORE PUSH1 0x4 ADD PUSH2 0x769 SWAP1 PUSH2 0x3283 JUMP JUMPDEST PUSH1 0x1 PUSH1 0x1 PUSH1 0xA0 SHL SUB DUP3 AND PUSH2 0x1B5B JUMPI PUSH1 0x40 MLOAD PUSH3 0x461BCD PUSH1 0xE5 SHL DUP2 MSTORE PUSH1 0x20 PUSH1 0x4 DUP3 ADD MSTORE PUSH1 0x24 DUP1 DUP3 ADD MSTORE PUSH32 0x4552433732313A207472616E7366657220746F20746865207A65726F20616464 PUSH1 0x44 DUP3 ADD MSTORE PUSH4 0x72657373 PUSH1 0xE0 SHL PUSH1 0x64 DUP3 ADD MSTORE PUSH1 0x84 ADD PUSH2 0x769 JUMP JUMPDEST PUSH2 0x1B68 DUP4 DUP4 DUP4 PUSH1 0x1 PUSH2 0x2093 JUMP JUMPDEST DUP3 PUSH1 0x1 PUSH1 0x1 PUSH1 0xA0 SHL SUB AND PUSH2 0x1B7B DUP3 PUSH2 0xD3F JUMP JUMPDEST PUSH1 0x1 PUSH1 0x1 PUSH1 0xA0 SHL SUB AND EQ PUSH2 0x1BA1 JUMPI PUSH1 0x40 MLOAD PUSH3 0x461BCD PUSH1 0xE5 SHL DUP2 MSTORE PUSH1 0x4 ADD PUSH2 0x769 SWAP1 PUSH2 0x3283 JUMP JUMPDEST PUSH1 0x0 DUP2 DUP2 MSTORE PUSH1 0x69 PUSH1 0x20 SWAP1 DUP2 MSTORE PUSH1 0x40 DUP1 DUP4 KECCAK256 DUP1 SLOAD PUSH1 0x1 PUSH1 0x1 PUSH1 0xA0 SHL SUB NOT SWAP1 DUP2 AND SWAP1 SWAP2 SSTORE PUSH1 0x1 PUSH1 0x1 PUSH1 0xA0 SHL SUB DUP8 DUP2 AND DUP1 DUP7 MSTORE PUSH1 0x68 DUP6 MSTORE DUP4 DUP7 KECCAK256 DUP1 SLOAD PUSH1 0x0 NOT ADD SWAP1 SSTORE SWAP1 DUP8 AND DUP1 DUP7 MSTORE DUP4 DUP7 KECCAK256 DUP1 SLOAD PUSH1 0x1 ADD SWAP1 SSTORE DUP7 DUP7 MSTORE PUSH1 0x67 SWAP1 SWAP5 MSTORE DUP3 DUP6 KECCAK256 DUP1 SLOAD SWAP1 SWAP3 AND DUP5 OR SWAP1 SWAP2 SSTORE SWAP1 MLOAD DUP5 SWAP4 PUSH32 0xDDF252AD1BE2C89B69C2B068FC378DAA952BA7F163C4A11628F55A4DF523B3EF SWAP2 LOG4 POP POP POP JUMP JUMPDEST PUSH1 0xC9 DUP1 SLOAD PUSH1 0x1 PUSH1 0x1 PUSH1 0xA0 SHL SUB DUP4 DUP2 AND PUSH1 0x1 PUSH1 0x1 PUSH1 0xA0 SHL SUB NOT DUP4 AND DUP2 OR SWAP1 SWAP4 SSTORE PUSH1 0x40 MLOAD SWAP2 AND SWAP2 SWAP1 DUP3 SWAP1 PUSH32 0x8BE0079C531659141344CD1FD0A4F28419497F9722A3DAAFE3B4186F6B6457E0 SWAP1 PUSH1 0x0 SWAP1 LOG3 POP POP JUMP JUMPDEST PUSH1 0x0 SLOAD PUSH2 0x100 SWAP1 DIV PUSH1 0xFF AND PUSH2 0x1CAA JUMPI PUSH1 0x40 MLOAD PUSH3 0x461BCD PUSH1 0xE5 SHL DUP2 MSTORE PUSH1 0x4 ADD PUSH2 0x769 SWAP1 PUSH2 0x32C8 JUMP JUMPDEST PUSH2 0x11DA DUP3 DUP3 PUSH2 0x21C7 JUMP JUMPDEST PUSH1 0x0 SLOAD PUSH2 0x100 SWAP1 DIV PUSH1 0xFF AND PUSH2 0x1CDB JUMPI PUSH1 0x40 MLOAD PUSH3 0x461BCD PUSH1 0xE5 SHL DUP2 MSTORE PUSH1 0x4 ADD PUSH2 0x769 SWAP1 PUSH2 0x32C8 JUMP JUMPDEST PUSH2 0xE37 PUSH2 0x2207 JUMP JUMPDEST PUSH1 0x1 PUSH1 0x1 PUSH1 0xA0 SHL SUB DUP3 AND PUSH2 0x1D39 JUMPI PUSH1 0x40 MLOAD PUSH3 0x461BCD PUSH1 0xE5 SHL DUP2 MSTORE PUSH1 0x20 PUSH1 0x4 DUP3 ADD DUP2 SWAP1 MSTORE PUSH1 0x24 DUP3 ADD MSTORE PUSH32 0x4552433732313A206D696E7420746F20746865207A65726F2061646472657373 PUSH1 0x44 DUP3 ADD MSTORE PUSH1 0x64 ADD PUSH2 0x769 JUMP JUMPDEST PUSH1 0x0 DUP2 DUP2 MSTORE PUSH1 0x67 PUSH1 0x20 MSTORE PUSH1 0x40 SWAP1 KECCAK256 SLOAD PUSH1 0x1 PUSH1 0x1 PUSH1 0xA0 SHL SUB AND ISZERO PUSH2 0x1D9E JUMPI PUSH1 0x40 MLOAD PUSH3 0x461BCD PUSH1 0xE5 SHL DUP2 MSTORE PUSH1 0x20 PUSH1 0x4 DUP3 ADD MSTORE PUSH1 0x1C PUSH1 0x24 DUP3 ADD MSTORE PUSH32 0x4552433732313A20746F6B656E20616C7265616479206D696E74656400000000 PUSH1 0x44 DUP3 ADD MSTORE PUSH1 0x64 ADD PUSH2 0x769 JUMP JUMPDEST PUSH2 0x1DAC PUSH1 0x0 DUP4 DUP4 PUSH1 0x1 PUSH2 0x2093 JUMP JUMPDEST PUSH1 0x0 DUP2 DUP2 MSTORE PUSH1 0x67 PUSH1 0x20 MSTORE PUSH1 0x40 SWAP1 KECCAK256 SLOAD PUSH1 0x1 PUSH1 0x1 PUSH1 0xA0 SHL SUB AND ISZERO PUSH2 0x1E11 JUMPI PUSH1 0x40 MLOAD PUSH3 0x461BCD PUSH1 0xE5 SHL DUP2 MSTORE PUSH1 0x20 PUSH1 0x4 DUP3 ADD MSTORE PUSH1 0x1C PUSH1 0x24 DUP3 ADD MSTORE PUSH32 0x4552433732313A20746F6B656E20616C7265616479206D696E74656400000000 PUSH1 0x44 DUP3 ADD MSTORE PUSH1 0x64 ADD PUSH2 0x769 JUMP JUMPDEST PUSH1 0x1 PUSH1 0x1 PUSH1 0xA0 SHL SUB DUP3 AND PUSH1 0x0 DUP2 DUP2 MSTORE PUSH1 0x68 PUSH1 0x20 SWAP1 DUP2 MSTORE PUSH1 0x40 DUP1 DUP4 KECCAK256 DUP1 SLOAD PUSH1 0x1 ADD SWAP1 SSTORE DUP5 DUP4 MSTORE PUSH1 0x67 SWAP1 SWAP2 MSTORE DUP1 DUP3 KECCAK256 DUP1 SLOAD PUSH1 0x1 PUSH1 0x1 PUSH1 0xA0 SHL SUB NOT AND DUP5 OR SWAP1 SSTORE MLOAD DUP4 SWAP3 SWAP2 SWAP1 PUSH32 0xDDF252AD1BE2C89B69C2B068FC378DAA952BA7F163C4A11628F55A4DF523B3EF SWAP1 DUP3 SWAP1 LOG4 POP POP JUMP JUMPDEST DUP2 PUSH1 0x1 PUSH1 0x1 PUSH1 0xA0 SHL SUB AND DUP4 PUSH1 0x1 PUSH1 0x1 PUSH1 0xA0 SHL SUB AND SUB PUSH2 0x1EDD JUMPI PUSH1 0x40 MLOAD PUSH3 0x461BCD PUSH1 0xE5 SHL DUP2 MSTORE PUSH1 0x20 PUSH1 0x4 DUP3 ADD MSTORE PUSH1 0x19 PUSH1 0x24 DUP3 ADD MSTORE PUSH32 0x4552433732313A20617070726F766520746F2063616C6C657200000000000000 PUSH1 0x44 DUP3 ADD MSTORE PUSH1 0x64 ADD PUSH2 0x769 JUMP JUMPDEST PUSH1 0x1 PUSH1 0x1 PUSH1 0xA0 SHL SUB DUP4 DUP2 AND PUSH1 0x0 DUP2 DUP2 MSTORE PUSH1 0x6A PUSH1 0x20 SWAP1 DUP2 MSTORE PUSH1 0x40 DUP1 DUP4 KECCAK256 SWAP5 DUP8 AND DUP1 DUP5 MSTORE SWAP5 DUP3 MSTORE SWAP2 DUP3 SWAP1 KECCAK256 DUP1 SLOAD PUSH1 0xFF NOT AND DUP7 ISZERO ISZERO SWAP1 DUP2 OR SWAP1 SWAP2 SSTORE SWAP2 MLOAD SWAP2 DUP3 MSTORE PUSH32 0x17307EAB39AB6107E8899845AD3D59BD9653F200F220920489CA2B5937696C31 SWAP2 ADD PUSH1 0x40 MLOAD DUP1 SWAP2 SUB SWAP1 LOG3 POP POP POP JUMP JUMPDEST PUSH2 0x1F55 DUP5 DUP5 DUP5 PUSH2 0x1AC0 JUMP JUMPDEST PUSH2 0x1F61 DUP5 DUP5 DUP5 DUP5 PUSH2 0x2237 JUMP JUMPDEST PUSH2 0x1341 JUMPI PUSH1 0x40 MLOAD PUSH3 0x461BCD PUSH1 0xE5 SHL DUP2 MSTORE PUSH1 0x4 ADD PUSH2 0x769 SWAP1 PUSH2 0x3313 JUMP JUMPDEST PUSH1 0x60 DUP2 PUSH1 0x0 SUB PUSH2 0x1FA4 JUMPI POP POP PUSH1 0x40 DUP1 MLOAD DUP1 DUP3 ADD SWAP1 SWAP2 MSTORE PUSH1 0x1 DUP2 MSTORE PUSH1 0x3 PUSH1 0xFC SHL PUSH1 0x20 DUP3 ADD MSTORE SWAP1 JUMP JUMPDEST DUP2 PUSH1 0x0 JUMPDEST DUP2 ISZERO PUSH2 0x1FCE JUMPI DUP1 PUSH2 0x1FB8 DUP2 PUSH2 0x2D05 JUMP JUMPDEST SWAP2 POP PUSH2 0x1FC7 SWAP1 POP PUSH1 0xA DUP4 PUSH2 0x337B JUMP JUMPDEST SWAP2 POP PUSH2 0x1FA8 JUMP JUMPDEST PUSH1 0x0 DUP2 PUSH1 0x1 PUSH1 0x1 PUSH1 0x40 SHL SUB DUP2 GT ISZERO PUSH2 0x1FE8 JUMPI PUSH2 0x1FE8 PUSH2 0x2756 JUMP JUMPDEST PUSH1 0x40 MLOAD SWAP1 DUP1 DUP3 MSTORE DUP1 PUSH1 0x1F ADD PUSH1 0x1F NOT AND PUSH1 0x20 ADD DUP3 ADD PUSH1 0x40 MSTORE DUP1 ISZERO PUSH2 0x2012 JUMPI PUSH1 0x20 DUP3 ADD DUP2 DUP1 CALLDATASIZE DUP4 CALLDATACOPY ADD SWAP1 POP JUMPDEST POP SWAP1 POP DUP2 JUMPDEST DUP6 ISZERO PUSH2 0x208A JUMPI PUSH2 0x2028 PUSH1 0x1 DUP3 PUSH2 0x31BB JUMP JUMPDEST SWAP1 POP PUSH1 0x0 PUSH2 0x2037 PUSH1 0xA DUP9 PUSH2 0x338F JUMP JUMPDEST PUSH2 0x2042 SWAP1 PUSH1 0x30 PUSH2 0x33A3 JUMP JUMPDEST SWAP1 POP PUSH1 0x0 DUP2 PUSH1 0xF8 SHL SWAP1 POP DUP1 DUP5 DUP5 DUP2 MLOAD DUP2 LT PUSH2 0x205F JUMPI PUSH2 0x205F PUSH2 0x2D6B JUMP JUMPDEST PUSH1 0x20 ADD ADD SWAP1 PUSH1 0x1 PUSH1 0x1 PUSH1 0xF8 SHL SUB NOT AND SWAP1 DUP2 PUSH1 0x0 BYTE SWAP1 MSTORE8 POP PUSH2 0x2081 PUSH1 0xA DUP10 PUSH2 0x337B JUMP JUMPDEST SWAP8 POP POP POP PUSH2 0x2017 JUMP JUMPDEST POP SWAP5 SWAP4 POP POP POP POP JUMP JUMPDEST PUSH1 0x1 DUP2 GT ISZERO PUSH2 0x2102 JUMPI PUSH1 0x40 MLOAD PUSH3 0x461BCD PUSH1 0xE5 SHL DUP2 MSTORE PUSH1 0x20 PUSH1 0x4 DUP3 ADD MSTORE PUSH1 0x35 PUSH1 0x24 DUP3 ADD MSTORE PUSH32 0x455243373231456E756D657261626C653A20636F6E7365637574697665207472 PUSH1 0x44 DUP3 ADD MSTORE PUSH21 0x185B9CD9995C9CC81B9BDD081CDD5C1C1BDC9D1959 PUSH1 0x5A SHL PUSH1 0x64 DUP3 ADD MSTORE PUSH1 0x84 ADD PUSH2 0x769 JUMP JUMPDEST DUP2 PUSH1 0x1 PUSH1 0x1 PUSH1 0xA0 SHL SUB DUP6 AND PUSH2 0x215E JUMPI PUSH2 0x2159 DUP2 PUSH1 0x99 DUP1 SLOAD PUSH1 0x0 DUP4 DUP2 MSTORE PUSH1 0x9A PUSH1 0x20 MSTORE PUSH1 0x40 DUP2 KECCAK256 DUP3 SWAP1 SSTORE PUSH1 0x1 DUP3 ADD DUP4 SSTORE SWAP2 SWAP1 SWAP2 MSTORE PUSH32 0x72A152DDFB8E864297C917AF52EA6C1C68AEAD0FEE1A62673FCC7E0C94979D00 ADD SSTORE JUMP JUMPDEST PUSH2 0x2181 JUMP JUMPDEST DUP4 PUSH1 0x1 PUSH1 0x1 PUSH1 0xA0 SHL SUB AND DUP6 PUSH1 0x1 PUSH1 0x1 PUSH1 0xA0 SHL SUB AND EQ PUSH2 0x2181 JUMPI PUSH2 0x2181 DUP6 DUP3 PUSH2 0x2338 JUMP JUMPDEST PUSH1 0x1 PUSH1 0x1 PUSH1 0xA0 SHL SUB DUP5 AND PUSH2 0x219D JUMPI PUSH2 0x2198 DUP2 PUSH2 0x23D5 JUMP JUMPDEST PUSH2 0x21C0 JUMP JUMPDEST DUP5 PUSH1 0x1 PUSH1 0x1 PUSH1 0xA0 SHL SUB AND DUP5 PUSH1 0x1 PUSH1 0x1 PUSH1 0xA0 SHL SUB AND EQ PUSH2 0x21C0 JUMPI PUSH2 0x21C0 DUP5 DUP3 PUSH2 0x2484 JUMP JUMPDEST POP POP POP POP POP JUMP JUMPDEST PUSH1 0x0 SLOAD PUSH2 0x100 SWAP1 DIV PUSH1 0xFF AND PUSH2 0x21EE JUMPI PUSH1 0x40 MLOAD PUSH3 0x461BCD PUSH1 0xE5 SHL DUP2 MSTORE PUSH1 0x4 ADD PUSH2 0x769 SWAP1 PUSH2 0x32C8 JUMP JUMPDEST PUSH1 0x65 PUSH2 0x21FA DUP4 DUP3 PUSH2 0x2C46 JUMP JUMPDEST POP PUSH1 0x66 PUSH2 0x80A DUP3 DUP3 PUSH2 0x2C46 JUMP JUMPDEST PUSH1 0x0 SLOAD PUSH2 0x100 SWAP1 DIV PUSH1 0xFF AND PUSH2 0x222E JUMPI PUSH1 0x40 MLOAD PUSH3 0x461BCD PUSH1 0xE5 SHL DUP2 MSTORE PUSH1 0x4 ADD PUSH2 0x769 SWAP1 PUSH2 0x32C8 JUMP JUMPDEST PUSH2 0xE37 CALLER PUSH2 0x1C31 JUMP JUMPDEST PUSH1 0x0 PUSH1 0x1 PUSH1 0x1 PUSH1 0xA0 SHL SUB DUP5 AND EXTCODESIZE ISZERO PUSH2 0x232D JUMPI PUSH1 0x40 MLOAD PUSH4 0xA85BD01 PUSH1 0xE1 SHL DUP2 MSTORE PUSH1 0x1 PUSH1 0x1 PUSH1 0xA0 SHL SUB DUP6 AND SWAP1 PUSH4 0x150B7A02 SWAP1 PUSH2 0x227B SWAP1 CALLER SWAP1 DUP10 SWAP1 DUP9 SWAP1 DUP9 SWAP1 PUSH1 0x4 ADD PUSH2 0x33BC JUMP JUMPDEST PUSH1 0x20 PUSH1 0x40 MLOAD DUP1 DUP4 SUB DUP2 PUSH1 0x0 DUP8 GAS CALL SWAP3 POP POP POP DUP1 ISZERO PUSH2 0x22B6 JUMPI POP PUSH1 0x40 DUP1 MLOAD PUSH1 0x1F RETURNDATASIZE SWAP1 DUP2 ADD PUSH1 0x1F NOT AND DUP3 ADD SWAP1 SWAP3 MSTORE PUSH2 0x22B3 SWAP2 DUP2 ADD SWAP1 PUSH2 0x33EF JUMP JUMPDEST PUSH1 0x1 JUMPDEST PUSH2 0x2313 JUMPI RETURNDATASIZE DUP1 DUP1 ISZERO PUSH2 0x22E4 JUMPI PUSH1 0x40 MLOAD SWAP2 POP PUSH1 0x1F NOT PUSH1 0x3F RETURNDATASIZE ADD AND DUP3 ADD PUSH1 0x40 MSTORE RETURNDATASIZE DUP3 MSTORE RETURNDATASIZE PUSH1 0x0 PUSH1 0x20 DUP5 ADD RETURNDATACOPY PUSH2 0x22E9 JUMP JUMPDEST PUSH1 0x60 SWAP2 POP JUMPDEST POP DUP1 MLOAD PUSH1 0x0 SUB PUSH2 0x230B JUMPI PUSH1 0x40 MLOAD PUSH3 0x461BCD PUSH1 0xE5 SHL DUP2 MSTORE PUSH1 0x4 ADD PUSH2 0x769 SWAP1 PUSH2 0x3313 JUMP JUMPDEST DUP1 MLOAD DUP2 PUSH1 0x20 ADD REVERT JUMPDEST PUSH1 0x1 PUSH1 0x1 PUSH1 0xE0 SHL SUB NOT AND PUSH4 0xA85BD01 PUSH1 0xE1 SHL EQ SWAP1 POP PUSH2 0x1AB8 JUMP JUMPDEST POP PUSH1 0x1 SWAP5 SWAP4 POP POP POP POP JUMP JUMPDEST PUSH1 0x0 PUSH1 0x1 PUSH2 0x2345 DUP5 PUSH2 0xD9F JUMP JUMPDEST PUSH2 0x234F SWAP2 SWAP1 PUSH2 0x31BB JUMP JUMPDEST PUSH1 0x0 DUP4 DUP2 MSTORE PUSH1 0x98 PUSH1 0x20 MSTORE PUSH1 0x40 SWAP1 KECCAK256 SLOAD SWAP1 SWAP2 POP DUP1 DUP3 EQ PUSH2 0x23A2 JUMPI PUSH1 0x1 PUSH1 0x1 PUSH1 0xA0 SHL SUB DUP5 AND PUSH1 0x0 SWAP1 DUP2 MSTORE PUSH1 0x97 PUSH1 0x20 SWAP1 DUP2 MSTORE PUSH1 0x40 DUP1 DUP4 KECCAK256 DUP6 DUP5 MSTORE DUP3 MSTORE DUP1 DUP4 KECCAK256 SLOAD DUP5 DUP5 MSTORE DUP2 DUP5 KECCAK256 DUP2 SWAP1 SSTORE DUP4 MSTORE PUSH1 0x98 SWAP1 SWAP2 MSTORE SWAP1 KECCAK256 DUP2 SWAP1 SSTORE JUMPDEST POP PUSH1 0x0 SWAP2 DUP3 MSTORE PUSH1 0x98 PUSH1 0x20 SWAP1 DUP2 MSTORE PUSH1 0x40 DUP1 DUP5 KECCAK256 DUP5 SWAP1 SSTORE PUSH1 0x1 PUSH1 0x1 PUSH1 0xA0 SHL SUB SWAP1 SWAP5 AND DUP4 MSTORE PUSH1 0x97 DUP2 MSTORE DUP4 DUP4 KECCAK256 SWAP2 DUP4 MSTORE MSTORE SWAP1 DUP2 KECCAK256 SSTORE JUMP JUMPDEST PUSH1 0x99 SLOAD PUSH1 0x0 SWAP1 PUSH2 0x23E7 SWAP1 PUSH1 0x1 SWAP1 PUSH2 0x31BB JUMP JUMPDEST PUSH1 0x0 DUP4 DUP2 MSTORE PUSH1 0x9A PUSH1 0x20 MSTORE PUSH1 0x40 DUP2 KECCAK256 SLOAD PUSH1 0x99 DUP1 SLOAD SWAP4 SWAP5 POP SWAP1 SWAP3 DUP5 SWAP1 DUP2 LT PUSH2 0x240F JUMPI PUSH2 0x240F PUSH2 0x2D6B JUMP JUMPDEST SWAP1 PUSH1 0x0 MSTORE PUSH1 0x20 PUSH1 0x0 KECCAK256 ADD SLOAD SWAP1 POP DUP1 PUSH1 0x99 DUP4 DUP2 SLOAD DUP2 LT PUSH2 0x2430 JUMPI PUSH2 0x2430 PUSH2 0x2D6B JUMP JUMPDEST PUSH1 0x0 SWAP2 DUP3 MSTORE PUSH1 0x20 DUP1 DUP4 KECCAK256 SWAP1 SWAP2 ADD SWAP3 SWAP1 SWAP3 SSTORE DUP3 DUP2 MSTORE PUSH1 0x9A SWAP1 SWAP2 MSTORE PUSH1 0x40 DUP1 DUP3 KECCAK256 DUP5 SWAP1 SSTORE DUP6 DUP3 MSTORE DUP2 KECCAK256 SSTORE PUSH1 0x99 DUP1 SLOAD DUP1 PUSH2 0x2468 JUMPI PUSH2 0x2468 PUSH2 0x340C JUMP JUMPDEST PUSH1 0x1 SWAP1 SUB DUP2 DUP2 SWAP1 PUSH1 0x0 MSTORE PUSH1 0x20 PUSH1 0x0 KECCAK256 ADD PUSH1 0x0 SWAP1 SSTORE SWAP1 SSTORE POP POP POP POP JUMP JUMPDEST PUSH1 0x0 PUSH2 0x248F DUP4 PUSH2 0xD9F JUMP JUMPDEST PUSH1 0x1 PUSH1 0x1 PUSH1 0xA0 SHL SUB SWAP1 SWAP4 AND PUSH1 0x0 SWAP1 DUP2 MSTORE PUSH1 0x97 PUSH1 0x20 SWAP1 DUP2 MSTORE PUSH1 0x40 DUP1 DUP4 KECCAK256 DUP7 DUP5 MSTORE DUP3 MSTORE DUP1 DUP4 KECCAK256 DUP6 SWAP1 SSTORE SWAP4 DUP3 MSTORE PUSH1 0x98 SWAP1 MSTORE SWAP2 SWAP1 SWAP2 KECCAK256 SWAP2 SWAP1 SWAP2 SSTORE POP JUMP JUMPDEST DUP3 DUP1 SLOAD DUP3 DUP3 SSTORE SWAP1 PUSH1 0x0 MSTORE PUSH1 0x20 PUSH1 0x0 KECCAK256 SWAP1 DUP2 ADD SWAP3 DUP3 ISZERO PUSH2 0x2503 JUMPI SWAP2 PUSH1 0x20 MUL DUP3 ADD JUMPDEST DUP3 DUP2 GT ISZERO PUSH2 0x2503 JUMPI DUP3 MLOAD DUP3 SSTORE SWAP2 PUSH1 0x20 ADD SWAP2 SWAP1 PUSH1 0x1 ADD SWAP1 PUSH2 0x24E8 JUMP JUMPDEST POP PUSH2 0x250F SWAP3 SWAP2 POP PUSH2 0x2513 JUMP JUMPDEST POP SWAP1 JUMP JUMPDEST JUMPDEST DUP1 DUP3 GT ISZERO PUSH2 0x250F JUMPI PUSH1 0x0 DUP2 SSTORE PUSH1 0x1 ADD PUSH2 0x2514 JUMP JUMPDEST PUSH1 0x1 PUSH1 0x1 PUSH1 0xE0 SHL SUB NOT DUP2 AND DUP2 EQ PUSH2 0x178F JUMPI PUSH1 0x0 DUP1 REVERT JUMPDEST PUSH1 0x0 PUSH1 0x20 DUP3 DUP5 SUB SLT ISZERO PUSH2 0x2550 JUMPI PUSH1 0x0 DUP1 REVERT JUMPDEST DUP2 CALLDATALOAD PUSH2 0x255B DUP2 PUSH2 0x2528 JUMP JUMPDEST SWAP4 SWAP3 POP POP POP JUMP JUMPDEST PUSH1 0x0 JUMPDEST DUP4 DUP2 LT ISZERO PUSH2 0x257D JUMPI DUP2 DUP2 ADD MLOAD DUP4 DUP3 ADD MSTORE PUSH1 0x20 ADD PUSH2 0x2565 JUMP JUMPDEST POP POP PUSH1 0x0 SWAP2 ADD MSTORE JUMP JUMPDEST PUSH1 0x0 DUP2 MLOAD DUP1 DUP5 MSTORE PUSH2 0x259E DUP2 PUSH1 0x20 DUP7 ADD PUSH1 0x20 DUP7 ADD PUSH2 0x2562 JUMP JUMPDEST PUSH1 0x1F ADD PUSH1 0x1F NOT AND SWAP3 SWAP1 SWAP3 ADD PUSH1 0x20 ADD SWAP3 SWAP2 POP POP JUMP JUMPDEST PUSH1 0x20 DUP2 MSTORE PUSH1 0x0 PUSH2 0x255B PUSH1 0x20 DUP4 ADD DUP5 PUSH2 0x2586 JUMP JUMPDEST PUSH1 0x0 PUSH1 0x20 DUP3 DUP5 SUB SLT ISZERO PUSH2 0x25D7 JUMPI PUSH1 0x0 DUP1 REVERT JUMPDEST POP CALLDATALOAD SWAP2 SWAP1 POP JUMP JUMPDEST DUP1 CALLDATALOAD PUSH1 0x1 PUSH1 0x1 PUSH1 0xA0 SHL SUB DUP2 AND DUP2 EQ PUSH2 0x25F5 JUMPI PUSH1 0x0 DUP1 REVERT JUMPDEST SWAP2 SWAP1 POP JUMP JUMPDEST PUSH1 0x0 DUP1 PUSH1 0x40 DUP4 DUP6 SUB SLT ISZERO PUSH2 0x260D JUMPI PUSH1 0x0 DUP1 REVERT JUMPDEST PUSH2 0x2616 DUP4 PUSH2 0x25DE JUMP JUMPDEST SWAP5 PUSH1 0x20 SWAP4 SWAP1 SWAP4 ADD CALLDATALOAD SWAP4 POP POP POP JUMP JUMPDEST PUSH1 0x0 DUP1 DUP4 PUSH1 0x1F DUP5 ADD SLT PUSH2 0x2636 JUMPI PUSH1 0x0 DUP1 REVERT JUMPDEST POP DUP2 CALLDATALOAD PUSH1 0x1 PUSH1 0x1 PUSH1 0x40 SHL SUB DUP2 GT ISZERO PUSH2 0x264D JUMPI PUSH1 0x0 DUP1 REVERT JUMPDEST PUSH1 0x20 DUP4 ADD SWAP2 POP DUP4 PUSH1 0x20 DUP3 DUP6 ADD ADD GT ISZERO PUSH2 0x2665 JUMPI PUSH1 0x0 DUP1 REVERT JUMPDEST SWAP3 POP SWAP3 SWAP1 POP JUMP JUMPDEST PUSH1 0x0 DUP1 PUSH1 0x0 DUP1 PUSH1 0x0 PUSH1 0x60 DUP7 DUP9 SUB SLT ISZERO PUSH2 0x2684 JUMPI PUSH1 0x0 DUP1 REVERT JUMPDEST DUP6 CALLDATALOAD SWAP5 POP PUSH1 0x20 DUP7 ADD CALLDATALOAD PUSH1 0x1 PUSH1 0x1 PUSH1 0x40 SHL SUB DUP1 DUP3 GT ISZERO PUSH2 0x26A2 JUMPI PUSH1 0x0 DUP1 REVERT JUMPDEST PUSH2 0x26AE DUP10 DUP4 DUP11 ADD PUSH2 0x2624 JUMP JUMPDEST SWAP1 SWAP7 POP SWAP5 POP PUSH1 0x40 DUP9 ADD CALLDATALOAD SWAP2 POP DUP1 DUP3 GT ISZERO PUSH2 0x26C7 JUMPI PUSH1 0x0 DUP1 REVERT JUMPDEST POP PUSH2 0x26D4 DUP9 DUP3 DUP10 ADD PUSH2 0x2624 JUMP JUMPDEST SWAP7 SWAP10 SWAP6 SWAP9 POP SWAP4 SWAP7 POP SWAP3 SWAP5 SWAP4 SWAP3 POP POP POP JUMP JUMPDEST PUSH1 0x0 DUP1 PUSH1 0x0 PUSH1 0x60 DUP5 DUP7 SUB SLT ISZERO PUSH2 0x26FA JUMPI PUSH1 0x0 DUP1 REVERT JUMPDEST PUSH2 0x2703 DUP5 PUSH2 0x25DE JUMP JUMPDEST SWAP3 POP PUSH2 0x2711 PUSH1 0x20 DUP6 ADD PUSH2 0x25DE JUMP JUMPDEST SWAP2 POP PUSH1 0x40 DUP5 ADD CALLDATALOAD SWAP1 POP SWAP3 POP SWAP3 POP SWAP3 JUMP JUMPDEST PUSH1 0x60 DUP2 MSTORE PUSH1 0x0 PUSH2 0x2734 PUSH1 0x60 DUP4 ADD DUP7 PUSH2 0x2586 JUMP JUMPDEST DUP5 PUSH1 0x20 DUP5 ADD MSTORE DUP3 DUP2 SUB PUSH1 0x40 DUP5 ADD MSTORE PUSH2 0x274C DUP2 DUP6 PUSH2 0x2586 JUMP JUMPDEST SWAP7 SWAP6 POP POP POP POP POP POP JUMP JUMPDEST PUSH4 0x4E487B71 PUSH1 0xE0 SHL PUSH1 0x0 MSTORE PUSH1 0x41 PUSH1 0x4 MSTORE PUSH1 0x24 PUSH1 0x0 REVERT JUMPDEST PUSH1 0x40 MLOAD PUSH1 0x1F DUP3 ADD PUSH1 0x1F NOT AND DUP2 ADD PUSH1 0x1 PUSH1 0x1 PUSH1 0x40 SHL SUB DUP2 GT DUP3 DUP3 LT OR ISZERO PUSH2 0x2794 JUMPI PUSH2 0x2794 PUSH2 0x2756 JUMP JUMPDEST PUSH1 0x40 MSTORE SWAP2 SWAP1 POP JUMP JUMPDEST PUSH1 0x0 PUSH1 0x1 PUSH1 0x1 PUSH1 0x40 SHL SUB DUP4 GT ISZERO PUSH2 0x27B5 JUMPI PUSH2 0x27B5 PUSH2 0x2756 JUMP JUMPDEST PUSH2 0x27C8 PUSH1 0x1F DUP5 ADD PUSH1 0x1F NOT AND PUSH1 0x20 ADD PUSH2 0x276C JUMP JUMPDEST SWAP1 POP DUP3 DUP2 MSTORE DUP4 DUP4 DUP4 ADD GT ISZERO PUSH2 0x27DC JUMPI PUSH1 0x0 DUP1 REVERT JUMPDEST DUP3 DUP3 PUSH1 0x20 DUP4 ADD CALLDATACOPY PUSH1 0x0 PUSH1 0x20 DUP5 DUP4 ADD ADD MSTORE SWAP4 SWAP3 POP POP POP JUMP JUMPDEST PUSH1 0x0 DUP3 PUSH1 0x1F DUP4 ADD SLT PUSH2 0x2804 JUMPI PUSH1 0x0 DUP1 REVERT JUMPDEST PUSH2 0x255B DUP4 DUP4 CALLDATALOAD PUSH1 0x20 DUP6 ADD PUSH2 0x279C JUMP JUMPDEST PUSH1 0x0 PUSH1 0x1 PUSH1 0x1 PUSH1 0x40 SHL SUB DUP3 GT ISZERO PUSH2 0x282C JUMPI PUSH2 0x282C PUSH2 0x2756 JUMP JUMPDEST POP PUSH1 0x5 SHL PUSH1 0x20 ADD SWAP1 JUMP JUMPDEST PUSH1 0x0 DUP3 PUSH1 0x1F DUP4 ADD SLT PUSH2 0x2847 JUMPI PUSH1 0x0 DUP1 REVERT JUMPDEST DUP2 CALLDATALOAD PUSH1 0x20 PUSH2 0x285C PUSH2 0x2857 DUP4 PUSH2 0x2813 JUMP JUMPDEST PUSH2 0x276C JUMP JUMPDEST DUP3 DUP2 MSTORE PUSH1 0x5 SWAP3 SWAP1 SWAP3 SHL DUP5 ADD DUP2 ADD SWAP2 DUP2 DUP2 ADD SWAP1 DUP7 DUP5 GT ISZERO PUSH2 0x287B JUMPI PUSH1 0x0 DUP1 REVERT JUMPDEST DUP3 DUP7 ADD JUMPDEST DUP5 DUP2 LT ISZERO PUSH2 0x28BA JUMPI DUP1 CALLDATALOAD PUSH1 0x1 PUSH1 0x1 PUSH1 0x40 SHL SUB DUP2 GT ISZERO PUSH2 0x289E JUMPI PUSH1 0x0 DUP1 DUP2 REVERT JUMPDEST PUSH2 0x28AC DUP10 DUP7 DUP4 DUP12 ADD ADD PUSH2 0x27F3 JUMP JUMPDEST DUP5 MSTORE POP SWAP2 DUP4 ADD SWAP2 DUP4 ADD PUSH2 0x287F JUMP JUMPDEST POP SWAP7 SWAP6 POP POP POP POP POP POP JUMP JUMPDEST PUSH1 0x0 DUP1 PUSH1 0x0 DUP1 PUSH1 0x0 PUSH1 0xA0 DUP7 DUP9 SUB SLT ISZERO PUSH2 0x28DD JUMPI PUSH1 0x0 DUP1 REVERT JUMPDEST DUP6 CALLDATALOAD PUSH1 0x1 PUSH1 0x1 PUSH1 0x40 SHL SUB DUP1 DUP3 GT ISZERO PUSH2 0x28F4 JUMPI PUSH1 0x0 DUP1 REVERT JUMPDEST PUSH2 0x2900 DUP10 DUP4 DUP11 ADD PUSH2 0x27F3 JUMP JUMPDEST SWAP7 POP PUSH1 0x20 DUP9 ADD CALLDATALOAD SWAP2 POP DUP1 DUP3 GT ISZERO PUSH2 0x2916 JUMPI PUSH1 0x0 DUP1 REVERT JUMPDEST PUSH2 0x2922 DUP10 DUP4 DUP11 ADD PUSH2 0x27F3 JUMP JUMPDEST SWAP6 POP PUSH1 0x40 DUP9 ADD CALLDATALOAD SWAP5 POP PUSH1 0x60 DUP9 ADD CALLDATALOAD SWAP2 POP DUP1 DUP3 GT ISZERO PUSH2 0x293F JUMPI PUSH1 0x0 DUP1 REVERT JUMPDEST PUSH2 0x294B DUP10 DUP4 DUP11 ADD PUSH2 0x2836 JUMP JUMPDEST SWAP4 POP PUSH1 0x80 DUP9 ADD CALLDATALOAD SWAP2 POP DUP1 DUP3 GT ISZERO PUSH2 0x2961 JUMPI PUSH1 0x0 DUP1 REVERT JUMPDEST POP PUSH2 0x296E DUP9 DUP3 DUP10 ADD PUSH2 0x2836 JUMP JUMPDEST SWAP2 POP POP SWAP3 SWAP6 POP SWAP3 SWAP6 SWAP1 SWAP4 POP JUMP JUMPDEST PUSH1 0x0 PUSH1 0x20 DUP3 DUP5 SUB SLT ISZERO PUSH2 0x298D JUMPI PUSH1 0x0 DUP1 REVERT JUMPDEST PUSH2 0x255B DUP3 PUSH2 0x25DE JUMP JUMPDEST PUSH1 0x0 DUP1 PUSH1 0x0 DUP1 PUSH1 0x0 PUSH1 0x60 DUP7 DUP9 SUB SLT ISZERO PUSH2 0x29AE JUMPI PUSH1 0x0 DUP1 REVERT JUMPDEST PUSH2 0x29B7 DUP7 PUSH2 0x25DE JUMP JUMPDEST SWAP5 POP PUSH1 0x20 DUP7 ADD CALLDATALOAD PUSH1 0x1 PUSH1 0x1 PUSH1 0x40 SHL SUB DUP1 DUP3 GT ISZERO PUSH2 0x26A2 JUMPI PUSH1 0x0 DUP1 REVERT JUMPDEST PUSH1 0x0 DUP1 PUSH1 0x40 DUP4 DUP6 SUB SLT ISZERO PUSH2 0x29E6 JUMPI PUSH1 0x0 DUP1 REVERT JUMPDEST PUSH2 0x29EF DUP4 PUSH2 0x25DE JUMP JUMPDEST SWAP2 POP PUSH1 0x20 DUP4 ADD CALLDATALOAD DUP1 ISZERO ISZERO DUP2 EQ PUSH2 0x2A04 JUMPI PUSH1 0x0 DUP1 REVERT JUMPDEST DUP1 SWAP2 POP POP SWAP3 POP SWAP3 SWAP1 POP JUMP JUMPDEST PUSH1 0x0 DUP1 PUSH1 0x0 DUP1 PUSH1 0x0 DUP1 PUSH1 0x0 PUSH1 0x80 DUP9 DUP11 SUB SLT ISZERO PUSH2 0x2A2A JUMPI PUSH1 0x0 DUP1 REVERT JUMPDEST DUP8 CALLDATALOAD PUSH1 0x1 PUSH1 0x1 PUSH1 0x40 SHL SUB DUP1 DUP3 GT ISZERO PUSH2 0x2A41 JUMPI PUSH1 0x0 DUP1 REVERT JUMPDEST PUSH2 0x2A4D DUP12 DUP4 DUP13 ADD PUSH2 0x2624 JUMP JUMPDEST SWAP1 SWAP10 POP SWAP8 POP PUSH1 0x20 DUP11 ADD CALLDATALOAD SWAP7 POP PUSH1 0x40 DUP11 ADD CALLDATALOAD SWAP2 POP DUP1 DUP3 GT ISZERO PUSH2 0x2A6D JUMPI PUSH1 0x0 DUP1 REVERT JUMPDEST PUSH2 0x2A79 DUP12 DUP4 DUP13 ADD PUSH2 0x2624 JUMP JUMPDEST SWAP1 SWAP7 POP SWAP5 POP PUSH1 0x60 DUP11 ADD CALLDATALOAD SWAP2 POP DUP1 DUP3 GT ISZERO PUSH2 0x2A92 JUMPI PUSH1 0x0 DUP1 REVERT JUMPDEST POP PUSH2 0x2A9F DUP11 DUP3 DUP12 ADD PUSH2 0x2624 JUMP JUMPDEST SWAP9 SWAP12 SWAP8 SWAP11 POP SWAP6 SWAP9 POP SWAP4 SWAP7 SWAP3 SWAP6 SWAP3 SWAP4 POP POP POP JUMP JUMPDEST PUSH1 0x0 DUP1 PUSH1 0x0 DUP1 PUSH1 0x80 DUP6 DUP8 SUB SLT ISZERO PUSH2 0x2AC8 JUMPI PUSH1 0x0 DUP1 REVERT JUMPDEST PUSH2 0x2AD1 DUP6 PUSH2 0x25DE JUMP JUMPDEST SWAP4 POP PUSH2 0x2ADF PUSH1 0x20 DUP7 ADD PUSH2 0x25DE JUMP JUMPDEST SWAP3 POP PUSH1 0x40 DUP6 ADD CALLDATALOAD SWAP2 POP PUSH1 0x60 DUP6 ADD CALLDATALOAD PUSH1 0x1 PUSH1 0x1 PUSH1 0x40 SHL SUB DUP2 GT ISZERO PUSH2 0x2B01 JUMPI PUSH1 0x0 DUP1 REVERT JUMPDEST DUP6 ADD PUSH1 0x1F DUP2 ADD DUP8 SGT PUSH2 0x2B12 JUMPI PUSH1 0x0 DUP1 REVERT JUMPDEST PUSH2 0x2B21 DUP8 DUP3 CALLDATALOAD PUSH1 0x20 DUP5 ADD PUSH2 0x279C JUMP JUMPDEST SWAP2 POP POP SWAP3 SWAP6 SWAP2 SWAP5 POP SWAP3 POP JUMP JUMPDEST PUSH1 0x0 DUP1 PUSH1 0x40 DUP4 DUP6 SUB SLT ISZERO PUSH2 0x2B40 JUMPI PUSH1 0x0 DUP1 REVERT JUMPDEST PUSH2 0x2B49 DUP4 PUSH2 0x25DE JUMP JUMPDEST SWAP2 POP PUSH2 0x2B57 PUSH1 0x20 DUP5 ADD PUSH2 0x25DE JUMP JUMPDEST SWAP1 POP SWAP3 POP SWAP3 SWAP1 POP JUMP JUMPDEST PUSH1 0x80 DUP2 MSTORE PUSH1 0x0 PUSH2 0x2B73 PUSH1 0x80 DUP4 ADD DUP8 PUSH2 0x2586 JUMP JUMPDEST DUP6 PUSH1 0x20 DUP5 ADD MSTORE DUP3 DUP2 SUB PUSH1 0x40 DUP5 ADD MSTORE PUSH2 0x2B8B DUP2 DUP7 PUSH2 0x2586 JUMP JUMPDEST SWAP2 POP POP DUP3 PUSH1 0x60 DUP4 ADD MSTORE SWAP6 SWAP5 POP POP POP POP POP JUMP JUMPDEST PUSH1 0x1 DUP2 DUP2 SHR SWAP1 DUP3 AND DUP1 PUSH2 0x2BB1 JUMPI PUSH1 0x7F DUP3 AND SWAP2 POP JUMPDEST PUSH1 0x20 DUP3 LT DUP2 SUB PUSH2 0x2BD1 JUMPI PUSH4 0x4E487B71 PUSH1 0xE0 SHL PUSH1 0x0 MSTORE PUSH1 0x22 PUSH1 0x4 MSTORE PUSH1 0x24 PUSH1 0x0 REVERT JUMPDEST POP SWAP2 SWAP1 POP JUMP JUMPDEST PUSH4 0x4E487B71 PUSH1 0xE0 SHL PUSH1 0x0 MSTORE PUSH1 0x11 PUSH1 0x4 MSTORE PUSH1 0x24 PUSH1 0x0 REVERT JUMPDEST DUP1 DUP3 ADD DUP1 DUP3 GT ISZERO PUSH2 0x636 JUMPI PUSH2 0x636 PUSH2 0x2BD7 JUMP JUMPDEST PUSH1 0x1F DUP3 GT ISZERO PUSH2 0x80A JUMPI PUSH1 0x0 DUP2 DUP2 MSTORE PUSH1 0x20 DUP2 KECCAK256 PUSH1 0x1F DUP6 ADD PUSH1 0x5 SHR DUP2 ADD PUSH1 0x20 DUP7 LT ISZERO PUSH2 0x2C27 JUMPI POP DUP1 JUMPDEST PUSH1 0x1F DUP6 ADD PUSH1 0x5 SHR DUP3 ADD SWAP2 POP JUMPDEST DUP2 DUP2 LT ISZERO PUSH2 0x10F3 JUMPI DUP3 DUP2 SSTORE PUSH1 0x1 ADD PUSH2 0x2C33 JUMP JUMPDEST DUP2 MLOAD PUSH1 0x1 PUSH1 0x1 PUSH1 0x40 SHL SUB DUP2 GT ISZERO PUSH2 0x2C5F JUMPI PUSH2 0x2C5F PUSH2 0x2756 JUMP JUMPDEST PUSH2 0x2C73 DUP2 PUSH2 0x2C6D DUP5 SLOAD PUSH2 0x2B9D JUMP JUMPDEST DUP5 PUSH2 0x2C00 JUMP JUMPDEST PUSH1 0x20 DUP1 PUSH1 0x1F DUP4 GT PUSH1 0x1 DUP2 EQ PUSH2 0x2CA8 JUMPI PUSH1 0x0 DUP5 ISZERO PUSH2 0x2C90 JUMPI POP DUP6 DUP4 ADD MLOAD JUMPDEST PUSH1 0x0 NOT PUSH1 0x3 DUP7 SWAP1 SHL SHR NOT AND PUSH1 0x1 DUP6 SWAP1 SHL OR DUP6 SSTORE PUSH2 0x10F3 JUMP JUMPDEST PUSH1 0x0 DUP6 DUP2 MSTORE PUSH1 0x20 DUP2 KECCAK256 PUSH1 0x1F NOT DUP7 AND SWAP2 JUMPDEST DUP3 DUP2 LT ISZERO PUSH2 0x2CD7 JUMPI DUP9 DUP7 ADD MLOAD DUP3 SSTORE SWAP5 DUP5 ADD SWAP5 PUSH1 0x1 SWAP1 SWAP2 ADD SWAP1 DUP5 ADD PUSH2 0x2CB8 JUMP JUMPDEST POP DUP6 DUP3 LT ISZERO PUSH2 0x2CF5 JUMPI DUP8 DUP6 ADD MLOAD PUSH1 0x0 NOT PUSH1 0x3 DUP9 SWAP1 SHL PUSH1 0xF8 AND SHR NOT AND DUP2 SSTORE JUMPDEST POP POP POP POP POP PUSH1 0x1 SWAP1 DUP2 SHL ADD SWAP1 SSTORE POP JUMP JUMPDEST PUSH1 0x0 PUSH1 0x1 DUP3 ADD PUSH2 0x2D17 JUMPI PUSH2 0x2D17 PUSH2 0x2BD7 JUMP JUMPDEST POP PUSH1 0x1 ADD SWAP1 JUMP JUMPDEST PUSH1 0x20 DUP1 DUP3 MSTORE PUSH1 0x2D SWAP1 DUP3 ADD MSTORE PUSH32 0x4552433732313A2063616C6C6572206973206E6F7420746F6B656E206F776E65 PUSH1 0x40 DUP3 ADD MSTORE PUSH13 0x1C881BDC88185C1C1C9BDD9959 PUSH1 0x9A SHL PUSH1 0x60 DUP3 ADD MSTORE PUSH1 0x80 ADD SWAP1 JUMP JUMPDEST PUSH4 0x4E487B71 PUSH1 0xE0 SHL PUSH1 0x0 MSTORE PUSH1 0x32 PUSH1 0x4 MSTORE PUSH1 0x24 PUSH1 0x0 REVERT JUMPDEST PUSH1 0x1 PUSH1 0x1 PUSH1 0x40 SHL SUB DUP4 GT ISZERO PUSH2 0x2D98 JUMPI PUSH2 0x2D98 PUSH2 0x2756 JUMP JUMPDEST PUSH2 0x2DAC DUP4 PUSH2 0x2DA6 DUP4 SLOAD PUSH2 0x2B9D JUMP JUMPDEST DUP4 PUSH2 0x2C00 JUMP JUMPDEST PUSH1 0x0 PUSH1 0x1F DUP5 GT PUSH1 0x1 DUP2 EQ PUSH2 0x2DE0 JUMPI PUSH1 0x0 DUP6 ISZERO PUSH2 0x2DC8 JUMPI POP DUP4 DUP3 ADD CALLDATALOAD JUMPDEST PUSH1 0x0 NOT PUSH1 0x3 DUP8 SWAP1 SHL SHR NOT AND PUSH1 0x1 DUP7 SWAP1 SHL OR DUP4 SSTORE PUSH2 0x21C0 JUMP JUMPDEST PUSH1 0x0 DUP4 DUP2 MSTORE PUSH1 0x20 SWAP1 KECCAK256 PUSH1 0x1F NOT DUP7 AND SWAP1 DUP4 JUMPDEST DUP3 DUP2 LT ISZERO PUSH2 0x2E11 JUMPI DUP7 DUP6 ADD CALLDATALOAD DUP3 SSTORE PUSH1 0x20 SWAP5 DUP6 ADD SWAP5 PUSH1 0x1 SWAP1 SWAP3 ADD SWAP2 ADD PUSH2 0x2DF1 JUMP JUMPDEST POP DUP7 DUP3 LT ISZERO PUSH2 0x2E2E JUMPI PUSH1 0x0 NOT PUSH1 0xF8 DUP9 PUSH1 0x3 SHL AND SHR NOT DUP5 DUP8 ADD CALLDATALOAD AND DUP2 SSTORE JUMPDEST POP POP PUSH1 0x1 DUP6 PUSH1 0x1 SHL ADD DUP4 SSTORE POP POP POP POP POP JUMP JUMPDEST DUP1 DUP3 MUL DUP2 ISZERO DUP3 DUP3 DIV DUP5 EQ OR PUSH2 0x636 JUMPI PUSH2 0x636 PUSH2 0x2BD7 JUMP JUMPDEST PUSH1 0x0 DUP3 PUSH1 0x1F DUP4 ADD SLT PUSH2 0x2E68 JUMPI PUSH1 0x0 DUP1 REVERT JUMPDEST DUP2 CALLDATALOAD PUSH1 0x20 PUSH2 0x2E78 PUSH2 0x2857 DUP4 PUSH2 0x2813 JUMP JUMPDEST DUP3 DUP2 MSTORE PUSH1 0x5 SWAP3 SWAP1 SWAP3 SHL DUP5 ADD DUP2 ADD SWAP2 DUP2 DUP2 ADD SWAP1 DUP7 DUP5 GT ISZERO PUSH2 0x2E97 JUMPI PUSH1 0x0 DUP1 REVERT JUMPDEST DUP3 DUP7 ADD JUMPDEST DUP5 DUP2 LT ISZERO PUSH2 0x28BA JUMPI DUP1 CALLDATALOAD DUP4 MSTORE SWAP2 DUP4 ADD SWAP2 DUP4 ADD PUSH2 0x2E9B JUMP JUMPDEST PUSH1 0x0 DUP1 PUSH1 0x0 DUP1 PUSH1 0x0 PUSH1 0xA0 DUP7 DUP9 SUB SLT ISZERO PUSH2 0x2ECA JUMPI PUSH1 0x0 DUP1 REVERT JUMPDEST DUP6 CALLDATALOAD PUSH1 0x1 PUSH1 0x1 PUSH1 0x40 SHL SUB DUP1 DUP3 GT ISZERO PUSH2 0x2EE1 JUMPI PUSH1 0x0 DUP1 REVERT JUMPDEST PUSH2 0x2EED DUP10 DUP4 DUP11 ADD PUSH2 0x2836 JUMP JUMPDEST SWAP7 POP PUSH1 0x20 DUP9 ADD CALLDATALOAD SWAP2 POP DUP1 DUP3 GT ISZERO PUSH2 0x2F03 JUMPI PUSH1 0x0 DUP1 REVERT JUMPDEST PUSH2 0x2F0F DUP10 DUP4 DUP11 ADD PUSH2 0x2836 JUMP JUMPDEST SWAP6 POP PUSH1 0x40 DUP9 ADD CALLDATALOAD SWAP2 POP DUP1 DUP3 GT ISZERO PUSH2 0x2F25 JUMPI PUSH1 0x0 DUP1 REVERT JUMPDEST PUSH2 0x2F31 DUP10 DUP4 DUP11 ADD PUSH2 0x2E57 JUMP JUMPDEST SWAP5 POP PUSH1 0x60 DUP9 ADD CALLDATALOAD SWAP2 POP DUP1 DUP3 GT ISZERO PUSH2 0x293F JUMPI PUSH1 0x0 DUP1 REVERT JUMPDEST PUSH1 0x0 DUP2 SLOAD PUSH2 0x2F54 DUP2 PUSH2 0x2B9D JUMP JUMPDEST PUSH1 0x1 DUP3 DUP2 AND DUP1 ISZERO PUSH2 0x2F6C JUMPI PUSH1 0x1 DUP2 EQ PUSH2 0x2F81 JUMPI PUSH2 0x2FB0 JUMP JUMPDEST PUSH1 0xFF NOT DUP5 AND DUP8 MSTORE DUP3 ISZERO ISZERO DUP4 MUL DUP8 ADD SWAP5 POP PUSH2 0x2FB0 JUMP JUMPDEST DUP6 PUSH1 0x0 MSTORE PUSH1 0x20 DUP1 PUSH1 0x0 KECCAK256 PUSH1 0x0 JUMPDEST DUP6 DUP2 LT ISZERO PUSH2 0x2FA7 JUMPI DUP2 SLOAD DUP11 DUP3 ADD MSTORE SWAP1 DUP5 ADD SWAP1 DUP3 ADD PUSH2 0x2F8E JUMP JUMPDEST POP POP POP DUP3 DUP8 ADD SWAP5 POP JUMPDEST POP POP POP POP SWAP3 SWAP2 POP POP JUMP JUMPDEST PUSH16 0x3D901139B2B1BA34B7B724B2111D1011 PUSH1 0x81 SHL DUP2 MSTORE DUP4 MLOAD PUSH1 0x0 SWAP1 PUSH2 0x2FE6 DUP2 PUSH1 0x10 DUP6 ADD PUSH1 0x20 DUP10 ADD PUSH2 0x2562 JUMP JUMPDEST PUSH19 0x1116101139B2B1BA34B7B72730B6B2911D1011 PUSH1 0x69 SHL PUSH1 0x10 SWAP2 DUP5 ADD SWAP2 DUP3 ADD MSTORE PUSH2 0x3013 PUSH1 0x23 DUP3 ADD DUP7 PUSH2 0x2F47 JUMP JUMPDEST PUSH20 0x1116101139B2B1BA34B7B724B6B0B3B2911D1011 PUSH1 0x61 SHL DUP2 MSTORE SWAP1 POP PUSH2 0x303C PUSH1 0x14 DUP3 ADD DUP6 PUSH2 0x2F47 JUMP JUMPDEST PUSH16 0x222C20226368617074657273223A205B PUSH1 0x80 SHL DUP2 MSTORE PUSH1 0x10 ADD SWAP7 SWAP6 POP POP POP POP POP POP JUMP JUMPDEST PUSH1 0x0 DUP6 MLOAD PUSH2 0x3071 DUP2 DUP5 PUSH1 0x20 DUP11 ADD PUSH2 0x2562 JUMP JUMPDEST PUSH16 0x3D901131B430B83A32B924B2111D1011 PUSH1 0x81 SHL SWAP1 DUP4 ADD SWAP1 DUP2 MSTORE DUP6 MLOAD PUSH2 0x309E DUP2 PUSH1 0x10 DUP5 ADD PUSH1 0x20 DUP11 ADD PUSH2 0x2562 JUMP JUMPDEST PUSH19 0x1116101131B430B83A32B92730B6B2911D1011 PUSH1 0x69 SHL PUSH1 0x10 SWAP3 SWAP1 SWAP2 ADD SWAP2 DUP3 ADD MSTORE PUSH2 0x30CC PUSH1 0x23 DUP3 ADD DUP7 PUSH2 0x2F47 JUMP JUMPDEST PUSH20 0x1116101131B430B83A32B924B6B0B3B2911D1011 PUSH1 0x61 SHL DUP2 MSTORE SWAP1 POP PUSH2 0x30F5 PUSH1 0x14 DUP3 ADD DUP6 PUSH2 0x2F47 JUMP JUMPDEST PUSH13 0x222C20227061676573223A205B PUSH1 0x98 SHL DUP2 MSTORE PUSH1 0xD ADD SWAP8 SWAP7 POP POP POP POP POP POP POP JUMP JUMPDEST PUSH1 0x0 DUP6 MLOAD PUSH2 0x3128 DUP2 DUP5 PUSH1 0x20 DUP11 ADD PUSH2 0x2562 JUMP JUMPDEST PUSH13 0x3D90113830B3B2A4B2111D1011 PUSH1 0x99 SHL SWAP1 DUP4 ADD SWAP1 DUP2 MSTORE DUP6 MLOAD PUSH2 0x3152 DUP2 PUSH1 0xD DUP5 ADD PUSH1 0x20 DUP11 ADD PUSH2 0x2562 JUMP JUMPDEST PUSH16 0x111610113830B3B2A730B6B2911D1011 PUSH1 0x81 SHL PUSH1 0xD SWAP3 SWAP1 SWAP2 ADD SWAP2 DUP3 ADD MSTORE PUSH2 0x317D PUSH1 0x1D DUP3 ADD DUP7 PUSH2 0x2F47 JUMP JUMPDEST PUSH19 0x111610113830B3B2A1B7B73A32B73A111D1011 PUSH1 0x69 SHL DUP2 MSTORE SWAP1 POP PUSH2 0x31A5 PUSH1 0x13 DUP3 ADD DUP6 PUSH2 0x2F47 JUMP JUMPDEST PUSH2 0x227D PUSH1 0xF0 SHL DUP2 MSTORE PUSH1 0x2 ADD SWAP8 SWAP7 POP POP POP POP POP POP POP JUMP JUMPDEST DUP2 DUP2 SUB DUP2 DUP2 GT ISZERO PUSH2 0x636 JUMPI PUSH2 0x636 PUSH2 0x2BD7 JUMP JUMPDEST PUSH1 0x0 DUP3 MLOAD PUSH2 0x31E0 DUP2 DUP5 PUSH1 0x20 DUP8 ADD PUSH2 0x2562 JUMP JUMPDEST PUSH1 0xB PUSH1 0xFA SHL SWAP3 ADD SWAP2 DUP3 MSTORE POP PUSH1 0x1 ADD SWAP2 SWAP1 POP JUMP JUMPDEST PUSH1 0x0 DUP4 MLOAD PUSH2 0x3205 DUP2 DUP5 PUSH1 0x20 DUP9 ADD PUSH2 0x2562 JUMP JUMPDEST DUP4 MLOAD SWAP1 DUP4 ADD SWAP1 PUSH2 0x3219 DUP2 DUP4 PUSH1 0x20 DUP9 ADD PUSH2 0x2562 JUMP JUMPDEST PUSH1 0x5D PUSH1 0xF8 SHL SWAP2 ADD SWAP1 DUP2 MSTORE PUSH1 0x1 ADD SWAP5 SWAP4 POP POP POP POP JUMP JUMPDEST PUSH1 0x0 DUP4 MLOAD PUSH2 0x3240 DUP2 DUP5 PUSH1 0x20 DUP9 ADD PUSH2 0x2562 JUMP JUMPDEST DUP4 MLOAD SWAP1 DUP4 ADD SWAP1 PUSH2 0x3254 DUP2 DUP4 PUSH1 0x20 DUP9 ADD PUSH2 0x2562 JUMP JUMPDEST ADD SWAP5 SWAP4 POP POP POP POP JUMP JUMPDEST PUSH1 0x0 DUP3 MLOAD PUSH2 0x326F DUP2 DUP5 PUSH1 0x20 DUP8 ADD PUSH2 0x2562 JUMP JUMPDEST PUSH2 0x5D7D PUSH1 0xF0 SHL SWAP3 ADD SWAP2 DUP3 MSTORE POP PUSH1 0x2 ADD SWAP2 SWAP1 POP JUMP JUMPDEST PUSH1 0x20 DUP1 DUP3 MSTORE PUSH1 0x25 SWAP1 DUP3 ADD MSTORE PUSH32 0x4552433732313A207472616E736665722066726F6D20696E636F727265637420 PUSH1 0x40 DUP3 ADD MSTORE PUSH5 0x37BBB732B9 PUSH1 0xD9 SHL PUSH1 0x60 DUP3 ADD MSTORE PUSH1 0x80 ADD SWAP1 JUMP JUMPDEST PUSH1 0x20 DUP1 DUP3 MSTORE PUSH1 0x2B SWAP1 DUP3 ADD MSTORE PUSH32 0x496E697469616C697A61626C653A20636F6E7472616374206973206E6F742069 PUSH1 0x40 DUP3 ADD MSTORE PUSH11 0x6E697469616C697A696E67 PUSH1 0xA8 SHL PUSH1 0x60 DUP3 ADD MSTORE PUSH1 0x80 ADD SWAP1 JUMP JUMPDEST PUSH1 0x20 DUP1 DUP3 MSTORE PUSH1 0x32 SWAP1 DUP3 ADD MSTORE PUSH32 0x4552433732313A207472616E7366657220746F206E6F6E204552433732315265 PUSH1 0x40 DUP3 ADD MSTORE PUSH18 0x31B2B4BB32B91034B6B83632B6B2B73A32B9 PUSH1 0x71 SHL PUSH1 0x60 DUP3 ADD MSTORE PUSH1 0x80 ADD SWAP1 JUMP JUMPDEST PUSH4 0x4E487B71 PUSH1 0xE0 SHL PUSH1 0x0 MSTORE PUSH1 0x12 PUSH1 0x4 MSTORE PUSH1 0x24 PUSH1 0x0 REVERT JUMPDEST PUSH1 0x0 DUP3 PUSH2 0x338A JUMPI PUSH2 0x338A PUSH2 0x3365 JUMP JUMPDEST POP DIV SWAP1 JUMP JUMPDEST PUSH1 0x0 DUP3 PUSH2 0x339E JUMPI PUSH2 0x339E PUSH2 0x3365 JUMP JUMPDEST POP MOD SWAP1 JUMP JUMPDEST PUSH1 0xFF DUP2 DUP2 AND DUP4 DUP3 AND ADD SWAP1 DUP2 GT ISZERO PUSH2 0x636 JUMPI PUSH2 0x636 PUSH2 0x2BD7 JUMP JUMPDEST PUSH1 0x1 PUSH1 0x1 PUSH1 0xA0 SHL SUB DUP6 DUP2 AND DUP3 MSTORE DUP5 AND PUSH1 0x20 DUP3 ADD MSTORE PUSH1 0x40 DUP2 ADD DUP4 SWAP1 MSTORE PUSH1 0x80 PUSH1 0x60 DUP3 ADD DUP2 SWAP1 MSTORE PUSH1 0x0 SWAP1 PUSH2 0x274C SWAP1 DUP4 ADD DUP5 PUSH2 0x2586 JUMP JUMPDEST PUSH1 0x0 PUSH1 0x20 DUP3 DUP5 SUB SLT ISZERO PUSH2 0x3401 JUMPI PUSH1 0x0 DUP1 REVERT JUMPDEST DUP2 MLOAD PUSH2 0x255B DUP2 PUSH2 0x2528 JUMP JUMPDEST PUSH4 0x4E487B71 PUSH1 0xE0 SHL PUSH1 0x0 MSTORE PUSH1 0x31 PUSH1 0x4 MSTORE PUSH1 0x24 PUSH1 0x0 REVERT INVALID LOG2 PUSH5 0x6970667358 0x22 SLT KECCAK256 PUSH27 0xA3119948350F8392A40BE5499B9E00C0F793008667EEFAC3D9880C DUP9 CALL PUSH19 0x4764736F6C6343000812003300000000000000 "},"methodIdentifiers":{"addChapter(string,string,uint256,string[],string[])":"5b92cc8a","addPage(uint256,string,string)":"0f1f0850","addSection(string,uint256,string,bytes)":"a240d4aa","approve(address,uint256)":"095ea7b3","balanceOf(address)":"70a08231","chapters(uint256)":"f40adb12","getApproved(uint256)":"081812fc","initialize(address,string,string)":"90657147","isApprovedForAll(address,address)":"e985e9c5","mint(uint256)":"a0712d68","minterOwnedTokens(address,uint256)":"db010ae4","name()":"06fdde03","owner()":"8da5cb5b","ownerOf(uint256)":"6352211e","publicationAuthor()":"527c4165","publicationCoverImage()":"ccfea8f0","publicationName()":"86b4e2a0","renounceOwnership()":"715018a6","safeTransferFrom(address,address,uint256)":"42842e0e","safeTransferFrom(address,address,uint256,bytes)":"b88d4fde","sections(uint256)":"35603440","setApprovalForAll(address,bool)":"a22cb465","supportsInterface(bytes4)":"01ffc9a7","symbol()":"95d89b41","tokenByIndex(uint256)":"4f6ccce7","tokenIdToMinter(uint256)":"2218f119","tokenOfOwnerByIndex(address,uint256)":"2f745c59","tokenURI(uint256)":"c87b56dd","totalSupply()":"18160ddd","transferFrom(address,address,uint256)":"23b872dd","transferOwnership(address)":"f2fde38b"}},"storageLayout":{"storage":[{"astId":138,"contract":"contracts/Publius.sol:Publius","label":"_initialized","offset":0,"slot":"0","type":"t_uint8"},{"astId":141,"contract":"contracts/Publius.sol:Publius","label":"_initializing","offset":1,"slot":"0","type":"t_bool"},{"astId":2143,"contract":"contracts/Publius.sol:Publius","label":"__gap","offset":0,"slot":"1","type":"t_array(t_uint256)50_storage"},{"astId":2362,"contract":"contracts/Publius.sol:Publius","label":"__gap","offset":0,"slot":"51","type":"t_array(t_uint256)50_storage"},{"astId":329,"contract":"contracts/Publius.sol:Publius","label":"_name","offset":0,"slot":"101","type":"t_string_storage"},{"astId":331,"contract":"contracts/Publius.sol:Publius","label":"_symbol","offset":0,"slot":"102","type":"t_string_storage"},{"astId":335,"contract":"contracts/Publius.sol:Publius","label":"_owners","offset":0,"slot":"103","type":"t_mapping(t_uint256,t_address)"},{"astId":339,"contract":"contracts/Publius.sol:Publius","label":"_balances","offset":0,"slot":"104","type":"t_mapping(t_address,t_uint256)"},{"astId":343,"contract":"contracts/Publius.sol:Publius","label":"_tokenApprovals","offset":0,"slot":"105","type":"t_mapping(t_uint256,t_address)"},{"astId":349,"contract":"contracts/Publius.sol:Publius","label":"_operatorApprovals","offset":0,"slot":"106","type":"t_mapping(t_address,t_mapping(t_address,t_bool))"},{"astId":1251,"contract":"contracts/Publius.sol:Publius","label":"__gap","offset":0,"slot":"107","type":"t_array(t_uint256)44_storage"},{"astId":1416,"contract":"contracts/Publius.sol:Publius","label":"_ownedTokens","offset":0,"slot":"151","type":"t_mapping(t_address,t_mapping(t_uint256,t_uint256))"},{"astId":1420,"contract":"contracts/Publius.sol:Publius","label":"_ownedTokensIndex","offset":0,"slot":"152","type":"t_mapping(t_uint256,t_uint256)"},{"astId":1423,"contract":"contracts/Publius.sol:Publius","label":"_allTokens","offset":0,"slot":"153","type":"t_array(t_uint256)dyn_storage"},{"astId":1427,"contract":"contracts/Publius.sol:Publius","label":"_allTokensIndex","offset":0,"slot":"154","type":"t_mapping(t_uint256,t_uint256)"},{"astId":1759,"contract":"contracts/Publius.sol:Publius","label":"__gap","offset":0,"slot":"155","type":"t_array(t_uint256)46_storage"},{"astId":10,"contract":"contracts/Publius.sol:Publius","label":"_owner","offset":0,"slot":"201","type":"t_address"},{"astId":130,"contract":"contracts/Publius.sol:Publius","label":"__gap","offset":0,"slot":"202","type":"t_array(t_uint256)49_storage"},{"astId":4260,"contract":"contracts/Publius.sol:Publius","label":"tokenIdToMinter","offset":0,"slot":"251","type":"t_mapping(t_uint256,t_address)"},{"astId":4265,"contract":"contracts/Publius.sol:Publius","label":"minterOwnedTokens","offset":0,"slot":"252","type":"t_mapping(t_address,t_array(t_uint256)dyn_storage)"},{"astId":4270,"contract":"contracts/Publius.sol:Publius","label":"sections","offset":0,"slot":"253","type":"t_mapping(t_uint256,t_struct(Section)4293_storage)"},{"astId":4275,"contract":"contracts/Publius.sol:Publius","label":"chapters","offset":0,"slot":"254","type":"t_mapping(t_uint256,t_struct(Chapter)4307_storage)"},{"astId":4277,"contract":"contracts/Publius.sol:Publius","label":"publicationName","offset":0,"slot":"255","type":"t_string_storage"},{"astId":4279,"contract":"contracts/Publius.sol:Publius","label":"publicationAuthor","offset":0,"slot":"256","type":"t_address"},{"astId":4281,"contract":"contracts/Publius.sol:Publius","label":"publicationCoverImage","offset":0,"slot":"257","type":"t_string_storage"},{"astId":4283,"contract":"contracts/Publius.sol:Publius","label":"sectionCount","offset":0,"slot":"258","type":"t_uint256"}],"types":{"t_address":{"encoding":"inplace","label":"address","numberOfBytes":"20"},"t_array(t_uint256)44_storage":{"base":"t_uint256","encoding":"inplace","label":"uint256[44]","numberOfBytes":"1408"},"t_array(t_uint256)46_storage":{"base":"t_uint256","encoding":"inplace","label":"uint256[46]","numberOfBytes":"1472"},"t_array(t_uint256)49_storage":{"base":"t_uint256","encoding":"inplace","label":"uint256[49]","numberOfBytes":"1568"},"t_array(t_uint256)50_storage":{"base":"t_uint256","encoding":"inplace","label":"uint256[50]","numberOfBytes":"1600"},"t_array(t_uint256)dyn_storage":{"base":"t_uint256","encoding":"dynamic_array","label":"uint256[]","numberOfBytes":"32"},"t_bool":{"encoding":"inplace","label":"bool","numberOfBytes":"1"},"t_mapping(t_address,t_array(t_uint256)dyn_storage)":{"encoding":"mapping","key":"t_address","label":"mapping(address => uint256[])","numberOfBytes":"32","value":"t_array(t_uint256)dyn_storage"},"t_mapping(t_address,t_bool)":{"encoding":"mapping","key":"t_address","label":"mapping(address => bool)","numberOfBytes":"32","value":"t_bool"},"t_mapping(t_address,t_mapping(t_address,t_bool))":{"encoding":"mapping","key":"t_address","label":"mapping(address => mapping(address => bool))","numberOfBytes":"32","value":"t_mapping(t_address,t_bool)"},"t_mapping(t_address,t_mapping(t_uint256,t_uint256))":{"encoding":"mapping","key":"t_address","label":"mapping(address => mapping(uint256 => uint256))","numberOfBytes":"32","value":"t_mapping(t_uint256,t_uint256)"},"t_mapping(t_address,t_uint256)":{"encoding":"mapping","key":"t_address","label":"mapping(address => uint256)","numberOfBytes":"32","value":"t_uint256"},"t_mapping(t_uint256,t_address)":{"encoding":"mapping","key":"t_uint256","label":"mapping(uint256 => address)","numberOfBytes":"32","value":"t_address"},"t_mapping(t_uint256,t_struct(Chapter)4307_storage)":{"encoding":"mapping","key":"t_uint256","label":"mapping(uint256 => struct Publius.Chapter)","numberOfBytes":"32","value":"t_struct(Chapter)4307_storage"},"t_mapping(t_uint256,t_struct(Page)4314_storage)":{"encoding":"mapping","key":"t_uint256","label":"mapping(uint256 => struct Publius.Page)","numberOfBytes":"32","value":"t_struct(Page)4314_storage"},"t_mapping(t_uint256,t_struct(Section)4293_storage)":{"encoding":"mapping","key":"t_uint256","label":"mapping(uint256 => struct Publius.Section)","numberOfBytes":"32","value":"t_struct(Section)4293_storage"},"t_mapping(t_uint256,t_uint256)":{"encoding":"mapping","key":"t_uint256","label":"mapping(uint256 => uint256)","numberOfBytes":"32","value":"t_uint256"},"t_string_storage":{"encoding":"bytes","label":"string","numberOfBytes":"32"},"t_struct(Chapter)4307_storage":{"encoding":"inplace","label":"struct Publius.Chapter","members":[{"astId":4295,"contract":"contracts/Publius.sol:Publius","label":"chapterName","offset":0,"slot":"0","type":"t_string_storage"},{"astId":4297,"contract":"contracts/Publius.sol:Publius","label":"chapterId","offset":0,"slot":"1","type":"t_uint256"},{"astId":4299,"contract":"contracts/Publius.sol:Publius","label":"chapterImage","offset":0,"slot":"2","type":"t_string_storage"},{"astId":4304,"contract":"contracts/Publius.sol:Publius","label":"pages","offset":0,"slot":"3","type":"t_mapping(t_uint256,t_struct(Page)4314_storage)"},{"astId":4306,"contract":"contracts/Publius.sol:Publius","label":"pageCount","offset":0,"slot":"4","type":"t_uint256"}],"numberOfBytes":"160"},"t_struct(Page)4314_storage":{"encoding":"inplace","label":"struct Publius.Page","members":[{"astId":4309,"contract":"contracts/Publius.sol:Publius","label":"pageName","offset":0,"slot":"0","type":"t_string_storage"},{"astId":4311,"contract":"contracts/Publius.sol:Publius","label":"pageId","offset":0,"slot":"1","type":"t_uint256"},{"astId":4313,"contract":"contracts/Publius.sol:Publius","label":"pageContent","offset":0,"slot":"2","type":"t_string_storage"}],"numberOfBytes":"96"},"t_struct(Section)4293_storage":{"encoding":"inplace","label":"struct Publius.Section","members":[{"astId":4285,"contract":"contracts/Publius.sol:Publius","label":"sectionName","offset":0,"slot":"0","type":"t_string_storage"},{"astId":4287,"contract":"contracts/Publius.sol:Publius","label":"sectionId","offset":0,"slot":"1","type":"t_uint256"},{"astId":4289,"contract":"contracts/Publius.sol:Publius","label":"sectionImage","offset":0,"slot":"2","type":"t_string_storage"},{"astId":4292,"contract":"contracts/Publius.sol:Publius","label":"chapters","offset":0,"slot":"3","type":"t_array(t_uint256)dyn_storage"}],"numberOfBytes":"128"},"t_uint256":{"encoding":"inplace","label":"uint256","numberOfBytes":"32"},"t_uint8":{"encoding":"inplace","label":"uint8","numberOfBytes":"1"}}}}}}