{"contracts/Publius.sol":{"Publius":{"abi":[{"anonymous":false,"inputs":[{"indexed":true,"internalType":"address","name":"owner","type":"address"},{"indexed":true,"internalType":"address","name":"approved","type":"address"},{"indexed":true,"internalType":"uint256","name":"tokenId","type":"uint256"}],"name":"Approval","type":"event"},{"anonymous":false,"inputs":[{"indexed":true,"internalType":"address","name":"owner","type":"address"},{"indexed":true,"internalType":"address","name":"operator","type":"address"},{"indexed":false,"internalType":"bool","name":"approved","type":"bool"}],"name":"ApprovalForAll","type":"event"},{"anonymous":false,"inputs":[{"indexed":false,"internalType":"uint8","name":"version","type":"uint8"}],"name":"Initialized","type":"event"},{"anonymous":false,"inputs":[{"indexed":true,"internalType":"address","name":"previousOwner","type":"address"},{"indexed":true,"internalType":"address","name":"newOwner","type":"address"}],"name":"OwnershipTransferred","type":"event"},{"anonymous":false,"inputs":[{"indexed":true,"internalType":"address","name":"from","type":"address"},{"indexed":true,"internalType":"address","name":"to","type":"address"},{"indexed":true,"internalType":"uint256","name":"tokenId","type":"uint256"}],"name":"Transfer","type":"event"},{"inputs":[{"internalType":"string","name":"_chapterName","type":"string"},{"internalType":"string","name":"_chapterImage","type":"string"},{"internalType":"uint256","name":"_chapterId","type":"uint256"},{"internalType":"string[]","name":"_pageNames","type":"string[]"},{"internalType":"string[]","name":"_pageContent","type":"string[]"}],"name":"addChapter","outputs":[],"stateMutability":"nonpayable","type":"function"},{"inputs":[{"internalType":"uint256","name":"_chapter","type":"uint256"},{"internalType":"string","name":"_pageName","type":"string"},{"internalType":"string","name":"_pageContent","type":"string"}],"name":"addPage","outputs":[],"stateMutability":"nonpayable","type":"function"},{"inputs":[{"internalType":"bytes","name":"_encodedSection","type":"bytes"}],"name":"addSection","outputs":[],"stateMutability":"nonpayable","type":"function"},{"inputs":[{"internalType":"address","name":"to","type":"address"},{"internalType":"uint256","name":"tokenId","type":"uint256"}],"name":"approve","outputs":[],"stateMutability":"nonpayable","type":"function"},{"inputs":[{"internalType":"address","name":"owner","type":"address"}],"name":"balanceOf","outputs":[{"internalType":"uint256","name":"","type":"uint256"}],"stateMutability":"view","type":"function"},{"inputs":[{"internalType":"uint256","name":"","type":"uint256"}],"name":"chapters","outputs":[{"internalType":"string","name":"chapterName","type":"string"},{"internalType":"uint256","name":"chapterId","type":"uint256"},{"internalType":"string","name":"chapterImage","type":"string"},{"internalType":"uint256","name":"pageCount","type":"uint256"}],"stateMutability":"view","type":"function"},{"inputs":[{"internalType":"uint256","name":"tokenId","type":"uint256"}],"name":"getApproved","outputs":[{"internalType":"address","name":"","type":"address"}],"stateMutability":"view","type":"function"},{"inputs":[{"internalType":"uint256","name":"_chapter","type":"uint256"},{"internalType":"uint256","name":"_pageId","type":"uint256"}],"name":"getPage","outputs":[{"components":[{"internalType":"string","name":"pageName","type":"string"},{"internalType":"uint256","name":"pageId","type":"uint256"},{"internalType":"string","name":"pageContent","type":"string"}],"internalType":"struct Publius.Page","name":"","type":"tuple"}],"stateMutability":"view","type":"function"},{"inputs":[{"internalType":"address","name":"_publicationAuthor","type":"address"},{"internalType":"string","name":"_publicationName","type":"string"},{"internalType":"string","name":"_publicationCoverImage","type":"string"}],"name":"initialize","outputs":[],"stateMutability":"nonpayable","type":"function"},{"inputs":[{"internalType":"address","name":"owner","type":"address"},{"internalType":"address","name":"operator","type":"address"}],"name":"isApprovedForAll","outputs":[{"internalType":"bool","name":"","type":"bool"}],"stateMutability":"view","type":"function"},{"inputs":[{"internalType":"uint256","name":"_amount","type":"uint256"}],"name":"mint","outputs":[],"stateMutability":"payable","type":"function"},{"inputs":[{"internalType":"address","name":"","type":"address"},{"internalType":"uint256","name":"","type":"uint256"}],"name":"minterOwnedTokens","outputs":[{"internalType":"uint256","name":"","type":"uint256"}],"stateMutability":"view","type":"function"},{"inputs":[],"name":"name","outputs":[{"internalType":"string","name":"","type":"string"}],"stateMutability":"view","type":"function"},{"inputs":[],"name":"owner","outputs":[{"internalType":"address","name":"","type":"address"}],"stateMutability":"view","type":"function"},{"inputs":[{"internalType":"uint256","name":"tokenId","type":"uint256"}],"name":"ownerOf","outputs":[{"internalType":"address","name":"","type":"address"}],"stateMutability":"view","type":"function"},{"inputs":[],"name":"publicationAuthor","outputs":[{"internalType":"address","name":"","type":"address"}],"stateMutability":"view","type":"function"},{"inputs":[],"name":"publicationCoverImage","outputs":[{"internalType":"string","name":"","type":"string"}],"stateMutability":"view","type":"function"},{"inputs":[],"name":"publicationName","outputs":[{"internalType":"string","name":"","type":"string"}],"stateMutability":"view","type":"function"},{"inputs":[],"name":"renounceOwnership","outputs":[],"stateMutability":"nonpayable","type":"function"},{"inputs":[{"internalType":"address","name":"from","type":"address"},{"internalType":"address","name":"to","type":"address"},{"internalType":"uint256","name":"tokenId","type":"uint256"}],"name":"safeTransferFrom","outputs":[],"stateMutability":"nonpayable","type":"function"},{"inputs":[{"internalType":"address","name":"from","type":"address"},{"internalType":"address","name":"to","type":"address"},{"internalType":"uint256","name":"tokenId","type":"uint256"},{"internalType":"bytes","name":"data","type":"bytes"}],"name":"safeTransferFrom","outputs":[],"stateMutability":"nonpayable","type":"function"},{"inputs":[{"internalType":"uint256","name":"","type":"uint256"}],"name":"sections","outputs":[{"internalType":"string","name":"sectionName","type":"string"},{"internalType":"uint256","name":"sectionId","type":"uint256"},{"internalType":"string","name":"sectionImage","type":"string"}],"stateMutability":"view","type":"function"},{"inputs":[{"internalType":"address","name":"operator","type":"address"},{"internalType":"bool","name":"approved","type":"bool"}],"name":"setApprovalForAll","outputs":[],"stateMutability":"nonpayable","type":"function"},{"inputs":[{"internalType":"bytes4","name":"interfaceId","type":"bytes4"}],"name":"supportsInterface","outputs":[{"internalType":"bool","name":"","type":"bool"}],"stateMutability":"view","type":"function"},{"inputs":[],"name":"symbol","outputs":[{"internalType":"string","name":"","type":"string"}],"stateMutability":"view","type":"function"},{"inputs":[{"internalType":"uint256","name":"index","type":"uint256"}],"name":"tokenByIndex","outputs":[{"internalType":"uint256","name":"","type":"uint256"}],"stateMutability":"view","type":"function"},{"inputs":[{"internalType":"uint256","name":"","type":"uint256"}],"name":"tokenIdToMinter","outputs":[{"internalType":"address","name":"","type":"address"}],"stateMutability":"view","type":"function"},{"inputs":[{"internalType":"address","name":"owner","type":"address"},{"internalType":"uint256","name":"index","type":"uint256"}],"name":"tokenOfOwnerByIndex","outputs":[{"internalType":"uint256","name":"","type":"uint256"}],"stateMutability":"view","type":"function"},{"inputs":[{"internalType":"uint256","name":"tokenId","type":"uint256"}],"name":"tokenURI","outputs":[{"internalType":"string","name":"","type":"string"}],"stateMutability":"view","type":"function"},{"inputs":[],"name":"totalSupply","outputs":[{"internalType":"uint256","name":"","type":"uint256"}],"stateMutability":"view","type":"function"},{"inputs":[{"internalType":"address","name":"from","type":"address"},{"internalType":"address","name":"to","type":"address"},{"internalType":"uint256","name":"tokenId","type":"uint256"}],"name":"transferFrom","outputs":[],"stateMutability":"nonpayable","type":"function"},{"inputs":[{"internalType":"address","name":"newOwner","type":"address"}],"name":"transferOwnership","outputs":[],"stateMutability":"nonpayable","type":"function"}],"evm":{"bytecode":{"linkReferences":{},"object":"608060405234801561001057600080fd5b50613901806100206000396000f3fe6080604052600436106101e35760003560e01c8063715018a611610102578063c87b56dd11610095578063e985e9c511610064578063e985e9c514610590578063f2fde38b146105d9578063f40adb12146105f9578063f700f9031461062957600080fd5b8063c87b56dd1461050e578063ccfea8f01461052e578063cd1a2e9114610543578063db010ae41461057057600080fd5b806395d89b41116100d157806395d89b41146104a6578063a0712d68146104bb578063a22cb465146104ce578063b88d4fde146104ee57600080fd5b8063715018a61461043e57806386b4e2a0146104535780638da5cb5b14610468578063906571471461048657600080fd5b80632f745c591161017a578063527c416511610149578063527c4165146103bd5780635b92cc8a146103de5780636352211e146103fe57806370a082311461041e57600080fd5b80632f745c591461032e578063356034401461034e57806342842e0e1461037d5780634f6ccce71461039d57600080fd5b80630f1f0850116101b65780630f1f08501461029957806318160ddd146102b95780632218f119146102d857806323b872dd1461030e57600080fd5b806301ffc9a7146101e857806306fdde031461021d578063081812fc1461023f578063095ea7b314610277575b600080fd5b3480156101f457600080fd5b50610208610203366004612834565b610649565b60405190151581526020015b60405180910390f35b34801561022957600080fd5b50610232610674565b60405161021491906128a8565b34801561024b57600080fd5b5061025f61025a3660046128bb565b610706565b6040516001600160a01b039091168152602001610214565b34801561028357600080fd5b506102976102923660046128f0565b61072d565b005b3480156102a557600080fd5b506102976102b4366004612962565b610847565b3480156102c557600080fd5b506099545b604051908152602001610214565b3480156102e457600080fd5b5061025f6102f33660046128bb565b60fb602052600090815260409020546001600160a01b031681565b34801561031a57600080fd5b506102976103293660046129db565b610a11565b34801561033a57600080fd5b506102ca6103493660046128f0565b610a42565b34801561035a57600080fd5b5061036e6103693660046128bb565b610ad8565b60405161021493929190612a17565b34801561038957600080fd5b506102976103983660046129db565b610c0a565b3480156103a957600080fd5b506102ca6103b83660046128bb565b610c25565b3480156103c957600080fd5b506101005461025f906001600160a01b031681565b3480156103ea57600080fd5b506102976103f9366004612bbb565b610cb8565b34801561040a57600080fd5b5061025f6104193660046128bb565b610e20565b34801561042a57600080fd5b506102ca610439366004612c71565b610e80565b34801561044a57600080fd5b50610297610f06565b34801561045f57600080fd5b50610232610f1a565b34801561047457600080fd5b5060c9546001600160a01b031661025f565b34801561049257600080fd5b506102976104a1366004612c8c565b610fa8565b3480156104b257600080fd5b5061023261115e565b6102976104c93660046128bb565b61116d565b3480156104da57600080fd5b506102976104e9366004612cc9565b611241565b3480156104fa57600080fd5b50610297610509366004612d05565b61124c565b34801561051a57600080fd5b506102326105293660046128bb565b611284565b34801561053a57600080fd5b50610232611682565b34801561054f57600080fd5b5061056361055e366004612d80565b611690565b6040516102149190612da2565b34801561057c57600080fd5b506102ca61058b3660046128f0565b611815565b34801561059c57600080fd5b506102086105ab366004612dee565b6001600160a01b039182166000908152606a6020908152604080832093909416825291909152205460ff1690565b3480156105e557600080fd5b506102976105f4366004612c71565b611846565b34801561060557600080fd5b506106196106143660046128bb565b6118bf565b6040516102149493929190612e21565b34801561063557600080fd5b50610297610644366004612e5e565b6119f7565b60006001600160e01b0319821663780e9d6360e01b148061066e575061066e82611c20565b92915050565b60606065805461068390612e9f565b80601f01602080910402602001604051908101604052809291908181526020018280546106af90612e9f565b80156106fc5780601f106106d1576101008083540402835291602001916106fc565b820191906000526020600020905b8154815290600101906020018083116106df57829003601f168201915b5050505050905090565b600061071182611c70565b506000908152606960205260409020546001600160a01b031690565b600061073882610e20565b9050806001600160a01b0316836001600160a01b0316036107aa5760405162461bcd60e51b815260206004820152602160248201527f4552433732313a20617070726f76616c20746f2063757272656e74206f776e656044820152603960f91b60648201526084015b60405180910390fd5b336001600160a01b03821614806107c657506107c681336105ab565b6108385760405162461bcd60e51b815260206004820152603d60248201527f4552433732313a20617070726f76652063616c6c6572206973206e6f7420746f60448201527f6b656e206f776e6572206f7220617070726f76656420666f7220616c6c00000060648201526084016107a1565b6108428383611ccf565b505050565b61084f611d3d565b60405160200161086a90602080825260009082015260400190565b60408051601f198184030181528282528051602091820120600089815260fe835292909220919261089c929101612ed9565b60405160208183030381529060405280519060200120036108f85760405162461bcd60e51b815260206004820152601660248201527510da185c1d195c88191bd95cc81b9bdd08195e1a5cdd60521b60448201526064016107a1565b600085815260fe602090815260409182902082516080601f880184900490930281018301909352606083018681529092918291908890889081908501838280828437600092019190915250505090825250600483015460209091019061095f906001612f7a565b815260200184848080601f016020809104026020016040519081016040528093929190818152602001838380828437600092018290525093909452505060048401546003850192506109b2906001612f7a565b81526020810191909152604001600020815181906109d09082612fd3565b5060208201516001820155604082015160028201906109ef9082612fd3565b505050600481018054906000610a0483613092565b9190505550505050505050565b610a1b3382611d97565b610a375760405162461bcd60e51b81526004016107a1906130ab565b610842838383611e16565b6000610a4d83610e80565b8210610aaf5760405162461bcd60e51b815260206004820152602b60248201527f455243373231456e756d657261626c653a206f776e657220696e646578206f7560448201526a74206f6620626f756e647360a81b60648201526084016107a1565b506001600160a01b03919091166000908152609760209081526040808320938352929052205490565b60fd60205260009081526040902080548190610af390612e9f565b80601f0160208091040260200160405190810160405280929190818152602001828054610b1f90612e9f565b8015610b6c5780601f10610b4157610100808354040283529160200191610b6c565b820191906000526020600020905b815481529060010190602001808311610b4f57829003601f168201915b505050505090806001015490806002018054610b8790612e9f565b80601f0160208091040260200160405190810160405280929190818152602001828054610bb390612e9f565b8015610c005780601f10610bd557610100808354040283529160200191610c00565b820191906000526020600020905b815481529060010190602001808311610be357829003601f168201915b5050505050905083565b6108428383836040518060200160405280600081525061124c565b6000610c3060995490565b8210610c935760405162461bcd60e51b815260206004820152602c60248201527f455243373231456e756d657261626c653a20676c6f62616c20696e646578206f60448201526b7574206f6620626f756e647360a01b60648201526084016107a1565b60998281548110610ca657610ca66130f8565b90600052602060002001549050919050565b610cc0611d3d565b600083815260fe60205260408120905b8351811015610daf576040518060600160405280858381518110610cf657610cf66130f8565b60200260200101518152602001826001610d109190612f7a565b8152602001848381518110610d2757610d276130f8565b6020026020010151815250826003016000836001610d459190612f7a565b8152602081019190915260400160002081518190610d639082612fd3565b506020820151600182015560408201516002820190610d829082612fd3565b505050600482018054906000610d9783613092565b91905055508080610da790613092565b915050610cd0565b5080610dbb8782612fd3565b5060018101849055604051610dd49086906020016128a8565b60405160208183030381529060405280519060200120600003610e065760405180602001604052806000815250610e08565b845b6002820190610e179082612fd3565b50505050505050565b6000818152606760205260408120546001600160a01b03168061066e5760405162461bcd60e51b8152602060048201526018602482015277115490cdcc8c4e881a5b9d985b1a59081d1bdad95b88125160421b60448201526064016107a1565b60006001600160a01b038216610eea5760405162461bcd60e51b815260206004820152602960248201527f4552433732313a2061646472657373207a65726f206973206e6f7420612076616044820152683634b21037bbb732b960b91b60648201526084016107a1565b506001600160a01b031660009081526068602052604090205490565b610f0e611d3d565b610f186000611f87565b565b60ff8054610f2790612e9f565b80601f0160208091040260200160405190810160405280929190818152602001828054610f5390612e9f565b8015610fa05780601f10610f7557610100808354040283529160200191610fa0565b820191906000526020600020905b815481529060010190602001808311610f8357829003601f168201915b505050505081565b600054610100900460ff1615808015610fc85750600054600160ff909116105b80610fe25750303b158015610fe2575060005460ff166001145b6110455760405162461bcd60e51b815260206004820152602e60248201527f496e697469616c697a61626c653a20636f6e747261637420697320616c72656160448201526d191e481a5b9a5d1a585b1a5e995960921b60648201526084016107a1565b6000805460ff191660011790558015611068576000805461ff0019166101001790555b6110c685858080601f016020809104026020016040519081016040528093929190818152602001838380828437600092019190915250506040805180820190915260078152665055424c49555360c81b60208201529150611fd99050565b6110ce61200a565b6110d786611846565b60ff6110e485878361310e565b5061010080546001600160a01b0319166001600160a01b03881617905561010161110f83858361310e565b508015611156576000805461ff0019169055604051600181527f7f26b83ff96e1f2b6a682f133852f6798a09c465da95921460cefb38474024989060200160405180910390a15b505050505050565b60606066805461068390612e9f565b61117e81662386f26fc100006131cd565b3410156111c35760405162461bcd60e51b8152602060048201526013602482015272139bdd08195b9bdd59da08115512081cd95b9d606a1b60448201526064016107a1565b60005b8181101561123d5760006111d960995490565b6111e4906001612f7a565b90506111f03382612039565b600081815260fb6020908152604080832080546001600160a01b03191633908117909155835260fc825282208054600181018255908352912001558061123581613092565b9150506111c6565b5050565b61123d3383836121d2565b6112563383611d97565b6112725760405162461bcd60e51b81526004016107a1906130ab565b61127e848484846122a0565b50505050565b6000818152606760205260409020546060906001600160a01b03166113035760405162461bcd60e51b815260206004820152602f60248201527f4552433732314d657461646174613a2055524920717565727920666f72206e6f60448201526e3732bc34b9ba32b73a103a37b5b2b760891b60648201526084016107a1565b60408051808201825260128152717b20225075626c69636174696f6e223a207b60701b60208083019190915261010054925191926113549260ff926001600160a01b03909216916101019101613257565b604051602081830303815290604052905060005b6101025481101561160b57600081815260fd602052604081206001810154909190611392906122d3565b6040516113a99190849060028201906020016132fe565b604051602081830303815290604052905060005b600383015481101561157557600081815260fe6020526040812060018101549091906113e8906122d3565b6040516113ff9190849060028201906020016133a3565b604051602081830303815290604052905060005b82600401548110156114dc57600081815260038401602052604081206001810154909190611440906122d3565b604051611457919084906002820190602001613445565b60405160208183030381529060405290506001856004015461147991906134d5565b8310156114a3578060405160200161149191906134e8565b60405160208183030381529060405290505b83816040516020016114b692919061350d565b6040516020818303038152906040529350505080806114d490613092565b915050611413565b50806040516020016114ee919061353c565b60408051601f198184030181529190526003860154909150611512906001906134d5565b83101561153c578060405160200161152a91906134e8565b60405160208183030381529060405290505b838160405160200161154f92919061350d565b60405160208183030381529060405293505050808061156d90613092565b9150506113bd565b5080604051602001611587919061353c565b60405160208183030381529060405290506001610102546115a891906134d5565b8310156115d257806040516020016115c091906134e8565b60405160208183030381529060405290505b83816040516020016115e592919061350d565b60405160208183030381529060405293505050808061160390613092565b915050611368565b508060405160200161161d919061353c565b60405160208183030381529060405290508060405160200161163f9190613562565b60408051808303601f190181526020808401835260008452915190935061166a91839185910161350d565b60405160208183030381529060405292505050919050565b6101018054610f2790612e9f565b6116b460405180606001604052806060815260200160008152602001606081525090565b600083815260fe6020908152604080832085845260038101909252918290208251606081019093528054919291829082906116ee90612e9f565b80601f016020809104026020016040519081016040528092919081815260200182805461171a90612e9f565b80156117675780601f1061173c57610100808354040283529160200191611767565b820191906000526020600020905b81548152906001019060200180831161174a57829003601f168201915b505050505081526020016001820154815260200160028201805461178a90612e9f565b80601f01602080910402602001604051908101604052809291908181526020018280546117b690612e9f565b80156118035780601f106117d857610100808354040283529160200191611803565b820191906000526020600020905b8154815290600101906020018083116117e657829003601f168201915b50505050508152505091505092915050565b60fc602052816000526040600020818154811061183157600080fd5b90600052602060002001600091509150505481565b61184e611d3d565b6001600160a01b0381166118b35760405162461bcd60e51b815260206004820152602660248201527f4f776e61626c653a206e6577206f776e657220697320746865207a65726f206160448201526564647265737360d01b60648201526084016107a1565b6118bc81611f87565b50565b60fe602052600090815260409020805481906118da90612e9f565b80601f016020809104026020016040519081016040528092919081815260200182805461190690612e9f565b80156119535780601f1061192857610100808354040283529160200191611953565b820191906000526020600020905b81548152906001019060200180831161193657829003601f168201915b50505050509080600101549080600201805461196e90612e9f565b80601f016020809104026020016040519081016040528092919081815260200182805461199a90612e9f565b80156119e75780601f106119bc576101008083540402835291602001916119e7565b820191906000526020600020905b8154815290600101906020018083116119ca57829003601f168201915b5050505050908060040154905084565b6119ff611d3d565b60008080808080808080611a158a8c018c6135e3565b9850985098509850985098509850985098508760fd60008b81526020019081526020016000206000019081611a4a9190612fd3565b50600089815260fd60205260409020600181018a9055600201611a6d8882612fd3565b5060005b8651811015611bfc576000878281518110611a8e57611a8e6130f8565b602002602001015190506000878381518110611aac57611aac6130f8565b602002602001015190506000878481518110611aca57611aca6130f8565b602090810291909101810151600085815260fe909252604090912090915080611af38482612fd3565b506001810184905560028101611b098382612fd3565b5060005b8851811015611be4576000898281518110611b2a57611b2a6130f8565b602002602001015190506000898381518110611b4857611b486130f8565b602002602001015190506000898481518110611b6657611b666130f8565b60209081029190910181015160408051606081018252858152808401879052808201839052600088815260038a0190945292208251919350908190611bab9082612fd3565b506020820151600182015560408201516002820190611bca9082612fd3565b509050505050508080611bdc90613092565b915050611b0d565b50505050508080611bf490613092565b915050611a71565b506101028054906000611c0e83613092565b91905055505050505050505050505050565b60006001600160e01b031982166380ac58cd60e01b1480611c5157506001600160e01b03198216635b5e139f60e01b145b8061066e57506301ffc9a760e01b6001600160e01b031983161461066e565b6000818152606760205260409020546001600160a01b03166118bc5760405162461bcd60e51b8152602060048201526018602482015277115490cdcc8c4e881a5b9d985b1a59081d1bdad95b88125160421b60448201526064016107a1565b600081815260696020526040902080546001600160a01b0319166001600160a01b0384169081179091558190611d0482610e20565b6001600160a01b03167f8c5be1e5ebec7d5bd14f71427d1e84f3dd0314c0f7b2291e5b200ac8c7c3b92560405160405180910390a45050565b60c9546001600160a01b03163314610f185760405162461bcd60e51b815260206004820181905260248201527f4f776e61626c653a2063616c6c6572206973206e6f7420746865206f776e657260448201526064016107a1565b600080611da383610e20565b9050806001600160a01b0316846001600160a01b03161480611dea57506001600160a01b038082166000908152606a602090815260408083209388168352929052205460ff165b80611e0e5750836001600160a01b0316611e0384610706565b6001600160a01b0316145b949350505050565b826001600160a01b0316611e2982610e20565b6001600160a01b031614611e4f5760405162461bcd60e51b81526004016107a19061372c565b6001600160a01b038216611eb15760405162461bcd60e51b8152602060048201526024808201527f4552433732313a207472616e7366657220746f20746865207a65726f206164646044820152637265737360e01b60648201526084016107a1565b611ebe83838360016123e9565b826001600160a01b0316611ed182610e20565b6001600160a01b031614611ef75760405162461bcd60e51b81526004016107a19061372c565b600081815260696020908152604080832080546001600160a01b03199081169091556001600160a01b0387811680865260688552838620805460001901905590871680865283862080546001019055868652606790945282852080549092168417909155905184937fddf252ad1be2c89b69c2b068fc378daa952ba7f163c4a11628f55a4df523b3ef91a4505050565b60c980546001600160a01b038381166001600160a01b0319831681179093556040519116919082907f8be0079c531659141344cd1fd0a4f28419497f9722a3daafe3b4186f6b6457e090600090a35050565b600054610100900460ff166120005760405162461bcd60e51b81526004016107a190613771565b61123d828261251d565b600054610100900460ff166120315760405162461bcd60e51b81526004016107a190613771565b610f1861255d565b6001600160a01b03821661208f5760405162461bcd60e51b815260206004820181905260248201527f4552433732313a206d696e7420746f20746865207a65726f206164647265737360448201526064016107a1565b6000818152606760205260409020546001600160a01b0316156120f45760405162461bcd60e51b815260206004820152601c60248201527f4552433732313a20746f6b656e20616c7265616479206d696e7465640000000060448201526064016107a1565b6121026000838360016123e9565b6000818152606760205260409020546001600160a01b0316156121675760405162461bcd60e51b815260206004820152601c60248201527f4552433732313a20746f6b656e20616c7265616479206d696e7465640000000060448201526064016107a1565b6001600160a01b038216600081815260686020908152604080832080546001019055848352606790915280822080546001600160a01b0319168417905551839291907fddf252ad1be2c89b69c2b068fc378daa952ba7f163c4a11628f55a4df523b3ef908290a45050565b816001600160a01b0316836001600160a01b0316036122335760405162461bcd60e51b815260206004820152601960248201527f4552433732313a20617070726f766520746f2063616c6c65720000000000000060448201526064016107a1565b6001600160a01b038381166000818152606a6020908152604080832094871680845294825291829020805460ff191686151590811790915591519182527f17307eab39ab6107e8899845ad3d59bd9653f200f220920489ca2b5937696c31910160405180910390a3505050565b6122ab848484611e16565b6122b78484848461258d565b61127e5760405162461bcd60e51b81526004016107a1906137bc565b6060816000036122fa5750506040805180820190915260018152600360fc1b602082015290565b8160005b8115612324578061230e81613092565b915061231d9050600a83613824565b91506122fe565b6000816001600160401b0381111561233e5761233e612a4c565b6040519080825280601f01601f191660200182016040528015612368576020820181803683370190505b509050815b85156123e05761237e6001826134d5565b9050600061238d600a88613838565b61239890603061384c565b905060008160f81b9050808484815181106123b5576123b56130f8565b60200101906001600160f81b031916908160001a9053506123d7600a89613824565b9750505061236d565b50949350505050565b60018111156124585760405162461bcd60e51b815260206004820152603560248201527f455243373231456e756d657261626c653a20636f6e7365637574697665207472604482015274185b9cd9995c9cc81b9bdd081cdd5c1c1bdc9d1959605a1b60648201526084016107a1565b816001600160a01b0385166124b4576124af81609980546000838152609a60205260408120829055600182018355919091527f72a152ddfb8e864297c917af52ea6c1c68aead0fee1a62673fcc7e0c94979d000155565b6124d7565b836001600160a01b0316856001600160a01b0316146124d7576124d7858261268e565b6001600160a01b0384166124f3576124ee8161272b565b612516565b846001600160a01b0316846001600160a01b0316146125165761251684826127da565b5050505050565b600054610100900460ff166125445760405162461bcd60e51b81526004016107a190613771565b60656125508382612fd3565b5060666108428282612fd3565b600054610100900460ff166125845760405162461bcd60e51b81526004016107a190613771565b610f1833611f87565b60006001600160a01b0384163b1561268357604051630a85bd0160e11b81526001600160a01b0385169063150b7a02906125d1903390899088908890600401613865565b6020604051808303816000875af192505050801561260c575060408051601f3d908101601f1916820190925261260991810190613898565b60015b612669573d80801561263a576040519150601f19603f3d011682016040523d82523d6000602084013e61263f565b606091505b5080516000036126615760405162461bcd60e51b81526004016107a1906137bc565b805181602001fd5b6001600160e01b031916630a85bd0160e11b149050611e0e565b506001949350505050565b6000600161269b84610e80565b6126a591906134d5565b6000838152609860205260409020549091508082146126f8576001600160a01b03841660009081526097602090815260408083208584528252808320548484528184208190558352609890915290208190555b5060009182526098602090815260408084208490556001600160a01b039094168352609781528383209183525290812055565b60995460009061273d906001906134d5565b6000838152609a602052604081205460998054939450909284908110612765576127656130f8565b906000526020600020015490508060998381548110612786576127866130f8565b6000918252602080832090910192909255828152609a909152604080822084905585825281205560998054806127be576127be6138b5565b6001900381819060005260206000200160009055905550505050565b60006127e583610e80565b6001600160a01b039093166000908152609760209081526040808320868452825280832085905593825260989052919091209190915550565b6001600160e01b0319811681146118bc57600080fd5b60006020828403121561284657600080fd5b81356128518161281e565b9392505050565b60005b8381101561287357818101518382015260200161285b565b50506000910152565b60008151808452612894816020860160208601612858565b601f01601f19169290920160200192915050565b602081526000612851602083018461287c565b6000602082840312156128cd57600080fd5b5035919050565b80356001600160a01b03811681146128eb57600080fd5b919050565b6000806040838503121561290357600080fd5b61290c836128d4565b946020939093013593505050565b60008083601f84011261292c57600080fd5b5081356001600160401b0381111561294357600080fd5b60208301915083602082850101111561295b57600080fd5b9250929050565b60008060008060006060868803121561297a57600080fd5b8535945060208601356001600160401b038082111561299857600080fd5b6129a489838a0161291a565b909650945060408801359150808211156129bd57600080fd5b506129ca8882890161291a565b969995985093965092949392505050565b6000806000606084860312156129f057600080fd5b6129f9846128d4565b9250612a07602085016128d4565b9150604084013590509250925092565b606081526000612a2a606083018661287c565b8460208401528281036040840152612a42818561287c565b9695505050505050565b634e487b7160e01b600052604160045260246000fd5b604051601f8201601f191681016001600160401b0381118282101715612a8a57612a8a612a4c565b604052919050565b60006001600160401b03831115612aab57612aab612a4c565b612abe601f8401601f1916602001612a62565b9050828152838383011115612ad257600080fd5b828260208301376000602084830101529392505050565b600082601f830112612afa57600080fd5b61285183833560208501612a92565b60006001600160401b03821115612b2257612b22612a4c565b5060051b60200190565b600082601f830112612b3d57600080fd5b81356020612b52612b4d83612b09565b612a62565b82815260059290921b84018101918181019086841115612b7157600080fd5b8286015b84811015612bb05780356001600160401b03811115612b945760008081fd5b612ba28986838b0101612ae9565b845250918301918301612b75565b509695505050505050565b600080600080600060a08688031215612bd357600080fd5b85356001600160401b0380821115612bea57600080fd5b612bf689838a01612ae9565b96506020880135915080821115612c0c57600080fd5b612c1889838a01612ae9565b9550604088013594506060880135915080821115612c3557600080fd5b612c4189838a01612b2c565b93506080880135915080821115612c5757600080fd5b50612c6488828901612b2c565b9150509295509295909350565b600060208284031215612c8357600080fd5b612851826128d4565b600080600080600060608688031215612ca457600080fd5b612cad866128d4565b945060208601356001600160401b038082111561299857600080fd5b60008060408385031215612cdc57600080fd5b612ce5836128d4565b915060208301358015158114612cfa57600080fd5b809150509250929050565b60008060008060808587031215612d1b57600080fd5b612d24856128d4565b9350612d32602086016128d4565b92506040850135915060608501356001600160401b03811115612d5457600080fd5b8501601f81018713612d6557600080fd5b612d7487823560208401612a92565b91505092959194509250565b60008060408385031215612d9357600080fd5b50508035926020909101359150565b602081526000825160606020840152612dbe608084018261287c565b9050602084015160408401526040840151601f19848303016060850152612de5828261287c565b95945050505050565b60008060408385031215612e0157600080fd5b612e0a836128d4565b9150612e18602084016128d4565b90509250929050565b608081526000612e34608083018761287c565b8560208401528281036040840152612e4c818661287c565b91505082606083015295945050505050565b60008060208385031215612e7157600080fd5b82356001600160401b03811115612e8757600080fd5b612e938582860161291a565b90969095509350505050565b600181811c90821680612eb357607f821691505b602082108103612ed357634e487b7160e01b600052602260045260246000fd5b50919050565b6000602080835260008454612eed81612e9f565b80848701526040600180841660008114612f0e5760018114612f2857612f56565b60ff1985168984015283151560051b890183019550612f56565b896000528660002060005b85811015612f4e5781548b8201860152908301908801612f33565b8a0184019650505b509398975050505050505050565b634e487b7160e01b600052601160045260246000fd5b8082018082111561066e5761066e612f64565b601f82111561084257600081815260208120601f850160051c81016020861015612fb45750805b601f850160051c820191505b8181101561115657828155600101612fc0565b81516001600160401b03811115612fec57612fec612a4c565b61300081612ffa8454612e9f565b84612f8d565b602080601f831160018114613035576000841561301d5750858301515b600019600386901b1c1916600185901b178555611156565b600085815260208120601f198616915b8281101561306457888601518255948401946001909101908401613045565b50858210156130825787850151600019600388901b60f8161c191681555b5050505050600190811b01905550565b6000600182016130a4576130a4612f64565b5060010190565b6020808252602d908201527f4552433732313a2063616c6c6572206973206e6f7420746f6b656e206f776e6560408201526c1c881bdc88185c1c1c9bdd9959609a1b606082015260800190565b634e487b7160e01b600052603260045260246000fd5b6001600160401b0383111561312557613125612a4c565b613139836131338354612e9f565b83612f8d565b6000601f84116001811461316d57600085156131555750838201355b600019600387901b1c1916600186901b178355612516565b600083815260209020601f19861690835b8281101561319e578685013582556020948501946001909201910161317e565b50868210156131bb5760001960f88860031b161c19848701351681555b505060018560011b0183555050505050565b808202811582820484141761066e5761066e612f64565b600081546131f181612e9f565b60018281168015613209576001811461321e5761324d565b60ff198416875282151583028701945061324d565b8560005260208060002060005b858110156132445781548a82015290840190820161322b565b50505082870194505b5050505092915050565b75161011383ab13634b1b0ba34b7b72730b6b2911d101160511b8152600061328260168301866131e4565b711116101130baba3437b92730b6b2911d101160711b8152606085901b6bffffffffffffffffffffffff19166012820152711116101131b7bb32b924b6b0b3b2911d101160711b60268201526132db60388201856131e4565b6f222c202253656374696f6e73223a205b60801b81526010019695505050505050565b6f3d901139b2b1ba34b7b724b2111d101160811b8152835160009061332a816010850160208901612858565b721116101139b2b1ba34b7b72730b6b2911d101160691b60109184019182015261335760238201866131e4565b731116101139b2b1ba34b7b724b6b0b3b2911d101160611b8152905061338060148201856131e4565b6f222c20226368617074657273223a205b60801b81526010019695505050505050565b6f3d901131b430b83a32b924b2111d101160811b815283516000906133cf816010850160208901612858565b721116101131b430b83a32b92730b6b2911d101160691b6010918401918201526133fc60238201866131e4565b731116101131b430b83a32b924b6b0b3b2911d101160611b8152905061342560148201856131e4565b6c222c20227061676573223a205b60981b8152600d019695505050505050565b6c3d90113830b3b2a4b2111d101160991b8152835160009061346e81600d850160208901612858565b6f111610113830b3b2a730b6b2911d101160811b600d91840191820152613498601d8201866131e4565b72111610113830b3b2a1b7b73a32b73a111d101160691b815290506134c060138201856131e4565b61227d60f01b81526002019695505050505050565b8181038181111561066e5761066e612f64565b600082516134fa818460208701612858565b600b60fa1b920191825250600101919050565b6000835161351f818460208801612858565b835190830190613533818360208801612858565b01949350505050565b6000825161354e818460208701612858565b615d7d60f01b920191825250600201919050565b60008251613574818460208701612858565b617d7d60f01b920191825250600201919050565b600082601f83011261359957600080fd5b813560206135a9612b4d83612b09565b82815260059290921b840181019181810190868411156135c857600080fd5b8286015b84811015612bb057803583529183019183016135cc565b60008060008060008060008060006101208a8c03121561360257600080fd5b8935985060208a01356001600160401b038082111561362057600080fd5b61362c8d838e01612ae9565b995060408c013591508082111561364257600080fd5b61364e8d838e01612ae9565b985060608c013591508082111561366457600080fd5b6136708d838e01613588565b975060808c013591508082111561368657600080fd5b6136928d838e01612b2c565b965060a08c01359150808211156136a857600080fd5b6136b48d838e01612b2c565b955060c08c01359150808211156136ca57600080fd5b6136d68d838e01613588565b945060e08c01359150808211156136ec57600080fd5b6136f88d838e01612b2c565b93506101008c013591508082111561370f57600080fd5b5061371c8c828d01612b2c565b9150509295985092959850929598565b60208082526025908201527f4552433732313a207472616e736665722066726f6d20696e636f72726563742060408201526437bbb732b960d91b606082015260800190565b6020808252602b908201527f496e697469616c697a61626c653a20636f6e7472616374206973206e6f74206960408201526a6e697469616c697a696e6760a81b606082015260800190565b60208082526032908201527f4552433732313a207472616e7366657220746f206e6f6e20455243373231526560408201527131b2b4bb32b91034b6b83632b6b2b73a32b960711b606082015260800190565b634e487b7160e01b600052601260045260246000fd5b6000826138335761383361380e565b500490565b6000826138475761384761380e565b500690565b60ff818116838216019081111561066e5761066e612f64565b6001600160a01b0385811682528416602082015260408101839052608060608201819052600090612a429083018461287c565b6000602082840312156138aa57600080fd5b81516128518161281e565b634e487b7160e01b600052603160045260246000fdfea2646970667358221220f5cb50cdeef02a41e1d3dc00cfc36464ee483b9b5e9b8d8884868da54a744b8464736f6c63430008120033","opcodes":"PUSH1 0x80 PUSH1 0x40 MSTORE CALLVALUE DUP1 ISZERO PUSH2 0x10 JUMPI PUSH1 0x0 DUP1 REVERT JUMPDEST POP PUSH2 0x3901 DUP1 PUSH2 0x20 PUSH1 0x0 CODECOPY PUSH1 0x0 RETURN INVALID PUSH1 0x80 PUSH1 0x40 MSTORE PUSH1 0x4 CALLDATASIZE LT PUSH2 0x1E3 JUMPI PUSH1 0x0 CALLDATALOAD PUSH1 0xE0 SHR DUP1 PUSH4 0x715018A6 GT PUSH2 0x102 JUMPI DUP1 PUSH4 0xC87B56DD GT PUSH2 0x95 JUMPI DUP1 PUSH4 0xE985E9C5 GT PUSH2 0x64 JUMPI DUP1 PUSH4 0xE985E9C5 EQ PUSH2 0x590 JUMPI DUP1 PUSH4 0xF2FDE38B EQ PUSH2 0x5D9 JUMPI DUP1 PUSH4 0xF40ADB12 EQ PUSH2 0x5F9 JUMPI DUP1 PUSH4 0xF700F903 EQ PUSH2 0x629 JUMPI PUSH1 0x0 DUP1 REVERT JUMPDEST DUP1 PUSH4 0xC87B56DD EQ PUSH2 0x50E JUMPI DUP1 PUSH4 0xCCFEA8F0 EQ PUSH2 0x52E JUMPI DUP1 PUSH4 0xCD1A2E91 EQ PUSH2 0x543 JUMPI DUP1 PUSH4 0xDB010AE4 EQ PUSH2 0x570 JUMPI PUSH1 0x0 DUP1 REVERT JUMPDEST DUP1 PUSH4 0x95D89B41 GT PUSH2 0xD1 JUMPI DUP1 PUSH4 0x95D89B41 EQ PUSH2 0x4A6 JUMPI DUP1 PUSH4 0xA0712D68 EQ PUSH2 0x4BB JUMPI DUP1 PUSH4 0xA22CB465 EQ PUSH2 0x4CE JUMPI DUP1 PUSH4 0xB88D4FDE EQ PUSH2 0x4EE JUMPI PUSH1 0x0 DUP1 REVERT JUMPDEST DUP1 PUSH4 0x715018A6 EQ PUSH2 0x43E JUMPI DUP1 PUSH4 0x86B4E2A0 EQ PUSH2 0x453 JUMPI DUP1 PUSH4 0x8DA5CB5B EQ PUSH2 0x468 JUMPI DUP1 PUSH4 0x90657147 EQ PUSH2 0x486 JUMPI PUSH1 0x0 DUP1 REVERT JUMPDEST DUP1 PUSH4 0x2F745C59 GT PUSH2 0x17A JUMPI DUP1 PUSH4 0x527C4165 GT PUSH2 0x149 JUMPI DUP1 PUSH4 0x527C4165 EQ PUSH2 0x3BD JUMPI DUP1 PUSH4 0x5B92CC8A EQ PUSH2 0x3DE JUMPI DUP1 PUSH4 0x6352211E EQ PUSH2 0x3FE JUMPI DUP1 PUSH4 0x70A08231 EQ PUSH2 0x41E JUMPI PUSH1 0x0 DUP1 REVERT JUMPDEST DUP1 PUSH4 0x2F745C59 EQ PUSH2 0x32E JUMPI DUP1 PUSH4 0x35603440 EQ PUSH2 0x34E JUMPI DUP1 PUSH4 0x42842E0E EQ PUSH2 0x37D JUMPI DUP1 PUSH4 0x4F6CCCE7 EQ PUSH2 0x39D JUMPI PUSH1 0x0 DUP1 REVERT JUMPDEST DUP1 PUSH4 0xF1F0850 GT PUSH2 0x1B6 JUMPI DUP1 PUSH4 0xF1F0850 EQ PUSH2 0x299 JUMPI DUP1 PUSH4 0x18160DDD EQ PUSH2 0x2B9 JUMPI DUP1 PUSH4 0x2218F119 EQ PUSH2 0x2D8 JUMPI DUP1 PUSH4 0x23B872DD EQ PUSH2 0x30E JUMPI PUSH1 0x0 DUP1 REVERT JUMPDEST DUP1 PUSH4 0x1FFC9A7 EQ PUSH2 0x1E8 JUMPI DUP1 PUSH4 0x6FDDE03 EQ PUSH2 0x21D JUMPI DUP1 PUSH4 0x81812FC EQ PUSH2 0x23F JUMPI DUP1 PUSH4 0x95EA7B3 EQ PUSH2 0x277 JUMPI JUMPDEST PUSH1 0x0 DUP1 REVERT JUMPDEST CALLVALUE DUP1 ISZERO PUSH2 0x1F4 JUMPI PUSH1 0x0 DUP1 REVERT JUMPDEST POP PUSH2 0x208 PUSH2 0x203 CALLDATASIZE PUSH1 0x4 PUSH2 0x2834 JUMP JUMPDEST PUSH2 0x649 JUMP JUMPDEST PUSH1 0x40 MLOAD SWAP1 ISZERO ISZERO DUP2 MSTORE PUSH1 0x20 ADD JUMPDEST PUSH1 0x40 MLOAD DUP1 SWAP2 SUB SWAP1 RETURN JUMPDEST CALLVALUE DUP1 ISZERO PUSH2 0x229 JUMPI PUSH1 0x0 DUP1 REVERT JUMPDEST POP PUSH2 0x232 PUSH2 0x674 JUMP JUMPDEST PUSH1 0x40 MLOAD PUSH2 0x214 SWAP2 SWAP1 PUSH2 0x28A8 JUMP JUMPDEST CALLVALUE DUP1 ISZERO PUSH2 0x24B JUMPI PUSH1 0x0 DUP1 REVERT JUMPDEST POP PUSH2 0x25F PUSH2 0x25A CALLDATASIZE PUSH1 0x4 PUSH2 0x28BB JUMP JUMPDEST PUSH2 0x706 JUMP JUMPDEST PUSH1 0x40 MLOAD PUSH1 0x1 PUSH1 0x1 PUSH1 0xA0 SHL SUB SWAP1 SWAP2 AND DUP2 MSTORE PUSH1 0x20 ADD PUSH2 0x214 JUMP JUMPDEST CALLVALUE DUP1 ISZERO PUSH2 0x283 JUMPI PUSH1 0x0 DUP1 REVERT JUMPDEST POP PUSH2 0x297 PUSH2 0x292 CALLDATASIZE PUSH1 0x4 PUSH2 0x28F0 JUMP JUMPDEST PUSH2 0x72D JUMP JUMPDEST STOP JUMPDEST CALLVALUE DUP1 ISZERO PUSH2 0x2A5 JUMPI PUSH1 0x0 DUP1 REVERT JUMPDEST POP PUSH2 0x297 PUSH2 0x2B4 CALLDATASIZE PUSH1 0x4 PUSH2 0x2962 JUMP JUMPDEST PUSH2 0x847 JUMP JUMPDEST CALLVALUE DUP1 ISZERO PUSH2 0x2C5 JUMPI PUSH1 0x0 DUP1 REVERT JUMPDEST POP PUSH1 0x99 SLOAD JUMPDEST PUSH1 0x40 MLOAD SWAP1 DUP2 MSTORE PUSH1 0x20 ADD PUSH2 0x214 JUMP JUMPDEST CALLVALUE DUP1 ISZERO PUSH2 0x2E4 JUMPI PUSH1 0x0 DUP1 REVERT JUMPDEST POP PUSH2 0x25F PUSH2 0x2F3 CALLDATASIZE PUSH1 0x4 PUSH2 0x28BB JUMP JUMPDEST PUSH1 0xFB PUSH1 0x20 MSTORE PUSH1 0x0 SWAP1 DUP2 MSTORE PUSH1 0x40 SWAP1 KECCAK256 SLOAD PUSH1 0x1 PUSH1 0x1 PUSH1 0xA0 SHL SUB AND DUP2 JUMP JUMPDEST CALLVALUE DUP1 ISZERO PUSH2 0x31A JUMPI PUSH1 0x0 DUP1 REVERT JUMPDEST POP PUSH2 0x297 PUSH2 0x329 CALLDATASIZE PUSH1 0x4 PUSH2 0x29DB JUMP JUMPDEST PUSH2 0xA11 JUMP JUMPDEST CALLVALUE DUP1 ISZERO PUSH2 0x33A JUMPI PUSH1 0x0 DUP1 REVERT JUMPDEST POP PUSH2 0x2CA PUSH2 0x349 CALLDATASIZE PUSH1 0x4 PUSH2 0x28F0 JUMP JUMPDEST PUSH2 0xA42 JUMP JUMPDEST CALLVALUE DUP1 ISZERO PUSH2 0x35A JUMPI PUSH1 0x0 DUP1 REVERT JUMPDEST POP PUSH2 0x36E PUSH2 0x369 CALLDATASIZE PUSH1 0x4 PUSH2 0x28BB JUMP JUMPDEST PUSH2 0xAD8 JUMP JUMPDEST PUSH1 0x40 MLOAD PUSH2 0x214 SWAP4 SWAP3 SWAP2 SWAP1 PUSH2 0x2A17 JUMP JUMPDEST CALLVALUE DUP1 ISZERO PUSH2 0x389 JUMPI PUSH1 0x0 DUP1 REVERT JUMPDEST POP PUSH2 0x297 PUSH2 0x398 CALLDATASIZE PUSH1 0x4 PUSH2 0x29DB JUMP JUMPDEST PUSH2 0xC0A JUMP JUMPDEST CALLVALUE DUP1 ISZERO PUSH2 0x3A9 JUMPI PUSH1 0x0 DUP1 REVERT JUMPDEST POP PUSH2 0x2CA PUSH2 0x3B8 CALLDATASIZE PUSH1 0x4 PUSH2 0x28BB JUMP JUMPDEST PUSH2 0xC25 JUMP JUMPDEST CALLVALUE DUP1 ISZERO PUSH2 0x3C9 JUMPI PUSH1 0x0 DUP1 REVERT JUMPDEST POP PUSH2 0x100 SLOAD PUSH2 0x25F SWAP1 PUSH1 0x1 PUSH1 0x1 PUSH1 0xA0 SHL SUB AND DUP2 JUMP JUMPDEST CALLVALUE DUP1 ISZERO PUSH2 0x3EA JUMPI PUSH1 0x0 DUP1 REVERT JUMPDEST POP PUSH2 0x297 PUSH2 0x3F9 CALLDATASIZE PUSH1 0x4 PUSH2 0x2BBB JUMP JUMPDEST PUSH2 0xCB8 JUMP JUMPDEST CALLVALUE DUP1 ISZERO PUSH2 0x40A JUMPI PUSH1 0x0 DUP1 REVERT JUMPDEST POP PUSH2 0x25F PUSH2 0x419 CALLDATASIZE PUSH1 0x4 PUSH2 0x28BB JUMP JUMPDEST PUSH2 0xE20 JUMP JUMPDEST CALLVALUE DUP1 ISZERO PUSH2 0x42A JUMPI PUSH1 0x0 DUP1 REVERT JUMPDEST POP PUSH2 0x2CA PUSH2 0x439 CALLDATASIZE PUSH1 0x4 PUSH2 0x2C71 JUMP JUMPDEST PUSH2 0xE80 JUMP JUMPDEST CALLVALUE DUP1 ISZERO PUSH2 0x44A JUMPI PUSH1 0x0 DUP1 REVERT JUMPDEST POP PUSH2 0x297 PUSH2 0xF06 JUMP JUMPDEST CALLVALUE DUP1 ISZERO PUSH2 0x45F JUMPI PUSH1 0x0 DUP1 REVERT JUMPDEST POP PUSH2 0x232 PUSH2 0xF1A JUMP JUMPDEST CALLVALUE DUP1 ISZERO PUSH2 0x474 JUMPI PUSH1 0x0 DUP1 REVERT JUMPDEST POP PUSH1 0xC9 SLOAD PUSH1 0x1 PUSH1 0x1 PUSH1 0xA0 SHL SUB AND PUSH2 0x25F JUMP JUMPDEST CALLVALUE DUP1 ISZERO PUSH2 0x492 JUMPI PUSH1 0x0 DUP1 REVERT JUMPDEST POP PUSH2 0x297 PUSH2 0x4A1 CALLDATASIZE PUSH1 0x4 PUSH2 0x2C8C JUMP JUMPDEST PUSH2 0xFA8 JUMP JUMPDEST CALLVALUE DUP1 ISZERO PUSH2 0x4B2 JUMPI PUSH1 0x0 DUP1 REVERT JUMPDEST POP PUSH2 0x232 PUSH2 0x115E JUMP JUMPDEST PUSH2 0x297 PUSH2 0x4C9 CALLDATASIZE PUSH1 0x4 PUSH2 0x28BB JUMP JUMPDEST PUSH2 0x116D JUMP JUMPDEST CALLVALUE DUP1 ISZERO PUSH2 0x4DA JUMPI PUSH1 0x0 DUP1 REVERT JUMPDEST POP PUSH2 0x297 PUSH2 0x4E9 CALLDATASIZE PUSH1 0x4 PUSH2 0x2CC9 JUMP JUMPDEST PUSH2 0x1241 JUMP JUMPDEST CALLVALUE DUP1 ISZERO PUSH2 0x4FA JUMPI PUSH1 0x0 DUP1 REVERT JUMPDEST POP PUSH2 0x297 PUSH2 0x509 CALLDATASIZE PUSH1 0x4 PUSH2 0x2D05 JUMP JUMPDEST PUSH2 0x124C JUMP JUMPDEST CALLVALUE DUP1 ISZERO PUSH2 0x51A JUMPI PUSH1 0x0 DUP1 REVERT JUMPDEST POP PUSH2 0x232 PUSH2 0x529 CALLDATASIZE PUSH1 0x4 PUSH2 0x28BB JUMP JUMPDEST PUSH2 0x1284 JUMP JUMPDEST CALLVALUE DUP1 ISZERO PUSH2 0x53A JUMPI PUSH1 0x0 DUP1 REVERT JUMPDEST POP PUSH2 0x232 PUSH2 0x1682 JUMP JUMPDEST CALLVALUE DUP1 ISZERO PUSH2 0x54F JUMPI PUSH1 0x0 DUP1 REVERT JUMPDEST POP PUSH2 0x563 PUSH2 0x55E CALLDATASIZE PUSH1 0x4 PUSH2 0x2D80 JUMP JUMPDEST PUSH2 0x1690 JUMP JUMPDEST PUSH1 0x40 MLOAD PUSH2 0x214 SWAP2 SWAP1 PUSH2 0x2DA2 JUMP JUMPDEST CALLVALUE DUP1 ISZERO PUSH2 0x57C JUMPI PUSH1 0x0 DUP1 REVERT JUMPDEST POP PUSH2 0x2CA PUSH2 0x58B CALLDATASIZE PUSH1 0x4 PUSH2 0x28F0 JUMP JUMPDEST PUSH2 0x1815 JUMP JUMPDEST CALLVALUE DUP1 ISZERO PUSH2 0x59C JUMPI PUSH1 0x0 DUP1 REVERT JUMPDEST POP PUSH2 0x208 PUSH2 0x5AB CALLDATASIZE PUSH1 0x4 PUSH2 0x2DEE JUMP JUMPDEST PUSH1 0x1 PUSH1 0x1 PUSH1 0xA0 SHL SUB SWAP2 DUP3 AND PUSH1 0x0 SWAP1 DUP2 MSTORE PUSH1 0x6A PUSH1 0x20 SWAP1 DUP2 MSTORE PUSH1 0x40 DUP1 DUP4 KECCAK256 SWAP4 SWAP1 SWAP5 AND DUP3 MSTORE SWAP2 SWAP1 SWAP2 MSTORE KECCAK256 SLOAD PUSH1 0xFF AND SWAP1 JUMP JUMPDEST CALLVALUE DUP1 ISZERO PUSH2 0x5E5 JUMPI PUSH1 0x0 DUP1 REVERT JUMPDEST POP PUSH2 0x297 PUSH2 0x5F4 CALLDATASIZE PUSH1 0x4 PUSH2 0x2C71 JUMP JUMPDEST PUSH2 0x1846 JUMP JUMPDEST CALLVALUE DUP1 ISZERO PUSH2 0x605 JUMPI PUSH1 0x0 DUP1 REVERT JUMPDEST POP PUSH2 0x619 PUSH2 0x614 CALLDATASIZE PUSH1 0x4 PUSH2 0x28BB JUMP JUMPDEST PUSH2 0x18BF JUMP JUMPDEST PUSH1 0x40 MLOAD PUSH2 0x214 SWAP5 SWAP4 SWAP3 SWAP2 SWAP1 PUSH2 0x2E21 JUMP JUMPDEST CALLVALUE DUP1 ISZERO PUSH2 0x635 JUMPI PUSH1 0x0 DUP1 REVERT JUMPDEST POP PUSH2 0x297 PUSH2 0x644 CALLDATASIZE PUSH1 0x4 PUSH2 0x2E5E JUMP JUMPDEST PUSH2 0x19F7 JUMP JUMPDEST PUSH1 0x0 PUSH1 0x1 PUSH1 0x1 PUSH1 0xE0 SHL SUB NOT DUP3 AND PUSH4 0x780E9D63 PUSH1 0xE0 SHL EQ DUP1 PUSH2 0x66E JUMPI POP PUSH2 0x66E DUP3 PUSH2 0x1C20 JUMP JUMPDEST SWAP3 SWAP2 POP POP JUMP JUMPDEST PUSH1 0x60 PUSH1 0x65 DUP1 SLOAD PUSH2 0x683 SWAP1 PUSH2 0x2E9F JUMP JUMPDEST DUP1 PUSH1 0x1F ADD PUSH1 0x20 DUP1 SWAP2 DIV MUL PUSH1 0x20 ADD PUSH1 0x40 MLOAD SWAP1 DUP2 ADD PUSH1 0x40 MSTORE DUP1 SWAP3 SWAP2 SWAP1 DUP2 DUP2 MSTORE PUSH1 0x20 ADD DUP3 DUP1 SLOAD PUSH2 0x6AF SWAP1 PUSH2 0x2E9F JUMP JUMPDEST DUP1 ISZERO PUSH2 0x6FC JUMPI DUP1 PUSH1 0x1F LT PUSH2 0x6D1 JUMPI PUSH2 0x100 DUP1 DUP4 SLOAD DIV MUL DUP4 MSTORE SWAP2 PUSH1 0x20 ADD SWAP2 PUSH2 0x6FC JUMP JUMPDEST DUP3 ADD SWAP2 SWAP1 PUSH1 0x0 MSTORE PUSH1 0x20 PUSH1 0x0 KECCAK256 SWAP1 JUMPDEST DUP2 SLOAD DUP2 MSTORE SWAP1 PUSH1 0x1 ADD SWAP1 PUSH1 0x20 ADD DUP1 DUP4 GT PUSH2 0x6DF JUMPI DUP3 SWAP1 SUB PUSH1 0x1F AND DUP3 ADD SWAP2 JUMPDEST POP POP POP POP POP SWAP1 POP SWAP1 JUMP JUMPDEST PUSH1 0x0 PUSH2 0x711 DUP3 PUSH2 0x1C70 JUMP JUMPDEST POP PUSH1 0x0 SWAP1 DUP2 MSTORE PUSH1 0x69 PUSH1 0x20 MSTORE PUSH1 0x40 SWAP1 KECCAK256 SLOAD PUSH1 0x1 PUSH1 0x1 PUSH1 0xA0 SHL SUB AND SWAP1 JUMP JUMPDEST PUSH1 0x0 PUSH2 0x738 DUP3 PUSH2 0xE20 JUMP JUMPDEST SWAP1 POP DUP1 PUSH1 0x1 PUSH1 0x1 PUSH1 0xA0 SHL SUB AND DUP4 PUSH1 0x1 PUSH1 0x1 PUSH1 0xA0 SHL SUB AND SUB PUSH2 0x7AA JUMPI PUSH1 0x40 MLOAD PUSH3 0x461BCD PUSH1 0xE5 SHL DUP2 MSTORE PUSH1 0x20 PUSH1 0x4 DUP3 ADD MSTORE PUSH1 0x21 PUSH1 0x24 DUP3 ADD MSTORE PUSH32 0x4552433732313A20617070726F76616C20746F2063757272656E74206F776E65 PUSH1 0x44 DUP3 ADD MSTORE PUSH1 0x39 PUSH1 0xF9 SHL PUSH1 0x64 DUP3 ADD MSTORE PUSH1 0x84 ADD JUMPDEST PUSH1 0x40 MLOAD DUP1 SWAP2 SUB SWAP1 REVERT JUMPDEST CALLER PUSH1 0x1 PUSH1 0x1 PUSH1 0xA0 SHL SUB DUP3 AND EQ DUP1 PUSH2 0x7C6 JUMPI POP PUSH2 0x7C6 DUP2 CALLER PUSH2 0x5AB JUMP JUMPDEST PUSH2 0x838 JUMPI PUSH1 0x40 MLOAD PUSH3 0x461BCD PUSH1 0xE5 SHL DUP2 MSTORE PUSH1 0x20 PUSH1 0x4 DUP3 ADD MSTORE PUSH1 0x3D PUSH1 0x24 DUP3 ADD MSTORE PUSH32 0x4552433732313A20617070726F76652063616C6C6572206973206E6F7420746F PUSH1 0x44 DUP3 ADD MSTORE PUSH32 0x6B656E206F776E6572206F7220617070726F76656420666F7220616C6C000000 PUSH1 0x64 DUP3 ADD MSTORE PUSH1 0x84 ADD PUSH2 0x7A1 JUMP JUMPDEST PUSH2 0x842 DUP4 DUP4 PUSH2 0x1CCF JUMP JUMPDEST POP POP POP JUMP JUMPDEST PUSH2 0x84F PUSH2 0x1D3D JUMP JUMPDEST PUSH1 0x40 MLOAD PUSH1 0x20 ADD PUSH2 0x86A SWAP1 PUSH1 0x20 DUP1 DUP3 MSTORE PUSH1 0x0 SWAP1 DUP3 ADD MSTORE PUSH1 0x40 ADD SWAP1 JUMP JUMPDEST PUSH1 0x40 DUP1 MLOAD PUSH1 0x1F NOT DUP2 DUP5 SUB ADD DUP2 MSTORE DUP3 DUP3 MSTORE DUP1 MLOAD PUSH1 0x20 SWAP2 DUP3 ADD KECCAK256 PUSH1 0x0 DUP10 DUP2 MSTORE PUSH1 0xFE DUP4 MSTORE SWAP3 SWAP1 SWAP3 KECCAK256 SWAP2 SWAP3 PUSH2 0x89C SWAP3 SWAP2 ADD PUSH2 0x2ED9 JUMP JUMPDEST PUSH1 0x40 MLOAD PUSH1 0x20 DUP2 DUP4 SUB SUB DUP2 MSTORE SWAP1 PUSH1 0x40 MSTORE DUP1 MLOAD SWAP1 PUSH1 0x20 ADD KECCAK256 SUB PUSH2 0x8F8 JUMPI PUSH1 0x40 MLOAD PUSH3 0x461BCD PUSH1 0xE5 SHL DUP2 MSTORE PUSH1 0x20 PUSH1 0x4 DUP3 ADD MSTORE PUSH1 0x16 PUSH1 0x24 DUP3 ADD MSTORE PUSH22 0x10DA185C1D195C88191BD95CC81B9BDD08195E1A5CDD PUSH1 0x52 SHL PUSH1 0x44 DUP3 ADD MSTORE PUSH1 0x64 ADD PUSH2 0x7A1 JUMP JUMPDEST PUSH1 0x0 DUP6 DUP2 MSTORE PUSH1 0xFE PUSH1 0x20 SWAP1 DUP2 MSTORE PUSH1 0x40 SWAP2 DUP3 SWAP1 KECCAK256 DUP3 MLOAD PUSH1 0x80 PUSH1 0x1F DUP9 ADD DUP5 SWAP1 DIV SWAP1 SWAP4 MUL DUP2 ADD DUP4 ADD SWAP1 SWAP4 MSTORE PUSH1 0x60 DUP4 ADD DUP7 DUP2 MSTORE SWAP1 SWAP3 SWAP2 DUP3 SWAP2 SWAP1 DUP9 SWAP1 DUP9 SWAP1 DUP2 SWAP1 DUP6 ADD DUP4 DUP3 DUP1 DUP3 DUP5 CALLDATACOPY PUSH1 0x0 SWAP3 ADD SWAP2 SWAP1 SWAP2 MSTORE POP POP POP SWAP1 DUP3 MSTORE POP PUSH1 0x4 DUP4 ADD SLOAD PUSH1 0x20 SWAP1 SWAP2 ADD SWAP1 PUSH2 0x95F SWAP1 PUSH1 0x1 PUSH2 0x2F7A JUMP JUMPDEST DUP2 MSTORE PUSH1 0x20 ADD DUP5 DUP5 DUP1 DUP1 PUSH1 0x1F ADD PUSH1 0x20 DUP1 SWAP2 DIV MUL PUSH1 0x20 ADD PUSH1 0x40 MLOAD SWAP1 DUP2 ADD PUSH1 0x40 MSTORE DUP1 SWAP4 SWAP3 SWAP2 SWAP1 DUP2 DUP2 MSTORE PUSH1 0x20 ADD DUP4 DUP4 DUP1 DUP3 DUP5 CALLDATACOPY PUSH1 0x0 SWAP3 ADD DUP3 SWAP1 MSTORE POP SWAP4 SWAP1 SWAP5 MSTORE POP POP PUSH1 0x4 DUP5 ADD SLOAD PUSH1 0x3 DUP6 ADD SWAP3 POP PUSH2 0x9B2 SWAP1 PUSH1 0x1 PUSH2 0x2F7A JUMP JUMPDEST DUP2 MSTORE PUSH1 0x20 DUP2 ADD SWAP2 SWAP1 SWAP2 MSTORE PUSH1 0x40 ADD PUSH1 0x0 KECCAK256 DUP2 MLOAD DUP2 SWAP1 PUSH2 0x9D0 SWAP1 DUP3 PUSH2 0x2FD3 JUMP JUMPDEST POP PUSH1 0x20 DUP3 ADD MLOAD PUSH1 0x1 DUP3 ADD SSTORE PUSH1 0x40 DUP3 ADD MLOAD PUSH1 0x2 DUP3 ADD SWAP1 PUSH2 0x9EF SWAP1 DUP3 PUSH2 0x2FD3 JUMP JUMPDEST POP POP POP PUSH1 0x4 DUP2 ADD DUP1 SLOAD SWAP1 PUSH1 0x0 PUSH2 0xA04 DUP4 PUSH2 0x3092 JUMP JUMPDEST SWAP2 SWAP1 POP SSTORE POP POP POP POP POP POP POP JUMP JUMPDEST PUSH2 0xA1B CALLER DUP3 PUSH2 0x1D97 JUMP JUMPDEST PUSH2 0xA37 JUMPI PUSH1 0x40 MLOAD PUSH3 0x461BCD PUSH1 0xE5 SHL DUP2 MSTORE PUSH1 0x4 ADD PUSH2 0x7A1 SWAP1 PUSH2 0x30AB JUMP JUMPDEST PUSH2 0x842 DUP4 DUP4 DUP4 PUSH2 0x1E16 JUMP JUMPDEST PUSH1 0x0 PUSH2 0xA4D DUP4 PUSH2 0xE80 JUMP JUMPDEST DUP3 LT PUSH2 0xAAF JUMPI PUSH1 0x40 MLOAD PUSH3 0x461BCD PUSH1 0xE5 SHL DUP2 MSTORE PUSH1 0x20 PUSH1 0x4 DUP3 ADD MSTORE PUSH1 0x2B PUSH1 0x24 DUP3 ADD MSTORE PUSH32 0x455243373231456E756D657261626C653A206F776E657220696E646578206F75 PUSH1 0x44 DUP3 ADD MSTORE PUSH11 0x74206F6620626F756E6473 PUSH1 0xA8 SHL PUSH1 0x64 DUP3 ADD MSTORE PUSH1 0x84 ADD PUSH2 0x7A1 JUMP JUMPDEST POP PUSH1 0x1 PUSH1 0x1 PUSH1 0xA0 SHL SUB SWAP2 SWAP1 SWAP2 AND PUSH1 0x0 SWAP1 DUP2 MSTORE PUSH1 0x97 PUSH1 0x20 SWAP1 DUP2 MSTORE PUSH1 0x40 DUP1 DUP4 KECCAK256 SWAP4 DUP4 MSTORE SWAP3 SWAP1 MSTORE KECCAK256 SLOAD SWAP1 JUMP JUMPDEST PUSH1 0xFD PUSH1 0x20 MSTORE PUSH1 0x0 SWAP1 DUP2 MSTORE PUSH1 0x40 SWAP1 KECCAK256 DUP1 SLOAD DUP2 SWAP1 PUSH2 0xAF3 SWAP1 PUSH2 0x2E9F JUMP JUMPDEST DUP1 PUSH1 0x1F ADD PUSH1 0x20 DUP1 SWAP2 DIV MUL PUSH1 0x20 ADD PUSH1 0x40 MLOAD SWAP1 DUP2 ADD PUSH1 0x40 MSTORE DUP1 SWAP3 SWAP2 SWAP1 DUP2 DUP2 MSTORE PUSH1 0x20 ADD DUP3 DUP1 SLOAD PUSH2 0xB1F SWAP1 PUSH2 0x2E9F JUMP JUMPDEST DUP1 ISZERO PUSH2 0xB6C JUMPI DUP1 PUSH1 0x1F LT PUSH2 0xB41 JUMPI PUSH2 0x100 DUP1 DUP4 SLOAD DIV MUL DUP4 MSTORE SWAP2 PUSH1 0x20 ADD SWAP2 PUSH2 0xB6C JUMP JUMPDEST DUP3 ADD SWAP2 SWAP1 PUSH1 0x0 MSTORE PUSH1 0x20 PUSH1 0x0 KECCAK256 SWAP1 JUMPDEST DUP2 SLOAD DUP2 MSTORE SWAP1 PUSH1 0x1 ADD SWAP1 PUSH1 0x20 ADD DUP1 DUP4 GT PUSH2 0xB4F JUMPI DUP3 SWAP1 SUB PUSH1 0x1F AND DUP3 ADD SWAP2 JUMPDEST POP POP POP POP POP SWAP1 DUP1 PUSH1 0x1 ADD SLOAD SWAP1 DUP1 PUSH1 0x2 ADD DUP1 SLOAD PUSH2 0xB87 SWAP1 PUSH2 0x2E9F JUMP JUMPDEST DUP1 PUSH1 0x1F ADD PUSH1 0x20 DUP1 SWAP2 DIV MUL PUSH1 0x20 ADD PUSH1 0x40 MLOAD SWAP1 DUP2 ADD PUSH1 0x40 MSTORE DUP1 SWAP3 SWAP2 SWAP1 DUP2 DUP2 MSTORE PUSH1 0x20 ADD DUP3 DUP1 SLOAD PUSH2 0xBB3 SWAP1 PUSH2 0x2E9F JUMP JUMPDEST DUP1 ISZERO PUSH2 0xC00 JUMPI DUP1 PUSH1 0x1F LT PUSH2 0xBD5 JUMPI PUSH2 0x100 DUP1 DUP4 SLOAD DIV MUL DUP4 MSTORE SWAP2 PUSH1 0x20 ADD SWAP2 PUSH2 0xC00 JUMP JUMPDEST DUP3 ADD SWAP2 SWAP1 PUSH1 0x0 MSTORE PUSH1 0x20 PUSH1 0x0 KECCAK256 SWAP1 JUMPDEST DUP2 SLOAD DUP2 MSTORE SWAP1 PUSH1 0x1 ADD SWAP1 PUSH1 0x20 ADD DUP1 DUP4 GT PUSH2 0xBE3 JUMPI DUP3 SWAP1 SUB PUSH1 0x1F AND DUP3 ADD SWAP2 JUMPDEST POP POP POP POP POP SWAP1 POP DUP4 JUMP JUMPDEST PUSH2 0x842 DUP4 DUP4 DUP4 PUSH1 0x40 MLOAD DUP1 PUSH1 0x20 ADD PUSH1 0x40 MSTORE DUP1 PUSH1 0x0 DUP2 MSTORE POP PUSH2 0x124C JUMP JUMPDEST PUSH1 0x0 PUSH2 0xC30 PUSH1 0x99 SLOAD SWAP1 JUMP JUMPDEST DUP3 LT PUSH2 0xC93 JUMPI PUSH1 0x40 MLOAD PUSH3 0x461BCD PUSH1 0xE5 SHL DUP2 MSTORE PUSH1 0x20 PUSH1 0x4 DUP3 ADD MSTORE PUSH1 0x2C PUSH1 0x24 DUP3 ADD MSTORE PUSH32 0x455243373231456E756D657261626C653A20676C6F62616C20696E646578206F PUSH1 0x44 DUP3 ADD MSTORE PUSH12 0x7574206F6620626F756E6473 PUSH1 0xA0 SHL PUSH1 0x64 DUP3 ADD MSTORE PUSH1 0x84 ADD PUSH2 0x7A1 JUMP JUMPDEST PUSH1 0x99 DUP3 DUP2 SLOAD DUP2 LT PUSH2 0xCA6 JUMPI PUSH2 0xCA6 PUSH2 0x30F8 JUMP JUMPDEST SWAP1 PUSH1 0x0 MSTORE PUSH1 0x20 PUSH1 0x0 KECCAK256 ADD SLOAD SWAP1 POP SWAP2 SWAP1 POP JUMP JUMPDEST PUSH2 0xCC0 PUSH2 0x1D3D JUMP JUMPDEST PUSH1 0x0 DUP4 DUP2 MSTORE PUSH1 0xFE PUSH1 0x20 MSTORE PUSH1 0x40 DUP2 KECCAK256 SWAP1 JUMPDEST DUP4 MLOAD DUP2 LT ISZERO PUSH2 0xDAF JUMPI PUSH1 0x40 MLOAD DUP1 PUSH1 0x60 ADD PUSH1 0x40 MSTORE DUP1 DUP6 DUP4 DUP2 MLOAD DUP2 LT PUSH2 0xCF6 JUMPI PUSH2 0xCF6 PUSH2 0x30F8 JUMP JUMPDEST PUSH1 0x20 MUL PUSH1 0x20 ADD ADD MLOAD DUP2 MSTORE PUSH1 0x20 ADD DUP3 PUSH1 0x1 PUSH2 0xD10 SWAP2 SWAP1 PUSH2 0x2F7A JUMP JUMPDEST DUP2 MSTORE PUSH1 0x20 ADD DUP5 DUP4 DUP2 MLOAD DUP2 LT PUSH2 0xD27 JUMPI PUSH2 0xD27 PUSH2 0x30F8 JUMP JUMPDEST PUSH1 0x20 MUL PUSH1 0x20 ADD ADD MLOAD DUP2 MSTORE POP DUP3 PUSH1 0x3 ADD PUSH1 0x0 DUP4 PUSH1 0x1 PUSH2 0xD45 SWAP2 SWAP1 PUSH2 0x2F7A JUMP JUMPDEST DUP2 MSTORE PUSH1 0x20 DUP2 ADD SWAP2 SWAP1 SWAP2 MSTORE PUSH1 0x40 ADD PUSH1 0x0 KECCAK256 DUP2 MLOAD DUP2 SWAP1 PUSH2 0xD63 SWAP1 DUP3 PUSH2 0x2FD3 JUMP JUMPDEST POP PUSH1 0x20 DUP3 ADD MLOAD PUSH1 0x1 DUP3 ADD SSTORE PUSH1 0x40 DUP3 ADD MLOAD PUSH1 0x2 DUP3 ADD SWAP1 PUSH2 0xD82 SWAP1 DUP3 PUSH2 0x2FD3 JUMP JUMPDEST POP POP POP PUSH1 0x4 DUP3 ADD DUP1 SLOAD SWAP1 PUSH1 0x0 PUSH2 0xD97 DUP4 PUSH2 0x3092 JUMP JUMPDEST SWAP2 SWAP1 POP SSTORE POP DUP1 DUP1 PUSH2 0xDA7 SWAP1 PUSH2 0x3092 JUMP JUMPDEST SWAP2 POP POP PUSH2 0xCD0 JUMP JUMPDEST POP DUP1 PUSH2 0xDBB DUP8 DUP3 PUSH2 0x2FD3 JUMP JUMPDEST POP PUSH1 0x1 DUP2 ADD DUP5 SWAP1 SSTORE PUSH1 0x40 MLOAD PUSH2 0xDD4 SWAP1 DUP7 SWAP1 PUSH1 0x20 ADD PUSH2 0x28A8 JUMP JUMPDEST PUSH1 0x40 MLOAD PUSH1 0x20 DUP2 DUP4 SUB SUB DUP2 MSTORE SWAP1 PUSH1 0x40 MSTORE DUP1 MLOAD SWAP1 PUSH1 0x20 ADD KECCAK256 PUSH1 0x0 SUB PUSH2 0xE06 JUMPI PUSH1 0x40 MLOAD DUP1 PUSH1 0x20 ADD PUSH1 0x40 MSTORE DUP1 PUSH1 0x0 DUP2 MSTORE POP PUSH2 0xE08 JUMP JUMPDEST DUP5 JUMPDEST PUSH1 0x2 DUP3 ADD SWAP1 PUSH2 0xE17 SWAP1 DUP3 PUSH2 0x2FD3 JUMP JUMPDEST POP POP POP POP POP POP POP JUMP JUMPDEST PUSH1 0x0 DUP2 DUP2 MSTORE PUSH1 0x67 PUSH1 0x20 MSTORE PUSH1 0x40 DUP2 KECCAK256 SLOAD PUSH1 0x1 PUSH1 0x1 PUSH1 0xA0 SHL SUB AND DUP1 PUSH2 0x66E JUMPI PUSH1 0x40 MLOAD PUSH3 0x461BCD PUSH1 0xE5 SHL DUP2 MSTORE PUSH1 0x20 PUSH1 0x4 DUP3 ADD MSTORE PUSH1 0x18 PUSH1 0x24 DUP3 ADD MSTORE PUSH24 0x115490CDCC8C4E881A5B9D985B1A59081D1BDAD95B881251 PUSH1 0x42 SHL PUSH1 0x44 DUP3 ADD MSTORE PUSH1 0x64 ADD PUSH2 0x7A1 JUMP JUMPDEST PUSH1 0x0 PUSH1 0x1 PUSH1 0x1 PUSH1 0xA0 SHL SUB DUP3 AND PUSH2 0xEEA JUMPI PUSH1 0x40 MLOAD PUSH3 0x461BCD PUSH1 0xE5 SHL DUP2 MSTORE PUSH1 0x20 PUSH1 0x4 DUP3 ADD MSTORE PUSH1 0x29 PUSH1 0x24 DUP3 ADD MSTORE PUSH32 0x4552433732313A2061646472657373207A65726F206973206E6F742061207661 PUSH1 0x44 DUP3 ADD MSTORE PUSH9 0x3634B21037BBB732B9 PUSH1 0xB9 SHL PUSH1 0x64 DUP3 ADD MSTORE PUSH1 0x84 ADD PUSH2 0x7A1 JUMP JUMPDEST POP PUSH1 0x1 PUSH1 0x1 PUSH1 0xA0 SHL SUB AND PUSH1 0x0 SWAP1 DUP2 MSTORE PUSH1 0x68 PUSH1 0x20 MSTORE PUSH1 0x40 SWAP1 KECCAK256 SLOAD SWAP1 JUMP JUMPDEST PUSH2 0xF0E PUSH2 0x1D3D JUMP JUMPDEST PUSH2 0xF18 PUSH1 0x0 PUSH2 0x1F87 JUMP JUMPDEST JUMP JUMPDEST PUSH1 0xFF DUP1 SLOAD PUSH2 0xF27 SWAP1 PUSH2 0x2E9F JUMP JUMPDEST DUP1 PUSH1 0x1F ADD PUSH1 0x20 DUP1 SWAP2 DIV MUL PUSH1 0x20 ADD PUSH1 0x40 MLOAD SWAP1 DUP2 ADD PUSH1 0x40 MSTORE DUP1 SWAP3 SWAP2 SWAP1 DUP2 DUP2 MSTORE PUSH1 0x20 ADD DUP3 DUP1 SLOAD PUSH2 0xF53 SWAP1 PUSH2 0x2E9F JUMP JUMPDEST DUP1 ISZERO PUSH2 0xFA0 JUMPI DUP1 PUSH1 0x1F LT PUSH2 0xF75 JUMPI PUSH2 0x100 DUP1 DUP4 SLOAD DIV MUL DUP4 MSTORE SWAP2 PUSH1 0x20 ADD SWAP2 PUSH2 0xFA0 JUMP JUMPDEST DUP3 ADD SWAP2 SWAP1 PUSH1 0x0 MSTORE PUSH1 0x20 PUSH1 0x0 KECCAK256 SWAP1 JUMPDEST DUP2 SLOAD DUP2 MSTORE SWAP1 PUSH1 0x1 ADD SWAP1 PUSH1 0x20 ADD DUP1 DUP4 GT PUSH2 0xF83 JUMPI DUP3 SWAP1 SUB PUSH1 0x1F AND DUP3 ADD SWAP2 JUMPDEST POP POP POP POP POP DUP2 JUMP JUMPDEST PUSH1 0x0 SLOAD PUSH2 0x100 SWAP1 DIV PUSH1 0xFF AND ISZERO DUP1 DUP1 ISZERO PUSH2 0xFC8 JUMPI POP PUSH1 0x0 SLOAD PUSH1 0x1 PUSH1 0xFF SWAP1 SWAP2 AND LT JUMPDEST DUP1 PUSH2 0xFE2 JUMPI POP ADDRESS EXTCODESIZE ISZERO DUP1 ISZERO PUSH2 0xFE2 JUMPI POP PUSH1 0x0 SLOAD PUSH1 0xFF AND PUSH1 0x1 EQ JUMPDEST PUSH2 0x1045 JUMPI PUSH1 0x40 MLOAD PUSH3 0x461BCD PUSH1 0xE5 SHL DUP2 MSTORE PUSH1 0x20 PUSH1 0x4 DUP3 ADD MSTORE PUSH1 0x2E PUSH1 0x24 DUP3 ADD MSTORE PUSH32 0x496E697469616C697A61626C653A20636F6E747261637420697320616C726561 PUSH1 0x44 DUP3 ADD MSTORE PUSH14 0x191E481A5B9A5D1A585B1A5E9959 PUSH1 0x92 SHL PUSH1 0x64 DUP3 ADD MSTORE PUSH1 0x84 ADD PUSH2 0x7A1 JUMP JUMPDEST PUSH1 0x0 DUP1 SLOAD PUSH1 0xFF NOT AND PUSH1 0x1 OR SWAP1 SSTORE DUP1 ISZERO PUSH2 0x1068 JUMPI PUSH1 0x0 DUP1 SLOAD PUSH2 0xFF00 NOT AND PUSH2 0x100 OR SWAP1 SSTORE JUMPDEST PUSH2 0x10C6 DUP6 DUP6 DUP1 DUP1 PUSH1 0x1F ADD PUSH1 0x20 DUP1 SWAP2 DIV MUL PUSH1 0x20 ADD PUSH1 0x40 MLOAD SWAP1 DUP2 ADD PUSH1 0x40 MSTORE DUP1 SWAP4 SWAP3 SWAP2 SWAP1 DUP2 DUP2 MSTORE PUSH1 0x20 ADD DUP4 DUP4 DUP1 DUP3 DUP5 CALLDATACOPY PUSH1 0x0 SWAP3 ADD SWAP2 SWAP1 SWAP2 MSTORE POP POP PUSH1 0x40 DUP1 MLOAD DUP1 DUP3 ADD SWAP1 SWAP2 MSTORE PUSH1 0x7 DUP2 MSTORE PUSH7 0x5055424C495553 PUSH1 0xC8 SHL PUSH1 0x20 DUP3 ADD MSTORE SWAP2 POP PUSH2 0x1FD9 SWAP1 POP JUMP JUMPDEST PUSH2 0x10CE PUSH2 0x200A JUMP JUMPDEST PUSH2 0x10D7 DUP7 PUSH2 0x1846 JUMP JUMPDEST PUSH1 0xFF PUSH2 0x10E4 DUP6 DUP8 DUP4 PUSH2 0x310E JUMP JUMPDEST POP PUSH2 0x100 DUP1 SLOAD PUSH1 0x1 PUSH1 0x1 PUSH1 0xA0 SHL SUB NOT AND PUSH1 0x1 PUSH1 0x1 PUSH1 0xA0 SHL SUB DUP9 AND OR SWAP1 SSTORE PUSH2 0x101 PUSH2 0x110F DUP4 DUP6 DUP4 PUSH2 0x310E JUMP JUMPDEST POP DUP1 ISZERO PUSH2 0x1156 JUMPI PUSH1 0x0 DUP1 SLOAD PUSH2 0xFF00 NOT AND SWAP1 SSTORE PUSH1 0x40 MLOAD PUSH1 0x1 DUP2 MSTORE PUSH32 0x7F26B83FF96E1F2B6A682F133852F6798A09C465DA95921460CEFB3847402498 SWAP1 PUSH1 0x20 ADD PUSH1 0x40 MLOAD DUP1 SWAP2 SUB SWAP1 LOG1 JUMPDEST POP POP POP POP POP POP JUMP JUMPDEST PUSH1 0x60 PUSH1 0x66 DUP1 SLOAD PUSH2 0x683 SWAP1 PUSH2 0x2E9F JUMP JUMPDEST PUSH2 0x117E DUP2 PUSH7 0x2386F26FC10000 PUSH2 0x31CD JUMP JUMPDEST CALLVALUE LT ISZERO PUSH2 0x11C3 JUMPI PUSH1 0x40 MLOAD PUSH3 0x461BCD PUSH1 0xE5 SHL DUP2 MSTORE PUSH1 0x20 PUSH1 0x4 DUP3 ADD MSTORE PUSH1 0x13 PUSH1 0x24 DUP3 ADD MSTORE PUSH19 0x139BDD08195B9BDD59DA08115512081CD95B9D PUSH1 0x6A SHL PUSH1 0x44 DUP3 ADD MSTORE PUSH1 0x64 ADD PUSH2 0x7A1 JUMP JUMPDEST PUSH1 0x0 JUMPDEST DUP2 DUP2 LT ISZERO PUSH2 0x123D JUMPI PUSH1 0x0 PUSH2 0x11D9 PUSH1 0x99 SLOAD SWAP1 JUMP JUMPDEST PUSH2 0x11E4 SWAP1 PUSH1 0x1 PUSH2 0x2F7A JUMP JUMPDEST SWAP1 POP PUSH2 0x11F0 CALLER DUP3 PUSH2 0x2039 JUMP JUMPDEST PUSH1 0x0 DUP2 DUP2 MSTORE PUSH1 0xFB PUSH1 0x20 SWAP1 DUP2 MSTORE PUSH1 0x40 DUP1 DUP4 KECCAK256 DUP1 SLOAD PUSH1 0x1 PUSH1 0x1 PUSH1 0xA0 SHL SUB NOT AND CALLER SWAP1 DUP2 OR SWAP1 SWAP2 SSTORE DUP4 MSTORE PUSH1 0xFC DUP3 MSTORE DUP3 KECCAK256 DUP1 SLOAD PUSH1 0x1 DUP2 ADD DUP3 SSTORE SWAP1 DUP4 MSTORE SWAP2 KECCAK256 ADD SSTORE DUP1 PUSH2 0x1235 DUP2 PUSH2 0x3092 JUMP JUMPDEST SWAP2 POP POP PUSH2 0x11C6 JUMP JUMPDEST POP POP JUMP JUMPDEST PUSH2 0x123D CALLER DUP4 DUP4 PUSH2 0x21D2 JUMP JUMPDEST PUSH2 0x1256 CALLER DUP4 PUSH2 0x1D97 JUMP JUMPDEST PUSH2 0x1272 JUMPI PUSH1 0x40 MLOAD PUSH3 0x461BCD PUSH1 0xE5 SHL DUP2 MSTORE PUSH1 0x4 ADD PUSH2 0x7A1 SWAP1 PUSH2 0x30AB JUMP JUMPDEST PUSH2 0x127E DUP5 DUP5 DUP5 DUP5 PUSH2 0x22A0 JUMP JUMPDEST POP POP POP POP JUMP JUMPDEST PUSH1 0x0 DUP2 DUP2 MSTORE PUSH1 0x67 PUSH1 0x20 MSTORE PUSH1 0x40 SWAP1 KECCAK256 SLOAD PUSH1 0x60 SWAP1 PUSH1 0x1 PUSH1 0x1 PUSH1 0xA0 SHL SUB AND PUSH2 0x1303 JUMPI PUSH1 0x40 MLOAD PUSH3 0x461BCD PUSH1 0xE5 SHL DUP2 MSTORE PUSH1 0x20 PUSH1 0x4 DUP3 ADD MSTORE PUSH1 0x2F PUSH1 0x24 DUP3 ADD MSTORE PUSH32 0x4552433732314D657461646174613A2055524920717565727920666F72206E6F PUSH1 0x44 DUP3 ADD MSTORE PUSH15 0x3732BC34B9BA32B73A103A37B5B2B7 PUSH1 0x89 SHL PUSH1 0x64 DUP3 ADD MSTORE PUSH1 0x84 ADD PUSH2 0x7A1 JUMP JUMPDEST PUSH1 0x40 DUP1 MLOAD DUP1 DUP3 ADD DUP3 MSTORE PUSH1 0x12 DUP2 MSTORE PUSH18 0x7B20225075626C69636174696F6E223A207B PUSH1 0x70 SHL PUSH1 0x20 DUP1 DUP4 ADD SWAP2 SWAP1 SWAP2 MSTORE PUSH2 0x100 SLOAD SWAP3 MLOAD SWAP2 SWAP3 PUSH2 0x1354 SWAP3 PUSH1 0xFF SWAP3 PUSH1 0x1 PUSH1 0x1 PUSH1 0xA0 SHL SUB SWAP1 SWAP3 AND SWAP2 PUSH2 0x101 SWAP2 ADD PUSH2 0x3257 JUMP JUMPDEST PUSH1 0x40 MLOAD PUSH1 0x20 DUP2 DUP4 SUB SUB DUP2 MSTORE SWAP1 PUSH1 0x40 MSTORE SWAP1 POP PUSH1 0x0 JUMPDEST PUSH2 0x102 SLOAD DUP2 LT ISZERO PUSH2 0x160B JUMPI PUSH1 0x0 DUP2 DUP2 MSTORE PUSH1 0xFD PUSH1 0x20 MSTORE PUSH1 0x40 DUP2 KECCAK256 PUSH1 0x1 DUP2 ADD SLOAD SWAP1 SWAP2 SWAP1 PUSH2 0x1392 SWAP1 PUSH2 0x22D3 JUMP JUMPDEST PUSH1 0x40 MLOAD PUSH2 0x13A9 SWAP2 SWAP1 DUP5 SWAP1 PUSH1 0x2 DUP3 ADD SWAP1 PUSH1 0x20 ADD PUSH2 0x32FE JUMP JUMPDEST PUSH1 0x40 MLOAD PUSH1 0x20 DUP2 DUP4 SUB SUB DUP2 MSTORE SWAP1 PUSH1 0x40 MSTORE SWAP1 POP PUSH1 0x0 JUMPDEST PUSH1 0x3 DUP4 ADD SLOAD DUP2 LT ISZERO PUSH2 0x1575 JUMPI PUSH1 0x0 DUP2 DUP2 MSTORE PUSH1 0xFE PUSH1 0x20 MSTORE PUSH1 0x40 DUP2 KECCAK256 PUSH1 0x1 DUP2 ADD SLOAD SWAP1 SWAP2 SWAP1 PUSH2 0x13E8 SWAP1 PUSH2 0x22D3 JUMP JUMPDEST PUSH1 0x40 MLOAD PUSH2 0x13FF SWAP2 SWAP1 DUP5 SWAP1 PUSH1 0x2 DUP3 ADD SWAP1 PUSH1 0x20 ADD PUSH2 0x33A3 JUMP JUMPDEST PUSH1 0x40 MLOAD PUSH1 0x20 DUP2 DUP4 SUB SUB DUP2 MSTORE SWAP1 PUSH1 0x40 MSTORE SWAP1 POP PUSH1 0x0 JUMPDEST DUP3 PUSH1 0x4 ADD SLOAD DUP2 LT ISZERO PUSH2 0x14DC JUMPI PUSH1 0x0 DUP2 DUP2 MSTORE PUSH1 0x3 DUP5 ADD PUSH1 0x20 MSTORE PUSH1 0x40 DUP2 KECCAK256 PUSH1 0x1 DUP2 ADD SLOAD SWAP1 SWAP2 SWAP1 PUSH2 0x1440 SWAP1 PUSH2 0x22D3 JUMP JUMPDEST PUSH1 0x40 MLOAD PUSH2 0x1457 SWAP2 SWAP1 DUP5 SWAP1 PUSH1 0x2 DUP3 ADD SWAP1 PUSH1 0x20 ADD PUSH2 0x3445 JUMP JUMPDEST PUSH1 0x40 MLOAD PUSH1 0x20 DUP2 DUP4 SUB SUB DUP2 MSTORE SWAP1 PUSH1 0x40 MSTORE SWAP1 POP PUSH1 0x1 DUP6 PUSH1 0x4 ADD SLOAD PUSH2 0x1479 SWAP2 SWAP1 PUSH2 0x34D5 JUMP JUMPDEST DUP4 LT ISZERO PUSH2 0x14A3 JUMPI DUP1 PUSH1 0x40 MLOAD PUSH1 0x20 ADD PUSH2 0x1491 SWAP2 SWAP1 PUSH2 0x34E8 JUMP JUMPDEST PUSH1 0x40 MLOAD PUSH1 0x20 DUP2 DUP4 SUB SUB DUP2 MSTORE SWAP1 PUSH1 0x40 MSTORE SWAP1 POP JUMPDEST DUP4 DUP2 PUSH1 0x40 MLOAD PUSH1 0x20 ADD PUSH2 0x14B6 SWAP3 SWAP2 SWAP1 PUSH2 0x350D JUMP JUMPDEST PUSH1 0x40 MLOAD PUSH1 0x20 DUP2 DUP4 SUB SUB DUP2 MSTORE SWAP1 PUSH1 0x40 MSTORE SWAP4 POP POP POP DUP1 DUP1 PUSH2 0x14D4 SWAP1 PUSH2 0x3092 JUMP JUMPDEST SWAP2 POP POP PUSH2 0x1413 JUMP JUMPDEST POP DUP1 PUSH1 0x40 MLOAD PUSH1 0x20 ADD PUSH2 0x14EE SWAP2 SWAP1 PUSH2 0x353C JUMP JUMPDEST PUSH1 0x40 DUP1 MLOAD PUSH1 0x1F NOT DUP2 DUP5 SUB ADD DUP2 MSTORE SWAP2 SWAP1 MSTORE PUSH1 0x3 DUP7 ADD SLOAD SWAP1 SWAP2 POP PUSH2 0x1512 SWAP1 PUSH1 0x1 SWAP1 PUSH2 0x34D5 JUMP JUMPDEST DUP4 LT ISZERO PUSH2 0x153C JUMPI DUP1 PUSH1 0x40 MLOAD PUSH1 0x20 ADD PUSH2 0x152A SWAP2 SWAP1 PUSH2 0x34E8 JUMP JUMPDEST PUSH1 0x40 MLOAD PUSH1 0x20 DUP2 DUP4 SUB SUB DUP2 MSTORE SWAP1 PUSH1 0x40 MSTORE SWAP1 POP JUMPDEST DUP4 DUP2 PUSH1 0x40 MLOAD PUSH1 0x20 ADD PUSH2 0x154F SWAP3 SWAP2 SWAP1 PUSH2 0x350D JUMP JUMPDEST PUSH1 0x40 MLOAD PUSH1 0x20 DUP2 DUP4 SUB SUB DUP2 MSTORE SWAP1 PUSH1 0x40 MSTORE SWAP4 POP POP POP DUP1 DUP1 PUSH2 0x156D SWAP1 PUSH2 0x3092 JUMP JUMPDEST SWAP2 POP POP PUSH2 0x13BD JUMP JUMPDEST POP DUP1 PUSH1 0x40 MLOAD PUSH1 0x20 ADD PUSH2 0x1587 SWAP2 SWAP1 PUSH2 0x353C JUMP JUMPDEST PUSH1 0x40 MLOAD PUSH1 0x20 DUP2 DUP4 SUB SUB DUP2 MSTORE SWAP1 PUSH1 0x40 MSTORE SWAP1 POP PUSH1 0x1 PUSH2 0x102 SLOAD PUSH2 0x15A8 SWAP2 SWAP1 PUSH2 0x34D5 JUMP JUMPDEST DUP4 LT ISZERO PUSH2 0x15D2 JUMPI DUP1 PUSH1 0x40 MLOAD PUSH1 0x20 ADD PUSH2 0x15C0 SWAP2 SWAP1 PUSH2 0x34E8 JUMP JUMPDEST PUSH1 0x40 MLOAD PUSH1 0x20 DUP2 DUP4 SUB SUB DUP2 MSTORE SWAP1 PUSH1 0x40 MSTORE SWAP1 POP JUMPDEST DUP4 DUP2 PUSH1 0x40 MLOAD PUSH1 0x20 ADD PUSH2 0x15E5 SWAP3 SWAP2 SWAP1 PUSH2 0x350D JUMP JUMPDEST PUSH1 0x40 MLOAD PUSH1 0x20 DUP2 DUP4 SUB SUB DUP2 MSTORE SWAP1 PUSH1 0x40 MSTORE SWAP4 POP POP POP DUP1 DUP1 PUSH2 0x1603 SWAP1 PUSH2 0x3092 JUMP JUMPDEST SWAP2 POP POP PUSH2 0x1368 JUMP JUMPDEST POP DUP1 PUSH1 0x40 MLOAD PUSH1 0x20 ADD PUSH2 0x161D SWAP2 SWAP1 PUSH2 0x353C JUMP JUMPDEST PUSH1 0x40 MLOAD PUSH1 0x20 DUP2 DUP4 SUB SUB DUP2 MSTORE SWAP1 PUSH1 0x40 MSTORE SWAP1 POP DUP1 PUSH1 0x40 MLOAD PUSH1 0x20 ADD PUSH2 0x163F SWAP2 SWAP1 PUSH2 0x3562 JUMP JUMPDEST PUSH1 0x40 DUP1 MLOAD DUP1 DUP4 SUB PUSH1 0x1F NOT ADD DUP2 MSTORE PUSH1 0x20 DUP1 DUP5 ADD DUP4 MSTORE PUSH1 0x0 DUP5 MSTORE SWAP2 MLOAD SWAP1 SWAP4 POP PUSH2 0x166A SWAP2 DUP4 SWAP2 DUP6 SWAP2 ADD PUSH2 0x350D JUMP JUMPDEST PUSH1 0x40 MLOAD PUSH1 0x20 DUP2 DUP4 SUB SUB DUP2 MSTORE SWAP1 PUSH1 0x40 MSTORE SWAP3 POP POP POP SWAP2 SWAP1 POP JUMP JUMPDEST PUSH2 0x101 DUP1 SLOAD PUSH2 0xF27 SWAP1 PUSH2 0x2E9F JUMP JUMPDEST PUSH2 0x16B4 PUSH1 0x40 MLOAD DUP1 PUSH1 0x60 ADD PUSH1 0x40 MSTORE DUP1 PUSH1 0x60 DUP2 MSTORE PUSH1 0x20 ADD PUSH1 0x0 DUP2 MSTORE PUSH1 0x20 ADD PUSH1 0x60 DUP2 MSTORE POP SWAP1 JUMP JUMPDEST PUSH1 0x0 DUP4 DUP2 MSTORE PUSH1 0xFE PUSH1 0x20 SWAP1 DUP2 MSTORE PUSH1 0x40 DUP1 DUP4 KECCAK256 DUP6 DUP5 MSTORE PUSH1 0x3 DUP2 ADD SWAP1 SWAP3 MSTORE SWAP2 DUP3 SWAP1 KECCAK256 DUP3 MLOAD PUSH1 0x60 DUP2 ADD SWAP1 SWAP4 MSTORE DUP1 SLOAD SWAP2 SWAP3 SWAP2 DUP3 SWAP1 DUP3 SWAP1 PUSH2 0x16EE SWAP1 PUSH2 0x2E9F JUMP JUMPDEST DUP1 PUSH1 0x1F ADD PUSH1 0x20 DUP1 SWAP2 DIV MUL PUSH1 0x20 ADD PUSH1 0x40 MLOAD SWAP1 DUP2 ADD PUSH1 0x40 MSTORE DUP1 SWAP3 SWAP2 SWAP1 DUP2 DUP2 MSTORE PUSH1 0x20 ADD DUP3 DUP1 SLOAD PUSH2 0x171A SWAP1 PUSH2 0x2E9F JUMP JUMPDEST DUP1 ISZERO PUSH2 0x1767 JUMPI DUP1 PUSH1 0x1F LT PUSH2 0x173C JUMPI PUSH2 0x100 DUP1 DUP4 SLOAD DIV MUL DUP4 MSTORE SWAP2 PUSH1 0x20 ADD SWAP2 PUSH2 0x1767 JUMP JUMPDEST DUP3 ADD SWAP2 SWAP1 PUSH1 0x0 MSTORE PUSH1 0x20 PUSH1 0x0 KECCAK256 SWAP1 JUMPDEST DUP2 SLOAD DUP2 MSTORE SWAP1 PUSH1 0x1 ADD SWAP1 PUSH1 0x20 ADD DUP1 DUP4 GT PUSH2 0x174A JUMPI DUP3 SWAP1 SUB PUSH1 0x1F AND DUP3 ADD SWAP2 JUMPDEST POP POP POP POP POP DUP2 MSTORE PUSH1 0x20 ADD PUSH1 0x1 DUP3 ADD SLOAD DUP2 MSTORE PUSH1 0x20 ADD PUSH1 0x2 DUP3 ADD DUP1 SLOAD PUSH2 0x178A SWAP1 PUSH2 0x2E9F JUMP JUMPDEST DUP1 PUSH1 0x1F ADD PUSH1 0x20 DUP1 SWAP2 DIV MUL PUSH1 0x20 ADD PUSH1 0x40 MLOAD SWAP1 DUP2 ADD PUSH1 0x40 MSTORE DUP1 SWAP3 SWAP2 SWAP1 DUP2 DUP2 MSTORE PUSH1 0x20 ADD DUP3 DUP1 SLOAD PUSH2 0x17B6 SWAP1 PUSH2 0x2E9F JUMP JUMPDEST DUP1 ISZERO PUSH2 0x1803 JUMPI DUP1 PUSH1 0x1F LT PUSH2 0x17D8 JUMPI PUSH2 0x100 DUP1 DUP4 SLOAD DIV MUL DUP4 MSTORE SWAP2 PUSH1 0x20 ADD SWAP2 PUSH2 0x1803 JUMP JUMPDEST DUP3 ADD SWAP2 SWAP1 PUSH1 0x0 MSTORE PUSH1 0x20 PUSH1 0x0 KECCAK256 SWAP1 JUMPDEST DUP2 SLOAD DUP2 MSTORE SWAP1 PUSH1 0x1 ADD SWAP1 PUSH1 0x20 ADD DUP1 DUP4 GT PUSH2 0x17E6 JUMPI DUP3 SWAP1 SUB PUSH1 0x1F AND DUP3 ADD SWAP2 JUMPDEST POP POP POP POP POP DUP2 MSTORE POP POP SWAP2 POP POP SWAP3 SWAP2 POP POP JUMP JUMPDEST PUSH1 0xFC PUSH1 0x20 MSTORE DUP2 PUSH1 0x0 MSTORE PUSH1 0x40 PUSH1 0x0 KECCAK256 DUP2 DUP2 SLOAD DUP2 LT PUSH2 0x1831 JUMPI PUSH1 0x0 DUP1 REVERT JUMPDEST SWAP1 PUSH1 0x0 MSTORE PUSH1 0x20 PUSH1 0x0 KECCAK256 ADD PUSH1 0x0 SWAP2 POP SWAP2 POP POP SLOAD DUP2 JUMP JUMPDEST PUSH2 0x184E PUSH2 0x1D3D JUMP JUMPDEST PUSH1 0x1 PUSH1 0x1 PUSH1 0xA0 SHL SUB DUP2 AND PUSH2 0x18B3 JUMPI PUSH1 0x40 MLOAD PUSH3 0x461BCD PUSH1 0xE5 SHL DUP2 MSTORE PUSH1 0x20 PUSH1 0x4 DUP3 ADD MSTORE PUSH1 0x26 PUSH1 0x24 DUP3 ADD MSTORE PUSH32 0x4F776E61626C653A206E6577206F776E657220697320746865207A65726F2061 PUSH1 0x44 DUP3 ADD MSTORE PUSH6 0x646472657373 PUSH1 0xD0 SHL PUSH1 0x64 DUP3 ADD MSTORE PUSH1 0x84 ADD PUSH2 0x7A1 JUMP JUMPDEST PUSH2 0x18BC DUP2 PUSH2 0x1F87 JUMP JUMPDEST POP JUMP JUMPDEST PUSH1 0xFE PUSH1 0x20 MSTORE PUSH1 0x0 SWAP1 DUP2 MSTORE PUSH1 0x40 SWAP1 KECCAK256 DUP1 SLOAD DUP2 SWAP1 PUSH2 0x18DA SWAP1 PUSH2 0x2E9F JUMP JUMPDEST DUP1 PUSH1 0x1F ADD PUSH1 0x20 DUP1 SWAP2 DIV MUL PUSH1 0x20 ADD PUSH1 0x40 MLOAD SWAP1 DUP2 ADD PUSH1 0x40 MSTORE DUP1 SWAP3 SWAP2 SWAP1 DUP2 DUP2 MSTORE PUSH1 0x20 ADD DUP3 DUP1 SLOAD PUSH2 0x1906 SWAP1 PUSH2 0x2E9F JUMP JUMPDEST DUP1 ISZERO PUSH2 0x1953 JUMPI DUP1 PUSH1 0x1F LT PUSH2 0x1928 JUMPI PUSH2 0x100 DUP1 DUP4 SLOAD DIV MUL DUP4 MSTORE SWAP2 PUSH1 0x20 ADD SWAP2 PUSH2 0x1953 JUMP JUMPDEST DUP3 ADD SWAP2 SWAP1 PUSH1 0x0 MSTORE PUSH1 0x20 PUSH1 0x0 KECCAK256 SWAP1 JUMPDEST DUP2 SLOAD DUP2 MSTORE SWAP1 PUSH1 0x1 ADD SWAP1 PUSH1 0x20 ADD DUP1 DUP4 GT PUSH2 0x1936 JUMPI DUP3 SWAP1 SUB PUSH1 0x1F AND DUP3 ADD SWAP2 JUMPDEST POP POP POP POP POP SWAP1 DUP1 PUSH1 0x1 ADD SLOAD SWAP1 DUP1 PUSH1 0x2 ADD DUP1 SLOAD PUSH2 0x196E SWAP1 PUSH2 0x2E9F JUMP JUMPDEST DUP1 PUSH1 0x1F ADD PUSH1 0x20 DUP1 SWAP2 DIV MUL PUSH1 0x20 ADD PUSH1 0x40 MLOAD SWAP1 DUP2 ADD PUSH1 0x40 MSTORE DUP1 SWAP3 SWAP2 SWAP1 DUP2 DUP2 MSTORE PUSH1 0x20 ADD DUP3 DUP1 SLOAD PUSH2 0x199A SWAP1 PUSH2 0x2E9F JUMP JUMPDEST DUP1 ISZERO PUSH2 0x19E7 JUMPI DUP1 PUSH1 0x1F LT PUSH2 0x19BC JUMPI PUSH2 0x100 DUP1 DUP4 SLOAD DIV MUL DUP4 MSTORE SWAP2 PUSH1 0x20 ADD SWAP2 PUSH2 0x19E7 JUMP JUMPDEST DUP3 ADD SWAP2 SWAP1 PUSH1 0x0 MSTORE PUSH1 0x20 PUSH1 0x0 KECCAK256 SWAP1 JUMPDEST DUP2 SLOAD DUP2 MSTORE SWAP1 PUSH1 0x1 ADD SWAP1 PUSH1 0x20 ADD DUP1 DUP4 GT PUSH2 0x19CA JUMPI DUP3 SWAP1 SUB PUSH1 0x1F AND DUP3 ADD SWAP2 JUMPDEST POP POP POP POP POP SWAP1 DUP1 PUSH1 0x4 ADD SLOAD SWAP1 POP DUP5 JUMP JUMPDEST PUSH2 0x19FF PUSH2 0x1D3D JUMP JUMPDEST PUSH1 0x0 DUP1 DUP1 DUP1 DUP1 DUP1 DUP1 DUP1 DUP1 PUSH2 0x1A15 DUP11 DUP13 ADD DUP13 PUSH2 0x35E3 JUMP JUMPDEST SWAP9 POP SWAP9 POP SWAP9 POP SWAP9 POP SWAP9 POP SWAP9 POP SWAP9 POP SWAP9 POP SWAP9 POP DUP8 PUSH1 0xFD PUSH1 0x0 DUP12 DUP2 MSTORE PUSH1 0x20 ADD SWAP1 DUP2 MSTORE PUSH1 0x20 ADD PUSH1 0x0 KECCAK256 PUSH1 0x0 ADD SWAP1 DUP2 PUSH2 0x1A4A SWAP2 SWAP1 PUSH2 0x2FD3 JUMP JUMPDEST POP PUSH1 0x0 DUP10 DUP2 MSTORE PUSH1 0xFD PUSH1 0x20 MSTORE PUSH1 0x40 SWAP1 KECCAK256 PUSH1 0x1 DUP2 ADD DUP11 SWAP1 SSTORE PUSH1 0x2 ADD PUSH2 0x1A6D DUP9 DUP3 PUSH2 0x2FD3 JUMP JUMPDEST POP PUSH1 0x0 JUMPDEST DUP7 MLOAD DUP2 LT ISZERO PUSH2 0x1BFC JUMPI PUSH1 0x0 DUP8 DUP3 DUP2 MLOAD DUP2 LT PUSH2 0x1A8E JUMPI PUSH2 0x1A8E PUSH2 0x30F8 JUMP JUMPDEST PUSH1 0x20 MUL PUSH1 0x20 ADD ADD MLOAD SWAP1 POP PUSH1 0x0 DUP8 DUP4 DUP2 MLOAD DUP2 LT PUSH2 0x1AAC JUMPI PUSH2 0x1AAC PUSH2 0x30F8 JUMP JUMPDEST PUSH1 0x20 MUL PUSH1 0x20 ADD ADD MLOAD SWAP1 POP PUSH1 0x0 DUP8 DUP5 DUP2 MLOAD DUP2 LT PUSH2 0x1ACA JUMPI PUSH2 0x1ACA PUSH2 0x30F8 JUMP JUMPDEST PUSH1 0x20 SWAP1 DUP2 MUL SWAP2 SWAP1 SWAP2 ADD DUP2 ADD MLOAD PUSH1 0x0 DUP6 DUP2 MSTORE PUSH1 0xFE SWAP1 SWAP3 MSTORE PUSH1 0x40 SWAP1 SWAP2 KECCAK256 SWAP1 SWAP2 POP DUP1 PUSH2 0x1AF3 DUP5 DUP3 PUSH2 0x2FD3 JUMP JUMPDEST POP PUSH1 0x1 DUP2 ADD DUP5 SWAP1 SSTORE PUSH1 0x2 DUP2 ADD PUSH2 0x1B09 DUP4 DUP3 PUSH2 0x2FD3 JUMP JUMPDEST POP PUSH1 0x0 JUMPDEST DUP9 MLOAD DUP2 LT ISZERO PUSH2 0x1BE4 JUMPI PUSH1 0x0 DUP10 DUP3 DUP2 MLOAD DUP2 LT PUSH2 0x1B2A JUMPI PUSH2 0x1B2A PUSH2 0x30F8 JUMP JUMPDEST PUSH1 0x20 MUL PUSH1 0x20 ADD ADD MLOAD SWAP1 POP PUSH1 0x0 DUP10 DUP4 DUP2 MLOAD DUP2 LT PUSH2 0x1B48 JUMPI PUSH2 0x1B48 PUSH2 0x30F8 JUMP JUMPDEST PUSH1 0x20 MUL PUSH1 0x20 ADD ADD MLOAD SWAP1 POP PUSH1 0x0 DUP10 DUP5 DUP2 MLOAD DUP2 LT PUSH2 0x1B66 JUMPI PUSH2 0x1B66 PUSH2 0x30F8 JUMP JUMPDEST PUSH1 0x20 SWAP1 DUP2 MUL SWAP2 SWAP1 SWAP2 ADD DUP2 ADD MLOAD PUSH1 0x40 DUP1 MLOAD PUSH1 0x60 DUP2 ADD DUP3 MSTORE DUP6 DUP2 MSTORE DUP1 DUP5 ADD DUP8 SWAP1 MSTORE DUP1 DUP3 ADD DUP4 SWAP1 MSTORE PUSH1 0x0 DUP9 DUP2 MSTORE PUSH1 0x3 DUP11 ADD SWAP1 SWAP5 MSTORE SWAP3 KECCAK256 DUP3 MLOAD SWAP2 SWAP4 POP SWAP1 DUP2 SWAP1 PUSH2 0x1BAB SWAP1 DUP3 PUSH2 0x2FD3 JUMP JUMPDEST POP PUSH1 0x20 DUP3 ADD MLOAD PUSH1 0x1 DUP3 ADD SSTORE PUSH1 0x40 DUP3 ADD MLOAD PUSH1 0x2 DUP3 ADD SWAP1 PUSH2 0x1BCA SWAP1 DUP3 PUSH2 0x2FD3 JUMP JUMPDEST POP SWAP1 POP POP POP POP POP DUP1 DUP1 PUSH2 0x1BDC SWAP1 PUSH2 0x3092 JUMP JUMPDEST SWAP2 POP POP PUSH2 0x1B0D JUMP JUMPDEST POP POP POP POP POP DUP1 DUP1 PUSH2 0x1BF4 SWAP1 PUSH2 0x3092 JUMP JUMPDEST SWAP2 POP POP PUSH2 0x1A71 JUMP JUMPDEST POP PUSH2 0x102 DUP1 SLOAD SWAP1 PUSH1 0x0 PUSH2 0x1C0E DUP4 PUSH2 0x3092 JUMP JUMPDEST SWAP2 SWAP1 POP SSTORE POP POP POP POP POP POP POP POP POP POP POP POP JUMP JUMPDEST PUSH1 0x0 PUSH1 0x1 PUSH1 0x1 PUSH1 0xE0 SHL SUB NOT DUP3 AND PUSH4 0x80AC58CD PUSH1 0xE0 SHL EQ DUP1 PUSH2 0x1C51 JUMPI POP PUSH1 0x1 PUSH1 0x1 PUSH1 0xE0 SHL SUB NOT DUP3 AND PUSH4 0x5B5E139F PUSH1 0xE0 SHL EQ JUMPDEST DUP1 PUSH2 0x66E JUMPI POP PUSH4 0x1FFC9A7 PUSH1 0xE0 SHL PUSH1 0x1 PUSH1 0x1 PUSH1 0xE0 SHL SUB NOT DUP4 AND EQ PUSH2 0x66E JUMP JUMPDEST PUSH1 0x0 DUP2 DUP2 MSTORE PUSH1 0x67 PUSH1 0x20 MSTORE PUSH1 0x40 SWAP1 KECCAK256 SLOAD PUSH1 0x1 PUSH1 0x1 PUSH1 0xA0 SHL SUB AND PUSH2 0x18BC JUMPI PUSH1 0x40 MLOAD PUSH3 0x461BCD PUSH1 0xE5 SHL DUP2 MSTORE PUSH1 0x20 PUSH1 0x4 DUP3 ADD MSTORE PUSH1 0x18 PUSH1 0x24 DUP3 ADD MSTORE PUSH24 0x115490CDCC8C4E881A5B9D985B1A59081D1BDAD95B881251 PUSH1 0x42 SHL PUSH1 0x44 DUP3 ADD MSTORE PUSH1 0x64 ADD PUSH2 0x7A1 JUMP JUMPDEST PUSH1 0x0 DUP2 DUP2 MSTORE PUSH1 0x69 PUSH1 0x20 MSTORE PUSH1 0x40 SWAP1 KECCAK256 DUP1 SLOAD PUSH1 0x1 PUSH1 0x1 PUSH1 0xA0 SHL SUB NOT AND PUSH1 0x1 PUSH1 0x1 PUSH1 0xA0 SHL SUB DUP5 AND SWAP1 DUP2 OR SWAP1 SWAP2 SSTORE DUP2 SWAP1 PUSH2 0x1D04 DUP3 PUSH2 0xE20 JUMP JUMPDEST PUSH1 0x1 PUSH1 0x1 PUSH1 0xA0 SHL SUB AND PUSH32 0x8C5BE1E5EBEC7D5BD14F71427D1E84F3DD0314C0F7B2291E5B200AC8C7C3B925 PUSH1 0x40 MLOAD PUSH1 0x40 MLOAD DUP1 SWAP2 SUB SWAP1 LOG4 POP POP JUMP JUMPDEST PUSH1 0xC9 SLOAD PUSH1 0x1 PUSH1 0x1 PUSH1 0xA0 SHL SUB AND CALLER EQ PUSH2 0xF18 JUMPI PUSH1 0x40 MLOAD PUSH3 0x461BCD PUSH1 0xE5 SHL DUP2 MSTORE PUSH1 0x20 PUSH1 0x4 DUP3 ADD DUP2 SWAP1 MSTORE PUSH1 0x24 DUP3 ADD MSTORE PUSH32 0x4F776E61626C653A2063616C6C6572206973206E6F7420746865206F776E6572 PUSH1 0x44 DUP3 ADD MSTORE PUSH1 0x64 ADD PUSH2 0x7A1 JUMP JUMPDEST PUSH1 0x0 DUP1 PUSH2 0x1DA3 DUP4 PUSH2 0xE20 JUMP JUMPDEST SWAP1 POP DUP1 PUSH1 0x1 PUSH1 0x1 PUSH1 0xA0 SHL SUB AND DUP5 PUSH1 0x1 PUSH1 0x1 PUSH1 0xA0 SHL SUB AND EQ DUP1 PUSH2 0x1DEA JUMPI POP PUSH1 0x1 PUSH1 0x1 PUSH1 0xA0 SHL SUB DUP1 DUP3 AND PUSH1 0x0 SWAP1 DUP2 MSTORE PUSH1 0x6A PUSH1 0x20 SWAP1 DUP2 MSTORE PUSH1 0x40 DUP1 DUP4 KECCAK256 SWAP4 DUP9 AND DUP4 MSTORE SWAP3 SWAP1 MSTORE KECCAK256 SLOAD PUSH1 0xFF AND JUMPDEST DUP1 PUSH2 0x1E0E JUMPI POP DUP4 PUSH1 0x1 PUSH1 0x1 PUSH1 0xA0 SHL SUB AND PUSH2 0x1E03 DUP5 PUSH2 0x706 JUMP JUMPDEST PUSH1 0x1 PUSH1 0x1 PUSH1 0xA0 SHL SUB AND EQ JUMPDEST SWAP5 SWAP4 POP POP POP POP JUMP JUMPDEST DUP3 PUSH1 0x1 PUSH1 0x1 PUSH1 0xA0 SHL SUB AND PUSH2 0x1E29 DUP3 PUSH2 0xE20 JUMP JUMPDEST PUSH1 0x1 PUSH1 0x1 PUSH1 0xA0 SHL SUB AND EQ PUSH2 0x1E4F JUMPI PUSH1 0x40 MLOAD PUSH3 0x461BCD PUSH1 0xE5 SHL DUP2 MSTORE PUSH1 0x4 ADD PUSH2 0x7A1 SWAP1 PUSH2 0x372C JUMP JUMPDEST PUSH1 0x1 PUSH1 0x1 PUSH1 0xA0 SHL SUB DUP3 AND PUSH2 0x1EB1 JUMPI PUSH1 0x40 MLOAD PUSH3 0x461BCD PUSH1 0xE5 SHL DUP2 MSTORE PUSH1 0x20 PUSH1 0x4 DUP3 ADD MSTORE PUSH1 0x24 DUP1 DUP3 ADD MSTORE PUSH32 0x4552433732313A207472616E7366657220746F20746865207A65726F20616464 PUSH1 0x44 DUP3 ADD MSTORE PUSH4 0x72657373 PUSH1 0xE0 SHL PUSH1 0x64 DUP3 ADD MSTORE PUSH1 0x84 ADD PUSH2 0x7A1 JUMP JUMPDEST PUSH2 0x1EBE DUP4 DUP4 DUP4 PUSH1 0x1 PUSH2 0x23E9 JUMP JUMPDEST DUP3 PUSH1 0x1 PUSH1 0x1 PUSH1 0xA0 SHL SUB AND PUSH2 0x1ED1 DUP3 PUSH2 0xE20 JUMP JUMPDEST PUSH1 0x1 PUSH1 0x1 PUSH1 0xA0 SHL SUB AND EQ PUSH2 0x1EF7 JUMPI PUSH1 0x40 MLOAD PUSH3 0x461BCD PUSH1 0xE5 SHL DUP2 MSTORE PUSH1 0x4 ADD PUSH2 0x7A1 SWAP1 PUSH2 0x372C JUMP JUMPDEST PUSH1 0x0 DUP2 DUP2 MSTORE PUSH1 0x69 PUSH1 0x20 SWAP1 DUP2 MSTORE PUSH1 0x40 DUP1 DUP4 KECCAK256 DUP1 SLOAD PUSH1 0x1 PUSH1 0x1 PUSH1 0xA0 SHL SUB NOT SWAP1 DUP2 AND SWAP1 SWAP2 SSTORE PUSH1 0x1 PUSH1 0x1 PUSH1 0xA0 SHL SUB DUP8 DUP2 AND DUP1 DUP7 MSTORE PUSH1 0x68 DUP6 MSTORE DUP4 DUP7 KECCAK256 DUP1 SLOAD PUSH1 0x0 NOT ADD SWAP1 SSTORE SWAP1 DUP8 AND DUP1 DUP7 MSTORE DUP4 DUP7 KECCAK256 DUP1 SLOAD PUSH1 0x1 ADD SWAP1 SSTORE DUP7 DUP7 MSTORE PUSH1 0x67 SWAP1 SWAP5 MSTORE DUP3 DUP6 KECCAK256 DUP1 SLOAD SWAP1 SWAP3 AND DUP5 OR SWAP1 SWAP2 SSTORE SWAP1 MLOAD DUP5 SWAP4 PUSH32 0xDDF252AD1BE2C89B69C2B068FC378DAA952BA7F163C4A11628F55A4DF523B3EF SWAP2 LOG4 POP POP POP JUMP JUMPDEST PUSH1 0xC9 DUP1 SLOAD PUSH1 0x1 PUSH1 0x1 PUSH1 0xA0 SHL SUB DUP4 DUP2 AND PUSH1 0x1 PUSH1 0x1 PUSH1 0xA0 SHL SUB NOT DUP4 AND DUP2 OR SWAP1 SWAP4 SSTORE PUSH1 0x40 MLOAD SWAP2 AND SWAP2 SWAP1 DUP3 SWAP1 PUSH32 0x8BE0079C531659141344CD1FD0A4F28419497F9722A3DAAFE3B4186F6B6457E0 SWAP1 PUSH1 0x0 SWAP1 LOG3 POP POP JUMP JUMPDEST PUSH1 0x0 SLOAD PUSH2 0x100 SWAP1 DIV PUSH1 0xFF AND PUSH2 0x2000 JUMPI PUSH1 0x40 MLOAD PUSH3 0x461BCD PUSH1 0xE5 SHL DUP2 MSTORE PUSH1 0x4 ADD PUSH2 0x7A1 SWAP1 PUSH2 0x3771 JUMP JUMPDEST PUSH2 0x123D DUP3 DUP3 PUSH2 0x251D JUMP JUMPDEST PUSH1 0x0 SLOAD PUSH2 0x100 SWAP1 DIV PUSH1 0xFF AND PUSH2 0x2031 JUMPI PUSH1 0x40 MLOAD PUSH3 0x461BCD PUSH1 0xE5 SHL DUP2 MSTORE PUSH1 0x4 ADD PUSH2 0x7A1 SWAP1 PUSH2 0x3771 JUMP JUMPDEST PUSH2 0xF18 PUSH2 0x255D JUMP JUMPDEST PUSH1 0x1 PUSH1 0x1 PUSH1 0xA0 SHL SUB DUP3 AND PUSH2 0x208F JUMPI PUSH1 0x40 MLOAD PUSH3 0x461BCD PUSH1 0xE5 SHL DUP2 MSTORE PUSH1 0x20 PUSH1 0x4 DUP3 ADD DUP2 SWAP1 MSTORE PUSH1 0x24 DUP3 ADD MSTORE PUSH32 0x4552433732313A206D696E7420746F20746865207A65726F2061646472657373 PUSH1 0x44 DUP3 ADD MSTORE PUSH1 0x64 ADD PUSH2 0x7A1 JUMP JUMPDEST PUSH1 0x0 DUP2 DUP2 MSTORE PUSH1 0x67 PUSH1 0x20 MSTORE PUSH1 0x40 SWAP1 KECCAK256 SLOAD PUSH1 0x1 PUSH1 0x1 PUSH1 0xA0 SHL SUB AND ISZERO PUSH2 0x20F4 JUMPI PUSH1 0x40 MLOAD PUSH3 0x461BCD PUSH1 0xE5 SHL DUP2 MSTORE PUSH1 0x20 PUSH1 0x4 DUP3 ADD MSTORE PUSH1 0x1C PUSH1 0x24 DUP3 ADD MSTORE PUSH32 0x4552433732313A20746F6B656E20616C7265616479206D696E74656400000000 PUSH1 0x44 DUP3 ADD MSTORE PUSH1 0x64 ADD PUSH2 0x7A1 JUMP JUMPDEST PUSH2 0x2102 PUSH1 0x0 DUP4 DUP4 PUSH1 0x1 PUSH2 0x23E9 JUMP JUMPDEST PUSH1 0x0 DUP2 DUP2 MSTORE PUSH1 0x67 PUSH1 0x20 MSTORE PUSH1 0x40 SWAP1 KECCAK256 SLOAD PUSH1 0x1 PUSH1 0x1 PUSH1 0xA0 SHL SUB AND ISZERO PUSH2 0x2167 JUMPI PUSH1 0x40 MLOAD PUSH3 0x461BCD PUSH1 0xE5 SHL DUP2 MSTORE PUSH1 0x20 PUSH1 0x4 DUP3 ADD MSTORE PUSH1 0x1C PUSH1 0x24 DUP3 ADD MSTORE PUSH32 0x4552433732313A20746F6B656E20616C7265616479206D696E74656400000000 PUSH1 0x44 DUP3 ADD MSTORE PUSH1 0x64 ADD PUSH2 0x7A1 JUMP JUMPDEST PUSH1 0x1 PUSH1 0x1 PUSH1 0xA0 SHL SUB DUP3 AND PUSH1 0x0 DUP2 DUP2 MSTORE PUSH1 0x68 PUSH1 0x20 SWAP1 DUP2 MSTORE PUSH1 0x40 DUP1 DUP4 KECCAK256 DUP1 SLOAD PUSH1 0x1 ADD SWAP1 SSTORE DUP5 DUP4 MSTORE PUSH1 0x67 SWAP1 SWAP2 MSTORE DUP1 DUP3 KECCAK256 DUP1 SLOAD PUSH1 0x1 PUSH1 0x1 PUSH1 0xA0 SHL SUB NOT AND DUP5 OR SWAP1 SSTORE MLOAD DUP4 SWAP3 SWAP2 SWAP1 PUSH32 0xDDF252AD1BE2C89B69C2B068FC378DAA952BA7F163C4A11628F55A4DF523B3EF SWAP1 DUP3 SWAP1 LOG4 POP POP JUMP JUMPDEST DUP2 PUSH1 0x1 PUSH1 0x1 PUSH1 0xA0 SHL SUB AND DUP4 PUSH1 0x1 PUSH1 0x1 PUSH1 0xA0 SHL SUB AND SUB PUSH2 0x2233 JUMPI PUSH1 0x40 MLOAD PUSH3 0x461BCD PUSH1 0xE5 SHL DUP2 MSTORE PUSH1 0x20 PUSH1 0x4 DUP3 ADD MSTORE PUSH1 0x19 PUSH1 0x24 DUP3 ADD MSTORE PUSH32 0x4552433732313A20617070726F766520746F2063616C6C657200000000000000 PUSH1 0x44 DUP3 ADD MSTORE PUSH1 0x64 ADD PUSH2 0x7A1 JUMP JUMPDEST PUSH1 0x1 PUSH1 0x1 PUSH1 0xA0 SHL SUB DUP4 DUP2 AND PUSH1 0x0 DUP2 DUP2 MSTORE PUSH1 0x6A PUSH1 0x20 SWAP1 DUP2 MSTORE PUSH1 0x40 DUP1 DUP4 KECCAK256 SWAP5 DUP8 AND DUP1 DUP5 MSTORE SWAP5 DUP3 MSTORE SWAP2 DUP3 SWAP1 KECCAK256 DUP1 SLOAD PUSH1 0xFF NOT AND DUP7 ISZERO ISZERO SWAP1 DUP2 OR SWAP1 SWAP2 SSTORE SWAP2 MLOAD SWAP2 DUP3 MSTORE PUSH32 0x17307EAB39AB6107E8899845AD3D59BD9653F200F220920489CA2B5937696C31 SWAP2 ADD PUSH1 0x40 MLOAD DUP1 SWAP2 SUB SWAP1 LOG3 POP POP POP JUMP JUMPDEST PUSH2 0x22AB DUP5 DUP5 DUP5 PUSH2 0x1E16 JUMP JUMPDEST PUSH2 0x22B7 DUP5 DUP5 DUP5 DUP5 PUSH2 0x258D JUMP JUMPDEST PUSH2 0x127E JUMPI PUSH1 0x40 MLOAD PUSH3 0x461BCD PUSH1 0xE5 SHL DUP2 MSTORE PUSH1 0x4 ADD PUSH2 0x7A1 SWAP1 PUSH2 0x37BC JUMP JUMPDEST PUSH1 0x60 DUP2 PUSH1 0x0 SUB PUSH2 0x22FA JUMPI POP POP PUSH1 0x40 DUP1 MLOAD DUP1 DUP3 ADD SWAP1 SWAP2 MSTORE PUSH1 0x1 DUP2 MSTORE PUSH1 0x3 PUSH1 0xFC SHL PUSH1 0x20 DUP3 ADD MSTORE SWAP1 JUMP JUMPDEST DUP2 PUSH1 0x0 JUMPDEST DUP2 ISZERO PUSH2 0x2324 JUMPI DUP1 PUSH2 0x230E DUP2 PUSH2 0x3092 JUMP JUMPDEST SWAP2 POP PUSH2 0x231D SWAP1 POP PUSH1 0xA DUP4 PUSH2 0x3824 JUMP JUMPDEST SWAP2 POP PUSH2 0x22FE JUMP JUMPDEST PUSH1 0x0 DUP2 PUSH1 0x1 PUSH1 0x1 PUSH1 0x40 SHL SUB DUP2 GT ISZERO PUSH2 0x233E JUMPI PUSH2 0x233E PUSH2 0x2A4C JUMP JUMPDEST PUSH1 0x40 MLOAD SWAP1 DUP1 DUP3 MSTORE DUP1 PUSH1 0x1F ADD PUSH1 0x1F NOT AND PUSH1 0x20 ADD DUP3 ADD PUSH1 0x40 MSTORE DUP1 ISZERO PUSH2 0x2368 JUMPI PUSH1 0x20 DUP3 ADD DUP2 DUP1 CALLDATASIZE DUP4 CALLDATACOPY ADD SWAP1 POP JUMPDEST POP SWAP1 POP DUP2 JUMPDEST DUP6 ISZERO PUSH2 0x23E0 JUMPI PUSH2 0x237E PUSH1 0x1 DUP3 PUSH2 0x34D5 JUMP JUMPDEST SWAP1 POP PUSH1 0x0 PUSH2 0x238D PUSH1 0xA DUP9 PUSH2 0x3838 JUMP JUMPDEST PUSH2 0x2398 SWAP1 PUSH1 0x30 PUSH2 0x384C JUMP JUMPDEST SWAP1 POP PUSH1 0x0 DUP2 PUSH1 0xF8 SHL SWAP1 POP DUP1 DUP5 DUP5 DUP2 MLOAD DUP2 LT PUSH2 0x23B5 JUMPI PUSH2 0x23B5 PUSH2 0x30F8 JUMP JUMPDEST PUSH1 0x20 ADD ADD SWAP1 PUSH1 0x1 PUSH1 0x1 PUSH1 0xF8 SHL SUB NOT AND SWAP1 DUP2 PUSH1 0x0 BYTE SWAP1 MSTORE8 POP PUSH2 0x23D7 PUSH1 0xA DUP10 PUSH2 0x3824 JUMP JUMPDEST SWAP8 POP POP POP PUSH2 0x236D JUMP JUMPDEST POP SWAP5 SWAP4 POP POP POP POP JUMP JUMPDEST PUSH1 0x1 DUP2 GT ISZERO PUSH2 0x2458 JUMPI PUSH1 0x40 MLOAD PUSH3 0x461BCD PUSH1 0xE5 SHL DUP2 MSTORE PUSH1 0x20 PUSH1 0x4 DUP3 ADD MSTORE PUSH1 0x35 PUSH1 0x24 DUP3 ADD MSTORE PUSH32 0x455243373231456E756D657261626C653A20636F6E7365637574697665207472 PUSH1 0x44 DUP3 ADD MSTORE PUSH21 0x185B9CD9995C9CC81B9BDD081CDD5C1C1BDC9D1959 PUSH1 0x5A SHL PUSH1 0x64 DUP3 ADD MSTORE PUSH1 0x84 ADD PUSH2 0x7A1 JUMP JUMPDEST DUP2 PUSH1 0x1 PUSH1 0x1 PUSH1 0xA0 SHL SUB DUP6 AND PUSH2 0x24B4 JUMPI PUSH2 0x24AF DUP2 PUSH1 0x99 DUP1 SLOAD PUSH1 0x0 DUP4 DUP2 MSTORE PUSH1 0x9A PUSH1 0x20 MSTORE PUSH1 0x40 DUP2 KECCAK256 DUP3 SWAP1 SSTORE PUSH1 0x1 DUP3 ADD DUP4 SSTORE SWAP2 SWAP1 SWAP2 MSTORE PUSH32 0x72A152DDFB8E864297C917AF52EA6C1C68AEAD0FEE1A62673FCC7E0C94979D00 ADD SSTORE JUMP JUMPDEST PUSH2 0x24D7 JUMP JUMPDEST DUP4 PUSH1 0x1 PUSH1 0x1 PUSH1 0xA0 SHL SUB AND DUP6 PUSH1 0x1 PUSH1 0x1 PUSH1 0xA0 SHL SUB AND EQ PUSH2 0x24D7 JUMPI PUSH2 0x24D7 DUP6 DUP3 PUSH2 0x268E JUMP JUMPDEST PUSH1 0x1 PUSH1 0x1 PUSH1 0xA0 SHL SUB DUP5 AND PUSH2 0x24F3 JUMPI PUSH2 0x24EE DUP2 PUSH2 0x272B JUMP JUMPDEST PUSH2 0x2516 JUMP JUMPDEST DUP5 PUSH1 0x1 PUSH1 0x1 PUSH1 0xA0 SHL SUB AND DUP5 PUSH1 0x1 PUSH1 0x1 PUSH1 0xA0 SHL SUB AND EQ PUSH2 0x2516 JUMPI PUSH2 0x2516 DUP5 DUP3 PUSH2 0x27DA JUMP JUMPDEST POP POP POP POP POP JUMP JUMPDEST PUSH1 0x0 SLOAD PUSH2 0x100 SWAP1 DIV PUSH1 0xFF AND PUSH2 0x2544 JUMPI PUSH1 0x40 MLOAD PUSH3 0x461BCD PUSH1 0xE5 SHL DUP2 MSTORE PUSH1 0x4 ADD PUSH2 0x7A1 SWAP1 PUSH2 0x3771 JUMP JUMPDEST PUSH1 0x65 PUSH2 0x2550 DUP4 DUP3 PUSH2 0x2FD3 JUMP JUMPDEST POP PUSH1 0x66 PUSH2 0x842 DUP3 DUP3 PUSH2 0x2FD3 JUMP JUMPDEST PUSH1 0x0 SLOAD PUSH2 0x100 SWAP1 DIV PUSH1 0xFF AND PUSH2 0x2584 JUMPI PUSH1 0x40 MLOAD PUSH3 0x461BCD PUSH1 0xE5 SHL DUP2 MSTORE PUSH1 0x4 ADD PUSH2 0x7A1 SWAP1 PUSH2 0x3771 JUMP JUMPDEST PUSH2 0xF18 CALLER PUSH2 0x1F87 JUMP JUMPDEST PUSH1 0x0 PUSH1 0x1 PUSH1 0x1 PUSH1 0xA0 SHL SUB DUP5 AND EXTCODESIZE ISZERO PUSH2 0x2683 JUMPI PUSH1 0x40 MLOAD PUSH4 0xA85BD01 PUSH1 0xE1 SHL DUP2 MSTORE PUSH1 0x1 PUSH1 0x1 PUSH1 0xA0 SHL SUB DUP6 AND SWAP1 PUSH4 0x150B7A02 SWAP1 PUSH2 0x25D1 SWAP1 CALLER SWAP1 DUP10 SWAP1 DUP9 SWAP1 DUP9 SWAP1 PUSH1 0x4 ADD PUSH2 0x3865 JUMP JUMPDEST PUSH1 0x20 PUSH1 0x40 MLOAD DUP1 DUP4 SUB DUP2 PUSH1 0x0 DUP8 GAS CALL SWAP3 POP POP POP DUP1 ISZERO PUSH2 0x260C JUMPI POP PUSH1 0x40 DUP1 MLOAD PUSH1 0x1F RETURNDATASIZE SWAP1 DUP2 ADD PUSH1 0x1F NOT AND DUP3 ADD SWAP1 SWAP3 MSTORE PUSH2 0x2609 SWAP2 DUP2 ADD SWAP1 PUSH2 0x3898 JUMP JUMPDEST PUSH1 0x1 JUMPDEST PUSH2 0x2669 JUMPI RETURNDATASIZE DUP1 DUP1 ISZERO PUSH2 0x263A JUMPI PUSH1 0x40 MLOAD SWAP2 POP PUSH1 0x1F NOT PUSH1 0x3F RETURNDATASIZE ADD AND DUP3 ADD PUSH1 0x40 MSTORE RETURNDATASIZE DUP3 MSTORE RETURNDATASIZE PUSH1 0x0 PUSH1 0x20 DUP5 ADD RETURNDATACOPY PUSH2 0x263F JUMP JUMPDEST PUSH1 0x60 SWAP2 POP JUMPDEST POP DUP1 MLOAD PUSH1 0x0 SUB PUSH2 0x2661 JUMPI PUSH1 0x40 MLOAD PUSH3 0x461BCD PUSH1 0xE5 SHL DUP2 MSTORE PUSH1 0x4 ADD PUSH2 0x7A1 SWAP1 PUSH2 0x37BC JUMP JUMPDEST DUP1 MLOAD DUP2 PUSH1 0x20 ADD REVERT JUMPDEST PUSH1 0x1 PUSH1 0x1 PUSH1 0xE0 SHL SUB NOT AND PUSH4 0xA85BD01 PUSH1 0xE1 SHL EQ SWAP1 POP PUSH2 0x1E0E JUMP JUMPDEST POP PUSH1 0x1 SWAP5 SWAP4 POP POP POP POP JUMP JUMPDEST PUSH1 0x0 PUSH1 0x1 PUSH2 0x269B DUP5 PUSH2 0xE80 JUMP JUMPDEST PUSH2 0x26A5 SWAP2 SWAP1 PUSH2 0x34D5 JUMP JUMPDEST PUSH1 0x0 DUP4 DUP2 MSTORE PUSH1 0x98 PUSH1 0x20 MSTORE PUSH1 0x40 SWAP1 KECCAK256 SLOAD SWAP1 SWAP2 POP DUP1 DUP3 EQ PUSH2 0x26F8 JUMPI PUSH1 0x1 PUSH1 0x1 PUSH1 0xA0 SHL SUB DUP5 AND PUSH1 0x0 SWAP1 DUP2 MSTORE PUSH1 0x97 PUSH1 0x20 SWAP1 DUP2 MSTORE PUSH1 0x40 DUP1 DUP4 KECCAK256 DUP6 DUP5 MSTORE DUP3 MSTORE DUP1 DUP4 KECCAK256 SLOAD DUP5 DUP5 MSTORE DUP2 DUP5 KECCAK256 DUP2 SWAP1 SSTORE DUP4 MSTORE PUSH1 0x98 SWAP1 SWAP2 MSTORE SWAP1 KECCAK256 DUP2 SWAP1 SSTORE JUMPDEST POP PUSH1 0x0 SWAP2 DUP3 MSTORE PUSH1 0x98 PUSH1 0x20 SWAP1 DUP2 MSTORE PUSH1 0x40 DUP1 DUP5 KECCAK256 DUP5 SWAP1 SSTORE PUSH1 0x1 PUSH1 0x1 PUSH1 0xA0 SHL SUB SWAP1 SWAP5 AND DUP4 MSTORE PUSH1 0x97 DUP2 MSTORE DUP4 DUP4 KECCAK256 SWAP2 DUP4 MSTORE MSTORE SWAP1 DUP2 KECCAK256 SSTORE JUMP JUMPDEST PUSH1 0x99 SLOAD PUSH1 0x0 SWAP1 PUSH2 0x273D SWAP1 PUSH1 0x1 SWAP1 PUSH2 0x34D5 JUMP JUMPDEST PUSH1 0x0 DUP4 DUP2 MSTORE PUSH1 0x9A PUSH1 0x20 MSTORE PUSH1 0x40 DUP2 KECCAK256 SLOAD PUSH1 0x99 DUP1 SLOAD SWAP4 SWAP5 POP SWAP1 SWAP3 DUP5 SWAP1 DUP2 LT PUSH2 0x2765 JUMPI PUSH2 0x2765 PUSH2 0x30F8 JUMP JUMPDEST SWAP1 PUSH1 0x0 MSTORE PUSH1 0x20 PUSH1 0x0 KECCAK256 ADD SLOAD SWAP1 POP DUP1 PUSH1 0x99 DUP4 DUP2 SLOAD DUP2 LT PUSH2 0x2786 JUMPI PUSH2 0x2786 PUSH2 0x30F8 JUMP JUMPDEST PUSH1 0x0 SWAP2 DUP3 MSTORE PUSH1 0x20 DUP1 DUP4 KECCAK256 SWAP1 SWAP2 ADD SWAP3 SWAP1 SWAP3 SSTORE DUP3 DUP2 MSTORE PUSH1 0x9A SWAP1 SWAP2 MSTORE PUSH1 0x40 DUP1 DUP3 KECCAK256 DUP5 SWAP1 SSTORE DUP6 DUP3 MSTORE DUP2 KECCAK256 SSTORE PUSH1 0x99 DUP1 SLOAD DUP1 PUSH2 0x27BE JUMPI PUSH2 0x27BE PUSH2 0x38B5 JUMP JUMPDEST PUSH1 0x1 SWAP1 SUB DUP2 DUP2 SWAP1 PUSH1 0x0 MSTORE PUSH1 0x20 PUSH1 0x0 KECCAK256 ADD PUSH1 0x0 SWAP1 SSTORE SWAP1 SSTORE POP POP POP POP JUMP JUMPDEST PUSH1 0x0 PUSH2 0x27E5 DUP4 PUSH2 0xE80 JUMP JUMPDEST PUSH1 0x1 PUSH1 0x1 PUSH1 0xA0 SHL SUB SWAP1 SWAP4 AND PUSH1 0x0 SWAP1 DUP2 MSTORE PUSH1 0x97 PUSH1 0x20 SWAP1 DUP2 MSTORE PUSH1 0x40 DUP1 DUP4 KECCAK256 DUP7 DUP5 MSTORE DUP3 MSTORE DUP1 DUP4 KECCAK256 DUP6 SWAP1 SSTORE SWAP4 DUP3 MSTORE PUSH1 0x98 SWAP1 MSTORE SWAP2 SWAP1 SWAP2 KECCAK256 SWAP2 SWAP1 SWAP2 SSTORE POP JUMP JUMPDEST PUSH1 0x1 PUSH1 0x1 PUSH1 0xE0 SHL SUB NOT DUP2 AND DUP2 EQ PUSH2 0x18BC JUMPI PUSH1 0x0 DUP1 REVERT JUMPDEST PUSH1 0x0 PUSH1 0x20 DUP3 DUP5 SUB SLT ISZERO PUSH2 0x2846 JUMPI PUSH1 0x0 DUP1 REVERT JUMPDEST DUP2 CALLDATALOAD PUSH2 0x2851 DUP2 PUSH2 0x281E JUMP JUMPDEST SWAP4 SWAP3 POP POP POP JUMP JUMPDEST PUSH1 0x0 JUMPDEST DUP4 DUP2 LT ISZERO PUSH2 0x2873 JUMPI DUP2 DUP2 ADD MLOAD DUP4 DUP3 ADD MSTORE PUSH1 0x20 ADD PUSH2 0x285B JUMP JUMPDEST POP POP PUSH1 0x0 SWAP2 ADD MSTORE JUMP JUMPDEST PUSH1 0x0 DUP2 MLOAD DUP1 DUP5 MSTORE PUSH2 0x2894 DUP2 PUSH1 0x20 DUP7 ADD PUSH1 0x20 DUP7 ADD PUSH2 0x2858 JUMP JUMPDEST PUSH1 0x1F ADD PUSH1 0x1F NOT AND SWAP3 SWAP1 SWAP3 ADD PUSH1 0x20 ADD SWAP3 SWAP2 POP POP JUMP JUMPDEST PUSH1 0x20 DUP2 MSTORE PUSH1 0x0 PUSH2 0x2851 PUSH1 0x20 DUP4 ADD DUP5 PUSH2 0x287C JUMP JUMPDEST PUSH1 0x0 PUSH1 0x20 DUP3 DUP5 SUB SLT ISZERO PUSH2 0x28CD JUMPI PUSH1 0x0 DUP1 REVERT JUMPDEST POP CALLDATALOAD SWAP2 SWAP1 POP JUMP JUMPDEST DUP1 CALLDATALOAD PUSH1 0x1 PUSH1 0x1 PUSH1 0xA0 SHL SUB DUP2 AND DUP2 EQ PUSH2 0x28EB JUMPI PUSH1 0x0 DUP1 REVERT JUMPDEST SWAP2 SWAP1 POP JUMP JUMPDEST PUSH1 0x0 DUP1 PUSH1 0x40 DUP4 DUP6 SUB SLT ISZERO PUSH2 0x2903 JUMPI PUSH1 0x0 DUP1 REVERT JUMPDEST PUSH2 0x290C DUP4 PUSH2 0x28D4 JUMP JUMPDEST SWAP5 PUSH1 0x20 SWAP4 SWAP1 SWAP4 ADD CALLDATALOAD SWAP4 POP POP POP JUMP JUMPDEST PUSH1 0x0 DUP1 DUP4 PUSH1 0x1F DUP5 ADD SLT PUSH2 0x292C JUMPI PUSH1 0x0 DUP1 REVERT JUMPDEST POP DUP2 CALLDATALOAD PUSH1 0x1 PUSH1 0x1 PUSH1 0x40 SHL SUB DUP2 GT ISZERO PUSH2 0x2943 JUMPI PUSH1 0x0 DUP1 REVERT JUMPDEST PUSH1 0x20 DUP4 ADD SWAP2 POP DUP4 PUSH1 0x20 DUP3 DUP6 ADD ADD GT ISZERO PUSH2 0x295B JUMPI PUSH1 0x0 DUP1 REVERT JUMPDEST SWAP3 POP SWAP3 SWAP1 POP JUMP JUMPDEST PUSH1 0x0 DUP1 PUSH1 0x0 DUP1 PUSH1 0x0 PUSH1 0x60 DUP7 DUP9 SUB SLT ISZERO PUSH2 0x297A JUMPI PUSH1 0x0 DUP1 REVERT JUMPDEST DUP6 CALLDATALOAD SWAP5 POP PUSH1 0x20 DUP7 ADD CALLDATALOAD PUSH1 0x1 PUSH1 0x1 PUSH1 0x40 SHL SUB DUP1 DUP3 GT ISZERO PUSH2 0x2998 JUMPI PUSH1 0x0 DUP1 REVERT JUMPDEST PUSH2 0x29A4 DUP10 DUP4 DUP11 ADD PUSH2 0x291A JUMP JUMPDEST SWAP1 SWAP7 POP SWAP5 POP PUSH1 0x40 DUP9 ADD CALLDATALOAD SWAP2 POP DUP1 DUP3 GT ISZERO PUSH2 0x29BD JUMPI PUSH1 0x0 DUP1 REVERT JUMPDEST POP PUSH2 0x29CA DUP9 DUP3 DUP10 ADD PUSH2 0x291A JUMP JUMPDEST SWAP7 SWAP10 SWAP6 SWAP9 POP SWAP4 SWAP7 POP SWAP3 SWAP5 SWAP4 SWAP3 POP POP POP JUMP JUMPDEST PUSH1 0x0 DUP1 PUSH1 0x0 PUSH1 0x60 DUP5 DUP7 SUB SLT ISZERO PUSH2 0x29F0 JUMPI PUSH1 0x0 DUP1 REVERT JUMPDEST PUSH2 0x29F9 DUP5 PUSH2 0x28D4 JUMP JUMPDEST SWAP3 POP PUSH2 0x2A07 PUSH1 0x20 DUP6 ADD PUSH2 0x28D4 JUMP JUMPDEST SWAP2 POP PUSH1 0x40 DUP5 ADD CALLDATALOAD SWAP1 POP SWAP3 POP SWAP3 POP SWAP3 JUMP JUMPDEST PUSH1 0x60 DUP2 MSTORE PUSH1 0x0 PUSH2 0x2A2A PUSH1 0x60 DUP4 ADD DUP7 PUSH2 0x287C JUMP JUMPDEST DUP5 PUSH1 0x20 DUP5 ADD MSTORE DUP3 DUP2 SUB PUSH1 0x40 DUP5 ADD MSTORE PUSH2 0x2A42 DUP2 DUP6 PUSH2 0x287C JUMP JUMPDEST SWAP7 SWAP6 POP POP POP POP POP POP JUMP JUMPDEST PUSH4 0x4E487B71 PUSH1 0xE0 SHL PUSH1 0x0 MSTORE PUSH1 0x41 PUSH1 0x4 MSTORE PUSH1 0x24 PUSH1 0x0 REVERT JUMPDEST PUSH1 0x40 MLOAD PUSH1 0x1F DUP3 ADD PUSH1 0x1F NOT AND DUP2 ADD PUSH1 0x1 PUSH1 0x1 PUSH1 0x40 SHL SUB DUP2 GT DUP3 DUP3 LT OR ISZERO PUSH2 0x2A8A JUMPI PUSH2 0x2A8A PUSH2 0x2A4C JUMP JUMPDEST PUSH1 0x40 MSTORE SWAP2 SWAP1 POP JUMP JUMPDEST PUSH1 0x0 PUSH1 0x1 PUSH1 0x1 PUSH1 0x40 SHL SUB DUP4 GT ISZERO PUSH2 0x2AAB JUMPI PUSH2 0x2AAB PUSH2 0x2A4C JUMP JUMPDEST PUSH2 0x2ABE PUSH1 0x1F DUP5 ADD PUSH1 0x1F NOT AND PUSH1 0x20 ADD PUSH2 0x2A62 JUMP JUMPDEST SWAP1 POP DUP3 DUP2 MSTORE DUP4 DUP4 DUP4 ADD GT ISZERO PUSH2 0x2AD2 JUMPI PUSH1 0x0 DUP1 REVERT JUMPDEST DUP3 DUP3 PUSH1 0x20 DUP4 ADD CALLDATACOPY PUSH1 0x0 PUSH1 0x20 DUP5 DUP4 ADD ADD MSTORE SWAP4 SWAP3 POP POP POP JUMP JUMPDEST PUSH1 0x0 DUP3 PUSH1 0x1F DUP4 ADD SLT PUSH2 0x2AFA JUMPI PUSH1 0x0 DUP1 REVERT JUMPDEST PUSH2 0x2851 DUP4 DUP4 CALLDATALOAD PUSH1 0x20 DUP6 ADD PUSH2 0x2A92 JUMP JUMPDEST PUSH1 0x0 PUSH1 0x1 PUSH1 0x1 PUSH1 0x40 SHL SUB DUP3 GT ISZERO PUSH2 0x2B22 JUMPI PUSH2 0x2B22 PUSH2 0x2A4C JUMP JUMPDEST POP PUSH1 0x5 SHL PUSH1 0x20 ADD SWAP1 JUMP JUMPDEST PUSH1 0x0 DUP3 PUSH1 0x1F DUP4 ADD SLT PUSH2 0x2B3D JUMPI PUSH1 0x0 DUP1 REVERT JUMPDEST DUP2 CALLDATALOAD PUSH1 0x20 PUSH2 0x2B52 PUSH2 0x2B4D DUP4 PUSH2 0x2B09 JUMP JUMPDEST PUSH2 0x2A62 JUMP JUMPDEST DUP3 DUP2 MSTORE PUSH1 0x5 SWAP3 SWAP1 SWAP3 SHL DUP5 ADD DUP2 ADD SWAP2 DUP2 DUP2 ADD SWAP1 DUP7 DUP5 GT ISZERO PUSH2 0x2B71 JUMPI PUSH1 0x0 DUP1 REVERT JUMPDEST DUP3 DUP7 ADD JUMPDEST DUP5 DUP2 LT ISZERO PUSH2 0x2BB0 JUMPI DUP1 CALLDATALOAD PUSH1 0x1 PUSH1 0x1 PUSH1 0x40 SHL SUB DUP2 GT ISZERO PUSH2 0x2B94 JUMPI PUSH1 0x0 DUP1 DUP2 REVERT JUMPDEST PUSH2 0x2BA2 DUP10 DUP7 DUP4 DUP12 ADD ADD PUSH2 0x2AE9 JUMP JUMPDEST DUP5 MSTORE POP SWAP2 DUP4 ADD SWAP2 DUP4 ADD PUSH2 0x2B75 JUMP JUMPDEST POP SWAP7 SWAP6 POP POP POP POP POP POP JUMP JUMPDEST PUSH1 0x0 DUP1 PUSH1 0x0 DUP1 PUSH1 0x0 PUSH1 0xA0 DUP7 DUP9 SUB SLT ISZERO PUSH2 0x2BD3 JUMPI PUSH1 0x0 DUP1 REVERT JUMPDEST DUP6 CALLDATALOAD PUSH1 0x1 PUSH1 0x1 PUSH1 0x40 SHL SUB DUP1 DUP3 GT ISZERO PUSH2 0x2BEA JUMPI PUSH1 0x0 DUP1 REVERT JUMPDEST PUSH2 0x2BF6 DUP10 DUP4 DUP11 ADD PUSH2 0x2AE9 JUMP JUMPDEST SWAP7 POP PUSH1 0x20 DUP9 ADD CALLDATALOAD SWAP2 POP DUP1 DUP3 GT ISZERO PUSH2 0x2C0C JUMPI PUSH1 0x0 DUP1 REVERT JUMPDEST PUSH2 0x2C18 DUP10 DUP4 DUP11 ADD PUSH2 0x2AE9 JUMP JUMPDEST SWAP6 POP PUSH1 0x40 DUP9 ADD CALLDATALOAD SWAP5 POP PUSH1 0x60 DUP9 ADD CALLDATALOAD SWAP2 POP DUP1 DUP3 GT ISZERO PUSH2 0x2C35 JUMPI PUSH1 0x0 DUP1 REVERT JUMPDEST PUSH2 0x2C41 DUP10 DUP4 DUP11 ADD PUSH2 0x2B2C JUMP JUMPDEST SWAP4 POP PUSH1 0x80 DUP9 ADD CALLDATALOAD SWAP2 POP DUP1 DUP3 GT ISZERO PUSH2 0x2C57 JUMPI PUSH1 0x0 DUP1 REVERT JUMPDEST POP PUSH2 0x2C64 DUP9 DUP3 DUP10 ADD PUSH2 0x2B2C JUMP JUMPDEST SWAP2 POP POP SWAP3 SWAP6 POP SWAP3 SWAP6 SWAP1 SWAP4 POP JUMP JUMPDEST PUSH1 0x0 PUSH1 0x20 DUP3 DUP5 SUB SLT ISZERO PUSH2 0x2C83 JUMPI PUSH1 0x0 DUP1 REVERT JUMPDEST PUSH2 0x2851 DUP3 PUSH2 0x28D4 JUMP JUMPDEST PUSH1 0x0 DUP1 PUSH1 0x0 DUP1 PUSH1 0x0 PUSH1 0x60 DUP7 DUP9 SUB SLT ISZERO PUSH2 0x2CA4 JUMPI PUSH1 0x0 DUP1 REVERT JUMPDEST PUSH2 0x2CAD DUP7 PUSH2 0x28D4 JUMP JUMPDEST SWAP5 POP PUSH1 0x20 DUP7 ADD CALLDATALOAD PUSH1 0x1 PUSH1 0x1 PUSH1 0x40 SHL SUB DUP1 DUP3 GT ISZERO PUSH2 0x2998 JUMPI PUSH1 0x0 DUP1 REVERT JUMPDEST PUSH1 0x0 DUP1 PUSH1 0x40 DUP4 DUP6 SUB SLT ISZERO PUSH2 0x2CDC JUMPI PUSH1 0x0 DUP1 REVERT JUMPDEST PUSH2 0x2CE5 DUP4 PUSH2 0x28D4 JUMP JUMPDEST SWAP2 POP PUSH1 0x20 DUP4 ADD CALLDATALOAD DUP1 ISZERO ISZERO DUP2 EQ PUSH2 0x2CFA JUMPI PUSH1 0x0 DUP1 REVERT JUMPDEST DUP1 SWAP2 POP POP SWAP3 POP SWAP3 SWAP1 POP JUMP JUMPDEST PUSH1 0x0 DUP1 PUSH1 0x0 DUP1 PUSH1 0x80 DUP6 DUP8 SUB SLT ISZERO PUSH2 0x2D1B JUMPI PUSH1 0x0 DUP1 REVERT JUMPDEST PUSH2 0x2D24 DUP6 PUSH2 0x28D4 JUMP JUMPDEST SWAP4 POP PUSH2 0x2D32 PUSH1 0x20 DUP7 ADD PUSH2 0x28D4 JUMP JUMPDEST SWAP3 POP PUSH1 0x40 DUP6 ADD CALLDATALOAD SWAP2 POP PUSH1 0x60 DUP6 ADD CALLDATALOAD PUSH1 0x1 PUSH1 0x1 PUSH1 0x40 SHL SUB DUP2 GT ISZERO PUSH2 0x2D54 JUMPI PUSH1 0x0 DUP1 REVERT JUMPDEST DUP6 ADD PUSH1 0x1F DUP2 ADD DUP8 SGT PUSH2 0x2D65 JUMPI PUSH1 0x0 DUP1 REVERT JUMPDEST PUSH2 0x2D74 DUP8 DUP3 CALLDATALOAD PUSH1 0x20 DUP5 ADD PUSH2 0x2A92 JUMP JUMPDEST SWAP2 POP POP SWAP3 SWAP6 SWAP2 SWAP5 POP SWAP3 POP JUMP JUMPDEST PUSH1 0x0 DUP1 PUSH1 0x40 DUP4 DUP6 SUB SLT ISZERO PUSH2 0x2D93 JUMPI PUSH1 0x0 DUP1 REVERT JUMPDEST POP POP DUP1 CALLDATALOAD SWAP3 PUSH1 0x20 SWAP1 SWAP2 ADD CALLDATALOAD SWAP2 POP JUMP JUMPDEST PUSH1 0x20 DUP2 MSTORE PUSH1 0x0 DUP3 MLOAD PUSH1 0x60 PUSH1 0x20 DUP5 ADD MSTORE PUSH2 0x2DBE PUSH1 0x80 DUP5 ADD DUP3 PUSH2 0x287C JUMP JUMPDEST SWAP1 POP PUSH1 0x20 DUP5 ADD MLOAD PUSH1 0x40 DUP5 ADD MSTORE PUSH1 0x40 DUP5 ADD MLOAD PUSH1 0x1F NOT DUP5 DUP4 SUB ADD PUSH1 0x60 DUP6 ADD MSTORE PUSH2 0x2DE5 DUP3 DUP3 PUSH2 0x287C JUMP JUMPDEST SWAP6 SWAP5 POP POP POP POP POP JUMP JUMPDEST PUSH1 0x0 DUP1 PUSH1 0x40 DUP4 DUP6 SUB SLT ISZERO PUSH2 0x2E01 JUMPI PUSH1 0x0 DUP1 REVERT JUMPDEST PUSH2 0x2E0A DUP4 PUSH2 0x28D4 JUMP JUMPDEST SWAP2 POP PUSH2 0x2E18 PUSH1 0x20 DUP5 ADD PUSH2 0x28D4 JUMP JUMPDEST SWAP1 POP SWAP3 POP SWAP3 SWAP1 POP JUMP JUMPDEST PUSH1 0x80 DUP2 MSTORE PUSH1 0x0 PUSH2 0x2E34 PUSH1 0x80 DUP4 ADD DUP8 PUSH2 0x287C JUMP JUMPDEST DUP6 PUSH1 0x20 DUP5 ADD MSTORE DUP3 DUP2 SUB PUSH1 0x40 DUP5 ADD MSTORE PUSH2 0x2E4C DUP2 DUP7 PUSH2 0x287C JUMP JUMPDEST SWAP2 POP POP DUP3 PUSH1 0x60 DUP4 ADD MSTORE SWAP6 SWAP5 POP POP POP POP POP JUMP JUMPDEST PUSH1 0x0 DUP1 PUSH1 0x20 DUP4 DUP6 SUB SLT ISZERO PUSH2 0x2E71 JUMPI PUSH1 0x0 DUP1 REVERT JUMPDEST DUP3 CALLDATALOAD PUSH1 0x1 PUSH1 0x1 PUSH1 0x40 SHL SUB DUP2 GT ISZERO PUSH2 0x2E87 JUMPI PUSH1 0x0 DUP1 REVERT JUMPDEST PUSH2 0x2E93 DUP6 DUP3 DUP7 ADD PUSH2 0x291A JUMP JUMPDEST SWAP1 SWAP7 SWAP1 SWAP6 POP SWAP4 POP POP POP POP JUMP JUMPDEST PUSH1 0x1 DUP2 DUP2 SHR SWAP1 DUP3 AND DUP1 PUSH2 0x2EB3 JUMPI PUSH1 0x7F DUP3 AND SWAP2 POP JUMPDEST PUSH1 0x20 DUP3 LT DUP2 SUB PUSH2 0x2ED3 JUMPI PUSH4 0x4E487B71 PUSH1 0xE0 SHL PUSH1 0x0 MSTORE PUSH1 0x22 PUSH1 0x4 MSTORE PUSH1 0x24 PUSH1 0x0 REVERT JUMPDEST POP SWAP2 SWAP1 POP JUMP JUMPDEST PUSH1 0x0 PUSH1 0x20 DUP1 DUP4 MSTORE PUSH1 0x0 DUP5 SLOAD PUSH2 0x2EED DUP2 PUSH2 0x2E9F JUMP JUMPDEST DUP1 DUP5 DUP8 ADD MSTORE PUSH1 0x40 PUSH1 0x1 DUP1 DUP5 AND PUSH1 0x0 DUP2 EQ PUSH2 0x2F0E JUMPI PUSH1 0x1 DUP2 EQ PUSH2 0x2F28 JUMPI PUSH2 0x2F56 JUMP JUMPDEST PUSH1 0xFF NOT DUP6 AND DUP10 DUP5 ADD MSTORE DUP4 ISZERO ISZERO PUSH1 0x5 SHL DUP10 ADD DUP4 ADD SWAP6 POP PUSH2 0x2F56 JUMP JUMPDEST DUP10 PUSH1 0x0 MSTORE DUP7 PUSH1 0x0 KECCAK256 PUSH1 0x0 JUMPDEST DUP6 DUP2 LT ISZERO PUSH2 0x2F4E JUMPI DUP2 SLOAD DUP12 DUP3 ADD DUP7 ADD MSTORE SWAP1 DUP4 ADD SWAP1 DUP9 ADD PUSH2 0x2F33 JUMP JUMPDEST DUP11 ADD DUP5 ADD SWAP7 POP POP JUMPDEST POP SWAP4 SWAP9 SWAP8 POP POP POP POP POP POP POP POP JUMP JUMPDEST PUSH4 0x4E487B71 PUSH1 0xE0 SHL PUSH1 0x0 MSTORE PUSH1 0x11 PUSH1 0x4 MSTORE PUSH1 0x24 PUSH1 0x0 REVERT JUMPDEST DUP1 DUP3 ADD DUP1 DUP3 GT ISZERO PUSH2 0x66E JUMPI PUSH2 0x66E PUSH2 0x2F64 JUMP JUMPDEST PUSH1 0x1F DUP3 GT ISZERO PUSH2 0x842 JUMPI PUSH1 0x0 DUP2 DUP2 MSTORE PUSH1 0x20 DUP2 KECCAK256 PUSH1 0x1F DUP6 ADD PUSH1 0x5 SHR DUP2 ADD PUSH1 0x20 DUP7 LT ISZERO PUSH2 0x2FB4 JUMPI POP DUP1 JUMPDEST PUSH1 0x1F DUP6 ADD PUSH1 0x5 SHR DUP3 ADD SWAP2 POP JUMPDEST DUP2 DUP2 LT ISZERO PUSH2 0x1156 JUMPI DUP3 DUP2 SSTORE PUSH1 0x1 ADD PUSH2 0x2FC0 JUMP JUMPDEST DUP2 MLOAD PUSH1 0x1 PUSH1 0x1 PUSH1 0x40 SHL SUB DUP2 GT ISZERO PUSH2 0x2FEC JUMPI PUSH2 0x2FEC PUSH2 0x2A4C JUMP JUMPDEST PUSH2 0x3000 DUP2 PUSH2 0x2FFA DUP5 SLOAD PUSH2 0x2E9F JUMP JUMPDEST DUP5 PUSH2 0x2F8D JUMP JUMPDEST PUSH1 0x20 DUP1 PUSH1 0x1F DUP4 GT PUSH1 0x1 DUP2 EQ PUSH2 0x3035 JUMPI PUSH1 0x0 DUP5 ISZERO PUSH2 0x301D JUMPI POP DUP6 DUP4 ADD MLOAD JUMPDEST PUSH1 0x0 NOT PUSH1 0x3 DUP7 SWAP1 SHL SHR NOT AND PUSH1 0x1 DUP6 SWAP1 SHL OR DUP6 SSTORE PUSH2 0x1156 JUMP JUMPDEST PUSH1 0x0 DUP6 DUP2 MSTORE PUSH1 0x20 DUP2 KECCAK256 PUSH1 0x1F NOT DUP7 AND SWAP2 JUMPDEST DUP3 DUP2 LT ISZERO PUSH2 0x3064 JUMPI DUP9 DUP7 ADD MLOAD DUP3 SSTORE SWAP5 DUP5 ADD SWAP5 PUSH1 0x1 SWAP1 SWAP2 ADD SWAP1 DUP5 ADD PUSH2 0x3045 JUMP JUMPDEST POP DUP6 DUP3 LT ISZERO PUSH2 0x3082 JUMPI DUP8 DUP6 ADD MLOAD PUSH1 0x0 NOT PUSH1 0x3 DUP9 SWAP1 SHL PUSH1 0xF8 AND SHR NOT AND DUP2 SSTORE JUMPDEST POP POP POP POP POP PUSH1 0x1 SWAP1 DUP2 SHL ADD SWAP1 SSTORE POP JUMP JUMPDEST PUSH1 0x0 PUSH1 0x1 DUP3 ADD PUSH2 0x30A4 JUMPI PUSH2 0x30A4 PUSH2 0x2F64 JUMP JUMPDEST POP PUSH1 0x1 ADD SWAP1 JUMP JUMPDEST PUSH1 0x20 DUP1 DUP3 MSTORE PUSH1 0x2D SWAP1 DUP3 ADD MSTORE PUSH32 0x4552433732313A2063616C6C6572206973206E6F7420746F6B656E206F776E65 PUSH1 0x40 DUP3 ADD MSTORE PUSH13 0x1C881BDC88185C1C1C9BDD9959 PUSH1 0x9A SHL PUSH1 0x60 DUP3 ADD MSTORE PUSH1 0x80 ADD SWAP1 JUMP JUMPDEST PUSH4 0x4E487B71 PUSH1 0xE0 SHL PUSH1 0x0 MSTORE PUSH1 0x32 PUSH1 0x4 MSTORE PUSH1 0x24 PUSH1 0x0 REVERT JUMPDEST PUSH1 0x1 PUSH1 0x1 PUSH1 0x40 SHL SUB DUP4 GT ISZERO PUSH2 0x3125 JUMPI PUSH2 0x3125 PUSH2 0x2A4C JUMP JUMPDEST PUSH2 0x3139 DUP4 PUSH2 0x3133 DUP4 SLOAD PUSH2 0x2E9F JUMP JUMPDEST DUP4 PUSH2 0x2F8D JUMP JUMPDEST PUSH1 0x0 PUSH1 0x1F DUP5 GT PUSH1 0x1 DUP2 EQ PUSH2 0x316D JUMPI PUSH1 0x0 DUP6 ISZERO PUSH2 0x3155 JUMPI POP DUP4 DUP3 ADD CALLDATALOAD JUMPDEST PUSH1 0x0 NOT PUSH1 0x3 DUP8 SWAP1 SHL SHR NOT AND PUSH1 0x1 DUP7 SWAP1 SHL OR DUP4 SSTORE PUSH2 0x2516 JUMP JUMPDEST PUSH1 0x0 DUP4 DUP2 MSTORE PUSH1 0x20 SWAP1 KECCAK256 PUSH1 0x1F NOT DUP7 AND SWAP1 DUP4 JUMPDEST DUP3 DUP2 LT ISZERO PUSH2 0x319E JUMPI DUP7 DUP6 ADD CALLDATALOAD DUP3 SSTORE PUSH1 0x20 SWAP5 DUP6 ADD SWAP5 PUSH1 0x1 SWAP1 SWAP3 ADD SWAP2 ADD PUSH2 0x317E JUMP JUMPDEST POP DUP7 DUP3 LT ISZERO PUSH2 0x31BB JUMPI PUSH1 0x0 NOT PUSH1 0xF8 DUP9 PUSH1 0x3 SHL AND SHR NOT DUP5 DUP8 ADD CALLDATALOAD AND DUP2 SSTORE JUMPDEST POP POP PUSH1 0x1 DUP6 PUSH1 0x1 SHL ADD DUP4 SSTORE POP POP POP POP POP JUMP JUMPDEST DUP1 DUP3 MUL DUP2 ISZERO DUP3 DUP3 DIV DUP5 EQ OR PUSH2 0x66E JUMPI PUSH2 0x66E PUSH2 0x2F64 JUMP JUMPDEST PUSH1 0x0 DUP2 SLOAD PUSH2 0x31F1 DUP2 PUSH2 0x2E9F JUMP JUMPDEST PUSH1 0x1 DUP3 DUP2 AND DUP1 ISZERO PUSH2 0x3209 JUMPI PUSH1 0x1 DUP2 EQ PUSH2 0x321E JUMPI PUSH2 0x324D JUMP JUMPDEST PUSH1 0xFF NOT DUP5 AND DUP8 MSTORE DUP3 ISZERO ISZERO DUP4 MUL DUP8 ADD SWAP5 POP PUSH2 0x324D JUMP JUMPDEST DUP6 PUSH1 0x0 MSTORE PUSH1 0x20 DUP1 PUSH1 0x0 KECCAK256 PUSH1 0x0 JUMPDEST DUP6 DUP2 LT ISZERO PUSH2 0x3244 JUMPI DUP2 SLOAD DUP11 DUP3 ADD MSTORE SWAP1 DUP5 ADD SWAP1 DUP3 ADD PUSH2 0x322B JUMP JUMPDEST POP POP POP DUP3 DUP8 ADD SWAP5 POP JUMPDEST POP POP POP POP SWAP3 SWAP2 POP POP JUMP JUMPDEST PUSH22 0x161011383AB13634B1B0BA34B7B72730B6B2911D1011 PUSH1 0x51 SHL DUP2 MSTORE PUSH1 0x0 PUSH2 0x3282 PUSH1 0x16 DUP4 ADD DUP7 PUSH2 0x31E4 JUMP JUMPDEST PUSH18 0x1116101130BABA3437B92730B6B2911D1011 PUSH1 0x71 SHL DUP2 MSTORE PUSH1 0x60 DUP6 SWAP1 SHL PUSH12 0xFFFFFFFFFFFFFFFFFFFFFFFF NOT AND PUSH1 0x12 DUP3 ADD MSTORE PUSH18 0x1116101131B7BB32B924B6B0B3B2911D1011 PUSH1 0x71 SHL PUSH1 0x26 DUP3 ADD MSTORE PUSH2 0x32DB PUSH1 0x38 DUP3 ADD DUP6 PUSH2 0x31E4 JUMP JUMPDEST PUSH16 0x222C202253656374696F6E73223A205B PUSH1 0x80 SHL DUP2 MSTORE PUSH1 0x10 ADD SWAP7 SWAP6 POP POP POP POP POP POP JUMP JUMPDEST PUSH16 0x3D901139B2B1BA34B7B724B2111D1011 PUSH1 0x81 SHL DUP2 MSTORE DUP4 MLOAD PUSH1 0x0 SWAP1 PUSH2 0x332A DUP2 PUSH1 0x10 DUP6 ADD PUSH1 0x20 DUP10 ADD PUSH2 0x2858 JUMP JUMPDEST PUSH19 0x1116101139B2B1BA34B7B72730B6B2911D1011 PUSH1 0x69 SHL PUSH1 0x10 SWAP2 DUP5 ADD SWAP2 DUP3 ADD MSTORE PUSH2 0x3357 PUSH1 0x23 DUP3 ADD DUP7 PUSH2 0x31E4 JUMP JUMPDEST PUSH20 0x1116101139B2B1BA34B7B724B6B0B3B2911D1011 PUSH1 0x61 SHL DUP2 MSTORE SWAP1 POP PUSH2 0x3380 PUSH1 0x14 DUP3 ADD DUP6 PUSH2 0x31E4 JUMP JUMPDEST PUSH16 0x222C20226368617074657273223A205B PUSH1 0x80 SHL DUP2 MSTORE PUSH1 0x10 ADD SWAP7 SWAP6 POP POP POP POP POP POP JUMP JUMPDEST PUSH16 0x3D901131B430B83A32B924B2111D1011 PUSH1 0x81 SHL DUP2 MSTORE DUP4 MLOAD PUSH1 0x0 SWAP1 PUSH2 0x33CF DUP2 PUSH1 0x10 DUP6 ADD PUSH1 0x20 DUP10 ADD PUSH2 0x2858 JUMP JUMPDEST PUSH19 0x1116101131B430B83A32B92730B6B2911D1011 PUSH1 0x69 SHL PUSH1 0x10 SWAP2 DUP5 ADD SWAP2 DUP3 ADD MSTORE PUSH2 0x33FC PUSH1 0x23 DUP3 ADD DUP7 PUSH2 0x31E4 JUMP JUMPDEST PUSH20 0x1116101131B430B83A32B924B6B0B3B2911D1011 PUSH1 0x61 SHL DUP2 MSTORE SWAP1 POP PUSH2 0x3425 PUSH1 0x14 DUP3 ADD DUP6 PUSH2 0x31E4 JUMP JUMPDEST PUSH13 0x222C20227061676573223A205B PUSH1 0x98 SHL DUP2 MSTORE PUSH1 0xD ADD SWAP7 SWAP6 POP POP POP POP POP POP JUMP JUMPDEST PUSH13 0x3D90113830B3B2A4B2111D1011 PUSH1 0x99 SHL DUP2 MSTORE DUP4 MLOAD PUSH1 0x0 SWAP1 PUSH2 0x346E DUP2 PUSH1 0xD DUP6 ADD PUSH1 0x20 DUP10 ADD PUSH2 0x2858 JUMP JUMPDEST PUSH16 0x111610113830B3B2A730B6B2911D1011 PUSH1 0x81 SHL PUSH1 0xD SWAP2 DUP5 ADD SWAP2 DUP3 ADD MSTORE PUSH2 0x3498 PUSH1 0x1D DUP3 ADD DUP7 PUSH2 0x31E4 JUMP JUMPDEST PUSH19 0x111610113830B3B2A1B7B73A32B73A111D1011 PUSH1 0x69 SHL DUP2 MSTORE SWAP1 POP PUSH2 0x34C0 PUSH1 0x13 DUP3 ADD DUP6 PUSH2 0x31E4 JUMP JUMPDEST PUSH2 0x227D PUSH1 0xF0 SHL DUP2 MSTORE PUSH1 0x2 ADD SWAP7 SWAP6 POP POP POP POP POP POP JUMP JUMPDEST DUP2 DUP2 SUB DUP2 DUP2 GT ISZERO PUSH2 0x66E JUMPI PUSH2 0x66E PUSH2 0x2F64 JUMP JUMPDEST PUSH1 0x0 DUP3 MLOAD PUSH2 0x34FA DUP2 DUP5 PUSH1 0x20 DUP8 ADD PUSH2 0x2858 JUMP JUMPDEST PUSH1 0xB PUSH1 0xFA SHL SWAP3 ADD SWAP2 DUP3 MSTORE POP PUSH1 0x1 ADD SWAP2 SWAP1 POP JUMP JUMPDEST PUSH1 0x0 DUP4 MLOAD PUSH2 0x351F DUP2 DUP5 PUSH1 0x20 DUP9 ADD PUSH2 0x2858 JUMP JUMPDEST DUP4 MLOAD SWAP1 DUP4 ADD SWAP1 PUSH2 0x3533 DUP2 DUP4 PUSH1 0x20 DUP9 ADD PUSH2 0x2858 JUMP JUMPDEST ADD SWAP5 SWAP4 POP POP POP POP JUMP JUMPDEST PUSH1 0x0 DUP3 MLOAD PUSH2 0x354E DUP2 DUP5 PUSH1 0x20 DUP8 ADD PUSH2 0x2858 JUMP JUMPDEST PUSH2 0x5D7D PUSH1 0xF0 SHL SWAP3 ADD SWAP2 DUP3 MSTORE POP PUSH1 0x2 ADD SWAP2 SWAP1 POP JUMP JUMPDEST PUSH1 0x0 DUP3 MLOAD PUSH2 0x3574 DUP2 DUP5 PUSH1 0x20 DUP8 ADD PUSH2 0x2858 JUMP JUMPDEST PUSH2 0x7D7D PUSH1 0xF0 SHL SWAP3 ADD SWAP2 DUP3 MSTORE POP PUSH1 0x2 ADD SWAP2 SWAP1 POP JUMP JUMPDEST PUSH1 0x0 DUP3 PUSH1 0x1F DUP4 ADD SLT PUSH2 0x3599 JUMPI PUSH1 0x0 DUP1 REVERT JUMPDEST DUP2 CALLDATALOAD PUSH1 0x20 PUSH2 0x35A9 PUSH2 0x2B4D DUP4 PUSH2 0x2B09 JUMP JUMPDEST DUP3 DUP2 MSTORE PUSH1 0x5 SWAP3 SWAP1 SWAP3 SHL DUP5 ADD DUP2 ADD SWAP2 DUP2 DUP2 ADD SWAP1 DUP7 DUP5 GT ISZERO PUSH2 0x35C8 JUMPI PUSH1 0x0 DUP1 REVERT JUMPDEST DUP3 DUP7 ADD JUMPDEST DUP5 DUP2 LT ISZERO PUSH2 0x2BB0 JUMPI DUP1 CALLDATALOAD DUP4 MSTORE SWAP2 DUP4 ADD SWAP2 DUP4 ADD PUSH2 0x35CC JUMP JUMPDEST PUSH1 0x0 DUP1 PUSH1 0x0 DUP1 PUSH1 0x0 DUP1 PUSH1 0x0 DUP1 PUSH1 0x0 PUSH2 0x120 DUP11 DUP13 SUB SLT ISZERO PUSH2 0x3602 JUMPI PUSH1 0x0 DUP1 REVERT JUMPDEST DUP10 CALLDATALOAD SWAP9 POP PUSH1 0x20 DUP11 ADD CALLDATALOAD PUSH1 0x1 PUSH1 0x1 PUSH1 0x40 SHL SUB DUP1 DUP3 GT ISZERO PUSH2 0x3620 JUMPI PUSH1 0x0 DUP1 REVERT JUMPDEST PUSH2 0x362C DUP14 DUP4 DUP15 ADD PUSH2 0x2AE9 JUMP JUMPDEST SWAP10 POP PUSH1 0x40 DUP13 ADD CALLDATALOAD SWAP2 POP DUP1 DUP3 GT ISZERO PUSH2 0x3642 JUMPI PUSH1 0x0 DUP1 REVERT JUMPDEST PUSH2 0x364E DUP14 DUP4 DUP15 ADD PUSH2 0x2AE9 JUMP JUMPDEST SWAP9 POP PUSH1 0x60 DUP13 ADD CALLDATALOAD SWAP2 POP DUP1 DUP3 GT ISZERO PUSH2 0x3664 JUMPI PUSH1 0x0 DUP1 REVERT JUMPDEST PUSH2 0x3670 DUP14 DUP4 DUP15 ADD PUSH2 0x3588 JUMP JUMPDEST SWAP8 POP PUSH1 0x80 DUP13 ADD CALLDATALOAD SWAP2 POP DUP1 DUP3 GT ISZERO PUSH2 0x3686 JUMPI PUSH1 0x0 DUP1 REVERT JUMPDEST PUSH2 0x3692 DUP14 DUP4 DUP15 ADD PUSH2 0x2B2C JUMP JUMPDEST SWAP7 POP PUSH1 0xA0 DUP13 ADD CALLDATALOAD SWAP2 POP DUP1 DUP3 GT ISZERO PUSH2 0x36A8 JUMPI PUSH1 0x0 DUP1 REVERT JUMPDEST PUSH2 0x36B4 DUP14 DUP4 DUP15 ADD PUSH2 0x2B2C JUMP JUMPDEST SWAP6 POP PUSH1 0xC0 DUP13 ADD CALLDATALOAD SWAP2 POP DUP1 DUP3 GT ISZERO PUSH2 0x36CA JUMPI PUSH1 0x0 DUP1 REVERT JUMPDEST PUSH2 0x36D6 DUP14 DUP4 DUP15 ADD PUSH2 0x3588 JUMP JUMPDEST SWAP5 POP PUSH1 0xE0 DUP13 ADD CALLDATALOAD SWAP2 POP DUP1 DUP3 GT ISZERO PUSH2 0x36EC JUMPI PUSH1 0x0 DUP1 REVERT JUMPDEST PUSH2 0x36F8 DUP14 DUP4 DUP15 ADD PUSH2 0x2B2C JUMP JUMPDEST SWAP4 POP PUSH2 0x100 DUP13 ADD CALLDATALOAD SWAP2 POP DUP1 DUP3 GT ISZERO PUSH2 0x370F JUMPI PUSH1 0x0 DUP1 REVERT JUMPDEST POP PUSH2 0x371C DUP13 DUP3 DUP14 ADD PUSH2 0x2B2C JUMP JUMPDEST SWAP2 POP POP SWAP3 SWAP6 SWAP9 POP SWAP3 SWAP6 SWAP9 POP SWAP3 SWAP6 SWAP9 JUMP JUMPDEST PUSH1 0x20 DUP1 DUP3 MSTORE PUSH1 0x25 SWAP1 DUP3 ADD MSTORE PUSH32 0x4552433732313A207472616E736665722066726F6D20696E636F727265637420 PUSH1 0x40 DUP3 ADD MSTORE PUSH5 0x37BBB732B9 PUSH1 0xD9 SHL PUSH1 0x60 DUP3 ADD MSTORE PUSH1 0x80 ADD SWAP1 JUMP JUMPDEST PUSH1 0x20 DUP1 DUP3 MSTORE PUSH1 0x2B SWAP1 DUP3 ADD MSTORE PUSH32 0x496E697469616C697A61626C653A20636F6E7472616374206973206E6F742069 PUSH1 0x40 DUP3 ADD MSTORE PUSH11 0x6E697469616C697A696E67 PUSH1 0xA8 SHL PUSH1 0x60 DUP3 ADD MSTORE PUSH1 0x80 ADD SWAP1 JUMP JUMPDEST PUSH1 0x20 DUP1 DUP3 MSTORE PUSH1 0x32 SWAP1 DUP3 ADD MSTORE PUSH32 0x4552433732313A207472616E7366657220746F206E6F6E204552433732315265 PUSH1 0x40 DUP3 ADD MSTORE PUSH18 0x31B2B4BB32B91034B6B83632B6B2B73A32B9 PUSH1 0x71 SHL PUSH1 0x60 DUP3 ADD MSTORE PUSH1 0x80 ADD SWAP1 JUMP JUMPDEST PUSH4 0x4E487B71 PUSH1 0xE0 SHL PUSH1 0x0 MSTORE PUSH1 0x12 PUSH1 0x4 MSTORE PUSH1 0x24 PUSH1 0x0 REVERT JUMPDEST PUSH1 0x0 DUP3 PUSH2 0x3833 JUMPI PUSH2 0x3833 PUSH2 0x380E JUMP JUMPDEST POP DIV SWAP1 JUMP JUMPDEST PUSH1 0x0 DUP3 PUSH2 0x3847 JUMPI PUSH2 0x3847 PUSH2 0x380E JUMP JUMPDEST POP MOD SWAP1 JUMP JUMPDEST PUSH1 0xFF DUP2 DUP2 AND DUP4 DUP3 AND ADD SWAP1 DUP2 GT ISZERO PUSH2 0x66E JUMPI PUSH2 0x66E PUSH2 0x2F64 JUMP JUMPDEST PUSH1 0x1 PUSH1 0x1 PUSH1 0xA0 SHL SUB DUP6 DUP2 AND DUP3 MSTORE DUP5 AND PUSH1 0x20 DUP3 ADD MSTORE PUSH1 0x40 DUP2 ADD DUP4 SWAP1 MSTORE PUSH1 0x80 PUSH1 0x60 DUP3 ADD DUP2 SWAP1 MSTORE PUSH1 0x0 SWAP1 PUSH2 0x2A42 SWAP1 DUP4 ADD DUP5 PUSH2 0x287C JUMP JUMPDEST PUSH1 0x0 PUSH1 0x20 DUP3 DUP5 SUB SLT ISZERO PUSH2 0x38AA JUMPI PUSH1 0x0 DUP1 REVERT JUMPDEST DUP2 MLOAD PUSH2 0x2851 DUP2 PUSH2 0x281E JUMP JUMPDEST PUSH4 0x4E487B71 PUSH1 0xE0 SHL PUSH1 0x0 MSTORE PUSH1 0x31 PUSH1 0x4 MSTORE PUSH1 0x24 PUSH1 0x0 REVERT INVALID LOG2 PUSH5 0x6970667358 0x22 SLT KECCAK256 CREATE2 0xCB POP 0xCD 0xEE CREATE 0x2A COINBASE 0xE1 0xD3 0xDC STOP 0xCF 0xC3 PUSH5 0x64EE483B9B 0x5E SWAP12 DUP14 DUP9 DUP5 DUP7 DUP14 0xA5 0x4A PUSH21 0x4B8464736F6C634300081200330000000000000000 "},"methodIdentifiers":{"addChapter(string,string,uint256,string[],string[])":"5b92cc8a","addPage(uint256,string,string)":"0f1f0850","addSection(bytes)":"f700f903","approve(address,uint256)":"095ea7b3","balanceOf(address)":"70a08231","chapters(uint256)":"f40adb12","getApproved(uint256)":"081812fc","getPage(uint256,uint256)":"cd1a2e91","initialize(address,string,string)":"90657147","isApprovedForAll(address,address)":"e985e9c5","mint(uint256)":"a0712d68","minterOwnedTokens(address,uint256)":"db010ae4","name()":"06fdde03","owner()":"8da5cb5b","ownerOf(uint256)":"6352211e","publicationAuthor()":"527c4165","publicationCoverImage()":"ccfea8f0","publicationName()":"86b4e2a0","renounceOwnership()":"715018a6","safeTransferFrom(address,address,uint256)":"42842e0e","safeTransferFrom(address,address,uint256,bytes)":"b88d4fde","sections(uint256)":"35603440","setApprovalForAll(address,bool)":"a22cb465","supportsInterface(bytes4)":"01ffc9a7","symbol()":"95d89b41","tokenByIndex(uint256)":"4f6ccce7","tokenIdToMinter(uint256)":"2218f119","tokenOfOwnerByIndex(address,uint256)":"2f745c59","tokenURI(uint256)":"c87b56dd","totalSupply()":"18160ddd","transferFrom(address,address,uint256)":"23b872dd","transferOwnership(address)":"f2fde38b"}},"storageLayout":{"storage":[{"astId":138,"contract":"contracts/Publius.sol:Publius","label":"_initialized","offset":0,"slot":"0","type":"t_uint8"},{"astId":141,"contract":"contracts/Publius.sol:Publius","label":"_initializing","offset":1,"slot":"0","type":"t_bool"},{"astId":2143,"contract":"contracts/Publius.sol:Publius","label":"__gap","offset":0,"slot":"1","type":"t_array(t_uint256)50_storage"},{"astId":2362,"contract":"contracts/Publius.sol:Publius","label":"__gap","offset":0,"slot":"51","type":"t_array(t_uint256)50_storage"},{"astId":329,"contract":"contracts/Publius.sol:Publius","label":"_name","offset":0,"slot":"101","type":"t_string_storage"},{"astId":331,"contract":"contracts/Publius.sol:Publius","label":"_symbol","offset":0,"slot":"102","type":"t_string_storage"},{"astId":335,"contract":"contracts/Publius.sol:Publius","label":"_owners","offset":0,"slot":"103","type":"t_mapping(t_uint256,t_address)"},{"astId":339,"contract":"contracts/Publius.sol:Publius","label":"_balances","offset":0,"slot":"104","type":"t_mapping(t_address,t_uint256)"},{"astId":343,"contract":"contracts/Publius.sol:Publius","label":"_tokenApprovals","offset":0,"slot":"105","type":"t_mapping(t_uint256,t_address)"},{"astId":349,"contract":"contracts/Publius.sol:Publius","label":"_operatorApprovals","offset":0,"slot":"106","type":"t_mapping(t_address,t_mapping(t_address,t_bool))"},{"astId":1251,"contract":"contracts/Publius.sol:Publius","label":"__gap","offset":0,"slot":"107","type":"t_array(t_uint256)44_storage"},{"astId":1416,"contract":"contracts/Publius.sol:Publius","label":"_ownedTokens","offset":0,"slot":"151","type":"t_mapping(t_address,t_mapping(t_uint256,t_uint256))"},{"astId":1420,"contract":"contracts/Publius.sol:Publius","label":"_ownedTokensIndex","offset":0,"slot":"152","type":"t_mapping(t_uint256,t_uint256)"},{"astId":1423,"contract":"contracts/Publius.sol:Publius","label":"_allTokens","offset":0,"slot":"153","type":"t_array(t_uint256)dyn_storage"},{"astId":1427,"contract":"contracts/Publius.sol:Publius","label":"_allTokensIndex","offset":0,"slot":"154","type":"t_mapping(t_uint256,t_uint256)"},{"astId":1759,"contract":"contracts/Publius.sol:Publius","label":"__gap","offset":0,"slot":"155","type":"t_array(t_uint256)46_storage"},{"astId":10,"contract":"contracts/Publius.sol:Publius","label":"_owner","offset":0,"slot":"201","type":"t_address"},{"astId":130,"contract":"contracts/Publius.sol:Publius","label":"__gap","offset":0,"slot":"202","type":"t_array(t_uint256)49_storage"},{"astId":4222,"contract":"contracts/Publius.sol:Publius","label":"tokenIdToMinter","offset":0,"slot":"251","type":"t_mapping(t_uint256,t_address)"},{"astId":4227,"contract":"contracts/Publius.sol:Publius","label":"minterOwnedTokens","offset":0,"slot":"252","type":"t_mapping(t_address,t_array(t_uint256)dyn_storage)"},{"astId":4232,"contract":"contracts/Publius.sol:Publius","label":"sections","offset":0,"slot":"253","type":"t_mapping(t_uint256,t_struct(Section)4255_storage)"},{"astId":4237,"contract":"contracts/Publius.sol:Publius","label":"chapters","offset":0,"slot":"254","type":"t_mapping(t_uint256,t_struct(Chapter)4269_storage)"},{"astId":4239,"contract":"contracts/Publius.sol:Publius","label":"publicationName","offset":0,"slot":"255","type":"t_string_storage"},{"astId":4241,"contract":"contracts/Publius.sol:Publius","label":"publicationAuthor","offset":0,"slot":"256","type":"t_address"},{"astId":4243,"contract":"contracts/Publius.sol:Publius","label":"publicationCoverImage","offset":0,"slot":"257","type":"t_string_storage"},{"astId":4245,"contract":"contracts/Publius.sol:Publius","label":"sectionCount","offset":0,"slot":"258","type":"t_uint256"}],"types":{"t_address":{"encoding":"inplace","label":"address","numberOfBytes":"20"},"t_array(t_uint256)44_storage":{"base":"t_uint256","encoding":"inplace","label":"uint256[44]","numberOfBytes":"1408"},"t_array(t_uint256)46_storage":{"base":"t_uint256","encoding":"inplace","label":"uint256[46]","numberOfBytes":"1472"},"t_array(t_uint256)49_storage":{"base":"t_uint256","encoding":"inplace","label":"uint256[49]","numberOfBytes":"1568"},"t_array(t_uint256)50_storage":{"base":"t_uint256","encoding":"inplace","label":"uint256[50]","numberOfBytes":"1600"},"t_array(t_uint256)dyn_storage":{"base":"t_uint256","encoding":"dynamic_array","label":"uint256[]","numberOfBytes":"32"},"t_bool":{"encoding":"inplace","label":"bool","numberOfBytes":"1"},"t_mapping(t_address,t_array(t_uint256)dyn_storage)":{"encoding":"mapping","key":"t_address","label":"mapping(address => uint256[])","numberOfBytes":"32","value":"t_array(t_uint256)dyn_storage"},"t_mapping(t_address,t_bool)":{"encoding":"mapping","key":"t_address","label":"mapping(address => bool)","numberOfBytes":"32","value":"t_bool"},"t_mapping(t_address,t_mapping(t_address,t_bool))":{"encoding":"mapping","key":"t_address","label":"mapping(address => mapping(address => bool))","numberOfBytes":"32","value":"t_mapping(t_address,t_bool)"},"t_mapping(t_address,t_mapping(t_uint256,t_uint256))":{"encoding":"mapping","key":"t_address","label":"mapping(address => mapping(uint256 => uint256))","numberOfBytes":"32","value":"t_mapping(t_uint256,t_uint256)"},"t_mapping(t_address,t_uint256)":{"encoding":"mapping","key":"t_address","label":"mapping(address => uint256)","numberOfBytes":"32","value":"t_uint256"},"t_mapping(t_uint256,t_address)":{"encoding":"mapping","key":"t_uint256","label":"mapping(uint256 => address)","numberOfBytes":"32","value":"t_address"},"t_mapping(t_uint256,t_struct(Chapter)4269_storage)":{"encoding":"mapping","key":"t_uint256","label":"mapping(uint256 => struct Publius.Chapter)","numberOfBytes":"32","value":"t_struct(Chapter)4269_storage"},"t_mapping(t_uint256,t_struct(Page)4276_storage)":{"encoding":"mapping","key":"t_uint256","label":"mapping(uint256 => struct Publius.Page)","numberOfBytes":"32","value":"t_struct(Page)4276_storage"},"t_mapping(t_uint256,t_struct(Section)4255_storage)":{"encoding":"mapping","key":"t_uint256","label":"mapping(uint256 => struct Publius.Section)","numberOfBytes":"32","value":"t_struct(Section)4255_storage"},"t_mapping(t_uint256,t_uint256)":{"encoding":"mapping","key":"t_uint256","label":"mapping(uint256 => uint256)","numberOfBytes":"32","value":"t_uint256"},"t_string_storage":{"encoding":"bytes","label":"string","numberOfBytes":"32"},"t_struct(Chapter)4269_storage":{"encoding":"inplace","label":"struct Publius.Chapter","members":[{"astId":4257,"contract":"contracts/Publius.sol:Publius","label":"chapterName","offset":0,"slot":"0","type":"t_string_storage"},{"astId":4259,"contract":"contracts/Publius.sol:Publius","label":"chapterId","offset":0,"slot":"1","type":"t_uint256"},{"astId":4261,"contract":"contracts/Publius.sol:Publius","label":"chapterImage","offset":0,"slot":"2","type":"t_string_storage"},{"astId":4266,"contract":"contracts/Publius.sol:Publius","label":"pages","offset":0,"slot":"3","type":"t_mapping(t_uint256,t_struct(Page)4276_storage)"},{"astId":4268,"contract":"contracts/Publius.sol:Publius","label":"pageCount","offset":0,"slot":"4","type":"t_uint256"}],"numberOfBytes":"160"},"t_struct(Page)4276_storage":{"encoding":"inplace","label":"struct Publius.Page","members":[{"astId":4271,"contract":"contracts/Publius.sol:Publius","label":"pageName","offset":0,"slot":"0","type":"t_string_storage"},{"astId":4273,"contract":"contracts/Publius.sol:Publius","label":"pageId","offset":0,"slot":"1","type":"t_uint256"},{"astId":4275,"contract":"contracts/Publius.sol:Publius","label":"pageContent","offset":0,"slot":"2","type":"t_string_storage"}],"numberOfBytes":"96"},"t_struct(Section)4255_storage":{"encoding":"inplace","label":"struct Publius.Section","members":[{"astId":4247,"contract":"contracts/Publius.sol:Publius","label":"sectionName","offset":0,"slot":"0","type":"t_string_storage"},{"astId":4249,"contract":"contracts/Publius.sol:Publius","label":"sectionId","offset":0,"slot":"1","type":"t_uint256"},{"astId":4251,"contract":"contracts/Publius.sol:Publius","label":"sectionImage","offset":0,"slot":"2","type":"t_string_storage"},{"astId":4254,"contract":"contracts/Publius.sol:Publius","label":"chapters","offset":0,"slot":"3","type":"t_array(t_uint256)dyn_storage"}],"numberOfBytes":"128"},"t_uint256":{"encoding":"inplace","label":"uint256","numberOfBytes":"32"},"t_uint8":{"encoding":"inplace","label":"uint8","numberOfBytes":"1"}}}}}}