{
  "_format": "hh-sol-artifact-1",
  "contractName": "Publius",
  "sourceName": "contracts/Publius.sol",
  "abi": [
    {
      "anonymous": false,
      "inputs": [
        {
          "indexed": true,
          "internalType": "address",
          "name": "owner",
          "type": "address"
        },
        {
          "indexed": true,
          "internalType": "address",
          "name": "approved",
          "type": "address"
        },
        {
          "indexed": true,
          "internalType": "uint256",
          "name": "tokenId",
          "type": "uint256"
        }
      ],
      "name": "Approval",
      "type": "event"
    },
    {
      "anonymous": false,
      "inputs": [
        {
          "indexed": true,
          "internalType": "address",
          "name": "owner",
          "type": "address"
        },
        {
          "indexed": true,
          "internalType": "address",
          "name": "operator",
          "type": "address"
        },
        {
          "indexed": false,
          "internalType": "bool",
          "name": "approved",
          "type": "bool"
        }
      ],
      "name": "ApprovalForAll",
      "type": "event"
    },
    {
      "anonymous": false,
      "inputs": [
        {
          "indexed": false,
          "internalType": "uint8",
          "name": "version",
          "type": "uint8"
        }
      ],
      "name": "Initialized",
      "type": "event"
    },
    {
      "anonymous": false,
      "inputs": [
        {
          "indexed": true,
          "internalType": "address",
          "name": "previousOwner",
          "type": "address"
        },
        {
          "indexed": true,
          "internalType": "address",
          "name": "newOwner",
          "type": "address"
        }
      ],
      "name": "OwnershipTransferred",
      "type": "event"
    },
    {
      "anonymous": false,
      "inputs": [
        {
          "indexed": true,
          "internalType": "address",
          "name": "from",
          "type": "address"
        },
        {
          "indexed": true,
          "internalType": "address",
          "name": "to",
          "type": "address"
        },
        {
          "indexed": true,
          "internalType": "uint256",
          "name": "tokenId",
          "type": "uint256"
        }
      ],
      "name": "Transfer",
      "type": "event"
    },
    {
      "inputs": [
        {
          "internalType": "uint256",
          "name": "_sectionId",
          "type": "uint256"
        },
        {
          "internalType": "string",
          "name": "_chapterName",
          "type": "string"
        },
        {
          "internalType": "string",
          "name": "_chapterImage",
          "type": "string"
        },
        {
          "internalType": "uint256",
          "name": "_chapterId",
          "type": "uint256"
        },
        {
          "internalType": "string[]",
          "name": "_pageNames",
          "type": "string[]"
        },
        {
          "internalType": "string[]",
          "name": "_pageContent",
          "type": "string[]"
        },
        {
          "internalType": "uint256[]",
          "name": "_pageIds",
          "type": "uint256[]"
        }
      ],
      "name": "addChapter",
      "outputs": [],
      "stateMutability": "nonpayable",
      "type": "function"
    },
    {
      "inputs": [
        {
          "internalType": "uint256",
          "name": "_chapter",
          "type": "uint256"
        },
        {
          "internalType": "string",
          "name": "_pageName",
          "type": "string"
        },
        {
          "internalType": "string",
          "name": "_pageContent",
          "type": "string"
        },
        {
          "internalType": "uint256",
          "name": "_pageId",
          "type": "uint256"
        }
      ],
      "name": "addPage",
      "outputs": [],
      "stateMutability": "nonpayable",
      "type": "function"
    },
    {
      "inputs": [
        {
          "internalType": "bytes",
          "name": "_sectionInfo",
          "type": "bytes"
        },
        {
          "internalType": "bytes",
          "name": "_chapterInfo",
          "type": "bytes"
        },
        {
          "internalType": "bytes",
          "name": "_pageInfo",
          "type": "bytes"
        }
      ],
      "name": "addSection",
      "outputs": [],
      "stateMutability": "nonpayable",
      "type": "function"
    },
    {
      "inputs": [
        {
          "internalType": "address",
          "name": "_address",
          "type": "address"
        }
      ],
      "name": "addressToString",
      "outputs": [
        {
          "internalType": "string",
          "name": "",
          "type": "string"
        }
      ],
      "stateMutability": "pure",
      "type": "function"
    },
    {
      "inputs": [
        {
          "internalType": "address",
          "name": "to",
          "type": "address"
        },
        {
          "internalType": "uint256",
          "name": "tokenId",
          "type": "uint256"
        }
      ],
      "name": "approve",
      "outputs": [],
      "stateMutability": "nonpayable",
      "type": "function"
    },
    {
      "inputs": [
        {
          "internalType": "address",
          "name": "owner",
          "type": "address"
        }
      ],
      "name": "balanceOf",
      "outputs": [
        {
          "internalType": "uint256",
          "name": "",
          "type": "uint256"
        }
      ],
      "stateMutability": "view",
      "type": "function"
    },
    {
      "inputs": [
        {
          "internalType": "uint256",
          "name": "",
          "type": "uint256"
        }
      ],
      "name": "chapters",
      "outputs": [
        {
          "internalType": "string",
          "name": "chapterName",
          "type": "string"
        },
        {
          "internalType": "uint256",
          "name": "chapterId",
          "type": "uint256"
        },
        {
          "internalType": "string",
          "name": "chapterImage",
          "type": "string"
        }
      ],
      "stateMutability": "view",
      "type": "function"
    },
    {
      "inputs": [
        {
          "internalType": "uint256",
          "name": "tokenId",
          "type": "uint256"
        }
      ],
      "name": "getApproved",
      "outputs": [
        {
          "internalType": "address",
          "name": "",
          "type": "address"
        }
      ],
      "stateMutability": "view",
      "type": "function"
    },
    {
      "inputs": [
        {
          "internalType": "uint256",
          "name": "_chapter",
          "type": "uint256"
        },
        {
          "internalType": "uint256",
          "name": "_pageId",
          "type": "uint256"
        }
      ],
      "name": "getPage",
      "outputs": [
        {
          "components": [
            {
              "internalType": "string",
              "name": "pageName",
              "type": "string"
            },
            {
              "internalType": "uint256",
              "name": "pageId",
              "type": "uint256"
            },
            {
              "internalType": "string",
              "name": "pageContent",
              "type": "string"
            }
          ],
          "internalType": "struct Publius.Page",
          "name": "",
          "type": "tuple"
        }
      ],
      "stateMutability": "view",
      "type": "function"
    },
    {
      "inputs": [
        {
          "internalType": "uint256",
          "name": "_chapter",
          "type": "uint256"
        }
      ],
      "name": "getPageIds",
      "outputs": [
        {
          "internalType": "uint256[]",
          "name": "",
          "type": "uint256[]"
        }
      ],
      "stateMutability": "view",
      "type": "function"
    },
    {
      "inputs": [
        {
          "internalType": "address",
          "name": "_publicationAuthor",
          "type": "address"
        },
        {
          "internalType": "string",
          "name": "_publicationName",
          "type": "string"
        },
        {
          "internalType": "string",
          "name": "_publicationCoverImage",
          "type": "string"
        }
      ],
      "name": "initialize",
      "outputs": [],
      "stateMutability": "nonpayable",
      "type": "function"
    },
    {
      "inputs": [
        {
          "internalType": "address",
          "name": "owner",
          "type": "address"
        },
        {
          "internalType": "address",
          "name": "operator",
          "type": "address"
        }
      ],
      "name": "isApprovedForAll",
      "outputs": [
        {
          "internalType": "bool",
          "name": "",
          "type": "bool"
        }
      ],
      "stateMutability": "view",
      "type": "function"
    },
    {
      "inputs": [
        {
          "internalType": "uint256",
          "name": "_amount",
          "type": "uint256"
        }
      ],
      "name": "mint",
      "outputs": [],
      "stateMutability": "payable",
      "type": "function"
    },
    {
      "inputs": [
        {
          "internalType": "address",
          "name": "",
          "type": "address"
        },
        {
          "internalType": "uint256",
          "name": "",
          "type": "uint256"
        }
      ],
      "name": "minterOwnedTokens",
      "outputs": [
        {
          "internalType": "uint256",
          "name": "",
          "type": "uint256"
        }
      ],
      "stateMutability": "view",
      "type": "function"
    },
    {
      "inputs": [],
      "name": "name",
      "outputs": [
        {
          "internalType": "string",
          "name": "",
          "type": "string"
        }
      ],
      "stateMutability": "view",
      "type": "function"
    },
    {
      "inputs": [],
      "name": "owner",
      "outputs": [
        {
          "internalType": "address",
          "name": "",
          "type": "address"
        }
      ],
      "stateMutability": "view",
      "type": "function"
    },
    {
      "inputs": [
        {
          "internalType": "uint256",
          "name": "tokenId",
          "type": "uint256"
        }
      ],
      "name": "ownerOf",
      "outputs": [
        {
          "internalType": "address",
          "name": "",
          "type": "address"
        }
      ],
      "stateMutability": "view",
      "type": "function"
    },
    {
      "inputs": [],
      "name": "publicationAuthor",
      "outputs": [
        {
          "internalType": "address",
          "name": "",
          "type": "address"
        }
      ],
      "stateMutability": "view",
      "type": "function"
    },
    {
      "inputs": [],
      "name": "publicationCoverImage",
      "outputs": [
        {
          "internalType": "string",
          "name": "",
          "type": "string"
        }
      ],
      "stateMutability": "view",
      "type": "function"
    },
    {
      "inputs": [],
      "name": "publicationName",
      "outputs": [
        {
          "internalType": "string",
          "name": "",
          "type": "string"
        }
      ],
      "stateMutability": "view",
      "type": "function"
    },
    {
      "inputs": [],
      "name": "renounceOwnership",
      "outputs": [],
      "stateMutability": "nonpayable",
      "type": "function"
    },
    {
      "inputs": [
        {
          "internalType": "address",
          "name": "from",
          "type": "address"
        },
        {
          "internalType": "address",
          "name": "to",
          "type": "address"
        },
        {
          "internalType": "uint256",
          "name": "tokenId",
          "type": "uint256"
        }
      ],
      "name": "safeTransferFrom",
      "outputs": [],
      "stateMutability": "nonpayable",
      "type": "function"
    },
    {
      "inputs": [
        {
          "internalType": "address",
          "name": "from",
          "type": "address"
        },
        {
          "internalType": "address",
          "name": "to",
          "type": "address"
        },
        {
          "internalType": "uint256",
          "name": "tokenId",
          "type": "uint256"
        },
        {
          "internalType": "bytes",
          "name": "data",
          "type": "bytes"
        }
      ],
      "name": "safeTransferFrom",
      "outputs": [],
      "stateMutability": "nonpayable",
      "type": "function"
    },
    {
      "inputs": [
        {
          "internalType": "uint256",
          "name": "",
          "type": "uint256"
        }
      ],
      "name": "sections",
      "outputs": [
        {
          "internalType": "string",
          "name": "sectionName",
          "type": "string"
        },
        {
          "internalType": "uint256",
          "name": "sectionId",
          "type": "uint256"
        },
        {
          "internalType": "string",
          "name": "sectionImage",
          "type": "string"
        }
      ],
      "stateMutability": "view",
      "type": "function"
    },
    {
      "inputs": [
        {
          "internalType": "address",
          "name": "operator",
          "type": "address"
        },
        {
          "internalType": "bool",
          "name": "approved",
          "type": "bool"
        }
      ],
      "name": "setApprovalForAll",
      "outputs": [],
      "stateMutability": "nonpayable",
      "type": "function"
    },
    {
      "inputs": [
        {
          "internalType": "bytes4",
          "name": "interfaceId",
          "type": "bytes4"
        }
      ],
      "name": "supportsInterface",
      "outputs": [
        {
          "internalType": "bool",
          "name": "",
          "type": "bool"
        }
      ],
      "stateMutability": "view",
      "type": "function"
    },
    {
      "inputs": [],
      "name": "symbol",
      "outputs": [
        {
          "internalType": "string",
          "name": "",
          "type": "string"
        }
      ],
      "stateMutability": "view",
      "type": "function"
    },
    {
      "inputs": [
        {
          "internalType": "uint256",
          "name": "index",
          "type": "uint256"
        }
      ],
      "name": "tokenByIndex",
      "outputs": [
        {
          "internalType": "uint256",
          "name": "",
          "type": "uint256"
        }
      ],
      "stateMutability": "view",
      "type": "function"
    },
    {
      "inputs": [
        {
          "internalType": "uint256",
          "name": "",
          "type": "uint256"
        }
      ],
      "name": "tokenIdToMinter",
      "outputs": [
        {
          "internalType": "address",
          "name": "",
          "type": "address"
        }
      ],
      "stateMutability": "view",
      "type": "function"
    },
    {
      "inputs": [
        {
          "internalType": "address",
          "name": "owner",
          "type": "address"
        },
        {
          "internalType": "uint256",
          "name": "index",
          "type": "uint256"
        }
      ],
      "name": "tokenOfOwnerByIndex",
      "outputs": [
        {
          "internalType": "uint256",
          "name": "",
          "type": "uint256"
        }
      ],
      "stateMutability": "view",
      "type": "function"
    },
    {
      "inputs": [
        {
          "internalType": "uint256",
          "name": "_tokenId",
          "type": "uint256"
        }
      ],
      "name": "tokenURI",
      "outputs": [
        {
          "internalType": "string",
          "name": "uri",
          "type": "string"
        }
      ],
      "stateMutability": "view",
      "type": "function"
    },
    {
      "inputs": [],
      "name": "totalSupply",
      "outputs": [
        {
          "internalType": "uint256",
          "name": "",
          "type": "uint256"
        }
      ],
      "stateMutability": "view",
      "type": "function"
    },
    {
      "inputs": [
        {
          "internalType": "address",
          "name": "from",
          "type": "address"
        },
        {
          "internalType": "address",
          "name": "to",
          "type": "address"
        },
        {
          "internalType": "uint256",
          "name": "tokenId",
          "type": "uint256"
        }
      ],
      "name": "transferFrom",
      "outputs": [],
      "stateMutability": "nonpayable",
      "type": "function"
    },
    {
      "inputs": [
        {
          "internalType": "address",
          "name": "newOwner",
          "type": "address"
        }
      ],
      "name": "transferOwnership",
      "outputs": [],
      "stateMutability": "nonpayable",
      "type": "function"
    }
  ],
  "bytecode": "0x608060405234801561001057600080fd5b506143e7806100206000396000f3fe6080604052600436106101f95760003560e01c806386b4e2a01161010d578063cb7c3ca7116100a0578063db010ae41161006f578063db010ae4146105d3578063e8bfecc7146105f3578063e985e9c514610613578063f2fde38b1461065c578063f40adb121461067c57600080fd5b8063cb7c3ca714610544578063ccfea8f014610564578063cd1a2e9114610579578063d0dccf03146105a657600080fd5b8063a0712d68116100dc578063a0712d68146104d1578063a22cb465146104e4578063b88d4fde14610504578063c87b56dd1461052457600080fd5b806386b4e2a0146104695780638da5cb5b1461047e578063906571471461049c57806395d89b41146104bc57600080fd5b806335603440116101905780635e57966d1161015f5780635e57966d146103d45780636352211e146103f45780636b00aba61461041457806370a0823114610434578063715018a61461045457600080fd5b8063356034401461034457806342842e0e146103735780634f6ccce714610393578063527c4165146103b357600080fd5b806318160ddd116101cc57806318160ddd146102af5780632218f119146102ce57806323b872dd146103045780632f745c591461032457600080fd5b806301ffc9a7146101fe57806306fdde0314610233578063081812fc14610255578063095ea7b31461028d575b600080fd5b34801561020a57600080fd5b5061021e610219366004613077565b61069c565b60405190151581526020015b60405180910390f35b34801561023f57600080fd5b506102486106c7565b60405161022a91906130eb565b34801561026157600080fd5b506102756102703660046130fe565b610759565b6040516001600160a01b03909116815260200161022a565b34801561029957600080fd5b506102ad6102a8366004613133565b610780565b005b3480156102bb57600080fd5b506099545b60405190815260200161022a565b3480156102da57600080fd5b506102756102e93660046130fe565b60fb602052600090815260409020546001600160a01b031681565b34801561031057600080fd5b506102ad61031f36600461315d565b61089a565b34801561033057600080fd5b506102c061033f366004613133565b6108cb565b34801561035057600080fd5b5061036461035f3660046130fe565b610961565b60405161022a93929190613199565b34801561037f57600080fd5b506102ad61038e36600461315d565b610a93565b34801561039f57600080fd5b506102c06103ae3660046130fe565b610aae565b3480156103bf57600080fd5b5061010054610275906001600160a01b031681565b3480156103e057600080fd5b506102486103ef3660046131ce565b610b41565b34801561040057600080fd5b5061027561040f3660046130fe565b610d2c565b34801561042057600080fd5b506102ad61042f366004613231565b610d8c565b34801561044057600080fd5b506102c061044f3660046131ce565b61122c565b34801561046057600080fd5b506102ad6112b2565b34801561047557600080fd5b506102486112c6565b34801561048a57600080fd5b5060c9546001600160a01b0316610275565b3480156104a857600080fd5b506102ad6104b73660046132ca565b611354565b3480156104c857600080fd5b5061024861150a565b6102ad6104df3660046130fe565b611519565b3480156104f057600080fd5b506102ad6104ff36600461334a565b6115ed565b34801561051057600080fd5b506102ad61051f366004613423565b6115f8565b34801561053057600080fd5b5061024861053f3660046130fe565b611630565b34801561055057600080fd5b506102ad61055f3660046134be565b611a2b565b34801561057057600080fd5b50610248611d45565b34801561058557600080fd5b50610599610594366004613532565b611d53565b60405161022a9190613554565b3480156105b257600080fd5b506105c66105c13660046130fe565b611ed8565b60405161022a91906135a0565b3480156105df57600080fd5b506102c06105ee366004613133565b611f40565b3480156105ff57600080fd5b506102ad61060e3660046136f1565b611f71565b34801561061f57600080fd5b5061021e61062e3660046137d5565b6001600160a01b039182166000908152606a6020908152604080832093909416825291909152205460ff1690565b34801561066857600080fd5b506102ad6106773660046131ce565b61236b565b34801561068857600080fd5b506103646106973660046130fe565b6123e4565b60006001600160e01b0319821663780e9d6360e01b14806106c157506106c1826123ff565b92915050565b6060606580546106d690613808565b80601f016020809104026020016040519081016040528092919081815260200182805461070290613808565b801561074f5780601f106107245761010080835404028352916020019161074f565b820191906000526020600020905b81548152906001019060200180831161073257829003601f168201915b5050505050905090565b60006107648261244f565b506000908152606960205260409020546001600160a01b031690565b600061078b82610d2c565b9050806001600160a01b0316836001600160a01b0316036107fd5760405162461bcd60e51b815260206004820152602160248201527f4552433732313a20617070726f76616c20746f2063757272656e74206f776e656044820152603960f91b60648201526084015b60405180910390fd5b336001600160a01b03821614806108195750610819813361062e565b61088b5760405162461bcd60e51b815260206004820152603d60248201527f4552433732313a20617070726f76652063616c6c6572206973206e6f7420746f60448201527f6b656e206f776e6572206f7220617070726f76656420666f7220616c6c00000060648201526084016107f4565b61089583836124ae565b505050565b6108a4338261251c565b6108c05760405162461bcd60e51b81526004016107f490613842565b61089583838361259b565b60006108d68361122c565b82106109385760405162461bcd60e51b815260206004820152602b60248201527f455243373231456e756d657261626c653a206f776e657220696e646578206f7560448201526a74206f6620626f756e647360a81b60648201526084016107f4565b506001600160a01b03919091166000908152609760209081526040808320938352929052205490565b60fd6020526000908152604090208054819061097c90613808565b80601f01602080910402602001604051908101604052809291908181526020018280546109a890613808565b80156109f55780601f106109ca576101008083540402835291602001916109f5565b820191906000526020600020905b8154815290600101906020018083116109d857829003601f168201915b505050505090806001015490806002018054610a1090613808565b80601f0160208091040260200160405190810160405280929190818152602001828054610a3c90613808565b8015610a895780601f10610a5e57610100808354040283529160200191610a89565b820191906000526020600020905b815481529060010190602001808311610a6c57829003601f168201915b5050505050905083565b610895838383604051806020016040528060008152506115f8565b6000610ab960995490565b8210610b1c5760405162461bcd60e51b815260206004820152602c60248201527f455243373231456e756d657261626c653a20676c6f62616c20696e646578206f60448201526b7574206f6620626f756e647360a01b60648201526084016107f4565b60998281548110610b2f57610b2f61388f565b90600052602060002001549050919050565b604080518082018252601081526f181899199a1a9b1b9c1cb0b131b232b360811b60208201528151602a80825260608281019094526001600160a01b0385169291600091602082018180368337019050509050600360fc1b81600081518110610bac57610bac61388f565b60200101906001600160f81b031916908160001a905350600f60fb1b81600181518110610bdb57610bdb61388f565b60200101906001600160f81b031916908160001a90535060005b6014811015610d235782600485610c0d84600c6138bb565b60208110610c1d57610c1d61388f565b1a60f81b6001600160f81b031916901c60f81c60ff1681518110610c4357610c4361388f565b01602001516001600160f81b03191682610c5e8360026138ce565b610c699060026138bb565b81518110610c7957610c7961388f565b60200101906001600160f81b031916908160001a9053508284610c9d83600c6138bb565b60208110610cad57610cad61388f565b825191901a600f16908110610cc457610cc461388f565b01602001516001600160f81b03191682610cdf8360026138ce565b610cea9060036138bb565b81518110610cfa57610cfa61388f565b60200101906001600160f81b031916908160001a90535080610d1b816138e5565b915050610bf5565b50949350505050565b6000818152606760205260408120546001600160a01b0316806106c15760405162461bcd60e51b8152602060048201526018602482015277115490cdcc8c4e881a5b9d985b1a59081d1bdad95b88125160421b60448201526064016107f4565b610d9461270c565b6000859003610df35760405162461bcd60e51b815260206004820152602560248201527f5075626c6975733a2053656374696f6e20696e666f2063616e6e6f7420626520604482015264656d70747960d81b60648201526084016107f4565b6000839003610e525760405162461bcd60e51b815260206004820152602560248201527f5075626c6975733a204368617074657220696e666f2063616e6e6f7420626520604482015264656d70747960d81b60648201526084016107f4565b6000819003610eae5760405162461bcd60e51b815260206004820152602260248201527f5075626c6975733a205061676520696e666f2063616e6e6f7420626520656d70604482015261747960f01b60648201526084016107f4565b60008080610ebe888a018a6138fe565b92509250925080600003610f145760405162461bcd60e51b815260206004820152601f60248201527f5075626c6975733a2053656374696f6e2049442063616e6e6f7420626520300060448201526064016107f4565b604051602001610f2f90602080825260009082015260400190565b6040516020818303038152906040528051906020012083604051602001610f5691906130eb565b6040516020818303038152906040528051906020012003610fc75760405162461bcd60e51b815260206004820152602560248201527f5075626c6975733a2053656374696f6e206e616d652063616e6e6f7420626520604482015264656d70747960d81b60648201526084016107f4565b60008080610fd7898b018b61396a565b925092509250805160000361103a5760405162461bcd60e51b8152602060048201526024808201527f5075626c6975733a2043686170746572204944732063616e6e6f7420626520656044820152636d70747960e01b60648201526084016107f4565b825160000361109a5760405162461bcd60e51b815260206004820152602660248201527f5075626c6975733a2043686170746572206e616d65732063616e6e6f7420626560448201526520656d70747960d01b60648201526084016107f4565b600080806110aa8a8c018c613a70565b92509250925082516000036110d15760405162461bcd60e51b81526004016107f490613b67565b80516000036110f25760405162461bcd60e51b81526004016107f490613baa565b600060fd600061010254600161110891906138bb565b815260208101919091526040016000209050806111258b82613c31565b50600181018890556002810161113b8a82613c31565b5060005b8551811015611203576111f182600101548983815181106111625761116261388f565b602002602001015189848151811061117c5761117c61388f565b60200260200101518985815181106111965761119661388f565b60200260200101518986815181106111b0576111b061388f565b60200260200101518987815181106111ca576111ca61388f565b60200260200101518988815181106111e4576111e461388f565b6020026020010151611f71565b806111fb816138e5565b91505061113f565b506101028054906000611215836138e5565b919050555050505050505050505050505050505050565b60006001600160a01b0382166112965760405162461bcd60e51b815260206004820152602960248201527f4552433732313a2061646472657373207a65726f206973206e6f7420612076616044820152683634b21037bbb732b960b91b60648201526084016107f4565b506001600160a01b031660009081526068602052604090205490565b6112ba61270c565b6112c46000612766565b565b60ff80546112d390613808565b80601f01602080910402602001604051908101604052809291908181526020018280546112ff90613808565b801561134c5780601f106113215761010080835404028352916020019161134c565b820191906000526020600020905b81548152906001019060200180831161132f57829003601f168201915b505050505081565b600054610100900460ff16158080156113745750600054600160ff909116105b8061138e5750303b15801561138e575060005460ff166001145b6113f15760405162461bcd60e51b815260206004820152602e60248201527f496e697469616c697a61626c653a20636f6e747261637420697320616c72656160448201526d191e481a5b9a5d1a585b1a5e995960921b60648201526084016107f4565b6000805460ff191660011790558015611414576000805461ff0019166101001790555b61147285858080601f016020809104026020016040519081016040528093929190818152602001838380828437600092019190915250506040805180820190915260078152665055424c49555360c81b602082015291506127b89050565b61147a6127e9565b6114838661236b565b60ff611490858783613cf0565b5061010080546001600160a01b0319166001600160a01b0388161790556101016114bb838583613cf0565b508015611502576000805461ff0019169055604051600181527f7f26b83ff96e1f2b6a682f133852f6798a09c465da95921460cefb38474024989060200160405180910390a15b505050505050565b6060606680546106d690613808565b61152a81662386f26fc100006138ce565b34101561156f5760405162461bcd60e51b8152602060048201526013602482015272139bdd08195b9bdd59da08115512081cd95b9d606a1b60448201526064016107f4565b60005b818110156115e957600061158560995490565b6115909060016138bb565b905061159c3382612818565b600081815260fb6020908152604080832080546001600160a01b03191633908117909155835260fc82528220805460018101825590835291200155806115e1816138e5565b915050611572565b5050565b6115e93383836129b1565b611602338361251c565b61161e5760405162461bcd60e51b81526004016107f490613842565b61162a84848484612a7f565b50505050565b6000818152606760205260409020546060906001600160a01b031661168e5760405162461bcd60e51b8152602060048201526014602482015273151bdad95b88191bd95cc81b9bdd08195e1a5cdd60621b60448201526064016107f4565b6040805180820190915260018152607b60f81b602082015261010054819060ff906116c1906001600160a01b0316610b41565b6101016040516020016116d79493929190613e22565b60408051601f19818403018152919052905060015b6101025481116119d657600081815260fd60205260408120600181015490919061171590612ab2565b60405161172c919084906002820190602001613ede565b604051602081830303815290604052905060005b600383015481101561194c5760008360030182815481106117635761176361388f565b90600052602060002001549050600060fe6000838152602001908152602001600020905060006117968260010154612ab2565b6040516117ad919084906002820190602001613f83565b604051602081830303815290604052905060005b60048301548110156118b25760008360030160008560040184815481106117ea576117ea61388f565b90600052602060002001548152602001908152602001600020905060006118148260010154612ab2565b60405161182b919084906002820190602001614025565b60408051601f19818403018152919052600486015490915061184f906001906140b5565b831015611879578060405160200161186791906140c8565b60405160208183030381529060405290505b838160405160200161188c9291906140ed565b6040516020818303038152906040529350505080806118aa906138e5565b9150506117c1565b50806040516020016118c4919061411c565b60408051601f1981840301815291905260038701549091506118e8906001906140b5565b841015611912578060405160200161190091906140c8565b60405160208183030381529060405290505b84816040516020016119259291906140ed565b60405160208183030381529060405294505050508080611944906138e5565b915050611740565b508060405160200161195e919061411c565b60405160208183030381529060405290506101025483101561199d578060405160200161198b91906140c8565b60405160208183030381529060405290505b83816040516020016119b09291906140ed565b6040516020818303038152906040529350505080806119ce906138e5565b9150506116ec565b50806040516020016119e8919061411c565b60408051808303601f1901815260208084018352600084529151909350611a139183918591016140ed565b60405160208183030381529060405292505050919050565b611a3361270c565b604051602001611a4e90602080825260009082015260400190565b60408051601f198184030181528282528051602091820120600088815260fe8352929092209192611a80929101614142565b6040516020818303038152906040528051906020012003611ae35760405162461bcd60e51b815260206004820152601f60248201527f5075626c6975733a204368617074657220646f6573206e6f742065786973740060448201526064016107f4565b604051602001611afe90602080825260009082015260400190565b6040516020818303038152906040528051906020012083604051602001611b2591906130eb565b6040516020818303038152906040528051906020012003611b935760405162461bcd60e51b815260206004820152602260248201527f5075626c6975733a2050616765206e616d652063616e6e6f7420626520656d70604482015261747960f01b60648201526084016107f4565b80600003611be35760405162461bcd60e51b815260206004820152601c60248201527f5075626c6975733a20506167652049442063616e6e6f7420626520300000000060448201526064016107f4565b604051602001611bfe90602080825260009082015260400190565b6040516020818303038152906040528051906020012082604051602001611c2591906130eb565b6040516020818303038152906040528051906020012003611c585760405162461bcd60e51b81526004016107f4906141cd565b600084815260fe6020908152604080832084845260030190915290206001015415611cc55760405162461bcd60e51b815260206004820152601c60248201527f5075626c6975733a205061676520616c7265616479206578697374730000000060448201526064016107f4565b600084815260fe60209081526040808320815160608101835287815280840186905280830187905285855260038201909352922081518190611d079082613c31565b506020820151600182015560408201516002820190611d269082613c31565b5050506004018054600181018255600091825260209091200155505050565b61010180546112d390613808565b611d7760405180606001604052806060815260200160008152602001606081525090565b600083815260fe602090815260408083208584526003810190925291829020825160608101909352805491929182908290611db190613808565b80601f0160208091040260200160405190810160405280929190818152602001828054611ddd90613808565b8015611e2a5780601f10611dff57610100808354040283529160200191611e2a565b820191906000526020600020905b815481529060010190602001808311611e0d57829003601f168201915b5050505050815260200160018201548152602001600282018054611e4d90613808565b80601f0160208091040260200160405190810160405280929190818152602001828054611e7990613808565b8015611ec65780601f10611e9b57610100808354040283529160200191611ec6565b820191906000526020600020905b815481529060010190602001808311611ea957829003601f168201915b50505050508152505091505092915050565b600081815260fe60209081526040918290206004810180548451818502810185019095528085526060949293830182828015611f3357602002820191906000526020600020905b815481526020019060010190808311611f1f575b5050505050915050919050565b60fc6020528160005260406000208181548110611f5c57600080fd5b90600052602060002001600091509150505481565b611f7961270c565b600087815260fd60205260408120600101549003611fd95760405162461bcd60e51b815260206004820152601f60248201527f5075626c6975733a2053656374696f6e20646f6573206e6f742065786973740060448201526064016107f4565b600084815260fe60205260409020600101541580611ffe5750611ffc8488612bbf565b155b61204a5760405162461bcd60e51b815260206004820152601f60248201527f5075626c6975733a204368617074657220616c7265616479206578697374730060448201526064016107f4565b8360000361209a5760405162461bcd60e51b815260206004820152601f60248201527f5075626c6975733a20436861707465722049442063616e6e6f7420626520300060448201526064016107f4565b6040516020016120b590602080825260009082015260400190565b60405160208183030381529060405280519060200120866040516020016120dc91906130eb565b604051602081830303815290604052805190602001200361214d5760405162461bcd60e51b815260206004820152602560248201527f5075626c6975733a2043686170746572206e616d652063616e6e6f7420626520604482015264656d70747960d81b60648201526084016107f4565b825160000361216e5760405162461bcd60e51b81526004016107f490613b67565b805160000361218f5760405162461bcd60e51b81526004016107f490613baa565b81516000036121b05760405162461bcd60e51b81526004016107f4906141cd565b81518351146122275760405162461bcd60e51b815260206004820152603760248201527f5075626c6975733a2050616765206e616d657320616e6420636f6e74656e742060448201527f6d757374206265207468652073616d65206c656e67746800000000000000000060648201526084016107f4565b80518351146122945760405162461bcd60e51b815260206004820152603360248201527f5075626c6975733a2050616765206e616d657320616e6420494473206d757374604482015272040c4ca40e8d0ca40e6c2daca40d8cadccee8d606b1b60648201526084016107f4565b600084815260fe60205260409020806122ad8882613c31565b5060018101859055600281016122c38782613c31565b50600088815260fd6020908152604082206003018054600181018255908352908220018690555b84518110156123605761234e826001015486838151811061230d5761230d61388f565b60200260200101518684815181106123275761232761388f565b60200260200101518685815181106123415761234161388f565b6020026020010151611a2b565b80612358816138e5565b9150506122ea565b505050505050505050565b61237361270c565b6001600160a01b0381166123d85760405162461bcd60e51b815260206004820152602660248201527f4f776e61626c653a206e6577206f776e657220697320746865207a65726f206160448201526564647265737360d01b60648201526084016107f4565b6123e181612766565b50565b60fe6020526000908152604090208054819061097c90613808565b60006001600160e01b031982166380ac58cd60e01b148061243057506001600160e01b03198216635b5e139f60e01b145b806106c157506301ffc9a760e01b6001600160e01b03198316146106c1565b6000818152606760205260409020546001600160a01b03166123e15760405162461bcd60e51b8152602060048201526018602482015277115490cdcc8c4e881a5b9d985b1a59081d1bdad95b88125160421b60448201526064016107f4565b600081815260696020526040902080546001600160a01b0319166001600160a01b03841690811790915581906124e382610d2c565b6001600160a01b03167f8c5be1e5ebec7d5bd14f71427d1e84f3dd0314c0f7b2291e5b200ac8c7c3b92560405160405180910390a45050565b60008061252883610d2c565b9050806001600160a01b0316846001600160a01b0316148061256f57506001600160a01b038082166000908152606a602090815260408083209388168352929052205460ff165b806125935750836001600160a01b031661258884610759565b6001600160a01b0316145b949350505050565b826001600160a01b03166125ae82610d2c565b6001600160a01b0316146125d45760405162461bcd60e51b81526004016107f490614212565b6001600160a01b0382166126365760405162461bcd60e51b8152602060048201526024808201527f4552433732313a207472616e7366657220746f20746865207a65726f206164646044820152637265737360e01b60648201526084016107f4565b6126438383836001612c2c565b826001600160a01b031661265682610d2c565b6001600160a01b03161461267c5760405162461bcd60e51b81526004016107f490614212565b600081815260696020908152604080832080546001600160a01b03199081169091556001600160a01b0387811680865260688552838620805460001901905590871680865283862080546001019055868652606790945282852080549092168417909155905184937fddf252ad1be2c89b69c2b068fc378daa952ba7f163c4a11628f55a4df523b3ef91a4505050565b60c9546001600160a01b031633146112c45760405162461bcd60e51b815260206004820181905260248201527f4f776e61626c653a2063616c6c6572206973206e6f7420746865206f776e657260448201526064016107f4565b60c980546001600160a01b038381166001600160a01b0319831681179093556040519116919082907f8be0079c531659141344cd1fd0a4f28419497f9722a3daafe3b4186f6b6457e090600090a35050565b600054610100900460ff166127df5760405162461bcd60e51b81526004016107f490614257565b6115e98282612d60565b600054610100900460ff166128105760405162461bcd60e51b81526004016107f490614257565b6112c4612da0565b6001600160a01b03821661286e5760405162461bcd60e51b815260206004820181905260248201527f4552433732313a206d696e7420746f20746865207a65726f206164647265737360448201526064016107f4565b6000818152606760205260409020546001600160a01b0316156128d35760405162461bcd60e51b815260206004820152601c60248201527f4552433732313a20746f6b656e20616c7265616479206d696e7465640000000060448201526064016107f4565b6128e1600083836001612c2c565b6000818152606760205260409020546001600160a01b0316156129465760405162461bcd60e51b815260206004820152601c60248201527f4552433732313a20746f6b656e20616c7265616479206d696e7465640000000060448201526064016107f4565b6001600160a01b038216600081815260686020908152604080832080546001019055848352606790915280822080546001600160a01b0319168417905551839291907fddf252ad1be2c89b69c2b068fc378daa952ba7f163c4a11628f55a4df523b3ef908290a45050565b816001600160a01b0316836001600160a01b031603612a125760405162461bcd60e51b815260206004820152601960248201527f4552433732313a20617070726f766520746f2063616c6c65720000000000000060448201526064016107f4565b6001600160a01b038381166000818152606a6020908152604080832094871680845294825291829020805460ff191686151590811790915591519182527f17307eab39ab6107e8899845ad3d59bd9653f200f220920489ca2b5937696c31910160405180910390a3505050565b612a8a84848461259b565b612a9684848484612dd0565b61162a5760405162461bcd60e51b81526004016107f4906142a2565b606081600003612ad95750506040805180820190915260018152600360fc1b602082015290565b8160005b8115612b035780612aed816138e5565b9150612afc9050600a8361430a565b9150612add565b6000816001600160401b03811115612b1d57612b1d613386565b6040519080825280601f01601f191660200182016040528015612b47576020820181803683370190505b509050815b8515610d2357612b5d6001826140b5565b90506000612b6c600a8861431e565b612b77906030614332565b905060008160f81b905080848481518110612b9457612b9461388f565b60200101906001600160f81b031916908160001a905350612bb6600a8961430a565b97505050612b4c565b600082815260fd602052604081206003810154825b81811015612c205784836003018281548110612bf257612bf261388f565b906000526020600020015403612c0e57600193505050506106c1565b80612c18816138e5565b915050612bd4565b50600095945050505050565b6001811115612c9b5760405162461bcd60e51b815260206004820152603560248201527f455243373231456e756d657261626c653a20636f6e7365637574697665207472604482015274185b9cd9995c9cc81b9bdd081cdd5c1c1bdc9d1959605a1b60648201526084016107f4565b816001600160a01b038516612cf757612cf281609980546000838152609a60205260408120829055600182018355919091527f72a152ddfb8e864297c917af52ea6c1c68aead0fee1a62673fcc7e0c94979d000155565b612d1a565b836001600160a01b0316856001600160a01b031614612d1a57612d1a8582612ed1565b6001600160a01b038416612d3657612d3181612f6e565b612d59565b846001600160a01b0316846001600160a01b031614612d5957612d59848261301d565b5050505050565b600054610100900460ff16612d875760405162461bcd60e51b81526004016107f490614257565b6065612d938382613c31565b5060666108958282613c31565b600054610100900460ff16612dc75760405162461bcd60e51b81526004016107f490614257565b6112c433612766565b60006001600160a01b0384163b15612ec657604051630a85bd0160e11b81526001600160a01b0385169063150b7a0290612e1490339089908890889060040161434b565b6020604051808303816000875af1925050508015612e4f575060408051601f3d908101601f19168201909252612e4c9181019061437e565b60015b612eac573d808015612e7d576040519150601f19603f3d011682016040523d82523d6000602084013e612e82565b606091505b508051600003612ea45760405162461bcd60e51b81526004016107f4906142a2565b805181602001fd5b6001600160e01b031916630a85bd0160e11b149050612593565b506001949350505050565b60006001612ede8461122c565b612ee891906140b5565b600083815260986020526040902054909150808214612f3b576001600160a01b03841660009081526097602090815260408083208584528252808320548484528184208190558352609890915290208190555b5060009182526098602090815260408084208490556001600160a01b039094168352609781528383209183525290812055565b609954600090612f80906001906140b5565b6000838152609a602052604081205460998054939450909284908110612fa857612fa861388f565b906000526020600020015490508060998381548110612fc957612fc961388f565b6000918252602080832090910192909255828152609a909152604080822084905585825281205560998054806130015761300161439b565b6001900381819060005260206000200160009055905550505050565b60006130288361122c565b6001600160a01b039093166000908152609760209081526040808320868452825280832085905593825260989052919091209190915550565b6001600160e01b0319811681146123e157600080fd5b60006020828403121561308957600080fd5b813561309481613061565b9392505050565b60005b838110156130b657818101518382015260200161309e565b50506000910152565b600081518084526130d781602086016020860161309b565b601f01601f19169290920160200192915050565b60208152600061309460208301846130bf565b60006020828403121561311057600080fd5b5035919050565b80356001600160a01b038116811461312e57600080fd5b919050565b6000806040838503121561314657600080fd5b61314f83613117565b946020939093013593505050565b60008060006060848603121561317257600080fd5b61317b84613117565b925061318960208501613117565b9150604084013590509250925092565b6060815260006131ac60608301866130bf565b84602084015282810360408401526131c481856130bf565b9695505050505050565b6000602082840312156131e057600080fd5b61309482613117565b60008083601f8401126131fb57600080fd5b5081356001600160401b0381111561321257600080fd5b60208301915083602082850101111561322a57600080fd5b9250929050565b6000806000806000806060878903121561324a57600080fd5b86356001600160401b038082111561326157600080fd5b61326d8a838b016131e9565b9098509650602089013591508082111561328657600080fd5b6132928a838b016131e9565b909650945060408901359150808211156132ab57600080fd5b506132b889828a016131e9565b979a9699509497509295939492505050565b6000806000806000606086880312156132e257600080fd5b6132eb86613117565b945060208601356001600160401b038082111561330757600080fd5b61331389838a016131e9565b9096509450604088013591508082111561332c57600080fd5b50613339888289016131e9565b969995985093965092949392505050565b6000806040838503121561335d57600080fd5b61336683613117565b91506020830135801515811461337b57600080fd5b809150509250929050565b634e487b7160e01b600052604160045260246000fd5b604051601f8201601f191681016001600160401b03811182821017156133c4576133c4613386565b604052919050565b60006001600160401b038311156133e5576133e5613386565b6133f8601f8401601f191660200161339c565b905082815283838301111561340c57600080fd5b828260208301376000602084830101529392505050565b6000806000806080858703121561343957600080fd5b61344285613117565b935061345060208601613117565b92506040850135915060608501356001600160401b0381111561347257600080fd5b8501601f8101871361348357600080fd5b613492878235602084016133cc565b91505092959194509250565b600082601f8301126134af57600080fd5b613094838335602085016133cc565b600080600080608085870312156134d457600080fd5b8435935060208501356001600160401b03808211156134f257600080fd5b6134fe8883890161349e565b9450604087013591508082111561351457600080fd5b506135218782880161349e565b949793965093946060013593505050565b6000806040838503121561354557600080fd5b50508035926020909101359150565b60208152600082516060602084015261357060808401826130bf565b9050602084015160408401526040840151601f1984830301606085015261359782826130bf565b95945050505050565b6020808252825182820181905260009190848201906040850190845b818110156135d8578351835292840192918401916001016135bc565b50909695505050505050565b60006001600160401b038211156135fd576135fd613386565b5060051b60200190565b600082601f83011261361857600080fd5b8135602061362d613628836135e4565b61339c565b82815260059290921b8401810191818101908684111561364c57600080fd5b8286015b8481101561368b5780356001600160401b0381111561366f5760008081fd5b61367d8986838b010161349e565b845250918301918301613650565b509695505050505050565b600082601f8301126136a757600080fd5b813560206136b7613628836135e4565b82815260059290921b840181019181810190868411156136d657600080fd5b8286015b8481101561368b57803583529183019183016136da565b600080600080600080600060e0888a03121561370c57600080fd5b8735965060208801356001600160401b038082111561372a57600080fd5b6137368b838c0161349e565b975060408a013591508082111561374c57600080fd5b6137588b838c0161349e565b965060608a0135955060808a013591508082111561377557600080fd5b6137818b838c01613607565b945060a08a013591508082111561379757600080fd5b6137a38b838c01613607565b935060c08a01359150808211156137b957600080fd5b506137c68a828b01613696565b91505092959891949750929550565b600080604083850312156137e857600080fd5b6137f183613117565b91506137ff60208401613117565b90509250929050565b600181811c9082168061381c57607f821691505b60208210810361383c57634e487b7160e01b600052602260045260246000fd5b50919050565b6020808252602d908201527f4552433732313a2063616c6c6572206973206e6f7420746f6b656e206f776e6560408201526c1c881bdc88185c1c1c9bdd9959609a1b606082015260800190565b634e487b7160e01b600052603260045260246000fd5b634e487b7160e01b600052601160045260246000fd5b808201808211156106c1576106c16138a5565b80820281158282048414176106c1576106c16138a5565b6000600182016138f7576138f76138a5565b5060010190565b60008060006060848603121561391357600080fd5b83356001600160401b038082111561392a57600080fd5b6139368783880161349e565b9450602086013591508082111561394c57600080fd5b506139598682870161349e565b925050604084013590509250925092565b60008060006060848603121561397f57600080fd5b83356001600160401b038082111561399657600080fd5b6139a287838801613607565b945060208601359150808211156139b857600080fd5b6139c487838801613607565b935060408601359150808211156139da57600080fd5b506139e786828701613696565b9150509250925092565b600082601f830112613a0257600080fd5b81356020613a12613628836135e4565b82815260059290921b84018101918181019086841115613a3157600080fd5b8286015b8481101561368b5780356001600160401b03811115613a545760008081fd5b613a628986838b0101613607565b845250918301918301613a35565b600080600060608486031215613a8557600080fd5b83356001600160401b0380821115613a9c57600080fd5b613aa8878388016139f1565b9450602091508186013581811115613abf57600080fd5b613acb888289016139f1565b945050604086013581811115613ae057600080fd5b8601601f81018813613af157600080fd5b8035613aff613628826135e4565b81815260059190911b8201840190848101908a831115613b1e57600080fd5b8584015b83811015613b5657803586811115613b3a5760008081fd5b613b488d8983890101613696565b845250918601918601613b22565b508096505050505050509250925092565b60208082526023908201527f5075626c6975733a2050616765206e616d65732063616e6e6f7420626520656d60408201526270747960e81b606082015260800190565b60208082526021908201527f5075626c6975733a2050616765204944732063616e6e6f7420626520656d70746040820152607960f81b606082015260800190565b601f82111561089557600081815260208120601f850160051c81016020861015613c125750805b601f850160051c820191505b8181101561150257828155600101613c1e565b81516001600160401b03811115613c4a57613c4a613386565b613c5e81613c588454613808565b84613beb565b602080601f831160018114613c935760008415613c7b5750858301515b600019600386901b1c1916600185901b178555611502565b600085815260208120601f198616915b82811015613cc257888601518255948401946001909101908401613ca3565b5085821015613ce05787850151600019600388901b60f8161c191681555b5050505050600190811b01905550565b6001600160401b03831115613d0757613d07613386565b613d1b83613d158354613808565b83613beb565b6000601f841160018114613d4f5760008515613d375750838201355b600019600387901b1c1916600186901b178355612d59565b600083815260209020601f19861690835b82811015613d805786850135825560209485019460019092019101613d60565b5086821015613d9d5760001960f88860031b161c19848701351681555b505060018560011b0183555050505050565b60008154613dbc81613808565b60018281168015613dd45760018114613de957613e18565b60ff1984168752821515830287019450613e18565b8560005260208060002060005b85811015613e0f5781548a820152908401908201613df6565b50505082870194505b5050505092915050565b60008551613e34818460208a0161309b565b7311383ab13634b1b0ba34b7b72730b6b2911d101160611b908301908152613e5f6014820187613daf565b711116101130baba3437b92730b6b2911d101160711b81528551909150613e8d81601284016020890161309b565b711116101131b7bb32b924b6b0b3b2911d101160711b60129290910191820152613eba6024820185613daf565b6f222c202273656374696f6e73223a205b60801b8152601001979650505050505050565b6f3d901139b2b1ba34b7b724b2111d101160811b81528351600090613f0a81601085016020890161309b565b721116101139b2b1ba34b7b72730b6b2911d101160691b601091840191820152613f376023820186613daf565b731116101139b2b1ba34b7b724b6b0b3b2911d101160611b81529050613f606014820185613daf565b6f222c20226368617074657273223a205b60801b81526010019695505050505050565b6f3d901131b430b83a32b924b2111d101160811b81528351600090613faf81601085016020890161309b565b721116101131b430b83a32b92730b6b2911d101160691b601091840191820152613fdc6023820186613daf565b731116101131b430b83a32b924b6b0b3b2911d101160611b815290506140056014820185613daf565b6c222c20227061676573223a205b60981b8152600d019695505050505050565b6c3d90113830b3b2a4b2111d101160991b8152835160009061404e81600d85016020890161309b565b6f111610113830b3b2a730b6b2911d101160811b600d91840191820152614078601d820186613daf565b72111610113830b3b2a1b7b73a32b73a111d101160691b815290506140a06013820185613daf565b61227d60f01b81526002019695505050505050565b818103818111156106c1576106c16138a5565b600082516140da81846020870161309b565b600b60fa1b920191825250600101919050565b600083516140ff81846020880161309b565b83519083019061411381836020880161309b565b01949350505050565b6000825161412e81846020870161309b565b615d7d60f01b920191825250600201919050565b600060208083526000845461415681613808565b808487015260406001808416600081146141775760018114614191576141bf565b60ff1985168984015283151560051b8901830195506141bf565b896000528660002060005b858110156141b75781548b820186015290830190880161419c565b8a0184019650505b509398975050505050505050565b60208082526025908201527f5075626c6975733a205061676520636f6e74656e742063616e6e6f7420626520604082015264656d70747960d81b606082015260800190565b60208082526025908201527f4552433732313a207472616e736665722066726f6d20696e636f72726563742060408201526437bbb732b960d91b606082015260800190565b6020808252602b908201527f496e697469616c697a61626c653a20636f6e7472616374206973206e6f74206960408201526a6e697469616c697a696e6760a81b606082015260800190565b60208082526032908201527f4552433732313a207472616e7366657220746f206e6f6e20455243373231526560408201527131b2b4bb32b91034b6b83632b6b2b73a32b960711b606082015260800190565b634e487b7160e01b600052601260045260246000fd5b600082614319576143196142f4565b500490565b60008261432d5761432d6142f4565b500690565b60ff81811683821601908111156106c1576106c16138a5565b6001600160a01b03858116825284166020820152604081018390526080606082018190526000906131c4908301846130bf565b60006020828403121561439057600080fd5b815161309481613061565b634e487b7160e01b600052603160045260246000fdfea2646970667358221220199d021c3f3ae34049429a9ffedf44832d102a9423a0043d4313324df6ead73f64736f6c63430008120033",
  "linkReferences": {},
  "deployedLinkReferences": {}
}