{
  "_format": "hh-sol-artifact-1",
  "contractName": "Publius",
  "sourceName": "contracts/Publius.sol",
  "abi": [
    {
      "anonymous": false,
      "inputs": [
        {
          "indexed": true,
          "internalType": "address",
          "name": "owner",
          "type": "address"
        },
        {
          "indexed": true,
          "internalType": "address",
          "name": "approved",
          "type": "address"
        },
        {
          "indexed": true,
          "internalType": "uint256",
          "name": "tokenId",
          "type": "uint256"
        }
      ],
      "name": "Approval",
      "type": "event"
    },
    {
      "anonymous": false,
      "inputs": [
        {
          "indexed": true,
          "internalType": "address",
          "name": "owner",
          "type": "address"
        },
        {
          "indexed": true,
          "internalType": "address",
          "name": "operator",
          "type": "address"
        },
        {
          "indexed": false,
          "internalType": "bool",
          "name": "approved",
          "type": "bool"
        }
      ],
      "name": "ApprovalForAll",
      "type": "event"
    },
    {
      "anonymous": false,
      "inputs": [
        {
          "indexed": false,
          "internalType": "uint8",
          "name": "version",
          "type": "uint8"
        }
      ],
      "name": "Initialized",
      "type": "event"
    },
    {
      "anonymous": false,
      "inputs": [
        {
          "indexed": true,
          "internalType": "address",
          "name": "previousOwner",
          "type": "address"
        },
        {
          "indexed": true,
          "internalType": "address",
          "name": "newOwner",
          "type": "address"
        }
      ],
      "name": "OwnershipTransferred",
      "type": "event"
    },
    {
      "anonymous": false,
      "inputs": [
        {
          "indexed": true,
          "internalType": "address",
          "name": "from",
          "type": "address"
        },
        {
          "indexed": true,
          "internalType": "address",
          "name": "to",
          "type": "address"
        },
        {
          "indexed": true,
          "internalType": "uint256",
          "name": "tokenId",
          "type": "uint256"
        }
      ],
      "name": "Transfer",
      "type": "event"
    },
    {
      "inputs": [
        {
          "internalType": "uint256",
          "name": "_sectionId",
          "type": "uint256"
        },
        {
          "internalType": "string",
          "name": "_chapterName",
          "type": "string"
        },
        {
          "internalType": "string",
          "name": "_chapterImage",
          "type": "string"
        },
        {
          "internalType": "uint256",
          "name": "_chapterId",
          "type": "uint256"
        },
        {
          "internalType": "string[]",
          "name": "_pageNames",
          "type": "string[]"
        },
        {
          "internalType": "string[]",
          "name": "_pageContent",
          "type": "string[]"
        },
        {
          "internalType": "string[]",
          "name": "_pageIds",
          "type": "string[]"
        }
      ],
      "name": "addChapter",
      "outputs": [],
      "stateMutability": "nonpayable",
      "type": "function"
    },
    {
      "inputs": [
        {
          "internalType": "uint256",
          "name": "_chapter",
          "type": "uint256"
        },
        {
          "internalType": "string",
          "name": "_pageName",
          "type": "string"
        },
        {
          "internalType": "string",
          "name": "_pageContent",
          "type": "string"
        },
        {
          "internalType": "string",
          "name": "_pageId",
          "type": "string"
        }
      ],
      "name": "addPage",
      "outputs": [],
      "stateMutability": "nonpayable",
      "type": "function"
    },
    {
      "inputs": [
        {
          "internalType": "bytes",
          "name": "_sectionInfo",
          "type": "bytes"
        },
        {
          "internalType": "bytes",
          "name": "_chapterInfo",
          "type": "bytes"
        },
        {
          "internalType": "bytes",
          "name": "_pageInfo",
          "type": "bytes"
        }
      ],
      "name": "addSection",
      "outputs": [],
      "stateMutability": "nonpayable",
      "type": "function"
    },
    {
      "inputs": [
        {
          "internalType": "address",
          "name": "_address",
          "type": "address"
        }
      ],
      "name": "addressToString",
      "outputs": [
        {
          "internalType": "string",
          "name": "",
          "type": "string"
        }
      ],
      "stateMutability": "pure",
      "type": "function"
    },
    {
      "inputs": [
        {
          "internalType": "address",
          "name": "to",
          "type": "address"
        },
        {
          "internalType": "uint256",
          "name": "tokenId",
          "type": "uint256"
        }
      ],
      "name": "approve",
      "outputs": [],
      "stateMutability": "nonpayable",
      "type": "function"
    },
    {
      "inputs": [
        {
          "internalType": "address",
          "name": "owner",
          "type": "address"
        }
      ],
      "name": "balanceOf",
      "outputs": [
        {
          "internalType": "uint256",
          "name": "",
          "type": "uint256"
        }
      ],
      "stateMutability": "view",
      "type": "function"
    },
    {
      "inputs": [
        {
          "internalType": "uint256",
          "name": "",
          "type": "uint256"
        }
      ],
      "name": "chapters",
      "outputs": [
        {
          "internalType": "string",
          "name": "chapterName",
          "type": "string"
        },
        {
          "internalType": "uint256",
          "name": "chapterId",
          "type": "uint256"
        },
        {
          "internalType": "string",
          "name": "chapterImage",
          "type": "string"
        },
        {
          "internalType": "uint256",
          "name": "pageCount",
          "type": "uint256"
        }
      ],
      "stateMutability": "view",
      "type": "function"
    },
    {
      "inputs": [
        {
          "internalType": "uint256",
          "name": "tokenId",
          "type": "uint256"
        }
      ],
      "name": "getApproved",
      "outputs": [
        {
          "internalType": "address",
          "name": "",
          "type": "address"
        }
      ],
      "stateMutability": "view",
      "type": "function"
    },
    {
      "inputs": [
        {
          "internalType": "uint256",
          "name": "_chapter",
          "type": "uint256"
        },
        {
          "internalType": "uint256",
          "name": "_pageId",
          "type": "uint256"
        }
      ],
      "name": "getPage",
      "outputs": [
        {
          "components": [
            {
              "internalType": "string",
              "name": "pageName",
              "type": "string"
            },
            {
              "internalType": "string",
              "name": "pageId",
              "type": "string"
            },
            {
              "internalType": "string",
              "name": "pageContent",
              "type": "string"
            }
          ],
          "internalType": "struct Publius.Page",
          "name": "",
          "type": "tuple"
        }
      ],
      "stateMutability": "view",
      "type": "function"
    },
    {
      "inputs": [
        {
          "internalType": "address",
          "name": "_publicationAuthor",
          "type": "address"
        },
        {
          "internalType": "string",
          "name": "_publicationName",
          "type": "string"
        },
        {
          "internalType": "string",
          "name": "_publicationCoverImage",
          "type": "string"
        }
      ],
      "name": "initialize",
      "outputs": [],
      "stateMutability": "nonpayable",
      "type": "function"
    },
    {
      "inputs": [
        {
          "internalType": "address",
          "name": "owner",
          "type": "address"
        },
        {
          "internalType": "address",
          "name": "operator",
          "type": "address"
        }
      ],
      "name": "isApprovedForAll",
      "outputs": [
        {
          "internalType": "bool",
          "name": "",
          "type": "bool"
        }
      ],
      "stateMutability": "view",
      "type": "function"
    },
    {
      "inputs": [
        {
          "internalType": "uint256",
          "name": "_amount",
          "type": "uint256"
        }
      ],
      "name": "mint",
      "outputs": [],
      "stateMutability": "payable",
      "type": "function"
    },
    {
      "inputs": [
        {
          "internalType": "address",
          "name": "",
          "type": "address"
        },
        {
          "internalType": "uint256",
          "name": "",
          "type": "uint256"
        }
      ],
      "name": "minterOwnedTokens",
      "outputs": [
        {
          "internalType": "uint256",
          "name": "",
          "type": "uint256"
        }
      ],
      "stateMutability": "view",
      "type": "function"
    },
    {
      "inputs": [],
      "name": "name",
      "outputs": [
        {
          "internalType": "string",
          "name": "",
          "type": "string"
        }
      ],
      "stateMutability": "view",
      "type": "function"
    },
    {
      "inputs": [],
      "name": "owner",
      "outputs": [
        {
          "internalType": "address",
          "name": "",
          "type": "address"
        }
      ],
      "stateMutability": "view",
      "type": "function"
    },
    {
      "inputs": [
        {
          "internalType": "uint256",
          "name": "tokenId",
          "type": "uint256"
        }
      ],
      "name": "ownerOf",
      "outputs": [
        {
          "internalType": "address",
          "name": "",
          "type": "address"
        }
      ],
      "stateMutability": "view",
      "type": "function"
    },
    {
      "inputs": [],
      "name": "publicationAuthor",
      "outputs": [
        {
          "internalType": "address",
          "name": "",
          "type": "address"
        }
      ],
      "stateMutability": "view",
      "type": "function"
    },
    {
      "inputs": [],
      "name": "publicationCoverImage",
      "outputs": [
        {
          "internalType": "string",
          "name": "",
          "type": "string"
        }
      ],
      "stateMutability": "view",
      "type": "function"
    },
    {
      "inputs": [],
      "name": "publicationName",
      "outputs": [
        {
          "internalType": "string",
          "name": "",
          "type": "string"
        }
      ],
      "stateMutability": "view",
      "type": "function"
    },
    {
      "inputs": [],
      "name": "renounceOwnership",
      "outputs": [],
      "stateMutability": "nonpayable",
      "type": "function"
    },
    {
      "inputs": [
        {
          "internalType": "address",
          "name": "from",
          "type": "address"
        },
        {
          "internalType": "address",
          "name": "to",
          "type": "address"
        },
        {
          "internalType": "uint256",
          "name": "tokenId",
          "type": "uint256"
        }
      ],
      "name": "safeTransferFrom",
      "outputs": [],
      "stateMutability": "nonpayable",
      "type": "function"
    },
    {
      "inputs": [
        {
          "internalType": "address",
          "name": "from",
          "type": "address"
        },
        {
          "internalType": "address",
          "name": "to",
          "type": "address"
        },
        {
          "internalType": "uint256",
          "name": "tokenId",
          "type": "uint256"
        },
        {
          "internalType": "bytes",
          "name": "data",
          "type": "bytes"
        }
      ],
      "name": "safeTransferFrom",
      "outputs": [],
      "stateMutability": "nonpayable",
      "type": "function"
    },
    {
      "inputs": [
        {
          "internalType": "uint256",
          "name": "",
          "type": "uint256"
        }
      ],
      "name": "sections",
      "outputs": [
        {
          "internalType": "string",
          "name": "sectionName",
          "type": "string"
        },
        {
          "internalType": "uint256",
          "name": "sectionId",
          "type": "uint256"
        },
        {
          "internalType": "string",
          "name": "sectionImage",
          "type": "string"
        }
      ],
      "stateMutability": "view",
      "type": "function"
    },
    {
      "inputs": [
        {
          "internalType": "address",
          "name": "operator",
          "type": "address"
        },
        {
          "internalType": "bool",
          "name": "approved",
          "type": "bool"
        }
      ],
      "name": "setApprovalForAll",
      "outputs": [],
      "stateMutability": "nonpayable",
      "type": "function"
    },
    {
      "inputs": [
        {
          "internalType": "bytes4",
          "name": "interfaceId",
          "type": "bytes4"
        }
      ],
      "name": "supportsInterface",
      "outputs": [
        {
          "internalType": "bool",
          "name": "",
          "type": "bool"
        }
      ],
      "stateMutability": "view",
      "type": "function"
    },
    {
      "inputs": [],
      "name": "symbol",
      "outputs": [
        {
          "internalType": "string",
          "name": "",
          "type": "string"
        }
      ],
      "stateMutability": "view",
      "type": "function"
    },
    {
      "inputs": [
        {
          "internalType": "uint256",
          "name": "index",
          "type": "uint256"
        }
      ],
      "name": "tokenByIndex",
      "outputs": [
        {
          "internalType": "uint256",
          "name": "",
          "type": "uint256"
        }
      ],
      "stateMutability": "view",
      "type": "function"
    },
    {
      "inputs": [
        {
          "internalType": "uint256",
          "name": "",
          "type": "uint256"
        }
      ],
      "name": "tokenIdToMinter",
      "outputs": [
        {
          "internalType": "address",
          "name": "",
          "type": "address"
        }
      ],
      "stateMutability": "view",
      "type": "function"
    },
    {
      "inputs": [
        {
          "internalType": "address",
          "name": "owner",
          "type": "address"
        },
        {
          "internalType": "uint256",
          "name": "index",
          "type": "uint256"
        }
      ],
      "name": "tokenOfOwnerByIndex",
      "outputs": [
        {
          "internalType": "uint256",
          "name": "",
          "type": "uint256"
        }
      ],
      "stateMutability": "view",
      "type": "function"
    },
    {
      "inputs": [
        {
          "internalType": "uint256",
          "name": "_tokenId",
          "type": "uint256"
        }
      ],
      "name": "tokenURI",
      "outputs": [
        {
          "internalType": "string",
          "name": "uri",
          "type": "string"
        }
      ],
      "stateMutability": "view",
      "type": "function"
    },
    {
      "inputs": [],
      "name": "totalSupply",
      "outputs": [
        {
          "internalType": "uint256",
          "name": "",
          "type": "uint256"
        }
      ],
      "stateMutability": "view",
      "type": "function"
    },
    {
      "inputs": [
        {
          "internalType": "address",
          "name": "from",
          "type": "address"
        },
        {
          "internalType": "address",
          "name": "to",
          "type": "address"
        },
        {
          "internalType": "uint256",
          "name": "tokenId",
          "type": "uint256"
        }
      ],
      "name": "transferFrom",
      "outputs": [],
      "stateMutability": "nonpayable",
      "type": "function"
    },
    {
      "inputs": [
        {
          "internalType": "address",
          "name": "newOwner",
          "type": "address"
        }
      ],
      "name": "transferOwnership",
      "outputs": [],
      "stateMutability": "nonpayable",
      "type": "function"
    }
  ],
  "bytecode": "0x608060405234801561001057600080fd5b50613cb1806100206000396000f3fe6080604052600436106101ee5760003560e01c80636b00aba61161010d578063a22cb465116100a0578063cd1a2e911161006f578063cd1a2e911461058e578063db010ae4146105bb578063e985e9c5146105db578063f2fde38b14610624578063f40adb121461064457600080fd5b8063a22cb46514610519578063b88d4fde14610539578063c87b56dd14610559578063ccfea8f01461057957600080fd5b80638da5cb5b116100dc5780638da5cb5b146104b357806390657147146104d157806395d89b41146104f1578063a0712d681461050657600080fd5b80636b00aba61461044957806370a0823114610469578063715018a61461048957806386b4e2a01461049e57600080fd5b80632f745c59116101855780634f6ccce7116101545780634f6ccce7146103c8578063527c4165146103e85780635e57966d146104095780636352211e1461042957600080fd5b80632f745c591461033957806335603440146103595780634146e3471461038857806342842e0e146103a857600080fd5b806318160ddd116101c157806318160ddd146102a45780632218f119146102c357806323b872dd146102f95780632c830cee1461031957600080fd5b806301ffc9a7146101f357806306fdde0314610228578063081812fc1461024a578063095ea7b314610282575b600080fd5b3480156101ff57600080fd5b5061021361020e366004612a6e565b610674565b60405190151581526020015b60405180910390f35b34801561023457600080fd5b5061023d61069f565b60405161021f9190612ae2565b34801561025657600080fd5b5061026a610265366004612af5565b610731565b6040516001600160a01b03909116815260200161021f565b34801561028e57600080fd5b506102a261029d366004612b2a565b610758565b005b3480156102b057600080fd5b506099545b60405190815260200161021f565b3480156102cf57600080fd5b5061026a6102de366004612af5565b60fb602052600090815260409020546001600160a01b031681565b34801561030557600080fd5b506102a2610314366004612b54565b610872565b34801561032557600080fd5b506102a2610334366004612cff565b6108a3565b34801561034557600080fd5b506102b5610354366004612b2a565b610a22565b34801561036557600080fd5b50610379610374366004612af5565b610ab8565b60405161021f93929190612de3565b34801561039457600080fd5b506102a26103a3366004612e18565b610bea565b3480156103b457600080fd5b506102a26103c3366004612b54565b610d43565b3480156103d457600080fd5b506102b56103e3366004612af5565b610d5e565b3480156103f457600080fd5b506101005461026a906001600160a01b031681565b34801561041557600080fd5b5061023d610424366004612ea9565b610df1565b34801561043557600080fd5b5061026a610444366004612af5565b610fdc565b34801561045557600080fd5b506102a2610464366004612f0c565b61103c565b34801561047557600080fd5b506102b5610484366004612ea9565b6111d8565b34801561049557600080fd5b506102a261125e565b3480156104aa57600080fd5b5061023d611272565b3480156104bf57600080fd5b5060c9546001600160a01b031661026a565b3480156104dd57600080fd5b506102a26104ec366004612fa5565b611300565b3480156104fd57600080fd5b5061023d6114b6565b6102a2610514366004612af5565b6114c5565b34801561052557600080fd5b506102a2610534366004613025565b611599565b34801561054557600080fd5b506102a2610554366004613061565b6115a4565b34801561056557600080fd5b5061023d610574366004612af5565b6115dc565b34801561058557600080fd5b5061023d611999565b34801561059a57600080fd5b506105ae6105a93660046130d0565b6119a7565b60405161021f91906130f2565b3480156105c757600080fd5b506102b56105d6366004612b2a565b611bb4565b3480156105e757600080fd5b506102136105f6366004613153565b6001600160a01b039182166000908152606a6020908152604080832093909416825291909152205460ff1690565b34801561063057600080fd5b506102a261063f366004612ea9565b611be5565b34801561065057600080fd5b5061066461065f366004612af5565b611c5e565b60405161021f9493929190613186565b60006001600160e01b0319821663780e9d6360e01b1480610699575061069982611d96565b92915050565b6060606580546106ae906131c3565b80601f01602080910402602001604051908101604052809291908181526020018280546106da906131c3565b80156107275780601f106106fc57610100808354040283529160200191610727565b820191906000526020600020905b81548152906001019060200180831161070a57829003601f168201915b5050505050905090565b600061073c82611de6565b506000908152606960205260409020546001600160a01b031690565b600061076382610fdc565b9050806001600160a01b0316836001600160a01b0316036107d55760405162461bcd60e51b815260206004820152602160248201527f4552433732313a20617070726f76616c20746f2063757272656e74206f776e656044820152603960f91b60648201526084015b60405180910390fd5b336001600160a01b03821614806107f157506107f181336105f6565b6108635760405162461bcd60e51b815260206004820152603d60248201527f4552433732313a20617070726f76652063616c6c6572206973206e6f7420746f60448201527f6b656e206f776e6572206f7220617070726f76656420666f7220616c6c00000060648201526084016107cc565b61086d8383611e45565b505050565b61087c3382611eb3565b6108985760405162461bcd60e51b81526004016107cc906131fd565b61086d838383611f32565b6108ab6120a3565b600087815260fd602052604081206001015490036109045760405162461bcd60e51b815260206004820152601660248201527514d958dd1a5bdb88191bd95cc81b9bdd08195e1a5cdd60521b60448201526064016107cc565b600084815260fe60205260409020600101541580610929575061092784886120fd565b155b61096e5760405162461bcd60e51b81526020600482015260166024820152754368617074657220616c72656164792065786973747360501b60448201526064016107cc565b600084815260fe60205260409020806109878882613290565b50600181018590556002810161099d8782613290565b5060005b8451811015610a1757610a0582600101548683815181106109c4576109c461334f565b60200260200101518684815181106109de576109de61334f565b60200260200101518685815181106109f8576109f861334f565b6020026020010151610bea565b80610a0f8161337b565b9150506109a1565b505050505050505050565b6000610a2d836111d8565b8210610a8f5760405162461bcd60e51b815260206004820152602b60248201527f455243373231456e756d657261626c653a206f776e657220696e646578206f7560448201526a74206f6620626f756e647360a81b60648201526084016107cc565b506001600160a01b03919091166000908152609760209081526040808320938352929052205490565b60fd60205260009081526040902080548190610ad3906131c3565b80601f0160208091040260200160405190810160405280929190818152602001828054610aff906131c3565b8015610b4c5780601f10610b2157610100808354040283529160200191610b4c565b820191906000526020600020905b815481529060010190602001808311610b2f57829003601f168201915b505050505090806001015490806002018054610b67906131c3565b80601f0160208091040260200160405190810160405280929190818152602001828054610b93906131c3565b8015610be05780601f10610bb557610100808354040283529160200191610be0565b820191906000526020600020905b815481529060010190602001808311610bc357829003601f168201915b5050505050905083565b610bf26120a3565b604051602001610c0d90602080825260009082015260400190565b60408051601f198184030181528282528051602091820120600088815260fe8352929092209192610c3f929101613394565b6040516020818303038152906040528051906020012003610c9b5760405162461bcd60e51b815260206004820152601660248201527510da185c1d195c88191bd95cc81b9bdd08195e1a5cdd60521b60448201526064016107cc565b600084815260fe602090815260408083208151606081018352878152928301859052908201859052600481015490926003840191610cda90600161341f565b8152602081019190915260400160002081518190610cf89082613290565b5060208201516001820190610d0d9082613290565b5060408201516002820190610d229082613290565b505050600481018054906000610d378361337b565b91905055505050505050565b61086d838383604051806020016040528060008152506115a4565b6000610d6960995490565b8210610dcc5760405162461bcd60e51b815260206004820152602c60248201527f455243373231456e756d657261626c653a20676c6f62616c20696e646578206f60448201526b7574206f6620626f756e647360a01b60648201526084016107cc565b60998281548110610ddf57610ddf61334f565b90600052602060002001549050919050565b604080518082018252601081526f181899199a1a9b1b9c1cb0b131b232b360811b60208201528151602a80825260608281019094526001600160a01b0385169291600091602082018180368337019050509050600360fc1b81600081518110610e5c57610e5c61334f565b60200101906001600160f81b031916908160001a905350600f60fb1b81600181518110610e8b57610e8b61334f565b60200101906001600160f81b031916908160001a90535060005b6014811015610fd35782600485610ebd84600c61341f565b60208110610ecd57610ecd61334f565b1a60f81b6001600160f81b031916901c60f81c60ff1681518110610ef357610ef361334f565b01602001516001600160f81b03191682610f0e836002613432565b610f1990600261341f565b81518110610f2957610f2961334f565b60200101906001600160f81b031916908160001a9053508284610f4d83600c61341f565b60208110610f5d57610f5d61334f565b825191901a600f16908110610f7457610f7461334f565b01602001516001600160f81b03191682610f8f836002613432565b610f9a90600361341f565b81518110610faa57610faa61334f565b60200101906001600160f81b031916908160001a90535080610fcb8161337b565b915050610ea5565b50949350505050565b6000818152606760205260408120546001600160a01b0316806106995760405162461bcd60e51b8152602060048201526018602482015277115490cdcc8c4e881a5b9d985b1a59081d1bdad95b88125160421b60448201526064016107cc565b6110446120a3565b60008080611054888a018a613449565b919450925090506000808061106b898b018b6134b5565b91945092509050600080806110828a8c018c613611565b925092509250600060fd600061010254600161109e919061341f565b815260208101919091526040016000209050806110bb8b82613290565b5060018101889055600281016110d18a82613290565b5084516110e790600383019060208801906129f8565b5060005b85518110156111af5761119d826001015489838151811061110e5761110e61334f565b60200260200101518984815181106111285761112861334f565b60200260200101518985815181106111425761114261334f565b602002602001015189868151811061115c5761115c61334f565b60200260200101518987815181106111765761117661334f565b60200260200101518988815181106111905761119061334f565b60200260200101516108a3565b806111a78161337b565b9150506110eb565b5061010280549060006111c18361337b565b919050555050505050505050505050505050505050565b60006001600160a01b0382166112425760405162461bcd60e51b815260206004820152602960248201527f4552433732313a2061646472657373207a65726f206973206e6f7420612076616044820152683634b21037bbb732b960b91b60648201526084016107cc565b506001600160a01b031660009081526068602052604090205490565b6112666120a3565b611270600061216a565b565b60ff805461127f906131c3565b80601f01602080910402602001604051908101604052809291908181526020018280546112ab906131c3565b80156112f85780601f106112cd576101008083540402835291602001916112f8565b820191906000526020600020905b8154815290600101906020018083116112db57829003601f168201915b505050505081565b600054610100900460ff16158080156113205750600054600160ff909116105b8061133a5750303b15801561133a575060005460ff166001145b61139d5760405162461bcd60e51b815260206004820152602e60248201527f496e697469616c697a61626c653a20636f6e747261637420697320616c72656160448201526d191e481a5b9a5d1a585b1a5e995960921b60648201526084016107cc565b6000805460ff1916600117905580156113c0576000805461ff0019166101001790555b61141e85858080601f016020809104026020016040519081016040528093929190818152602001838380828437600092019190915250506040805180820190915260078152665055424c49555360c81b602082015291506121bc9050565b6114266121ed565b61142f86611be5565b60ff61143c858783613698565b5061010080546001600160a01b0319166001600160a01b038816179055610101611467838583613698565b5080156114ae576000805461ff0019169055604051600181527f7f26b83ff96e1f2b6a682f133852f6798a09c465da95921460cefb38474024989060200160405180910390a15b505050505050565b6060606680546106ae906131c3565b6114d681662386f26fc10000613432565b34101561151b5760405162461bcd60e51b8152602060048201526013602482015272139bdd08195b9bdd59da08115512081cd95b9d606a1b60448201526064016107cc565b60005b8181101561159557600061153160995490565b61153c90600161341f565b9050611548338261221c565b600081815260fb6020908152604080832080546001600160a01b03191633908117909155835260fc825282208054600181018255908352912001558061158d8161337b565b91505061151e565b5050565b6115953383836123b5565b6115ae3383611eb3565b6115ca5760405162461bcd60e51b81526004016107cc906131fd565b6115d684848484612483565b50505050565b6000818152606760205260409020546060906001600160a01b031661163a5760405162461bcd60e51b8152602060048201526014602482015273151bdad95b88191bd95cc81b9bdd08195e1a5cdd60621b60448201526064016107cc565b6040805180820190915260018152607b60f81b602082015261010054819060ff9061166d906001600160a01b0316610df1565b61010160405160200161168394939291906137ca565b60408051601f19818403018152919052905060015b61010254811161194457600081815260fd6020526040812060018101549091906116c1906124b6565b6040516116d8919084906002820190602001613886565b604051602081830303815290604052905060005b60038301548110156118ba57600083600301828154811061170f5761170f61334f565b90600052602060002001549050600060fe60008381526020019081526020016000209050600061174282600101546124b6565b60405161175991908490600282019060200161392b565b60408051601f19818403018152919052905060015b82600401548111611820576000818152600384016020908152604080832090519092916117a791600185019185916002830191016139cd565b604051602081830303815290604052905084600401548310156117e757806040516020016117d59190613a4f565b60405160208183030381529060405290505b83816040516020016117fa929190613a74565b6040516020818303038152906040529350505080806118189061337b565b91505061176e565b50806040516020016118329190613aa3565b60408051601f19818403018152919052600387015490915061185690600190613ac9565b841015611880578060405160200161186e9190613a4f565b60405160208183030381529060405290505b8481604051602001611893929190613a74565b604051602081830303815290604052945050505080806118b29061337b565b9150506116ec565b50806040516020016118cc9190613aa3565b60405160208183030381529060405290506101025483101561190b57806040516020016118f99190613a4f565b60405160208183030381529060405290505b838160405160200161191e929190613a74565b60405160208183030381529060405293505050808061193c9061337b565b915050611698565b50806040516020016119569190613aa3565b60408051808303601f1901815260208084018352600084529151909350611981918391859101613a74565b60405160208183030381529060405292505050919050565b610101805461127f906131c3565b6119cb60405180606001604052806060815260200160608152602001606081525090565b600083815260fe602090815260408083208584526003810190925291829020825160608101909352805491929182908290611a05906131c3565b80601f0160208091040260200160405190810160405280929190818152602001828054611a31906131c3565b8015611a7e5780601f10611a5357610100808354040283529160200191611a7e565b820191906000526020600020905b815481529060010190602001808311611a6157829003601f168201915b50505050508152602001600182018054611a97906131c3565b80601f0160208091040260200160405190810160405280929190818152602001828054611ac3906131c3565b8015611b105780601f10611ae557610100808354040283529160200191611b10565b820191906000526020600020905b815481529060010190602001808311611af357829003601f168201915b50505050508152602001600282018054611b29906131c3565b80601f0160208091040260200160405190810160405280929190818152602001828054611b55906131c3565b8015611ba25780601f10611b7757610100808354040283529160200191611ba2565b820191906000526020600020905b815481529060010190602001808311611b8557829003601f168201915b50505050508152505091505092915050565b60fc6020528160005260406000208181548110611bd057600080fd5b90600052602060002001600091509150505481565b611bed6120a3565b6001600160a01b038116611c525760405162461bcd60e51b815260206004820152602660248201527f4f776e61626c653a206e6577206f776e657220697320746865207a65726f206160448201526564647265737360d01b60648201526084016107cc565b611c5b8161216a565b50565b60fe60205260009081526040902080548190611c79906131c3565b80601f0160208091040260200160405190810160405280929190818152602001828054611ca5906131c3565b8015611cf25780601f10611cc757610100808354040283529160200191611cf2565b820191906000526020600020905b815481529060010190602001808311611cd557829003601f168201915b505050505090806001015490806002018054611d0d906131c3565b80601f0160208091040260200160405190810160405280929190818152602001828054611d39906131c3565b8015611d865780601f10611d5b57610100808354040283529160200191611d86565b820191906000526020600020905b815481529060010190602001808311611d6957829003601f168201915b5050505050908060040154905084565b60006001600160e01b031982166380ac58cd60e01b1480611dc757506001600160e01b03198216635b5e139f60e01b145b8061069957506301ffc9a760e01b6001600160e01b0319831614610699565b6000818152606760205260409020546001600160a01b0316611c5b5760405162461bcd60e51b8152602060048201526018602482015277115490cdcc8c4e881a5b9d985b1a59081d1bdad95b88125160421b60448201526064016107cc565b600081815260696020526040902080546001600160a01b0319166001600160a01b0384169081179091558190611e7a82610fdc565b6001600160a01b03167f8c5be1e5ebec7d5bd14f71427d1e84f3dd0314c0f7b2291e5b200ac8c7c3b92560405160405180910390a45050565b600080611ebf83610fdc565b9050806001600160a01b0316846001600160a01b03161480611f0657506001600160a01b038082166000908152606a602090815260408083209388168352929052205460ff165b80611f2a5750836001600160a01b0316611f1f84610731565b6001600160a01b0316145b949350505050565b826001600160a01b0316611f4582610fdc565b6001600160a01b031614611f6b5760405162461bcd60e51b81526004016107cc90613adc565b6001600160a01b038216611fcd5760405162461bcd60e51b8152602060048201526024808201527f4552433732313a207472616e7366657220746f20746865207a65726f206164646044820152637265737360e01b60648201526084016107cc565b611fda83838360016125c3565b826001600160a01b0316611fed82610fdc565b6001600160a01b0316146120135760405162461bcd60e51b81526004016107cc90613adc565b600081815260696020908152604080832080546001600160a01b03199081169091556001600160a01b0387811680865260688552838620805460001901905590871680865283862080546001019055868652606790945282852080549092168417909155905184937fddf252ad1be2c89b69c2b068fc378daa952ba7f163c4a11628f55a4df523b3ef91a4505050565b60c9546001600160a01b031633146112705760405162461bcd60e51b815260206004820181905260248201527f4f776e61626c653a2063616c6c6572206973206e6f7420746865206f776e657260448201526064016107cc565b600082815260fd602052604081206003810154825b8181101561215e57848360030182815481106121305761213061334f565b90600052602060002001540361214c5760019350505050610699565b806121568161337b565b915050612112565b50600095945050505050565b60c980546001600160a01b038381166001600160a01b0319831681179093556040519116919082907f8be0079c531659141344cd1fd0a4f28419497f9722a3daafe3b4186f6b6457e090600090a35050565b600054610100900460ff166121e35760405162461bcd60e51b81526004016107cc90613b21565b61159582826126f7565b600054610100900460ff166122145760405162461bcd60e51b81526004016107cc90613b21565b611270612737565b6001600160a01b0382166122725760405162461bcd60e51b815260206004820181905260248201527f4552433732313a206d696e7420746f20746865207a65726f206164647265737360448201526064016107cc565b6000818152606760205260409020546001600160a01b0316156122d75760405162461bcd60e51b815260206004820152601c60248201527f4552433732313a20746f6b656e20616c7265616479206d696e7465640000000060448201526064016107cc565b6122e56000838360016125c3565b6000818152606760205260409020546001600160a01b03161561234a5760405162461bcd60e51b815260206004820152601c60248201527f4552433732313a20746f6b656e20616c7265616479206d696e7465640000000060448201526064016107cc565b6001600160a01b038216600081815260686020908152604080832080546001019055848352606790915280822080546001600160a01b0319168417905551839291907fddf252ad1be2c89b69c2b068fc378daa952ba7f163c4a11628f55a4df523b3ef908290a45050565b816001600160a01b0316836001600160a01b0316036124165760405162461bcd60e51b815260206004820152601960248201527f4552433732313a20617070726f766520746f2063616c6c65720000000000000060448201526064016107cc565b6001600160a01b038381166000818152606a6020908152604080832094871680845294825291829020805460ff191686151590811790915591519182527f17307eab39ab6107e8899845ad3d59bd9653f200f220920489ca2b5937696c31910160405180910390a3505050565b61248e848484611f32565b61249a84848484612767565b6115d65760405162461bcd60e51b81526004016107cc90613b6c565b6060816000036124dd5750506040805180820190915260018152600360fc1b602082015290565b8160005b811561250757806124f18161337b565b91506125009050600a83613bd4565b91506124e1565b6000816001600160401b0381111561252157612521612b90565b6040519080825280601f01601f19166020018201604052801561254b576020820181803683370190505b509050815b8515610fd357612561600182613ac9565b90506000612570600a88613be8565b61257b906030613bfc565b905060008160f81b9050808484815181106125985761259861334f565b60200101906001600160f81b031916908160001a9053506125ba600a89613bd4565b97505050612550565b60018111156126325760405162461bcd60e51b815260206004820152603560248201527f455243373231456e756d657261626c653a20636f6e7365637574697665207472604482015274185b9cd9995c9cc81b9bdd081cdd5c1c1bdc9d1959605a1b60648201526084016107cc565b816001600160a01b03851661268e5761268981609980546000838152609a60205260408120829055600182018355919091527f72a152ddfb8e864297c917af52ea6c1c68aead0fee1a62673fcc7e0c94979d000155565b6126b1565b836001600160a01b0316856001600160a01b0316146126b1576126b18582612868565b6001600160a01b0384166126cd576126c881612905565b6126f0565b846001600160a01b0316846001600160a01b0316146126f0576126f084826129b4565b5050505050565b600054610100900460ff1661271e5760405162461bcd60e51b81526004016107cc90613b21565b606561272a8382613290565b50606661086d8282613290565b600054610100900460ff1661275e5760405162461bcd60e51b81526004016107cc90613b21565b6112703361216a565b60006001600160a01b0384163b1561285d57604051630a85bd0160e11b81526001600160a01b0385169063150b7a02906127ab903390899088908890600401613c15565b6020604051808303816000875af19250505080156127e6575060408051601f3d908101601f191682019092526127e391810190613c48565b60015b612843573d808015612814576040519150601f19603f3d011682016040523d82523d6000602084013e612819565b606091505b50805160000361283b5760405162461bcd60e51b81526004016107cc90613b6c565b805181602001fd5b6001600160e01b031916630a85bd0160e11b149050611f2a565b506001949350505050565b60006001612875846111d8565b61287f9190613ac9565b6000838152609860205260409020549091508082146128d2576001600160a01b03841660009081526097602090815260408083208584528252808320548484528184208190558352609890915290208190555b5060009182526098602090815260408084208490556001600160a01b039094168352609781528383209183525290812055565b60995460009061291790600190613ac9565b6000838152609a60205260408120546099805493945090928490811061293f5761293f61334f565b9060005260206000200154905080609983815481106129605761296061334f565b6000918252602080832090910192909255828152609a9091526040808220849055858252812055609980548061299857612998613c65565b6001900381819060005260206000200160009055905550505050565b60006129bf836111d8565b6001600160a01b039093166000908152609760209081526040808320868452825280832085905593825260989052919091209190915550565b828054828255906000526020600020908101928215612a33579160200282015b82811115612a33578251825591602001919060010190612a18565b50612a3f929150612a43565b5090565b5b80821115612a3f5760008155600101612a44565b6001600160e01b031981168114611c5b57600080fd5b600060208284031215612a8057600080fd5b8135612a8b81612a58565b9392505050565b60005b83811015612aad578181015183820152602001612a95565b50506000910152565b60008151808452612ace816020860160208601612a92565b601f01601f19169290920160200192915050565b602081526000612a8b6020830184612ab6565b600060208284031215612b0757600080fd5b5035919050565b80356001600160a01b0381168114612b2557600080fd5b919050565b60008060408385031215612b3d57600080fd5b612b4683612b0e565b946020939093013593505050565b600080600060608486031215612b6957600080fd5b612b7284612b0e565b9250612b8060208501612b0e565b9150604084013590509250925092565b634e487b7160e01b600052604160045260246000fd5b604051601f8201601f191681016001600160401b0381118282101715612bce57612bce612b90565b604052919050565b60006001600160401b03831115612bef57612bef612b90565b612c02601f8401601f1916602001612ba6565b9050828152838383011115612c1657600080fd5b828260208301376000602084830101529392505050565b600082601f830112612c3e57600080fd5b612a8b83833560208501612bd6565b60006001600160401b03821115612c6657612c66612b90565b5060051b60200190565b600082601f830112612c8157600080fd5b81356020612c96612c9183612c4d565b612ba6565b82815260059290921b84018101918181019086841115612cb557600080fd5b8286015b84811015612cf45780356001600160401b03811115612cd85760008081fd5b612ce68986838b0101612c2d565b845250918301918301612cb9565b509695505050505050565b600080600080600080600060e0888a031215612d1a57600080fd5b8735965060208801356001600160401b0380821115612d3857600080fd5b612d448b838c01612c2d565b975060408a0135915080821115612d5a57600080fd5b612d668b838c01612c2d565b965060608a0135955060808a0135915080821115612d8357600080fd5b612d8f8b838c01612c70565b945060a08a0135915080821115612da557600080fd5b612db18b838c01612c70565b935060c08a0135915080821115612dc757600080fd5b50612dd48a828b01612c70565b91505092959891949750929550565b606081526000612df66060830186612ab6565b8460208401528281036040840152612e0e8185612ab6565b9695505050505050565b60008060008060808587031215612e2e57600080fd5b8435935060208501356001600160401b0380821115612e4c57600080fd5b612e5888838901612c2d565b94506040870135915080821115612e6e57600080fd5b612e7a88838901612c2d565b93506060870135915080821115612e9057600080fd5b50612e9d87828801612c2d565b91505092959194509250565b600060208284031215612ebb57600080fd5b612a8b82612b0e565b60008083601f840112612ed657600080fd5b5081356001600160401b03811115612eed57600080fd5b602083019150836020828501011115612f0557600080fd5b9250929050565b60008060008060008060608789031215612f2557600080fd5b86356001600160401b0380821115612f3c57600080fd5b612f488a838b01612ec4565b90985096506020890135915080821115612f6157600080fd5b612f6d8a838b01612ec4565b90965094506040890135915080821115612f8657600080fd5b50612f9389828a01612ec4565b979a9699509497509295939492505050565b600080600080600060608688031215612fbd57600080fd5b612fc686612b0e565b945060208601356001600160401b0380821115612fe257600080fd5b612fee89838a01612ec4565b9096509450604088013591508082111561300757600080fd5b5061301488828901612ec4565b969995985093965092949392505050565b6000806040838503121561303857600080fd5b61304183612b0e565b91506020830135801515811461305657600080fd5b809150509250929050565b6000806000806080858703121561307757600080fd5b61308085612b0e565b935061308e60208601612b0e565b92506040850135915060608501356001600160401b038111156130b057600080fd5b8501601f810187136130c157600080fd5b612e9d87823560208401612bd6565b600080604083850312156130e357600080fd5b50508035926020909101359150565b60208152600082516060602084015261310e6080840182612ab6565b90506020840151601f198085840301604086015261312c8383612ab6565b925060408601519150808584030160608601525061314a8282612ab6565b95945050505050565b6000806040838503121561316657600080fd5b61316f83612b0e565b915061317d60208401612b0e565b90509250929050565b6080815260006131996080830187612ab6565b85602084015282810360408401526131b18186612ab6565b91505082606083015295945050505050565b600181811c908216806131d757607f821691505b6020821081036131f757634e487b7160e01b600052602260045260246000fd5b50919050565b6020808252602d908201527f4552433732313a2063616c6c6572206973206e6f7420746f6b656e206f776e6560408201526c1c881bdc88185c1c1c9bdd9959609a1b606082015260800190565b601f82111561086d57600081815260208120601f850160051c810160208610156132715750805b601f850160051c820191505b818110156114ae5782815560010161327d565b81516001600160401b038111156132a9576132a9612b90565b6132bd816132b784546131c3565b8461324a565b602080601f8311600181146132f257600084156132da5750858301515b600019600386901b1c1916600185901b1785556114ae565b600085815260208120601f198616915b8281101561332157888601518255948401946001909101908401613302565b508582101561333f5787850151600019600388901b60f8161c191681555b5050505050600190811b01905550565b634e487b7160e01b600052603260045260246000fd5b634e487b7160e01b600052601160045260246000fd5b60006001820161338d5761338d613365565b5060010190565b60006020808352600084546133a8816131c3565b808487015260406001808416600081146133c957600181146133e357613411565b60ff1985168984015283151560051b890183019550613411565b896000528660002060005b858110156134095781548b82018601529083019088016133ee565b8a0184019650505b509398975050505050505050565b8082018082111561069957610699613365565b808202811582820484141761069957610699613365565b60008060006060848603121561345e57600080fd5b83356001600160401b038082111561347557600080fd5b61348187838801612c2d565b9450602086013591508082111561349757600080fd5b506134a486828701612c2d565b925050604084013590509250925092565b6000806000606084860312156134ca57600080fd5b83356001600160401b03808211156134e157600080fd5b6134ed87838801612c70565b945060209150818601358181111561350457600080fd5b61351088828901612c70565b94505060408601358181111561352557600080fd5b86019050601f8101871361353857600080fd5b8035613546612c9182612c4d565b81815260059190911b8201830190838101908983111561356557600080fd5b928401925b828410156135835783358252928401929084019061356a565b80955050505050509250925092565b600082601f8301126135a357600080fd5b813560206135b3612c9183612c4d565b82815260059290921b840181019181810190868411156135d257600080fd5b8286015b84811015612cf45780356001600160401b038111156135f55760008081fd5b6136038986838b0101612c70565b8452509183019183016135d6565b60008060006060848603121561362657600080fd5b83356001600160401b038082111561363d57600080fd5b61364987838801613592565b9450602086013591508082111561365f57600080fd5b61366b87838801613592565b9350604086013591508082111561368157600080fd5b5061368e86828701613592565b9150509250925092565b6001600160401b038311156136af576136af612b90565b6136c3836136bd83546131c3565b8361324a565b6000601f8411600181146136f757600085156136df5750838201355b600019600387901b1c1916600186901b1783556126f0565b600083815260209020601f19861690835b828110156137285786850135825560209485019460019092019101613708565b50868210156137455760001960f88860031b161c19848701351681555b505060018560011b0183555050505050565b60008154613764816131c3565b6001828116801561377c5760018114613791576137c0565b60ff19841687528215158302870194506137c0565b8560005260208060002060005b858110156137b75781548a82015290840190820161379e565b50505082870194505b5050505092915050565b600085516137dc818460208a01612a92565b7311383ab13634b1b0ba34b7b72730b6b2911d101160611b9083019081526138076014820187613757565b711116101130baba3437b92730b6b2911d101160711b81528551909150613835816012840160208901612a92565b711116101131b7bb32b924b6b0b3b2911d101160711b601292909101918201526138626024820185613757565b6f222c202273656374696f6e73223a205b60801b8152601001979650505050505050565b6f3d901139b2b1ba34b7b724b2111d101160811b815283516000906138b2816010850160208901612a92565b721116101139b2b1ba34b7b72730b6b2911d101160691b6010918401918201526138df6023820186613757565b731116101139b2b1ba34b7b724b6b0b3b2911d101160611b815290506139086014820185613757565b6f222c20226368617074657273223a205b60801b81526010019695505050505050565b6f3d901131b430b83a32b924b2111d101160811b81528351600090613957816010850160208901612a92565b721116101131b430b83a32b92730b6b2911d101160691b6010918401918201526139846023820186613757565b731116101131b430b83a32b924b6b0b3b2911d101160611b815290506139ad6014820185613757565b6c222c20227061676573223a205b60981b8152600d019695505050505050565b6c3d90113830b3b2a4b2111d101160991b815260006139ef600d830186613757565b6f111610113830b3b2a730b6b2911d101160811b8152613a126010820186613757565b72111610113830b3b2a1b7b73a32b73a111d101160691b81529050613a3a6013820185613757565b61227d60f01b81526002019695505050505050565b60008251613a61818460208701612a92565b600b60fa1b920191825250600101919050565b60008351613a86818460208801612a92565b835190830190613a9a818360208801612a92565b01949350505050565b60008251613ab5818460208701612a92565b615d7d60f01b920191825250600201919050565b8181038181111561069957610699613365565b60208082526025908201527f4552433732313a207472616e736665722066726f6d20696e636f72726563742060408201526437bbb732b960d91b606082015260800190565b6020808252602b908201527f496e697469616c697a61626c653a20636f6e7472616374206973206e6f74206960408201526a6e697469616c697a696e6760a81b606082015260800190565b60208082526032908201527f4552433732313a207472616e7366657220746f206e6f6e20455243373231526560408201527131b2b4bb32b91034b6b83632b6b2b73a32b960711b606082015260800190565b634e487b7160e01b600052601260045260246000fd5b600082613be357613be3613bbe565b500490565b600082613bf757613bf7613bbe565b500690565b60ff818116838216019081111561069957610699613365565b6001600160a01b0385811682528416602082015260408101839052608060608201819052600090612e0e90830184612ab6565b600060208284031215613c5a57600080fd5b8151612a8b81612a58565b634e487b7160e01b600052603160045260246000fdfea26469706673582212201cfc1e6d8551389883a247b7501cd51b3040f08f7b9b76886b99e0a1652302e164736f6c63430008120033",
  "linkReferences": {},
  "deployedLinkReferences": {}
}