{
  "_format": "hh-sol-artifact-1",
  "contractName": "Publius",
  "sourceName": "contracts/Publius.sol",
  "abi": [
    {
      "anonymous": false,
      "inputs": [
        {
          "indexed": true,
          "internalType": "address",
          "name": "owner",
          "type": "address"
        },
        {
          "indexed": true,
          "internalType": "address",
          "name": "approved",
          "type": "address"
        },
        {
          "indexed": true,
          "internalType": "uint256",
          "name": "tokenId",
          "type": "uint256"
        }
      ],
      "name": "Approval",
      "type": "event"
    },
    {
      "anonymous": false,
      "inputs": [
        {
          "indexed": true,
          "internalType": "address",
          "name": "owner",
          "type": "address"
        },
        {
          "indexed": true,
          "internalType": "address",
          "name": "operator",
          "type": "address"
        },
        {
          "indexed": false,
          "internalType": "bool",
          "name": "approved",
          "type": "bool"
        }
      ],
      "name": "ApprovalForAll",
      "type": "event"
    },
    {
      "anonymous": false,
      "inputs": [
        {
          "indexed": false,
          "internalType": "uint8",
          "name": "version",
          "type": "uint8"
        }
      ],
      "name": "Initialized",
      "type": "event"
    },
    {
      "anonymous": false,
      "inputs": [
        {
          "indexed": true,
          "internalType": "address",
          "name": "previousOwner",
          "type": "address"
        },
        {
          "indexed": true,
          "internalType": "address",
          "name": "newOwner",
          "type": "address"
        }
      ],
      "name": "OwnershipTransferred",
      "type": "event"
    },
    {
      "anonymous": false,
      "inputs": [
        {
          "indexed": true,
          "internalType": "address",
          "name": "from",
          "type": "address"
        },
        {
          "indexed": true,
          "internalType": "address",
          "name": "to",
          "type": "address"
        },
        {
          "indexed": true,
          "internalType": "uint256",
          "name": "tokenId",
          "type": "uint256"
        }
      ],
      "name": "Transfer",
      "type": "event"
    },
    {
      "inputs": [
        {
          "internalType": "uint256",
          "name": "_sectionId",
          "type": "uint256"
        },
        {
          "internalType": "string",
          "name": "_chapterName",
          "type": "string"
        },
        {
          "internalType": "string",
          "name": "_chapterImage",
          "type": "string"
        },
        {
          "internalType": "uint256",
          "name": "_chapterId",
          "type": "uint256"
        },
        {
          "internalType": "string[]",
          "name": "_pageNames",
          "type": "string[]"
        },
        {
          "internalType": "string[]",
          "name": "_pageContent",
          "type": "string[]"
        },
        {
          "internalType": "uint256[]",
          "name": "_pageIds",
          "type": "uint256[]"
        }
      ],
      "name": "addChapter",
      "outputs": [],
      "stateMutability": "nonpayable",
      "type": "function"
    },
    {
      "inputs": [
        {
          "internalType": "uint256",
          "name": "_chapter",
          "type": "uint256"
        },
        {
          "internalType": "string",
          "name": "_pageName",
          "type": "string"
        },
        {
          "internalType": "string",
          "name": "_pageContent",
          "type": "string"
        },
        {
          "internalType": "uint256",
          "name": "_pageId",
          "type": "uint256"
        }
      ],
      "name": "addPage",
      "outputs": [],
      "stateMutability": "nonpayable",
      "type": "function"
    },
    {
      "inputs": [
        {
          "internalType": "bytes",
          "name": "_sectionInfo",
          "type": "bytes"
        },
        {
          "internalType": "bytes",
          "name": "_chapterInfo",
          "type": "bytes"
        },
        {
          "internalType": "bytes",
          "name": "_pageInfo",
          "type": "bytes"
        }
      ],
      "name": "addSection",
      "outputs": [],
      "stateMutability": "nonpayable",
      "type": "function"
    },
    {
      "inputs": [
        {
          "internalType": "address",
          "name": "_address",
          "type": "address"
        }
      ],
      "name": "addressToString",
      "outputs": [
        {
          "internalType": "string",
          "name": "",
          "type": "string"
        }
      ],
      "stateMutability": "pure",
      "type": "function"
    },
    {
      "inputs": [
        {
          "internalType": "address",
          "name": "to",
          "type": "address"
        },
        {
          "internalType": "uint256",
          "name": "tokenId",
          "type": "uint256"
        }
      ],
      "name": "approve",
      "outputs": [],
      "stateMutability": "nonpayable",
      "type": "function"
    },
    {
      "inputs": [
        {
          "internalType": "address",
          "name": "owner",
          "type": "address"
        }
      ],
      "name": "balanceOf",
      "outputs": [
        {
          "internalType": "uint256",
          "name": "",
          "type": "uint256"
        }
      ],
      "stateMutability": "view",
      "type": "function"
    },
    {
      "inputs": [
        {
          "internalType": "uint256",
          "name": "",
          "type": "uint256"
        }
      ],
      "name": "chapters",
      "outputs": [
        {
          "internalType": "string",
          "name": "chapterName",
          "type": "string"
        },
        {
          "internalType": "uint256",
          "name": "chapterId",
          "type": "uint256"
        },
        {
          "internalType": "string",
          "name": "chapterImage",
          "type": "string"
        }
      ],
      "stateMutability": "view",
      "type": "function"
    },
    {
      "inputs": [
        {
          "internalType": "uint256",
          "name": "tokenId",
          "type": "uint256"
        }
      ],
      "name": "getApproved",
      "outputs": [
        {
          "internalType": "address",
          "name": "",
          "type": "address"
        }
      ],
      "stateMutability": "view",
      "type": "function"
    },
    {
      "inputs": [
        {
          "internalType": "uint256",
          "name": "_chapter",
          "type": "uint256"
        },
        {
          "internalType": "uint256",
          "name": "_pageId",
          "type": "uint256"
        }
      ],
      "name": "getPage",
      "outputs": [
        {
          "components": [
            {
              "internalType": "string",
              "name": "pageName",
              "type": "string"
            },
            {
              "internalType": "uint256",
              "name": "pageId",
              "type": "uint256"
            },
            {
              "internalType": "string",
              "name": "pageContent",
              "type": "string"
            }
          ],
          "internalType": "struct Publius.Page",
          "name": "",
          "type": "tuple"
        }
      ],
      "stateMutability": "view",
      "type": "function"
    },
    {
      "inputs": [
        {
          "internalType": "uint256",
          "name": "_chapter",
          "type": "uint256"
        }
      ],
      "name": "getPageIds",
      "outputs": [
        {
          "internalType": "uint256[]",
          "name": "",
          "type": "uint256[]"
        }
      ],
      "stateMutability": "view",
      "type": "function"
    },
    {
      "inputs": [
        {
          "internalType": "uint256",
          "name": "_publicationId",
          "type": "uint256"
        },
        {
          "internalType": "address",
          "name": "_publicationAuthorAddress",
          "type": "address"
        },
        {
          "internalType": "string",
          "name": "_publicationAuthorName",
          "type": "string"
        },
        {
          "internalType": "string",
          "name": "_publicationName",
          "type": "string"
        },
        {
          "internalType": "string",
          "name": "_publicationCoverImage",
          "type": "string"
        }
      ],
      "name": "initialize",
      "outputs": [],
      "stateMutability": "nonpayable",
      "type": "function"
    },
    {
      "inputs": [
        {
          "internalType": "address",
          "name": "owner",
          "type": "address"
        },
        {
          "internalType": "address",
          "name": "operator",
          "type": "address"
        }
      ],
      "name": "isApprovedForAll",
      "outputs": [
        {
          "internalType": "bool",
          "name": "",
          "type": "bool"
        }
      ],
      "stateMutability": "view",
      "type": "function"
    },
    {
      "inputs": [
        {
          "internalType": "uint256",
          "name": "_amount",
          "type": "uint256"
        }
      ],
      "name": "mint",
      "outputs": [],
      "stateMutability": "payable",
      "type": "function"
    },
    {
      "inputs": [
        {
          "internalType": "address",
          "name": "",
          "type": "address"
        },
        {
          "internalType": "uint256",
          "name": "",
          "type": "uint256"
        }
      ],
      "name": "minterOwnedTokens",
      "outputs": [
        {
          "internalType": "uint256",
          "name": "",
          "type": "uint256"
        }
      ],
      "stateMutability": "view",
      "type": "function"
    },
    {
      "inputs": [
        {
          "internalType": "uint256",
          "name": "_chapterId",
          "type": "uint256"
        },
        {
          "internalType": "string",
          "name": "_newChapterName",
          "type": "string"
        },
        {
          "internalType": "string",
          "name": "_newChapterImage",
          "type": "string"
        }
      ],
      "name": "modifyChapter",
      "outputs": [],
      "stateMutability": "nonpayable",
      "type": "function"
    },
    {
      "inputs": [
        {
          "internalType": "uint256",
          "name": "_chapterId",
          "type": "uint256"
        },
        {
          "internalType": "uint256",
          "name": "_pageId",
          "type": "uint256"
        },
        {
          "internalType": "string",
          "name": "_newPageName",
          "type": "string"
        },
        {
          "internalType": "string",
          "name": "_newPageContent",
          "type": "string"
        }
      ],
      "name": "modifyPage",
      "outputs": [],
      "stateMutability": "nonpayable",
      "type": "function"
    },
    {
      "inputs": [
        {
          "internalType": "uint256",
          "name": "_sectionId",
          "type": "uint256"
        },
        {
          "internalType": "string",
          "name": "_newSectionName",
          "type": "string"
        },
        {
          "internalType": "string",
          "name": "_newSectionImage",
          "type": "string"
        }
      ],
      "name": "modifySection",
      "outputs": [],
      "stateMutability": "nonpayable",
      "type": "function"
    },
    {
      "inputs": [],
      "name": "name",
      "outputs": [
        {
          "internalType": "string",
          "name": "",
          "type": "string"
        }
      ],
      "stateMutability": "view",
      "type": "function"
    },
    {
      "inputs": [],
      "name": "owner",
      "outputs": [
        {
          "internalType": "address",
          "name": "",
          "type": "address"
        }
      ],
      "stateMutability": "view",
      "type": "function"
    },
    {
      "inputs": [
        {
          "internalType": "uint256",
          "name": "tokenId",
          "type": "uint256"
        }
      ],
      "name": "ownerOf",
      "outputs": [
        {
          "internalType": "address",
          "name": "",
          "type": "address"
        }
      ],
      "stateMutability": "view",
      "type": "function"
    },
    {
      "inputs": [],
      "name": "publicationAuthor",
      "outputs": [
        {
          "internalType": "address",
          "name": "",
          "type": "address"
        }
      ],
      "stateMutability": "view",
      "type": "function"
    },
    {
      "inputs": [],
      "name": "publicationCoverImage",
      "outputs": [
        {
          "internalType": "string",
          "name": "",
          "type": "string"
        }
      ],
      "stateMutability": "view",
      "type": "function"
    },
    {
      "inputs": [],
      "name": "publicationId",
      "outputs": [
        {
          "internalType": "uint256",
          "name": "",
          "type": "uint256"
        }
      ],
      "stateMutability": "view",
      "type": "function"
    },
    {
      "inputs": [],
      "name": "publicationName",
      "outputs": [
        {
          "internalType": "string",
          "name": "",
          "type": "string"
        }
      ],
      "stateMutability": "view",
      "type": "function"
    },
    {
      "inputs": [],
      "name": "renounceOwnership",
      "outputs": [],
      "stateMutability": "nonpayable",
      "type": "function"
    },
    {
      "inputs": [
        {
          "internalType": "address",
          "name": "from",
          "type": "address"
        },
        {
          "internalType": "address",
          "name": "to",
          "type": "address"
        },
        {
          "internalType": "uint256",
          "name": "tokenId",
          "type": "uint256"
        }
      ],
      "name": "safeTransferFrom",
      "outputs": [],
      "stateMutability": "nonpayable",
      "type": "function"
    },
    {
      "inputs": [
        {
          "internalType": "address",
          "name": "from",
          "type": "address"
        },
        {
          "internalType": "address",
          "name": "to",
          "type": "address"
        },
        {
          "internalType": "uint256",
          "name": "tokenId",
          "type": "uint256"
        },
        {
          "internalType": "bytes",
          "name": "data",
          "type": "bytes"
        }
      ],
      "name": "safeTransferFrom",
      "outputs": [],
      "stateMutability": "nonpayable",
      "type": "function"
    },
    {
      "inputs": [
        {
          "internalType": "uint256",
          "name": "",
          "type": "uint256"
        }
      ],
      "name": "sections",
      "outputs": [
        {
          "internalType": "string",
          "name": "sectionName",
          "type": "string"
        },
        {
          "internalType": "uint256",
          "name": "sectionId",
          "type": "uint256"
        },
        {
          "internalType": "string",
          "name": "sectionImage",
          "type": "string"
        }
      ],
      "stateMutability": "view",
      "type": "function"
    },
    {
      "inputs": [
        {
          "internalType": "address",
          "name": "operator",
          "type": "address"
        },
        {
          "internalType": "bool",
          "name": "approved",
          "type": "bool"
        }
      ],
      "name": "setApprovalForAll",
      "outputs": [],
      "stateMutability": "nonpayable",
      "type": "function"
    },
    {
      "inputs": [
        {
          "internalType": "bytes4",
          "name": "interfaceId",
          "type": "bytes4"
        }
      ],
      "name": "supportsInterface",
      "outputs": [
        {
          "internalType": "bool",
          "name": "",
          "type": "bool"
        }
      ],
      "stateMutability": "view",
      "type": "function"
    },
    {
      "inputs": [],
      "name": "symbol",
      "outputs": [
        {
          "internalType": "string",
          "name": "",
          "type": "string"
        }
      ],
      "stateMutability": "view",
      "type": "function"
    },
    {
      "inputs": [
        {
          "internalType": "uint256",
          "name": "index",
          "type": "uint256"
        }
      ],
      "name": "tokenByIndex",
      "outputs": [
        {
          "internalType": "uint256",
          "name": "",
          "type": "uint256"
        }
      ],
      "stateMutability": "view",
      "type": "function"
    },
    {
      "inputs": [
        {
          "internalType": "uint256",
          "name": "",
          "type": "uint256"
        }
      ],
      "name": "tokenIdToMinter",
      "outputs": [
        {
          "internalType": "address",
          "name": "",
          "type": "address"
        }
      ],
      "stateMutability": "view",
      "type": "function"
    },
    {
      "inputs": [
        {
          "internalType": "address",
          "name": "owner",
          "type": "address"
        },
        {
          "internalType": "uint256",
          "name": "index",
          "type": "uint256"
        }
      ],
      "name": "tokenOfOwnerByIndex",
      "outputs": [
        {
          "internalType": "uint256",
          "name": "",
          "type": "uint256"
        }
      ],
      "stateMutability": "view",
      "type": "function"
    },
    {
      "inputs": [
        {
          "internalType": "uint256",
          "name": "_tokenId",
          "type": "uint256"
        }
      ],
      "name": "tokenURI",
      "outputs": [
        {
          "internalType": "string",
          "name": "uri",
          "type": "string"
        }
      ],
      "stateMutability": "view",
      "type": "function"
    },
    {
      "inputs": [],
      "name": "totalSupply",
      "outputs": [
        {
          "internalType": "uint256",
          "name": "",
          "type": "uint256"
        }
      ],
      "stateMutability": "view",
      "type": "function"
    },
    {
      "inputs": [
        {
          "internalType": "address",
          "name": "from",
          "type": "address"
        },
        {
          "internalType": "address",
          "name": "to",
          "type": "address"
        },
        {
          "internalType": "uint256",
          "name": "tokenId",
          "type": "uint256"
        }
      ],
      "name": "transferFrom",
      "outputs": [],
      "stateMutability": "nonpayable",
      "type": "function"
    },
    {
      "inputs": [
        {
          "internalType": "address",
          "name": "newOwner",
          "type": "address"
        }
      ],
      "name": "transferOwnership",
      "outputs": [],
      "stateMutability": "nonpayable",
      "type": "function"
    }
  ],
  "bytecode": "0x608060405234801561001057600080fd5b506151b5806100206000396000f3fe6080604052600436106102255760003560e01c806370a0823111610123578063c87b56dd116100ab578063db010ae41161006f578063db010ae414610675578063e8bfecc714610695578063e985e9c5146106b5578063f2fde38b146106fe578063f40adb121461071e57600080fd5b8063c87b56dd146105c6578063cb7c3ca7146105e6578063ccfea8f014610606578063cd1a2e911461061b578063d0dccf031461064857600080fd5b8063934fa453116100f2578063934fa4531461054857806395d89b411461055e578063a0712d6814610573578063a22cb46514610586578063b88d4fde146105a657600080fd5b806370a08231146104e0578063715018a61461050057806386b4e2a0146105155780638da5cb5b1461052a57600080fd5b806335603440116101b1578063527c416511610175578063527c41651461043f5780635e57966d146104605780636352211e146104805780636b00aba6146104a0578063708e3828146104c057600080fd5b8063356034401461039057806342842e0e146103bf57806345e14352146103df57806348afeca2146103ff5780634f6ccce71461041f57600080fd5b8063095ea7b3116101f8578063095ea7b3146102db57806318160ddd146102fb5780632218f1191461031a57806323b872dd146103505780632f745c591461037057600080fd5b806301ffc9a71461022a57806306fdde031461025f578063081812fc1461028157806308b6b15f146102b9575b600080fd5b34801561023657600080fd5b5061024a610245366004613bb3565b61073e565b60405190151581526020015b60405180910390f35b34801561026b57600080fd5b50610274610769565b6040516102569190613c27565b34801561028d57600080fd5b506102a161029c366004613c3a565b6107fb565b6040516001600160a01b039091168152602001610256565b3480156102c557600080fd5b506102d96102d4366004613d10565b610822565b005b3480156102e757600080fd5b506102d96102f6366004613da2565b610a8a565b34801561030757600080fd5b506099545b604051908152602001610256565b34801561032657600080fd5b506102a1610335366004613c3a565b60fc602052600090815260409020546001600160a01b031681565b34801561035c57600080fd5b506102d961036b366004613dcc565b610b9f565b34801561037c57600080fd5b5061030c61038b366004613da2565b610bd0565b34801561039c57600080fd5b506103b06103ab366004613c3a565b610c66565b60405161025693929190613e08565b3480156103cb57600080fd5b506102d96103da366004613dcc565b610d98565b3480156103eb57600080fd5b506102d96103fa366004613e3d565b610db3565b34801561040b57600080fd5b506102d961041a366004613ef1565b610f89565b34801561042b57600080fd5b5061030c61043a366004613c3a565b611197565b34801561044b57600080fd5b50610101546102a1906001600160a01b031681565b34801561046c57600080fd5b5061027461047b366004613f6a565b61122a565b34801561048c57600080fd5b506102a161049b366004613c3a565b611415565b3480156104ac57600080fd5b506102d96104bb366004613f85565b611475565b3480156104cc57600080fd5b506102d96104db36600461401e565b611915565b3480156104ec57600080fd5b5061030c6104fb366004613f6a565b611e14565b34801561050c57600080fd5b506102d9611e9a565b34801561052157600080fd5b50610274611eae565b34801561053657600080fd5b5060c9546001600160a01b03166102a1565b34801561055457600080fd5b5061030c60fb5481565b34801561056a57600080fd5b50610274611f3d565b6102d9610581366004613c3a565b611f4c565b34801561059257600080fd5b506102d96105a13660046140d1565b612020565b3480156105b257600080fd5b506102d96105c136600461410d565b61202b565b3480156105d257600080fd5b506102746105e1366004613c3a565b612063565b3480156105f257600080fd5b506102d961060136600461417c565b612457565b34801561061257600080fd5b50610274612741565b34801561062757600080fd5b5061063b6106363660046141f0565b61274f565b6040516102569190614212565b34801561065457600080fd5b50610668610663366004613c3a565b6128d4565b604051610256919061425e565b34801561068157600080fd5b5061030c610690366004613da2565b61293c565b3480156106a157600080fd5b506102d96106b03660046143af565b61296d565b3480156106c157600080fd5b5061024a6106d0366004614493565b6001600160a01b039182166000908152606a6020908152604080832093909416825291909152205460ff1690565b34801561070a57600080fd5b506102d9610719366004613f6a565b612d5c565b34801561072a57600080fd5b506103b0610739366004613c3a565b612dd5565b60006001600160e01b0319821663780e9d6360e01b1480610763575061076382612df0565b92915050565b606060658054610778906144c6565b80601f01602080910402602001604051908101604052809291908181526020018280546107a4906144c6565b80156107f15780601f106107c6576101008083540402835291602001916107f1565b820191906000526020600020905b8154815290600101906020018083116107d457829003601f168201915b5050505050905090565b600061080682612e40565b506000908152606960205260409020546001600160a01b031690565b61082a612e9f565b600084815260ff602052604081206001015490036108635760405162461bcd60e51b815260040161085a90614500565b60405180910390fd5b600084815260ff6020908152604080832086845260030190915281206001015490036108d15760405162461bcd60e51b815260206004820152601c60248201527f5075626c6975733a205061676520646f6573206e6f7420657869737400000000604482015260640161085a565b6040516020016108ec90602080825260009082015260400190565b60405160208183030381529060405280519060200120826040516020016109139190613c27565b60405160208183030381529060405280519060200120036109855760405162461bcd60e51b815260206004820152602660248201527f5075626c6975733a204e65772070616765206e616d652063616e6e6f7420626560448201526520656d70747960d01b606482015260840161085a565b6040516020016109a090602080825260009082015260400190565b60405160208183030381529060405280519060200120816040516020016109c79190613c27565b6040516020818303038152906040528051906020012003610a3c5760405162461bcd60e51b815260206004820152602960248201527f5075626c6975733a204e6577207061676520636f6e74656e742063616e6e6f7460448201526820626520656d70747960b81b606482015260840161085a565b600084815260ff6020908152604080832086845260038101909252909120610a64848261457d565b5060008481526003820160205260409020600201610a82838261457d565b505050505050565b6000610a9582611415565b9050806001600160a01b0316836001600160a01b031603610b025760405162461bcd60e51b815260206004820152602160248201527f4552433732313a20617070726f76616c20746f2063757272656e74206f776e656044820152603960f91b606482015260840161085a565b336001600160a01b0382161480610b1e5750610b1e81336106d0565b610b905760405162461bcd60e51b815260206004820152603d60248201527f4552433732313a20617070726f76652063616c6c6572206973206e6f7420746f60448201527f6b656e206f776e6572206f7220617070726f76656420666f7220616c6c000000606482015260840161085a565b610b9a8383612ef9565b505050565b610ba93382612f67565b610bc55760405162461bcd60e51b815260040161085a9061463c565b610b9a838383612fe6565b6000610bdb83611e14565b8210610c3d5760405162461bcd60e51b815260206004820152602b60248201527f455243373231456e756d657261626c653a206f776e657220696e646578206f7560448201526a74206f6620626f756e647360a81b606482015260840161085a565b506001600160a01b03919091166000908152609760209081526040808320938352929052205490565b60fe60205260009081526040902080548190610c81906144c6565b80601f0160208091040260200160405190810160405280929190818152602001828054610cad906144c6565b8015610cfa5780601f10610ccf57610100808354040283529160200191610cfa565b820191906000526020600020905b815481529060010190602001808311610cdd57829003601f168201915b505050505090806001015490806002018054610d15906144c6565b80601f0160208091040260200160405190810160405280929190818152602001828054610d41906144c6565b8015610d8e5780601f10610d6357610100808354040283529160200191610d8e565b820191906000526020600020905b815481529060010190602001808311610d7157829003601f168201915b5050505050905083565b610b9a8383836040518060200160405280600081525061202b565b610dbb612e9f565b600083815260ff60205260408120600101549003610deb5760405162461bcd60e51b815260040161085a90614500565b604051602001610e0690602080825260009082015260400190565b6040516020818303038152906040528051906020012082604051602001610e2d9190613c27565b6040516020818303038152906040528051906020012003610ea25760405162461bcd60e51b815260206004820152602960248201527f5075626c6975733a204e65772063686170746572206e616d652063616e6e6f7460448201526820626520656d70747960b81b606482015260840161085a565b604051602001610ebd90602080825260009082015260400190565b6040516020818303038152906040528051906020012081604051602001610ee49190613c27565b6040516020818303038152906040528051906020012003610f5a5760405162461bcd60e51b815260206004820152602a60248201527f5075626c6975733a204e6577206368617074657220696d6167652063616e6e6f6044820152697420626520656d70747960b01b606482015260840161085a565b600083815260ff6020526040902080610f73848261457d565b5060028101610f82838261457d565b5050505050565b610f91612e9f565b600085815260fe60205260408120600101549003610ff15760405162461bcd60e51b815260206004820152601f60248201527f5075626c6975733a2053656374696f6e20646f6573206e6f7420657869737400604482015260640161085a565b60405160200161100c90602080825260009082015260400190565b604051602081830303815290604052805190602001208484604051602001611035929190614689565b60405160208183030381529060405280519060200120036110aa5760405162461bcd60e51b815260206004820152602960248201527f5075626c6975733a204e65772073656374696f6e206e616d652063616e6e6f7460448201526820626520656d70747960b81b606482015260840161085a565b6040516020016110c590602080825260009082015260400190565b6040516020818303038152906040528051906020012082826040516020016110ee929190614689565b60405160208183030381529060405280519060200120036111645760405162461bcd60e51b815260206004820152602a60248201527f5075626c6975733a204e65772073656374696f6e20696d6167652063616e6e6f6044820152697420626520656d70747960b01b606482015260840161085a565b600085815260fe602052604090208061117e8587836146b8565b506002810161118e8385836146b8565b50505050505050565b60006111a260995490565b82106112055760405162461bcd60e51b815260206004820152602c60248201527f455243373231456e756d657261626c653a20676c6f62616c20696e646578206f60448201526b7574206f6620626f756e647360a01b606482015260840161085a565b6099828154811061121857611218614777565b90600052602060002001549050919050565b604080518082018252601081526f181899199a1a9b1b9c1cb0b131b232b360811b60208201528151602a80825260608281019094526001600160a01b0385169291600091602082018180368337019050509050600360fc1b8160008151811061129557611295614777565b60200101906001600160f81b031916908160001a905350600f60fb1b816001815181106112c4576112c4614777565b60200101906001600160f81b031916908160001a90535060005b601481101561140c57826004856112f684600c6147a3565b6020811061130657611306614777565b1a60f81b6001600160f81b031916901c60f81c60ff168151811061132c5761132c614777565b01602001516001600160f81b031916826113478360026147b6565b6113529060026147a3565b8151811061136257611362614777565b60200101906001600160f81b031916908160001a905350828461138683600c6147a3565b6020811061139657611396614777565b825191901a600f169081106113ad576113ad614777565b01602001516001600160f81b031916826113c88360026147b6565b6113d39060036147a3565b815181106113e3576113e3614777565b60200101906001600160f81b031916908160001a90535080611404816147cd565b9150506112de565b50949350505050565b6000818152606760205260408120546001600160a01b0316806107635760405162461bcd60e51b8152602060048201526018602482015277115490cdcc8c4e881a5b9d985b1a59081d1bdad95b88125160421b604482015260640161085a565b61147d612e9f565b60008590036114dc5760405162461bcd60e51b815260206004820152602560248201527f5075626c6975733a2053656374696f6e20696e666f2063616e6e6f7420626520604482015264656d70747960d81b606482015260840161085a565b600083900361153b5760405162461bcd60e51b815260206004820152602560248201527f5075626c6975733a204368617074657220696e666f2063616e6e6f7420626520604482015264656d70747960d81b606482015260840161085a565b60008190036115975760405162461bcd60e51b815260206004820152602260248201527f5075626c6975733a205061676520696e666f2063616e6e6f7420626520656d70604482015261747960f01b606482015260840161085a565b600080806115a7888a018a6147e6565b925092509250806000036115fd5760405162461bcd60e51b815260206004820152601f60248201527f5075626c6975733a2053656374696f6e2049442063616e6e6f74206265203000604482015260640161085a565b60405160200161161890602080825260009082015260400190565b604051602081830303815290604052805190602001208360405160200161163f9190613c27565b60405160208183030381529060405280519060200120036116b05760405162461bcd60e51b815260206004820152602560248201527f5075626c6975733a2053656374696f6e206e616d652063616e6e6f7420626520604482015264656d70747960d81b606482015260840161085a565b600080806116c0898b018b614852565b92509250925080516000036117235760405162461bcd60e51b8152602060048201526024808201527f5075626c6975733a2043686170746572204944732063616e6e6f7420626520656044820152636d70747960e01b606482015260840161085a565b82516000036117835760405162461bcd60e51b815260206004820152602660248201527f5075626c6975733a2043686170746572206e616d65732063616e6e6f7420626560448201526520656d70747960d01b606482015260840161085a565b600080806117938a8c018c61494e565b92509250925082516000036117ba5760405162461bcd60e51b815260040161085a90614a45565b80516000036117db5760405162461bcd60e51b815260040161085a90614a88565b600060fe60006101045460016117f191906147a3565b8152602081019190915260400160002090508061180e8b8261457d565b5060018101889055600281016118248a8261457d565b5060005b85518110156118ec576118da826001015489838151811061184b5761184b614777565b602002602001015189848151811061186557611865614777565b602002602001015189858151811061187f5761187f614777565b602002602001015189868151811061189957611899614777565b60200260200101518987815181106118b3576118b3614777565b60200260200101518988815181106118cd576118cd614777565b602002602001015161296d565b806118e4816147cd565b915050611828565b5061010480549060006118fe836147cd565b919050555050505050505050505050505050505050565b600054610100900460ff16158080156119355750600054600160ff909116105b8061194f5750303b15801561194f575060005460ff166001145b6119b25760405162461bcd60e51b815260206004820152602e60248201527f496e697469616c697a61626c653a20636f6e747261637420697320616c72656160448201526d191e481a5b9a5d1a585b1a5e995960921b606482015260840161085a565b6000805460ff1916600117905580156119d5576000805461ff0019166101001790555b611a3385858080601f016020809104026020016040519081016040528093929190818152602001838380828437600092019190915250506040805180820190915260078152665055424c49555360c81b602082015291506131579050565b611a3b613188565b611a4488612d5c565b88600003611aa05760405162461bcd60e51b815260206004820152602360248201527f5075626c6975733a205075626c69636174696f6e2049442063616e6e6f74206260448201526206520360ec1b606482015260840161085a565b6001600160a01b038816611b0e5760405162461bcd60e51b815260206004820152602f60248201527f5075626c6975733a205075626c69636174696f6e20617574686f722063616e6e60448201526e6f742062652030206164647265737360881b606482015260840161085a565b604051602001611b2990602080825260009082015260400190565b604051602081830303815290604052805190602001208585604051602001611b52929190614689565b6040516020818303038152906040528051906020012003611bc75760405162461bcd60e51b815260206004820152602960248201527f5075626c6975733a205075626c69636174696f6e206e616d652063616e6e6f7460448201526820626520656d70747960b81b606482015260840161085a565b604051602001611be290602080825260009082015260400190565b604051602081830303815290604052805190602001208787604051602001611c0b929190614689565b6040516020818303038152906040528051906020012003611c3e5760405162461bcd60e51b815260040161085a90614ac9565b604051602001611c5990602080825260009082015260400190565b604051602081830303815290604052805190602001208383604051602001611c82929190614689565b6040516020818303038152906040528051906020012003611cfe5760405162461bcd60e51b815260206004820152603060248201527f5075626c6975733a205075626c69636174696f6e20636f76657220696d61676560448201526f2063616e6e6f7420626520656d70747960801b606482015260840161085a565b604051602001611d1990602080825260009082015260400190565b604051602081830303815290604052805190602001208787604051602001611d42929190614689565b6040516020818303038152906040528051906020012003611d755760405162461bcd60e51b815260040161085a90614ac9565b60fb899055610100611d888587836146b8565b5061010180546001600160a01b0319166001600160a01b038a16179055610103611db38385836146b8565b50610102611dc28789836146b8565b508015611e09576000805461ff0019169055604051600181527f7f26b83ff96e1f2b6a682f133852f6798a09c465da95921460cefb38474024989060200160405180910390a15b505050505050505050565b60006001600160a01b038216611e7e5760405162461bcd60e51b815260206004820152602960248201527f4552433732313a2061646472657373207a65726f206973206e6f7420612076616044820152683634b21037bbb732b960b91b606482015260840161085a565b506001600160a01b031660009081526068602052604090205490565b611ea2612e9f565b611eac60006131b7565b565b6101008054611ebc906144c6565b80601f0160208091040260200160405190810160405280929190818152602001828054611ee8906144c6565b8015611f355780601f10611f0a57610100808354040283529160200191611f35565b820191906000526020600020905b815481529060010190602001808311611f1857829003601f168201915b505050505081565b606060668054610778906144c6565b611f5d81662386f26fc100006147b6565b341015611fa25760405162461bcd60e51b8152602060048201526013602482015272139bdd08195b9bdd59da08115512081cd95b9d606a1b604482015260640161085a565b60005b8181101561201c576000611fb860995490565b611fc39060016147a3565b9050611fcf3382613209565b600081815260fc6020908152604080832080546001600160a01b03191633908117909155835260fd8252822080546001810182559083529120015580612014816147cd565b915050611fa5565b5050565b61201c3383836133a2565b6120353383612f67565b6120515760405162461bcd60e51b815260040161085a9061463c565b61205d84848484613470565b50505050565b6000818152606760205260409020546060906001600160a01b03166120c15760405162461bcd60e51b8152602060048201526014602482015273151bdad95b88191bd95cc81b9bdd08195e1a5cdd60621b604482015260640161085a565b6000604051806040016040528060018152602001607b60f81b8152509050806101006101026101036040516020016120fc9493929190614b8c565b60408051601f19818403018152919052905060015b6101045481116123fb57600081815260fe60205260408120600181015490919061213a906134a3565b604051612151919084906002820190602001614c27565b604051602081830303815290604052905060005b600383015481101561237157600083600301828154811061218857612188614777565b90600052602060002001549050600060ff6000838152602001908152602001600020905060006121bb82600101546134a3565b6040516121d2919084906002820190602001614ccc565b604051602081830303815290604052905060005b60048301548110156122d757600083600301600085600401848154811061220f5761220f614777565b906000526020600020015481526020019081526020016000209050600061223982600101546134a3565b604051612250919084906002820190602001614d6e565b60408051601f19818403018152919052600486015490915061227490600190614dfe565b83101561229e578060405160200161228c9190614e11565b60405160208183030381529060405290505b83816040516020016122b1929190614e36565b6040516020818303038152906040529350505080806122cf906147cd565b9150506121e6565b50806040516020016122e99190614e65565b60408051601f19818403018152919052600387015490915061230d90600190614dfe565b84101561233757806040516020016123259190614e11565b60405160208183030381529060405290505b848160405160200161234a929190614e36565b60405160208183030381529060405294505050508080612369906147cd565b915050612165565b50806040516020016123839190614e65565b6040516020818303038152906040529050610104548310156123c257806040516020016123b09190614e11565b60405160208183030381529060405290505b83816040516020016123d5929190614e36565b6040516020818303038152906040529350505080806123f3906147cd565b915050612111565b508060405160200161240d9190614e65565b60408051601f19818403018152919052905080600061242b826135b0565b90508060405160200161243e9190614e8b565b6040516020818303038152906040529350505050919050565b61245f612e9f565b60405160200161247a90602080825260009082015260400190565b60408051601f198184030181528282528051602091820120600088815260ff83529290922091926124ac929101614ed0565b60405160208183030381529060405280519060200120036124df5760405162461bcd60e51b815260040161085a90614500565b6040516020016124fa90602080825260009082015260400190565b60405160208183030381529060405280519060200120836040516020016125219190613c27565b604051602081830303815290604052805190602001200361258f5760405162461bcd60e51b815260206004820152602260248201527f5075626c6975733a2050616765206e616d652063616e6e6f7420626520656d70604482015261747960f01b606482015260840161085a565b806000036125df5760405162461bcd60e51b815260206004820152601c60248201527f5075626c6975733a20506167652049442063616e6e6f74206265203000000000604482015260640161085a565b6040516020016125fa90602080825260009082015260400190565b60405160208183030381529060405280519060200120826040516020016126219190613c27565b60405160208183030381529060405280519060200120036126545760405162461bcd60e51b815260040161085a90614f5b565b600084815260ff60209081526040808320848452600301909152902060010154156126c15760405162461bcd60e51b815260206004820152601c60248201527f5075626c6975733a205061676520616c72656164792065786973747300000000604482015260640161085a565b600084815260ff60209081526040808320815160608101835287815280840186905280830187905285855260038201909352922081518190612703908261457d565b506020820151600182015560408201516002820190612722908261457d565b5050506004018054600181018255600091825260209091200155505050565b6101038054611ebc906144c6565b61277360405180606001604052806060815260200160008152602001606081525090565b600083815260ff6020908152604080832085845260038101909252918290208251606081019093528054919291829082906127ad906144c6565b80601f01602080910402602001604051908101604052809291908181526020018280546127d9906144c6565b80156128265780601f106127fb57610100808354040283529160200191612826565b820191906000526020600020905b81548152906001019060200180831161280957829003601f168201915b5050505050815260200160018201548152602001600282018054612849906144c6565b80601f0160208091040260200160405190810160405280929190818152602001828054612875906144c6565b80156128c25780601f10612897576101008083540402835291602001916128c2565b820191906000526020600020905b8154815290600101906020018083116128a557829003601f168201915b50505050508152505091505092915050565b600081815260ff6020908152604091829020600481018054845181850281018501909552808552606094929383018282801561292f57602002820191906000526020600020905b81548152602001906001019080831161291b575b5050505050915050919050565b60fd602052816000526040600020818154811061295857600080fd5b90600052602060002001600091509150505481565b612975612e9f565b600087815260fe602052604081206001015490036129d55760405162461bcd60e51b815260206004820152601f60248201527f5075626c6975733a2053656374696f6e20646f6573206e6f7420657869737400604482015260640161085a565b600084815260ff602052604090206001015415806129fa57506129f88488613702565b155b612a465760405162461bcd60e51b815260206004820152601f60248201527f5075626c6975733a204368617074657220616c72656164792065786973747300604482015260640161085a565b83600003612a965760405162461bcd60e51b815260206004820152601f60248201527f5075626c6975733a20436861707465722049442063616e6e6f74206265203000604482015260640161085a565b604051602001612ab190602080825260009082015260400190565b6040516020818303038152906040528051906020012086604051602001612ad89190613c27565b6040516020818303038152906040528051906020012003612b495760405162461bcd60e51b815260206004820152602560248201527f5075626c6975733a2043686170746572206e616d652063616e6e6f7420626520604482015264656d70747960d81b606482015260840161085a565b8251600003612b6a5760405162461bcd60e51b815260040161085a90614a45565b8051600003612b8b5760405162461bcd60e51b815260040161085a90614a88565b8151600003612bac5760405162461bcd60e51b815260040161085a90614f5b565b8151835114612c235760405162461bcd60e51b815260206004820152603760248201527f5075626c6975733a2050616765206e616d657320616e6420636f6e74656e742060448201527f6d757374206265207468652073616d65206c656e677468000000000000000000606482015260840161085a565b8051835114612c905760405162461bcd60e51b815260206004820152603360248201527f5075626c6975733a2050616765206e616d657320616e6420494473206d757374604482015272040c4ca40e8d0ca40e6c2daca40d8cadccee8d606b1b606482015260840161085a565b600084815260ff6020526040902080612ca9888261457d565b506001810185905560028101612cbf878261457d565b50600088815260fe6020908152604082206003018054600181018255908352908220018690555b8451811015611e0957612d4a8260010154868381518110612d0957612d09614777565b6020026020010151868481518110612d2357612d23614777565b6020026020010151868581518110612d3d57612d3d614777565b6020026020010151612457565b80612d54816147cd565b915050612ce6565b612d64612e9f565b6001600160a01b038116612dc95760405162461bcd60e51b815260206004820152602660248201527f4f776e61626c653a206e6577206f776e657220697320746865207a65726f206160448201526564647265737360d01b606482015260840161085a565b612dd2816131b7565b50565b60ff60205260009081526040902080548190610c81906144c6565b60006001600160e01b031982166380ac58cd60e01b1480612e2157506001600160e01b03198216635b5e139f60e01b145b8061076357506301ffc9a760e01b6001600160e01b0319831614610763565b6000818152606760205260409020546001600160a01b0316612dd25760405162461bcd60e51b8152602060048201526018602482015277115490cdcc8c4e881a5b9d985b1a59081d1bdad95b88125160421b604482015260640161085a565b60c9546001600160a01b03163314611eac5760405162461bcd60e51b815260206004820181905260248201527f4f776e61626c653a2063616c6c6572206973206e6f7420746865206f776e6572604482015260640161085a565b600081815260696020526040902080546001600160a01b0319166001600160a01b0384169081179091558190612f2e82611415565b6001600160a01b03167f8c5be1e5ebec7d5bd14f71427d1e84f3dd0314c0f7b2291e5b200ac8c7c3b92560405160405180910390a45050565b600080612f7383611415565b9050806001600160a01b0316846001600160a01b03161480612fba57506001600160a01b038082166000908152606a602090815260408083209388168352929052205460ff165b80612fde5750836001600160a01b0316612fd3846107fb565b6001600160a01b0316145b949350505050565b826001600160a01b0316612ff982611415565b6001600160a01b03161461301f5760405162461bcd60e51b815260040161085a90614fa0565b6001600160a01b0382166130815760405162461bcd60e51b8152602060048201526024808201527f4552433732313a207472616e7366657220746f20746865207a65726f206164646044820152637265737360e01b606482015260840161085a565b61308e838383600161376f565b826001600160a01b03166130a182611415565b6001600160a01b0316146130c75760405162461bcd60e51b815260040161085a90614fa0565b600081815260696020908152604080832080546001600160a01b03199081169091556001600160a01b0387811680865260688552838620805460001901905590871680865283862080546001019055868652606790945282852080549092168417909155905184937fddf252ad1be2c89b69c2b068fc378daa952ba7f163c4a11628f55a4df523b3ef91a4505050565b600054610100900460ff1661317e5760405162461bcd60e51b815260040161085a90614fe5565b61201c828261389c565b600054610100900460ff166131af5760405162461bcd60e51b815260040161085a90614fe5565b611eac6138dc565b60c980546001600160a01b038381166001600160a01b0319831681179093556040519116919082907f8be0079c531659141344cd1fd0a4f28419497f9722a3daafe3b4186f6b6457e090600090a35050565b6001600160a01b03821661325f5760405162461bcd60e51b815260206004820181905260248201527f4552433732313a206d696e7420746f20746865207a65726f2061646472657373604482015260640161085a565b6000818152606760205260409020546001600160a01b0316156132c45760405162461bcd60e51b815260206004820152601c60248201527f4552433732313a20746f6b656e20616c7265616479206d696e74656400000000604482015260640161085a565b6132d260008383600161376f565b6000818152606760205260409020546001600160a01b0316156133375760405162461bcd60e51b815260206004820152601c60248201527f4552433732313a20746f6b656e20616c7265616479206d696e74656400000000604482015260640161085a565b6001600160a01b038216600081815260686020908152604080832080546001019055848352606790915280822080546001600160a01b0319168417905551839291907fddf252ad1be2c89b69c2b068fc378daa952ba7f163c4a11628f55a4df523b3ef908290a45050565b816001600160a01b0316836001600160a01b0316036134035760405162461bcd60e51b815260206004820152601960248201527f4552433732313a20617070726f766520746f2063616c6c657200000000000000604482015260640161085a565b6001600160a01b038381166000818152606a6020908152604080832094871680845294825291829020805460ff191686151590811790915591519182527f17307eab39ab6107e8899845ad3d59bd9653f200f220920489ca2b5937696c31910160405180910390a3505050565b61347b848484612fe6565b6134878484848461390c565b61205d5760405162461bcd60e51b815260040161085a90615030565b6060816000036134ca5750506040805180820190915260018152600360fc1b602082015290565b8160005b81156134f457806134de816147cd565b91506134ed9050600a83615098565b91506134ce565b6000816001600160401b0381111561350e5761350e613c53565b6040519080825280601f01601f191660200182016040528015613538576020820181803683370190505b509050815b851561140c5761354e600182614dfe565b9050600061355d600a886150ac565b6135689060306150c0565b905060008160f81b90508084848151811061358557613585614777565b60200101906001600160f81b031916908160001a9053506135a7600a89615098565b9750505061353d565b606081516000036135cf57505060408051602081019091526000815290565b600060405180606001604052806040815260200161514060409139905060006003845160026135fe91906147a3565b6136089190615098565b6136139060046147b6565b6001600160401b0381111561362a5761362a613c53565b6040519080825280601f01601f191660200182016040528015613654576020820181803683370190505b509050600182016020820185865187015b808210156136c0576003820191508151603f8160121c168501518453600184019350603f81600c1c168501518453600184019350603f8160061c168501518453600184019350603f8116850151845350600183019250613665565b50506003865106600181146136dc57600281146136ef576136f7565b603d6001830353603d60028303536136f7565b603d60018303535b509195945050505050565b600082815260fe602052604081206003810154825b81811015613763578483600301828154811061373557613735614777565b9060005260206000200154036137515760019350505050610763565b8061375b816147cd565b915050613717565b50600095945050505050565b60018111156137de5760405162461bcd60e51b815260206004820152603560248201527f455243373231456e756d657261626c653a20636f6e7365637574697665207472604482015274185b9cd9995c9cc81b9bdd081cdd5c1c1bdc9d1959605a1b606482015260840161085a565b816001600160a01b03851661383a5761383581609980546000838152609a60205260408120829055600182018355919091527f72a152ddfb8e864297c917af52ea6c1c68aead0fee1a62673fcc7e0c94979d000155565b61385d565b836001600160a01b0316856001600160a01b03161461385d5761385d8582613a0d565b6001600160a01b0384166138795761387481613aaa565b610f82565b846001600160a01b0316846001600160a01b031614610f8257610f828482613b59565b600054610100900460ff166138c35760405162461bcd60e51b815260040161085a90614fe5565b60656138cf838261457d565b506066610b9a828261457d565b600054610100900460ff166139035760405162461bcd60e51b815260040161085a90614fe5565b611eac336131b7565b60006001600160a01b0384163b15613a0257604051630a85bd0160e11b81526001600160a01b0385169063150b7a02906139509033908990889088906004016150d9565b6020604051808303816000875af192505050801561398b575060408051601f3d908101601f191682019092526139889181019061510c565b60015b6139e8573d8080156139b9576040519150601f19603f3d011682016040523d82523d6000602084013e6139be565b606091505b5080516000036139e05760405162461bcd60e51b815260040161085a90615030565b805181602001fd5b6001600160e01b031916630a85bd0160e11b149050612fde565b506001949350505050565b60006001613a1a84611e14565b613a249190614dfe565b600083815260986020526040902054909150808214613a77576001600160a01b03841660009081526097602090815260408083208584528252808320548484528184208190558352609890915290208190555b5060009182526098602090815260408084208490556001600160a01b039094168352609781528383209183525290812055565b609954600090613abc90600190614dfe565b6000838152609a602052604081205460998054939450909284908110613ae457613ae4614777565b906000526020600020015490508060998381548110613b0557613b05614777565b6000918252602080832090910192909255828152609a90915260408082208490558582528120556099805480613b3d57613b3d615129565b6001900381819060005260206000200160009055905550505050565b6000613b6483611e14565b6001600160a01b039093166000908152609760209081526040808320868452825280832085905593825260989052919091209190915550565b6001600160e01b031981168114612dd257600080fd5b600060208284031215613bc557600080fd5b8135613bd081613b9d565b9392505050565b60005b83811015613bf2578181015183820152602001613bda565b50506000910152565b60008151808452613c13816020860160208601613bd7565b601f01601f19169290920160200192915050565b602081526000613bd06020830184613bfb565b600060208284031215613c4c57600080fd5b5035919050565b634e487b7160e01b600052604160045260246000fd5b604051601f8201601f191681016001600160401b0381118282101715613c9157613c91613c53565b604052919050565b60006001600160401b03831115613cb257613cb2613c53565b613cc5601f8401601f1916602001613c69565b9050828152838383011115613cd957600080fd5b828260208301376000602084830101529392505050565b600082601f830112613d0157600080fd5b613bd083833560208501613c99565b60008060008060808587031215613d2657600080fd5b843593506020850135925060408501356001600160401b0380821115613d4b57600080fd5b613d5788838901613cf0565b93506060870135915080821115613d6d57600080fd5b50613d7a87828801613cf0565b91505092959194509250565b80356001600160a01b0381168114613d9d57600080fd5b919050565b60008060408385031215613db557600080fd5b613dbe83613d86565b946020939093013593505050565b600080600060608486031215613de157600080fd5b613dea84613d86565b9250613df860208501613d86565b9150604084013590509250925092565b606081526000613e1b6060830186613bfb565b8460208401528281036040840152613e338185613bfb565b9695505050505050565b600080600060608486031215613e5257600080fd5b8335925060208401356001600160401b0380821115613e7057600080fd5b613e7c87838801613cf0565b93506040860135915080821115613e9257600080fd5b50613e9f86828701613cf0565b9150509250925092565b60008083601f840112613ebb57600080fd5b5081356001600160401b03811115613ed257600080fd5b602083019150836020828501011115613eea57600080fd5b9250929050565b600080600080600060608688031215613f0957600080fd5b8535945060208601356001600160401b0380821115613f2757600080fd5b613f3389838a01613ea9565b90965094506040880135915080821115613f4c57600080fd5b50613f5988828901613ea9565b969995985093965092949392505050565b600060208284031215613f7c57600080fd5b613bd082613d86565b60008060008060008060608789031215613f9e57600080fd5b86356001600160401b0380821115613fb557600080fd5b613fc18a838b01613ea9565b90985096506020890135915080821115613fda57600080fd5b613fe68a838b01613ea9565b90965094506040890135915080821115613fff57600080fd5b5061400c89828a01613ea9565b979a9699509497509295939492505050565b60008060008060008060008060a0898b03121561403a57600080fd5b8835975061404a60208a01613d86565b965060408901356001600160401b038082111561406657600080fd5b6140728c838d01613ea9565b909850965060608b013591508082111561408b57600080fd5b6140978c838d01613ea9565b909650945060808b01359150808211156140b057600080fd5b506140bd8b828c01613ea9565b999c989b5096995094979396929594505050565b600080604083850312156140e457600080fd5b6140ed83613d86565b91506020830135801515811461410257600080fd5b809150509250929050565b6000806000806080858703121561412357600080fd5b61412c85613d86565b935061413a60208601613d86565b92506040850135915060608501356001600160401b0381111561415c57600080fd5b8501601f8101871361416d57600080fd5b613d7a87823560208401613c99565b6000806000806080858703121561419257600080fd5b8435935060208501356001600160401b03808211156141b057600080fd5b6141bc88838901613cf0565b945060408701359150808211156141d257600080fd5b506141df87828801613cf0565b949793965093946060013593505050565b6000806040838503121561420357600080fd5b50508035926020909101359150565b60208152600082516060602084015261422e6080840182613bfb565b9050602084015160408401526040840151601f198483030160608501526142558282613bfb565b95945050505050565b6020808252825182820181905260009190848201906040850190845b818110156142965783518352928401929184019160010161427a565b50909695505050505050565b60006001600160401b038211156142bb576142bb613c53565b5060051b60200190565b600082601f8301126142d657600080fd5b813560206142eb6142e6836142a2565b613c69565b82815260059290921b8401810191818101908684111561430a57600080fd5b8286015b848110156143495780356001600160401b0381111561432d5760008081fd5b61433b8986838b0101613cf0565b84525091830191830161430e565b509695505050505050565b600082601f83011261436557600080fd5b813560206143756142e6836142a2565b82815260059290921b8401810191818101908684111561439457600080fd5b8286015b848110156143495780358352918301918301614398565b600080600080600080600060e0888a0312156143ca57600080fd5b8735965060208801356001600160401b03808211156143e857600080fd5b6143f48b838c01613cf0565b975060408a013591508082111561440a57600080fd5b6144168b838c01613cf0565b965060608a0135955060808a013591508082111561443357600080fd5b61443f8b838c016142c5565b945060a08a013591508082111561445557600080fd5b6144618b838c016142c5565b935060c08a013591508082111561447757600080fd5b506144848a828b01614354565b91505092959891949750929550565b600080604083850312156144a657600080fd5b6144af83613d86565b91506144bd60208401613d86565b90509250929050565b600181811c908216806144da57607f821691505b6020821081036144fa57634e487b7160e01b600052602260045260246000fd5b50919050565b6020808252601f908201527f5075626c6975733a204368617074657220646f6573206e6f7420657869737400604082015260600190565b601f821115610b9a57600081815260208120601f850160051c8101602086101561455e5750805b601f850160051c820191505b81811015610a825782815560010161456a565b81516001600160401b0381111561459657614596613c53565b6145aa816145a484546144c6565b84614537565b602080601f8311600181146145df57600084156145c75750858301515b600019600386901b1c1916600185901b178555610a82565b600085815260208120601f198616915b8281101561460e578886015182559484019460019091019084016145ef565b508582101561462c5787850151600019600388901b60f8161c191681555b5050505050600190811b01905550565b6020808252602d908201527f4552433732313a2063616c6c6572206973206e6f7420746f6b656e206f776e6560408201526c1c881bdc88185c1c1c9bdd9959609a1b606082015260800190565b60208152816020820152818360408301376000818301604090810191909152601f909201601f19160101919050565b6001600160401b038311156146cf576146cf613c53565b6146e3836146dd83546144c6565b83614537565b6000601f84116001811461471757600085156146ff5750838201355b600019600387901b1c1916600186901b178355610f82565b600083815260209020601f19861690835b828110156147485786850135825560209485019460019092019101614728565b50868210156147655760001960f88860031b161c19848701351681555b505060018560011b0183555050505050565b634e487b7160e01b600052603260045260246000fd5b634e487b7160e01b600052601160045260246000fd5b808201808211156107635761076361478d565b80820281158282048414176107635761076361478d565b6000600182016147df576147df61478d565b5060010190565b6000806000606084860312156147fb57600080fd5b83356001600160401b038082111561481257600080fd5b61481e87838801613cf0565b9450602086013591508082111561483457600080fd5b5061484186828701613cf0565b925050604084013590509250925092565b60008060006060848603121561486757600080fd5b83356001600160401b038082111561487e57600080fd5b61488a878388016142c5565b945060208601359150808211156148a057600080fd5b6148ac878388016142c5565b935060408601359150808211156148c257600080fd5b50613e9f86828701614354565b600082601f8301126148e057600080fd5b813560206148f06142e6836142a2565b82815260059290921b8401810191818101908684111561490f57600080fd5b8286015b848110156143495780356001600160401b038111156149325760008081fd5b6149408986838b01016142c5565b845250918301918301614913565b60008060006060848603121561496357600080fd5b83356001600160401b038082111561497a57600080fd5b614986878388016148cf565b945060209150818601358181111561499d57600080fd5b6149a9888289016148cf565b9450506040860135818111156149be57600080fd5b8601601f810188136149cf57600080fd5b80356149dd6142e6826142a2565b81815260059190911b8201840190848101908a8311156149fc57600080fd5b8584015b83811015614a3457803586811115614a185760008081fd5b614a268d8983890101614354565b845250918601918601614a00565b508096505050505050509250925092565b60208082526023908201527f5075626c6975733a2050616765206e616d65732063616e6e6f7420626520656d60408201526270747960e81b606082015260800190565b60208082526021908201527f5075626c6975733a2050616765204944732063616e6e6f7420626520656d70746040820152607960f81b606082015260800190565b60208082526030908201527f5075626c6975733a205075626c69636174696f6e20617574686f72206e616d6560408201526f2063616e6e6f7420626520656d70747960801b606082015260800190565b60008154614b26816144c6565b60018281168015614b3e5760018114614b5357614b82565b60ff1984168752821515830287019450614b82565b8560005260208060002060005b85811015614b795781548a820152908401908201614b60565b50505082870194505b5050505092915050565b60008551614b9e818460208a01613bd7565b68113730b6b2911d101160b91b908301908152614bbe6009820187614b19565b6d1116101130baba3437b9111d101160911b81529050614be1600e820186614b19565b6c1116101134b6b0b3b2911d101160991b81529050614c03600d820185614b19565b6f222c202273656374696f6e73223a205b60801b8152601001979650505050505050565b6f3d901139b2b1ba34b7b724b2111d101160811b81528351600090614c53816010850160208901613bd7565b721116101139b2b1ba34b7b72730b6b2911d101160691b601091840191820152614c806023820186614b19565b731116101139b2b1ba34b7b724b6b0b3b2911d101160611b81529050614ca96014820185614b19565b6f222c20226368617074657273223a205b60801b81526010019695505050505050565b6f3d901131b430b83a32b924b2111d101160811b81528351600090614cf8816010850160208901613bd7565b721116101131b430b83a32b92730b6b2911d101160691b601091840191820152614d256023820186614b19565b731116101131b430b83a32b924b6b0b3b2911d101160611b81529050614d4e6014820185614b19565b6c222c20227061676573223a205b60981b8152600d019695505050505050565b6c3d90113830b3b2a4b2111d101160991b81528351600090614d9781600d850160208901613bd7565b6f111610113830b3b2a730b6b2911d101160811b600d91840191820152614dc1601d820186614b19565b72111610113830b3b2a1b7b73a32b73a111d101160691b81529050614de96013820185614b19565b61227d60f01b81526002019695505050505050565b818103818111156107635761076361478d565b60008251614e23818460208701613bd7565b600b60fa1b920191825250600101919050565b60008351614e48818460208801613bd7565b835190830190614e5c818360208801613bd7565b01949350505050565b60008251614e77818460208701613bd7565b615d7d60f01b920191825250600201919050565b7f646174613a6170706c69636174696f6e2f6a736f6e3b6261736536342c000000815260008251614ec381601d850160208701613bd7565b91909101601d0192915050565b6000602080835260008454614ee4816144c6565b80848701526040600180841660008114614f055760018114614f1f57614f4d565b60ff1985168984015283151560051b890183019550614f4d565b896000528660002060005b85811015614f455781548b8201860152908301908801614f2a565b8a0184019650505b509398975050505050505050565b60208082526025908201527f5075626c6975733a205061676520636f6e74656e742063616e6e6f7420626520604082015264656d70747960d81b606082015260800190565b60208082526025908201527f4552433732313a207472616e736665722066726f6d20696e636f72726563742060408201526437bbb732b960d91b606082015260800190565b6020808252602b908201527f496e697469616c697a61626c653a20636f6e7472616374206973206e6f74206960408201526a6e697469616c697a696e6760a81b606082015260800190565b60208082526032908201527f4552433732313a207472616e7366657220746f206e6f6e20455243373231526560408201527131b2b4bb32b91034b6b83632b6b2b73a32b960711b606082015260800190565b634e487b7160e01b600052601260045260246000fd5b6000826150a7576150a7615082565b500490565b6000826150bb576150bb615082565b500690565b60ff81811683821601908111156107635761076361478d565b6001600160a01b0385811682528416602082015260408101839052608060608201819052600090613e3390830184613bfb565b60006020828403121561511e57600080fd5b8151613bd081613b9d565b634e487b7160e01b600052603160045260246000fdfe4142434445464748494a4b4c4d4e4f505152535455565758595a6162636465666768696a6b6c6d6e6f707172737475767778797a303132333435363738392b2fa2646970667358221220df99495cea2a8d519fb2ec10021855dcf1ed99b3cc49a9ef21b25511a87d89f664736f6c63430008120033",
  "linkReferences": {},
  "deployedLinkReferences": {}
}