{
  "_format": "hh-sol-artifact-1",
  "contractName": "Publius",
  "sourceName": "contracts/Publius.sol",
  "abi": [
    {
      "anonymous": false,
      "inputs": [
        {
          "indexed": true,
          "internalType": "address",
          "name": "owner",
          "type": "address"
        },
        {
          "indexed": true,
          "internalType": "address",
          "name": "approved",
          "type": "address"
        },
        {
          "indexed": true,
          "internalType": "uint256",
          "name": "tokenId",
          "type": "uint256"
        }
      ],
      "name": "Approval",
      "type": "event"
    },
    {
      "anonymous": false,
      "inputs": [
        {
          "indexed": true,
          "internalType": "address",
          "name": "owner",
          "type": "address"
        },
        {
          "indexed": true,
          "internalType": "address",
          "name": "operator",
          "type": "address"
        },
        {
          "indexed": false,
          "internalType": "bool",
          "name": "approved",
          "type": "bool"
        }
      ],
      "name": "ApprovalForAll",
      "type": "event"
    },
    {
      "anonymous": false,
      "inputs": [
        {
          "indexed": false,
          "internalType": "uint8",
          "name": "version",
          "type": "uint8"
        }
      ],
      "name": "Initialized",
      "type": "event"
    },
    {
      "anonymous": false,
      "inputs": [
        {
          "indexed": true,
          "internalType": "address",
          "name": "previousOwner",
          "type": "address"
        },
        {
          "indexed": true,
          "internalType": "address",
          "name": "newOwner",
          "type": "address"
        }
      ],
      "name": "OwnershipTransferred",
      "type": "event"
    },
    {
      "anonymous": false,
      "inputs": [
        {
          "indexed": true,
          "internalType": "address",
          "name": "from",
          "type": "address"
        },
        {
          "indexed": true,
          "internalType": "address",
          "name": "to",
          "type": "address"
        },
        {
          "indexed": true,
          "internalType": "uint256",
          "name": "tokenId",
          "type": "uint256"
        }
      ],
      "name": "Transfer",
      "type": "event"
    },
    {
      "inputs": [
        {
          "internalType": "string",
          "name": "_chapterName",
          "type": "string"
        },
        {
          "internalType": "string",
          "name": "_chapterImage",
          "type": "string"
        },
        {
          "internalType": "uint256",
          "name": "_chapterId",
          "type": "uint256"
        },
        {
          "internalType": "string[]",
          "name": "_pageNames",
          "type": "string[]"
        },
        {
          "internalType": "string[]",
          "name": "_pageContent",
          "type": "string[]"
        }
      ],
      "name": "addChapter",
      "outputs": [],
      "stateMutability": "nonpayable",
      "type": "function"
    },
    {
      "inputs": [
        {
          "internalType": "uint256",
          "name": "_chapter",
          "type": "uint256"
        },
        {
          "internalType": "string",
          "name": "_pageName",
          "type": "string"
        },
        {
          "internalType": "string",
          "name": "_pageContent",
          "type": "string"
        }
      ],
      "name": "addPage",
      "outputs": [],
      "stateMutability": "nonpayable",
      "type": "function"
    },
    {
      "inputs": [
        {
          "internalType": "bytes",
          "name": "_sectionInfo",
          "type": "bytes"
        },
        {
          "internalType": "bytes",
          "name": "_chapterInfo",
          "type": "bytes"
        },
        {
          "internalType": "bytes",
          "name": "_pageInfo",
          "type": "bytes"
        }
      ],
      "name": "addSection",
      "outputs": [],
      "stateMutability": "nonpayable",
      "type": "function"
    },
    {
      "inputs": [
        {
          "internalType": "address",
          "name": "_address",
          "type": "address"
        }
      ],
      "name": "addressToString",
      "outputs": [
        {
          "internalType": "string",
          "name": "",
          "type": "string"
        }
      ],
      "stateMutability": "pure",
      "type": "function"
    },
    {
      "inputs": [
        {
          "internalType": "address",
          "name": "to",
          "type": "address"
        },
        {
          "internalType": "uint256",
          "name": "tokenId",
          "type": "uint256"
        }
      ],
      "name": "approve",
      "outputs": [],
      "stateMutability": "nonpayable",
      "type": "function"
    },
    {
      "inputs": [
        {
          "internalType": "address",
          "name": "owner",
          "type": "address"
        }
      ],
      "name": "balanceOf",
      "outputs": [
        {
          "internalType": "uint256",
          "name": "",
          "type": "uint256"
        }
      ],
      "stateMutability": "view",
      "type": "function"
    },
    {
      "inputs": [
        {
          "internalType": "uint256",
          "name": "",
          "type": "uint256"
        }
      ],
      "name": "chapters",
      "outputs": [
        {
          "internalType": "string",
          "name": "chapterName",
          "type": "string"
        },
        {
          "internalType": "uint256",
          "name": "chapterId",
          "type": "uint256"
        },
        {
          "internalType": "string",
          "name": "chapterImage",
          "type": "string"
        },
        {
          "internalType": "uint256",
          "name": "pageCount",
          "type": "uint256"
        }
      ],
      "stateMutability": "view",
      "type": "function"
    },
    {
      "inputs": [
        {
          "internalType": "uint256",
          "name": "tokenId",
          "type": "uint256"
        }
      ],
      "name": "getApproved",
      "outputs": [
        {
          "internalType": "address",
          "name": "",
          "type": "address"
        }
      ],
      "stateMutability": "view",
      "type": "function"
    },
    {
      "inputs": [
        {
          "internalType": "uint256",
          "name": "_chapter",
          "type": "uint256"
        },
        {
          "internalType": "uint256",
          "name": "_pageId",
          "type": "uint256"
        }
      ],
      "name": "getPage",
      "outputs": [
        {
          "components": [
            {
              "internalType": "string",
              "name": "pageName",
              "type": "string"
            },
            {
              "internalType": "uint256",
              "name": "pageId",
              "type": "uint256"
            },
            {
              "internalType": "string",
              "name": "pageContent",
              "type": "string"
            }
          ],
          "internalType": "struct Publius.Page",
          "name": "",
          "type": "tuple"
        }
      ],
      "stateMutability": "view",
      "type": "function"
    },
    {
      "inputs": [
        {
          "internalType": "address",
          "name": "_publicationAuthor",
          "type": "address"
        },
        {
          "internalType": "string",
          "name": "_publicationName",
          "type": "string"
        },
        {
          "internalType": "string",
          "name": "_publicationCoverImage",
          "type": "string"
        }
      ],
      "name": "initialize",
      "outputs": [],
      "stateMutability": "nonpayable",
      "type": "function"
    },
    {
      "inputs": [
        {
          "internalType": "address",
          "name": "owner",
          "type": "address"
        },
        {
          "internalType": "address",
          "name": "operator",
          "type": "address"
        }
      ],
      "name": "isApprovedForAll",
      "outputs": [
        {
          "internalType": "bool",
          "name": "",
          "type": "bool"
        }
      ],
      "stateMutability": "view",
      "type": "function"
    },
    {
      "inputs": [
        {
          "internalType": "uint256",
          "name": "_amount",
          "type": "uint256"
        }
      ],
      "name": "mint",
      "outputs": [],
      "stateMutability": "payable",
      "type": "function"
    },
    {
      "inputs": [
        {
          "internalType": "address",
          "name": "",
          "type": "address"
        },
        {
          "internalType": "uint256",
          "name": "",
          "type": "uint256"
        }
      ],
      "name": "minterOwnedTokens",
      "outputs": [
        {
          "internalType": "uint256",
          "name": "",
          "type": "uint256"
        }
      ],
      "stateMutability": "view",
      "type": "function"
    },
    {
      "inputs": [],
      "name": "name",
      "outputs": [
        {
          "internalType": "string",
          "name": "",
          "type": "string"
        }
      ],
      "stateMutability": "view",
      "type": "function"
    },
    {
      "inputs": [],
      "name": "owner",
      "outputs": [
        {
          "internalType": "address",
          "name": "",
          "type": "address"
        }
      ],
      "stateMutability": "view",
      "type": "function"
    },
    {
      "inputs": [
        {
          "internalType": "uint256",
          "name": "tokenId",
          "type": "uint256"
        }
      ],
      "name": "ownerOf",
      "outputs": [
        {
          "internalType": "address",
          "name": "",
          "type": "address"
        }
      ],
      "stateMutability": "view",
      "type": "function"
    },
    {
      "inputs": [],
      "name": "publicationAuthor",
      "outputs": [
        {
          "internalType": "address",
          "name": "",
          "type": "address"
        }
      ],
      "stateMutability": "view",
      "type": "function"
    },
    {
      "inputs": [],
      "name": "publicationCoverImage",
      "outputs": [
        {
          "internalType": "string",
          "name": "",
          "type": "string"
        }
      ],
      "stateMutability": "view",
      "type": "function"
    },
    {
      "inputs": [],
      "name": "publicationName",
      "outputs": [
        {
          "internalType": "string",
          "name": "",
          "type": "string"
        }
      ],
      "stateMutability": "view",
      "type": "function"
    },
    {
      "inputs": [],
      "name": "renounceOwnership",
      "outputs": [],
      "stateMutability": "nonpayable",
      "type": "function"
    },
    {
      "inputs": [
        {
          "internalType": "address",
          "name": "from",
          "type": "address"
        },
        {
          "internalType": "address",
          "name": "to",
          "type": "address"
        },
        {
          "internalType": "uint256",
          "name": "tokenId",
          "type": "uint256"
        }
      ],
      "name": "safeTransferFrom",
      "outputs": [],
      "stateMutability": "nonpayable",
      "type": "function"
    },
    {
      "inputs": [
        {
          "internalType": "address",
          "name": "from",
          "type": "address"
        },
        {
          "internalType": "address",
          "name": "to",
          "type": "address"
        },
        {
          "internalType": "uint256",
          "name": "tokenId",
          "type": "uint256"
        },
        {
          "internalType": "bytes",
          "name": "data",
          "type": "bytes"
        }
      ],
      "name": "safeTransferFrom",
      "outputs": [],
      "stateMutability": "nonpayable",
      "type": "function"
    },
    {
      "inputs": [
        {
          "internalType": "uint256",
          "name": "",
          "type": "uint256"
        }
      ],
      "name": "sections",
      "outputs": [
        {
          "internalType": "string",
          "name": "sectionName",
          "type": "string"
        },
        {
          "internalType": "uint256",
          "name": "sectionId",
          "type": "uint256"
        },
        {
          "internalType": "string",
          "name": "sectionImage",
          "type": "string"
        }
      ],
      "stateMutability": "view",
      "type": "function"
    },
    {
      "inputs": [
        {
          "internalType": "address",
          "name": "operator",
          "type": "address"
        },
        {
          "internalType": "bool",
          "name": "approved",
          "type": "bool"
        }
      ],
      "name": "setApprovalForAll",
      "outputs": [],
      "stateMutability": "nonpayable",
      "type": "function"
    },
    {
      "inputs": [
        {
          "internalType": "bytes4",
          "name": "interfaceId",
          "type": "bytes4"
        }
      ],
      "name": "supportsInterface",
      "outputs": [
        {
          "internalType": "bool",
          "name": "",
          "type": "bool"
        }
      ],
      "stateMutability": "view",
      "type": "function"
    },
    {
      "inputs": [],
      "name": "symbol",
      "outputs": [
        {
          "internalType": "string",
          "name": "",
          "type": "string"
        }
      ],
      "stateMutability": "view",
      "type": "function"
    },
    {
      "inputs": [
        {
          "internalType": "uint256",
          "name": "index",
          "type": "uint256"
        }
      ],
      "name": "tokenByIndex",
      "outputs": [
        {
          "internalType": "uint256",
          "name": "",
          "type": "uint256"
        }
      ],
      "stateMutability": "view",
      "type": "function"
    },
    {
      "inputs": [
        {
          "internalType": "uint256",
          "name": "",
          "type": "uint256"
        }
      ],
      "name": "tokenIdToMinter",
      "outputs": [
        {
          "internalType": "address",
          "name": "",
          "type": "address"
        }
      ],
      "stateMutability": "view",
      "type": "function"
    },
    {
      "inputs": [
        {
          "internalType": "address",
          "name": "owner",
          "type": "address"
        },
        {
          "internalType": "uint256",
          "name": "index",
          "type": "uint256"
        }
      ],
      "name": "tokenOfOwnerByIndex",
      "outputs": [
        {
          "internalType": "uint256",
          "name": "",
          "type": "uint256"
        }
      ],
      "stateMutability": "view",
      "type": "function"
    },
    {
      "inputs": [
        {
          "internalType": "uint256",
          "name": "tokenId",
          "type": "uint256"
        }
      ],
      "name": "tokenURI",
      "outputs": [
        {
          "internalType": "string",
          "name": "",
          "type": "string"
        }
      ],
      "stateMutability": "view",
      "type": "function"
    },
    {
      "inputs": [],
      "name": "totalSupply",
      "outputs": [
        {
          "internalType": "uint256",
          "name": "",
          "type": "uint256"
        }
      ],
      "stateMutability": "view",
      "type": "function"
    },
    {
      "inputs": [
        {
          "internalType": "address",
          "name": "from",
          "type": "address"
        },
        {
          "internalType": "address",
          "name": "to",
          "type": "address"
        },
        {
          "internalType": "uint256",
          "name": "tokenId",
          "type": "uint256"
        }
      ],
      "name": "transferFrom",
      "outputs": [],
      "stateMutability": "nonpayable",
      "type": "function"
    },
    {
      "inputs": [
        {
          "internalType": "address",
          "name": "newOwner",
          "type": "address"
        }
      ],
      "name": "transferOwnership",
      "outputs": [],
      "stateMutability": "nonpayable",
      "type": "function"
    }
  ],
  "bytecode": "0x608060405234801561001057600080fd5b50613ca8806100206000396000f3fe6080604052600436106101ee5760003560e01c80636b00aba61161010d578063a22cb465116100a0578063cd1a2e911161006f578063cd1a2e911461058e578063db010ae4146105bb578063e985e9c5146105db578063f2fde38b14610624578063f40adb121461064457600080fd5b8063a22cb46514610519578063b88d4fde14610539578063c87b56dd14610559578063ccfea8f01461057957600080fd5b80638da5cb5b116100dc5780638da5cb5b146104b357806390657147146104d157806395d89b41146104f1578063a0712d681461050657600080fd5b80636b00aba61461044957806370a0823114610469578063715018a61461048957806386b4e2a01461049e57600080fd5b80632f745c5911610185578063527c416511610154578063527c4165146103c85780635b92cc8a146103e95780635e57966d146104095780636352211e1461042957600080fd5b80632f745c5914610339578063356034401461035957806342842e0e146103885780634f6ccce7146103a857600080fd5b80630f1f0850116101c15780630f1f0850146102a457806318160ddd146102c45780632218f119146102e357806323b872dd1461031957600080fd5b806301ffc9a7146101f357806306fdde0314610228578063081812fc1461024a578063095ea7b314610282575b600080fd5b3480156101ff57600080fd5b5061021361020e366004612ad4565b610674565b60405190151581526020015b60405180910390f35b34801561023457600080fd5b5061023d61069f565b60405161021f9190612b48565b34801561025657600080fd5b5061026a610265366004612b5b565b610731565b6040516001600160a01b03909116815260200161021f565b34801561028e57600080fd5b506102a261029d366004612b90565b610758565b005b3480156102b057600080fd5b506102a26102bf366004612c02565b610872565b3480156102d057600080fd5b506099545b60405190815260200161021f565b3480156102ef57600080fd5b5061026a6102fe366004612b5b565b60fb602052600090815260409020546001600160a01b031681565b34801561032557600080fd5b506102a2610334366004612c7b565b610a3c565b34801561034557600080fd5b506102d5610354366004612b90565b610a6d565b34801561036557600080fd5b50610379610374366004612b5b565b610b03565b60405161021f93929190612cb7565b34801561039457600080fd5b506102a26103a3366004612c7b565b610c35565b3480156103b457600080fd5b506102d56103c3366004612b5b565b610c50565b3480156103d457600080fd5b506101005461026a906001600160a01b031681565b3480156103f557600080fd5b506102a2610404366004612e5b565b610ce3565b34801561041557600080fd5b5061023d610424366004612f11565b610e4b565b34801561043557600080fd5b5061026a610444366004612b5b565b611036565b34801561045557600080fd5b506102a2610464366004612f2c565b611096565b34801561047557600080fd5b506102d5610484366004612f11565b6112cc565b34801561049557600080fd5b506102a2611352565b3480156104aa57600080fd5b5061023d611366565b3480156104bf57600080fd5b5060c9546001600160a01b031661026a565b3480156104dd57600080fd5b506102a26104ec366004612fc5565b6113f4565b3480156104fd57600080fd5b5061023d6115aa565b6102a2610514366004612b5b565b6115b9565b34801561052557600080fd5b506102a2610534366004613002565b61168d565b34801561054557600080fd5b506102a261055436600461303e565b611698565b34801561056557600080fd5b5061023d610574366004612b5b565b6116d0565b34801561058557600080fd5b5061023d611a8c565b34801561059a57600080fd5b506105ae6105a93660046130b9565b611a9a565b60405161021f91906130db565b3480156105c757600080fd5b506102d56105d6366004612b90565b611c1f565b3480156105e757600080fd5b506102136105f6366004613127565b6001600160a01b039182166000908152606a6020908152604080832093909416825291909152205460ff1690565b34801561063057600080fd5b506102a261063f366004612f11565b611c50565b34801561065057600080fd5b5061066461065f366004612b5b565b611cc9565b60405161021f949392919061315a565b60006001600160e01b0319821663780e9d6360e01b1480610699575061069982611e01565b92915050565b6060606580546106ae90613197565b80601f01602080910402602001604051908101604052809291908181526020018280546106da90613197565b80156107275780601f106106fc57610100808354040283529160200191610727565b820191906000526020600020905b81548152906001019060200180831161070a57829003601f168201915b5050505050905090565b600061073c82611e51565b506000908152606960205260409020546001600160a01b031690565b600061076382611036565b9050806001600160a01b0316836001600160a01b0316036107d55760405162461bcd60e51b815260206004820152602160248201527f4552433732313a20617070726f76616c20746f2063757272656e74206f776e656044820152603960f91b60648201526084015b60405180910390fd5b336001600160a01b03821614806107f157506107f181336105f6565b6108635760405162461bcd60e51b815260206004820152603d60248201527f4552433732313a20617070726f76652063616c6c6572206973206e6f7420746f60448201527f6b656e206f776e6572206f7220617070726f76656420666f7220616c6c00000060648201526084016107cc565b61086d8383611eb0565b505050565b61087a611f1e565b60405160200161089590602080825260009082015260400190565b60408051601f198184030181528282528051602091820120600089815260fe83529290922091926108c79291016131d1565b60405160208183030381529060405280519060200120036109235760405162461bcd60e51b815260206004820152601660248201527510da185c1d195c88191bd95cc81b9bdd08195e1a5cdd60521b60448201526064016107cc565b600085815260fe602090815260409182902082516080601f880184900490930281018301909352606083018681529092918291908890889081908501838280828437600092019190915250505090825250600483015460209091019061098a906001613272565b815260200184848080601f016020809104026020016040519081016040528093929190818152602001838380828437600092018290525093909452505060048401546003850192506109dd906001613272565b81526020810191909152604001600020815181906109fb90826132cb565b506020820151600182015560408201516002820190610a1a90826132cb565b505050600481018054906000610a2f8361338a565b9190505550505050505050565b610a463382611f78565b610a625760405162461bcd60e51b81526004016107cc906133a3565b61086d838383611ff7565b6000610a78836112cc565b8210610ada5760405162461bcd60e51b815260206004820152602b60248201527f455243373231456e756d657261626c653a206f776e657220696e646578206f7560448201526a74206f6620626f756e647360a81b60648201526084016107cc565b506001600160a01b03919091166000908152609760209081526040808320938352929052205490565b60fd60205260009081526040902080548190610b1e90613197565b80601f0160208091040260200160405190810160405280929190818152602001828054610b4a90613197565b8015610b975780601f10610b6c57610100808354040283529160200191610b97565b820191906000526020600020905b815481529060010190602001808311610b7a57829003601f168201915b505050505090806001015490806002018054610bb290613197565b80601f0160208091040260200160405190810160405280929190818152602001828054610bde90613197565b8015610c2b5780601f10610c0057610100808354040283529160200191610c2b565b820191906000526020600020905b815481529060010190602001808311610c0e57829003601f168201915b5050505050905083565b61086d83838360405180602001604052806000815250611698565b6000610c5b60995490565b8210610cbe5760405162461bcd60e51b815260206004820152602c60248201527f455243373231456e756d657261626c653a20676c6f62616c20696e646578206f60448201526b7574206f6620626f756e647360a01b60648201526084016107cc565b60998281548110610cd157610cd16133f0565b90600052602060002001549050919050565b610ceb611f1e565b600083815260fe60205260408120905b8351811015610dda576040518060600160405280858381518110610d2157610d216133f0565b60200260200101518152602001826001610d3b9190613272565b8152602001848381518110610d5257610d526133f0565b6020026020010151815250826003016000836001610d709190613272565b8152602081019190915260400160002081518190610d8e90826132cb565b506020820151600182015560408201516002820190610dad90826132cb565b505050600482018054906000610dc28361338a565b91905055508080610dd29061338a565b915050610cfb565b5080610de687826132cb565b5060018101849055604051610dff908690602001612b48565b60405160208183030381529060405280519060200120600003610e315760405180602001604052806000815250610e33565b845b6002820190610e4290826132cb565b50505050505050565b604080518082018252601081526f181899199a1a9b1b9c1cb0b131b232b360811b60208201528151602a80825260608281019094526001600160a01b0385169291600091602082018180368337019050509050600360fc1b81600081518110610eb657610eb66133f0565b60200101906001600160f81b031916908160001a905350600f60fb1b81600181518110610ee557610ee56133f0565b60200101906001600160f81b031916908160001a90535060005b601481101561102d5782600485610f1784600c613272565b60208110610f2757610f276133f0565b1a60f81b6001600160f81b031916901c60f81c60ff1681518110610f4d57610f4d6133f0565b01602001516001600160f81b03191682610f68836002613406565b610f73906002613272565b81518110610f8357610f836133f0565b60200101906001600160f81b031916908160001a9053508284610fa783600c613272565b60208110610fb757610fb76133f0565b825191901a600f16908110610fce57610fce6133f0565b01602001516001600160f81b03191682610fe9836002613406565b610ff4906003613272565b81518110611004576110046133f0565b60200101906001600160f81b031916908160001a905350806110258161338a565b915050610eff565b50949350505050565b6000818152606760205260408120546001600160a01b0316806106995760405162461bcd60e51b8152602060048201526018602482015277115490cdcc8c4e881a5b9d985b1a59081d1bdad95b88125160421b60448201526064016107cc565b61109e611f1e565b600080806110ae888a018a61341d565b91945092509050600080806110c5898b018b613489565b919450925090506000806110db898b018b6135e5565b9150915060006101025460016110f19190613272565b600081815260fd6020526040902090915061110c8a826132cb565b50600081815260fd602052604090206001810188905560020161112f89826132cb565b50600081815260fd60209081526040909120855161115592600390920191870190612a5e565b5060005b84518110156112a457600088815260fd60205260409020600301805482908110611185576111856133f0565b90600052602060002001548582815181106111a2576111a26133f0565b602002602001015103611292576112398782815181106111c4576111c46133f0565b60200260200101518783815181106111de576111de6133f0565b60200260200101518784815181106111f8576111f86133f0565b6020026020010151878581518110611212576112126133f0565b602002602001015187868151811061122c5761122c6133f0565b6020026020010151610ce3565b6112926040518060400160405280601e81526020017f4368617074657220257320616464656420746f2073656374696f6e2025730000815250888381518110611284576112846133f0565b60200260200101518c612168565b8061129c8161338a565b915050611159565b5061010280549060006112b68361338a565b9190505550505050505050505050505050505050565b60006001600160a01b0382166113365760405162461bcd60e51b815260206004820152602960248201527f4552433732313a2061646472657373207a65726f206973206e6f7420612076616044820152683634b21037bbb732b960b91b60648201526084016107cc565b506001600160a01b031660009081526068602052604090205490565b61135a611f1e565b61136460006121af565b565b60ff805461137390613197565b80601f016020809104026020016040519081016040528092919081815260200182805461139f90613197565b80156113ec5780601f106113c1576101008083540402835291602001916113ec565b820191906000526020600020905b8154815290600101906020018083116113cf57829003601f168201915b505050505081565b600054610100900460ff16158080156114145750600054600160ff909116105b8061142e5750303b15801561142e575060005460ff166001145b6114915760405162461bcd60e51b815260206004820152602e60248201527f496e697469616c697a61626c653a20636f6e747261637420697320616c72656160448201526d191e481a5b9a5d1a585b1a5e995960921b60648201526084016107cc565b6000805460ff1916600117905580156114b4576000805461ff0019166101001790555b61151285858080601f016020809104026020016040519081016040528093929190818152602001838380828437600092019190915250506040805180820190915260078152665055424c49555360c81b602082015291506122019050565b61151a612232565b61152386611c50565b60ff611530858783613648565b5061010080546001600160a01b0319166001600160a01b03881617905561010161155b838583613648565b5080156115a2576000805461ff0019169055604051600181527f7f26b83ff96e1f2b6a682f133852f6798a09c465da95921460cefb38474024989060200160405180910390a15b505050505050565b6060606680546106ae90613197565b6115ca81662386f26fc10000613406565b34101561160f5760405162461bcd60e51b8152602060048201526013602482015272139bdd08195b9bdd59da08115512081cd95b9d606a1b60448201526064016107cc565b60005b8181101561168957600061162560995490565b611630906001613272565b905061163c3382612261565b600081815260fb6020908152604080832080546001600160a01b03191633908117909155835260fc82528220805460018101825590835291200155806116818161338a565b915050611612565b5050565b6116893383836123fa565b6116a23383611f78565b6116be5760405162461bcd60e51b81526004016107cc906133a3565b6116ca848484846124c8565b50505050565b6000818152606760205260409020546060906001600160a01b031661174f5760405162461bcd60e51b815260206004820152602f60248201527f4552433732314d657461646174613a2055524920717565727920666f72206e6f60448201526e3732bc34b9ba32b73a103a37b5b2b760891b60648201526084016107cc565b6040805180820190915260018152607b60f81b602082015261010054819060ff90611782906001600160a01b0316610e4b565b610101604051602001611798949392919061377a565b60408051601f19818403018152919052905060015b610102548111611a3757600081815260fd6020526040812060018101549091906117d6906124fb565b6040516117ed919084906002820190602001613836565b60408051601f19818403018152919052905060015b600383015481116119a157600081815260fe60205260408120600181015490919061182c906124fb565b6040516118439190849060028201906020016138db565b60408051601f19818403018152919052905060015b8260040154811161191457600081815260038401602052604081206001810154909190611884906124fb565b60405161189b91908490600282019060200161397d565b604051602081830303815290604052905084600401548310156118db57806040516020016118c99190613a0d565b60405160208183030381529060405290505b83816040516020016118ee929190613a32565b60405160208183030381529060405293505050808061190c9061338a565b915050611858565b50806040516020016119269190613a61565b60408051601f19818403018152919052600386015490915083101561196857806040516020016119569190613a0d565b60405160208183030381529060405290505b838160405160200161197b929190613a32565b6040516020818303038152906040529350505080806119999061338a565b915050611802565b50806040516020016119b39190613a61565b60405160208183030381529060405290506001610102546119d49190613a87565b8310156119fe57806040516020016119ec9190613a0d565b60405160208183030381529060405290505b8381604051602001611a11929190613a32565b604051602081830303815290604052935050508080611a2f9061338a565b9150506117ad565b5080604051602001611a499190613a61565b60408051808303601f1901815260208084018352600084529151909350611a74918391859101613a32565b60405160208183030381529060405292505050919050565b610101805461137390613197565b611abe60405180606001604052806060815260200160008152602001606081525090565b600083815260fe602090815260408083208584526003810190925291829020825160608101909352805491929182908290611af890613197565b80601f0160208091040260200160405190810160405280929190818152602001828054611b2490613197565b8015611b715780601f10611b4657610100808354040283529160200191611b71565b820191906000526020600020905b815481529060010190602001808311611b5457829003601f168201915b5050505050815260200160018201548152602001600282018054611b9490613197565b80601f0160208091040260200160405190810160405280929190818152602001828054611bc090613197565b8015611c0d5780601f10611be257610100808354040283529160200191611c0d565b820191906000526020600020905b815481529060010190602001808311611bf057829003601f168201915b50505050508152505091505092915050565b60fc6020528160005260406000208181548110611c3b57600080fd5b90600052602060002001600091509150505481565b611c58611f1e565b6001600160a01b038116611cbd5760405162461bcd60e51b815260206004820152602660248201527f4f776e61626c653a206e6577206f776e657220697320746865207a65726f206160448201526564647265737360d01b60648201526084016107cc565b611cc6816121af565b50565b60fe60205260009081526040902080548190611ce490613197565b80601f0160208091040260200160405190810160405280929190818152602001828054611d1090613197565b8015611d5d5780601f10611d3257610100808354040283529160200191611d5d565b820191906000526020600020905b815481529060010190602001808311611d4057829003601f168201915b505050505090806001015490806002018054611d7890613197565b80601f0160208091040260200160405190810160405280929190818152602001828054611da490613197565b8015611df15780601f10611dc657610100808354040283529160200191611df1565b820191906000526020600020905b815481529060010190602001808311611dd457829003601f168201915b5050505050908060040154905084565b60006001600160e01b031982166380ac58cd60e01b1480611e3257506001600160e01b03198216635b5e139f60e01b145b8061069957506301ffc9a760e01b6001600160e01b0319831614610699565b6000818152606760205260409020546001600160a01b0316611cc65760405162461bcd60e51b8152602060048201526018602482015277115490cdcc8c4e881a5b9d985b1a59081d1bdad95b88125160421b60448201526064016107cc565b600081815260696020526040902080546001600160a01b0319166001600160a01b0384169081179091558190611ee582611036565b6001600160a01b03167f8c5be1e5ebec7d5bd14f71427d1e84f3dd0314c0f7b2291e5b200ac8c7c3b92560405160405180910390a45050565b60c9546001600160a01b031633146113645760405162461bcd60e51b815260206004820181905260248201527f4f776e61626c653a2063616c6c6572206973206e6f7420746865206f776e657260448201526064016107cc565b600080611f8483611036565b9050806001600160a01b0316846001600160a01b03161480611fcb57506001600160a01b038082166000908152606a602090815260408083209388168352929052205460ff165b80611fef5750836001600160a01b0316611fe484610731565b6001600160a01b0316145b949350505050565b826001600160a01b031661200a82611036565b6001600160a01b0316146120305760405162461bcd60e51b81526004016107cc90613a9a565b6001600160a01b0382166120925760405162461bcd60e51b8152602060048201526024808201527f4552433732313a207472616e7366657220746f20746865207a65726f206164646044820152637265737360e01b60648201526084016107cc565b61209f8383836001612608565b826001600160a01b03166120b282611036565b6001600160a01b0316146120d85760405162461bcd60e51b81526004016107cc90613a9a565b600081815260696020908152604080832080546001600160a01b03199081169091556001600160a01b0387811680865260688552838620805460001901905590871680865283862080546001019055868652606790945282852080549092168417909155905184937fddf252ad1be2c89b69c2b068fc378daa952ba7f163c4a11628f55a4df523b3ef91a4505050565b61086d83838360405160240161218093929190613adf565b60408051601f198184030181529190526020810180516001600160e01b0316632ced7cef60e01b17905261273c565b60c980546001600160a01b038381166001600160a01b0319831681179093556040519116919082907f8be0079c531659141344cd1fd0a4f28419497f9722a3daafe3b4186f6b6457e090600090a35050565b600054610100900460ff166122285760405162461bcd60e51b81526004016107cc90613b18565b611689828261275d565b600054610100900460ff166122595760405162461bcd60e51b81526004016107cc90613b18565b61136461279d565b6001600160a01b0382166122b75760405162461bcd60e51b815260206004820181905260248201527f4552433732313a206d696e7420746f20746865207a65726f206164647265737360448201526064016107cc565b6000818152606760205260409020546001600160a01b03161561231c5760405162461bcd60e51b815260206004820152601c60248201527f4552433732313a20746f6b656e20616c7265616479206d696e7465640000000060448201526064016107cc565b61232a600083836001612608565b6000818152606760205260409020546001600160a01b03161561238f5760405162461bcd60e51b815260206004820152601c60248201527f4552433732313a20746f6b656e20616c7265616479206d696e7465640000000060448201526064016107cc565b6001600160a01b038216600081815260686020908152604080832080546001019055848352606790915280822080546001600160a01b0319168417905551839291907fddf252ad1be2c89b69c2b068fc378daa952ba7f163c4a11628f55a4df523b3ef908290a45050565b816001600160a01b0316836001600160a01b03160361245b5760405162461bcd60e51b815260206004820152601960248201527f4552433732313a20617070726f766520746f2063616c6c65720000000000000060448201526064016107cc565b6001600160a01b038381166000818152606a6020908152604080832094871680845294825291829020805460ff191686151590811790915591519182527f17307eab39ab6107e8899845ad3d59bd9653f200f220920489ca2b5937696c31910160405180910390a3505050565b6124d3848484611ff7565b6124df848484846127cd565b6116ca5760405162461bcd60e51b81526004016107cc90613b63565b6060816000036125225750506040805180820190915260018152600360fc1b602082015290565b8160005b811561254c57806125368161338a565b91506125459050600a83613bcb565b9150612526565b6000816001600160401b0381111561256657612566612cec565b6040519080825280601f01601f191660200182016040528015612590576020820181803683370190505b509050815b851561102d576125a6600182613a87565b905060006125b5600a88613bdf565b6125c0906030613bf3565b905060008160f81b9050808484815181106125dd576125dd6133f0565b60200101906001600160f81b031916908160001a9053506125ff600a89613bcb565b97505050612595565b60018111156126775760405162461bcd60e51b815260206004820152603560248201527f455243373231456e756d657261626c653a20636f6e7365637574697665207472604482015274185b9cd9995c9cc81b9bdd081cdd5c1c1bdc9d1959605a1b60648201526084016107cc565b816001600160a01b0385166126d3576126ce81609980546000838152609a60205260408120829055600182018355919091527f72a152ddfb8e864297c917af52ea6c1c68aead0fee1a62673fcc7e0c94979d000155565b6126f6565b836001600160a01b0316856001600160a01b0316146126f6576126f685826128ce565b6001600160a01b0384166127125761270d8161296b565b612735565b846001600160a01b0316846001600160a01b031614612735576127358482612a1a565b5050505050565b80516a636f6e736f6c652e6c6f67602083016000808483855afa5050505050565b600054610100900460ff166127845760405162461bcd60e51b81526004016107cc90613b18565b606561279083826132cb565b50606661086d82826132cb565b600054610100900460ff166127c45760405162461bcd60e51b81526004016107cc90613b18565b611364336121af565b60006001600160a01b0384163b156128c357604051630a85bd0160e11b81526001600160a01b0385169063150b7a0290612811903390899088908890600401613c0c565b6020604051808303816000875af192505050801561284c575060408051601f3d908101601f1916820190925261284991810190613c3f565b60015b6128a9573d80801561287a576040519150601f19603f3d011682016040523d82523d6000602084013e61287f565b606091505b5080516000036128a15760405162461bcd60e51b81526004016107cc90613b63565b805181602001fd5b6001600160e01b031916630a85bd0160e11b149050611fef565b506001949350505050565b600060016128db846112cc565b6128e59190613a87565b600083815260986020526040902054909150808214612938576001600160a01b03841660009081526097602090815260408083208584528252808320548484528184208190558352609890915290208190555b5060009182526098602090815260408084208490556001600160a01b039094168352609781528383209183525290812055565b60995460009061297d90600190613a87565b6000838152609a6020526040812054609980549394509092849081106129a5576129a56133f0565b9060005260206000200154905080609983815481106129c6576129c66133f0565b6000918252602080832090910192909255828152609a909152604080822084905585825281205560998054806129fe576129fe613c5c565b6001900381819060005260206000200160009055905550505050565b6000612a25836112cc565b6001600160a01b039093166000908152609760209081526040808320868452825280832085905593825260989052919091209190915550565b828054828255906000526020600020908101928215612a99579160200282015b82811115612a99578251825591602001919060010190612a7e565b50612aa5929150612aa9565b5090565b5b80821115612aa55760008155600101612aaa565b6001600160e01b031981168114611cc657600080fd5b600060208284031215612ae657600080fd5b8135612af181612abe565b9392505050565b60005b83811015612b13578181015183820152602001612afb565b50506000910152565b60008151808452612b34816020860160208601612af8565b601f01601f19169290920160200192915050565b602081526000612af16020830184612b1c565b600060208284031215612b6d57600080fd5b5035919050565b80356001600160a01b0381168114612b8b57600080fd5b919050565b60008060408385031215612ba357600080fd5b612bac83612b74565b946020939093013593505050565b60008083601f840112612bcc57600080fd5b5081356001600160401b03811115612be357600080fd5b602083019150836020828501011115612bfb57600080fd5b9250929050565b600080600080600060608688031215612c1a57600080fd5b8535945060208601356001600160401b0380821115612c3857600080fd5b612c4489838a01612bba565b90965094506040880135915080821115612c5d57600080fd5b50612c6a88828901612bba565b969995985093965092949392505050565b600080600060608486031215612c9057600080fd5b612c9984612b74565b9250612ca760208501612b74565b9150604084013590509250925092565b606081526000612cca6060830186612b1c565b8460208401528281036040840152612ce28185612b1c565b9695505050505050565b634e487b7160e01b600052604160045260246000fd5b604051601f8201601f191681016001600160401b0381118282101715612d2a57612d2a612cec565b604052919050565b60006001600160401b03831115612d4b57612d4b612cec565b612d5e601f8401601f1916602001612d02565b9050828152838383011115612d7257600080fd5b828260208301376000602084830101529392505050565b600082601f830112612d9a57600080fd5b612af183833560208501612d32565b60006001600160401b03821115612dc257612dc2612cec565b5060051b60200190565b600082601f830112612ddd57600080fd5b81356020612df2612ded83612da9565b612d02565b82815260059290921b84018101918181019086841115612e1157600080fd5b8286015b84811015612e505780356001600160401b03811115612e345760008081fd5b612e428986838b0101612d89565b845250918301918301612e15565b509695505050505050565b600080600080600060a08688031215612e7357600080fd5b85356001600160401b0380821115612e8a57600080fd5b612e9689838a01612d89565b96506020880135915080821115612eac57600080fd5b612eb889838a01612d89565b9550604088013594506060880135915080821115612ed557600080fd5b612ee189838a01612dcc565b93506080880135915080821115612ef757600080fd5b50612f0488828901612dcc565b9150509295509295909350565b600060208284031215612f2357600080fd5b612af182612b74565b60008060008060008060608789031215612f4557600080fd5b86356001600160401b0380821115612f5c57600080fd5b612f688a838b01612bba565b90985096506020890135915080821115612f8157600080fd5b612f8d8a838b01612bba565b90965094506040890135915080821115612fa657600080fd5b50612fb389828a01612bba565b979a9699509497509295939492505050565b600080600080600060608688031215612fdd57600080fd5b612fe686612b74565b945060208601356001600160401b0380821115612c3857600080fd5b6000806040838503121561301557600080fd5b61301e83612b74565b91506020830135801515811461303357600080fd5b809150509250929050565b6000806000806080858703121561305457600080fd5b61305d85612b74565b935061306b60208601612b74565b92506040850135915060608501356001600160401b0381111561308d57600080fd5b8501601f8101871361309e57600080fd5b6130ad87823560208401612d32565b91505092959194509250565b600080604083850312156130cc57600080fd5b50508035926020909101359150565b6020815260008251606060208401526130f76080840182612b1c565b9050602084015160408401526040840151601f1984830301606085015261311e8282612b1c565b95945050505050565b6000806040838503121561313a57600080fd5b61314383612b74565b915061315160208401612b74565b90509250929050565b60808152600061316d6080830187612b1c565b85602084015282810360408401526131858186612b1c565b91505082606083015295945050505050565b600181811c908216806131ab57607f821691505b6020821081036131cb57634e487b7160e01b600052602260045260246000fd5b50919050565b60006020808352600084546131e581613197565b8084870152604060018084166000811461320657600181146132205761324e565b60ff1985168984015283151560051b89018301955061324e565b896000528660002060005b858110156132465781548b820186015290830190880161322b565b8a0184019650505b509398975050505050505050565b634e487b7160e01b600052601160045260246000fd5b808201808211156106995761069961325c565b601f82111561086d57600081815260208120601f850160051c810160208610156132ac5750805b601f850160051c820191505b818110156115a2578281556001016132b8565b81516001600160401b038111156132e4576132e4612cec565b6132f8816132f28454613197565b84613285565b602080601f83116001811461332d57600084156133155750858301515b600019600386901b1c1916600185901b1785556115a2565b600085815260208120601f198616915b8281101561335c5788860151825594840194600190910190840161333d565b508582101561337a5787850151600019600388901b60f8161c191681555b5050505050600190811b01905550565b60006001820161339c5761339c61325c565b5060010190565b6020808252602d908201527f4552433732313a2063616c6c6572206973206e6f7420746f6b656e206f776e6560408201526c1c881bdc88185c1c1c9bdd9959609a1b606082015260800190565b634e487b7160e01b600052603260045260246000fd5b80820281158282048414176106995761069961325c565b60008060006060848603121561343257600080fd5b83356001600160401b038082111561344957600080fd5b61345587838801612d89565b9450602086013591508082111561346b57600080fd5b5061347886828701612d89565b925050604084013590509250925092565b60008060006060848603121561349e57600080fd5b83356001600160401b03808211156134b557600080fd5b6134c187838801612dcc565b94506020915081860135818111156134d857600080fd5b6134e488828901612dcc565b9450506040860135818111156134f957600080fd5b86019050601f8101871361350c57600080fd5b803561351a612ded82612da9565b81815260059190911b8201830190838101908983111561353957600080fd5b928401925b828410156135575783358252928401929084019061353e565b80955050505050509250925092565b600082601f83011261357757600080fd5b81356020613587612ded83612da9565b82815260059290921b840181019181810190868411156135a657600080fd5b8286015b84811015612e505780356001600160401b038111156135c95760008081fd5b6135d78986838b0101612dcc565b8452509183019183016135aa565b600080604083850312156135f857600080fd5b82356001600160401b038082111561360f57600080fd5b61361b86838701613566565b9350602085013591508082111561363157600080fd5b5061363e85828601613566565b9150509250929050565b6001600160401b0383111561365f5761365f612cec565b6136738361366d8354613197565b83613285565b6000601f8411600181146136a7576000851561368f5750838201355b600019600387901b1c1916600186901b178355612735565b600083815260209020601f19861690835b828110156136d857868501358255602094850194600190920191016136b8565b50868210156136f55760001960f88860031b161c19848701351681555b505060018560011b0183555050505050565b6000815461371481613197565b6001828116801561372c576001811461374157613770565b60ff1984168752821515830287019450613770565b8560005260208060002060005b858110156137675781548a82015290840190820161374e565b50505082870194505b5050505092915050565b6000855161378c818460208a01612af8565b7311383ab13634b1b0ba34b7b72730b6b2911d101160611b9083019081526137b76014820187613707565b711116101130baba3437b92730b6b2911d101160711b815285519091506137e5816012840160208901612af8565b711116101131b7bb32b924b6b0b3b2911d101160711b601292909101918201526138126024820185613707565b6f222c202273656374696f6e73223a205b60801b8152601001979650505050505050565b6f3d901139b2b1ba34b7b724b2111d101160811b81528351600090613862816010850160208901612af8565b721116101139b2b1ba34b7b72730b6b2911d101160691b60109184019182015261388f6023820186613707565b731116101139b2b1ba34b7b724b6b0b3b2911d101160611b815290506138b86014820185613707565b6f222c20226368617074657273223a205b60801b81526010019695505050505050565b6f3d901131b430b83a32b924b2111d101160811b81528351600090613907816010850160208901612af8565b721116101131b430b83a32b92730b6b2911d101160691b6010918401918201526139346023820186613707565b731116101131b430b83a32b924b6b0b3b2911d101160611b8152905061395d6014820185613707565b6c222c20227061676573223a205b60981b8152600d019695505050505050565b6c3d90113830b3b2a4b2111d101160991b815283516000906139a681600d850160208901612af8565b6f111610113830b3b2a730b6b2911d101160811b600d918401918201526139d0601d820186613707565b72111610113830b3b2a1b7b73a32b73a111d101160691b815290506139f86013820185613707565b61227d60f01b81526002019695505050505050565b60008251613a1f818460208701612af8565b600b60fa1b920191825250600101919050565b60008351613a44818460208801612af8565b835190830190613a58818360208801612af8565b01949350505050565b60008251613a73818460208701612af8565b615d7d60f01b920191825250600201919050565b818103818111156106995761069961325c565b60208082526025908201527f4552433732313a207472616e736665722066726f6d20696e636f72726563742060408201526437bbb732b960d91b606082015260800190565b606081526000613af26060830186612b1c565b8281036020840152613b048186612b1c565b90508281036040840152612ce28185612b1c565b6020808252602b908201527f496e697469616c697a61626c653a20636f6e7472616374206973206e6f74206960408201526a6e697469616c697a696e6760a81b606082015260800190565b60208082526032908201527f4552433732313a207472616e7366657220746f206e6f6e20455243373231526560408201527131b2b4bb32b91034b6b83632b6b2b73a32b960711b606082015260800190565b634e487b7160e01b600052601260045260246000fd5b600082613bda57613bda613bb5565b500490565b600082613bee57613bee613bb5565b500690565b60ff81811683821601908111156106995761069961325c565b6001600160a01b0385811682528416602082015260408101839052608060608201819052600090612ce290830184612b1c565b600060208284031215613c5157600080fd5b8151612af181612abe565b634e487b7160e01b600052603160045260246000fdfea26469706673582212203c028537c67851b9e2f3ef2c33e98b2584eb7aa25c30c4f333f78a3eb5b9feb764736f6c63430008120033",
  "linkReferences": {},
  "deployedLinkReferences": {}
}