{
  "_format": "hh-sol-artifact-1",
  "contractName": "Publius",
  "sourceName": "contracts/Publius.sol",
  "abi": [
    {
      "anonymous": false,
      "inputs": [
        {
          "indexed": true,
          "internalType": "address",
          "name": "owner",
          "type": "address"
        },
        {
          "indexed": true,
          "internalType": "address",
          "name": "approved",
          "type": "address"
        },
        {
          "indexed": true,
          "internalType": "uint256",
          "name": "tokenId",
          "type": "uint256"
        }
      ],
      "name": "Approval",
      "type": "event"
    },
    {
      "anonymous": false,
      "inputs": [
        {
          "indexed": true,
          "internalType": "address",
          "name": "owner",
          "type": "address"
        },
        {
          "indexed": true,
          "internalType": "address",
          "name": "operator",
          "type": "address"
        },
        {
          "indexed": false,
          "internalType": "bool",
          "name": "approved",
          "type": "bool"
        }
      ],
      "name": "ApprovalForAll",
      "type": "event"
    },
    {
      "anonymous": false,
      "inputs": [
        {
          "indexed": false,
          "internalType": "uint8",
          "name": "version",
          "type": "uint8"
        }
      ],
      "name": "Initialized",
      "type": "event"
    },
    {
      "anonymous": false,
      "inputs": [
        {
          "indexed": true,
          "internalType": "address",
          "name": "previousOwner",
          "type": "address"
        },
        {
          "indexed": true,
          "internalType": "address",
          "name": "newOwner",
          "type": "address"
        }
      ],
      "name": "OwnershipTransferred",
      "type": "event"
    },
    {
      "anonymous": false,
      "inputs": [
        {
          "indexed": true,
          "internalType": "address",
          "name": "from",
          "type": "address"
        },
        {
          "indexed": true,
          "internalType": "address",
          "name": "to",
          "type": "address"
        },
        {
          "indexed": true,
          "internalType": "uint256",
          "name": "tokenId",
          "type": "uint256"
        }
      ],
      "name": "Transfer",
      "type": "event"
    },
    {
      "inputs": [
        {
          "internalType": "string",
          "name": "_chapterName",
          "type": "string"
        },
        {
          "internalType": "string",
          "name": "_chapterImage",
          "type": "string"
        },
        {
          "internalType": "uint256",
          "name": "_chapterId",
          "type": "uint256"
        },
        {
          "internalType": "string[]",
          "name": "_pageNames",
          "type": "string[]"
        },
        {
          "internalType": "string[]",
          "name": "_pageContent",
          "type": "string[]"
        }
      ],
      "name": "addChapter",
      "outputs": [],
      "stateMutability": "nonpayable",
      "type": "function"
    },
    {
      "inputs": [
        {
          "internalType": "uint256",
          "name": "_chapter",
          "type": "uint256"
        },
        {
          "internalType": "string",
          "name": "_pageName",
          "type": "string"
        },
        {
          "internalType": "string",
          "name": "_pageContent",
          "type": "string"
        }
      ],
      "name": "addPage",
      "outputs": [],
      "stateMutability": "nonpayable",
      "type": "function"
    },
    {
      "inputs": [
        {
          "internalType": "string",
          "name": "_sectionName",
          "type": "string"
        },
        {
          "internalType": "uint256",
          "name": "_sectionId",
          "type": "uint256"
        },
        {
          "internalType": "string",
          "name": "_sectionImage",
          "type": "string"
        },
        {
          "internalType": "bytes",
          "name": "_chapterInfo",
          "type": "bytes"
        }
      ],
      "name": "addSection",
      "outputs": [],
      "stateMutability": "nonpayable",
      "type": "function"
    },
    {
      "inputs": [
        {
          "internalType": "address",
          "name": "to",
          "type": "address"
        },
        {
          "internalType": "uint256",
          "name": "tokenId",
          "type": "uint256"
        }
      ],
      "name": "approve",
      "outputs": [],
      "stateMutability": "nonpayable",
      "type": "function"
    },
    {
      "inputs": [
        {
          "internalType": "address",
          "name": "owner",
          "type": "address"
        }
      ],
      "name": "balanceOf",
      "outputs": [
        {
          "internalType": "uint256",
          "name": "",
          "type": "uint256"
        }
      ],
      "stateMutability": "view",
      "type": "function"
    },
    {
      "inputs": [
        {
          "internalType": "uint256",
          "name": "",
          "type": "uint256"
        }
      ],
      "name": "chapters",
      "outputs": [
        {
          "internalType": "string",
          "name": "chapterName",
          "type": "string"
        },
        {
          "internalType": "uint256",
          "name": "chapterId",
          "type": "uint256"
        },
        {
          "internalType": "string",
          "name": "chapterImage",
          "type": "string"
        },
        {
          "internalType": "uint256",
          "name": "pageCount",
          "type": "uint256"
        }
      ],
      "stateMutability": "view",
      "type": "function"
    },
    {
      "inputs": [
        {
          "internalType": "uint256",
          "name": "tokenId",
          "type": "uint256"
        }
      ],
      "name": "getApproved",
      "outputs": [
        {
          "internalType": "address",
          "name": "",
          "type": "address"
        }
      ],
      "stateMutability": "view",
      "type": "function"
    },
    {
      "inputs": [
        {
          "internalType": "uint256",
          "name": "_chapter",
          "type": "uint256"
        },
        {
          "internalType": "uint256",
          "name": "_pageId",
          "type": "uint256"
        }
      ],
      "name": "getPage",
      "outputs": [
        {
          "components": [
            {
              "internalType": "string",
              "name": "pageName",
              "type": "string"
            },
            {
              "internalType": "uint256",
              "name": "pageId",
              "type": "uint256"
            },
            {
              "internalType": "string",
              "name": "pageContent",
              "type": "string"
            }
          ],
          "internalType": "struct Publius.Page",
          "name": "",
          "type": "tuple"
        }
      ],
      "stateMutability": "view",
      "type": "function"
    },
    {
      "inputs": [
        {
          "internalType": "address",
          "name": "_publicationAuthor",
          "type": "address"
        },
        {
          "internalType": "string",
          "name": "_publicationName",
          "type": "string"
        },
        {
          "internalType": "string",
          "name": "_publicationCoverImage",
          "type": "string"
        }
      ],
      "name": "initialize",
      "outputs": [],
      "stateMutability": "nonpayable",
      "type": "function"
    },
    {
      "inputs": [
        {
          "internalType": "address",
          "name": "owner",
          "type": "address"
        },
        {
          "internalType": "address",
          "name": "operator",
          "type": "address"
        }
      ],
      "name": "isApprovedForAll",
      "outputs": [
        {
          "internalType": "bool",
          "name": "",
          "type": "bool"
        }
      ],
      "stateMutability": "view",
      "type": "function"
    },
    {
      "inputs": [
        {
          "internalType": "uint256",
          "name": "_amount",
          "type": "uint256"
        }
      ],
      "name": "mint",
      "outputs": [],
      "stateMutability": "payable",
      "type": "function"
    },
    {
      "inputs": [
        {
          "internalType": "address",
          "name": "",
          "type": "address"
        },
        {
          "internalType": "uint256",
          "name": "",
          "type": "uint256"
        }
      ],
      "name": "minterOwnedTokens",
      "outputs": [
        {
          "internalType": "uint256",
          "name": "",
          "type": "uint256"
        }
      ],
      "stateMutability": "view",
      "type": "function"
    },
    {
      "inputs": [],
      "name": "name",
      "outputs": [
        {
          "internalType": "string",
          "name": "",
          "type": "string"
        }
      ],
      "stateMutability": "view",
      "type": "function"
    },
    {
      "inputs": [],
      "name": "owner",
      "outputs": [
        {
          "internalType": "address",
          "name": "",
          "type": "address"
        }
      ],
      "stateMutability": "view",
      "type": "function"
    },
    {
      "inputs": [
        {
          "internalType": "uint256",
          "name": "tokenId",
          "type": "uint256"
        }
      ],
      "name": "ownerOf",
      "outputs": [
        {
          "internalType": "address",
          "name": "",
          "type": "address"
        }
      ],
      "stateMutability": "view",
      "type": "function"
    },
    {
      "inputs": [],
      "name": "publicationAuthor",
      "outputs": [
        {
          "internalType": "address",
          "name": "",
          "type": "address"
        }
      ],
      "stateMutability": "view",
      "type": "function"
    },
    {
      "inputs": [],
      "name": "publicationCoverImage",
      "outputs": [
        {
          "internalType": "string",
          "name": "",
          "type": "string"
        }
      ],
      "stateMutability": "view",
      "type": "function"
    },
    {
      "inputs": [],
      "name": "publicationName",
      "outputs": [
        {
          "internalType": "string",
          "name": "",
          "type": "string"
        }
      ],
      "stateMutability": "view",
      "type": "function"
    },
    {
      "inputs": [],
      "name": "renounceOwnership",
      "outputs": [],
      "stateMutability": "nonpayable",
      "type": "function"
    },
    {
      "inputs": [
        {
          "internalType": "address",
          "name": "from",
          "type": "address"
        },
        {
          "internalType": "address",
          "name": "to",
          "type": "address"
        },
        {
          "internalType": "uint256",
          "name": "tokenId",
          "type": "uint256"
        }
      ],
      "name": "safeTransferFrom",
      "outputs": [],
      "stateMutability": "nonpayable",
      "type": "function"
    },
    {
      "inputs": [
        {
          "internalType": "address",
          "name": "from",
          "type": "address"
        },
        {
          "internalType": "address",
          "name": "to",
          "type": "address"
        },
        {
          "internalType": "uint256",
          "name": "tokenId",
          "type": "uint256"
        },
        {
          "internalType": "bytes",
          "name": "data",
          "type": "bytes"
        }
      ],
      "name": "safeTransferFrom",
      "outputs": [],
      "stateMutability": "nonpayable",
      "type": "function"
    },
    {
      "inputs": [
        {
          "internalType": "uint256",
          "name": "",
          "type": "uint256"
        }
      ],
      "name": "sections",
      "outputs": [
        {
          "internalType": "string",
          "name": "sectionName",
          "type": "string"
        },
        {
          "internalType": "uint256",
          "name": "sectionId",
          "type": "uint256"
        },
        {
          "internalType": "string",
          "name": "sectionImage",
          "type": "string"
        }
      ],
      "stateMutability": "view",
      "type": "function"
    },
    {
      "inputs": [
        {
          "internalType": "address",
          "name": "operator",
          "type": "address"
        },
        {
          "internalType": "bool",
          "name": "approved",
          "type": "bool"
        }
      ],
      "name": "setApprovalForAll",
      "outputs": [],
      "stateMutability": "nonpayable",
      "type": "function"
    },
    {
      "inputs": [
        {
          "internalType": "bytes4",
          "name": "interfaceId",
          "type": "bytes4"
        }
      ],
      "name": "supportsInterface",
      "outputs": [
        {
          "internalType": "bool",
          "name": "",
          "type": "bool"
        }
      ],
      "stateMutability": "view",
      "type": "function"
    },
    {
      "inputs": [],
      "name": "symbol",
      "outputs": [
        {
          "internalType": "string",
          "name": "",
          "type": "string"
        }
      ],
      "stateMutability": "view",
      "type": "function"
    },
    {
      "inputs": [
        {
          "internalType": "uint256",
          "name": "index",
          "type": "uint256"
        }
      ],
      "name": "tokenByIndex",
      "outputs": [
        {
          "internalType": "uint256",
          "name": "",
          "type": "uint256"
        }
      ],
      "stateMutability": "view",
      "type": "function"
    },
    {
      "inputs": [
        {
          "internalType": "uint256",
          "name": "",
          "type": "uint256"
        }
      ],
      "name": "tokenIdToMinter",
      "outputs": [
        {
          "internalType": "address",
          "name": "",
          "type": "address"
        }
      ],
      "stateMutability": "view",
      "type": "function"
    },
    {
      "inputs": [
        {
          "internalType": "address",
          "name": "owner",
          "type": "address"
        },
        {
          "internalType": "uint256",
          "name": "index",
          "type": "uint256"
        }
      ],
      "name": "tokenOfOwnerByIndex",
      "outputs": [
        {
          "internalType": "uint256",
          "name": "",
          "type": "uint256"
        }
      ],
      "stateMutability": "view",
      "type": "function"
    },
    {
      "inputs": [
        {
          "internalType": "uint256",
          "name": "tokenId",
          "type": "uint256"
        }
      ],
      "name": "tokenURI",
      "outputs": [
        {
          "internalType": "string",
          "name": "",
          "type": "string"
        }
      ],
      "stateMutability": "view",
      "type": "function"
    },
    {
      "inputs": [],
      "name": "totalSupply",
      "outputs": [
        {
          "internalType": "uint256",
          "name": "",
          "type": "uint256"
        }
      ],
      "stateMutability": "view",
      "type": "function"
    },
    {
      "inputs": [
        {
          "internalType": "address",
          "name": "from",
          "type": "address"
        },
        {
          "internalType": "address",
          "name": "to",
          "type": "address"
        },
        {
          "internalType": "uint256",
          "name": "tokenId",
          "type": "uint256"
        }
      ],
      "name": "transferFrom",
      "outputs": [],
      "stateMutability": "nonpayable",
      "type": "function"
    },
    {
      "inputs": [
        {
          "internalType": "address",
          "name": "newOwner",
          "type": "address"
        }
      ],
      "name": "transferOwnership",
      "outputs": [],
      "stateMutability": "nonpayable",
      "type": "function"
    }
  ],
  "bytecode": "0x608060405234801561001057600080fd5b50613605806100206000396000f3fe6080604052600436106101e35760003560e01c8063715018a611610102578063b88d4fde11610095578063db010ae411610064578063db010ae414610590578063e985e9c5146105b0578063f2fde38b146105f9578063f40adb121461061957600080fd5b8063b88d4fde1461050e578063c87b56dd1461052e578063ccfea8f01461054e578063cd1a2e911461056357600080fd5b806395d89b41116100d157806395d89b41146104a6578063a0712d68146104bb578063a22cb465146104ce578063a240d4aa146104ee57600080fd5b8063715018a61461043e57806386b4e2a0146104535780638da5cb5b14610468578063906571471461048657600080fd5b80632f745c591161017a578063527c416511610149578063527c4165146103bd5780635b92cc8a146103de5780636352211e146103fe57806370a082311461041e57600080fd5b80632f745c591461032e578063356034401461034e57806342842e0e1461037d5780634f6ccce71461039d57600080fd5b80630f1f0850116101b65780630f1f08501461029957806318160ddd146102b95780632218f119146102d857806323b872dd1461030e57600080fd5b806301ffc9a7146101e857806306fdde031461021d578063081812fc1461023f578063095ea7b314610277575b600080fd5b3480156101f457600080fd5b5061020861020336600461267d565b610649565b60405190151581526020015b60405180910390f35b34801561022957600080fd5b50610232610674565b60405161021491906126f1565b34801561024b57600080fd5b5061025f61025a366004612704565b610706565b6040516001600160a01b039091168152602001610214565b34801561028357600080fd5b50610297610292366004612739565b61072d565b005b3480156102a557600080fd5b506102976102b43660046127ab565b610847565b3480156102c557600080fd5b506099545b604051908152602001610214565b3480156102e457600080fd5b5061025f6102f3366004612704565b60fb602052600090815260409020546001600160a01b031681565b34801561031a57600080fd5b50610297610329366004612824565b610968565b34801561033a57600080fd5b506102ca610349366004612739565b610999565b34801561035a57600080fd5b5061036e610369366004612704565b610a2f565b60405161021493929190612860565b34801561038957600080fd5b50610297610398366004612824565b610b61565b3480156103a957600080fd5b506102ca6103b8366004612704565b610b7c565b3480156103c957600080fd5b506101005461025f906001600160a01b031681565b3480156103ea57600080fd5b506102976103f9366004612a04565b610c0f565b34801561040a57600080fd5b5061025f610419366004612704565b610d77565b34801561042a57600080fd5b506102ca610439366004612aba565b610dd7565b34801561044a57600080fd5b50610297610e5d565b34801561045f57600080fd5b50610232610e71565b34801561047457600080fd5b5060c9546001600160a01b031661025f565b34801561049257600080fd5b506102976104a1366004612ad5565b610eff565b3480156104b257600080fd5b506102326110b5565b6102976104c9366004612704565b6110c4565b3480156104da57600080fd5b506102976104e9366004612b12565b611198565b3480156104fa57600080fd5b50610297610509366004612b4e565b6111a3565b34801561051a57600080fd5b50610297610529366004612bf1565b6112c9565b34801561053a57600080fd5b50610232610549366004612704565b611301565b34801561055a57600080fd5b50610232611694565b34801561056f57600080fd5b5061058361057e366004612c6c565b6116a2565b6040516102149190612c8e565b34801561059c57600080fd5b506102ca6105ab366004612739565b611827565b3480156105bc57600080fd5b506102086105cb366004612cda565b6001600160a01b039182166000908152606a6020908152604080832093909416825291909152205460ff1690565b34801561060557600080fd5b50610297610614366004612aba565b611858565b34801561062557600080fd5b50610639610634366004612704565b6118d1565b6040516102149493929190612d0d565b60006001600160e01b0319821663780e9d6360e01b148061066e575061066e82611a09565b92915050565b60606065805461068390612d4a565b80601f01602080910402602001604051908101604052809291908181526020018280546106af90612d4a565b80156106fc5780601f106106d1576101008083540402835291602001916106fc565b820191906000526020600020905b8154815290600101906020018083116106df57829003601f168201915b5050505050905090565b600061071182611a59565b506000908152606960205260409020546001600160a01b031690565b600061073882610d77565b9050806001600160a01b0316836001600160a01b0316036107aa5760405162461bcd60e51b815260206004820152602160248201527f4552433732313a20617070726f76616c20746f2063757272656e74206f776e656044820152603960f91b60648201526084015b60405180910390fd5b336001600160a01b03821614806107c657506107c681336105cb565b6108385760405162461bcd60e51b815260206004820152603d60248201527f4552433732313a20617070726f76652063616c6c6572206973206e6f7420746f60448201527f6b656e206f776e6572206f7220617070726f76656420666f7220616c6c00000060648201526084016107a1565b6108428383611ab8565b505050565b61084f611b26565b600085815260fe602090815260409182902082516080601f88018490049093028101830190935260608301868152909291829190889088908190850183828082843760009201919091525050509082525060048301546020909101906108b6906001612d9a565b815260200184848080601f01602080910402602001604051908101604052809392919081815260200183838082843760009201829052509390945250506004840154600385019250610909906001612d9a565b81526020810191909152604001600020815181906109279082612df3565b5060208201516001820155604082015160028201906109469082612df3565b50505060048101805490600061095b83612eb2565b9190505550505050505050565b6109723382611b80565b61098e5760405162461bcd60e51b81526004016107a190612ecb565b610842838383611bff565b60006109a483610dd7565b8210610a065760405162461bcd60e51b815260206004820152602b60248201527f455243373231456e756d657261626c653a206f776e657220696e646578206f7560448201526a74206f6620626f756e647360a81b60648201526084016107a1565b506001600160a01b03919091166000908152609760209081526040808320938352929052205490565b60fd60205260009081526040902080548190610a4a90612d4a565b80601f0160208091040260200160405190810160405280929190818152602001828054610a7690612d4a565b8015610ac35780601f10610a9857610100808354040283529160200191610ac3565b820191906000526020600020905b815481529060010190602001808311610aa657829003601f168201915b505050505090806001015490806002018054610ade90612d4a565b80601f0160208091040260200160405190810160405280929190818152602001828054610b0a90612d4a565b8015610b575780601f10610b2c57610100808354040283529160200191610b57565b820191906000526020600020905b815481529060010190602001808311610b3a57829003601f168201915b5050505050905083565b610842838383604051806020016040528060008152506112c9565b6000610b8760995490565b8210610bea5760405162461bcd60e51b815260206004820152602c60248201527f455243373231456e756d657261626c653a20676c6f62616c20696e646578206f60448201526b7574206f6620626f756e647360a01b60648201526084016107a1565b60998281548110610bfd57610bfd612f18565b90600052602060002001549050919050565b610c17611b26565b600083815260fe60205260408120905b8351811015610d06576040518060600160405280858381518110610c4d57610c4d612f18565b60200260200101518152602001826001610c679190612d9a565b8152602001848381518110610c7e57610c7e612f18565b6020026020010151815250826003016000836001610c9c9190612d9a565b8152602081019190915260400160002081518190610cba9082612df3565b506020820151600182015560408201516002820190610cd99082612df3565b505050600482018054906000610cee83612eb2565b91905055508080610cfe90612eb2565b915050610c27565b5080610d128782612df3565b5060018101849055604051610d2b9086906020016126f1565b60405160208183030381529060405280519060200120600003610d5d5760405180602001604052806000815250610d5f565b845b6002820190610d6e9082612df3565b50505050505050565b6000818152606760205260408120546001600160a01b03168061066e5760405162461bcd60e51b8152602060048201526018602482015277115490cdcc8c4e881a5b9d985b1a59081d1bdad95b88125160421b60448201526064016107a1565b60006001600160a01b038216610e415760405162461bcd60e51b815260206004820152602960248201527f4552433732313a2061646472657373207a65726f206973206e6f7420612076616044820152683634b21037bbb732b960b91b60648201526084016107a1565b506001600160a01b031660009081526068602052604090205490565b610e65611b26565b610e6f6000611d70565b565b60ff8054610e7e90612d4a565b80601f0160208091040260200160405190810160405280929190818152602001828054610eaa90612d4a565b8015610ef75780601f10610ecc57610100808354040283529160200191610ef7565b820191906000526020600020905b815481529060010190602001808311610eda57829003601f168201915b505050505081565b600054610100900460ff1615808015610f1f5750600054600160ff909116105b80610f395750303b158015610f39575060005460ff166001145b610f9c5760405162461bcd60e51b815260206004820152602e60248201527f496e697469616c697a61626c653a20636f6e747261637420697320616c72656160448201526d191e481a5b9a5d1a585b1a5e995960921b60648201526084016107a1565b6000805460ff191660011790558015610fbf576000805461ff0019166101001790555b61101d85858080601f016020809104026020016040519081016040528093929190818152602001838380828437600092019190915250506040805180820190915260078152665055424c49555360c81b60208201529150611dc29050565b611025611df3565b61102e86611858565b60ff61103b858783612f2e565b5061010080546001600160a01b0319166001600160a01b038816179055610101611066838583612f2e565b5080156110ad576000805461ff0019169055604051600181527f7f26b83ff96e1f2b6a682f133852f6798a09c465da95921460cefb38474024989060200160405180910390a15b505050505050565b60606066805461068390612d4a565b6110d581662386f26fc10000612fed565b34101561111a5760405162461bcd60e51b8152602060048201526013602482015272139bdd08195b9bdd59da08115512081cd95b9d606a1b60448201526064016107a1565b60005b8181101561119457600061113060995490565b61113b906001612d9a565b90506111473382611e22565b600081815260fb6020908152604080832080546001600160a01b03191633908117909155835260fc825282208054600181018255908352912001558061118c81612eb2565b91505061111d565b5050565b611194338383611fbb565b6111ab611b26565b6000808080806111bd8688018861305f565b60008f815260fd60205260409020949950929750909550935091506111e38c8e83612f2e565b5060008a815260fd60205260409020600181018b9055600201611207898b83612f2e565b5060008a815260fd60209081526040909120845161122d92600390920191860190612607565b5060005b85518110156112a45761129286828151811061124f5761124f612f18565b602002602001015186838151811061126957611269612f18565b602002602001015186848151811061128357611283612f18565b60200260200101518686610c0f565b8061129c81612eb2565b915050611231565b5061010280549060006112b683612eb2565b9190505550505050505050505050505050565b6112d33383611b80565b6112ef5760405162461bcd60e51b81526004016107a190612ecb565b6112fb84848484612089565b50505050565b6000818152606760205260409020546060906001600160a01b03166113805760405162461bcd60e51b815260206004820152602f60248201527f4552433732314d657461646174613a2055524920717565727920666f72206e6f60448201526e3732bc34b9ba32b73a103a37b5b2b760891b60648201526084016107a1565b60408051808201909152600f81526e7b202253656374696f6e73223a205b60881b602082015260005b6101025481101561163f57600081815260fd6020526040812060018101549091906113d3906120bc565b6040516113ea919084906002820190602001613167565b60408051601f198184030181526020830190915260008083529092505b60038401548110156115a657600060fe600086600301848154811061142e5761142e612f18565b9060005260206000200154815260200190815260200160002090508261145782600101546120bc565b60405161146f9291908490600282019060200161320c565b60408051601f198184030181526020830190915260008083529094505b826004015481101561152f5760008181526003840160205260409020600181015483906114b8906120bc565b6040516114d0929190849060028201906020016132c3565b6040516020818303038152906040529250600184600401546114f29190613368565b82101561151c578260405160200161150a919061337b565b60405160208183030381529060405292505b508061152781612eb2565b91505061148c565b5083816040516020016115439291906133a0565b60408051601f19818403018152919052600387015490945061156790600190613368565b831015611591578360405160200161157f919061337b565b60405160208183030381529060405293505b5050808061159e90612eb2565b915050611407565b5081816040516020016115ba9291906133a0565b604051602081830303815290604052915084826040516020016115de9291906133db565b60405160208183030381529060405294506001610102546115ff9190613368565b8410156116295784604051602001611617919061337b565b60405160208183030381529060405294505b505050808061163790612eb2565b9150506113a9565b5080604051602001611651919061340a565b60408051808303601f190181526020808401835260008452915190935061167c9183918591016133db565b60405160208183030381529060405292505050919050565b6101018054610e7e90612d4a565b6116c660405180606001604052806060815260200160008152602001606081525090565b600083815260fe60209081526040808320858452600381019092529182902082516060810190935280549192918290829061170090612d4a565b80601f016020809104026020016040519081016040528092919081815260200182805461172c90612d4a565b80156117795780601f1061174e57610100808354040283529160200191611779565b820191906000526020600020905b81548152906001019060200180831161175c57829003601f168201915b505050505081526020016001820154815260200160028201805461179c90612d4a565b80601f01602080910402602001604051908101604052809291908181526020018280546117c890612d4a565b80156118155780601f106117ea57610100808354040283529160200191611815565b820191906000526020600020905b8154815290600101906020018083116117f857829003601f168201915b50505050508152505091505092915050565b60fc602052816000526040600020818154811061184357600080fd5b90600052602060002001600091509150505481565b611860611b26565b6001600160a01b0381166118c55760405162461bcd60e51b815260206004820152602660248201527f4f776e61626c653a206e6577206f776e657220697320746865207a65726f206160448201526564647265737360d01b60648201526084016107a1565b6118ce81611d70565b50565b60fe602052600090815260409020805481906118ec90612d4a565b80601f016020809104026020016040519081016040528092919081815260200182805461191890612d4a565b80156119655780601f1061193a57610100808354040283529160200191611965565b820191906000526020600020905b81548152906001019060200180831161194857829003601f168201915b50505050509080600101549080600201805461198090612d4a565b80601f01602080910402602001604051908101604052809291908181526020018280546119ac90612d4a565b80156119f95780601f106119ce576101008083540402835291602001916119f9565b820191906000526020600020905b8154815290600101906020018083116119dc57829003601f168201915b5050505050908060040154905084565b60006001600160e01b031982166380ac58cd60e01b1480611a3a57506001600160e01b03198216635b5e139f60e01b145b8061066e57506301ffc9a760e01b6001600160e01b031983161461066e565b6000818152606760205260409020546001600160a01b03166118ce5760405162461bcd60e51b8152602060048201526018602482015277115490cdcc8c4e881a5b9d985b1a59081d1bdad95b88125160421b60448201526064016107a1565b600081815260696020526040902080546001600160a01b0319166001600160a01b0384169081179091558190611aed82610d77565b6001600160a01b03167f8c5be1e5ebec7d5bd14f71427d1e84f3dd0314c0f7b2291e5b200ac8c7c3b92560405160405180910390a45050565b60c9546001600160a01b03163314610e6f5760405162461bcd60e51b815260206004820181905260248201527f4f776e61626c653a2063616c6c6572206973206e6f7420746865206f776e657260448201526064016107a1565b600080611b8c83610d77565b9050806001600160a01b0316846001600160a01b03161480611bd357506001600160a01b038082166000908152606a602090815260408083209388168352929052205460ff165b80611bf75750836001600160a01b0316611bec84610706565b6001600160a01b0316145b949350505050565b826001600160a01b0316611c1282610d77565b6001600160a01b031614611c385760405162461bcd60e51b81526004016107a190613430565b6001600160a01b038216611c9a5760405162461bcd60e51b8152602060048201526024808201527f4552433732313a207472616e7366657220746f20746865207a65726f206164646044820152637265737360e01b60648201526084016107a1565b611ca783838360016121d2565b826001600160a01b0316611cba82610d77565b6001600160a01b031614611ce05760405162461bcd60e51b81526004016107a190613430565b600081815260696020908152604080832080546001600160a01b03199081169091556001600160a01b0387811680865260688552838620805460001901905590871680865283862080546001019055868652606790945282852080549092168417909155905184937fddf252ad1be2c89b69c2b068fc378daa952ba7f163c4a11628f55a4df523b3ef91a4505050565b60c980546001600160a01b038381166001600160a01b0319831681179093556040519116919082907f8be0079c531659141344cd1fd0a4f28419497f9722a3daafe3b4186f6b6457e090600090a35050565b600054610100900460ff16611de95760405162461bcd60e51b81526004016107a190613475565b6111948282612306565b600054610100900460ff16611e1a5760405162461bcd60e51b81526004016107a190613475565b610e6f612346565b6001600160a01b038216611e785760405162461bcd60e51b815260206004820181905260248201527f4552433732313a206d696e7420746f20746865207a65726f206164647265737360448201526064016107a1565b6000818152606760205260409020546001600160a01b031615611edd5760405162461bcd60e51b815260206004820152601c60248201527f4552433732313a20746f6b656e20616c7265616479206d696e7465640000000060448201526064016107a1565b611eeb6000838360016121d2565b6000818152606760205260409020546001600160a01b031615611f505760405162461bcd60e51b815260206004820152601c60248201527f4552433732313a20746f6b656e20616c7265616479206d696e7465640000000060448201526064016107a1565b6001600160a01b038216600081815260686020908152604080832080546001019055848352606790915280822080546001600160a01b0319168417905551839291907fddf252ad1be2c89b69c2b068fc378daa952ba7f163c4a11628f55a4df523b3ef908290a45050565b816001600160a01b0316836001600160a01b03160361201c5760405162461bcd60e51b815260206004820152601960248201527f4552433732313a20617070726f766520746f2063616c6c65720000000000000060448201526064016107a1565b6001600160a01b038381166000818152606a6020908152604080832094871680845294825291829020805460ff191686151590811790915591519182527f17307eab39ab6107e8899845ad3d59bd9653f200f220920489ca2b5937696c31910160405180910390a3505050565b612094848484611bff565b6120a084848484612376565b6112fb5760405162461bcd60e51b81526004016107a1906134c0565b6060816000036120e35750506040805180820190915260018152600360fc1b602082015290565b8160005b811561210d57806120f781612eb2565b91506121069050600a83613528565b91506120e7565b6000816001600160401b0381111561212757612127612895565b6040519080825280601f01601f191660200182016040528015612151576020820181803683370190505b509050815b85156121c957612167600182613368565b90506000612176600a8861353c565b612181906030613550565b905060008160f81b90508084848151811061219e5761219e612f18565b60200101906001600160f81b031916908160001a9053506121c0600a89613528565b97505050612156565b50949350505050565b60018111156122415760405162461bcd60e51b815260206004820152603560248201527f455243373231456e756d657261626c653a20636f6e7365637574697665207472604482015274185b9cd9995c9cc81b9bdd081cdd5c1c1bdc9d1959605a1b60648201526084016107a1565b816001600160a01b03851661229d5761229881609980546000838152609a60205260408120829055600182018355919091527f72a152ddfb8e864297c917af52ea6c1c68aead0fee1a62673fcc7e0c94979d000155565b6122c0565b836001600160a01b0316856001600160a01b0316146122c0576122c08582612477565b6001600160a01b0384166122dc576122d781612514565b6122ff565b846001600160a01b0316846001600160a01b0316146122ff576122ff84826125c3565b5050505050565b600054610100900460ff1661232d5760405162461bcd60e51b81526004016107a190613475565b60656123398382612df3565b5060666108428282612df3565b600054610100900460ff1661236d5760405162461bcd60e51b81526004016107a190613475565b610e6f33611d70565b60006001600160a01b0384163b1561246c57604051630a85bd0160e11b81526001600160a01b0385169063150b7a02906123ba903390899088908890600401613569565b6020604051808303816000875af19250505080156123f5575060408051601f3d908101601f191682019092526123f29181019061359c565b60015b612452573d808015612423576040519150601f19603f3d011682016040523d82523d6000602084013e612428565b606091505b50805160000361244a5760405162461bcd60e51b81526004016107a1906134c0565b805181602001fd5b6001600160e01b031916630a85bd0160e11b149050611bf7565b506001949350505050565b6000600161248484610dd7565b61248e9190613368565b6000838152609860205260409020549091508082146124e1576001600160a01b03841660009081526097602090815260408083208584528252808320548484528184208190558352609890915290208190555b5060009182526098602090815260408084208490556001600160a01b039094168352609781528383209183525290812055565b60995460009061252690600190613368565b6000838152609a60205260408120546099805493945090928490811061254e5761254e612f18565b90600052602060002001549050806099838154811061256f5761256f612f18565b6000918252602080832090910192909255828152609a909152604080822084905585825281205560998054806125a7576125a76135b9565b6001900381819060005260206000200160009055905550505050565b60006125ce83610dd7565b6001600160a01b039093166000908152609760209081526040808320868452825280832085905593825260989052919091209190915550565b828054828255906000526020600020908101928215612642579160200282015b82811115612642578251825591602001919060010190612627565b5061264e929150612652565b5090565b5b8082111561264e5760008155600101612653565b6001600160e01b0319811681146118ce57600080fd5b60006020828403121561268f57600080fd5b813561269a81612667565b9392505050565b60005b838110156126bc5781810151838201526020016126a4565b50506000910152565b600081518084526126dd8160208601602086016126a1565b601f01601f19169290920160200192915050565b60208152600061269a60208301846126c5565b60006020828403121561271657600080fd5b5035919050565b80356001600160a01b038116811461273457600080fd5b919050565b6000806040838503121561274c57600080fd5b6127558361271d565b946020939093013593505050565b60008083601f84011261277557600080fd5b5081356001600160401b0381111561278c57600080fd5b6020830191508360208285010111156127a457600080fd5b9250929050565b6000806000806000606086880312156127c357600080fd5b8535945060208601356001600160401b03808211156127e157600080fd5b6127ed89838a01612763565b9096509450604088013591508082111561280657600080fd5b5061281388828901612763565b969995985093965092949392505050565b60008060006060848603121561283957600080fd5b6128428461271d565b92506128506020850161271d565b9150604084013590509250925092565b60608152600061287360608301866126c5565b846020840152828103604084015261288b81856126c5565b9695505050505050565b634e487b7160e01b600052604160045260246000fd5b604051601f8201601f191681016001600160401b03811182821017156128d3576128d3612895565b604052919050565b60006001600160401b038311156128f4576128f4612895565b612907601f8401601f19166020016128ab565b905082815283838301111561291b57600080fd5b828260208301376000602084830101529392505050565b600082601f83011261294357600080fd5b61269a838335602085016128db565b60006001600160401b0382111561296b5761296b612895565b5060051b60200190565b600082601f83011261298657600080fd5b8135602061299b61299683612952565b6128ab565b82815260059290921b840181019181810190868411156129ba57600080fd5b8286015b848110156129f95780356001600160401b038111156129dd5760008081fd5b6129eb8986838b0101612932565b8452509183019183016129be565b509695505050505050565b600080600080600060a08688031215612a1c57600080fd5b85356001600160401b0380821115612a3357600080fd5b612a3f89838a01612932565b96506020880135915080821115612a5557600080fd5b612a6189838a01612932565b9550604088013594506060880135915080821115612a7e57600080fd5b612a8a89838a01612975565b93506080880135915080821115612aa057600080fd5b50612aad88828901612975565b9150509295509295909350565b600060208284031215612acc57600080fd5b61269a8261271d565b600080600080600060608688031215612aed57600080fd5b612af68661271d565b945060208601356001600160401b03808211156127e157600080fd5b60008060408385031215612b2557600080fd5b612b2e8361271d565b915060208301358015158114612b4357600080fd5b809150509250929050565b60008060008060008060006080888a031215612b6957600080fd5b87356001600160401b0380821115612b8057600080fd5b612b8c8b838c01612763565b909950975060208a0135965060408a0135915080821115612bac57600080fd5b612bb88b838c01612763565b909650945060608a0135915080821115612bd157600080fd5b50612bde8a828b01612763565b989b979a50959850939692959293505050565b60008060008060808587031215612c0757600080fd5b612c108561271d565b9350612c1e6020860161271d565b92506040850135915060608501356001600160401b03811115612c4057600080fd5b8501601f81018713612c5157600080fd5b612c60878235602084016128db565b91505092959194509250565b60008060408385031215612c7f57600080fd5b50508035926020909101359150565b602081526000825160606020840152612caa60808401826126c5565b9050602084015160408401526040840151601f19848303016060850152612cd182826126c5565b95945050505050565b60008060408385031215612ced57600080fd5b612cf68361271d565b9150612d046020840161271d565b90509250929050565b608081526000612d2060808301876126c5565b8560208401528281036040840152612d3881866126c5565b91505082606083015295945050505050565b600181811c90821680612d5e57607f821691505b602082108103612d7e57634e487b7160e01b600052602260045260246000fd5b50919050565b634e487b7160e01b600052601160045260246000fd5b8082018082111561066e5761066e612d84565b601f82111561084257600081815260208120601f850160051c81016020861015612dd45750805b601f850160051c820191505b818110156110ad57828155600101612de0565b81516001600160401b03811115612e0c57612e0c612895565b612e2081612e1a8454612d4a565b84612dad565b602080601f831160018114612e555760008415612e3d5750858301515b600019600386901b1c1916600185901b1785556110ad565b600085815260208120601f198616915b82811015612e8457888601518255948401946001909101908401612e65565b5085821015612ea25787850151600019600388901b60f8161c191681555b5050505050600190811b01905550565b600060018201612ec457612ec4612d84565b5060010190565b6020808252602d908201527f4552433732313a2063616c6c6572206973206e6f7420746f6b656e206f776e6560408201526c1c881bdc88185c1c1c9bdd9959609a1b606082015260800190565b634e487b7160e01b600052603260045260246000fd5b6001600160401b03831115612f4557612f45612895565b612f5983612f538354612d4a565b83612dad565b6000601f841160018114612f8d5760008515612f755750838201355b600019600387901b1c1916600186901b1783556122ff565b600083815260209020601f19861690835b82811015612fbe5786850135825560209485019460019092019101612f9e565b5086821015612fdb5760001960f88860031b161c19848701351681555b505060018560011b0183555050505050565b808202811582820484141761066e5761066e612d84565b600082601f83011261301557600080fd5b8135602061302561299683612952565b82815260059290921b8401810191818101908684111561304457600080fd5b8286015b848110156129f95780358352918301918301613048565b600080600080600060a0868803121561307757600080fd5b85356001600160401b038082111561308e57600080fd5b61309a89838a01612975565b965060208801359150808211156130b057600080fd5b6130bc89838a01612975565b955060408801359150808211156130d257600080fd5b6130de89838a01613004565b94506060880135915080821115612a7e57600080fd5b6000815461310181612d4a565b60018281168015613119576001811461312e5761315d565b60ff198416875282151583028701945061315d565b8560005260208060002060005b858110156131545781548a82015290840190820161313b565b50505082870194505b5050505092915050565b6f3d901139b2b1ba34b7b724b2111d101160811b815283516000906131938160108501602089016126a1565b721116101139b2b1ba34b7b72730b6b2911d101160691b6010918401918201526131c060238201866130f4565b731116101139b2b1ba34b7b724b6b0b3b2911d101160611b815290506131e960148201856130f4565b6f222c20226368617074657273223a205b60801b81526010019695505050505050565b6000855161321e818460208a016126a1565b6f3d901131b430b83a32b924b2111d101160811b908301908152855161324b816010840160208a016126a1565b721116101131b430b83a32b92730b6b2911d101160691b6010929091019182015261327960238201866130f4565b731116101131b430b83a32b924b6b0b3b2911d101160611b815290506132a260148201856130f4565b6c222c20227061676573223a205b60981b8152600d01979650505050505050565b600085516132d5818460208a016126a1565b6c3d90113830b3b2a4b2111d101160991b90830190815285516132ff81600d840160208a016126a1565b6f111610113830b3b2a730b6b2911d101160811b600d929091019182015261332a601d8201866130f4565b72111610113830b3b2a1b7b73a32b73a111d101160691b8152905061335260138201856130f4565b61227d60f01b8152600201979650505050505050565b8181038181111561066e5761066e612d84565b6000825161338d8184602087016126a1565b600b60fa1b920191825250600101919050565b600083516133b28184602088016126a1565b8351908301906133c68183602088016126a1565b605d60f81b9101908152600101949350505050565b600083516133ed8184602088016126a1565b8351908301906134018183602088016126a1565b01949350505050565b6000825161341c8184602087016126a1565b615d7d60f01b920191825250600201919050565b60208082526025908201527f4552433732313a207472616e736665722066726f6d20696e636f72726563742060408201526437bbb732b960d91b606082015260800190565b6020808252602b908201527f496e697469616c697a61626c653a20636f6e7472616374206973206e6f74206960408201526a6e697469616c697a696e6760a81b606082015260800190565b60208082526032908201527f4552433732313a207472616e7366657220746f206e6f6e20455243373231526560408201527131b2b4bb32b91034b6b83632b6b2b73a32b960711b606082015260800190565b634e487b7160e01b600052601260045260246000fd5b60008261353757613537613512565b500490565b60008261354b5761354b613512565b500690565b60ff818116838216019081111561066e5761066e612d84565b6001600160a01b038581168252841660208201526040810183905260806060820181905260009061288b908301846126c5565b6000602082840312156135ae57600080fd5b815161269a81612667565b634e487b7160e01b600052603160045260246000fdfea2646970667358221220c82c39effe85b8123f7d6022855884c013b0176bc5e8309388183a341bdbb80464736f6c63430008120033",
  "linkReferences": {},
  "deployedLinkReferences": {}
}