{
  "_format": "hh-sol-artifact-1",
  "contractName": "Publius",
  "sourceName": "contracts/Publius.sol",
  "abi": [
    {
      "anonymous": false,
      "inputs": [
        {
          "indexed": true,
          "internalType": "address",
          "name": "owner",
          "type": "address"
        },
        {
          "indexed": true,
          "internalType": "address",
          "name": "approved",
          "type": "address"
        },
        {
          "indexed": true,
          "internalType": "uint256",
          "name": "tokenId",
          "type": "uint256"
        }
      ],
      "name": "Approval",
      "type": "event"
    },
    {
      "anonymous": false,
      "inputs": [
        {
          "indexed": true,
          "internalType": "address",
          "name": "owner",
          "type": "address"
        },
        {
          "indexed": true,
          "internalType": "address",
          "name": "operator",
          "type": "address"
        },
        {
          "indexed": false,
          "internalType": "bool",
          "name": "approved",
          "type": "bool"
        }
      ],
      "name": "ApprovalForAll",
      "type": "event"
    },
    {
      "anonymous": false,
      "inputs": [
        {
          "indexed": false,
          "internalType": "uint8",
          "name": "version",
          "type": "uint8"
        }
      ],
      "name": "Initialized",
      "type": "event"
    },
    {
      "anonymous": false,
      "inputs": [
        {
          "indexed": true,
          "internalType": "address",
          "name": "previousOwner",
          "type": "address"
        },
        {
          "indexed": true,
          "internalType": "address",
          "name": "newOwner",
          "type": "address"
        }
      ],
      "name": "OwnershipTransferred",
      "type": "event"
    },
    {
      "anonymous": false,
      "inputs": [
        {
          "indexed": true,
          "internalType": "address",
          "name": "from",
          "type": "address"
        },
        {
          "indexed": true,
          "internalType": "address",
          "name": "to",
          "type": "address"
        },
        {
          "indexed": true,
          "internalType": "uint256",
          "name": "tokenId",
          "type": "uint256"
        }
      ],
      "name": "Transfer",
      "type": "event"
    },
    {
      "inputs": [
        {
          "internalType": "string",
          "name": "_chapterName",
          "type": "string"
        },
        {
          "internalType": "string",
          "name": "_chapterImage",
          "type": "string"
        },
        {
          "internalType": "uint256",
          "name": "_chapterId",
          "type": "uint256"
        },
        {
          "internalType": "string[]",
          "name": "_pageNames",
          "type": "string[]"
        },
        {
          "internalType": "string[]",
          "name": "_pageContent",
          "type": "string[]"
        }
      ],
      "name": "addChapter",
      "outputs": [],
      "stateMutability": "nonpayable",
      "type": "function"
    },
    {
      "inputs": [
        {
          "internalType": "uint256",
          "name": "_chapter",
          "type": "uint256"
        },
        {
          "internalType": "string",
          "name": "_pageName",
          "type": "string"
        },
        {
          "internalType": "string",
          "name": "_pageContent",
          "type": "string"
        }
      ],
      "name": "addPage",
      "outputs": [],
      "stateMutability": "nonpayable",
      "type": "function"
    },
    {
      "inputs": [
        {
          "internalType": "bytes",
          "name": "_sectionInfo",
          "type": "bytes"
        },
        {
          "internalType": "bytes",
          "name": "_chapterInfo",
          "type": "bytes"
        },
        {
          "internalType": "bytes",
          "name": "_pageInfo",
          "type": "bytes"
        }
      ],
      "name": "addSection",
      "outputs": [],
      "stateMutability": "nonpayable",
      "type": "function"
    },
    {
      "inputs": [
        {
          "internalType": "address",
          "name": "_address",
          "type": "address"
        }
      ],
      "name": "addressToString",
      "outputs": [
        {
          "internalType": "string",
          "name": "",
          "type": "string"
        }
      ],
      "stateMutability": "pure",
      "type": "function"
    },
    {
      "inputs": [
        {
          "internalType": "address",
          "name": "to",
          "type": "address"
        },
        {
          "internalType": "uint256",
          "name": "tokenId",
          "type": "uint256"
        }
      ],
      "name": "approve",
      "outputs": [],
      "stateMutability": "nonpayable",
      "type": "function"
    },
    {
      "inputs": [
        {
          "internalType": "address",
          "name": "owner",
          "type": "address"
        }
      ],
      "name": "balanceOf",
      "outputs": [
        {
          "internalType": "uint256",
          "name": "",
          "type": "uint256"
        }
      ],
      "stateMutability": "view",
      "type": "function"
    },
    {
      "inputs": [
        {
          "internalType": "uint256",
          "name": "",
          "type": "uint256"
        }
      ],
      "name": "chapters",
      "outputs": [
        {
          "internalType": "string",
          "name": "chapterName",
          "type": "string"
        },
        {
          "internalType": "uint256",
          "name": "chapterId",
          "type": "uint256"
        },
        {
          "internalType": "string",
          "name": "chapterImage",
          "type": "string"
        },
        {
          "internalType": "uint256",
          "name": "pageCount",
          "type": "uint256"
        }
      ],
      "stateMutability": "view",
      "type": "function"
    },
    {
      "inputs": [
        {
          "internalType": "uint256",
          "name": "tokenId",
          "type": "uint256"
        }
      ],
      "name": "getApproved",
      "outputs": [
        {
          "internalType": "address",
          "name": "",
          "type": "address"
        }
      ],
      "stateMutability": "view",
      "type": "function"
    },
    {
      "inputs": [
        {
          "internalType": "uint256",
          "name": "_chapter",
          "type": "uint256"
        },
        {
          "internalType": "uint256",
          "name": "_pageId",
          "type": "uint256"
        }
      ],
      "name": "getPage",
      "outputs": [
        {
          "components": [
            {
              "internalType": "string",
              "name": "pageName",
              "type": "string"
            },
            {
              "internalType": "uint256",
              "name": "pageId",
              "type": "uint256"
            },
            {
              "internalType": "string",
              "name": "pageContent",
              "type": "string"
            }
          ],
          "internalType": "struct Publius.Page",
          "name": "",
          "type": "tuple"
        }
      ],
      "stateMutability": "view",
      "type": "function"
    },
    {
      "inputs": [
        {
          "internalType": "address",
          "name": "_publicationAuthor",
          "type": "address"
        },
        {
          "internalType": "string",
          "name": "_publicationName",
          "type": "string"
        },
        {
          "internalType": "string",
          "name": "_publicationCoverImage",
          "type": "string"
        }
      ],
      "name": "initialize",
      "outputs": [],
      "stateMutability": "nonpayable",
      "type": "function"
    },
    {
      "inputs": [
        {
          "internalType": "address",
          "name": "owner",
          "type": "address"
        },
        {
          "internalType": "address",
          "name": "operator",
          "type": "address"
        }
      ],
      "name": "isApprovedForAll",
      "outputs": [
        {
          "internalType": "bool",
          "name": "",
          "type": "bool"
        }
      ],
      "stateMutability": "view",
      "type": "function"
    },
    {
      "inputs": [
        {
          "internalType": "uint256",
          "name": "_amount",
          "type": "uint256"
        }
      ],
      "name": "mint",
      "outputs": [],
      "stateMutability": "payable",
      "type": "function"
    },
    {
      "inputs": [
        {
          "internalType": "address",
          "name": "",
          "type": "address"
        },
        {
          "internalType": "uint256",
          "name": "",
          "type": "uint256"
        }
      ],
      "name": "minterOwnedTokens",
      "outputs": [
        {
          "internalType": "uint256",
          "name": "",
          "type": "uint256"
        }
      ],
      "stateMutability": "view",
      "type": "function"
    },
    {
      "inputs": [],
      "name": "name",
      "outputs": [
        {
          "internalType": "string",
          "name": "",
          "type": "string"
        }
      ],
      "stateMutability": "view",
      "type": "function"
    },
    {
      "inputs": [],
      "name": "owner",
      "outputs": [
        {
          "internalType": "address",
          "name": "",
          "type": "address"
        }
      ],
      "stateMutability": "view",
      "type": "function"
    },
    {
      "inputs": [
        {
          "internalType": "uint256",
          "name": "tokenId",
          "type": "uint256"
        }
      ],
      "name": "ownerOf",
      "outputs": [
        {
          "internalType": "address",
          "name": "",
          "type": "address"
        }
      ],
      "stateMutability": "view",
      "type": "function"
    },
    {
      "inputs": [],
      "name": "publicationAuthor",
      "outputs": [
        {
          "internalType": "address",
          "name": "",
          "type": "address"
        }
      ],
      "stateMutability": "view",
      "type": "function"
    },
    {
      "inputs": [],
      "name": "publicationCoverImage",
      "outputs": [
        {
          "internalType": "string",
          "name": "",
          "type": "string"
        }
      ],
      "stateMutability": "view",
      "type": "function"
    },
    {
      "inputs": [],
      "name": "publicationName",
      "outputs": [
        {
          "internalType": "string",
          "name": "",
          "type": "string"
        }
      ],
      "stateMutability": "view",
      "type": "function"
    },
    {
      "inputs": [],
      "name": "renounceOwnership",
      "outputs": [],
      "stateMutability": "nonpayable",
      "type": "function"
    },
    {
      "inputs": [
        {
          "internalType": "address",
          "name": "from",
          "type": "address"
        },
        {
          "internalType": "address",
          "name": "to",
          "type": "address"
        },
        {
          "internalType": "uint256",
          "name": "tokenId",
          "type": "uint256"
        }
      ],
      "name": "safeTransferFrom",
      "outputs": [],
      "stateMutability": "nonpayable",
      "type": "function"
    },
    {
      "inputs": [
        {
          "internalType": "address",
          "name": "from",
          "type": "address"
        },
        {
          "internalType": "address",
          "name": "to",
          "type": "address"
        },
        {
          "internalType": "uint256",
          "name": "tokenId",
          "type": "uint256"
        },
        {
          "internalType": "bytes",
          "name": "data",
          "type": "bytes"
        }
      ],
      "name": "safeTransferFrom",
      "outputs": [],
      "stateMutability": "nonpayable",
      "type": "function"
    },
    {
      "inputs": [
        {
          "internalType": "uint256",
          "name": "",
          "type": "uint256"
        }
      ],
      "name": "sections",
      "outputs": [
        {
          "internalType": "string",
          "name": "sectionName",
          "type": "string"
        },
        {
          "internalType": "uint256",
          "name": "sectionId",
          "type": "uint256"
        },
        {
          "internalType": "string",
          "name": "sectionImage",
          "type": "string"
        }
      ],
      "stateMutability": "view",
      "type": "function"
    },
    {
      "inputs": [
        {
          "internalType": "address",
          "name": "operator",
          "type": "address"
        },
        {
          "internalType": "bool",
          "name": "approved",
          "type": "bool"
        }
      ],
      "name": "setApprovalForAll",
      "outputs": [],
      "stateMutability": "nonpayable",
      "type": "function"
    },
    {
      "inputs": [
        {
          "internalType": "bytes4",
          "name": "interfaceId",
          "type": "bytes4"
        }
      ],
      "name": "supportsInterface",
      "outputs": [
        {
          "internalType": "bool",
          "name": "",
          "type": "bool"
        }
      ],
      "stateMutability": "view",
      "type": "function"
    },
    {
      "inputs": [],
      "name": "symbol",
      "outputs": [
        {
          "internalType": "string",
          "name": "",
          "type": "string"
        }
      ],
      "stateMutability": "view",
      "type": "function"
    },
    {
      "inputs": [
        {
          "internalType": "uint256",
          "name": "index",
          "type": "uint256"
        }
      ],
      "name": "tokenByIndex",
      "outputs": [
        {
          "internalType": "uint256",
          "name": "",
          "type": "uint256"
        }
      ],
      "stateMutability": "view",
      "type": "function"
    },
    {
      "inputs": [
        {
          "internalType": "uint256",
          "name": "",
          "type": "uint256"
        }
      ],
      "name": "tokenIdToMinter",
      "outputs": [
        {
          "internalType": "address",
          "name": "",
          "type": "address"
        }
      ],
      "stateMutability": "view",
      "type": "function"
    },
    {
      "inputs": [
        {
          "internalType": "address",
          "name": "owner",
          "type": "address"
        },
        {
          "internalType": "uint256",
          "name": "index",
          "type": "uint256"
        }
      ],
      "name": "tokenOfOwnerByIndex",
      "outputs": [
        {
          "internalType": "uint256",
          "name": "",
          "type": "uint256"
        }
      ],
      "stateMutability": "view",
      "type": "function"
    },
    {
      "inputs": [
        {
          "internalType": "uint256",
          "name": "tokenId",
          "type": "uint256"
        }
      ],
      "name": "tokenURI",
      "outputs": [
        {
          "internalType": "string",
          "name": "",
          "type": "string"
        }
      ],
      "stateMutability": "view",
      "type": "function"
    },
    {
      "inputs": [],
      "name": "totalSupply",
      "outputs": [
        {
          "internalType": "uint256",
          "name": "",
          "type": "uint256"
        }
      ],
      "stateMutability": "view",
      "type": "function"
    },
    {
      "inputs": [
        {
          "internalType": "address",
          "name": "from",
          "type": "address"
        },
        {
          "internalType": "address",
          "name": "to",
          "type": "address"
        },
        {
          "internalType": "uint256",
          "name": "tokenId",
          "type": "uint256"
        }
      ],
      "name": "transferFrom",
      "outputs": [],
      "stateMutability": "nonpayable",
      "type": "function"
    },
    {
      "inputs": [
        {
          "internalType": "address",
          "name": "newOwner",
          "type": "address"
        }
      ],
      "name": "transferOwnership",
      "outputs": [],
      "stateMutability": "nonpayable",
      "type": "function"
    }
  ],
  "bytecode": "0x608060405234801561001057600080fd5b50613af3806100206000396000f3fe6080604052600436106101ee5760003560e01c80636b00aba61161010d578063a22cb465116100a0578063cd1a2e911161006f578063cd1a2e911461058e578063db010ae4146105bb578063e985e9c5146105db578063f2fde38b14610624578063f40adb121461064457600080fd5b8063a22cb46514610519578063b88d4fde14610539578063c87b56dd14610559578063ccfea8f01461057957600080fd5b80638da5cb5b116100dc5780638da5cb5b146104b357806390657147146104d157806395d89b41146104f1578063a0712d681461050657600080fd5b80636b00aba61461044957806370a0823114610469578063715018a61461048957806386b4e2a01461049e57600080fd5b80632f745c5911610185578063527c416511610154578063527c4165146103c85780635b92cc8a146103e95780635e57966d146104095780636352211e1461042957600080fd5b80632f745c5914610339578063356034401461035957806342842e0e146103885780634f6ccce7146103a857600080fd5b80630f1f0850116101c15780630f1f0850146102a457806318160ddd146102c45780632218f119146102e357806323b872dd1461031957600080fd5b806301ffc9a7146101f357806306fdde0314610228578063081812fc1461024a578063095ea7b314610282575b600080fd5b3480156101ff57600080fd5b5061021361020e3660046129c7565b610674565b60405190151581526020015b60405180910390f35b34801561023457600080fd5b5061023d61069f565b60405161021f9190612a3b565b34801561025657600080fd5b5061026a610265366004612a4e565b610731565b6040516001600160a01b03909116815260200161021f565b34801561028e57600080fd5b506102a261029d366004612a83565b610758565b005b3480156102b057600080fd5b506102a26102bf366004612af5565b610872565b3480156102d057600080fd5b506099545b60405190815260200161021f565b3480156102ef57600080fd5b5061026a6102fe366004612a4e565b60fb602052600090815260409020546001600160a01b031681565b34801561032557600080fd5b506102a2610334366004612b6e565b610a3c565b34801561034557600080fd5b506102d5610354366004612a83565b610a6d565b34801561036557600080fd5b50610379610374366004612a4e565b610b03565b60405161021f93929190612baa565b34801561039457600080fd5b506102a26103a3366004612b6e565b610c35565b3480156103b457600080fd5b506102d56103c3366004612a4e565b610c50565b3480156103d457600080fd5b506101005461026a906001600160a01b031681565b3480156103f557600080fd5b506102a2610404366004612d4e565b610ce3565b34801561041557600080fd5b5061023d610424366004612e04565b610e4b565b34801561043557600080fd5b5061026a610444366004612a4e565b611036565b34801561045557600080fd5b506102a2610464366004612e1f565b611096565b34801561047557600080fd5b506102d5610484366004612e04565b6111df565b34801561049557600080fd5b506102a2611265565b3480156104aa57600080fd5b5061023d611279565b3480156104bf57600080fd5b5060c9546001600160a01b031661026a565b3480156104dd57600080fd5b506102a26104ec366004612eb8565b611307565b3480156104fd57600080fd5b5061023d6114bd565b6102a2610514366004612a4e565b6114cc565b34801561052557600080fd5b506102a2610534366004612ef5565b6115a0565b34801561054557600080fd5b506102a2610554366004612f31565b6115ab565b34801561056557600080fd5b5061023d610574366004612a4e565b6115e3565b34801561058557600080fd5b5061023d6119e7565b34801561059a57600080fd5b506105ae6105a9366004612fac565b6119f5565b60405161021f9190612fce565b3480156105c757600080fd5b506102d56105d6366004612a83565b611b7a565b3480156105e757600080fd5b506102136105f636600461301a565b6001600160a01b039182166000908152606a6020908152604080832093909416825291909152205460ff1690565b34801561063057600080fd5b506102a261063f366004612e04565b611bab565b34801561065057600080fd5b5061066461065f366004612a4e565b611c24565b60405161021f949392919061304d565b60006001600160e01b0319821663780e9d6360e01b1480610699575061069982611d5c565b92915050565b6060606580546106ae9061308a565b80601f01602080910402602001604051908101604052809291908181526020018280546106da9061308a565b80156107275780601f106106fc57610100808354040283529160200191610727565b820191906000526020600020905b81548152906001019060200180831161070a57829003601f168201915b5050505050905090565b600061073c82611dac565b506000908152606960205260409020546001600160a01b031690565b600061076382611036565b9050806001600160a01b0316836001600160a01b0316036107d55760405162461bcd60e51b815260206004820152602160248201527f4552433732313a20617070726f76616c20746f2063757272656e74206f776e656044820152603960f91b60648201526084015b60405180910390fd5b336001600160a01b03821614806107f157506107f181336105f6565b6108635760405162461bcd60e51b815260206004820152603d60248201527f4552433732313a20617070726f76652063616c6c6572206973206e6f7420746f60448201527f6b656e206f776e6572206f7220617070726f76656420666f7220616c6c00000060648201526084016107cc565b61086d8383611e0b565b505050565b61087a611e79565b60405160200161089590602080825260009082015260400190565b60408051601f198184030181528282528051602091820120600089815260fe83529290922091926108c79291016130c4565b60405160208183030381529060405280519060200120036109235760405162461bcd60e51b815260206004820152601660248201527510da185c1d195c88191bd95cc81b9bdd08195e1a5cdd60521b60448201526064016107cc565b600085815260fe602090815260409182902082516080601f880184900490930281018301909352606083018681529092918291908890889081908501838280828437600092019190915250505090825250600483015460209091019061098a906001613165565b815260200184848080601f016020809104026020016040519081016040528093929190818152602001838380828437600092018290525093909452505060048401546003850192506109dd906001613165565b81526020810191909152604001600020815181906109fb90826131be565b506020820151600182015560408201516002820190610a1a90826131be565b505050600481018054906000610a2f8361327d565b9190505550505050505050565b610a463382611ed3565b610a625760405162461bcd60e51b81526004016107cc90613296565b61086d838383611f52565b6000610a78836111df565b8210610ada5760405162461bcd60e51b815260206004820152602b60248201527f455243373231456e756d657261626c653a206f776e657220696e646578206f7560448201526a74206f6620626f756e647360a81b60648201526084016107cc565b506001600160a01b03919091166000908152609760209081526040808320938352929052205490565b60fd60205260009081526040902080548190610b1e9061308a565b80601f0160208091040260200160405190810160405280929190818152602001828054610b4a9061308a565b8015610b975780601f10610b6c57610100808354040283529160200191610b97565b820191906000526020600020905b815481529060010190602001808311610b7a57829003601f168201915b505050505090806001015490806002018054610bb29061308a565b80601f0160208091040260200160405190810160405280929190818152602001828054610bde9061308a565b8015610c2b5780601f10610c0057610100808354040283529160200191610c2b565b820191906000526020600020905b815481529060010190602001808311610c0e57829003601f168201915b5050505050905083565b61086d838383604051806020016040528060008152506115ab565b6000610c5b60995490565b8210610cbe5760405162461bcd60e51b815260206004820152602c60248201527f455243373231456e756d657261626c653a20676c6f62616c20696e646578206f60448201526b7574206f6620626f756e647360a01b60648201526084016107cc565b60998281548110610cd157610cd16132e3565b90600052602060002001549050919050565b610ceb611e79565b600083815260fe60205260408120905b8351811015610dda576040518060600160405280858381518110610d2157610d216132e3565b60200260200101518152602001826001610d3b9190613165565b8152602001848381518110610d5257610d526132e3565b6020026020010151815250826003016000836001610d709190613165565b8152602081019190915260400160002081518190610d8e90826131be565b506020820151600182015560408201516002820190610dad90826131be565b505050600482018054906000610dc28361327d565b91905055508080610dd29061327d565b915050610cfb565b5080610de687826131be565b5060018101849055604051610dff908690602001612a3b565b60405160208183030381529060405280519060200120600003610e315760405180602001604052806000815250610e33565b845b6002820190610e4290826131be565b50505050505050565b604080518082018252601081526f181899199a1a9b1b9c1cb0b131b232b360811b60208201528151602a80825260608281019094526001600160a01b0385169291600091602082018180368337019050509050600360fc1b81600081518110610eb657610eb66132e3565b60200101906001600160f81b031916908160001a905350600f60fb1b81600181518110610ee557610ee56132e3565b60200101906001600160f81b031916908160001a90535060005b601481101561102d5782600485610f1784600c613165565b60208110610f2757610f276132e3565b1a60f81b6001600160f81b031916901c60f81c60ff1681518110610f4d57610f4d6132e3565b01602001516001600160f81b03191682610f688360026132f9565b610f73906002613165565b81518110610f8357610f836132e3565b60200101906001600160f81b031916908160001a9053508284610fa783600c613165565b60208110610fb757610fb76132e3565b825191901a600f16908110610fce57610fce6132e3565b01602001516001600160f81b03191682610fe98360026132f9565b610ff4906003613165565b81518110611004576110046132e3565b60200101906001600160f81b031916908160001a905350806110258161327d565b915050610eff565b50949350505050565b6000818152606760205260408120546001600160a01b0316806106995760405162461bcd60e51b8152602060048201526018602482015277115490cdcc8c4e881a5b9d985b1a59081d1bdad95b88125160421b60448201526064016107cc565b61109e611e79565b600080806110ae888a018a613310565b91945092509050600080806110c5898b018b61337c565b919450925090506000806110db898b018b613459565b600088815260fd6020526040902091935091506110f889826131be565b50600086815260fd602052604090206001810187905560020161111b88826131be565b50600086815260fd60209081526040909120845161114192600390920191860190612951565b5060005b85518110156111b8576111a6868281518110611163576111636132e3565b602002602001015186838151811061117d5761117d6132e3565b6020026020010151868481518110611197576111976132e3565b60200260200101518686610ce3565b806111b08161327d565b915050611145565b5061010280549060006111ca8361327d565b91905055505050505050505050505050505050565b60006001600160a01b0382166112495760405162461bcd60e51b815260206004820152602960248201527f4552433732313a2061646472657373207a65726f206973206e6f7420612076616044820152683634b21037bbb732b960b91b60648201526084016107cc565b506001600160a01b031660009081526068602052604090205490565b61126d611e79565b61127760006120c3565b565b60ff80546112869061308a565b80601f01602080910402602001604051908101604052809291908181526020018280546112b29061308a565b80156112ff5780601f106112d4576101008083540402835291602001916112ff565b820191906000526020600020905b8154815290600101906020018083116112e257829003601f168201915b505050505081565b600054610100900460ff16158080156113275750600054600160ff909116105b806113415750303b158015611341575060005460ff166001145b6113a45760405162461bcd60e51b815260206004820152602e60248201527f496e697469616c697a61626c653a20636f6e747261637420697320616c72656160448201526d191e481a5b9a5d1a585b1a5e995960921b60648201526084016107cc565b6000805460ff1916600117905580156113c7576000805461ff0019166101001790555b61142585858080601f016020809104026020016040519081016040528093929190818152602001838380828437600092019190915250506040805180820190915260078152665055424c49555360c81b602082015291506121159050565b61142d612146565b61143686611bab565b60ff6114438587836134bc565b5061010080546001600160a01b0319166001600160a01b03881617905561010161146e8385836134bc565b5080156114b5576000805461ff0019169055604051600181527f7f26b83ff96e1f2b6a682f133852f6798a09c465da95921460cefb38474024989060200160405180910390a15b505050505050565b6060606680546106ae9061308a565b6114dd81662386f26fc100006132f9565b3410156115225760405162461bcd60e51b8152602060048201526013602482015272139bdd08195b9bdd59da08115512081cd95b9d606a1b60448201526064016107cc565b60005b8181101561159c57600061153860995490565b611543906001613165565b905061154f3382612175565b600081815260fb6020908152604080832080546001600160a01b03191633908117909155835260fc82528220805460018101825590835291200155806115948161327d565b915050611525565b5050565b61159c33838361230e565b6115b53383611ed3565b6115d15760405162461bcd60e51b81526004016107cc90613296565b6115dd848484846123dc565b50505050565b6000818152606760205260409020546060906001600160a01b03166116625760405162461bcd60e51b815260206004820152602f60248201527f4552433732314d657461646174613a2055524920717565727920666f72206e6f60448201526e3732bc34b9ba32b73a103a37b5b2b760891b60648201526084016107cc565b6040805180820190915260128152717b20225075626c69636174696f6e223a207b60701b60208201526101005460ff906116a4906001600160a01b0316610e4b565b6101016040516020016116b9939291906135ee565b604051602081830303815290604052905060005b6101025481101561197057600081815260fd6020526040812060018101549091906116f79061240f565b60405161170e919084906002820190602001613694565b604051602081830303815290604052905060005b60038301548110156118da57600081815260fe60205260408120600181015490919061174d9061240f565b604051611764919084906002820190602001613739565b604051602081830303815290604052905060005b8260040154811015611841576000818152600384016020526040812060018101549091906117a59061240f565b6040516117bc9190849060028201906020016137db565b6040516020818303038152906040529050600185600401546117de919061386b565b83101561180857806040516020016117f6919061387e565b60405160208183030381529060405290505b838160405160200161181b9291906138a3565b6040516020818303038152906040529350505080806118399061327d565b915050611778565b508060405160200161185391906138d2565b60408051601f1981840301815291905260038601549091506118779060019061386b565b8310156118a1578060405160200161188f919061387e565b60405160208183030381529060405290505b83816040516020016118b49291906138a3565b6040516020818303038152906040529350505080806118d29061327d565b915050611722565b50806040516020016118ec91906138d2565b604051602081830303815290604052905060016101025461190d919061386b565b8310156119375780604051602001611925919061387e565b60405160208183030381529060405290505b838160405160200161194a9291906138a3565b6040516020818303038152906040529350505080806119689061327d565b9150506116cd565b508060405160200161198291906138d2565b6040516020818303038152906040529050806040516020016119a491906138f8565b60408051808303601f19018152602080840183526000845291519093506119cf9183918591016138a3565b60405160208183030381529060405292505050919050565b61010180546112869061308a565b611a1960405180606001604052806060815260200160008152602001606081525090565b600083815260fe602090815260408083208584526003810190925291829020825160608101909352805491929182908290611a539061308a565b80601f0160208091040260200160405190810160405280929190818152602001828054611a7f9061308a565b8015611acc5780601f10611aa157610100808354040283529160200191611acc565b820191906000526020600020905b815481529060010190602001808311611aaf57829003601f168201915b5050505050815260200160018201548152602001600282018054611aef9061308a565b80601f0160208091040260200160405190810160405280929190818152602001828054611b1b9061308a565b8015611b685780601f10611b3d57610100808354040283529160200191611b68565b820191906000526020600020905b815481529060010190602001808311611b4b57829003601f168201915b50505050508152505091505092915050565b60fc6020528160005260406000208181548110611b9657600080fd5b90600052602060002001600091509150505481565b611bb3611e79565b6001600160a01b038116611c185760405162461bcd60e51b815260206004820152602660248201527f4f776e61626c653a206e6577206f776e657220697320746865207a65726f206160448201526564647265737360d01b60648201526084016107cc565b611c21816120c3565b50565b60fe60205260009081526040902080548190611c3f9061308a565b80601f0160208091040260200160405190810160405280929190818152602001828054611c6b9061308a565b8015611cb85780601f10611c8d57610100808354040283529160200191611cb8565b820191906000526020600020905b815481529060010190602001808311611c9b57829003601f168201915b505050505090806001015490806002018054611cd39061308a565b80601f0160208091040260200160405190810160405280929190818152602001828054611cff9061308a565b8015611d4c5780601f10611d2157610100808354040283529160200191611d4c565b820191906000526020600020905b815481529060010190602001808311611d2f57829003601f168201915b5050505050908060040154905084565b60006001600160e01b031982166380ac58cd60e01b1480611d8d57506001600160e01b03198216635b5e139f60e01b145b8061069957506301ffc9a760e01b6001600160e01b0319831614610699565b6000818152606760205260409020546001600160a01b0316611c215760405162461bcd60e51b8152602060048201526018602482015277115490cdcc8c4e881a5b9d985b1a59081d1bdad95b88125160421b60448201526064016107cc565b600081815260696020526040902080546001600160a01b0319166001600160a01b0384169081179091558190611e4082611036565b6001600160a01b03167f8c5be1e5ebec7d5bd14f71427d1e84f3dd0314c0f7b2291e5b200ac8c7c3b92560405160405180910390a45050565b60c9546001600160a01b031633146112775760405162461bcd60e51b815260206004820181905260248201527f4f776e61626c653a2063616c6c6572206973206e6f7420746865206f776e657260448201526064016107cc565b600080611edf83611036565b9050806001600160a01b0316846001600160a01b03161480611f2657506001600160a01b038082166000908152606a602090815260408083209388168352929052205460ff165b80611f4a5750836001600160a01b0316611f3f84610731565b6001600160a01b0316145b949350505050565b826001600160a01b0316611f6582611036565b6001600160a01b031614611f8b5760405162461bcd60e51b81526004016107cc9061391e565b6001600160a01b038216611fed5760405162461bcd60e51b8152602060048201526024808201527f4552433732313a207472616e7366657220746f20746865207a65726f206164646044820152637265737360e01b60648201526084016107cc565b611ffa838383600161251c565b826001600160a01b031661200d82611036565b6001600160a01b0316146120335760405162461bcd60e51b81526004016107cc9061391e565b600081815260696020908152604080832080546001600160a01b03199081169091556001600160a01b0387811680865260688552838620805460001901905590871680865283862080546001019055868652606790945282852080549092168417909155905184937fddf252ad1be2c89b69c2b068fc378daa952ba7f163c4a11628f55a4df523b3ef91a4505050565b60c980546001600160a01b038381166001600160a01b0319831681179093556040519116919082907f8be0079c531659141344cd1fd0a4f28419497f9722a3daafe3b4186f6b6457e090600090a35050565b600054610100900460ff1661213c5760405162461bcd60e51b81526004016107cc90613963565b61159c8282612650565b600054610100900460ff1661216d5760405162461bcd60e51b81526004016107cc90613963565b611277612690565b6001600160a01b0382166121cb5760405162461bcd60e51b815260206004820181905260248201527f4552433732313a206d696e7420746f20746865207a65726f206164647265737360448201526064016107cc565b6000818152606760205260409020546001600160a01b0316156122305760405162461bcd60e51b815260206004820152601c60248201527f4552433732313a20746f6b656e20616c7265616479206d696e7465640000000060448201526064016107cc565b61223e60008383600161251c565b6000818152606760205260409020546001600160a01b0316156122a35760405162461bcd60e51b815260206004820152601c60248201527f4552433732313a20746f6b656e20616c7265616479206d696e7465640000000060448201526064016107cc565b6001600160a01b038216600081815260686020908152604080832080546001019055848352606790915280822080546001600160a01b0319168417905551839291907fddf252ad1be2c89b69c2b068fc378daa952ba7f163c4a11628f55a4df523b3ef908290a45050565b816001600160a01b0316836001600160a01b03160361236f5760405162461bcd60e51b815260206004820152601960248201527f4552433732313a20617070726f766520746f2063616c6c65720000000000000060448201526064016107cc565b6001600160a01b038381166000818152606a6020908152604080832094871680845294825291829020805460ff191686151590811790915591519182527f17307eab39ab6107e8899845ad3d59bd9653f200f220920489ca2b5937696c31910160405180910390a3505050565b6123e7848484611f52565b6123f3848484846126c0565b6115dd5760405162461bcd60e51b81526004016107cc906139ae565b6060816000036124365750506040805180820190915260018152600360fc1b602082015290565b8160005b8115612460578061244a8161327d565b91506124599050600a83613a16565b915061243a565b6000816001600160401b0381111561247a5761247a612bdf565b6040519080825280601f01601f1916602001820160405280156124a4576020820181803683370190505b509050815b851561102d576124ba60018261386b565b905060006124c9600a88613a2a565b6124d4906030613a3e565b905060008160f81b9050808484815181106124f1576124f16132e3565b60200101906001600160f81b031916908160001a905350612513600a89613a16565b975050506124a9565b600181111561258b5760405162461bcd60e51b815260206004820152603560248201527f455243373231456e756d657261626c653a20636f6e7365637574697665207472604482015274185b9cd9995c9cc81b9bdd081cdd5c1c1bdc9d1959605a1b60648201526084016107cc565b816001600160a01b0385166125e7576125e281609980546000838152609a60205260408120829055600182018355919091527f72a152ddfb8e864297c917af52ea6c1c68aead0fee1a62673fcc7e0c94979d000155565b61260a565b836001600160a01b0316856001600160a01b03161461260a5761260a85826127c1565b6001600160a01b038416612626576126218161285e565b612649565b846001600160a01b0316846001600160a01b03161461264957612649848261290d565b5050505050565b600054610100900460ff166126775760405162461bcd60e51b81526004016107cc90613963565b606561268383826131be565b50606661086d82826131be565b600054610100900460ff166126b75760405162461bcd60e51b81526004016107cc90613963565b611277336120c3565b60006001600160a01b0384163b156127b657604051630a85bd0160e11b81526001600160a01b0385169063150b7a0290612704903390899088908890600401613a57565b6020604051808303816000875af192505050801561273f575060408051601f3d908101601f1916820190925261273c91810190613a8a565b60015b61279c573d80801561276d576040519150601f19603f3d011682016040523d82523d6000602084013e612772565b606091505b5080516000036127945760405162461bcd60e51b81526004016107cc906139ae565b805181602001fd5b6001600160e01b031916630a85bd0160e11b149050611f4a565b506001949350505050565b600060016127ce846111df565b6127d8919061386b565b60008381526098602052604090205490915080821461282b576001600160a01b03841660009081526097602090815260408083208584528252808320548484528184208190558352609890915290208190555b5060009182526098602090815260408084208490556001600160a01b039094168352609781528383209183525290812055565b6099546000906128709060019061386b565b6000838152609a602052604081205460998054939450909284908110612898576128986132e3565b9060005260206000200154905080609983815481106128b9576128b96132e3565b6000918252602080832090910192909255828152609a909152604080822084905585825281205560998054806128f1576128f1613aa7565b6001900381819060005260206000200160009055905550505050565b6000612918836111df565b6001600160a01b039093166000908152609760209081526040808320868452825280832085905593825260989052919091209190915550565b82805482825590600052602060002090810192821561298c579160200282015b8281111561298c578251825591602001919060010190612971565b5061299892915061299c565b5090565b5b80821115612998576000815560010161299d565b6001600160e01b031981168114611c2157600080fd5b6000602082840312156129d957600080fd5b81356129e4816129b1565b9392505050565b60005b83811015612a065781810151838201526020016129ee565b50506000910152565b60008151808452612a278160208601602086016129eb565b601f01601f19169290920160200192915050565b6020815260006129e46020830184612a0f565b600060208284031215612a6057600080fd5b5035919050565b80356001600160a01b0381168114612a7e57600080fd5b919050565b60008060408385031215612a9657600080fd5b612a9f83612a67565b946020939093013593505050565b60008083601f840112612abf57600080fd5b5081356001600160401b03811115612ad657600080fd5b602083019150836020828501011115612aee57600080fd5b9250929050565b600080600080600060608688031215612b0d57600080fd5b8535945060208601356001600160401b0380821115612b2b57600080fd5b612b3789838a01612aad565b90965094506040880135915080821115612b5057600080fd5b50612b5d88828901612aad565b969995985093965092949392505050565b600080600060608486031215612b8357600080fd5b612b8c84612a67565b9250612b9a60208501612a67565b9150604084013590509250925092565b606081526000612bbd6060830186612a0f565b8460208401528281036040840152612bd58185612a0f565b9695505050505050565b634e487b7160e01b600052604160045260246000fd5b604051601f8201601f191681016001600160401b0381118282101715612c1d57612c1d612bdf565b604052919050565b60006001600160401b03831115612c3e57612c3e612bdf565b612c51601f8401601f1916602001612bf5565b9050828152838383011115612c6557600080fd5b828260208301376000602084830101529392505050565b600082601f830112612c8d57600080fd5b6129e483833560208501612c25565b60006001600160401b03821115612cb557612cb5612bdf565b5060051b60200190565b600082601f830112612cd057600080fd5b81356020612ce5612ce083612c9c565b612bf5565b82815260059290921b84018101918181019086841115612d0457600080fd5b8286015b84811015612d435780356001600160401b03811115612d275760008081fd5b612d358986838b0101612c7c565b845250918301918301612d08565b509695505050505050565b600080600080600060a08688031215612d6657600080fd5b85356001600160401b0380821115612d7d57600080fd5b612d8989838a01612c7c565b96506020880135915080821115612d9f57600080fd5b612dab89838a01612c7c565b9550604088013594506060880135915080821115612dc857600080fd5b612dd489838a01612cbf565b93506080880135915080821115612dea57600080fd5b50612df788828901612cbf565b9150509295509295909350565b600060208284031215612e1657600080fd5b6129e482612a67565b60008060008060008060608789031215612e3857600080fd5b86356001600160401b0380821115612e4f57600080fd5b612e5b8a838b01612aad565b90985096506020890135915080821115612e7457600080fd5b612e808a838b01612aad565b90965094506040890135915080821115612e9957600080fd5b50612ea689828a01612aad565b979a9699509497509295939492505050565b600080600080600060608688031215612ed057600080fd5b612ed986612a67565b945060208601356001600160401b0380821115612b2b57600080fd5b60008060408385031215612f0857600080fd5b612f1183612a67565b915060208301358015158114612f2657600080fd5b809150509250929050565b60008060008060808587031215612f4757600080fd5b612f5085612a67565b9350612f5e60208601612a67565b92506040850135915060608501356001600160401b03811115612f8057600080fd5b8501601f81018713612f9157600080fd5b612fa087823560208401612c25565b91505092959194509250565b60008060408385031215612fbf57600080fd5b50508035926020909101359150565b602081526000825160606020840152612fea6080840182612a0f565b9050602084015160408401526040840151601f198483030160608501526130118282612a0f565b95945050505050565b6000806040838503121561302d57600080fd5b61303683612a67565b915061304460208401612a67565b90509250929050565b6080815260006130606080830187612a0f565b85602084015282810360408401526130788186612a0f565b91505082606083015295945050505050565b600181811c9082168061309e57607f821691505b6020821081036130be57634e487b7160e01b600052602260045260246000fd5b50919050565b60006020808352600084546130d88161308a565b808487015260406001808416600081146130f9576001811461311357613141565b60ff1985168984015283151560051b890183019550613141565b896000528660002060005b858110156131395781548b820186015290830190880161311e565b8a0184019650505b509398975050505050505050565b634e487b7160e01b600052601160045260246000fd5b808201808211156106995761069961314f565b601f82111561086d57600081815260208120601f850160051c8101602086101561319f5750805b601f850160051c820191505b818110156114b5578281556001016131ab565b81516001600160401b038111156131d7576131d7612bdf565b6131eb816131e5845461308a565b84613178565b602080601f83116001811461322057600084156132085750858301515b600019600386901b1c1916600185901b1785556114b5565b600085815260208120601f198616915b8281101561324f57888601518255948401946001909101908401613230565b508582101561326d5787850151600019600388901b60f8161c191681555b5050505050600190811b01905550565b60006001820161328f5761328f61314f565b5060010190565b6020808252602d908201527f4552433732313a2063616c6c6572206973206e6f7420746f6b656e206f776e6560408201526c1c881bdc88185c1c1c9bdd9959609a1b606082015260800190565b634e487b7160e01b600052603260045260246000fd5b80820281158282048414176106995761069961314f565b60008060006060848603121561332557600080fd5b83356001600160401b038082111561333c57600080fd5b61334887838801612c7c565b9450602086013591508082111561335e57600080fd5b5061336b86828701612c7c565b925050604084013590509250925092565b60008060006060848603121561339157600080fd5b83356001600160401b03808211156133a857600080fd5b6133b487838801612cbf565b94506020915081860135818111156133cb57600080fd5b6133d788828901612cbf565b9450506040860135818111156133ec57600080fd5b86019050601f810187136133ff57600080fd5b803561340d612ce082612c9c565b81815260059190911b8201830190838101908983111561342c57600080fd5b928401925b8284101561344a57833582529284019290840190613431565b80955050505050509250925092565b6000806040838503121561346c57600080fd5b82356001600160401b038082111561348357600080fd5b61348f86838701612cbf565b935060208501359150808211156134a557600080fd5b506134b285828601612cbf565b9150509250929050565b6001600160401b038311156134d3576134d3612bdf565b6134e7836134e1835461308a565b83613178565b6000601f84116001811461351b57600085156135035750838201355b600019600387901b1c1916600186901b178355612649565b600083815260209020601f19861690835b8281101561354c578685013582556020948501946001909201910161352c565b50868210156135695760001960f88860031b161c19848701351681555b505060018560011b0183555050505050565b600081546135888161308a565b600182811680156135a057600181146135b5576135e4565b60ff19841687528215158302870194506135e4565b8560005260208060002060005b858110156135db5781548a8201529084019082016135c2565b50505082870194505b5050505092915050565b75161011383ab13634b1b0ba34b7b72730b6b2911d101160511b81526000613619601683018661357b565b711116101130baba3437b92730b6b2911d101160711b815284516136448160128401602089016129eb565b711116101131b7bb32b924b6b0b3b2911d101160711b60129290910191820152613671602482018561357b565b6f222c202253656374696f6e73223a205b60801b81526010019695505050505050565b6f3d901139b2b1ba34b7b724b2111d101160811b815283516000906136c08160108501602089016129eb565b721116101139b2b1ba34b7b72730b6b2911d101160691b6010918401918201526136ed602382018661357b565b731116101139b2b1ba34b7b724b6b0b3b2911d101160611b81529050613716601482018561357b565b6f222c20226368617074657273223a205b60801b81526010019695505050505050565b6f3d901131b430b83a32b924b2111d101160811b815283516000906137658160108501602089016129eb565b721116101131b430b83a32b92730b6b2911d101160691b601091840191820152613792602382018661357b565b731116101131b430b83a32b924b6b0b3b2911d101160611b815290506137bb601482018561357b565b6c222c20227061676573223a205b60981b8152600d019695505050505050565b6c3d90113830b3b2a4b2111d101160991b8152835160009061380481600d8501602089016129eb565b6f111610113830b3b2a730b6b2911d101160811b600d9184019182015261382e601d82018661357b565b72111610113830b3b2a1b7b73a32b73a111d101160691b81529050613856601382018561357b565b61227d60f01b81526002019695505050505050565b818103818111156106995761069961314f565b600082516138908184602087016129eb565b600b60fa1b920191825250600101919050565b600083516138b58184602088016129eb565b8351908301906138c98183602088016129eb565b01949350505050565b600082516138e48184602087016129eb565b615d7d60f01b920191825250600201919050565b6000825161390a8184602087016129eb565b617d7d60f01b920191825250600201919050565b60208082526025908201527f4552433732313a207472616e736665722066726f6d20696e636f72726563742060408201526437bbb732b960d91b606082015260800190565b6020808252602b908201527f496e697469616c697a61626c653a20636f6e7472616374206973206e6f74206960408201526a6e697469616c697a696e6760a81b606082015260800190565b60208082526032908201527f4552433732313a207472616e7366657220746f206e6f6e20455243373231526560408201527131b2b4bb32b91034b6b83632b6b2b73a32b960711b606082015260800190565b634e487b7160e01b600052601260045260246000fd5b600082613a2557613a25613a00565b500490565b600082613a3957613a39613a00565b500690565b60ff81811683821601908111156106995761069961314f565b6001600160a01b0385811682528416602082015260408101839052608060608201819052600090612bd590830184612a0f565b600060208284031215613a9c57600080fd5b81516129e4816129b1565b634e487b7160e01b600052603160045260246000fdfea26469706673582212205cd9b5de6e6d71ad2785047cc36947cf59e440a857b10828af28956cb215fc7464736f6c63430008120033",
  "linkReferences": {},
  "deployedLinkReferences": {}
}