{
  "_format": "hh-sol-artifact-1",
  "contractName": "Publius",
  "sourceName": "contracts/Publius.sol",
  "abi": [
    {
      "anonymous": false,
      "inputs": [
        {
          "indexed": true,
          "internalType": "address",
          "name": "owner",
          "type": "address"
        },
        {
          "indexed": true,
          "internalType": "address",
          "name": "approved",
          "type": "address"
        },
        {
          "indexed": true,
          "internalType": "uint256",
          "name": "tokenId",
          "type": "uint256"
        }
      ],
      "name": "Approval",
      "type": "event"
    },
    {
      "anonymous": false,
      "inputs": [
        {
          "indexed": true,
          "internalType": "address",
          "name": "owner",
          "type": "address"
        },
        {
          "indexed": true,
          "internalType": "address",
          "name": "operator",
          "type": "address"
        },
        {
          "indexed": false,
          "internalType": "bool",
          "name": "approved",
          "type": "bool"
        }
      ],
      "name": "ApprovalForAll",
      "type": "event"
    },
    {
      "anonymous": false,
      "inputs": [
        {
          "indexed": false,
          "internalType": "uint8",
          "name": "version",
          "type": "uint8"
        }
      ],
      "name": "Initialized",
      "type": "event"
    },
    {
      "anonymous": false,
      "inputs": [
        {
          "indexed": true,
          "internalType": "address",
          "name": "previousOwner",
          "type": "address"
        },
        {
          "indexed": true,
          "internalType": "address",
          "name": "newOwner",
          "type": "address"
        }
      ],
      "name": "OwnershipTransferred",
      "type": "event"
    },
    {
      "anonymous": false,
      "inputs": [
        {
          "indexed": true,
          "internalType": "address",
          "name": "from",
          "type": "address"
        },
        {
          "indexed": true,
          "internalType": "address",
          "name": "to",
          "type": "address"
        },
        {
          "indexed": true,
          "internalType": "uint256",
          "name": "tokenId",
          "type": "uint256"
        }
      ],
      "name": "Transfer",
      "type": "event"
    },
    {
      "inputs": [
        {
          "internalType": "uint256",
          "name": "_sectionId",
          "type": "uint256"
        },
        {
          "internalType": "string",
          "name": "_chapterName",
          "type": "string"
        },
        {
          "internalType": "string",
          "name": "_chapterImage",
          "type": "string"
        },
        {
          "internalType": "uint256",
          "name": "_chapterId",
          "type": "uint256"
        },
        {
          "internalType": "string[]",
          "name": "_pageNames",
          "type": "string[]"
        },
        {
          "internalType": "string[]",
          "name": "_pageContent",
          "type": "string[]"
        },
        {
          "internalType": "string[]",
          "name": "_pageIds",
          "type": "string[]"
        }
      ],
      "name": "addChapter",
      "outputs": [],
      "stateMutability": "nonpayable",
      "type": "function"
    },
    {
      "inputs": [
        {
          "internalType": "uint256",
          "name": "_chapter",
          "type": "uint256"
        },
        {
          "internalType": "string",
          "name": "_pageName",
          "type": "string"
        },
        {
          "internalType": "string",
          "name": "_pageContent",
          "type": "string"
        },
        {
          "internalType": "string",
          "name": "_pageId",
          "type": "string"
        }
      ],
      "name": "addPage",
      "outputs": [],
      "stateMutability": "nonpayable",
      "type": "function"
    },
    {
      "inputs": [
        {
          "internalType": "bytes",
          "name": "_sectionInfo",
          "type": "bytes"
        },
        {
          "internalType": "bytes",
          "name": "_chapterInfo",
          "type": "bytes"
        },
        {
          "internalType": "bytes",
          "name": "_pageInfo",
          "type": "bytes"
        }
      ],
      "name": "addSection",
      "outputs": [],
      "stateMutability": "nonpayable",
      "type": "function"
    },
    {
      "inputs": [
        {
          "internalType": "address",
          "name": "_address",
          "type": "address"
        }
      ],
      "name": "addressToString",
      "outputs": [
        {
          "internalType": "string",
          "name": "",
          "type": "string"
        }
      ],
      "stateMutability": "pure",
      "type": "function"
    },
    {
      "inputs": [
        {
          "internalType": "address",
          "name": "to",
          "type": "address"
        },
        {
          "internalType": "uint256",
          "name": "tokenId",
          "type": "uint256"
        }
      ],
      "name": "approve",
      "outputs": [],
      "stateMutability": "nonpayable",
      "type": "function"
    },
    {
      "inputs": [
        {
          "internalType": "address",
          "name": "owner",
          "type": "address"
        }
      ],
      "name": "balanceOf",
      "outputs": [
        {
          "internalType": "uint256",
          "name": "",
          "type": "uint256"
        }
      ],
      "stateMutability": "view",
      "type": "function"
    },
    {
      "inputs": [
        {
          "internalType": "uint256",
          "name": "",
          "type": "uint256"
        }
      ],
      "name": "chapters",
      "outputs": [
        {
          "internalType": "string",
          "name": "chapterName",
          "type": "string"
        },
        {
          "internalType": "uint256",
          "name": "chapterId",
          "type": "uint256"
        },
        {
          "internalType": "string",
          "name": "chapterImage",
          "type": "string"
        },
        {
          "internalType": "uint256",
          "name": "pageCount",
          "type": "uint256"
        }
      ],
      "stateMutability": "view",
      "type": "function"
    },
    {
      "inputs": [
        {
          "internalType": "uint256",
          "name": "tokenId",
          "type": "uint256"
        }
      ],
      "name": "getApproved",
      "outputs": [
        {
          "internalType": "address",
          "name": "",
          "type": "address"
        }
      ],
      "stateMutability": "view",
      "type": "function"
    },
    {
      "inputs": [
        {
          "internalType": "uint256",
          "name": "_chapter",
          "type": "uint256"
        },
        {
          "internalType": "uint256",
          "name": "_pageId",
          "type": "uint256"
        }
      ],
      "name": "getPage",
      "outputs": [
        {
          "components": [
            {
              "internalType": "string",
              "name": "pageName",
              "type": "string"
            },
            {
              "internalType": "string",
              "name": "pageId",
              "type": "string"
            },
            {
              "internalType": "string",
              "name": "pageContent",
              "type": "string"
            }
          ],
          "internalType": "struct Publius.Page",
          "name": "",
          "type": "tuple"
        }
      ],
      "stateMutability": "view",
      "type": "function"
    },
    {
      "inputs": [
        {
          "internalType": "address",
          "name": "_publicationAuthor",
          "type": "address"
        },
        {
          "internalType": "string",
          "name": "_publicationName",
          "type": "string"
        },
        {
          "internalType": "string",
          "name": "_publicationCoverImage",
          "type": "string"
        }
      ],
      "name": "initialize",
      "outputs": [],
      "stateMutability": "nonpayable",
      "type": "function"
    },
    {
      "inputs": [
        {
          "internalType": "address",
          "name": "owner",
          "type": "address"
        },
        {
          "internalType": "address",
          "name": "operator",
          "type": "address"
        }
      ],
      "name": "isApprovedForAll",
      "outputs": [
        {
          "internalType": "bool",
          "name": "",
          "type": "bool"
        }
      ],
      "stateMutability": "view",
      "type": "function"
    },
    {
      "inputs": [
        {
          "internalType": "uint256",
          "name": "_amount",
          "type": "uint256"
        }
      ],
      "name": "mint",
      "outputs": [],
      "stateMutability": "payable",
      "type": "function"
    },
    {
      "inputs": [
        {
          "internalType": "address",
          "name": "",
          "type": "address"
        },
        {
          "internalType": "uint256",
          "name": "",
          "type": "uint256"
        }
      ],
      "name": "minterOwnedTokens",
      "outputs": [
        {
          "internalType": "uint256",
          "name": "",
          "type": "uint256"
        }
      ],
      "stateMutability": "view",
      "type": "function"
    },
    {
      "inputs": [],
      "name": "name",
      "outputs": [
        {
          "internalType": "string",
          "name": "",
          "type": "string"
        }
      ],
      "stateMutability": "view",
      "type": "function"
    },
    {
      "inputs": [],
      "name": "owner",
      "outputs": [
        {
          "internalType": "address",
          "name": "",
          "type": "address"
        }
      ],
      "stateMutability": "view",
      "type": "function"
    },
    {
      "inputs": [
        {
          "internalType": "uint256",
          "name": "tokenId",
          "type": "uint256"
        }
      ],
      "name": "ownerOf",
      "outputs": [
        {
          "internalType": "address",
          "name": "",
          "type": "address"
        }
      ],
      "stateMutability": "view",
      "type": "function"
    },
    {
      "inputs": [],
      "name": "publicationAuthor",
      "outputs": [
        {
          "internalType": "address",
          "name": "",
          "type": "address"
        }
      ],
      "stateMutability": "view",
      "type": "function"
    },
    {
      "inputs": [],
      "name": "publicationCoverImage",
      "outputs": [
        {
          "internalType": "string",
          "name": "",
          "type": "string"
        }
      ],
      "stateMutability": "view",
      "type": "function"
    },
    {
      "inputs": [],
      "name": "publicationName",
      "outputs": [
        {
          "internalType": "string",
          "name": "",
          "type": "string"
        }
      ],
      "stateMutability": "view",
      "type": "function"
    },
    {
      "inputs": [],
      "name": "renounceOwnership",
      "outputs": [],
      "stateMutability": "nonpayable",
      "type": "function"
    },
    {
      "inputs": [
        {
          "internalType": "address",
          "name": "from",
          "type": "address"
        },
        {
          "internalType": "address",
          "name": "to",
          "type": "address"
        },
        {
          "internalType": "uint256",
          "name": "tokenId",
          "type": "uint256"
        }
      ],
      "name": "safeTransferFrom",
      "outputs": [],
      "stateMutability": "nonpayable",
      "type": "function"
    },
    {
      "inputs": [
        {
          "internalType": "address",
          "name": "from",
          "type": "address"
        },
        {
          "internalType": "address",
          "name": "to",
          "type": "address"
        },
        {
          "internalType": "uint256",
          "name": "tokenId",
          "type": "uint256"
        },
        {
          "internalType": "bytes",
          "name": "data",
          "type": "bytes"
        }
      ],
      "name": "safeTransferFrom",
      "outputs": [],
      "stateMutability": "nonpayable",
      "type": "function"
    },
    {
      "inputs": [
        {
          "internalType": "uint256",
          "name": "",
          "type": "uint256"
        }
      ],
      "name": "sections",
      "outputs": [
        {
          "internalType": "string",
          "name": "sectionName",
          "type": "string"
        },
        {
          "internalType": "uint256",
          "name": "sectionId",
          "type": "uint256"
        },
        {
          "internalType": "string",
          "name": "sectionImage",
          "type": "string"
        }
      ],
      "stateMutability": "view",
      "type": "function"
    },
    {
      "inputs": [
        {
          "internalType": "address",
          "name": "operator",
          "type": "address"
        },
        {
          "internalType": "bool",
          "name": "approved",
          "type": "bool"
        }
      ],
      "name": "setApprovalForAll",
      "outputs": [],
      "stateMutability": "nonpayable",
      "type": "function"
    },
    {
      "inputs": [
        {
          "internalType": "bytes4",
          "name": "interfaceId",
          "type": "bytes4"
        }
      ],
      "name": "supportsInterface",
      "outputs": [
        {
          "internalType": "bool",
          "name": "",
          "type": "bool"
        }
      ],
      "stateMutability": "view",
      "type": "function"
    },
    {
      "inputs": [],
      "name": "symbol",
      "outputs": [
        {
          "internalType": "string",
          "name": "",
          "type": "string"
        }
      ],
      "stateMutability": "view",
      "type": "function"
    },
    {
      "inputs": [
        {
          "internalType": "uint256",
          "name": "index",
          "type": "uint256"
        }
      ],
      "name": "tokenByIndex",
      "outputs": [
        {
          "internalType": "uint256",
          "name": "",
          "type": "uint256"
        }
      ],
      "stateMutability": "view",
      "type": "function"
    },
    {
      "inputs": [
        {
          "internalType": "uint256",
          "name": "",
          "type": "uint256"
        }
      ],
      "name": "tokenIdToMinter",
      "outputs": [
        {
          "internalType": "address",
          "name": "",
          "type": "address"
        }
      ],
      "stateMutability": "view",
      "type": "function"
    },
    {
      "inputs": [
        {
          "internalType": "address",
          "name": "owner",
          "type": "address"
        },
        {
          "internalType": "uint256",
          "name": "index",
          "type": "uint256"
        }
      ],
      "name": "tokenOfOwnerByIndex",
      "outputs": [
        {
          "internalType": "uint256",
          "name": "",
          "type": "uint256"
        }
      ],
      "stateMutability": "view",
      "type": "function"
    },
    {
      "inputs": [
        {
          "internalType": "uint256",
          "name": "_tokenId",
          "type": "uint256"
        }
      ],
      "name": "tokenURI",
      "outputs": [
        {
          "internalType": "string",
          "name": "uri",
          "type": "string"
        }
      ],
      "stateMutability": "view",
      "type": "function"
    },
    {
      "inputs": [],
      "name": "totalSupply",
      "outputs": [
        {
          "internalType": "uint256",
          "name": "",
          "type": "uint256"
        }
      ],
      "stateMutability": "view",
      "type": "function"
    },
    {
      "inputs": [
        {
          "internalType": "address",
          "name": "from",
          "type": "address"
        },
        {
          "internalType": "address",
          "name": "to",
          "type": "address"
        },
        {
          "internalType": "uint256",
          "name": "tokenId",
          "type": "uint256"
        }
      ],
      "name": "transferFrom",
      "outputs": [],
      "stateMutability": "nonpayable",
      "type": "function"
    },
    {
      "inputs": [
        {
          "internalType": "address",
          "name": "newOwner",
          "type": "address"
        }
      ],
      "name": "transferOwnership",
      "outputs": [],
      "stateMutability": "nonpayable",
      "type": "function"
    }
  ],
  "bytecode": "0x608060405234801561001057600080fd5b50613d21806100206000396000f3fe6080604052600436106101ee5760003560e01c80636b00aba61161010d578063a22cb465116100a0578063cd1a2e911161006f578063cd1a2e911461058e578063db010ae4146105bb578063e985e9c5146105db578063f2fde38b14610624578063f40adb121461064457600080fd5b8063a22cb46514610519578063b88d4fde14610539578063c87b56dd14610559578063ccfea8f01461057957600080fd5b80638da5cb5b116100dc5780638da5cb5b146104b357806390657147146104d157806395d89b41146104f1578063a0712d681461050657600080fd5b80636b00aba61461044957806370a0823114610469578063715018a61461048957806386b4e2a01461049e57600080fd5b80632f745c59116101855780634f6ccce7116101545780634f6ccce7146103c8578063527c4165146103e85780635e57966d146104095780636352211e1461042957600080fd5b80632f745c591461033957806335603440146103595780634146e3471461038857806342842e0e146103a857600080fd5b806318160ddd116101c157806318160ddd146102a45780632218f119146102c357806323b872dd146102f95780632c830cee1461031957600080fd5b806301ffc9a7146101f357806306fdde0314610228578063081812fc1461024a578063095ea7b314610282575b600080fd5b3480156101ff57600080fd5b5061021361020e366004612ade565b610674565b60405190151581526020015b60405180910390f35b34801561023457600080fd5b5061023d61069f565b60405161021f9190612b52565b34801561025657600080fd5b5061026a610265366004612b65565b610731565b6040516001600160a01b03909116815260200161021f565b34801561028e57600080fd5b506102a261029d366004612b9a565b610758565b005b3480156102b057600080fd5b506099545b60405190815260200161021f565b3480156102cf57600080fd5b5061026a6102de366004612b65565b60fb602052600090815260409020546001600160a01b031681565b34801561030557600080fd5b506102a2610314366004612bc4565b610872565b34801561032557600080fd5b506102a2610334366004612d6f565b6108a3565b34801561034557600080fd5b506102b5610354366004612b9a565b610a2c565b34801561036557600080fd5b50610379610374366004612b65565b610ac2565b60405161021f93929190612e53565b34801561039457600080fd5b506102a26103a3366004612e88565b610bf4565b3480156103b457600080fd5b506102a26103c3366004612bc4565b610d4d565b3480156103d457600080fd5b506102b56103e3366004612b65565b610d68565b3480156103f457600080fd5b506101005461026a906001600160a01b031681565b34801561041557600080fd5b5061023d610424366004612f19565b610dfb565b34801561043557600080fd5b5061026a610444366004612b65565b610fe6565b34801561045557600080fd5b506102a2610464366004612f7c565b611046565b34801561047557600080fd5b506102b5610484366004612f19565b6111e2565b34801561049557600080fd5b506102a2611268565b3480156104aa57600080fd5b5061023d61127c565b3480156104bf57600080fd5b5060c9546001600160a01b031661026a565b3480156104dd57600080fd5b506102a26104ec366004613015565b61130a565b3480156104fd57600080fd5b5061023d6114c0565b6102a2610514366004612b65565b6114cf565b34801561052557600080fd5b506102a2610534366004613095565b6115a3565b34801561054557600080fd5b506102a26105543660046130d1565b6115ae565b34801561056557600080fd5b5061023d610574366004612b65565b6115e6565b34801561058557600080fd5b5061023d6119a3565b34801561059a57600080fd5b506105ae6105a9366004613140565b6119b1565b60405161021f9190613162565b3480156105c757600080fd5b506102b56105d6366004612b9a565b611bbe565b3480156105e757600080fd5b506102136105f63660046131c3565b6001600160a01b039182166000908152606a6020908152604080832093909416825291909152205460ff1690565b34801561063057600080fd5b506102a261063f366004612f19565b611bef565b34801561065057600080fd5b5061066461065f366004612b65565b611c68565b60405161021f94939291906131f6565b60006001600160e01b0319821663780e9d6360e01b1480610699575061069982611da0565b92915050565b6060606580546106ae90613233565b80601f01602080910402602001604051908101604052809291908181526020018280546106da90613233565b80156107275780601f106106fc57610100808354040283529160200191610727565b820191906000526020600020905b81548152906001019060200180831161070a57829003601f168201915b5050505050905090565b600061073c82611df0565b506000908152606960205260409020546001600160a01b031690565b600061076382610fe6565b9050806001600160a01b0316836001600160a01b0316036107d55760405162461bcd60e51b815260206004820152602160248201527f4552433732313a20617070726f76616c20746f2063757272656e74206f776e656044820152603960f91b60648201526084015b60405180910390fd5b336001600160a01b03821614806107f157506107f181336105f6565b6108635760405162461bcd60e51b815260206004820152603d60248201527f4552433732313a20617070726f76652063616c6c6572206973206e6f7420746f60448201527f6b656e206f776e6572206f7220617070726f76656420666f7220616c6c00000060648201526084016107cc565b61086d8383611e4f565b505050565b61087c3382611ebd565b6108985760405162461bcd60e51b81526004016107cc9061326d565b61086d838383611f3c565b6108ab6120ad565b600087815260fd602052604081206001015490036109045760405162461bcd60e51b815260206004820152601660248201527514d958dd1a5bdb88191bd95cc81b9bdd08195e1a5cdd60521b60448201526064016107cc565b600084815260fe6020526040902060010154158061092957506109278488612107565b155b61096e5760405162461bcd60e51b81526020600482015260166024820152754368617074657220616c72656164792065786973747360501b60448201526064016107cc565b600084815260fe60205260409020806109878882613300565b50600181018590556002810161099d8782613300565b506109a88451612174565b60005b8451811015610a2157610a0f82600101548683815181106109ce576109ce6133bf565b60200260200101518684815181106109e8576109e86133bf565b6020026020010151868581518110610a0257610a026133bf565b6020026020010151610bf4565b80610a19816133eb565b9150506109ab565b505050505050505050565b6000610a37836111e2565b8210610a995760405162461bcd60e51b815260206004820152602b60248201527f455243373231456e756d657261626c653a206f776e657220696e646578206f7560448201526a74206f6620626f756e647360a81b60648201526084016107cc565b506001600160a01b03919091166000908152609760209081526040808320938352929052205490565b60fd60205260009081526040902080548190610add90613233565b80601f0160208091040260200160405190810160405280929190818152602001828054610b0990613233565b8015610b565780601f10610b2b57610100808354040283529160200191610b56565b820191906000526020600020905b815481529060010190602001808311610b3957829003601f168201915b505050505090806001015490806002018054610b7190613233565b80601f0160208091040260200160405190810160405280929190818152602001828054610b9d90613233565b8015610bea5780601f10610bbf57610100808354040283529160200191610bea565b820191906000526020600020905b815481529060010190602001808311610bcd57829003601f168201915b5050505050905083565b610bfc6120ad565b604051602001610c1790602080825260009082015260400190565b60408051601f198184030181528282528051602091820120600088815260fe8352929092209192610c49929101613404565b6040516020818303038152906040528051906020012003610ca55760405162461bcd60e51b815260206004820152601660248201527510da185c1d195c88191bd95cc81b9bdd08195e1a5cdd60521b60448201526064016107cc565b600084815260fe602090815260408083208151606081018352878152928301859052908201859052600481015490926003840191610ce490600161348f565b8152602081019190915260400160002081518190610d029082613300565b5060208201516001820190610d179082613300565b5060408201516002820190610d2c9082613300565b505050600481018054906000610d41836133eb565b91905055505050505050565b61086d838383604051806020016040528060008152506115ae565b6000610d7360995490565b8210610dd65760405162461bcd60e51b815260206004820152602c60248201527f455243373231456e756d657261626c653a20676c6f62616c20696e646578206f60448201526b7574206f6620626f756e647360a01b60648201526084016107cc565b60998281548110610de957610de96133bf565b90600052602060002001549050919050565b604080518082018252601081526f181899199a1a9b1b9c1cb0b131b232b360811b60208201528151602a80825260608281019094526001600160a01b0385169291600091602082018180368337019050509050600360fc1b81600081518110610e6657610e666133bf565b60200101906001600160f81b031916908160001a905350600f60fb1b81600181518110610e9557610e956133bf565b60200101906001600160f81b031916908160001a90535060005b6014811015610fdd5782600485610ec784600c61348f565b60208110610ed757610ed76133bf565b1a60f81b6001600160f81b031916901c60f81c60ff1681518110610efd57610efd6133bf565b01602001516001600160f81b03191682610f188360026134a2565b610f2390600261348f565b81518110610f3357610f336133bf565b60200101906001600160f81b031916908160001a9053508284610f5783600c61348f565b60208110610f6757610f676133bf565b825191901a600f16908110610f7e57610f7e6133bf565b01602001516001600160f81b03191682610f998360026134a2565b610fa490600361348f565b81518110610fb457610fb46133bf565b60200101906001600160f81b031916908160001a90535080610fd5816133eb565b915050610eaf565b50949350505050565b6000818152606760205260408120546001600160a01b0316806106995760405162461bcd60e51b8152602060048201526018602482015277115490cdcc8c4e881a5b9d985b1a59081d1bdad95b88125160421b60448201526064016107cc565b61104e6120ad565b6000808061105e888a018a6134b9565b9194509250905060008080611075898b018b613525565b919450925090506000808061108c8a8c018c613681565b925092509250600060fd60006101025460016110a8919061348f565b815260208101919091526040016000209050806110c58b82613300565b5060018101889055600281016110db8a82613300565b5084516110f19060038301906020880190612a68565b5060005b85518110156111b9576111a78260010154898381518110611118576111186133bf565b6020026020010151898481518110611132576111326133bf565b602002602001015189858151811061114c5761114c6133bf565b6020026020010151898681518110611166576111666133bf565b6020026020010151898781518110611180576111806133bf565b602002602001015189888151811061119a5761119a6133bf565b60200260200101516108a3565b806111b1816133eb565b9150506110f5565b5061010280549060006111cb836133eb565b919050555050505050505050505050505050505050565b60006001600160a01b03821661124c5760405162461bcd60e51b815260206004820152602960248201527f4552433732313a2061646472657373207a65726f206973206e6f7420612076616044820152683634b21037bbb732b960b91b60648201526084016107cc565b506001600160a01b031660009081526068602052604090205490565b6112706120ad565b61127a60006121b9565b565b60ff805461128990613233565b80601f01602080910402602001604051908101604052809291908181526020018280546112b590613233565b80156113025780601f106112d757610100808354040283529160200191611302565b820191906000526020600020905b8154815290600101906020018083116112e557829003601f168201915b505050505081565b600054610100900460ff161580801561132a5750600054600160ff909116105b806113445750303b158015611344575060005460ff166001145b6113a75760405162461bcd60e51b815260206004820152602e60248201527f496e697469616c697a61626c653a20636f6e747261637420697320616c72656160448201526d191e481a5b9a5d1a585b1a5e995960921b60648201526084016107cc565b6000805460ff1916600117905580156113ca576000805461ff0019166101001790555b61142885858080601f016020809104026020016040519081016040528093929190818152602001838380828437600092019190915250506040805180820190915260078152665055424c49555360c81b6020820152915061220b9050565b61143061223c565b61143986611bef565b60ff611446858783613708565b5061010080546001600160a01b0319166001600160a01b038816179055610101611471838583613708565b5080156114b8576000805461ff0019169055604051600181527f7f26b83ff96e1f2b6a682f133852f6798a09c465da95921460cefb38474024989060200160405180910390a15b505050505050565b6060606680546106ae90613233565b6114e081662386f26fc100006134a2565b3410156115255760405162461bcd60e51b8152602060048201526013602482015272139bdd08195b9bdd59da08115512081cd95b9d606a1b60448201526064016107cc565b60005b8181101561159f57600061153b60995490565b61154690600161348f565b9050611552338261226b565b600081815260fb6020908152604080832080546001600160a01b03191633908117909155835260fc8252822080546001810182559083529120015580611597816133eb565b915050611528565b5050565b61159f338383612404565b6115b83383611ebd565b6115d45760405162461bcd60e51b81526004016107cc9061326d565b6115e0848484846124d2565b50505050565b6000818152606760205260409020546060906001600160a01b03166116445760405162461bcd60e51b8152602060048201526014602482015273151bdad95b88191bd95cc81b9bdd08195e1a5cdd60621b60448201526064016107cc565b6040805180820190915260018152607b60f81b602082015261010054819060ff90611677906001600160a01b0316610dfb565b61010160405160200161168d949392919061383a565b60408051601f19818403018152919052905060015b61010254811161194e57600081815260fd6020526040812060018101549091906116cb90612505565b6040516116e29190849060028201906020016138f6565b604051602081830303815290604052905060005b60038301548110156118c4576000836003018281548110611719576117196133bf565b90600052602060002001549050600060fe60008381526020019081526020016000209050600061174c8260010154612505565b60405161176391908490600282019060200161399b565b60408051601f19818403018152919052905060015b8260040154811161182a576000818152600384016020908152604080832090519092916117b19160018501918591600283019101613a3d565b604051602081830303815290604052905084600401548310156117f157806040516020016117df9190613abf565b60405160208183030381529060405290505b8381604051602001611804929190613ae4565b604051602081830303815290604052935050508080611822906133eb565b915050611778565b508060405160200161183c9190613b13565b60408051601f19818403018152919052600387015490915061186090600190613b39565b84101561188a57806040516020016118789190613abf565b60405160208183030381529060405290505b848160405160200161189d929190613ae4565b604051602081830303815290604052945050505080806118bc906133eb565b9150506116f6565b50806040516020016118d69190613b13565b60405160208183030381529060405290506101025483101561191557806040516020016119039190613abf565b60405160208183030381529060405290505b8381604051602001611928929190613ae4565b604051602081830303815290604052935050508080611946906133eb565b9150506116a2565b50806040516020016119609190613b13565b60408051808303601f190181526020808401835260008452915190935061198b918391859101613ae4565b60405160208183030381529060405292505050919050565b610101805461128990613233565b6119d560405180606001604052806060815260200160608152602001606081525090565b600083815260fe602090815260408083208584526003810190925291829020825160608101909352805491929182908290611a0f90613233565b80601f0160208091040260200160405190810160405280929190818152602001828054611a3b90613233565b8015611a885780601f10611a5d57610100808354040283529160200191611a88565b820191906000526020600020905b815481529060010190602001808311611a6b57829003601f168201915b50505050508152602001600182018054611aa190613233565b80601f0160208091040260200160405190810160405280929190818152602001828054611acd90613233565b8015611b1a5780601f10611aef57610100808354040283529160200191611b1a565b820191906000526020600020905b815481529060010190602001808311611afd57829003601f168201915b50505050508152602001600282018054611b3390613233565b80601f0160208091040260200160405190810160405280929190818152602001828054611b5f90613233565b8015611bac5780601f10611b8157610100808354040283529160200191611bac565b820191906000526020600020905b815481529060010190602001808311611b8f57829003601f168201915b50505050508152505091505092915050565b60fc6020528160005260406000208181548110611bda57600080fd5b90600052602060002001600091509150505481565b611bf76120ad565b6001600160a01b038116611c5c5760405162461bcd60e51b815260206004820152602660248201527f4f776e61626c653a206e6577206f776e657220697320746865207a65726f206160448201526564647265737360d01b60648201526084016107cc565b611c65816121b9565b50565b60fe60205260009081526040902080548190611c8390613233565b80601f0160208091040260200160405190810160405280929190818152602001828054611caf90613233565b8015611cfc5780601f10611cd157610100808354040283529160200191611cfc565b820191906000526020600020905b815481529060010190602001808311611cdf57829003601f168201915b505050505090806001015490806002018054611d1790613233565b80601f0160208091040260200160405190810160405280929190818152602001828054611d4390613233565b8015611d905780601f10611d6557610100808354040283529160200191611d90565b820191906000526020600020905b815481529060010190602001808311611d7357829003601f168201915b5050505050908060040154905084565b60006001600160e01b031982166380ac58cd60e01b1480611dd157506001600160e01b03198216635b5e139f60e01b145b8061069957506301ffc9a760e01b6001600160e01b0319831614610699565b6000818152606760205260409020546001600160a01b0316611c655760405162461bcd60e51b8152602060048201526018602482015277115490cdcc8c4e881a5b9d985b1a59081d1bdad95b88125160421b60448201526064016107cc565b600081815260696020526040902080546001600160a01b0319166001600160a01b0384169081179091558190611e8482610fe6565b6001600160a01b03167f8c5be1e5ebec7d5bd14f71427d1e84f3dd0314c0f7b2291e5b200ac8c7c3b92560405160405180910390a45050565b600080611ec983610fe6565b9050806001600160a01b0316846001600160a01b03161480611f1057506001600160a01b038082166000908152606a602090815260408083209388168352929052205460ff165b80611f345750836001600160a01b0316611f2984610731565b6001600160a01b0316145b949350505050565b826001600160a01b0316611f4f82610fe6565b6001600160a01b031614611f755760405162461bcd60e51b81526004016107cc90613b4c565b6001600160a01b038216611fd75760405162461bcd60e51b8152602060048201526024808201527f4552433732313a207472616e7366657220746f20746865207a65726f206164646044820152637265737360e01b60648201526084016107cc565b611fe48383836001612612565b826001600160a01b0316611ff782610fe6565b6001600160a01b03161461201d5760405162461bcd60e51b81526004016107cc90613b4c565b600081815260696020908152604080832080546001600160a01b03199081169091556001600160a01b0387811680865260688552838620805460001901905590871680865283862080546001019055868652606790945282852080549092168417909155905184937fddf252ad1be2c89b69c2b068fc378daa952ba7f163c4a11628f55a4df523b3ef91a4505050565b60c9546001600160a01b0316331461127a5760405162461bcd60e51b815260206004820181905260248201527f4f776e61626c653a2063616c6c6572206973206e6f7420746865206f776e657260448201526064016107cc565b600082815260fd602052604081206003810154825b81811015612168578483600301828154811061213a5761213a6133bf565b9060005260206000200154036121565760019350505050610699565b80612160816133eb565b91505061211c565b50600095945050505050565b611c658160405160240161218a91815260200190565b60408051601f198184030181529190526020810180516001600160e01b031663f82c50f160e01b179052612746565b60c980546001600160a01b038381166001600160a01b0319831681179093556040519116919082907f8be0079c531659141344cd1fd0a4f28419497f9722a3daafe3b4186f6b6457e090600090a35050565b600054610100900460ff166122325760405162461bcd60e51b81526004016107cc90613b91565b61159f8282612767565b600054610100900460ff166122635760405162461bcd60e51b81526004016107cc90613b91565b61127a6127a7565b6001600160a01b0382166122c15760405162461bcd60e51b815260206004820181905260248201527f4552433732313a206d696e7420746f20746865207a65726f206164647265737360448201526064016107cc565b6000818152606760205260409020546001600160a01b0316156123265760405162461bcd60e51b815260206004820152601c60248201527f4552433732313a20746f6b656e20616c7265616479206d696e7465640000000060448201526064016107cc565b612334600083836001612612565b6000818152606760205260409020546001600160a01b0316156123995760405162461bcd60e51b815260206004820152601c60248201527f4552433732313a20746f6b656e20616c7265616479206d696e7465640000000060448201526064016107cc565b6001600160a01b038216600081815260686020908152604080832080546001019055848352606790915280822080546001600160a01b0319168417905551839291907fddf252ad1be2c89b69c2b068fc378daa952ba7f163c4a11628f55a4df523b3ef908290a45050565b816001600160a01b0316836001600160a01b0316036124655760405162461bcd60e51b815260206004820152601960248201527f4552433732313a20617070726f766520746f2063616c6c65720000000000000060448201526064016107cc565b6001600160a01b038381166000818152606a6020908152604080832094871680845294825291829020805460ff191686151590811790915591519182527f17307eab39ab6107e8899845ad3d59bd9653f200f220920489ca2b5937696c31910160405180910390a3505050565b6124dd848484611f3c565b6124e9848484846127d7565b6115e05760405162461bcd60e51b81526004016107cc90613bdc565b60608160000361252c5750506040805180820190915260018152600360fc1b602082015290565b8160005b81156125565780612540816133eb565b915061254f9050600a83613c44565b9150612530565b6000816001600160401b0381111561257057612570612c00565b6040519080825280601f01601f19166020018201604052801561259a576020820181803683370190505b509050815b8515610fdd576125b0600182613b39565b905060006125bf600a88613c58565b6125ca906030613c6c565b905060008160f81b9050808484815181106125e7576125e76133bf565b60200101906001600160f81b031916908160001a905350612609600a89613c44565b9750505061259f565b60018111156126815760405162461bcd60e51b815260206004820152603560248201527f455243373231456e756d657261626c653a20636f6e7365637574697665207472604482015274185b9cd9995c9cc81b9bdd081cdd5c1c1bdc9d1959605a1b60648201526084016107cc565b816001600160a01b0385166126dd576126d881609980546000838152609a60205260408120829055600182018355919091527f72a152ddfb8e864297c917af52ea6c1c68aead0fee1a62673fcc7e0c94979d000155565b612700565b836001600160a01b0316856001600160a01b0316146127005761270085826128d8565b6001600160a01b03841661271c5761271781612975565b61273f565b846001600160a01b0316846001600160a01b03161461273f5761273f8482612a24565b5050505050565b80516a636f6e736f6c652e6c6f67602083016000808483855afa5050505050565b600054610100900460ff1661278e5760405162461bcd60e51b81526004016107cc90613b91565b606561279a8382613300565b50606661086d8282613300565b600054610100900460ff166127ce5760405162461bcd60e51b81526004016107cc90613b91565b61127a336121b9565b60006001600160a01b0384163b156128cd57604051630a85bd0160e11b81526001600160a01b0385169063150b7a029061281b903390899088908890600401613c85565b6020604051808303816000875af1925050508015612856575060408051601f3d908101601f1916820190925261285391810190613cb8565b60015b6128b3573d808015612884576040519150601f19603f3d011682016040523d82523d6000602084013e612889565b606091505b5080516000036128ab5760405162461bcd60e51b81526004016107cc90613bdc565b805181602001fd5b6001600160e01b031916630a85bd0160e11b149050611f34565b506001949350505050565b600060016128e5846111e2565b6128ef9190613b39565b600083815260986020526040902054909150808214612942576001600160a01b03841660009081526097602090815260408083208584528252808320548484528184208190558352609890915290208190555b5060009182526098602090815260408084208490556001600160a01b039094168352609781528383209183525290812055565b60995460009061298790600190613b39565b6000838152609a6020526040812054609980549394509092849081106129af576129af6133bf565b9060005260206000200154905080609983815481106129d0576129d06133bf565b6000918252602080832090910192909255828152609a90915260408082208490558582528120556099805480612a0857612a08613cd5565b6001900381819060005260206000200160009055905550505050565b6000612a2f836111e2565b6001600160a01b039093166000908152609760209081526040808320868452825280832085905593825260989052919091209190915550565b828054828255906000526020600020908101928215612aa3579160200282015b82811115612aa3578251825591602001919060010190612a88565b50612aaf929150612ab3565b5090565b5b80821115612aaf5760008155600101612ab4565b6001600160e01b031981168114611c6557600080fd5b600060208284031215612af057600080fd5b8135612afb81612ac8565b9392505050565b60005b83811015612b1d578181015183820152602001612b05565b50506000910152565b60008151808452612b3e816020860160208601612b02565b601f01601f19169290920160200192915050565b602081526000612afb6020830184612b26565b600060208284031215612b7757600080fd5b5035919050565b80356001600160a01b0381168114612b9557600080fd5b919050565b60008060408385031215612bad57600080fd5b612bb683612b7e565b946020939093013593505050565b600080600060608486031215612bd957600080fd5b612be284612b7e565b9250612bf060208501612b7e565b9150604084013590509250925092565b634e487b7160e01b600052604160045260246000fd5b604051601f8201601f191681016001600160401b0381118282101715612c3e57612c3e612c00565b604052919050565b60006001600160401b03831115612c5f57612c5f612c00565b612c72601f8401601f1916602001612c16565b9050828152838383011115612c8657600080fd5b828260208301376000602084830101529392505050565b600082601f830112612cae57600080fd5b612afb83833560208501612c46565b60006001600160401b03821115612cd657612cd6612c00565b5060051b60200190565b600082601f830112612cf157600080fd5b81356020612d06612d0183612cbd565b612c16565b82815260059290921b84018101918181019086841115612d2557600080fd5b8286015b84811015612d645780356001600160401b03811115612d485760008081fd5b612d568986838b0101612c9d565b845250918301918301612d29565b509695505050505050565b600080600080600080600060e0888a031215612d8a57600080fd5b8735965060208801356001600160401b0380821115612da857600080fd5b612db48b838c01612c9d565b975060408a0135915080821115612dca57600080fd5b612dd68b838c01612c9d565b965060608a0135955060808a0135915080821115612df357600080fd5b612dff8b838c01612ce0565b945060a08a0135915080821115612e1557600080fd5b612e218b838c01612ce0565b935060c08a0135915080821115612e3757600080fd5b50612e448a828b01612ce0565b91505092959891949750929550565b606081526000612e666060830186612b26565b8460208401528281036040840152612e7e8185612b26565b9695505050505050565b60008060008060808587031215612e9e57600080fd5b8435935060208501356001600160401b0380821115612ebc57600080fd5b612ec888838901612c9d565b94506040870135915080821115612ede57600080fd5b612eea88838901612c9d565b93506060870135915080821115612f0057600080fd5b50612f0d87828801612c9d565b91505092959194509250565b600060208284031215612f2b57600080fd5b612afb82612b7e565b60008083601f840112612f4657600080fd5b5081356001600160401b03811115612f5d57600080fd5b602083019150836020828501011115612f7557600080fd5b9250929050565b60008060008060008060608789031215612f9557600080fd5b86356001600160401b0380821115612fac57600080fd5b612fb88a838b01612f34565b90985096506020890135915080821115612fd157600080fd5b612fdd8a838b01612f34565b90965094506040890135915080821115612ff657600080fd5b5061300389828a01612f34565b979a9699509497509295939492505050565b60008060008060006060868803121561302d57600080fd5b61303686612b7e565b945060208601356001600160401b038082111561305257600080fd5b61305e89838a01612f34565b9096509450604088013591508082111561307757600080fd5b5061308488828901612f34565b969995985093965092949392505050565b600080604083850312156130a857600080fd5b6130b183612b7e565b9150602083013580151581146130c657600080fd5b809150509250929050565b600080600080608085870312156130e757600080fd5b6130f085612b7e565b93506130fe60208601612b7e565b92506040850135915060608501356001600160401b0381111561312057600080fd5b8501601f8101871361313157600080fd5b612f0d87823560208401612c46565b6000806040838503121561315357600080fd5b50508035926020909101359150565b60208152600082516060602084015261317e6080840182612b26565b90506020840151601f198085840301604086015261319c8383612b26565b92506040860151915080858403016060860152506131ba8282612b26565b95945050505050565b600080604083850312156131d657600080fd5b6131df83612b7e565b91506131ed60208401612b7e565b90509250929050565b6080815260006132096080830187612b26565b85602084015282810360408401526132218186612b26565b91505082606083015295945050505050565b600181811c9082168061324757607f821691505b60208210810361326757634e487b7160e01b600052602260045260246000fd5b50919050565b6020808252602d908201527f4552433732313a2063616c6c6572206973206e6f7420746f6b656e206f776e6560408201526c1c881bdc88185c1c1c9bdd9959609a1b606082015260800190565b601f82111561086d57600081815260208120601f850160051c810160208610156132e15750805b601f850160051c820191505b818110156114b8578281556001016132ed565b81516001600160401b0381111561331957613319612c00565b61332d816133278454613233565b846132ba565b602080601f831160018114613362576000841561334a5750858301515b600019600386901b1c1916600185901b1785556114b8565b600085815260208120601f198616915b8281101561339157888601518255948401946001909101908401613372565b50858210156133af5787850151600019600388901b60f8161c191681555b5050505050600190811b01905550565b634e487b7160e01b600052603260045260246000fd5b634e487b7160e01b600052601160045260246000fd5b6000600182016133fd576133fd6133d5565b5060010190565b600060208083526000845461341881613233565b80848701526040600180841660008114613439576001811461345357613481565b60ff1985168984015283151560051b890183019550613481565b896000528660002060005b858110156134795781548b820186015290830190880161345e565b8a0184019650505b509398975050505050505050565b80820180821115610699576106996133d5565b8082028115828204841417610699576106996133d5565b6000806000606084860312156134ce57600080fd5b83356001600160401b03808211156134e557600080fd5b6134f187838801612c9d565b9450602086013591508082111561350757600080fd5b5061351486828701612c9d565b925050604084013590509250925092565b60008060006060848603121561353a57600080fd5b83356001600160401b038082111561355157600080fd5b61355d87838801612ce0565b945060209150818601358181111561357457600080fd5b61358088828901612ce0565b94505060408601358181111561359557600080fd5b86019050601f810187136135a857600080fd5b80356135b6612d0182612cbd565b81815260059190911b820183019083810190898311156135d557600080fd5b928401925b828410156135f3578335825292840192908401906135da565b80955050505050509250925092565b600082601f83011261361357600080fd5b81356020613623612d0183612cbd565b82815260059290921b8401810191818101908684111561364257600080fd5b8286015b84811015612d645780356001600160401b038111156136655760008081fd5b6136738986838b0101612ce0565b845250918301918301613646565b60008060006060848603121561369657600080fd5b83356001600160401b03808211156136ad57600080fd5b6136b987838801613602565b945060208601359150808211156136cf57600080fd5b6136db87838801613602565b935060408601359150808211156136f157600080fd5b506136fe86828701613602565b9150509250925092565b6001600160401b0383111561371f5761371f612c00565b6137338361372d8354613233565b836132ba565b6000601f841160018114613767576000851561374f5750838201355b600019600387901b1c1916600186901b17835561273f565b600083815260209020601f19861690835b828110156137985786850135825560209485019460019092019101613778565b50868210156137b55760001960f88860031b161c19848701351681555b505060018560011b0183555050505050565b600081546137d481613233565b600182811680156137ec576001811461380157613830565b60ff1984168752821515830287019450613830565b8560005260208060002060005b858110156138275781548a82015290840190820161380e565b50505082870194505b5050505092915050565b6000855161384c818460208a01612b02565b7311383ab13634b1b0ba34b7b72730b6b2911d101160611b90830190815261387760148201876137c7565b711116101130baba3437b92730b6b2911d101160711b815285519091506138a5816012840160208901612b02565b711116101131b7bb32b924b6b0b3b2911d101160711b601292909101918201526138d260248201856137c7565b6f222c202273656374696f6e73223a205b60801b8152601001979650505050505050565b6f3d901139b2b1ba34b7b724b2111d101160811b81528351600090613922816010850160208901612b02565b721116101139b2b1ba34b7b72730b6b2911d101160691b60109184019182015261394f60238201866137c7565b731116101139b2b1ba34b7b724b6b0b3b2911d101160611b8152905061397860148201856137c7565b6f222c20226368617074657273223a205b60801b81526010019695505050505050565b6f3d901131b430b83a32b924b2111d101160811b815283516000906139c7816010850160208901612b02565b721116101131b430b83a32b92730b6b2911d101160691b6010918401918201526139f460238201866137c7565b731116101131b430b83a32b924b6b0b3b2911d101160611b81529050613a1d60148201856137c7565b6c222c20227061676573223a205b60981b8152600d019695505050505050565b6c3d90113830b3b2a4b2111d101160991b81526000613a5f600d8301866137c7565b6f111610113830b3b2a730b6b2911d101160811b8152613a8260108201866137c7565b72111610113830b3b2a1b7b73a32b73a111d101160691b81529050613aaa60138201856137c7565b61227d60f01b81526002019695505050505050565b60008251613ad1818460208701612b02565b600b60fa1b920191825250600101919050565b60008351613af6818460208801612b02565b835190830190613b0a818360208801612b02565b01949350505050565b60008251613b25818460208701612b02565b615d7d60f01b920191825250600201919050565b81810381811115610699576106996133d5565b60208082526025908201527f4552433732313a207472616e736665722066726f6d20696e636f72726563742060408201526437bbb732b960d91b606082015260800190565b6020808252602b908201527f496e697469616c697a61626c653a20636f6e7472616374206973206e6f74206960408201526a6e697469616c697a696e6760a81b606082015260800190565b60208082526032908201527f4552433732313a207472616e7366657220746f206e6f6e20455243373231526560408201527131b2b4bb32b91034b6b83632b6b2b73a32b960711b606082015260800190565b634e487b7160e01b600052601260045260246000fd5b600082613c5357613c53613c2e565b500490565b600082613c6757613c67613c2e565b500690565b60ff8181168382160190811115610699576106996133d5565b6001600160a01b0385811682528416602082015260408101839052608060608201819052600090612e7e90830184612b26565b600060208284031215613cca57600080fd5b8151612afb81612ac8565b634e487b7160e01b600052603160045260246000fdfea264697066735822122040a293c7a27fc698e2e5d88866a8b7cc351910513c382727b7270092720faee864736f6c63430008120033",
  "linkReferences": {},
  "deployedLinkReferences": {}
}