{
  "_format": "hh-sol-artifact-1",
  "contractName": "Publius",
  "sourceName": "contracts/Publius.sol",
  "abi": [
    {
      "anonymous": false,
      "inputs": [
        {
          "indexed": true,
          "internalType": "address",
          "name": "owner",
          "type": "address"
        },
        {
          "indexed": true,
          "internalType": "address",
          "name": "approved",
          "type": "address"
        },
        {
          "indexed": true,
          "internalType": "uint256",
          "name": "tokenId",
          "type": "uint256"
        }
      ],
      "name": "Approval",
      "type": "event"
    },
    {
      "anonymous": false,
      "inputs": [
        {
          "indexed": true,
          "internalType": "address",
          "name": "owner",
          "type": "address"
        },
        {
          "indexed": true,
          "internalType": "address",
          "name": "operator",
          "type": "address"
        },
        {
          "indexed": false,
          "internalType": "bool",
          "name": "approved",
          "type": "bool"
        }
      ],
      "name": "ApprovalForAll",
      "type": "event"
    },
    {
      "anonymous": false,
      "inputs": [
        {
          "indexed": false,
          "internalType": "uint8",
          "name": "version",
          "type": "uint8"
        }
      ],
      "name": "Initialized",
      "type": "event"
    },
    {
      "anonymous": false,
      "inputs": [
        {
          "indexed": true,
          "internalType": "address",
          "name": "previousOwner",
          "type": "address"
        },
        {
          "indexed": true,
          "internalType": "address",
          "name": "newOwner",
          "type": "address"
        }
      ],
      "name": "OwnershipTransferred",
      "type": "event"
    },
    {
      "anonymous": false,
      "inputs": [
        {
          "indexed": true,
          "internalType": "address",
          "name": "from",
          "type": "address"
        },
        {
          "indexed": true,
          "internalType": "address",
          "name": "to",
          "type": "address"
        },
        {
          "indexed": true,
          "internalType": "uint256",
          "name": "tokenId",
          "type": "uint256"
        }
      ],
      "name": "Transfer",
      "type": "event"
    },
    {
      "inputs": [
        {
          "internalType": "uint256",
          "name": "_sectionId",
          "type": "uint256"
        },
        {
          "internalType": "string",
          "name": "_chapterName",
          "type": "string"
        },
        {
          "internalType": "string",
          "name": "_chapterImage",
          "type": "string"
        },
        {
          "internalType": "uint256",
          "name": "_chapterId",
          "type": "uint256"
        },
        {
          "internalType": "string[]",
          "name": "_pageNames",
          "type": "string[]"
        },
        {
          "internalType": "string[]",
          "name": "_pageContent",
          "type": "string[]"
        },
        {
          "internalType": "uint256[]",
          "name": "_pageIds",
          "type": "uint256[]"
        }
      ],
      "name": "addChapter",
      "outputs": [],
      "stateMutability": "nonpayable",
      "type": "function"
    },
    {
      "inputs": [
        {
          "internalType": "uint256",
          "name": "_chapter",
          "type": "uint256"
        },
        {
          "internalType": "string",
          "name": "_pageName",
          "type": "string"
        },
        {
          "internalType": "string",
          "name": "_pageContent",
          "type": "string"
        },
        {
          "internalType": "uint256",
          "name": "_pageId",
          "type": "uint256"
        }
      ],
      "name": "addPage",
      "outputs": [],
      "stateMutability": "nonpayable",
      "type": "function"
    },
    {
      "inputs": [
        {
          "internalType": "bytes",
          "name": "_sectionInfo",
          "type": "bytes"
        },
        {
          "internalType": "bytes",
          "name": "_chapterInfo",
          "type": "bytes"
        },
        {
          "internalType": "bytes",
          "name": "_pageInfo",
          "type": "bytes"
        }
      ],
      "name": "addSection",
      "outputs": [],
      "stateMutability": "nonpayable",
      "type": "function"
    },
    {
      "inputs": [
        {
          "internalType": "address",
          "name": "_address",
          "type": "address"
        }
      ],
      "name": "addressToString",
      "outputs": [
        {
          "internalType": "string",
          "name": "",
          "type": "string"
        }
      ],
      "stateMutability": "pure",
      "type": "function"
    },
    {
      "inputs": [
        {
          "internalType": "address",
          "name": "to",
          "type": "address"
        },
        {
          "internalType": "uint256",
          "name": "tokenId",
          "type": "uint256"
        }
      ],
      "name": "approve",
      "outputs": [],
      "stateMutability": "nonpayable",
      "type": "function"
    },
    {
      "inputs": [
        {
          "internalType": "address",
          "name": "owner",
          "type": "address"
        }
      ],
      "name": "balanceOf",
      "outputs": [
        {
          "internalType": "uint256",
          "name": "",
          "type": "uint256"
        }
      ],
      "stateMutability": "view",
      "type": "function"
    },
    {
      "inputs": [
        {
          "internalType": "uint256",
          "name": "",
          "type": "uint256"
        }
      ],
      "name": "chapters",
      "outputs": [
        {
          "internalType": "string",
          "name": "chapterName",
          "type": "string"
        },
        {
          "internalType": "uint256",
          "name": "chapterId",
          "type": "uint256"
        },
        {
          "internalType": "string",
          "name": "chapterImage",
          "type": "string"
        },
        {
          "internalType": "uint256",
          "name": "pageCount",
          "type": "uint256"
        }
      ],
      "stateMutability": "view",
      "type": "function"
    },
    {
      "inputs": [
        {
          "internalType": "uint256",
          "name": "tokenId",
          "type": "uint256"
        }
      ],
      "name": "getApproved",
      "outputs": [
        {
          "internalType": "address",
          "name": "",
          "type": "address"
        }
      ],
      "stateMutability": "view",
      "type": "function"
    },
    {
      "inputs": [
        {
          "internalType": "uint256",
          "name": "_chapter",
          "type": "uint256"
        },
        {
          "internalType": "uint256",
          "name": "_pageId",
          "type": "uint256"
        }
      ],
      "name": "getPage",
      "outputs": [
        {
          "components": [
            {
              "internalType": "string",
              "name": "pageName",
              "type": "string"
            },
            {
              "internalType": "uint256",
              "name": "pageId",
              "type": "uint256"
            },
            {
              "internalType": "string",
              "name": "pageContent",
              "type": "string"
            }
          ],
          "internalType": "struct Publius.Page",
          "name": "",
          "type": "tuple"
        }
      ],
      "stateMutability": "view",
      "type": "function"
    },
    {
      "inputs": [
        {
          "internalType": "address",
          "name": "_publicationAuthor",
          "type": "address"
        },
        {
          "internalType": "string",
          "name": "_publicationName",
          "type": "string"
        },
        {
          "internalType": "string",
          "name": "_publicationCoverImage",
          "type": "string"
        }
      ],
      "name": "initialize",
      "outputs": [],
      "stateMutability": "nonpayable",
      "type": "function"
    },
    {
      "inputs": [
        {
          "internalType": "address",
          "name": "owner",
          "type": "address"
        },
        {
          "internalType": "address",
          "name": "operator",
          "type": "address"
        }
      ],
      "name": "isApprovedForAll",
      "outputs": [
        {
          "internalType": "bool",
          "name": "",
          "type": "bool"
        }
      ],
      "stateMutability": "view",
      "type": "function"
    },
    {
      "inputs": [
        {
          "internalType": "uint256",
          "name": "_amount",
          "type": "uint256"
        }
      ],
      "name": "mint",
      "outputs": [],
      "stateMutability": "payable",
      "type": "function"
    },
    {
      "inputs": [
        {
          "internalType": "address",
          "name": "",
          "type": "address"
        },
        {
          "internalType": "uint256",
          "name": "",
          "type": "uint256"
        }
      ],
      "name": "minterOwnedTokens",
      "outputs": [
        {
          "internalType": "uint256",
          "name": "",
          "type": "uint256"
        }
      ],
      "stateMutability": "view",
      "type": "function"
    },
    {
      "inputs": [],
      "name": "name",
      "outputs": [
        {
          "internalType": "string",
          "name": "",
          "type": "string"
        }
      ],
      "stateMutability": "view",
      "type": "function"
    },
    {
      "inputs": [],
      "name": "owner",
      "outputs": [
        {
          "internalType": "address",
          "name": "",
          "type": "address"
        }
      ],
      "stateMutability": "view",
      "type": "function"
    },
    {
      "inputs": [
        {
          "internalType": "uint256",
          "name": "tokenId",
          "type": "uint256"
        }
      ],
      "name": "ownerOf",
      "outputs": [
        {
          "internalType": "address",
          "name": "",
          "type": "address"
        }
      ],
      "stateMutability": "view",
      "type": "function"
    },
    {
      "inputs": [],
      "name": "publicationAuthor",
      "outputs": [
        {
          "internalType": "address",
          "name": "",
          "type": "address"
        }
      ],
      "stateMutability": "view",
      "type": "function"
    },
    {
      "inputs": [],
      "name": "publicationCoverImage",
      "outputs": [
        {
          "internalType": "string",
          "name": "",
          "type": "string"
        }
      ],
      "stateMutability": "view",
      "type": "function"
    },
    {
      "inputs": [],
      "name": "publicationName",
      "outputs": [
        {
          "internalType": "string",
          "name": "",
          "type": "string"
        }
      ],
      "stateMutability": "view",
      "type": "function"
    },
    {
      "inputs": [],
      "name": "renounceOwnership",
      "outputs": [],
      "stateMutability": "nonpayable",
      "type": "function"
    },
    {
      "inputs": [
        {
          "internalType": "address",
          "name": "from",
          "type": "address"
        },
        {
          "internalType": "address",
          "name": "to",
          "type": "address"
        },
        {
          "internalType": "uint256",
          "name": "tokenId",
          "type": "uint256"
        }
      ],
      "name": "safeTransferFrom",
      "outputs": [],
      "stateMutability": "nonpayable",
      "type": "function"
    },
    {
      "inputs": [
        {
          "internalType": "address",
          "name": "from",
          "type": "address"
        },
        {
          "internalType": "address",
          "name": "to",
          "type": "address"
        },
        {
          "internalType": "uint256",
          "name": "tokenId",
          "type": "uint256"
        },
        {
          "internalType": "bytes",
          "name": "data",
          "type": "bytes"
        }
      ],
      "name": "safeTransferFrom",
      "outputs": [],
      "stateMutability": "nonpayable",
      "type": "function"
    },
    {
      "inputs": [
        {
          "internalType": "uint256",
          "name": "",
          "type": "uint256"
        }
      ],
      "name": "sections",
      "outputs": [
        {
          "internalType": "string",
          "name": "sectionName",
          "type": "string"
        },
        {
          "internalType": "uint256",
          "name": "sectionId",
          "type": "uint256"
        },
        {
          "internalType": "string",
          "name": "sectionImage",
          "type": "string"
        }
      ],
      "stateMutability": "view",
      "type": "function"
    },
    {
      "inputs": [
        {
          "internalType": "address",
          "name": "operator",
          "type": "address"
        },
        {
          "internalType": "bool",
          "name": "approved",
          "type": "bool"
        }
      ],
      "name": "setApprovalForAll",
      "outputs": [],
      "stateMutability": "nonpayable",
      "type": "function"
    },
    {
      "inputs": [
        {
          "internalType": "bytes4",
          "name": "interfaceId",
          "type": "bytes4"
        }
      ],
      "name": "supportsInterface",
      "outputs": [
        {
          "internalType": "bool",
          "name": "",
          "type": "bool"
        }
      ],
      "stateMutability": "view",
      "type": "function"
    },
    {
      "inputs": [],
      "name": "symbol",
      "outputs": [
        {
          "internalType": "string",
          "name": "",
          "type": "string"
        }
      ],
      "stateMutability": "view",
      "type": "function"
    },
    {
      "inputs": [
        {
          "internalType": "uint256",
          "name": "index",
          "type": "uint256"
        }
      ],
      "name": "tokenByIndex",
      "outputs": [
        {
          "internalType": "uint256",
          "name": "",
          "type": "uint256"
        }
      ],
      "stateMutability": "view",
      "type": "function"
    },
    {
      "inputs": [
        {
          "internalType": "uint256",
          "name": "",
          "type": "uint256"
        }
      ],
      "name": "tokenIdToMinter",
      "outputs": [
        {
          "internalType": "address",
          "name": "",
          "type": "address"
        }
      ],
      "stateMutability": "view",
      "type": "function"
    },
    {
      "inputs": [
        {
          "internalType": "address",
          "name": "owner",
          "type": "address"
        },
        {
          "internalType": "uint256",
          "name": "index",
          "type": "uint256"
        }
      ],
      "name": "tokenOfOwnerByIndex",
      "outputs": [
        {
          "internalType": "uint256",
          "name": "",
          "type": "uint256"
        }
      ],
      "stateMutability": "view",
      "type": "function"
    },
    {
      "inputs": [
        {
          "internalType": "uint256",
          "name": "_tokenId",
          "type": "uint256"
        }
      ],
      "name": "tokenURI",
      "outputs": [
        {
          "internalType": "string",
          "name": "uri",
          "type": "string"
        }
      ],
      "stateMutability": "view",
      "type": "function"
    },
    {
      "inputs": [],
      "name": "totalSupply",
      "outputs": [
        {
          "internalType": "uint256",
          "name": "",
          "type": "uint256"
        }
      ],
      "stateMutability": "view",
      "type": "function"
    },
    {
      "inputs": [
        {
          "internalType": "address",
          "name": "from",
          "type": "address"
        },
        {
          "internalType": "address",
          "name": "to",
          "type": "address"
        },
        {
          "internalType": "uint256",
          "name": "tokenId",
          "type": "uint256"
        }
      ],
      "name": "transferFrom",
      "outputs": [],
      "stateMutability": "nonpayable",
      "type": "function"
    },
    {
      "inputs": [
        {
          "internalType": "address",
          "name": "newOwner",
          "type": "address"
        }
      ],
      "name": "transferOwnership",
      "outputs": [],
      "stateMutability": "nonpayable",
      "type": "function"
    }
  ],
  "bytecode": "0x608060405234801561001057600080fd5b50614222806100206000396000f3fe6080604052600436106101ee5760003560e01c8063715018a61161010d578063c87b56dd116100a0578063db010ae41161006f578063db010ae41461059b578063e8bfecc7146105bb578063e985e9c5146105db578063f2fde38b14610624578063f40adb121461064457600080fd5b8063c87b56dd14610519578063cb7c3ca714610539578063ccfea8f014610559578063cd1a2e911461056e57600080fd5b806395d89b41116100dc57806395d89b41146104b1578063a0712d68146104c6578063a22cb465146104d9578063b88d4fde146104f957600080fd5b8063715018a61461044957806386b4e2a01461045e5780638da5cb5b14610473578063906571471461049157600080fd5b806335603440116101855780635e57966d116101545780635e57966d146103c95780636352211e146103e95780636b00aba61461040957806370a082311461042957600080fd5b8063356034401461033957806342842e0e146103685780634f6ccce714610388578063527c4165146103a857600080fd5b806318160ddd116101c157806318160ddd146102a45780632218f119146102c357806323b872dd146102f95780632f745c591461031957600080fd5b806301ffc9a7146101f357806306fdde0314610228578063081812fc1461024a578063095ea7b314610282575b600080fd5b3480156101ff57600080fd5b5061021361020e366004612efe565b610674565b60405190151581526020015b60405180910390f35b34801561023457600080fd5b5061023d61069f565b60405161021f9190612f72565b34801561025657600080fd5b5061026a610265366004612f85565b610731565b6040516001600160a01b03909116815260200161021f565b34801561028e57600080fd5b506102a261029d366004612fba565b610758565b005b3480156102b057600080fd5b506099545b60405190815260200161021f565b3480156102cf57600080fd5b5061026a6102de366004612f85565b60fb602052600090815260409020546001600160a01b031681565b34801561030557600080fd5b506102a2610314366004612fe4565b610872565b34801561032557600080fd5b506102b5610334366004612fba565b6108a3565b34801561034557600080fd5b50610359610354366004612f85565b610939565b60405161021f93929190613020565b34801561037457600080fd5b506102a2610383366004612fe4565b610a6b565b34801561039457600080fd5b506102b56103a3366004612f85565b610a86565b3480156103b457600080fd5b506101005461026a906001600160a01b031681565b3480156103d557600080fd5b5061023d6103e4366004613055565b610b19565b3480156103f557600080fd5b5061026a610404366004612f85565b610d04565b34801561041557600080fd5b506102a26104243660046130b8565b610d64565b34801561043557600080fd5b506102b5610444366004613055565b6110ea565b34801561045557600080fd5b506102a2611170565b34801561046a57600080fd5b5061023d611184565b34801561047f57600080fd5b5060c9546001600160a01b031661026a565b34801561049d57600080fd5b506102a26104ac366004613151565b611212565b3480156104bd57600080fd5b5061023d6113c8565b6102a26104d4366004612f85565b6113d7565b3480156104e557600080fd5b506102a26104f43660046131d1565b6114ab565b34801561050557600080fd5b506102a26105143660046132aa565b6114b6565b34801561052557600080fd5b5061023d610534366004612f85565b6114ee565b34801561054557600080fd5b506102a2610554366004613345565b6118b5565b34801561056557600080fd5b5061023d611b46565b34801561057a57600080fd5b5061058e6105893660046133b9565b611b54565b60405161021f91906133db565b3480156105a757600080fd5b506102b56105b6366004612fba565b611cd9565b3480156105c757600080fd5b506102a26105d6366004613534565b611d0a565b3480156105e757600080fd5b506102136105f6366004613618565b6001600160a01b039182166000908152606a6020908152604080832093909416825291909152205460ff1690565b34801561063057600080fd5b506102a261063f366004613055565b6120d5565b34801561065057600080fd5b5061066461065f366004612f85565b61214e565b60405161021f949392919061364b565b60006001600160e01b0319821663780e9d6360e01b1480610699575061069982612286565b92915050565b6060606580546106ae90613688565b80601f01602080910402602001604051908101604052809291908181526020018280546106da90613688565b80156107275780601f106106fc57610100808354040283529160200191610727565b820191906000526020600020905b81548152906001019060200180831161070a57829003601f168201915b5050505050905090565b600061073c826122d6565b506000908152606960205260409020546001600160a01b031690565b600061076382610d04565b9050806001600160a01b0316836001600160a01b0316036107d55760405162461bcd60e51b815260206004820152602160248201527f4552433732313a20617070726f76616c20746f2063757272656e74206f776e656044820152603960f91b60648201526084015b60405180910390fd5b336001600160a01b03821614806107f157506107f181336105f6565b6108635760405162461bcd60e51b815260206004820152603d60248201527f4552433732313a20617070726f76652063616c6c6572206973206e6f7420746f60448201527f6b656e206f776e6572206f7220617070726f76656420666f7220616c6c00000060648201526084016107cc565b61086d8383612335565b505050565b61087c33826123a3565b6108985760405162461bcd60e51b81526004016107cc906136c2565b61086d838383612422565b60006108ae836110ea565b82106109105760405162461bcd60e51b815260206004820152602b60248201527f455243373231456e756d657261626c653a206f776e657220696e646578206f7560448201526a74206f6620626f756e647360a81b60648201526084016107cc565b506001600160a01b03919091166000908152609760209081526040808320938352929052205490565b60fd6020526000908152604090208054819061095490613688565b80601f016020809104026020016040519081016040528092919081815260200182805461098090613688565b80156109cd5780601f106109a2576101008083540402835291602001916109cd565b820191906000526020600020905b8154815290600101906020018083116109b057829003601f168201915b5050505050908060010154908060020180546109e890613688565b80601f0160208091040260200160405190810160405280929190818152602001828054610a1490613688565b8015610a615780601f10610a3657610100808354040283529160200191610a61565b820191906000526020600020905b815481529060010190602001808311610a4457829003601f168201915b5050505050905083565b61086d838383604051806020016040528060008152506114b6565b6000610a9160995490565b8210610af45760405162461bcd60e51b815260206004820152602c60248201527f455243373231456e756d657261626c653a20676c6f62616c20696e646578206f60448201526b7574206f6620626f756e647360a01b60648201526084016107cc565b60998281548110610b0757610b0761370f565b90600052602060002001549050919050565b604080518082018252601081526f181899199a1a9b1b9c1cb0b131b232b360811b60208201528151602a80825260608281019094526001600160a01b0385169291600091602082018180368337019050509050600360fc1b81600081518110610b8457610b8461370f565b60200101906001600160f81b031916908160001a905350600f60fb1b81600181518110610bb357610bb361370f565b60200101906001600160f81b031916908160001a90535060005b6014811015610cfb5782600485610be584600c61373b565b60208110610bf557610bf561370f565b1a60f81b6001600160f81b031916901c60f81c60ff1681518110610c1b57610c1b61370f565b01602001516001600160f81b03191682610c3683600261374e565b610c4190600261373b565b81518110610c5157610c5161370f565b60200101906001600160f81b031916908160001a9053508284610c7583600c61373b565b60208110610c8557610c8561370f565b825191901a600f16908110610c9c57610c9c61370f565b01602001516001600160f81b03191682610cb783600261374e565b610cc290600361373b565b81518110610cd257610cd261370f565b60200101906001600160f81b031916908160001a90535080610cf381613765565b915050610bcd565b50949350505050565b6000818152606760205260408120546001600160a01b0316806106995760405162461bcd60e51b8152602060048201526018602482015277115490cdcc8c4e881a5b9d985b1a59081d1bdad95b88125160421b60448201526064016107cc565b610d6c612593565b60008080610d7c888a018a61377e565b92509250925080600003610dd25760405162461bcd60e51b815260206004820152601f60248201527f5075626c6975733a2053656374696f6e2049442063616e6e6f7420626520300060448201526064016107cc565b604051602001610ded90602080825260009082015260400190565b6040516020818303038152906040528051906020012083604051602001610e149190612f72565b6040516020818303038152906040528051906020012003610e855760405162461bcd60e51b815260206004820152602560248201527f5075626c6975733a2053656374696f6e206e616d652063616e6e6f7420626520604482015264656d70747960d81b60648201526084016107cc565b60008080610e95898b018b6137ea565b9250925092508051600003610ef85760405162461bcd60e51b8152602060048201526024808201527f5075626c6975733a2043686170746572204944732063616e6e6f7420626520656044820152636d70747960e01b60648201526084016107cc565b8251600003610f585760405162461bcd60e51b815260206004820152602660248201527f5075626c6975733a2043686170746572206e616d65732063616e6e6f7420626560448201526520656d70747960d01b60648201526084016107cc565b60008080610f688a8c018c6138f0565b9250925092508251600003610f8f5760405162461bcd60e51b81526004016107cc906139e7565b8051600003610fb05760405162461bcd60e51b81526004016107cc90613a2a565b600060fd6000610102546001610fc6919061373b565b81526020810191909152604001600020905080610fe38b82613ab1565b506001810188905560028101610ff98a82613ab1565b5060005b85518110156110c1576110af82600101548983815181106110205761102061370f565b602002602001015189848151811061103a5761103a61370f565b60200260200101518985815181106110545761105461370f565b602002602001015189868151811061106e5761106e61370f565b60200260200101518987815181106110885761108861370f565b60200260200101518988815181106110a2576110a261370f565b6020026020010151611d0a565b806110b981613765565b915050610ffd565b5061010280549060006110d383613765565b919050555050505050505050505050505050505050565b60006001600160a01b0382166111545760405162461bcd60e51b815260206004820152602960248201527f4552433732313a2061646472657373207a65726f206973206e6f7420612076616044820152683634b21037bbb732b960b91b60648201526084016107cc565b506001600160a01b031660009081526068602052604090205490565b611178612593565b61118260006125ed565b565b60ff805461119190613688565b80601f01602080910402602001604051908101604052809291908181526020018280546111bd90613688565b801561120a5780601f106111df5761010080835404028352916020019161120a565b820191906000526020600020905b8154815290600101906020018083116111ed57829003601f168201915b505050505081565b600054610100900460ff16158080156112325750600054600160ff909116105b8061124c5750303b15801561124c575060005460ff166001145b6112af5760405162461bcd60e51b815260206004820152602e60248201527f496e697469616c697a61626c653a20636f6e747261637420697320616c72656160448201526d191e481a5b9a5d1a585b1a5e995960921b60648201526084016107cc565b6000805460ff1916600117905580156112d2576000805461ff0019166101001790555b61133085858080601f016020809104026020016040519081016040528093929190818152602001838380828437600092019190915250506040805180820190915260078152665055424c49555360c81b6020820152915061263f9050565b611338612670565b611341866120d5565b60ff61134e858783613b70565b5061010080546001600160a01b0319166001600160a01b038816179055610101611379838583613b70565b5080156113c0576000805461ff0019169055604051600181527f7f26b83ff96e1f2b6a682f133852f6798a09c465da95921460cefb38474024989060200160405180910390a15b505050505050565b6060606680546106ae90613688565b6113e881662386f26fc1000061374e565b34101561142d5760405162461bcd60e51b8152602060048201526013602482015272139bdd08195b9bdd59da08115512081cd95b9d606a1b60448201526064016107cc565b60005b818110156114a757600061144360995490565b61144e90600161373b565b905061145a338261269f565b600081815260fb6020908152604080832080546001600160a01b03191633908117909155835260fc825282208054600181018255908352912001558061149f81613765565b915050611430565b5050565b6114a7338383612838565b6114c033836123a3565b6114dc5760405162461bcd60e51b81526004016107cc906136c2565b6114e884848484612906565b50505050565b6000818152606760205260409020546060906001600160a01b031661154c5760405162461bcd60e51b8152602060048201526014602482015273151bdad95b88191bd95cc81b9bdd08195e1a5cdd60621b60448201526064016107cc565b6040805180820190915260018152607b60f81b602082015261010054819060ff9061157f906001600160a01b0316610b19565b6101016040516020016115959493929190613ca2565b60408051601f19818403018152919052905060015b61010254811161186057600081815260fd6020526040812060018101549091906115d390612939565b6040516115ea919084906002820190602001613d5e565b604051602081830303815290604052905060005b60038301548110156117d65760008360030182815481106116215761162161370f565b90600052602060002001549050600060fe6000838152602001908152602001600020905060006116548260010154612939565b60405161166b919084906002820190602001613e03565b60408051601f19818403018152919052905060015b8260040154811161173c576000818152600384016020526040812060018101549091906116ac90612939565b6040516116c3919084906002820190602001613ea5565b6040516020818303038152906040529050846004015483101561170357806040516020016116f19190613f35565b60405160208183030381529060405290505b8381604051602001611716929190613f5a565b60405160208183030381529060405293505050808061173490613765565b915050611680565b508060405160200161174e9190613f89565b60408051601f19818403018152919052600387015490915061177290600190613faf565b84101561179c578060405160200161178a9190613f35565b60405160208183030381529060405290505b84816040516020016117af929190613f5a565b604051602081830303815290604052945050505080806117ce90613765565b9150506115fe565b50806040516020016117e89190613f89565b60405160208183030381529060405290506101025483101561182757806040516020016118159190613f35565b60405160208183030381529060405290505b838160405160200161183a929190613f5a565b60405160208183030381529060405293505050808061185890613765565b9150506115aa565b50806040516020016118729190613f89565b60408051808303601f190181526020808401835260008452915190935061189d918391859101613f5a565b60405160208183030381529060405292505050919050565b6118bd612593565b6040516020016118d890602080825260009082015260400190565b60408051601f198184030181528282528051602091820120600088815260fe835292909220919261190a929101613fc2565b60405160208183030381529060405280519060200120036119665760405162461bcd60e51b815260206004820152601660248201527510da185c1d195c88191bd95cc81b9bdd08195e1a5cdd60521b60448201526064016107cc565b60405160200161198190602080825260009082015260400190565b60405160208183030381529060405280519060200120836040516020016119a89190612f72565b6040516020818303038152906040528051906020012003611a0b5760405162461bcd60e51b815260206004820152601960248201527f50616765206e616d652063616e6e6f7420626520656d7074790000000000000060448201526064016107cc565b604051602001611a2690602080825260009082015260400190565b60408051601f19818403018152828252805160209182012090830184905291016040516020818303038152906040528051906020012003611aa95760405162461bcd60e51b815260206004820152601760248201527f506167652049442063616e6e6f7420626520656d70747900000000000000000060448201526064016107cc565b600084815260fe602090815260408083208151606081018352878152928301859052908201859052600481015490926003840191611ae890600161373b565b8152602081019190915260400160002081518190611b069082613ab1565b506020820151600182015560408201516002820190611b259082613ab1565b505050600481018054906000611b3a83613765565b91905055505050505050565b610101805461119190613688565b611b7860405180606001604052806060815260200160008152602001606081525090565b600083815260fe602090815260408083208584526003810190925291829020825160608101909352805491929182908290611bb290613688565b80601f0160208091040260200160405190810160405280929190818152602001828054611bde90613688565b8015611c2b5780601f10611c0057610100808354040283529160200191611c2b565b820191906000526020600020905b815481529060010190602001808311611c0e57829003601f168201915b5050505050815260200160018201548152602001600282018054611c4e90613688565b80601f0160208091040260200160405190810160405280929190818152602001828054611c7a90613688565b8015611cc75780601f10611c9c57610100808354040283529160200191611cc7565b820191906000526020600020905b815481529060010190602001808311611caa57829003601f168201915b50505050508152505091505092915050565b60fc6020528160005260406000208181548110611cf557600080fd5b90600052602060002001600091509150505481565b611d12612593565b600087815260fd60205260408120600101549003611d725760405162461bcd60e51b815260206004820152601f60248201527f5075626c6975733a2053656374696f6e20646f6573206e6f742065786973740060448201526064016107cc565b600084815260fe60205260409020600101541580611d975750611d958488612a46565b155b611de35760405162461bcd60e51b815260206004820152601f60248201527f5075626c6975733a204368617074657220616c7265616479206578697374730060448201526064016107cc565b83600003611e335760405162461bcd60e51b815260206004820152601f60248201527f5075626c6975733a20436861707465722049442063616e6e6f7420626520300060448201526064016107cc565b604051602001611e4e90602080825260009082015260400190565b6040516020818303038152906040528051906020012086604051602001611e759190612f72565b6040516020818303038152906040528051906020012003611ee65760405162461bcd60e51b815260206004820152602560248201527f5075626c6975733a2043686170746572206e616d652063616e6e6f7420626520604482015264656d70747960d81b60648201526084016107cc565b8251600003611f075760405162461bcd60e51b81526004016107cc906139e7565b8051600003611f285760405162461bcd60e51b81526004016107cc90613a2a565b8151600003611f875760405162461bcd60e51b815260206004820152602560248201527f5075626c6975733a205061676520636f6e74656e742063616e6e6f7420626520604482015264656d70747960d81b60648201526084016107cc565b8151835114611ffe5760405162461bcd60e51b815260206004820152603760248201527f5075626c6975733a2050616765206e616d657320616e6420636f6e74656e742060448201527f6d757374206265207468652073616d65206c656e67746800000000000000000060648201526084016107cc565b600084815260fe60205260409020806120178882613ab1565b50600181018590556002810161202d8782613ab1565b50600088815260fd6020908152604082206003018054600181018255908352908220018690555b84518110156120ca576120b882600101548683815181106120775761207761370f565b60200260200101518684815181106120915761209161370f565b60200260200101518685815181106120ab576120ab61370f565b60200260200101516118b5565b806120c281613765565b915050612054565b505050505050505050565b6120dd612593565b6001600160a01b0381166121425760405162461bcd60e51b815260206004820152602660248201527f4f776e61626c653a206e6577206f776e657220697320746865207a65726f206160448201526564647265737360d01b60648201526084016107cc565b61214b816125ed565b50565b60fe6020526000908152604090208054819061216990613688565b80601f016020809104026020016040519081016040528092919081815260200182805461219590613688565b80156121e25780601f106121b7576101008083540402835291602001916121e2565b820191906000526020600020905b8154815290600101906020018083116121c557829003601f168201915b5050505050908060010154908060020180546121fd90613688565b80601f016020809104026020016040519081016040528092919081815260200182805461222990613688565b80156122765780601f1061224b57610100808354040283529160200191612276565b820191906000526020600020905b81548152906001019060200180831161225957829003601f168201915b5050505050908060040154905084565b60006001600160e01b031982166380ac58cd60e01b14806122b757506001600160e01b03198216635b5e139f60e01b145b8061069957506301ffc9a760e01b6001600160e01b0319831614610699565b6000818152606760205260409020546001600160a01b031661214b5760405162461bcd60e51b8152602060048201526018602482015277115490cdcc8c4e881a5b9d985b1a59081d1bdad95b88125160421b60448201526064016107cc565b600081815260696020526040902080546001600160a01b0319166001600160a01b038416908117909155819061236a82610d04565b6001600160a01b03167f8c5be1e5ebec7d5bd14f71427d1e84f3dd0314c0f7b2291e5b200ac8c7c3b92560405160405180910390a45050565b6000806123af83610d04565b9050806001600160a01b0316846001600160a01b031614806123f657506001600160a01b038082166000908152606a602090815260408083209388168352929052205460ff165b8061241a5750836001600160a01b031661240f84610731565b6001600160a01b0316145b949350505050565b826001600160a01b031661243582610d04565b6001600160a01b03161461245b5760405162461bcd60e51b81526004016107cc9061404d565b6001600160a01b0382166124bd5760405162461bcd60e51b8152602060048201526024808201527f4552433732313a207472616e7366657220746f20746865207a65726f206164646044820152637265737360e01b60648201526084016107cc565b6124ca8383836001612ab3565b826001600160a01b03166124dd82610d04565b6001600160a01b0316146125035760405162461bcd60e51b81526004016107cc9061404d565b600081815260696020908152604080832080546001600160a01b03199081169091556001600160a01b0387811680865260688552838620805460001901905590871680865283862080546001019055868652606790945282852080549092168417909155905184937fddf252ad1be2c89b69c2b068fc378daa952ba7f163c4a11628f55a4df523b3ef91a4505050565b60c9546001600160a01b031633146111825760405162461bcd60e51b815260206004820181905260248201527f4f776e61626c653a2063616c6c6572206973206e6f7420746865206f776e657260448201526064016107cc565b60c980546001600160a01b038381166001600160a01b0319831681179093556040519116919082907f8be0079c531659141344cd1fd0a4f28419497f9722a3daafe3b4186f6b6457e090600090a35050565b600054610100900460ff166126665760405162461bcd60e51b81526004016107cc90614092565b6114a78282612be7565b600054610100900460ff166126975760405162461bcd60e51b81526004016107cc90614092565b611182612c27565b6001600160a01b0382166126f55760405162461bcd60e51b815260206004820181905260248201527f4552433732313a206d696e7420746f20746865207a65726f206164647265737360448201526064016107cc565b6000818152606760205260409020546001600160a01b03161561275a5760405162461bcd60e51b815260206004820152601c60248201527f4552433732313a20746f6b656e20616c7265616479206d696e7465640000000060448201526064016107cc565b612768600083836001612ab3565b6000818152606760205260409020546001600160a01b0316156127cd5760405162461bcd60e51b815260206004820152601c60248201527f4552433732313a20746f6b656e20616c7265616479206d696e7465640000000060448201526064016107cc565b6001600160a01b038216600081815260686020908152604080832080546001019055848352606790915280822080546001600160a01b0319168417905551839291907fddf252ad1be2c89b69c2b068fc378daa952ba7f163c4a11628f55a4df523b3ef908290a45050565b816001600160a01b0316836001600160a01b0316036128995760405162461bcd60e51b815260206004820152601960248201527f4552433732313a20617070726f766520746f2063616c6c65720000000000000060448201526064016107cc565b6001600160a01b038381166000818152606a6020908152604080832094871680845294825291829020805460ff191686151590811790915591519182527f17307eab39ab6107e8899845ad3d59bd9653f200f220920489ca2b5937696c31910160405180910390a3505050565b612911848484612422565b61291d84848484612c57565b6114e85760405162461bcd60e51b81526004016107cc906140dd565b6060816000036129605750506040805180820190915260018152600360fc1b602082015290565b8160005b811561298a578061297481613765565b91506129839050600a83614145565b9150612964565b6000816001600160401b038111156129a4576129a461320d565b6040519080825280601f01601f1916602001820160405280156129ce576020820181803683370190505b509050815b8515610cfb576129e4600182613faf565b905060006129f3600a88614159565b6129fe90603061416d565b905060008160f81b905080848481518110612a1b57612a1b61370f565b60200101906001600160f81b031916908160001a905350612a3d600a89614145565b975050506129d3565b600082815260fd602052604081206003810154825b81811015612aa75784836003018281548110612a7957612a7961370f565b906000526020600020015403612a955760019350505050610699565b80612a9f81613765565b915050612a5b565b50600095945050505050565b6001811115612b225760405162461bcd60e51b815260206004820152603560248201527f455243373231456e756d657261626c653a20636f6e7365637574697665207472604482015274185b9cd9995c9cc81b9bdd081cdd5c1c1bdc9d1959605a1b60648201526084016107cc565b816001600160a01b038516612b7e57612b7981609980546000838152609a60205260408120829055600182018355919091527f72a152ddfb8e864297c917af52ea6c1c68aead0fee1a62673fcc7e0c94979d000155565b612ba1565b836001600160a01b0316856001600160a01b031614612ba157612ba18582612d58565b6001600160a01b038416612bbd57612bb881612df5565b612be0565b846001600160a01b0316846001600160a01b031614612be057612be08482612ea4565b5050505050565b600054610100900460ff16612c0e5760405162461bcd60e51b81526004016107cc90614092565b6065612c1a8382613ab1565b50606661086d8282613ab1565b600054610100900460ff16612c4e5760405162461bcd60e51b81526004016107cc90614092565b611182336125ed565b60006001600160a01b0384163b15612d4d57604051630a85bd0160e11b81526001600160a01b0385169063150b7a0290612c9b903390899088908890600401614186565b6020604051808303816000875af1925050508015612cd6575060408051601f3d908101601f19168201909252612cd3918101906141b9565b60015b612d33573d808015612d04576040519150601f19603f3d011682016040523d82523d6000602084013e612d09565b606091505b508051600003612d2b5760405162461bcd60e51b81526004016107cc906140dd565b805181602001fd5b6001600160e01b031916630a85bd0160e11b14905061241a565b506001949350505050565b60006001612d65846110ea565b612d6f9190613faf565b600083815260986020526040902054909150808214612dc2576001600160a01b03841660009081526097602090815260408083208584528252808320548484528184208190558352609890915290208190555b5060009182526098602090815260408084208490556001600160a01b039094168352609781528383209183525290812055565b609954600090612e0790600190613faf565b6000838152609a602052604081205460998054939450909284908110612e2f57612e2f61370f565b906000526020600020015490508060998381548110612e5057612e5061370f565b6000918252602080832090910192909255828152609a90915260408082208490558582528120556099805480612e8857612e886141d6565b6001900381819060005260206000200160009055905550505050565b6000612eaf836110ea565b6001600160a01b039093166000908152609760209081526040808320868452825280832085905593825260989052919091209190915550565b6001600160e01b03198116811461214b57600080fd5b600060208284031215612f1057600080fd5b8135612f1b81612ee8565b9392505050565b60005b83811015612f3d578181015183820152602001612f25565b50506000910152565b60008151808452612f5e816020860160208601612f22565b601f01601f19169290920160200192915050565b602081526000612f1b6020830184612f46565b600060208284031215612f9757600080fd5b5035919050565b80356001600160a01b0381168114612fb557600080fd5b919050565b60008060408385031215612fcd57600080fd5b612fd683612f9e565b946020939093013593505050565b600080600060608486031215612ff957600080fd5b61300284612f9e565b925061301060208501612f9e565b9150604084013590509250925092565b6060815260006130336060830186612f46565b846020840152828103604084015261304b8185612f46565b9695505050505050565b60006020828403121561306757600080fd5b612f1b82612f9e565b60008083601f84011261308257600080fd5b5081356001600160401b0381111561309957600080fd5b6020830191508360208285010111156130b157600080fd5b9250929050565b600080600080600080606087890312156130d157600080fd5b86356001600160401b03808211156130e857600080fd5b6130f48a838b01613070565b9098509650602089013591508082111561310d57600080fd5b6131198a838b01613070565b9096509450604089013591508082111561313257600080fd5b5061313f89828a01613070565b979a9699509497509295939492505050565b60008060008060006060868803121561316957600080fd5b61317286612f9e565b945060208601356001600160401b038082111561318e57600080fd5b61319a89838a01613070565b909650945060408801359150808211156131b357600080fd5b506131c088828901613070565b969995985093965092949392505050565b600080604083850312156131e457600080fd5b6131ed83612f9e565b91506020830135801515811461320257600080fd5b809150509250929050565b634e487b7160e01b600052604160045260246000fd5b604051601f8201601f191681016001600160401b038111828210171561324b5761324b61320d565b604052919050565b60006001600160401b0383111561326c5761326c61320d565b61327f601f8401601f1916602001613223565b905082815283838301111561329357600080fd5b828260208301376000602084830101529392505050565b600080600080608085870312156132c057600080fd5b6132c985612f9e565b93506132d760208601612f9e565b92506040850135915060608501356001600160401b038111156132f957600080fd5b8501601f8101871361330a57600080fd5b61331987823560208401613253565b91505092959194509250565b600082601f83011261333657600080fd5b612f1b83833560208501613253565b6000806000806080858703121561335b57600080fd5b8435935060208501356001600160401b038082111561337957600080fd5b61338588838901613325565b9450604087013591508082111561339b57600080fd5b506133a887828801613325565b949793965093946060013593505050565b600080604083850312156133cc57600080fd5b50508035926020909101359150565b6020815260008251606060208401526133f76080840182612f46565b9050602084015160408401526040840151601f1984830301606085015261341e8282612f46565b95945050505050565b60006001600160401b038211156134405761344061320d565b5060051b60200190565b600082601f83011261345b57600080fd5b8135602061347061346b83613427565b613223565b82815260059290921b8401810191818101908684111561348f57600080fd5b8286015b848110156134ce5780356001600160401b038111156134b25760008081fd5b6134c08986838b0101613325565b845250918301918301613493565b509695505050505050565b600082601f8301126134ea57600080fd5b813560206134fa61346b83613427565b82815260059290921b8401810191818101908684111561351957600080fd5b8286015b848110156134ce578035835291830191830161351d565b600080600080600080600060e0888a03121561354f57600080fd5b8735965060208801356001600160401b038082111561356d57600080fd5b6135798b838c01613325565b975060408a013591508082111561358f57600080fd5b61359b8b838c01613325565b965060608a0135955060808a01359150808211156135b857600080fd5b6135c48b838c0161344a565b945060a08a01359150808211156135da57600080fd5b6135e68b838c0161344a565b935060c08a01359150808211156135fc57600080fd5b506136098a828b016134d9565b91505092959891949750929550565b6000806040838503121561362b57600080fd5b61363483612f9e565b915061364260208401612f9e565b90509250929050565b60808152600061365e6080830187612f46565b85602084015282810360408401526136768186612f46565b91505082606083015295945050505050565b600181811c9082168061369c57607f821691505b6020821081036136bc57634e487b7160e01b600052602260045260246000fd5b50919050565b6020808252602d908201527f4552433732313a2063616c6c6572206973206e6f7420746f6b656e206f776e6560408201526c1c881bdc88185c1c1c9bdd9959609a1b606082015260800190565b634e487b7160e01b600052603260045260246000fd5b634e487b7160e01b600052601160045260246000fd5b8082018082111561069957610699613725565b808202811582820484141761069957610699613725565b60006001820161377757613777613725565b5060010190565b60008060006060848603121561379357600080fd5b83356001600160401b03808211156137aa57600080fd5b6137b687838801613325565b945060208601359150808211156137cc57600080fd5b506137d986828701613325565b925050604084013590509250925092565b6000806000606084860312156137ff57600080fd5b83356001600160401b038082111561381657600080fd5b6138228783880161344a565b9450602086013591508082111561383857600080fd5b6138448783880161344a565b9350604086013591508082111561385a57600080fd5b50613867868287016134d9565b9150509250925092565b600082601f83011261388257600080fd5b8135602061389261346b83613427565b82815260059290921b840181019181810190868411156138b157600080fd5b8286015b848110156134ce5780356001600160401b038111156138d45760008081fd5b6138e28986838b010161344a565b8452509183019183016138b5565b60008060006060848603121561390557600080fd5b83356001600160401b038082111561391c57600080fd5b61392887838801613871565b945060209150818601358181111561393f57600080fd5b61394b88828901613871565b94505060408601358181111561396057600080fd5b8601601f8101881361397157600080fd5b803561397f61346b82613427565b81815260059190911b8201840190848101908a83111561399e57600080fd5b8584015b838110156139d6578035868111156139ba5760008081fd5b6139c88d89838901016134d9565b8452509186019186016139a2565b508096505050505050509250925092565b60208082526023908201527f5075626c6975733a2050616765206e616d65732063616e6e6f7420626520656d60408201526270747960e81b606082015260800190565b60208082526021908201527f5075626c6975733a2050616765204944732063616e6e6f7420626520656d70746040820152607960f81b606082015260800190565b601f82111561086d57600081815260208120601f850160051c81016020861015613a925750805b601f850160051c820191505b818110156113c057828155600101613a9e565b81516001600160401b03811115613aca57613aca61320d565b613ade81613ad88454613688565b84613a6b565b602080601f831160018114613b135760008415613afb5750858301515b600019600386901b1c1916600185901b1785556113c0565b600085815260208120601f198616915b82811015613b4257888601518255948401946001909101908401613b23565b5085821015613b605787850151600019600388901b60f8161c191681555b5050505050600190811b01905550565b6001600160401b03831115613b8757613b8761320d565b613b9b83613b958354613688565b83613a6b565b6000601f841160018114613bcf5760008515613bb75750838201355b600019600387901b1c1916600186901b178355612be0565b600083815260209020601f19861690835b82811015613c005786850135825560209485019460019092019101613be0565b5086821015613c1d5760001960f88860031b161c19848701351681555b505060018560011b0183555050505050565b60008154613c3c81613688565b60018281168015613c545760018114613c6957613c98565b60ff1984168752821515830287019450613c98565b8560005260208060002060005b85811015613c8f5781548a820152908401908201613c76565b50505082870194505b5050505092915050565b60008551613cb4818460208a01612f22565b7311383ab13634b1b0ba34b7b72730b6b2911d101160611b908301908152613cdf6014820187613c2f565b711116101130baba3437b92730b6b2911d101160711b81528551909150613d0d816012840160208901612f22565b711116101131b7bb32b924b6b0b3b2911d101160711b60129290910191820152613d3a6024820185613c2f565b6f222c202273656374696f6e73223a205b60801b8152601001979650505050505050565b6f3d901139b2b1ba34b7b724b2111d101160811b81528351600090613d8a816010850160208901612f22565b721116101139b2b1ba34b7b72730b6b2911d101160691b601091840191820152613db76023820186613c2f565b731116101139b2b1ba34b7b724b6b0b3b2911d101160611b81529050613de06014820185613c2f565b6f222c20226368617074657273223a205b60801b81526010019695505050505050565b6f3d901131b430b83a32b924b2111d101160811b81528351600090613e2f816010850160208901612f22565b721116101131b430b83a32b92730b6b2911d101160691b601091840191820152613e5c6023820186613c2f565b731116101131b430b83a32b924b6b0b3b2911d101160611b81529050613e856014820185613c2f565b6c222c20227061676573223a205b60981b8152600d019695505050505050565b6c3d90113830b3b2a4b2111d101160991b81528351600090613ece81600d850160208901612f22565b6f111610113830b3b2a730b6b2911d101160811b600d91840191820152613ef8601d820186613c2f565b72111610113830b3b2a1b7b73a32b73a111d101160691b81529050613f206013820185613c2f565b61227d60f01b81526002019695505050505050565b60008251613f47818460208701612f22565b600b60fa1b920191825250600101919050565b60008351613f6c818460208801612f22565b835190830190613f80818360208801612f22565b01949350505050565b60008251613f9b818460208701612f22565b615d7d60f01b920191825250600201919050565b8181038181111561069957610699613725565b6000602080835260008454613fd681613688565b80848701526040600180841660008114613ff757600181146140115761403f565b60ff1985168984015283151560051b89018301955061403f565b896000528660002060005b858110156140375781548b820186015290830190880161401c565b8a0184019650505b509398975050505050505050565b60208082526025908201527f4552433732313a207472616e736665722066726f6d20696e636f72726563742060408201526437bbb732b960d91b606082015260800190565b6020808252602b908201527f496e697469616c697a61626c653a20636f6e7472616374206973206e6f74206960408201526a6e697469616c697a696e6760a81b606082015260800190565b60208082526032908201527f4552433732313a207472616e7366657220746f206e6f6e20455243373231526560408201527131b2b4bb32b91034b6b83632b6b2b73a32b960711b606082015260800190565b634e487b7160e01b600052601260045260246000fd5b6000826141545761415461412f565b500490565b6000826141685761416861412f565b500690565b60ff818116838216019081111561069957610699613725565b6001600160a01b038581168252841660208201526040810183905260806060820181905260009061304b90830184612f46565b6000602082840312156141cb57600080fd5b8151612f1b81612ee8565b634e487b7160e01b600052603160045260246000fdfea26469706673582212208677243159350e806602c3a22963905ca2ee8ffa35ad9b68436ac495aff42bce64736f6c63430008120033",
  "linkReferences": {},
  "deployedLinkReferences": {}
}